:10000000020D80008F828E83E0540100000070F8A2
:100010002278FFE4F6D8FD020DDEBB010689828A54
:1000200083E0225002E722BBFE02E32289828A8318
:10003000E49322BB010689828A83F0225002F722D0
:10004000BBFE01F322BC000BBE0029EF8DF084FF44
:10005000ADF022E4CCF875F008EF2FFFEE33FEECA4
:1000600033FCEE9DEC984005FCEE9DFE0FD5F0E9CB
:10007000E4CEFD22EDF8F5F0EE8420D21CFEADF0CA
:1000800075F008EF2FFFED33FD4007985006D5F0CF
:10009000F222C398FD0FD5F0EA22C5F0F8A3E028BC
:1000A000F0C5F0F8E582158270021583E038F02281
:1000B000EF2BFFEE3AFEED39FDEC38FC22E88FF035
:1000C000A4CC8BF0A42CFCE98EF0A42CFC8AF0EDDF
:1000D000A42CFCEA8EF0A4CDA8F08BF0A42DCC3893
:1000E00025F0FDE98FF0A42CCD35F0FCEB8EF0A4CB
:1000F000FEA9F0EB8FF0A4CFC5F02ECD39FEE43C85
:10010000FCEAA42DCE35F0FDE43CFC2275F0087528
:100110008200EF2FFFEE33FECD33CDCC33CCC58242
:1001200033C5829BED9AEC99E58298400CF582EEFE
:100130009BFEED9AFDEC99FC0FD5F0D6E4CEFBE4E6
:10014000CDFAE4CCF9A88222B800C1B90059BA00AE
:100150002DEC8BF084CFCECDFCE5F0CBF97818EF09
:100160002FFFEE33FEED33FDEC33FCEB33FB10D70A
:1001700003994004EB99FB0FD8E5E4F9FA227818CB
:10018000EF2FFFEE33FEED33FDEC33FCC933C91026
:10019000D7059BE99A4007EC9BFCE99AF90FD8E058
:1001A000E4C9FAE4CCFB2275F010EF2FFFEE33FE2A
:1001B000ED33FDCC33CCC833C810D7079BEC9AE89D
:1001C00099400AED9BFDEC9AFCE899F80FD5F0DA1E
:1001D000E4CDFBE4CCFAE4C8F922EF4BFFEE4AFE93
:1001E000ED49FDEC48FC22EB9FF5F0EA9E42F0E978
:1001F0009D42F0E89C45F022E8600FECC313FCED53
:1002000013FDEE13FEEF13FFD8F122E8600FEFC3EA
:1002100033FFEE33FEED33FDEC33FCD8F122E0FC8E
:10022000A3E0FDA3E0FEA3E0FF22E0F8A3E0F9A332
:10023000E0FAA3E0FB22ECF0A3EDF0A3EEF0A3EFD5
:10024000F022E0FBA3E0FAA3E0F922EBF0A3EAF04E
:10025000A3E9F022E493FB740193FA740293F92268
:10026000D083D082F8E4937012740193700DA3A32D
:1002700093F8740193F5828883E473740293686041
:10028000EFA3A3A380DFE50C2582F582E50B358380
:10029000F583B50B0485820C2210AF0685820CF520
:1002A0000B2285820CF50BD2AF22EC8EF0A4CCC5CC
:1002B000F0CCCDF8EFA4CEC5F02DFDE43CFCE8A4D5
:1002C0002EC8C5F03DFDE43CFCEFA4FFE5F028FEA0
:1002D000E43DFDE43CFC22E709F608DFFA8046E74E
:1002E00009F208DFFA803E88828C83E709F0A3DFF9
:1002F000FA8032E309F608DFFA806EE309F208DFDC
:10030000FA806688828C83E309F0A3DFFA805A8939
:10031000828A83E0A3F608DFFA804E89828A83E02E
:10032000A3F208DFFA804280D280FA80C680D480AF
:100330005580F28029801080A680EA809A80A8806B
:10034000DA80E280CA802988848C8589828A83E465
:1003500093A30586F0A30586DFF5DEF3800B898283
:100360008A83E493A3F608DFF9ECFAA9F0EDFB2207
:1003700088848C8589828A83E0A30586F0A305861C
:10038000DFF6DEF480E389828A83E493A3F208DF58
:10039000F980D688F0EF60010E4E60CD88F0ED2434
:1003A00002B4040050C3F582EB2402B4040050B937
:1003B00023234582239003277390001312024B904E
:1003C0000016120242AF01AE02AD037C0090012C78
:1003D00012023690012C12021EEF54FFFFEE54FF62
:1003E000FEED5400FDEC5400FC90012C12023690FE
:1003F0000016120242AF01AE02AD037C007B007A10
:100400000079FF7800D31201E7400302063F900015
:1004100016120242AF01AE02AD037C00A804A9058A
:10042000AA06AB07900019E0FEA3E0FFE4FCFD1272
:1004300000B07BFF7AFF79FF7800C31201E7500319
:1004400002063F1215587B017A0179341211597B4B
:10045000007A007901780090012C12021E120148E6
:1004600090011B1202367B007A017900780090011E
:100470002C12021E120148EF54FFFFEE5400FEED55
:100480005400FDEC5400FC90011F1202367F007EE8
:10049000017D007C0090011F12022A1200BDC004E1
:1004A000C005C006C0077F007E007D017C00900172
:1004B0001B12022A1200BDA804A905AA06AB07D088
:1004C00007D006D005D0041200B0900130120236D9
:1004D0007F007E007D007C00900127120236900193
:1004E0002BE4F0900019E0FEA3E0FFE4FCFD900196
:1004F0002712022AC31201E7400302063290012BA1
:10050000E0FFEF60030206327F007E007D007C008A
:1005100090012312023690012312021EC3EE9401B1
:1005200040030205F690012C12021E9001301202C7
:100530002AC31201E7405B900019E0FEA3E0FFE44C
:10054000FCFD90012712022AC31201E750449001DA
:100550002712021E900013120242E92FF9EA3EFA16
:10056000EB3DFB12001AFB90012312021E741B2F9D
:10057000F582E43400F583EBF090012712021E7B34
:10058000017A00790078001200B09001271202363B
:10059000803390013012021EEF2400FFEE3400FE83
:1005A000ED3410FDEC3400FCA907AA06AB051216C9
:1005B00014AB0790012312021E741B2FF582E43442
:1005C00000F583EBF090013012021E7B017A007976
:1005D0000078001200B09001301202369001231210
:1005E000021E7B017A00790078001200B09001238E
:1005F00012023602051690011B12021EC00790015E
:100600001F12021EAD07AC067B017A00791BD007D2
:1006100012066390012BEFF090011F12021E7B0166
:100620007A00790078001200B090011F12023602A1
:1006300004E3904800E0FFEF4406FFEFF0800690EF
:10064000012B7401F090012BE0FFEF601090012B63
:10065000E0FFEF6401600690012B74FFF090012B26
:10066000E0FF22900254EFF0900255ECF0A3EDF081
:1006700090025712024B7B007A007900C003C0023F
:10068000C0019002C6120242D082D083D0E06B70CB
:1006900008E965827003EA658370030207B7900278
:1006A00054E0FFEFD3943F400C90025FE4F0A3745A
:1006B00010F002076190025F7401F0A37420F090C3
:1006C0000254E0FF7E007C207D001202AAEF24008D
:1006D000FFEE3400FEED3408FDEC3400FCC004C035
:1006E00005C006C007900255E0FEA3E0FF7C007D38
:1006F000201202AAA804A905AA06AB07D007D006B3
:10070000D005D0041200B090025B12023690025A5B
:10071000E4F090025AE0FFEFC39420504490025A54
:10072000E0FFE4FCFDFE90025B12022A1200B0A979
:1007300007AA06AB051216149002C6120242E9245B
:1007400000F9EA3401FA90025AE0FEEEFD7C00E97D
:100750002DF9EA3CFAEF12003390025AE004F080DF
:10076000B1900257120242C003C002C0019002C6FB
:10077000120242A801AC02AD03D001D002D0037E28
:10078000017F00120393900254E0FFC007900255CE
:10079000E0FCA3E0FD9002C612024290025FE0FE80
:1007A000A3E0FF900268EEF0A3EFF0D007120B4534
:1007B000900261EFF0800690026174FFF090026198
:1007C000E0FF22905120E0FFEF5480FFEFF09051C6
:1007D00022E0FFEF54F0FF90001BEFF090001BE0D1
:1007E000FFEF440FFF905122EFF0905123E0FFEF15
:1007F00054F0FF90001BEFF090001BE0FF9051239E
:10080000EFF0905124E0FFEF54F0FF90001BEFF069
:1008100090001BE0FF905124EFF0905120E0FFEF9B
:1008200054DFFFEFF0905120E0FFEF4440FFEFF086
:100830007F007E00121504905120E0FFEF4410FF6E
:10084000EFF07F017E00121504905121E0FF90002F
:100850001BEFF0905120E0FFEF54EFFFEFF07F002F
:100860007E0012150490001BE0FFEF5408FF90007B
:100870001BEFF0905120E0FFEF4410FFEFF07F01FD
:100880007E00121504905120E0FFEF54EFFFEFF0CF
:1008900090001BE0FFEF7098905120E0FFEF54BFF5
:1008A000FFEFF0905120E0FFEF5480FFEFF0905108
:1008B00022E0FFEF54F0FFEFF0905123E0FFEF5400
:1008C000F0FF90001BEFF090001BE0FFEF440FFFE4
:1008D000905123EFF0905124E0FFEF54F0FF90008F
:1008E0001BEFF090001BE0FFEF440FFF905124EF4F
:1008F000F0227BFF7A137984C003C002C0017B0120
:100900007A007900A801AC02AD03D001D002D00377
:100910007E007F0E1203931215BD1213FE7F01128B
:1009200013C87BFF7A1379571212C0901376E493A1
:10093000FFEF6446705A7D007F011212127BFF7A2E
:100940001379761212C07B017A007900C003C002CD
:10095000C0017BFF7A13797690001612024B90004B
:1009600019E4F0A3740EF0D001D002D0031203B941
:1009700090000FEFF090000FE0FFEF7003020A19F4
:100980007F011213C87BFF7A1379661212C080FEB2
:100990007BFF7A13798290001012024B90001012A4
:1009A000024212001AFF90000EEFF090000EE004D9
:1009B000F090000EE0FFEFD39439400690000E74E3
:1009C00030F07B017A00790EC003C002C0017BFFCA
:1009D0007A13798290001612024B900019E4F0A36A
:1009E0007401F0D001D002D0031203B990000FEFD0
:1009F000F07D007F011212127BFF7A1379761212BA
:100A0000C090000FE0FFEF60107F011213C87BFF62
:100A10007A1379661212C080FE80FE227B007A462D
:100A200079E8121614EF4401FD7B007A4679E8124A
:100A30001620750A00E50AC39409503AAF0AEF750B
:100A4000F005A4242CF582E43416F583AF82AE833E
:100A50008E088F09AE08AF098F828E83120254AEC2
:100A600008AF098F828E83740393FC740493FD1284
:100A70001576050A80BF7B017A507903121614EFB0
:100A80004402FD7B017A5079031216207B017A50D3
:100A90007913121614EF4402FD7B017A5079131278
:100AA00016209043A0E0FFEF4440FF9043A0EFF0FA
:100AB0009043C2E0FFEF4410FF9043C2EFF07B0889
:100AC0007A007900C003C002C0017B007A5179220C
:100AD00090000A12024BD001D002D0037F087E00A2
:100AE000121471904322E0FFEF4408FF904322EF7D
:100AF000F09046ECE0FFEFC39405500690468974F1
:100B00003AF090480074F1F0120C6490480074B10F
:100B1000F012143B7B007A4379A0C003C002C001ED
:100B20007B007A4379B090000A12024BD001D002C8
:100B3000D0037F0E7E001214719043B0E0FFEF549B
:100B4000FDFFEFF022900262EFF0900263ECF0A361
:100B5000EDF090026512024B1214D5EF6003020C07
:100B600058900262E0FF900265120242900268E033
:100B7000FCA3E0FD90026FECF0A3EDF0120E6A9082
:100B8000026AEFF090026AE0FFEF64076003020C74
:100B900053904722E0FFEF5402FF7E00EF4E7009B2
:100BA0007F017E0012150480E8904722E0FFEF5499
:100BB00002FF7E00EF4E600D904722E0FFEF13131F
:100BC000543FFF80027FFFEF700790026AE4F080DD
:100BD0000690026A74FFF090026AE0FFEF70749072
:100BE0000262E0FF900263E0FCA3E0FD9002C9E036
:100BF000FB9002CAE0FE90026FEEF0120F1190021D
:100C00006AEFF090026AE0FFEF64077046904722B7
:100C1000E0FFEF5402FF7E00EF4E70097F017E007F
:100C200012150480E8904722E0FFEF5402FF7E0097
:100C3000EF4E600D904722E0FFEF1313543FFF800B
:100C4000027FFFEF700790026AE4F0800690026A6C
:100C500074FFF01215A7800690026A7404F09002E7
:100C60006AE0FF227B087A007908C003C002C00155
:100C70007B007A41790090000A12024BD001D00229
:100C8000D0037F047E001214719043007402F09030
:100C900040007408F09042007403F07B0C7A0179F4
:100CA000081216149046A1EFF07B007A4279227D5B
:100CB000087C001215F97B007A4279207D517C1264
:100CC0001215F9900004E4F07F197E007D007C008D
:100CD00090000012023690000012021ED3EF940022
:100CE000EE9400404E900004E0FFEF6403604490F7
:100CF0004225E0FFEF5401FF7E00900004E0FEEE8D
:100D000025E0FEEE4FFFEF5403FF900004EFF07F6D
:100D1000E07E017D007C0012140090000012021E93
:100D20007BFF7AFF79FF78FF1200B090000012027B
:100D30003680A390000012021EEF4E70057F031252
:100D400015E77B007A4079047D007C011215F9904B
:100D500040047407F0904006E4F09040087448F0B6
:100D6000904004E4F09040017402F090400B740451
:100D7000F09043A0E0FFEF4480FF9043A0EFF0220B
:100D800075930078007583467582E8E04401F000B1
:100D90009046ECE0F99046FAE0FAB903225420B408
:100DA0000012B8001AEA901FFFF07401901FFEF0C5
:100DB0009046F6F0901FFEE06005901FFFE0FA906D
:100DC000480074C0F075810C90000078007920E430
:100DD000F0A3D8FCD9FAEA9002C1F0020011750B19
:100DE0001F750CFD120A1C020E250208F2E493A3E3
:100DF000F8E493A34003F68001F208DFF48029E4CD
:100E000093A3F85407240CC8C333C4540F4420C818
:100E1000834004F456800146F6DFE4800B010204AF
:100E200008102040809014A5E47E019360BCA3FFCD
:100E3000543F30E509541FFEE493A360010ECF54E4
:100E4000C025E060A840B8E493A3FAE493A3F8E4D3
:100E500093A3C8C582C8CAC583CAF0A3C8C582C83F
:100E6000CAC583CADFE9DEE780BE90026BEFF0906F
:100E7000026C12024B9002717407F0904722E0FF5F
:100E8000EF5402FF7E00EF4E607B90472074B6F077
:100E900090472074D5F09047207402F0904722E0EC
:100EA000FFEF5402FF7E00EF4E705290026BE0FFA6
:100EB000904720EFF0900272E4F0A3E4F090026F0C
:100EC000E0FEA3E0FF900272E0FCA3E0FDC3ED9F13
:100ED000EC9E503790026C120242900272E0FEA328
:100EE000E0FFE92FF9EA3EFA12001AFF904720EFDF
:100EF000F0900272E475F00112009A80C0900271C5
:100F00007409F080069002717404F0900271E0FFA1
:100F10002290026BEFF090026CECF0A3EDF09002E7
:100F20006EEBF09002707407F0904722E0FFEF54F0
:100F300002FF7E00EF4E606B90472074B6F0904742
:100F40002074D8F09047207405F0904722E0FFEF1E
:100F50005402FF7E00EF4E704290026BE0FF90471C
:100F600020EFF090026CE0FEA3E0FFEEFF7E009029
:100F70004720EFF090026CE0FEA3E0FFEF54FFFF8C
:100F8000904720EFF090026EE0FF904720EFF09046
:100F9000026FE0FF904720EFF0800E90027074091E
:100FA000F080069002707404F0900270E0FF227FDF
:100FB000287E007D007C001210297F0312130E7F13
:100FC000057E007D007C001210297F0312130E7F26
:100FD0000F7E007D007C001210297F0312130E7F0C
:100FE000017E007D007C001210297F0212130E7F0B
:100FF000057E007D007C001210297F061213C87F39
:101000000E1213C87F2C1213C87F081213C87F0159
:101010001213C87F0C1213C87F031213C87F057EFA
:10102000007D007C001210292290FFFC1202861223
:101030000236850B83850C8212021ED3EF9400EEDC
:101040009480402F9002C212021E121400850B835E
:10105000850C82C083C08212021EEF2400FFEE3492
:1010600080FEED34FFFDEC34FFFCD082D083120211
:101070003680BF9002B712021E850B83850C821248
:10108000022A1200BD1214009000041202862212DD
:10109000153190025574FFF01214D5EF704A7F019C
:1010A0001211B7EF6407703B7B017A0279C97D02A8
:1010B0001210F4EFB4021D900255E4F0904722E0C4
:1010C000FFEF5402FF7E00EF4E70187F017E00128A
:1010D000150480E8904722E0FFEF5402FF7E00EF06
:1010E0004E60C51215A780069002557404F0900258
:1010F00055E0FF2290025612024B900259EDF090FB
:10110000025AE4F0900259E0FF90025AE0FEEEC36A
:101110009F5040904722E0FFEF5401FF7E00EF4ECA
:101120006003D38001C340097F017E001215048053
:10113000E2904720E0FF90025612024290025AE0ED
:10114000FEE92EF9E43AFAEF12003390025AE00475
:10115000F080B190025AE0FF2290025412024B90AC
:101160000257E4F01215317B007A007900C003C009
:1011700002C001900254120242D082D083D0E06BB0
:101180007008E965827003EA6583700890025774FD
:1011900001F0801D1214D5EF60089002577404F01E
:1011A000800F9002541202429002C612024B121596
:1011B000A7900257E0FF22900256EFF0900257747A
:1011C00007F0904722E0FFEF5402FF7E00EF4E60F1
:1011D0003590472074B6F090472074E1F090472096
:1011E000740EF0904722E0FFEF5402FF7E00EF4EB6
:1011F000700C900256E0FF904720EFF0800E9002B6
:10120000577409F080069002577404F0900257E07A
:10121000FF22900013EFF0900014EDF0900013E027
:10122000FFEF120260123500124201124F02125CEF
:101230000300001268900014E0FFEF2480FF1213F7
:10124000C822900014E0FFEF24C0FF1213C82290C0
:101250000014E0FFEF2494FF1213C822900014E062
:10126000FFEF24D4FF1213C82290001AEFF01207E8
:10127000C3905120E0FFEF4420FFEFF0905120E0B9
:10128000FFEF54BFFFEFF0905120E0FFEF54F0FF6D
:10129000EFF0905120C083C082E0FF90001AE0FE82
:1012A000EE4410FEEF4EFFD082D083EFF07F017E40
:1012B00000121504905120E0FFEF54EFFFEFF022F1
:1012C00090001312024B9000167401F0900013125C
:1012D000024212001AFF900017EFF0900017E0FF93
:1012E000EF602A900017E0FF121392900013120291
:1012F00042900016E0FFE92FF9E43AFA12001AFFD3
:10130000900017EFF0900016E004F080CE229000DD
:1013100017EFF0905120E0FFEF549FFFEFF0905156
:1013200020E0FFEF54F0FFEFF0905120C083C08227
:10133000E0FF900017E0FEEE4410FEEF4EFFD0827B
:10134000D083EFF07F017E00121504905120E0FF62
:10135000EF54EFFFEFF022456D20454550524F4DC1
:101360002064656D6F00456D20454550524F4D20FE
:101370006572726F720046697273742072756E00C6
:1013800000000000506F7765724379636C6523201D
:101390003000900018EFF01207C3900018E0FFEF44
:1013A000C4540FFF900019EFF0900019E0FF1212E3
:1013B00069900018E0FFEF540FFF900019EFF090D4
:1013C0000019E0FF12126922900015EFF01207C316
:1013D000900015E0FFEFC4540FFF900016EFF0905F
:1013E0000016E0FF12130E900015E0FFEF540FFF00
:0F13F000900016EFF0900016E0FF12130E22226D
:10140000EC4D4E700D78FCEF24E950032840FD228E
:1014100000007BF178DA0000EF28FF78FFEE38FE5D
:10142000ED38FDEC38FC50E7EF2BFFEE38FEED38E1
:10143000FDEC38FC40F222050203047B0C7A0179B2
:10144000CF121614900000EFF0900000E0FFEF5470
:1014500007FF90586EEFF0900000E0FFEFC4540FCC
:10146000FFEF540FFF90586FEFF09058767444F0F0
:1014700022758600EF4E6027EF60010E7593009095
:10148000000AE0F595A3E0F585A3E0F5848B938A47
:10149000838982E0A30586F0A31586DFF6DEF4E4F7
:1014A000F593F595224102CC004102CB004302C6E0
:1014B0000000004102C0004402BC016E360044023C
:1014C000B700005DC04102BB184402C22EE000001C
:1014D0004102CD000090026B7404F01215D290020C
:1014E0006CEFF09002CDE0FFEF700B9002CD740135
:1014F000F090026BE4F090026CE0FF12158F900206
:101500006BE0FF22EEFA9002BBE0F88FF0A4FFAE92
:10151000F0E88AF0A42EFEE5F03400FDEF24C9FFC8
:1015200078FFEE38FEED38FDE438FC50030214007D
:10153000221215D2900258EFF09043A0E0FFEF4442
:1015400008FFEFF09043B0E0FFEF4408FFEFF090AA
:101550000258E0FF12158F2212108F900254EFF004
:10156000900254E0FFEF700812108F900254EFF0D9
:10157000900254E0FF22EC4D6011ED60010C8B9362
:101580008A838982E4F0A3DDFCDCFA75930022EF04
:1015900054016004D2AF8002C2AFEF5402FF904406
:1015A000F4E054FD4FF0221215D290026BEFF09050
:1015B00002CDE4F090026BE0FF12158F229002CB77
:1015C000E0FFEF7009120FAF9002CB7401F012161A
:1015D00008229044F4E0F84402F0E85402FF10AF0F
:1015E000012274014FFF22900005EFF0900005E00A
:1015F000FF900005EFF080FE228B938A838982EDB5
:10160000F0A3ECF0759300227F0C1213C89002CC6B
:101610007401F0228B938A838982E0759300FF2204
:101620008B938A838982EDF075930022005100002C
:101630002000513000400051C000100051F0001057
:10164000010000100001140008000140000A000120
:091650004C0002000150000020D2
:00000001FF
