:10000000023537008F828E83E0540100000070F8C3
:100010002278FFE4F6D8FD0235950203DBE8648020
:10002000F8E933E83360110460F0ED33EC33700924
:10003000E8FCE9FDEAFEEBFF220460DED3EB9FEA79
:100040009EE99DE8C2E78CF0C2F795F0400CE8CC41
:10005000F8E9CDF9EACEFAEBCFFB1203A685D0F092
:100060005804700320D5B3E80470075002B2D502DB
:1000700003E592D5EC0460F7E4CCC0E0C398F860E7
:100080003B94186008400DD0E0FB0203BDE4FBFA8E
:10009000C9FC8028E830E406E4C9FBE4CAFCE83087
:1000A000E305E4C9CACBFCE854076010F8C3E913C0
:1000B000F9EA13FAEB13FBEC13FCD8F130F52FC37C
:1000C000E49CFCEF9BFFEE9AFEED99FDD0E0FBEF88
:1000D0004E4D4C701222DB030203E2EC2CFCEF339A
:1000E000FFEE33FEED33FDED30E7EB0203BDEF2B0A
:1000F000FFEE3AFEED39FDD0E0FB50130BBB0003E1
:100100000203E5ED13FDEE13FEEF13FFEC13FC020B
:1001100003BDEC4D6011E8497017ED33EC3304601A
:100120000DE4FCFFFEFD22E933E8330470F802031E
:10013000DB1203A658046009E4CC24815006285041
:10014000090203E52840030203E2C0E0EB4A7044E1
:10015000B98006D0E0FB0203D1EF4E701CBD8008D1
:10016000EBFFEAFEE9FD80EBE98DF0A4FEE5F0028D
:1001700001FBE9CDF9EAFEEBFFEF89F0A4FCE5F025
:10018000CE89F0A42EFFE435F0CD89F0A42DFEE455
:1001900035F08067EF4E7005BD80D780C3EF8BF0E0
:1001A000A4ACF0EE8BF0A42CFCE435F0F8EF8AF070
:1001B000A42CE5F038FCE433CB8DF0A42CFCE5F066
:1001C0003BF8EE8AF0A42CFCE5F038F8E433CF8954
:1001D000F0A42CFCE5F038CF3400CE89F0A42FFF3A
:1001E000E5F03EFEE433C98DF0A42EFEE5F039CDF6
:1001F0008AF0A42FFFE5F03EFEE43DFD33D0E0FBA6
:1002000050070BBB000F0203E5EC2CFCEF33FFEEB5
:1002100033FEED33FD0203BD0203E5EC5D04600532
:10022000E8590470030203DB1203A6580460F6ECDD
:100230004860F2EC7004FDFEFF22C860DB2481C838
:100240005009C398600250060203E29850CAF58232
:10025000E9294B4A7005AB820203D175F0007C1A84
:100260007880C3EF9BEE9AED99400DC3EF9BFFEEB4
:100270009AFEED99FDE842F0DC23ACF0D0E0FFD02F
:10028000E0FED0E0FDAB8220E7101BEB60BAEC2C67
:10029000FCEF33FFEE33FEED33FD0203BDE803F860
:1002A00030E705C0F075F000EF2FFFEE33FEED33C1
:1002B000FD40B830E7C280AA74F8CC6480CCC86432
:1002C00080C8F58204604FC3EB9FF5F0EA9E42F0D0
:1002D000E99D42F0E89C45F0603C501DE5825FFFDF
:1002E000E582D313CB5BCBF42B5582FB50280ABAA3
:1002F000002409B9002008801DE5825BFBE582D35C
:1003000013CF5FCFF4C3132F5582FF50090EBE00E9
:10031000050DBD00010CC3EB9FF5F0EA9E42F0E92C
:100320009D42F0E89C45F06007CC4820E701B3EC23
:100330002275F020800E75F010800575F0087D00A4
:100340007E007F003392D530D503120595EC334003
:1003500010EF33FFEE33FEED33FDEC33FCD5F0ED63
:1003600022E5F0247EA2D513CC92E7CDCEFF22ED7C
:10037000D2E7CD33EC3392D524814006E4FFFEFD75
:10038000FC22FCE4CFCECDCC24E0501174FF80EDF4
:10039000C3CC13CCCD13CDCE13CECF13CF0470F07E
:1003A00030D5DE020595E9D2E7C933E833F892D5B6
:1003B000EDD2E7CD33EC33FC5002B2D522EC30E77E
:1003C000100FBF000C0EBE00080DBD00040BEB604B
:1003D00014A2D5EB13FCED92E7FD2274FFFCFDFEA9
:1003E000FF22E480F8A2D574FF13FC7D80E480EF47
:1003F000BB010689828A83E0225002E722BBFE020B
:10040000E32289828A83E49322BB010689828A835C
:10041000F0225002F722BBFE01F322C5F0F8A3E060
:1004200028F0C5F0F8E582158270021583E038F0F7
:1004300022BB010A89828A83F0E5F0A3F0225006EC
:10044000F709A7F01922BBFE06F3E5F009F319221C
:10045000EF2BFFEE3AFEED39FDEC38FC22C3EF9BAB
:10046000FFEE9AFEED99FDEC98FC22E88FF0A4CC0B
:100470008BF0A42CFCE98EF0A42CFC8AF0EDA42CCB
:10048000FCEA8EF0A4CDA8F08BF0A42DCC3825F09A
:10049000FDE98FF0A42CCD35F0FCEB8EF0A4FEA985
:1004A000F0EB8FF0A4CFC5F02ECD39FEE43CFCEA92
:1004B000A42DCE35F0FDE43CFC2275F008758200D9
:1004C000EF2FFFEE33FECD33CDCC33CCC58233C519
:1004D000829BED9AEC99E58298400CF582EE9BFEAA
:1004E000ED9AFDEC99FC0FD5F0D6E4CEFBE4CDFA05
:1004F000E4CCF9A88222B800C1B90059BA002DECA9
:100500008BF084CFCECDFCE5F0CBF97818EF2FFF40
:10051000EE33FEED33FDEC33FCEB33FB10D70399E8
:100520004004EB99FB0FD8E5E4F9FA227818EF2F95
:10053000FFEE33FEED33FDEC33FCC933C910D705B4
:100540009BE99A4007EC9BFCE99AF90FD8E0E4C9D3
:10055000FAE4CCFB2275F010EF2FFFEE33FEED3303
:10056000FDCC33CCC833C810D7079BEC9AE8994030
:100570000AED9BFDEC9AFCE899F80FD5F0DAE4CD92
:10058000FBE4CCFAE4C8F922EF4BFFEE4AFEED495A
:10059000FDEC48FC22C3E49FFFE49EFEE49DFDE4E5
:1005A0009CFC22EB9FF5F0EA9E42F0E99D42F0E8C8
:1005B0009C45F022E8600FECC313FCED13FDEE1335
:1005C000FEEF13FFD8F122E8600FEFC333FFEE33E5
:1005D000FEED33FDEC33FCD8F122E0FCA3E0FDA3FB
:1005E000E0FEA3E0FF22E0F8A3E0F9A3E0FAA3E035
:1005F000FB22ECF0A3EDF0A3EEF0A3EFF022A42594
:1006000082F582E5F03583F58322E0FBA3E0FAA3CF
:10061000E0F922EBF0A3EAF0A3E9F022E493FB7403
:100620000193FA740293F922D083D082F8E4937094
:1006300012740193700DA3A393F8740193F582884B
:1006400083E4737402936860EFA3A3A380DFE50CD7
:100650002582F582E50B3583F583B50B0485820C85
:100660002210AF0685820CF50B2285820CF50BD289
:10067000AF22EC8EF0A4CCC5F0CCCDF8EFA4CEC563
:10068000F02DFDE43CFCE8A42EC8C5F03DFDE43CA3
:10069000FCEFA4FFE5F028FEE43DFDE43CFC22E78E
:1006A00009F608DFFA8046E709F208DFFA803E889B
:1006B000828C83E709F0A3DFFA8032E309F608DFD2
:1006C000FA806EE309F208DFFA806688828C83E3A1
:1006D00009F0A3DFFA805A89828A83E0A3F608DF53
:1006E000FA804E89828A83E0A3F208DFFA80428092
:1006F000D280FA80C680D4805580F2802980108014
:10070000A680EA809A80A880DA80E280CA80298860
:10071000848C8589828A83E493A30586F0A3058669
:10072000DFF5DEF3800B89828A83E493A3F608DF8A
:10073000F9ECFAA9F0EDFB2288848C8589828A8302
:10074000E0A30586F0A30586DFF6DEF480E3898268
:100750008A83E493A3F208DFF980D688F0EF600182
:100760000E4E60CD88F0ED2402B4040050C3F58233
:10077000EB2402B4040050B923234582239006EFF2
:100780007390031BEFF0900323E4F0A3E4F09003D5
:100790001CE4F090031CE0FFEFC39409400302083F
:1007A0004090031CE0FFEF75F00BA42435F582E4C4
:1007B0003403F583E4F090031CE0FFEF75F00BA425
:1007C0002437F582E43403F583E4F090031CE0FF62
:1007D000EF75F00BA42436F582E43403F583E4F0DE
:1007E00090031CE0FFEF75F00BA42438F582E4348D
:1007F00003F583E4F090031CE0FFEF75F00BA424F5
:100800003AF582E43403F583E4F090031CE0FFEF53
:1008100075F00BA4243DF582E43403F583E4F0A3E2
:10082000E4F090031CE0FFEF75F00BA4243FF58289
:10083000E43403F583E4F090031CE004F002079332
:1008400090031BE0FFEF603A90031EE4F090031E5C
:10085000E0FFEFC39402502A90031EE0FF74982F2C
:10086000F582E43403F583E4F090031EE0FF74A7FF
:100870002FF582E43403F583E4F090031EE004F0E6
:1008800080CB900330E0FFEFD394005003020CAA1A
:10089000900330E0FFEF14FF12492F900325EEF094
:1008A000A3EFF0900325E0FEA3E0FF8F828E83A3E9
:1008B00012061C90032012061390032012060AE968
:1008C0002407F9EA3400FA1203F0FFEF5440FF7EE8
:1008D00000EF4E601090032FE0FFEF4401FF900304
:1008E0002FEFF0800E90032FE0FFEF54FEFF9003F8
:1008F0002FEFF0900325E0FEA3E0FFEF2404FFEECE
:100900003400FE900325EEF0A3EFF0900325E0FE07
:10091000A3E0FF8F828E83E493FF90031CEFF0909F
:10092000031E7401F090031EE0FFEFC3940940031F
:10093000020BBF900325E0FEA3E0FF8F828E83A30E
:1009400012061CAE02AF01900327EEF0A3EFF09069
:10095000031DE4F090031CE0FF90031DE0FEEEC3D6
:100960009F4003020BB6900327E0FEA3E0FF8F82B7
:100970008E83740293FFEF547FFF7E0090031EE08E
:10098000FD7C00ED6F7002EC6E6003020B9590032E
:1009900027E0FEA3E0FF8F828E83740493FE74052C
:1009A00093FF90031EE0FDED75F00BA4243DF5824E
:1009B000E43403F583E0FCA3E0FDC3ED9FEC9E501F
:1009C0002C900327E0FEA3E0FF8F828E83740493B4
:1009D000FE740593FF90031EE0FDED75F00BA4245B
:1009E0003DF582E43403F583EEF0A3EFF0900327A6
:1009F000E0FEA3E0FF8F828E83E493FF74982FF5CF
:100A000082E43403F583E0FF900327E0FCA3E0FDDC
:100A10008D828C83740193FEEF6E6003020B9590C0
:100A20000327E0FEA3E0FF8F828E83740393FFEF22
:100A30005403FF90031FEFF0900327E0FEA3E0FFB5
:100A40008F828E83740293FFEF5480FF7E00EF4EFF
:100A50007003020AD590031EE0FFEF75F00BA4248B
:100A600036F582E43403F5837401F090031FE0FF50
:100A7000EFB401047F0780027F0D90031EE0FEEEBD
:100A800075F00BA4243AF582E43403F583EFF0907B
:100A90000327E0FEA3E0FF8F828E83740693FFEFAF
:100AA000640A6018900327E0FEA3E0FF8F828E8324
:100AB000740693FFEF64026003020B4B90031FE088
:100AC000FFEF64037003020B4B90031EE0FF9004E2
:100AD00039EFF0807690031EE0FFEF75F00BA42451
:100AE00036F582E43403F583E4F090031FE0FFEF72
:100AF000B401047F0580027F0990031EE0FEEE75BD
:100B0000F00BA4243AF582E43403F583EFF090036C
:100B100027E0FEA3E0FF8F828E83740693FFEF64CD
:100B20000A6014900327E0FEA3E0FF8F828E837497
:100B30000693FFEFB4021490031FE0FFEF6403601D
:100B40000A90031EE0FF90043AEFF0900327E0FEC6
:100B5000A3E0FF8F828E83740293FF90031EE0FE5A
:100B6000EE75F00BA42439F582E43403F583EFF03D
:100B7000900327E0FEA3E0FF8F828E83740393FF30
:100B800090031EE0FEEE75F00BA42435F582E434EC
:100B900003F583EFF0900327E0FEA3E0FFEF2407C7
:100BA000FFEE3400FE900327EEF0A3EFF090031D5C
:100BB000E004F002095490031EE004F002092590BD
:100BC0000325E0FEA3E0FF8F828E83A312061CAEF6
:100BD00002AF01900327EEF0A3EFF090031EE4F0C4
:100BE00090031CE0FF90031EE0FEEEC39F50539065
:100BF0000327E0FEA3E0FF8F828E83E493FF900340
:100C000027E0FCA3E0FD8D828C83740293FEEE54FA
:100C10007FFEEE75F00BA4243FF582E43403F583E8
:100C2000EFF0900327E0FEA3E0FFEF2407FFEE3490
:100C300000FE900327EEF0A3EFF090031EE004F017
:100C4000809E12433E9003A4EEF0A3EFF090031CAD
:100C50007401F090031CE0FFEFC394095049900326
:100C600023E0FEA3E0FF90031CE0FDED75F00BA474
:100C7000243BF582E43403F583EEF0A3EFF0900318
:100C80001CE0FFEF75F00BA4243DF582E43403F57E
:100C900083E0FEA3E0FF900323EE8FF012041B908D
:100CA000031CE004F080AC1219D322900312E4F08C
:100CB0007B007A00790090031412061390039AE4E3
:100CC000F0A3E4F0906000E0FFEF5480FF7E00EFBF
:100CD00064804E6003020F79906001E0FFEF12061E
:100CE000280EA1000CF1060F2D080F4D0A0000116F
:100CF0003C906003E0FFEFB4013512511B900319E3
:100D0000EEF0A3EFF0900319E0FEA3E0FF8F828ED8
:100D100083A312061C90039C12061390039AE4F01E
:100D2000A37412F01243B7900312EFF002113C903B
:100D30006003E0FFEF6402706B906002E0FF124915
:100D40002F900319EEF0A3EFF0900319E0FEA3E05B
:100D5000FF8F828E83A312061C90039C12061390B1
:100D6000039C12060AE92403F9EA3400FA1203F09C
:100D7000FF7E00EF7F00FE90039C12060AE924022A
:100D8000F9EA3400FA1203F0FD7C00EE4CFEEF4D60
:100D9000FF90039AEEF0A3EFF01243B7900312EF27
:100DA000F002113C906003E0FFEF64036003020E69
:100DB00096900317E4F07BFF7A5879419003141260
:100DC0000613900317E0FF906002E0FEEED39F4011
:100DD0003D90031412060A1203F0FFEF60309003F7
:100DE0001412060A1203F0FF900318EFF090031498
:100DF00012060A900318E0FF7E00E92FF9EA3EFA96
:100E0000900314120613900317E004F080B490606E
:100E100002E0FFEFB4EE0C7BFF7A5879BF90031429
:100E2000120613906002E0FFEF60309057FCE493ED
:100E3000FF906002E0FEEEB507217BFF7A587986CD
:100E40009003141206137B017A0379F212326B7B42
:100E5000017A0379F2900314120613900314120618
:100E60000A1203F0FFEF700302113C900314120604
:100E70000A1203F0FF7E0090039AEEF0A3EFF090C9
:100E8000031412060A90039C1206131243B7900330
:100E900012EFF002113C123FAD900312EFF002117D
:100EA0003C906000E0FFEF5403FFEF1206280EFBBA
:100EB000000EB8020000113C90039AE4F0A3740203
:100EC000F0906004E0FFEF547FFFEF75F00BA42477
:100ED00037F582E43403F583E0FF90044EEFF090A1
:100EE000044FE4F07B017A04794E90039C120613C0
:100EF0001243B7900312EFF002113C90039AE4F012
:100F0000A37402F090032FE0FF90044EEFF09004E2
:100F10004FE4F07B017A04794E90039C1206131281
:100F200043B7900312EFF002113C02113C90039A78
:100F3000E4F0A37401F07B017A03793090039C12F2
:100F400006131243B7900312EFF002113C90039A7C
:100F5000E4F0A37401F0906004E0FF74982FF9E4CA
:100F60003403FA7B0190039C1206131243B79003DB
:100F700012EFF002113C02113C906001E0FFEF1211
:100F80000628101D0110B5030F95050FAA090FCAF9
:100F90000B0000113C906002E0FF9003A9EFF012FB
:100FA000516B900312EFF002113C906002E0FF9051
:100FB0000330EFF09003A67401F07F011207811255
:100FC000516B900312EFF002113C123DD0EF700311
:100FD00002113C906004E0FF900313EFF0900313C4
:100FE000E0FF9003A2EFF09003A67401F01211420B
:100FF000900313E0FF74982FF582E43403F583E047
:10100000FF900313E0FE74A72EF582E43403F5830A
:10101000EFF012516B900312EFF002113C90600060
:10102000E0FFEF5403FFEF120628104D001073018C
:101030001037020000113C906002E0FFEF600302F5
:10104000113C122415900312EFF002113C90600243
:10105000E0FFEF6401600302113C90032FE0FFEF1B
:1010600054FDFF90032FEFF012516B900312EFF03D
:1010700002113C906004E0FFEFC3940240030211B0
:101080003C906004E0FF74AA2FF582E43403F583FA
:10109000C083C082E0FF906002E0FEEEF4FEEF5EEF
:1010A000FFD082D083EFF012516B900312EFF00269
:1010B000113C02113C906000E0FFEF5403FFEF127F
:1010C000062810E10011030110CF020000113C902E
:1010D0006002E0FFEF706512307F900312EFF08046
:1010E0005B906002E0FFEF6401705190032FE0FF1E
:1010F000EF4402FF90032FEFF012516B900312EFB9
:10110000F08039906004E0FFEFC39402502E9060AD
:1011100004E0FF74AA2FF582E43403F583C083C092
:1011200082E0FF906002E0FEEEF4FEEF5EFFD08210
:10113000D083EFF012516B900312EFF0900312E0A6
:10114000FF22900330E0FFEFD394005003021523F9
:10115000900330E0FFEF14FF12492F900320EEF0D0
:10116000A3EFF0900320E0FEA3E0FFEF2404FFEEE6
:101170003400FE900320EEF0A3EFF0900320E0FE99
:10118000A3E0FF8F828E83E493FF90031BEFF09028
:101190000320E0FEA3E0FF8F828E83A312061CAE25
:1011A00002AF01900322EEF0A3EFF090031DE4F0F4
:1011B00090031BE0FF90031DE0FEEEC39F4003027F
:1011C0001523900322E0FEA3E0FF8F828E83E49339
:1011D000FF74A72FF582E43403F583E0FF90032228
:1011E000E0FCA3E0FD8D828C83E493FE74982EF5E1
:1011F00082E43403F583E0FEEE6F70030215029083
:101200000322E0FEA3E0FF8F828E83E493FF7498B5
:101210002FF582E43403F583E0FF900322E0FCA382
:10122000E0FD8D828C83740193FEEF6E60030215E6
:1012300002900322E0FEA3E0FF8F828E83E493FFFF
:10124000906004E0FEEF6E6003021502900322E05E
:10125000FEA3E0FF8F828E83740293FFEF547FFF23
:1012600090031CEFF090031CE0FF7E00EF24FFFFD3
:10127000EE34FFFEEFC4F8540FC868FFEEC454F01C
:1012800048FE90031FEFF0900322E0FEA3E0FF8FE3
:10129000828E83740393FFEF5403FF90031EEFF0DD
:1012A000900322E0FEA3E0FF8F828E83740293FFFF
:1012B000EF5480FF7E00EF4E603C90031CE0FFEF98
:1012C00075F00BA42436F582E43403F5837401F041
:1012D00090031EE0FFEFB401047F0780027F0D90B2
:1012E000031CE0FEEE75F00BA4243AF582E434030F
:1012F000F583EFF0803990031CE0FFEF75F00BA44D
:101300002436F582E43403F583E4F090031EE0FF15
:10131000EFB401047F0580027F0990031CE0FEEE1C
:1013200075F00BA4243AF582E43403F583EFF090D2
:10133000031FE0FF7E00EF240EFFEE3460FE8F827D
:101340008E837401F0900322E0FEA3E0FF8F828E73
:1013500083740493FE740593FF90031CE0FDED7508
:10136000F00BA4243DF582E43403F583EEF0A3EF03
:10137000F0900322E0FEA3E0FF8F828E837402933D
:10138000FF90031CE0FEEE75F00BA42439F582E417
:101390003403F583EFF0900322E0FEA3E0FF8F8299
:1013A0008E83740393FF90031CE0FEEE75F00BA494
:1013B0002435F582E43403F583EFF090031CE0FF5D
:1013C000EF75F00BA42438F582E43403F583E4F0E0
:1013D00090031CE0FFEF75F00BA4243DF582E4348C
:1013E00003F583E0FEA3E0FFEEFF7E0090031FE025
:1013F000FEEEFD7C00ED240CFDEC3460FC8D828C57
:1014000083EFF090031CE0FFEF75F00BA4243DF593
:1014100082E43403F583E0FEA3E0FFEF54FFFF9086
:10142000031FE0FEEEFD7C00ED240DFDEC3460FCBE
:101430008D828C83EFF090031CE0FFEF75F00BA41E
:10144000243BF582E43403F583E0FEA3E0FFEF5490
:10145000FFFF90031FE0FEEEFD7C00ED2486FDEC17
:101460003460FC8D828C83EFF090031CE0FFEF75FD
:10147000F00BA4243BF582E43403F583E0FEA3E003
:10148000FFEEFF7E0090031FE0FEEEFD7C00ED24EA
:1014900087FDEC3460FC8D828C83EFF090031CE0C0
:1014A000FFEF75F00BA4243BF582E43403F583E0F1
:1014B000FEA3E0FFEF54FFFF90031FE0FEEEFD7C74
:1014C00000ED2484FDEC3460FC8D828C83EFF09081
:1014D000031CE0FFEF75F00BA4243BF582E434031A
:1014E000F583E0FEA3E0FFEEFF7E0090031FE0FE29
:1014F000EEFD7C00ED2485FDEC3460FC8D828C8358
:10150000EFF0900322E0FEA3E0FFEF2407FFEE34AC
:1015100000FE900322EEF0A3EFF090031DE004F034
:101520000211B0229000AE1206139000B112060A0A
:10153000AF01AE02AD037C009001C71205F290012D
:10154000C71205DAEF54FFFFEE54FFFEED5400FD25
:10155000EC5400FC9001C71205F29000B112060A8B
:10156000AF01AE02AD037C007B007A0079FF78000A
:10157000D31205A340030217AA9000B112060AAFC6
:1015800001AE02AD037C00A804A905AA06AB079032
:1015900000B4E0FEA3E0FFE4FCFD1204507BFF7A00
:1015A000FF79FF7800C31205A350030217AA125057
:1015B000E07B017A0179CF1248767B007A007901CD
:1015C00078009001C71205DA1204F69001B61205F0
:1015D000F27B007A01790078009001C71205DA12D7
:1015E00004F6EF54FFFFEE5400FEED5400FDEC5402
:1015F00000FC9001BA1205F27F007E017D007C00A4
:101600009001BA1205E612046BC004C005C006C002
:10161000077F007E007D017C009001B61205E61276
:10162000046BA804A905AA06AB07D007D006D0050D
:10163000D0041204509001CB1205F27F007E007D91
:10164000007C009001C21205F29001C6E4F0900007
:10165000B4E0FEA3E0FFE4FCFD9001C21205E6C386
:101660001205A3400302179D9001C6E0FFEF60033F
:1016700002179D7F007E007D007C009001BE120558
:10168000F29001BE1205DAC3EE9401400302176125
:101690009001C71205DA9001CB1205E6C31205A32B
:1016A000405B9000B4E0FEA3E0FFE4FCFD9001C2CB
:1016B0001205E6C31205A350449001C21205DA9048
:1016C00000AE12060AE92FF9EA3EFAEB3DFB1203DF
:1016D000F0FB9001BE1205DA74B62FF582E43400F7
:1016E000F583EBF09001C21205DA7B017A007900F4
:1016F00078001204509001C21205F280339001CBA1
:101700001205DAEF2400FFEE3400FEED3410FDEC9C
:101710003400FCA907AA06AB05125359AB07900188
:10172000BE1205DA74B62FF582E43400F583EBF0CF
:101730009001CB1205DA7B017A007900780012045F
:10174000509001CB1205F29001BE1205DA7B017AAE
:1017500000790078001204509001BE1205F20216C2
:10176000819001B61205DAC0079001BA1205DAAD10
:1017700007AC067B017A0079B6D00712286A90017F
:10178000C6EFF09001BA1205DA7B017A0079007891
:10179000001204509001BA1205F202164E90480051
:1017A000E0FFEF4406FFEFF080069001C67401F001
:1017B0009001C6E0FFEF60109001C6E0FFEF64010A
:1017C00060069001C674FFF09001C6E0FF22900011
:1017D000AEEFF09000AFECF0A3EDF09000B1EAF0C6
:1017E000A3EBF09000B4E0FFEFD394005003021994
:1017F000CD9000B4E0FFEFD3940140030219CD90E7
:1018000000AEE0FFEF120628181B01181B04184851
:1018100007187308189E0A000018C99000B3E0FF6B
:10182000EFD3940F40117B0C7A0179181253599021
:1018300000B5EFF00218CE7B0C7A01791C125359D7
:101840009000B5EFF00218CE9000B3E0FFEFD39414
:101850000F40107B0C7A0179191253599000B5EFA3
:10186000F0806B7B0C7A01791D1253599000B5EF13
:10187000F0805B9000B3E0FFEFD3940F40107B0C3F
:101880007A01791A1253599000B5EFF080407B0C21
:101890007A01791E1253599000B5EFF08030900014
:1018A000B3E0FFEFD3940F40107B0C7A01791B1249
:1018B00053599000B5EFF080157B0C7A01791F1217
:1018C00053599000B5EFF080059000B5E4F090001A
:1018D000B5E0FFEF3395E0FEFDFC7B207A00790058
:1018E000780012046BA804A905AA06AB079000AF04
:1018F000E0FEA3E0FFE4FCFD1204509000B61205E8
:10190000F29000B61205DAAB07AA06A905A804A84A
:1019100004A905AA06AB079000B1E0FEA3E0FFE42E
:10192000FCFD12046B9000BC1205F27B007A8079FA
:101930000078009000BC1205DA1204F69000BAEEAE
:10194000F0A3EFF09000B3E0FFEFC3940E50479088
:1019500000BAE0FEA3E0FF9000B3E0FDC3740E9D6B
:10196000FDEFA805088005CEC313CE13D8F9FF906C
:1019700000BAEEF0A3EFF09000B3E0FFEF04FF90A9
:1019800000B4E0FEEE75F003A4241BF582E43404F9
:10199000F583EFF080169000B4E0FFEF75F003A43C
:1019A000241BF582E43404F583740FF09000BAE050
:1019B000FEA3E0FF9000B4E0FDED75F003A4241950
:1019C000F582E43404F583EEF0A3EFF0227F0012F9
:1019D0005269229003297401F090032AE4F09003E5
:1019E0002AE0FFEFC394804003021BC190032AE06A
:1019F000FF7E00EF2480FFEE3460FE8F828E8374C2
:101A00000CF0900329E0FFEF75F00BA4243AF58267
:101A1000E43403F583E0FFEF604F900329E0FFEF2C
:101A200075F00BA42439F582E43403F583E0FFEF6D
:101A30005480FF7E00EF4E601890032AE0FF7E0086
:101A4000EF240EFFEE3460FE8F828E83740CF080E4
:101A50002E90032AE0FF7E00EF240EFFEE3460FE9E
:101A60008F828E837408F0801690032AE0FF7E0038
:101A7000EF240EFFEE3460FE8F828E837480F09030
:101A80000329E0FFEF75F00BA4243DF582E4340355
:101A9000F583E0FEA3E0FFEEFF7E0090032AE0FE68
:101AA000EEFD7C00ED240CFDEC3460FC8D828C831B
:101AB000EFF0900329E0FFEF75F00BA4243DF582D1
:101AC000E43403F583E0FEA3E0FFEF54FFFF90034F
:101AD0002AE0FEEEFD7C00ED240DFDEC3460FC8D73
:101AE000828C83EFF0900329E0FFEF75F00BA424C4
:101AF0003BF582E43403F583E0FEA3E0FFEF54FFFF
:101B0000FF90032AE0FEEEFD7C00ED2486FDEC3420
:101B100060FC8D828C83EFF0900329E0FFEF75F07D
:101B20000BA4243BF582E43403F583E0FEA3E0FF3D
:101B3000EEFF7E0090032AE0FEEEFD7C00ED2487A0
:101B4000FDEC3460FC8D828C83EFF0900329E0FF84
:101B5000EF75F00BA4243BF582E43403F583E0FE3B
:101B6000A3E0FFEF54FFFF90032AE0FEEEFD7C00B0
:101B7000ED2484FDEC3460FC8D828C83EFF09003C7
:101B800029E0FFEF75F00BA4243BF582E43403F564
:101B900083E0FEA3E0FFEEFF7E0090032AE0FEEE6E
:101BA000FD7C00ED2485FDEC3460FC8D828C83EFA0
:101BB000F0900329E004F090032AE02410F00219C9
:101BC000DE90600A74FFF0229000A1EFF09000A276
:101BD0001206139000A1E0FFEFD394005003021D02
:101BE000949000A1E0FFEFC394094003021D94907C
:101BF00000A1E0FF7E00EF24FFFFEE34FFFEEFC404
:101C0000F8540FC868FFEEC454F048FE9000A7EFE8
:101C1000F09000A7E0FF7E00EF2488FFEE3460FE26
:101C20009000A8EEF0A3EFF09000A1E0FFEF75F0B8
:101C30000BA4243BF582E43403F583E0FEA3E0FF2C
:101C4000C3E49FFF74029EFE9000A5E0FCA3E0FDAC
:101C5000D3ED9FEC9E40289000A1E0FFEF75F00BC4
:101C6000A4243BF582E43403F583E0FEA3E0FFC344
:101C7000E49FFF74029EFE9000A5EEF0A3EFF090AB
:101C800000A5E0FEA3E0FFEEFF7E009000A1E0FED5
:101C9000EE75F00BA42438F582E43403F583E0FEFE
:101CA000EF4EFF9000A7E0FEEEFD7C00ED240CFD62
:101CB000EC3460FC8D828C83EFF09000A5E0FEA3F5
:101CC000E0FFEF54FFFF9000A7E0FEEEFD7C00ED8B
:101CD000240DFDEC3460FC8D828C83EFF07B007A68
:101CE000007900C003C002C0019000A212060AD011
:101CF00082D083D0E06B7008E965827003EA658367
:101D000060519000AAE4F0A3E4F09000A5E0FEA3E7
:101D1000E0FF9000AAE0FCA3E0FDC3ED9FEC9E5025
:101D2000329000A212060A9000AAE0FEA3E0FFE9AA
:101D30002FF9EA3EFA1203F0FF9000A8E0FCA3E0BE
:101D4000FD8D828C83EFF09000AAE475F0011204FF
:101D50001B80B79000A1E0FFEF75F00BA42436F5CF
:101D600082E43403F583E4F09000A1E0FFEF75F026
:101D70000BA4243AF582E43403F583E0FF9000A736
:101D8000E0FEEEFD7C00ED240EFDEC3460FC8D8267
:101D90008C83EFF022900059EEF0A3EFF090005BFF
:101DA000ECF0A3EDF07F007E007D007C00900060F1
:101DB0001205F2900064E4F0A3E4F07B007A8079ED
:101DC0000090006612061390006CE4F07F007E0025
:101DD0007D007C0012335D9000601205F27F007E72
:101DE000007D807C419000601205E6120112120312
:101DF0006F123705AA06A9077B0190005D12061332
:101E000090005D12060A9000691206137F007E00A2
:101E10007D807C419000601205E61201127B007A01
:101E2000007900784012002112036F900064EEF0F8
:101E3000A3EFF090006CE4F090006CE0FFEFC3942F
:101E400002503090006612060A1203F0FF900069FB
:101E500012060AEF12040990006AE475F0011204F8
:101E60001B900067E475F00112041B90006CE00405
:101E7000F080C590006CE0FF7E00900064E0FCA361
:101E8000E0FDC3EF9DEE9C501290006912060AE43B
:101E900012040990006CE004F080D890005BE0FE32
:101EA000A3E0FF7F0090005D12060A900059E0FC5D
:101EB000A3E0FDE92DF9EA3CFAEF12040990005B7A
:101EC000E0FEA3E0FFEF54FFFF90005D12060A90D2
:101ED0000059E0FCA3E0FDED2401FDEC3400FCE939
:101EE0002DF9EA3CFAEF1204097F001240C090007D
:101EF0006DEFF090006CE4F090005D12060A900027
:101F00006612061390006CE0FCE412033B90006044
:101F10001205E61202B8602D402B90006CE0FFEF36
:101F2000C39480502090006612060A90006CE0FD79
:101F3000122F75900067E475F01012041B90006C6E
:101F4000E004F080BF90005D12060AAE02AF0112FD
:101F500029CA2290480074F1F01226FA7B007A46D2
:101F600079E8125359EF4405FD7B007A4679E8126F
:101F70005365750A00E50AC39408503AAF0AEF7535
:101F8000F005A424FFF582E43458F583AF82AE83D4
:101F90008E088F09AE08AF098F828E8312061CAEA1
:101FA00008AF098F828E83740393FC740493FD122F
:101FB0005185050A80BF7B087A007900124E659032
:101FC0005883740AF07B017A507903125359EF4415
:101FD00002FD7B017A5079031253657B017A5079B7
:101FE00013125359EF4402FD7B017A5079131253B7
:101FF000659043A0E0FFEF4440FF9043A0EFF090D6
:1020000043C2E0FFEF4410FF9043C2EFF07B087A39
:102010000179B4C003C002C0017B007A51790290FB
:10202000000A120613D001D002D0037F087E0012EE
:102030004D757B087A0179BCC003C002C0017B00EA
:102040007A5179F090000A120613D001D002D00321
:102050007F0A7E00124D757B087A0179C8C003C0E3
:1020600002C0017B007A51796290000A120613D0F7
:1020700001D002D0037F087E00124D759044F474A5
:1020800001F0904322E0FFEF4408FF904322EFF07D
:102090009046ECE0FFEFC394055006904689743AF1
:1020A000F07B017A5079077D401253657B017A50AD
:1020B00079177D40125365124C467B007A4379A014
:1020C000C003C002C0017B007A4379B090000A12BD
:1020D0000613D001D002D0037F0E7E00124D759002
:1020E00043B0E0FFEF54FDFFEFF0229000AFEEF0C1
:1020F000A3EFF09000B1EDF012539D9000B3EFF01C
:102100001253939000B4EEF0A3EFF09000B4E0FE11
:10211000A3E0FF9000AFE0FCA3E0FDED6F7002ECE8
:102120006E700302227F9043A2E0FFEF5401FF9004
:1021300000B2EFF09000B3E0FFEF705E9000B4E00B
:10214000FEA3E0FFEF4E600C9000AFE0FEA3E0FFC7
:10215000EF4E70469000B4E0FEA3E0FFEF4E701D1E
:102160007B027A4079809000AFE0FCA3E0FD12533F
:1021700026904082E0FFEF54BFFFEFF022904082B4
:10218000E0FFEF4440FFEFF07B027A40798090005F
:10219000AFE0FCA3E0FD125326229000B2E0FFEF77
:1021A000606C904001E4F09040107401F090401495
:1021B000E4F0904008E0FFEF547FFFEFF0904082A2
:1021C000E0FFEF5408FF7E00EF4E600C9000AFE0A0
:1021D000FEA3E0FFEF4E70367B027A40790290005A
:1021E000B4E0FCA3E0FD1253269040017407F09088
:1021F0004001E0FFEF5401FF7E00EF4E70F190438D
:10220000A2E0FFEF54FEFFEFF0904001E4F09043B6
:10221000A2E0FFEF5401FF7E00EF4E603A7B027AAE
:102220004079029000AFE0FCA3E0FD12532690003D
:10223000B1E0FFEF60047F0280027F00EF4401FF06
:10224000904001EFF0904001E0FFEF5401FF7E006D
:10225000EF4E602B80EF227B027A4079809000AFB6
:10226000E0FCA3E0FD1253269043A2C083C082E0AD
:10227000FF9000B2E0FEEF4EFFD082D083EFF0225D
:102280009000AFEEF0A3EFF09000B1EDF01253B17B
:102290009000B3EFF01253A79000B4EEF0A3EFF06C
:1022A0009000B4E0FEA3E0FF9000AFE0FCA3E0FDEF
:1022B000ED6F7002EC6E70030224149043A1E0FFF6
:1022C000EF5401FF9000B2EFF09000B3E0FFEF7029
:1022D0005E9000B4E0FEA3E0FFEF4E600C9000AF14
:1022E000E0FEA3E0FFEF4E70469000B4E0FEA3E0F6
:1022F000FFEF4E701D7B027A4179009000AFE0FC49
:10230000A3E0FD125326904102E0FFEF54BFFFEF20
:10231000F022904102E0FFEF4440FFEFF07B027AB1
:102320004179009000AFE0FCA3E0FD12532622901B
:1023300000B2E0FFEF606C904001E4F09040147454
:1023400001F0904010E4F0904008E0FFEF547FFF70
:10235000EFF0904102E0FFEF5408FF7E00EF4E6087
:102360000C9000AFE0FEA3E0FFEF4E70367B027AE8
:102370004079029000B4E0FCA3E0FD1253269040A7
:10238000017407F0904001E0FFEF5401FF7E00EF81
:102390004E70F19043A1E0FFEF54FEFFEFF090404C
:1023A00001E4F09043A1E0FFEF5401FF7E00EF4E07
:1023B000603A7B027A4079029000AFE0FCA3E0FD36
:1023C0001253269000B1E0FFEF60047F0280027F8D
:1023D00000EF4401FF904001EFF0904001E0FFEF7B
:1023E0005401FF7E00EF4E602B80EF227B027A418A
:1023F00079009000AFE0FCA3E0FD1253269043A1CA
:10240000C083C082E0FF9000B2E0FEEF4EFFD082BA
:10241000D083EFF02290031DE4F0906004E0FFEF22
:10242000547FFF90031BEFF090031BE0FF7E00EF53
:1024300024FFFFEE34FFFEEFC4F8540FC868FFEE30
:10244000C454F048FE90031CEFF090031BE0FFEF34
:10245000D39400500302258390031BE0FFEFC39445
:1024600009400302258390031BE0FFEF75F00BA4E6
:102470002437F582E43403F583E0FFEF54FEFFEFE9
:10248000F090031BE0FFEF75F00BA42438F582E415
:102490003403F583E4F090031CE0FF7E00EF240C8E
:1024A000FFEE3460FE8F828E83E0FFEF547FFFEFFC
:1024B000F090031BE0FFEF75F00BA42436F582E4E7
:1024C0003403F583E0FFEF54FDFFEFF090031BE0D2
:1024D000FFEF75F00BA42439F582E43403F583E0B3
:1024E000FFEF5480FF7E00EF4E604990031BE0FF3A
:1024F000EF75F00BA42436F582E43403F583E0FF96
:10250000EFB4011890031CE0FF7E00EF240EFFEEF5
:102510003460FE8F828E83740CF0805F90031CE029
:10252000FF7E00EF240EFFEE3460FE8F828E8374F8
:102530000DF0804790031BE0FFEF75F00BA42436ED
:10254000F582E43403F583E0FFEFB4011890031C37
:10255000E0FF7E00EF240EFFEE3460FE8F828E835C
:102560007408F0801690031CE0FF7E00EF240EFF3D
:10257000EE3460FE8F828E837409F012516B9003EB
:102580001DEFF090031DE0FF22C0E0C0F0C083C04B
:1025900082C085C084C086758600C093759300C0D4
:1025A000D075D000C000C001C002C003C004C00587
:1025B000C006C007906028E0FF90030FEFF0900383
:1025C0000FE0FFEF5410FF7E00EF4E70030226D79E
:1025D0009003107401F090030FE0FFEF5480FF7E32
:1025E00000EF4E603190030FE0FFEF540FFF7E00CD
:1025F000EF64014E6007900310E4F080461240370C
:10260000900331E0FFEF5480FF7E00EF4E60349086
:102610000310E4F0802D90030FE0FFEF5440FF7EA5
:1026200000EF4E6005124FDB801990030FE0FFEFC3
:102630005420FF7E00EF4E6005124E9280059003FD
:1026400010E4F0900310E0FFEF70030226D79060D3
:1026500028E0FF90030FEFF090030FE0FFEF5480AE
:10266000FF7E00EF4E7070900334E0FF9003ACE00B
:10267000FEEE4FFF90030FEFF090030FE0FF90602E
:1026800029EFF0906029E0FF90030FE0FEEE6F70FD
:1026900046900331E0FF900310EFF0906028E0FFD8
:1026A000EF5480FF90030FEFF090030FE0FFEF7007
:1026B00018900331E0FF906028EFF0906028E0FF71
:1026C000EF540FFF900310EFF0900331E0FF900301
:1026D00010E0FEEEB507BAD007D006D005D004D082
:1026E00003D002D001D000D0D0D093D086D084D0F7
:1026F00085D082D083D0F0D0E0327B007A407980E0
:102700007D007C001253249040827450F07B007A4C
:102710004079847DE77C03125324904086741BF03B
:102720007B007A4079887D637C0012532490408A34
:10273000741BF07B087A0179D0C003C002C0017B12
:10274000007A41790090000A120613D001D002D01D
:10275000037F047E00124D759043007406F0904292
:10276000007452F07B0C7A01790F1253599046A1F4
:10277000EFF07B007A4279227D187C081253247B8B
:10278000007A4279207D517C12125324900004E497
:10279000F07F197E007D007C009000001205F29011
:1027A00000001205DAD3EF9400EE9400404E900042
:1027B00004E0FFEF64036044904225E0FFEF540122
:1027C000FF7E00900004E0FEEE25E0FEEE4FFFEFFE
:1027D0005403FF900004EFF07FE07E017D007C0059
:1027E000124D009000001205DA7BFF7AFF79FF7826
:1027F000FF1204509000001205F280A39000001216
:1028000005DAEF4E70057F031252E27B007A4079C1
:10281000047D007C011253249040047407F0904022
:1028200006E4F09040087448F0904004E4F09040D2
:1028300009E4F09040017402F090400B7404F090B1
:1028400043A2E0FFEF4407FF9043A2EFF09043A1C3
:10285000E0FFEF4401FF9043A1EFF09043A0E0FFC1
:10286000EF4480FF9043A0EFF0229002EFEFF09052
:1028700002F0ECF0A3EDF09002F21206137B007A66
:10288000007900C003C002C00190044612060AD0BD
:1028900082D083D0E06B7008E965827003EA6583BB
:1028A00070030229BE9002EFE0FFEFD3943F400C8B
:1028B0009002FAE4F0A37410F00229689002FA740E
:1028C00001F0A37420F09002EFE0FF7E007C207DF9
:1028D00000120672EF2400FFEE3400FEED3408FD16
:1028E000EC3400FCC004C005C006C0079002F0E054
:1028F000FEA3E0FF7C007D20120672A804A905AAB1
:1029000006AB07D007D006D005D0041204509002C1
:10291000F61205F29002F5E4F09002F5E0FFEFC345
:10292000942050449002F5E0FFE4FCFDFE9002F696
:102930001205E6120450A907AA06AB0512535990D6
:10294000044612060AE92400F9EA3401FA9002F575
:10295000E0FEEEFD7C00E92DF9EA3CFAEF120409F5
:102960009002F5E004F080B19002F212060AC00372
:10297000C002C00190044612060AA801AC02AD03D1
:10298000D001D002D0037E017F0012075B9002EFDE
:10299000E0FFC0079002F0E0FCA3E0FD90044612C7
:1029A000060A9002FAE0FEA3E0FF900303EEF0A314
:1029B000EFF0D007122C349002FCEFF0800690026A
:1029C000FC74FFF09002FCE0FF2290006EEEF0A39A
:1029D000EFF04E7003022B08900440E07002A3E079
:1029E0007003022B0890006EE0FEA3E024FCFFEED3
:1029F00034FFFEA37404F0A3743EF0900070E0FC7A
:102A0000A3E0F5828C83E0FCA3E0FD900072ECF083
:102A1000A3EDF04C602090006EE0FCA3E0FD900080
:102A200072E0FAA3E0FBD39DEA9C500A900070EAA2
:102A3000F0A3EBF080C5900072E07002A3E0604D5F
:102A40008F828E83A3A3E0FCA3E0FD90006FE02DB6
:102A5000FD90006EE03CFC900072E0FAA3E0FB6D9C
:102A60007002EA6C70278B828A83A3A3E0FCA3E048
:102A70002404FDE43C8F828E83A3A38DF012041BFB
:102A8000900072E0FCA3E0F5828C838003900072DA
:102A9000E0FDA3E08F828E83CDF0A3EDF090007077
:102AA000E0FCA3E0FDF5828C83A3A3E0FAA3E0FBA6
:102AB000ED2BFDEC3AFCED2404FDE43CFCED6F70E5
:102AC00002EC6E70338F828E83A3A3E0FCA3E0241C
:102AD00004FDE43CFC900070E0FAA3E0FBF5828A80
:102AE00083A3A3EC8DF012041B8F828E83E0FFA3DF
:102AF000E08B828A83CF800C900070E0FCA3E0F52D
:102B0000828C83EEF0A3EFF022900063EFF0900050
:102B100064120613900063E0FFEFD39400500302A9
:102B20002C23900063E0FFEFC394094003022C23A1
:102B30007B007A007900C003C002C00190006412DB
:102B4000060AD082D083D0E06B7008E965827003FA
:102B5000EA65837003022C23900063E0FF7E00EFA0
:102B600024FFFFEE34FFFEEFC4F8540FC868FFEEF9
:102B7000C454F048FE900069EFF0900069E0FF7ED9
:102B800000EF2488FFEE3460FE90006AEEF0A3EFC1
:102B9000F0900063E0FF123BC690006EEEF0A3EFF2
:102BA000F090006EE0FEA3E0FF900067E0FCA3E081
:102BB000FDD3ED9FEC9E401090006EE0FEA3E0FF81
:102BC000900067EEF0A3EFF090006CE4F0A3E4F067
:102BD000900067E0FEA3E0FF90006CE0FCA3E0FD46
:102BE000C3ED9FEC9E503290006AE0FEA3E0FF8FA1
:102BF000828E83E0FF90006412060A90006CE0FC75
:102C0000A3E0FDE92DF9EA3CFAEF12040990006C0B
:102C1000E475F00112041B80B7900063E0FF1242DC
:102C2000468008900067E4F0A3E4F0900067E0FEBF
:102C3000A3E0FF229002FDEFF09002FEECF0A3ED86
:102C4000F0900300120613124DD9EF6003022D47D6
:102C50009002FDE0FF90030012060A900303E0FCDF
:102C6000A3E0FD90030AECF0A3EDF0123D299003E0
:102C700005EFF0900305E0FFEF64076003022D42CB
:102C8000904722E0FFEF5402FF7E00EF4E70097F75
:102C9000017E00124E3880E8904722E0FFEF540298
:102CA000FF7E00EF4E600D904722E0FFEF131354BC
:102CB0003FFF80027FFFEF7007900305E4F080067E
:102CC00090030574FFF0900305E0FFEF707490022D
:102CD000FDE0FF9002FEE0FCA3E0FD900449E0FB74
:102CE00090044AE0FE90030AEEF0123E7390030552
:102CF000EFF0900305E0FFEF64077046904722E095
:102D0000FFEF5402FF7E00EF4E70097F017E00123C
:102D10004E3880E8904722E0FFEF5402FF7E00EF3C
:102D20004E600D904722E0FFEF1313543FFF8002E7
:102D30007FFFEF7007900305E4F0800690030574B1
:102D4000FFF012525380069003057404F0900305BF
:102D5000E0FF227BFF7A5379EC90009412061390E7
:102D60000097E4F0A3E4F090009BE4F090044B1291
:102D7000060AC003C002C00190009412060AD3D014
:102D800082D083D0E0E99582EA95834003022E2128
:102D900090009BE0FFEFC39440507190044B1206EB
:102DA0000AC003C002C00190009412060AD3D08268
:102DB000D083D0E0E99582EA958350379000941251
:102DC000060A1203F0FF90009BE0FE74542EF58279
:102DD000E43400F583EFF090009BE004F090009560
:102DE000E475F00112041B900097E475F0011204E1
:102DF0001B809D90009BE0FF74542FF582E434000B
:102E0000F583E4F090009BE004F080847B017A007D
:102E100079547D407C001242C590009BE4F0022D65
:102E20006C9000547480F0900055E4F0900099E4A8
:102E3000F0900097E0FEA3E0FFEF54FFFF90009AB0
:102E4000EFF0900099E0FF900056EFF090009AE0CC
:102E5000FF900057EFF07B017A0079547D047C00ED
:102E60001242C522125293900056EFF09043A5E013
:102E7000FFEF4401FFEFF09043B5E0FFEF4401FFA7
:102E8000EFF090609D7401F09060097402F0906022
:102E900010E0FFEF547FFFEFF07F007E00124E380E
:102EA000904394E0FFEF54F9FFEFF0906012E0FFE1
:102EB000EF54DFFFEFF0904394E0FFEF4401FFEFAA
:102EC000F07F017E00124E387F287E00124E38902F
:102ED00051F8E0FFEF547FFFEFF09051F8E0FFEF83
:102EE00054BFFFEFF0904394E0FFEF4402FFEFF098
:102EF0007F027E00124E38904394E0FFEF4404FFBF
:102F0000EFF0906084E4F0906085E4F0900056E08B
:102F1000FF12519E7C4A7D837F171241447D067FBC
:102F2000171247B87C4E7D357F151241447D067FD0
:102F3000151247B87C257D897F181241447D067F94
:102F4000181247B87C447DF67F021241447D067F0B
:102F5000021247B87C457D5D7F031241447D067FA8
:102F6000031247B87C457DC47F041241447D067F2F
:102F7000041247B82290006E120613900071EDF013
:102F8000124F68900071E0FFEFC39480400302305D
:102F900073124DD9EF600302306B90007274FFF032
:102FA00090006E12060A90030AE4F0A37410F07FFA
:102FB00040123D29EF64076003023066904722E02B
:102FC000FFEF5402FF7E00EF4E60F1904722E0FFDA
:102FD000EF5402FF7E00EF4E600D904722E0FFEFBE
:102FE0001313543FFF80027FFFEF7005900072E4DF
:102FF000F0900072E0FFEF7067900071E0FFEFFD6E
:103000007C00900449E0FB90044AE0FF90030AEF43
:10301000F07F40123E73EF6407703D90007274FFC2
:10302000F0904722E0FFEF5402FF7E00EF4E60F188
:10303000904722E0FFEF5402FF7E00EF4E600D90BC
:103040004722E0FFEF1313543FFF80027FFFEF7032
:1030500015900072E4F0800E90007274FFF080060C
:1030600090007274FFF0125253800E90007274043C
:10307000F080069000727401F0900072E0FF2290E0
:10308000031DE4F0906004E0FFEF547FFF90031B0A
:10309000EFF090031BE0FF7E00EF24FFFFEE34FF14
:1030A000FEEFC4F8540FC868FFEEC454F048FE9019
:1030B000031CEFF090031BE0FFEFD39400500302DA
:1030C000317090031BE0FFEFC3940940030231709D
:1030D00090031BE0FFEF75F00BA42437F582E43476
:1030E00003F583E0FFEF4401FFEFF090031BE0FFE7
:1030F000EF75F00BA42438F582E43403F583E4F093
:1031000090031BE0FFEF75F00BA42436F582E43446
:1031100003F583E0FFEF4402FFEFF090031BE0FFB5
:10312000EF75F00BA42439F582E43403F583E0FF56
:10313000EF5480FF7E00EF4E601890031CE0FF7E8E
:1031400000EF240EFFEE3460FE8F828E83748DF0CC
:10315000801690031CE0FF7E00EF240EFFEE34602B
:10316000FE8F828E837489F012516B90031DEFF0F5
:1031700090031DE0FF2290004DE4F07BFF7A597927
:1031800037C003C002C0017B017A00794EA801ACB0
:1031900002AD03D001D002D0037E007F0512075B91
:1031A00090005374FFF07D017F00124F3F1253D700
:1031B000EF700612534DEF70F412533312534DEF6C
:1031C0007003023267125211900053EFF0900053D7
:1031D000E0FFEF60E77B017A00790DC003C002C019
:1031E000017B017A00794E900057120613D001D06E
:1031F00002D00312344C90004DEFF090004DE0FFF0
:10320000EF6459705A90004EE0FFEF120628322703
:1032100043322244321B49000032577F45124FB6D9
:10322000809A122D5380957B017A00794EC003C09D
:1032300002C0017B017A007954A801AC02AD03D031
:1032400001D002D0037E007F0512075B1252A87FD7
:1032500059124FB60231BC7F4E124FB60231BC7FBD
:103260004E124FB60231BC1253892290031B120634
:103270001390031FE4F07B007A007900C003C002C2
:10328000C00190031B12060AD082D083D0E06B707D
:1032900008E965827003EA6583700302335C90037A
:1032A0001B12060A742212040990031B12060AE973
:1032B0002401F9EA3400FA740312040990031E741D
:1032C00002F090031EE0FFEFC39422400302335C40
:1032D00090031FE0FFE4FCFDFEEF2400FFEE34014D
:1032E000FEED340CFDEC3400FCA907AA06AB051278
:1032F0005359900320EFF090031FE004F090032057
:10330000E0FFEFC4540FFFEF90592793FF90031B8A
:1033100012060A90031EE0FEE92EF9E43AFAEF12D3
:103320000409900320E0FFEF540FFFEF905927931B
:10333000FF90031EE0FEEEFD7C00ED2402FDEC3468
:1033400000FC90031B12060AE92DF9EA3CFAEF1281
:10335000040990031EE02404F00232C22290006EA1
:103360001205F274FFFFFEFDFC90006EE0F8A3E092
:10337000F9A3E0FAA3E0FBC31205A360387F807EC7
:10338000967D187C4B90006EE0F8A3E0F9A3E0FA7C
:10339000A3E0FB1202B86002501B7F807E967D186E
:1033A0007CCB90006EE0F8A3E0F9A3E0FAA3E0FB89
:1033B0001202B8500F90006EE0FCA3E0FDA3E0FE07
:1033C000A3E0FF2290006EE0FCA3E0FDA3E0FEA3DB
:1033D000E0FF12036F9000721205F2900072E0FCA1
:1033E000A3E0FDA3E0FEA3E0FFEC120331C8ECC8AC
:1033F000C9EDC9CAEECACBEFCB90006EE0FCA3E0EA
:10340000FDA3E0FEA3E0FF12001DE4FBFAF9F812B1
:1034100002B85025900072E0FCA3E0FDA3E0FEA3FB
:10342000E0FFE4FAF9F8EF2401FFEA3EFEE93DFD92
:10343000E83CFC9000721205F2900072E0FCA3E000
:10344000FDA3E0FEA3E0FFEC120331229000541232
:10345000061390005AE4F0A3E4F090005CE4F090CE
:10346000005D7459F0124D3B90005AEEF0A3EFF05E
:1034700090005AE0FEA3E0FFEF64054E60030235C2
:103480002290005412060A7D057C00124E0890001E
:103490005412060A1203F0FF90005712060AEF12A8
:1034A000040990005412060AE92402F9EA3400FAE9
:1034B0001203F0FF7F0090005412060AE92401F97C
:1034C000EA3400FA1203F0FEEF5EFF7E0090005730
:1034D00012060AE92401F9EA3400FAEE8FF0120428
:1034E0003190005412060AE92404F9EA3400FA1271
:1034F00003F0FF7F0090005412060AE92403F9EA62
:103500003400FA1203F0FEEF5EFF7E0090005712C7
:10351000060AE92403F9EA3400FAEE8FF0120431C6
:10352000800F90005412060A124CC790005D744E32
:10353000F090005DE0FF227593007800758346757A
:1035400082E8E04401F0009046ECE0F99046FAE0B1
:10355000FAB903225420B40012B8001AEA901FFFEF
:10356000F07401901FFEF09046F6F0901FFEE060B0
:1035700005901FFFE0FA90480074C0F075810C9030
:10358000000078007920E4F0A3D8FCD9FAEA90048E
:103590002DF0020011750B1F750CFD121F53023523
:1035A000DC0251B6E493A3F8E493A34003F6800150
:1035B000F208DFF48029E493A3F85407240CC8C36D
:1035C00033C4540F4420C8834004F456800146F6A7
:1035D000DFE4800B010204081020408090498AE457
:1035E0007E019360BCA3FF543F30E509541FFEE405
:1035F00093A360010ECF54C025E060A840B8E493C7
:10360000A3FAE493A3F8E493A3C8C582C8CAC58308
:10361000CAF0A3C8C582C8CAC583CADFE9DEE7808D
:10362000BE9000AEEFF090041AE4F09000AEE0FF20
:10363000EF64016003023704904E007430F0904E46
:10364000027406F0904E037408F0904E04E4F0907B
:103650004E05E4F0904E06741FF0904E08E4F09092
:103660004E09E4F0904E0AE4F0904E147401F0908C
:1036700058847414F09058857405F0905886741628
:10368000F0905887E4F090588A7444F090588B7406
:1036900048F090588C7401F090588E7401F0905856
:1036A0008F7411F09058907419F09058917497F0AD
:1036B0007F521249DF9058947458F0905895E4F076
:1036C00090589A7405F090589B7402F090589CE4BE
:1036D000F090589DE4F07F001251367F337E037DD9
:1036E000007C009004201205F27D017F697E0012AB
:1036F00020EB7D017FAA7E011222807C4E7D377FE8
:103700001D1241442290006EEEF0A3EFF0A374046A
:10371000F0A3743EF0900070E0FEA3E0F5828E838B
:10372000E0FEA3E0FF4E7003FEFF228F828E83A394
:10373000A3E0FCA3E0FD90006EE0FAA3E0FBC3ED84
:103740009BEC9A500A900070EEF0A3EFF080C68FC9
:10375000828E83A3A3E0FCA3E0C39BFDEC9AFC90C4
:103760000072F0A3EDF0C39410EC940050178F8218
:103770008E83E0FCA3E0FD900070E0FAA3E0F58208
:103780008A83EC8045900073E024FCF0900072E0A6
:1037900034FFF0E0FDA3E08F828E83A3A3CDF0A3DE
:1037A000EDF0EF2404FFE43EFE900073E02FFF9065
:1037B0000072E03EFE900070F0A3EFF090006EE02B
:1037C000FDA3E08F828E83A3A3CDF0A3EDF0EF24C1
:1037D00004FFE43EFE221252939000AFEFF09004FB
:1037E00014E0FF9000AEEFF09043AAE0FFEF440139
:1037F000FFEFF09043AAE0FFEF4410FFEFF090439B
:10380000BAE0FFEF4401FFEFF09043BAE0FFEF446E
:1038100010FFEFF09046F8E0FFEF4402FFEFF0906A
:1038200046F9E0FFEF4402FFEFF0905891E0FFEF20
:103830004403FFEFF07F037E00124E389046F8E01D
:10384000FFEF54FDFFEFF09046F9E0FFEF54FDFF6E
:10385000EFF0905877E0FFEF4406FFEFF0905882CA
:10386000747AF09043A1E0FFEF4401FFEFF0904342
:10387000B1E0FFEF4401FFEFF09043A2E0FFEF441F
:1038800001FFEFF09043B2E0FFEF4401FFEFF09053
:1038900044DB7420F09044C37420F09000AFE0FF4C
:1038A00012519E22C0E0C0F0C083C082C085C08497
:1038B000C086758600C093759300C0D075D000C0D7
:1038C00000C001C002C003C004C005C006C007900C
:1038D00000ACE4F0A3E4F0124E361250FE124F1585
:1038E0009000ACEEF0A3EFF09000ACE0FEA3E0FFA0
:1038F000EE30E70A9000ACE4F0A3E4F0801B900007
:10390000ACE0FEA3E0FFC3EF94FFEE940F400A90FB
:1039100000AC740FF0A374FFF07B017A0079ACC0A7
:1039200003C002C00190044B12060A9000B11206B7
:10393000139000B4E4F0A37402F0D001D002D003DD
:1039400012152490044CE475F00212041BD007D029
:1039500006D005D004D003D002D001D000D0D0D002
:1039600093D086D084D085D082D083D0F0D0E0327E
:10397000900320E4F09003A3E0FF7E00900332EE7A
:103980008FF012041B90039AE0FEA3E0FFD3EF94A4
:1039900000EE94004053900320E0FFEFC3940850E2
:1039A0004890039C12060A1203F0FF900320E0FEE9
:1039B000EEFD7C00ED2400FDEC3460FC8D828C83F8
:1039C000EFF090039C12060AE92401F9EA3400FAA8
:1039D00090039C120613900320E004F090039A7465
:1039E000FF75F0FF12041B809C9003A3E0FFEF64BF
:1039F00008600B900320E0FFEFD39400401C90037D
:103A0000ACE0FFEF6480FF9003ACEFF09003317403
:103A10000FF09003AD7402F0800C9003317402F04B
:103A20009003AD7402F0900320E0FF9003A3EFF049
:103A3000900320E0FF900334EFF02290041474010F
:103A4000F090041FE4F07F101250437F1012506476
:103A50007D077F1D1247B89058967407F0905897CD
:103A6000E4F090589EE4F0905B07E0FFEF4418FF0D
:103A7000EFF0905893E4F0905B88E4F0905B89E479
:103A8000F0905880740AF0905881E4F0905883E4E4
:103A9000F09058887412F09058897413F090588DF3
:103AA000E4F0904E017414F09000B3740CF09000A8
:103AB000B47401F07B007A807D6B7C8D7F021217DD
:103AC000CE900414E0FFEF75F003A4241BF582E40C
:103AD0003404F583E0FF904E0EEFF0900414E0FF05
:103AE000EF75F003A42419F582E43404F583E0FCB7
:103AF000A3E0FD7B027A4E790C125326900414E069
:103B0000FF1236212290031DE4F0906000E0FFEFE9
:103B10005480FF7E00EF64804E7031906001E0FFC2
:103B2000EF1206283B2B2100003BC090039AE4F0E3
:103B3000A37407F07B017A04793290039C12061378
:103B40001243B790031DEFF080768074906000E020
:103B5000FFEF5480FF7E00EF4E7065906001E0FF44
:103B6000EF1206283B6E203B9B2200003BC09003D7
:103B70009AE4F0A37407F07B017A04793290039CF5
:103B800012061390043BE0FFEF4401FF90043BEF6B
:103B9000F012481790031DEFF08025906002E0FFBF
:103BA0007E0090043CEEF0A3EFF090043BE0FFEFCA
:103BB0004402FF90043BEFF012516B90031DEFF0B5
:103BC00090031DE0FF22900070EFF0900072E4F08F
:103BD000A3E4F0900070E0FFEFD394005003023CA8
:103BE00072900070E0FFEFC394094003023C7290B2
:103BF0000070E0FF7E00EF24FFFFEE34FFFEEFC415
:103C0000F8540FC868FFEEC454F048FE900071EFFE
:103C1000F0900071E0FF7E00EF240CFFEE3460FEB8
:103C20008F828E83E0FFEF540FFF7E00900072EED4
:103C3000F0A3EFF0900071E0FF7E00EF240DFFEEA7
:103C40003460FE8F828E83E0FFEFFD7C0090007277
:103C5000E0FEA3E0FFEF7F00FEEE4CFEEF4DFF9095
:103C60000072EEF0A3EFF090007274FF75F0FE1298
:103C7000041B900072E0FEA3E0FF22900312E4F028
:103C8000906029E0FFEF540FFFEF24FEFF90031137
:103C9000EFF0900311E0FF7E00900332EE8FF01200
:103CA000041B90039AE0FEA3E0FFD3EF9400EE9490
:103CB000004057900311E0FFEFD39400404C900375
:103CC00012E0FF7E00EF2400FFEE3460FE8F828E54
:103CD00083E0FF90039C12060AEF12040990039CF4
:103CE00012060AE92401F9EA3400FA90039C12064C
:103CF00013900312E004F0900311E014F090039A83
:103D000074FF75F0FF12041B8098900311E0FF9080
:103D10000334EFF09003ACE0FFEF6480FF9003AC5E
:103D2000EFF0900331740BF022900306EFF0900354
:103D30000712061390030C7407F0904722E0FFEF80
:103D40005402FF7E00EF4E607B90472074B6F090E7
:103D5000472074D5F09047207402F0904722E0FF8E
:103D6000EF5402FF7E00EF4E7052900306E0FF908A
:103D70004720EFF090030DE4F0A3E4F090030AE095
:103D8000FEA3E0FF90030DE0FCA3E0FDC3ED9FEC7C
:103D90009E503790030712060A90030DE0FEA3E041
:103DA000FFE92FF9EA3EFA1203F0FF904720EFF007
:103DB00090030DE475F00112041B80C090030C7495
:103DC00009F0800690030C7404F090030CE0FF22CD
:103DD00090031B7401F0906004E0FF90031CEFF06F
:103DE000900330E0FFEF14FF12492F90031DEEF017
:103DF000A3EFF090031DE0FEA3E0FF8F828E83A36C
:103E000012061CE92404F9EA3400FA1203F0FF90C8
:103E1000031FEFF090031FE0FF90031CE0FEEEC3D2
:103E20009F500B90031CE0FFEFC3940240079003E8
:103E30001BE4F0803890031CE0FF74982FF582E4B7
:103E40003403F583E0FF90031CE0FE74A72EF58297
:103E5000E43403F583EFF0906002E0FF90031CE090
:103E6000FE74982EF582E43403F583EFF090031B83
:103E7000E0FF22900306EFF0900307ECF0A3EDF0D3
:103E8000900309EBF090030B7407F0904722E0FFDA
:103E9000EF5402FF7E00EF4E606B90472074B6F047
:103EA00090472074D8F09047207405F0904722E0A6
:103EB000FFEF5402FF7E00EF4E7042900306E0FFDA
:103EC000904720EFF0900307E0FEA3E0FFEEFF7EB7
:103ED00000904720EFF0900307E0FEA3E0FFEF54CF
:103EE000FFFF904720EFF0900309E0FF904720EF9D
:103EF000F090030AE0FF904720EFF0800E90030B54
:103F00007409F0800690030B7404F090030BE0FF3B
:103F100022900056EFF0900057EDF09044C274806C
:103F2000F09044C37401F09044C07404F09044C015
:103F30007408F09044C07410F09003ADE4F0900069
:103F400057E0FFEF1206283F51003F590100003FA4
:103F5000619060097402F0800E9060097403F08033
:103F6000069060097403F0900056E0FF9003AEEFF6
:103F7000F0900330E4F09003A2E4F09003A6E4F0A4
:103F80009003A9E4F090032FE4F09003A3E4F090F1
:103F900060287403F09060087480F07F017E007DDB
:103FA000007C00124D009060127404F02290031BFC
:103FB000E4F090031CE4F0906000E0FFEF5403FF96
:103FC000EF1206283FCE013FDA0200003FF8906072
:103FD00004E0FF90031CEFF0801E906004E0FFEF10
:103FE000547FFFEF75F00BA4243FF582E43403F512
:103FF00083E0FF90031CEFF090031CE0FF9003A40C
:10400000E0FCA3E0FD8D828C83E5822FF582E43510
:1040100083F583E493FFEF12062840310140290223
:10402000403103000040318008123B0590031BEF34
:10403000F090031BE0FF22906028E0FF900311EF57
:10404000F0900311E0FF906028EFF0906028E0FF0F
:10405000900311EFF0900311E0FFEF5480FF7E001A
:10406000EF4E600B900311E0FF900331EFF0227FE1
:10407000021246F5906000E0FFEF5460FFEF120679
:1040800028408E0040982040A240000040AC120C16
:10409000AB900311EFF08019123FAD900311EFF0D8
:1040A000800F124AD4900311EFF08005900311E4C1
:1040B000F0900311E0FFEF70069003317403F022DB
:1040C00090006EEFF0124F6890006EE0FFEFC39427
:1040D000025065124DD9EF705790006EE0FD7F40A1
:1040E000124423EF6407703D90006F74FFF0904717
:1040F00022E0FFEF5402FF7E00EF4E60F190472276
:10410000E0FFEF5402FF7E00EF4E600D904722E08B
:10411000FFEF1313543FFF80027FFFEF700D9000FD
:104120006FE4F0800690006F74FFF0125253800E1F
:1041300090006F7404F0800690006F7401F090009E
:104140006FE0FF229000AFEFF09000B0ECF0A3ED35
:10415000F09000AFE0FFEFD3941F5003D38001C372
:1041600040057F001252699000AFE0FFEF541FFF3F
:104170007E00EF25E0FFEE33FEEF2400FFEE344437
:10418000FEAA06A9077B011253179000B2EEF0A316
:10419000EFF09000AFE0FF7E02EF8EF0A4FFAEF0F4
:1041A000EF2400FFEE3444FEAA06A9077B0190002D
:1041B000B0E0FEA3E0FFAD07AC061253269000B2BC
:1041C000E0FEA3E0FF22904E14E0FFEF5403FF90C7
:1041D00000B2EFF09000B2E0FFEFD39401503290C4
:1041E0004E11E0FF7E009000B0EEF0A3EFF09000E3
:1041F000B0E0FEA3E0FFEF7F00FE904E10E0FD7CFC
:1042000000EE4CFEEF4DFF9000B0EEF0A3EFF0801B
:104210001F7B027A4E79101253179000B0EEF0A374
:10422000EFF09000B2E0FFEFB40305904E12E0FF14
:1042300090041AE0FFEF600590041FE4F09000B0D6
:10424000E0FEA3E0FF22900070EFF0900070E0FF2E
:10425000EFD39400406E900070E0FFEFC3940950DC
:1042600063900070E0FF7E00EF24FFFFEE34FFFE5E
:10427000EFC4F8540FC868FFEEC454F048FE900035
:1042800071EFF0900070E0FFEF75F00BA42436F5AD
:1042900082E43403F583E4F0900070E0FFEF75F002
:1042A0000BA4243AF582E43403F583E0FF90007117
:1042B000E0FEEEFD7C00ED240EFDEC3460FC8D8212
:1042C0008C83EFF02290009C12061390009FECF07C
:1042D000A3EDF0900439E0FFEF75F00BA4243DF559
:1042E00082E43403F583E0FEA3E0FF90009FE0FC4E
:1042F000A3E0FDD3ED9FEC9E4025900439E0FFEF55
:1043000075F00BA4243DF582E43403F583E0FEA3AD
:10431000E0FF90009FEEF0A3EFF07F001252699053
:104320000439E0FF90009C12060A90009FE0FCA375
:10433000E0FD9000A5ECF0A3EDF0121BC822900365
:1043400030E0FFEF14FF12492F900329EEF0A3EFA6
:10435000F0900329E0FEA3E0FF8F828E83A3120674
:104360001CE92404F9EA3400FA1203F0FF90032B4D
:10437000EFF090032BE0FF7E00EF2402FFEE34000D
:10438000FEEF7802C333CE33CED8F9FF900329E095
:10439000FCA3E0FDEF2DFFEE3CFE900329EEF0A321
:1043A000EFF0900329E0FEA3E0FF8F828E83A3123B
:1043B000061CAE02AF012290039AE0FEA3E0FFEFDD
:1043C0004E700512508580589003AD7402F0900332
:1043D000ACE4F0124B24906007E0FF7E00EF7F001A
:1043E000FE906006E0FD7C00EE4CFEEF4DFF90037A
:1043F0001EEEF0A3EFF090031EE0FEA3E0FF90039B
:104400009AE0FCA3E0FDD3ED9FEC9E401090031ECC
:10441000E0FEA3E0FF90039AEEF0A3EFF0123970F4
:104420007F0122900070EFF0900071EDF09000722B
:104430007407F0904722E0FFEF5402FF7E00EF4E3A
:10444000603F90472074B6F090472074DBF09047AF
:10445000207408F0904722E0FFEF5402FF7E00EF47
:104460004E7016900070E0FF904720EFF0900071C2
:10447000E0FF904720EFF0800E9000727409F0800A
:10448000069000727404F0900072E0FF22906008C1
:10449000E0FFEF547FFFEFF0906012E0FFEF54FB7E
:1044A000FFEFF09043A5E0FFEF54FEFFEFF09043E5
:1044B000B5E0FFEF54FEFFEFF09044CA7480F09037
:1044C00044CB7401F09044C87404F09044C874085C
:1044D000F09044C87410F0900330E4F09003A2E42C
:1044E000F09003A6E4F09003A9E4F090032FE4F029
:1044F000900450E4F022C0E0C083C082C085C08434
:10450000C086758600C093759300C0D075D000C07A
:1045100006C00790600EE0FF900340E0FFEF5403F9
:10452000FF7E00EF64014E600E900343E0FFEF64F6
:1045300080FF900343EFF09003417401F090600B13
:10454000E0FFEF54FEFFEFF0D007D006D0D0D093BD
:10455000D086D084D085D082D083D0E032C0E0C075
:1045600083C082C085C084C086758600C093759361
:1045700000C0D075D000C006C00790601EE0FF905C
:10458000034BE0FFEF5403FF7E00EF64014E600E2B
:1045900090034EE0FFEF6480FF90034EEFF0900336
:1045A0004C7401F090600BE0FFEF54FDFFEFF0D092
:1045B00007D006D0D0D093D086D084D085D082D0FA
:1045C00083D0E032C0E0C083C082C085C084C08692
:1045D000758600C093759300C0D075D000C006C02A
:1045E0000790602EE0FF900356E0FFEF5403FF7E3C
:1045F00000EF64014E600E900359E0FFEF6480FF0E
:10460000900359EFF09003577401F090600BE0FFB6
:10461000EF54FBFFEFF0D007D006D0D0D093D08678
:10462000D084D085D082D083D0E032124F689002FF
:10463000F074FFF0124DD9EF704A7F011248D4EFA9
:104640006407703B7B017A0479497D02124690EF42
:10465000B4021D9002F0E4F0904722E0FFEF540214
:10466000FF7E00EF4E70187F017E00124E3880E80A
:10467000904722E0FFEF5402FF7E00EF4E60C5122C
:10468000525380069002F07404F09002F0E0FF2292
:104690009002F11206139002F4EDF09002F5E4F0AE
:1046A0009002F4E0FF9002F5E0FEEEC39F504090D0
:1046B0004722E0FFEF5401FF7E00EF4E6003D380FE
:1046C00001C340097F017E00124E3880E2904720EE
:1046D000E0FF9002F112060A9002F5E0FEE92EF9E1
:1046E000E43AFAEF1204099002F5E004F080B19088
:1046F00002F5E0FF22900312EFF07B007A007900D0
:10470000C003C002C00190039F12060AD082D0836A
:10471000D0E06B7008E965827003EA6583603790CA
:104720000312E0FF90039F12060AEF1204099003A0
:1047300032E0FEA3E0FF90039F12060AE92401F98C
:10474000EA3400FAEE8FF01204317B007A0079002F
:1047500090039F12061322904F00E0FFEF5401FFD9
:10476000EFF0904F02E0FFEF54FCFFEFF0904F0BA3
:10477000E0FFEF54CFFFEFF0904F0BE0FFEF44303E
:10478000FFEFF0904F0BE0FFEF54F0FFEFF0904F92
:104790000BE0FFEF440FFFEFF0904F01E0FFEF441D
:1047A00001FFEFF07FF37E01124EEB7FF37E0112EB
:1047B00051517F00125305229000AEEFF09000AFF0
:1047C000EDF09000AFE0FFEFD394075003D38001EA
:1047D000C340057F001252699000AEE0FFEFD39412
:1047E0001F5003D38001C340057F0012526990001F
:1047F000AFE0FFEF5407FF7E00EF75F020A4FFAE9F
:10480000F09000AEE0FEEE541FFE74802EF582E4C0
:104810003444F583EFF0229003AD7404F09003ACC0
:104820007480F0124B24906007E0FF7E00EF7F0061
:10483000FE906006E0FD7C00EE4CFEEF4DFF900325
:104840001EEEF0A3EFF090031EE0FEA3E0FF900346
:104850009AE0FCA3E0FDD3ED9FEC9E401090031E78
:10486000E0FEA3E0FF90039AEEF0A3EFF090033197
:10487000740BF07F01229002EF1206139002F2E413
:10488000F0124F687B007A007900C003C002C001BB
:104890009002EF12060AD082D083D0E06B7008E954
:1048A00065827003EA658370089002F27401F080FB
:1048B0001D124DD9EF60089002F27404F0800F9041
:1048C00002EF12060A900446120613125253900287
:1048D000F2E0FF229002F1EFF09002F27407F09004
:1048E0004722E0FFEF5402FF7E00EF4E6035904715
:1048F0002074B6F090472074E1F0904720740EF0D9
:10490000904722E0FFEF5402FF7E00EF4E700C90C4
:1049100002F1E0FF904720EFF0800E9002F2740960
:10492000F080069002F27404F09002F2E0FF229010
:10493000032CEFF09003AEE0FFEF25E025E024BC70
:10494000F582E43458F58312061CAE02AF019003E1
:104950002DEEF0A3EFF090032DE0FEA3E0FF8F8299
:104960008E83C083C08290032CE0FFD082D08375F9
:10497000F004EF1205FEE5822405F582E58334009C
:10498000F58312061CAE02AF012243044BFF53EC29
:1049900044042903D090004404240000FA00410498
:1049A000284044042E7D0000004104500041045181
:1049B000004304460000004104520041041F00412E
:1049C000041A004104150041041B00410414014174
:1049D0000453FF0048043E00000000000000009067
:1049E00000AFEFF01252939000B0EFF09046F8E075
:1049F000FFEF4403FFEFF09046F9E0FFEF4403FFC1
:104A0000EFF09000AFE0FF905892EFF07F037E0050
:104A1000124E389046F8E0FFEF54FCFFEFF090465E
:104A2000F9E0FFEF54FCFFEFF09000B0E0FF12510F
:104A30009E22C0E0C0F0C083C082C085C084C08612
:104A4000758600C093759300C0D075D000C000C0BB
:104A500001C002C003C004C005C006C00712317601
:104A6000D007D006D005D004D003D002D001D000AA
:104A7000D0D0D093D086D084D085D082D083D0F0CF
:104A8000D0E032C0E0C0F0C083C082C085C084C026
:104A900086758600C093759300C0D075D000C000A5
:104AA000C001C002C003C004C005C006C007124D4B
:104AB000A9D007D006D005D004D003D002D001D0B1
:104AC00000D0D0D093D086D084D085D082D083D06F
:104AD000F0D0E032900312E4F0906000E0FFEF5479
:104AE00080FF7E00EF64804E7034906001E0FFEF45
:104AF0001206284AFA0100004B1E7BFF7A5879D132
:104B000090039C1206139058D1E493FF7E0090030B
:104B10009AEEF0A3EFF01243B7900312EFF0900378
:104B200012E0FF22900332E4F0A3E4F07B007A006D
:104B30007900C003C002C00190039F12060AD08210
:104B4000D083D0E06B7008E965827003EA6583600A
:104B50001F90039F12060AE412040990039F120695
:104B60000AE92401F9EA3400FAE475F0001204318C
:104B7000229000B1EFF09000B1E0FFEFC39402503B
:104B8000399000B1E0FFEF25E024F9F582E43458D4
:104B9000F583E493FE740193FF8F828E83C083C0FC
:104BA00082E0FF9000B1E0FEEE9058FD93FEEEF43F
:104BB000FEEF5EFFD082D083EFF0229000B0EFF0E6
:104BC0009000B0E0FFEFC3940250369000B0E0FFD9
:104BD000EF25E024F9F582E43458F583E493FE747C
:104BE0000193FF8F828E83C083C082E0FF9000B06C
:104BF000E0FEEE9058FD93FEEF4EFFD082D083EFA3
:104C0000F022C2D5E830E70FB2D5E4C39BFBE49AAB
:104C1000FAE499F9E498F8EC30E717B2D5124C3879
:104C20001204F6E4C39BFBE49AFAE499F9E498F8D9
:104C300080031204F630D50DE4C39FFFE49EFEE42A
:104C40009DFDE49CFC227B0C7A0179CF1253599094
:104C50000000EFF0900000E0FFEF5407FF90586E67
:104C6000EFF0900000E0FFEFC4540FFFEF540FFF90
:104C700090586FEFF090510D7480F0905B0074804D
:104C8000F09058767444F0229000B0EFF090041A3F
:104C9000E0FFEF600C90041FE0FF9000B1EFF080A8
:104CA0000E904E01E0FFEF5401FF9000B1EFF09045
:104CB00000B1E0FFEF640160089000B0E0FFEF603A
:104CC000CC9000B1E0FF2290005E12061390043AEF
:104CD000E0FF90005E12060A90043AE0FEEE75F0E6
:104CE0000BA4243DF582E43403F583E0FCA3E0FD4E
:104CF000900067ECF0A3EDF0122B09221251CD22A7
:104D0000EC4D4E700D78FCEF24E950032840FD2255
:104D100000007BF178DA0000EF28FF78FFEE38FE24
:104D2000ED38FDEC38FC50E7EF2BFFEE38FEED38A8
:104D3000FDEC38FC40F2220502030490005EE4F032
:104D4000A3E4F090043AE0FFEF75F00BA42436F5ED
:104D500082E43403F583E0FFEFB4011090043AE0FD
:104D6000FF123BC690005EEEF0A3EFF090005EE015
:104D7000FEA3E0FF22758600EF4E6027EF60010E74
:104D800075930090000AE0F595A3E0F585A3E0F5A2
:104D9000848B938A838982E0A30586F0A31586DF3E
:104DA000F6DEF4E4F593F595229003ADE4F090037C
:104DB00030E4F09003A2E4F09003A6E4F09003A99D
:104DC000E4F090032FE4F09003A3E4F090602874E3
:104DD00003F09060087480F0229003067404F012CF
:104DE0005293900307EFF0900452E0FFEF700B90A6
:104DF00004527401F0900306E4F0900307E0FF1200
:104E0000519E900306E0FF2290005E120613900070
:104E100061ECF0A3EDF090043AE0FF90005E120622
:104E20000A900061E0FCA3E0FD900067ECF0A3EDC8
:104E3000F0122B0922322232EEFA900428E0F88F89
:104E4000F0A4FFAEF0E88AF0A42EFEE5F03400FDF9
:104E5000EF24C9FF78FFEE38FEED38FDE438FC5052
:104E600003024D0022ACEAADA08B938A838982E0D5
:104E7000F96017A3E0F5EAA3E0F5A0A3E060F4FA77
:104E8000A3E0F8A3E0F2DAF8D9E98DA08CEAE4F522
:104E900093229003ADE0FFEF1206284EBE004EAB0A
:104EA000024EAF044EB30600004EBE125022221234
:104EB0003C7B227F031246F59003317403F022906D
:104EC00003A9E0FFEF60139003A9E0FFEF4480FF28
:104ED000906008EFF09003A9E4F09003ADE4F07F58
:104EE000011246F59003317403F022900000EEF0B9
:104EF000A3EFF0900000E0FEA3E0FF900002EEF0D0
:104F0000A3EFF07B027A4F7904900002E0FCA3E06B
:104F1000FD12532622904E01E0FFEF4404FFEFF014
:104F20001253717F00124C881241C69000AEEEF011
:104F3000A3EFF012537D9000AEE0FEA3E0FF2290BD
:104F40000054EFF0900055EDF0900450E0FFEF704A
:104F500009122E649004507401F0900054E0FF9008
:104F60000055E0FD123F11221252939002F3EFF030
:104F70009043A0E0FFEF4408FFEFF09043B0E0FF64
:104F8000EF4408FFEFF09002F3E0FF12519E2290F1
:104F900000B0E4F09000B0E0FFEFC3940250109036
:104FA00000B0E0FF124B719000B0E004F080E5909B
:104FB000045374FFF022900054EFF0125227EF7068
:104FC0000612534DEF70F412534DEF600D7B017AD2
:104FD0000079547D017C001242C5229003ADE0FFB0
:104FE000EF1206284FFF004FF4024FF8044FFC0663
:104FF00000004FFF1253E5221252F422124EBF223C
:105000009043A3E0FFEF4401FFEFF09043B3E0FFD4
:10501000EF4401FFEFF0904F00E0FFEF4401FFEF9E
:10502000F0229003A3E0FF7E00900332EE8FF01297
:10503000041B9003ADE4F07F011246F59003317438
:1050400003F0229000AEEFF0904082C083C082E077
:10505000FF9000AEE0FEEE54F8FEEF4EFFD082D09F
:1050600083EFF0229000AEEFF0904102C083C08247
:10507000E0FF9000AEE0FEEE54F8FEEF4EFFD0826F
:10508000D083EFF0229003AD7402F09003AC7480F3
:10509000F0900331740FF09003A3E4F0900334E434
:1050A000F07F0122900000EEF0A3EFF07B027A4443
:1050B0007902900000E0FEA3E0FFAD07AC061253BA
:1050C0002622900000EEF0A3EFF07B027A447900F4
:1050D000900000E0FEA3E0FFAD07AC0612532622CD
:1050E00012462B9002EFEFF09002EFE0FFEF700816
:1050F00012462B9002EFEFF09002EFE0FF229004B7
:1051000015E0FFEF701190041BE0FFEF7003123AFF
:105110003B9004157401F01237D6229003AEE0FFE5
:10512000EF25E025E024BCF582E43458F58312062F
:105130001CAE02AF01229000AFEFF0124F8F900033
:10514000AFE0FF124BBB9000AFE0FF900453EFF0D5
:1051500022900000EEF0A3EFF07B027A4F790690E8
:105160000000E0FCA3E0FD125326229003AD74067C
:10517000F09003317406F09003AC7480F090033427
:10518000E4F07F0122EC4D6011ED60010C8B938AFD
:10519000838982E4F0A3DDFCDCFA75930022EF54EE
:1051A000016004D2AF8002C2AFEF5402FF9044F41A
:1051B000E054FD4FF0221253DDD2AF9044F474FD61
:1051C000F01252BC1252CF12527E80FE229043AC9B
:1051D000E0FFEF4410FFEFF09043BCE0FFEF44101E
:1051E000FFEFF0229043ACE0FFEF54EFFFEFF090C1
:1051F00043BCE0FFEF54EFFFEFF022900000EFF030
:10520000900000E0FFEFC43354E0FF904481EFF0E2
:105210002290043AE0FFEF75F00BA42436F582E407
:105220003403F583E0FF22900439E0FFEF75F00BC3
:10523000A42436F582E43403F583E0FF22900000D5
:10524000EFF0900000E0FFEFC43354E0FF904480A3
:10525000EFF022125293900306EFF0900452E4F024
:10526000900306E0FF12519E2290FFFF12064EEFC0
:10527000F09046EA7401F090000112064E2290046C
:1052800051E0FFEF70091247579004517401F0127A
:105290005000229044F4E0F84402F0E85402FF1079
:1052A000AF012274014FFF22900055E0FEA3E0FF02
:1052B000900057E0FCA3E0FD121D95221253C27E20
:1052C0004A7F321250A47F071251FB1253BB2212A5
:1052D00053D07E387FA41250C27F0712523D125322
:1052E000C922900005EFF0900005E0FF900005EF67
:1052F000F080FE229003ADE4F07F011246F59003AA
:10530000317403F022900000EFF0900000E0FF9075
:105310004F03EFF0228B938A838982E0FFA3E0FEA4
:10532000759300228B938A838982EDF0A3ECF0754C
:1053300093002290043BE4F090043AE0FF124246CE
:10534000229046F6E0FFEF4401FFEFF0229051611A
:10535000E0FFEF5401FF7E00228B938A838982E075
:10536000759300FF228B938A838982EDF0759300F9
:1053700022904E00E0FFEF4401FFEFF022904E003C
:10538000E0FFEF54FEFFEFF0221253E112448D12C2
:105390005341227B027A4079801253172290408237
:1053A000E0FFEF5407FF227B027A41790012531786
:1053B00022904102E0FFEF5407FF229044C07402A4
:1053C000F0229044C87402F0229044C07401F0228C
:1053D0009044C87401F022900330E0FF22124CFC8C
:1053E000221251E4221239702232323200000000BF
:1053F00000000000000000000000000000000000AD
:10540000000000000000000000000000000000009C
:10541000000000000000000000000000000000008C
:10542000000000000000000000000000000000007C
:1057E00000000000000000000000000012010002A4
:1057F00002000008B40432F2010001028001090233
:105800004300020101C0320904000001020201004C
:1058100005240010010424020205240600010524C9
:105820000100010705810308000A09040100020ABA
:105830000000000705820240000A0705030240003D
:105840000A0403090418034500720065006200752C
:1058500000730020004C00610062007300280353B5
:1058600000540045004D002000530065006E007399
:10587000006F0072002000520065007600200030AA
:10588000002E003100000203000081030008020125
:1058900000820200400A0100030200400A020A01DD
:1058A000FF57FE03FF5888000000000000000000C2
:1058B000FF589D01FF57EC01FF589F01FF58B3129D
:1058C000034D005300460054003100300030000109
:1058D000002800000000010400010000000000009A
:1058E0000000014359555342000000303030303140
:1058F0000000000000000000005B034324400000A3
:105900004F00000C00511000500051C00010010069
:1059100000100001140008000140000A00014C00C2
:105920000200015000002030313233343536373830
:0C5930003941424344454600000000009D
:00000001FF
