:400000000241B4008F828E83E0540100000070F82278FFE4F6D8FD0242120203DBE86480F8E933E83360110460F0ED33EC337009E8FCE9FDEAFEEBFF220460DED3EB9FEACD
:400040009EE99DE8C2E78CF0C2F795F0400CE8CCF8E9CDF9EACEFAEBCFFB1203A685D0F05804700320D5B3E80470075002B2D50203E592D5EC0460F7E4CCC0E0C398F860B5
:400080003B94186008400DD0E0FB0203BDE4FBFAC9FC8028E830E406E4C9FBE4CAFCE830E305E4C9CACBFCE854076010F8C3E913F9EA13FAEB13FBEC13FCD8F130F52FC331
:4000C000E49CFCEF9BFFEE9AFEED99FDD0E0FBEF4E4D4C701222DB030203E2EC2CFCEF33FFEE33FEED33FDED30E7EB0203BDEF2BFFEE3AFEED39FDD0E0FB50130BBB0003AD
:400100000203E5ED13FDEE13FEEF13FFEC13FC0203BDEC4D6011E8497017ED33EC3304600DE4FCFFFEFD22E933E8330470F80203DB1203A658046009E4CC248150062850E7
:40014000090203E52840030203E2C0E0EB4A7044B98006D0E0FB0203D1EF4E701CBD8008EBFFEAFEE9FD80EBE98DF0A4FEE5F00201FBE9CDF9EAFEEBFFEF89F0A4FCE5F087
:40018000CE89F0A42EFFE435F0CD89F0A42DFEE435F08067EF4E7005BD80D780C3EF8BF0A4ACF0EE8BF0A42CFCE435F0F8EF8AF0A42CE5F038FCE433CB8DF0A42CFCE5F0EE
:4001C0003BF8EE8AF0A42CFCE5F038F8E433CF89F0A42CFCE5F038CF3400CE89F0A42FFFE5F03EFEE433C98DF0A42EFEE5F039CD8AF0A42FFFE5F03EFEE43DFD33D0E0FBCD
:4002000050070BBB000F0203E5EC2CFCEF33FFEE33FEED33FD0203BD0203E5EC5D046005E8590470030203DB1203A6580460F6EC4860F2EC7004FDFEFF22C860DB2481C862
:400240005009C398600250060203E29850CAF582E9294B4A7005AB820203D175F0007C1A7880C3EF9BEE9AED99400DC3EF9BFFEE9AFEED99FDE842F0DC23ACF0D0E0FFD0BF
:40028000E0FED0E0FDAB8220E7101BEB60BAEC2CFCEF33FFEE33FEED33FD0203BDE803F830E705C0F075F000EF2FFFEE33FEED33FD40B830E7C280AA74F8CC6480CCC864A0
:4002C00080C8F58204604FC3EB9FF5F0EA9E42F0E99D42F0E89C45F0603C501DE5825FFFE582D313CB5BCBF42B5582FB50280ABA002409B9002008801DE5825BFBE582D354
:4003000013CF5FCFF4C3132F5582FF50090EBE00050DBD00010CC3EB9FF5F0EA9E42F0E99D42F0E89C45F06007CC4820E701B3EC2275F020800E75F010800575F0087D0045
:400340007E007F003392D530D50312062BEC334010EF33FFEE33FEED33FDEC33FCD5F0ED22E5F0247EA2D513CC92E7CDCEFF22EDD2E7CD33EC3392D524814006E4FFFEFDE9
:40038000FC22FCE4CFCECDCC24E0501174FF80EDC3CC13CCCD13CDCE13CECF13CF0470F030D5DE02062BE9D2E7C933E833F892D5EDD2E7CD33EC33FC5002B2D522EC30E7F8
:4003C000100FBF000C0EBE00080DBD00040BEB6014A2D5EB13FCED92E7FD2274FFFCFDFEFF22E480F8A2D574FF13FC7D80E480EFBB010689828A83E0225002E722BBFE02EF
:40040000E32289828A83E49322BB010689828A83F0225002F722BBFE01F322BC000BBE0029EF8DF084FFADF022E4CCF875F008EF2FFFEE33FEEC33FCEE9DEC984005FCEEDA
:400440009DFE0FD5F0E9E4CEFD22EDF8F5F0EE8420D21CFEADF075F008EF2FFFED33FD4007985006D5F0F222C398FD0FD5F0EA22C5F0F8A3E028F0C5F0F8E582158270021C
:400480001583E038F022A3F8E0C5F025F0F0E582158270021583E0C838F0E822BB010A89828A83E0F5F0A3E022500687F009E71922BBFE07E3F5F009E3192289828A83E478
:4004C00093F5F074019322BB010A89828A83F0E5F0A3F0225006F709A7F01922BBFE06F3E5F009F31922EF2BFFEE3AFEED39FDEC38FC22C3EF9BFFEE9AFEED99FDEC98FCA3
:4005000022E88FF0A4CC8BF0A42CFCE98EF0A42CFC8AF0EDA42CFCEA8EF0A4CDA8F08BF0A42DCC3825F0FDE98FF0A42CCD35F0FCEB8EF0A4FEA9F0EB8FF0A4CFC5F02ECDEB
:4005400039FEE43CFCEAA42DCE35F0FDE43CFC2275F008758200EF2FFFEE33FECD33CDCC33CCC58233C5829BED9AEC99E58298400CF582EE9BFEED9AFDEC99FC0FD5F0D6A7
:40058000E4CEFBE4CDFAE4CCF9A88222B800C1B90059BA002DEC8BF084CFCECDFCE5F0CBF97818EF2FFFEE33FEED33FDEC33FCEB33FB10D703994004EB99FB0FD8E5E4F986
:4005C000FA227818EF2FFFEE33FEED33FDEC33FCC933C910D7059BE99A4007EC9BFCE99AF90FD8E0E4C9FAE4CCFB2275F010EF2FFFEE33FEED33FDCC33CCC833C810D70741
:400600009BEC9AE899400AED9BFDEC9AFCE899F80FD5F0DAE4CDFBE4CCFAE4C8F922EF4BFFEE4AFEED49FDEC48FC22C3E49FFFE49EFEE49DFDE49CFC22EB9FF5F0EA9E4275
:40064000F0E99D42F0E89C45F022E8600FECC313FCED13FDEE13FEEF13FFD8F122E8600FEFC333FFEE33FEED33FDEC33FCD8F122E0FCA3E0FDA3E0FEA3E0FF22E0F8A3E0A1
:40068000F9A3E0FAA3E0FB22ECF0A3EDF0A3EEF0A3EFF022A42582F582E5F03583F58322E0FBA3E0FAA3E0F922EBF0A3EAF0A3E9F022E493FB740193FA740293F922D083E3
:4006C000D082F8E4937012740193700DA3A393F8740193F5828883E4737402936860EFA3A3A380DFE5162582F582E5153583F583B515048582162210AF06858216F515221A
:40070000858216F515D2AF22EC8EF0A4CCC5F0CCCDF8EFA4CEC5F02DFDE43CFCE8A42EC8C5F03DFDE43CFCEFA4FFE5F028FEE43DFDE43CFC22E709F608DFFA8046E709F28E
:4007400008DFFA803E88828C83E709F0A3DFFA8032E309F608DFFA806EE309F208DFFA806688828C83E309F0A3DFFA805A89828A83E0A3F608DFFA804E89828A83E0A3F245
:4007800008DFFA804280D280FA80C680D4805580F28029801080A680EA809A80A880DA80E280CA802988848C8589828A83E493A30586F0A30586DFF5DEF3800B89828A83EF
:4007C000E493A3F608DFF9ECFAA9F0EDFB2288848C8589828A83E0A30586F0A30586DFF6DEF480E389828A83E493A3F208DFF980D688F0EF60010E4E60CD88F0ED2402B42B
:40080000040050C3F582EB2402B4040050B9232345822390078573C0E0C0F0C083C082C085C084C086758600C093759300C0D075D000C000C001C002C003C004C005C00675
:40084000C0077F04125C6D900396E004F0900396E0FFEFD3943B5003020E11900397E004F0900396E4F0900397E0FFEFD3943B5003020D6A900398E004F0900397E4F0905B
:400880000398E0FFEFD394175003020C9A90039AE004F0900398E4F090039BE475F001120470900399E004F0900399E0FFEFD3940740069003997401F0900392E0FFEF54D2
:4008C00002FF7E00EF4E602C90039DE0FFEFB4022390039DE0FFEF906E3593FF7E00EF2401FFEE3400FE90039AE0FD7C00D3ED9FEC9E5058900392E0FFEF5402FF7E00EF99
:400900004E601F90039DE0FFEF6402601590039DE0FFEF906E3593FF90039AE0FEEED39F502A900392E0FFEF5402FF7E00EF4E6003020B3790039DE0FFEF906E3593FF906C
:40094000039AE0FEEED39F5003020B3790039DE004F090039A7401F090039DE0FFEFD3940C5003020A9090039EE475F00112047090039D7401F090039BE4F0A37401F090DF
:40098000039EE0FEA3E0FF7C017D9012041BED4C602590039EE0FEA3E0FF7E00EF5403FFEF4E701790039EE0FEA3E0FF7C007D6412041BED4C60047F0180027F00EFB401C4
:4009C00010900392E0FFEF4402FF900392EFF0800E900392E0FFEF54FDFF900392EFF09003A0E0FFEF5480FF7E00EF64804E70047F0180027F00EF603690039EE0FEA3E057
:400A0000FF900390E0FCA3E0FDEDB50714ECB50610900393E0FFEF4480FF900393EFF0800E900393E0FFEF547FFF900393EFF09003A0E0FF90067EEFF090067EE0FFEF6068
:400A40003290067EE0FF900393E0FEEE5FFF90067EE0FEEFB506047F0180027F00EF6013900392E0FFEF4408FF900392EFF0900393E4F0900395E0FFEF5440FF7E00EF64E8
:400A8000404E70047F0180027F00EF60031268EC9003A0E0FFEF5440FF7E00EF64404E70047F0180027F00EF602C90039DE0FF90038FE0FEEEB50710900393E0FFEF444057
:400AC000FF900393EFF0800E900393E0FFEF54BFFF900393EFF09003A0E0FF90067EEFF090067EE0FFEF603290067EE0FF900393E0FEEE5FFF90067EE0FEEFB506047F017D
:400B000080027F00EF6013900392E0FFEF4408FF900392EFF0900393E4F0900395E0FFEF5420FF7E00EF64204E70047F0180027F00EF60031268EB9003A0E0FFEF5408FF66
:400B40007E00EF64084E70047F0180027F00EF602C900399E0FF90038BE0FEEEB50710900393E0FFEF4408FF900393EFF0800E900393E0FFEF54F7FF900393EFF09003A0D5
:400B8000E0FFEF5420FF7E00EF64204E70047F0180027F00EF603690039BE0FEA3E0FF90038DE0FCA3E0FDEDB50714ECB50610900393E0FFEF4420FF900393EFF0800E9043
:400BC0000393E0FFEF54DFFF900393EFF09003A0E0FFEF5410FF7E00EF64104E70047F0180027F00EF602C90039AE0FF90038CE0FEEEB50710900393E0FFEF4410FF9003BA
:400C000093EFF0800E900393E0FFEF54EFFF900393EFF09003A0E0FF90067EEFF090067EE0FFEF603290067EE0FF900393E0FEEE5FFF90067EE0FEEFB506047F0180027F9C
:400C400000EF6013900392E0FFEF4408FF900392EFF0900393E4F0900395E0FFEF5408FF7E00EF64084E70047F0180027F00EF60031268E9900399E0FFEFB4011D900395C0
:400C8000E0FFEF5410FF7E00EF64104E70047F0180027F00EF60031268EA900398E0FFEFC3940C5010900392E0FFEF54FBFF900392EFF0800E900392E0FFEF4404FF9003CD
:400CC00092EFF09003A0E0FFEF5404FF7E00EF64044E70047F0180027F00EF602C900398E0FF90038AE0FEEEB50710900393E0FFEF4404FF900393EFF0800E900393E0FF06
:400D0000EF54FBFF900393EFF09003A0E0FF90067EEFF090067EE0FFEF603290067EE0FF900393E0FEEE5FFF90067EE0FEEFB506047F0180027F00EF6013900392E0FFEF3F
:400D40004408FF900392EFF0900393E4F0900395E0FFEF5404FF7E00EF64044E70047F0180027F00EF60031268E89003A0E0FFEF5402FF7E00EF64024E70047F0180027FA5
:400D800000EF602C900397E0FF900389E0FEEEB50710900393E0FFEF4402FF900393EFF0800E900393E0FFEF54FDFF900393EFF09003A0E0FF90067EEFF090067EE0FFEFFF
:400DC000603290067EE0FF900393E0FEEE5FFF90067EE0FEEFB506047F0180027F00EF6013900392E0FFEF4408FF900392EFF0900393E4F0900395E0FFEF5402FF7E00EFA7
:400E000064024E70047F0180027F00EF60031268E79003A0E0FFEF5401FF7E00EF64014E70047F0180027F00EF602C900396E0FF900388E0FEEEB50710900393E0FFEF447E
:400E400001FF900393EFF0800E900393E0FFEF54FEFF900393EFF09003A0E0FF90067EEFF090067EE0FFEF603290067EE0FF900393E0FEEE5FFF90067EE0FEEFB506047FBA
:400E80000180027F00EF6013900392E0FFEF4408FF900392EFF0900393E4F0900395E0FFEF5401FF7E00EF64014E70047F0180027F00EF60031268E6D007D006D005D0042B
:400EC000D003D002D001D000D0D0D093D086D084D085D082D083D0F0D0E032900422EFF090042AE4F0A3E4F0900423E4F0900423E0FFEFC394094003020F9A900423E0FFD1
:400F0000EF75F00BA42447F582E43402F583E4F0900423E0FFEF75F00BA42449F582E43402F583E4F0900423E0FFEF75F00BA42448F582E43402F583E4F0900423E0FFEF1C
:400F400075F00BA4244AF582E43402F583E4F0900423E0FFEF75F00BA4244CF582E43402F583E4F0900423E0FFEF75F00BA4244FF582E43402F583E4F0A3E4F0900423E035
:400F8000FFEF75F00BA42451F582E43402F583E4F0900423E004F0020EED900422E0FFEF603A900425E4F0900425E0FFEFC39402502A900425E0FF74AA2FF582E43402F5E5
:400FC00083E4F0900425E0FF74B92FF582E43402F583E4F0900425E004F080CB900242E0FFEFD394005003021404900242E0FFEF14FF12588E90042CEEF0A3EFF090042CEE
:40100000E0FEA3E0FF8F828E83A31206B29004271206A99004271206A0E92407F9EA3400FA1203F0FFEF5440FF7E00EF4E6010900241E0FFEF4401FF900241EFF0800E9047
:401040000241E0FFEF54FEFF900241EFF090042CE0FEA3E0FFEF2404FFEE3400FE90042CEEF0A3EFF090042CE0FEA3E0FF8F828E83E493FF900423EFF09004257401F090EA
:401080000425E0FFEFC39409400302131990042CE0FEA3E0FF8F828E83A31206B2AE02AF0190042EEEF0A3EFF0900424E4F0900423E0FF900424E0FEEEC39F4003021310C7
:4010C00090042EE0FEA3E0FF8F828E83740293FFEF547FFF7E00900425E0FD7C00ED6F7002EC6E60030212EF90042EE0FEA3E0FF8F828E83740493FE740593FF900425E0D4
:40110000FDED75F00BA4244FF582E43402F583E0FCA3E0FDC3ED9FEC9E502C90042EE0FEA3E0FF8F828E83740493FE740593FF900425E0FDED75F00BA4244FF582E4340291
:40114000F583EEF0A3EFF090042EE0FEA3E0FF8F828E83E493FF74AA2FF582E43402F583E0FF90042EE0FCA3E0FD8D828C83740193FEEF6E60030212EF90042EE0FEA3E080
:40118000FF8F828E83740393FFEF5403FF900426EFF090042EE0FEA3E0FF8F828E83740293FFEF5480FF7E00EF4E700302122F900425E0FFEF75F00BA42448F582E4340210
:4011C000F5837401F0900426E0FFEFB401047F0780027F0D900425E0FEEE75F00BA4244CF582E43402F583EFF090042EE0FEA3E0FF8F828E83740693FFEF640A6018900493
:401200002EE0FEA3E0FF8F828E83740693FFEF640260030212A5900426E0FFEF640370030212A5900425E0FF900444EFF08076900425E0FFEF75F00BA42448F582E4340289
:40124000F583E4F0900426E0FFEFB401047F0580027F09900425E0FEEE75F00BA4244CF582E43402F583EFF090042EE0FEA3E0FF8F828E83740693FFEF640A601490042E7F
:40128000E0FEA3E0FF8F828E83740693FFEFB40214900426E0FFEF6403600A900425E0FF900445EFF090042EE0FEA3E0FF8F828E83740293FF900425E0FEEE75F00BA42435
:4012C0004BF582E43402F583EFF090042EE0FEA3E0FF8F828E83740393FF900425E0FEEE75F00BA42447F582E43402F583EFF090042EE0FEA3E0FFEF2407FFEE3400FE9097
:40130000042EEEF0A3EFF0900424E004F00210AE900425E004F002107F90042CE0FEA3E0FF8F828E83A31206B2AE02AF0190042EEEF0A3EFF0900425E4F0900423E0FF90CD
:401340000425E0FEEEC39F505390042EE0FEA3E0FF8F828E83E493FF90042EE0FCA3E0FD8D828C83740293FEEE547FFEEE75F00BA42451F582E43402F583EFF090042EE0B6
:40138000FEA3E0FFEF2407FFEE3400FE90042EEEF0A3EFF0900425E004F0809E12521A9002B6EEF0A3EFF09004237401F0900423E0FFEFC39409504990042AE0FEA3E0FFC9
:4013C000900423E0FDED75F00BA4244DF582E43402F583EEF0A3EFF0900423E0FFEF75F00BA4244FF582E43402F583E0FEA3E0FF90042AEE8FF0120470900423E004F0804D
:40140000AC12274222900483E4F07B007A0079009004851206A99002ACE4F0A3E4F0906000E0FFEF5480FF7E00EF64804E60030216D9906001E0FFEF1206BE15FB00144B1F
:4014400006168A0816AA0A0000189F906003E0FFEFB4013512642090048AEEF0A3EFF090048AE0FEA3E0FF8F828E83A31206B29002AE1206A99002ACE4F0A37412F01253E0
:4014800075900483EFF002189F906003E0FFEF6402706B906002E0FF12588E90048AEEF0A3EFF090048AE0FEA3E0FF8F828E83A31206B29002AE1206A99002AE1206A0E9D0
:4014C0002403F9EA3400FA1203F0FF7E00EF7F00FE9002AE1206A0E92402F9EA3400FA1203F0FD7C00EE4CFEEF4DFF9002ACEEF0A3EFF0125375900483EFF002189F9060A6
:4015000003E0FFEF640360030215F0900488E4F07BFF7A6D79439004851206A9900488E0FF906002E0FEEED39F403D9004851206A01203F0FFEF60309004851206A0120340
:40154000F0FF900489EFF09004851206A0900489E0FF7E00E92FF9EA3EFA9004851206A9900488E004F080B4906002E0FFEFB4EE0C7BFF7A6D79C19004851206A99060022F
:40158000E0FFEF6030906CFEE493FF906002E0FEEEB507217BFF7A6D79889004851206A97B017A03794B123EE27B017A03794B9004851206A99004851206A01203F0FFEF3C
:4015C000700302189F9004851206A01203F0FF7E009002ACEEF0A3EFF09004851206A09002AE1206A9125375900483EFF002189F124DFC900483EFF002189F906000E0FF9A
:40160000EF5403FFEF1206BE1655001612020000189F9002ACE4F0A37402F0906004E0FFEF547FFFEF75F00BA42449F582E43402F583E0FF900619EFF090061AE4F07B01BF
:401640007A0679199002AE1206A9125375900483EFF002189F9002ACE4F0A37402F0900241E0FF900619EFF090061AE4F07B017A0679199002AE1206A9125375900483EF80
:40168000F002189F02189F02189F9002ACE4F0A37401F07B017A0279429002AE1206A9125375900483EFF002189F9002ACE4F0A37401F0906004E0FF74AA2FF9E43402FA71
:4016C0007B019002AE1206A9125375900483EFF002189F02189F02189F906001E0FFEF1206BE177D0118180316F505170A09172A0B0000189F906002E0FF9002BBEFF012C9
:4017000064F1900483EFF002189F906002E0FF900242EFF09002B87401F07F01120EDB1264F1900483EFF002189F124A4BEF700302189F906004E0FF900484EFF09004843D
:40174000E0FF9002B4EFF09002B87401F01218A5900484E0FF74AA2FF582E43402F583E0FF900484E0FE74B92EF582E43402F583EFF01264F1900483EFF002189F9060007C
:40178000E0FFEF5403FFEF1206BE17AD0017D3011797020000189F906002E0FFEF600302189F1231B5900483EFF002189F906002E0FFEF6401600302189F900241E0FFEFC5
:4017C00054FDFF900241EFF01264F1900483EFF002189F906004E0FFEFC39402400302189F906004E0FF74BC2FF582E43402F583C083C082E0FF906002E0FEEEF4FEEF5E1E
:40180000FFD082D083EFF01264F1900483EFF002189F02189F02189F906000E0FFEF5403FFEF1206BE1844001866011832020000189F906002E0FFEF7065123DEB90048300
:40184000EFF0805B906002E0FFEF64017051900241E0FFEF4402FF900241EFF01264F1900483EFF08039906004E0FFEFC39402502E906004E0FF74BC2FF582E43402F58346
:40188000C083C082E0FF906002E0FEEEF4FEEF5EFFD082D083EFF01264F1900483EFF0900483E0FF22900242E0FFEFD394005003021C86900242E0FFEF14FF12588E90048E
:4018C00091EEF0A3EFF0900491E0FEA3E0FFEF2404FFEE3400FE900491EEF0A3EFF0900491E0FEA3E0FF8F828E83E493FF90048CEFF0900491E0FEA3E0FF8F828E83A3123F
:4019000006B2AE02AF01900493EEF0A3EFF090048EE4F090048CE0FF90048EE0FEEEC39F4003021C86900493E0FEA3E0FF8F828E83E493FF74B92FF582E43402F583E0FF79
:40194000900493E0FCA3E0FD8D828C83E493FE74AA2EF582E43402F583E0FEEE6F7003021C65900493E0FEA3E0FF8F828E83E493FF74AA2FF582E43402F583E0FF90049350
:40198000E0FCA3E0FD8D828C83740193FEEF6E6003021C65900493E0FEA3E0FF8F828E83E493FF906004E0FEEF6E6003021C65900493E0FEA3E0FF8F828E83740293FFEF90
:4019C000547FFF90048DEFF090048DE0FF7E00EF24FFFFEE34FFFEEFC4F8540FC868FFEEC454F048FE900490EFF0900493E0FEA3E0FF8F828E83740393FFEF5403FF900460
:401A00008FEFF0900493E0FEA3E0FF8F828E83740293FFEF5480FF7E00EF4E603C90048DE0FFEF75F00BA42448F582E43402F5837401F090048FE0FFEFB401047F078002DF
:401A40007F0D90048DE0FEEE75F00BA4244CF582E43402F583EFF0803990048DE0FFEF75F00BA42448F582E43402F583E4F090048FE0FFEFB401047F0580027F0990048D23
:401A8000E0FEEE75F00BA4244CF582E43402F583EFF0900490E0FF7E00EF240EFFEE3460FE8F828E837401F0900493E0FEA3E0FF8F828E83740493FE740593FF90048DE088
:401AC000FDED75F00BA4244FF582E43402F583EEF0A3EFF0900493E0FEA3E0FF8F828E83740293FF90048DE0FEEE75F00BA4244BF582E43402F583EFF0900493E0FEA3E07B
:401B0000FF8F828E83740393FF90048DE0FEEE75F00BA42447F582E43402F583EFF090048DE0FFEF75F00BA4244AF582E43402F583E4F090048DE0FFEF75F00BA4244FF56E
:401B400082E43402F583E0FEA3E0FFEEFF7E00900490E0FEEEFD7C00ED240CFDEC3460FC8D828C83EFF090048DE0FFEF75F00BA4244FF582E43402F583E0FEA3E0FFEF5468
:401B8000FFFF900490E0FEEEFD7C00ED240DFDEC3460FC8D828C83EFF090048DE0FFEF75F00BA4244DF582E43402F583E0FEA3E0FFEF54FFFF900490E0FEEEFD7C00ED2492
:401BC00086FDEC3460FC8D828C83EFF090048DE0FFEF75F00BA4244DF582E43402F583E0FEA3E0FFEEFF7E00900490E0FEEEFD7C00ED2487FDEC3460FC8D828C83EFF0909A
:401C0000048DE0FFEF75F00BA4244DF582E43402F583E0FEA3E0FFEF54FFFF900490E0FEEEFD7C00ED2484FDEC3460FC8D828C83EFF090048DE0FFEF75F00BA4244DF582B7
:401C4000E43402F583E0FEA3E0FFEEFF7E00900490E0FEEEFD7C00ED2485FDEC3460FC8D828C83EFF0900493E0FEA3E0FFEF2407FFEE3400FE900493EEF0A3EFF090048E29
:401C8000E004F00219132290039BE4F0A3E4F090039AE0FF7E0090039BEE8FF012047090039EE0FEA3E0FF7C017D9012041BED4C602590039EE0FEA3E0FF7E00EF5403FF7E
:401CC000EF4E701790039EE0FEA3E0FF7C007D6412041BED4C60047F0180027F00EFB40110900392E0FFEF4402FF900392EFF0800E900392E0FFEF54FDFF900392EFF0908E
:401D000005F5E4F090039DE0FF7E00EF24FFFFEE34FFFE9005F5E0FD7C00C3ED9FEC9E501E9005F5E0FFEF906E3693FF7E0090039BEE8FF01204709005F5E004F080C590FE
:401D40000392E0FFEF5402FF7E00EF64024E70047F0180027F00EF601590039DE0FFEFD39402400A90039BE475F00112047090039AE0FF90039DE0FD90039EE0FAA3E0FBE0
:401D8000124AEEEF04FF900399EFF0900399E0FFEFD394004009900399E02400F08013900399E0FFEFF404FFC374079FFF900399EFF0900398E0FFEFC3940C5010900392C6
:401DC000E0FFEF54FBFF900392EFF0800E900392E0FFEF4404FF900392EFF09003A0E0FFEF5401FF7E00EF64014E70047F0180027F00EF602C900396E0FF900388E0FEEE23
:401E0000B50710900393E0FFEF4401FF900393EFF0800E900393E0FFEF54FEFF900393EFF09003A0E0FFEF5402FF7E00EF64024E70047F0180027F00EF602C900397E0FFD1
:401E4000900389E0FEEEB50710900393E0FFEF4402FF900393EFF0800E900393E0FFEF54FDFF900393EFF09003A0E0FFEF5404FF7E00EF64044E70047F0180027F00EF60DA
:401E80002C900398E0FF90038AE0FEEEB50710900393E0FFEF4404FF900393EFF0800E900393E0FFEF54FBFF900393EFF09003A0E0FFEF5408FF7E00EF64084E70047F01AB
:401EC00080027F00EF602C900399E0FF90038BE0FEEEB50710900393E0FFEF4408FF900393EFF0800E900393E0FFEF54F7FF900393EFF09003A0E0FFEF5420FF7E00EF644B
:401F0000204E70047F0180027F00EF603690039BE0FEA3E0FF90038DE0FCA3E0FDEDB50714ECB50610900393E0FFEF4420FF900393EFF0800E900393E0FFEF54DFFF900398
:401F400093EFF09003A0E0FFEF5410FF7E00EF64104E70047F0180027F00EF602C90039AE0FF90038CE0FEEEB50710900393E0FFEF4410FF900393EFF0800E900393E0FF4A
:401F8000EF54EFFF900393EFF09003A0E0FFEF5440FF7E00EF64404E70047F0180027F00EF602C90039DE0FF90038FE0FEEEB50710900393E0FFEF4440FF900393EFF080C3
:401FC0000E900393E0FFEF54BFFF900393EFF09003A0E0FFEF5480FF7E00EF64804E70047F0180027F00EF603690039EE0FEA3E0FF900390E0FCA3E0FDEDB50714ECB50667
:4020000010900393E0FFEF4480FF900393EFF0800E900393E0FFEF547FFF900393EFF09003A0E0FF9005F6EFF09005F6E0FFEF60329005F6E0FF900393E0FEEE5FFF9005C5
:40204000F6E0FEEFB506047F0180027F00EF6013900392E0FFEF4408FF900392EFF0900393E4F0229000001206A99000031206A0AF01AE02AD037C0090011912068890019A
:4020800019120670EF54FFFFEE54FFFEED5400FDEC5400FC9001191206889000031206A0AF01AE02AD037C007B007A0079FF7800D312063940030222EA9000031206A0AF10
:4020C00001AE02AD037C00A804A905AA06AB07900006E0FEA3E0FFE4FCFD1204E67BFF7AFF79FF7800C312063950030222EA1263AD7B017A0179211257D57B007A007901C0
:40210000780090011912067012058C9001081206887B007A017900780090011912067012058CEF54FFFFEE5400FEED5400FDEC5400FC90010C1206887F007E017D007C002E
:4021400090010C12067C120501C004C005C006C0077F007E007D017C0090010812067C120501A804A905AA06AB07D007D006D005D0041204E690011D1206887F007E007DEE
:40218000007C00900114120688900118E4F0900006E0FEA3E0FFE4FCFD90011412067CC312063940030222DD900118E0FFEF60030222DD7F007E007D007C009001101206F3
:4021C00088900110120670C3EE940140030222A190011912067090011D12067CC3120639405B900006E0FEA3E0FFE4FCFD90011412067CC31206395044900114120670904C
:4022000000001206A0E92FF9EA3EFAEB3DFB1203F0FB90011012067074082FF582E43400F583EBF09001141206707B017A00790078001204E6900114120688803390011D24
:40224000120670EF2400FFEE3400FEED3410FDEC3400FCA907AA06AB051267EBAB0790011012067074082FF582E43400F583EBF090011D1206707B017A007900780012044B
:40228000E690011D1206889001101206707B017A00790078001204E69001101206880221C1900108120670C00790010C120670AD07AC067B017A007908D00712349A900187
:4022C00018EFF090010C1206707B017A00790078001204E690010C12068802218E904800E0FFEF4406FFEFF080069001187401F0900118E0FFEF6010900118E0FFEF6401CC
:40230000600690011874FFF0900118E0FF227B007A4679E81267EBEF4405FD7B007A4679E81267F7751400E514C39409503AAF14EF75F005A42401F582E4346EF583AF8249
:40234000AE838E088F09AE08AF098F828E831206B2AE08AF098F828E83740393FC740493FD12650B051480BF751400E514C394015078AF14EF75F008A4242EF582E4346E78
:40238000F583AF82AE838E0A8F0BAE0AAF0B8F828E831206B28B0C8A0D890EAE0AAF0B8F828E83A3A3A31206B28B0F8A108911AE0AAF0B8F828E83740693F512740793F52E
:4023C00013AB0FAA10A911C003C002C001AB0CAA0DA90E9003FB1206A9D001D002D003AF13AE12125F3B051480817B087A007900126121905883740AF07B017A507903126D
:4024000067EBEF4402FD7B017A5079031267F77B017A5079131267EBEF4402FD7B017A5079131267F79043A0E0FFEF4440FF9043A0EFF09043C2E0FFEF4410FF9043C2EFEC
:40244000F07B087A06793CC003C002C0017B007A5179029003FB1206A9D001D002D0037F087E00125F3B7B087A067944C003C002C0017B007A5179F09003FB1206A9D00162
:40248000D002D0037F0A7E00125F3B7B087A067950C003C002C0017B007A5179309003FB1206A9D001D002D0037F0A7E00125F3B7B087A06795CC003C002C0017B007A51E7
:4024C00079609003FB1206A9D001D002D0037F0A7E00125F3B9044F47401F0904322E0FFEF4408FF904322EFF09046ECE0FFEFC394055006904689743AF090480074F1F010
:402500001235FA90480074B1F0125DD27B007A4379A0C003C002C0017B007A4379B09003FB1206A9D001D002D0037F0E7E00125F3B9043B0E0FFEF54FDFFEFF0229003B3D0
:40254000EFF09003B4ECF0A3EDF09003B6EAF0A3EBF09003B9E0FFEFD39400500302273C9003B9E0FFEFD39401400302273C9003B3E0FFEF1206BE258A01258A0425B707A5
:4025800025E208260D0A000026389003B8E0FFEFD3940F40117B0C7A0179181267EB9003BAEFF002263D7B0C7A01791C1267EB9003BAEFF002263D9003B8E0FFEFD3940FEE
:4025C00040107B0C7A0179191267EB9003BAEFF0806B7B0C7A01791D1267EB9003BAEFF0805B9003B8E0FFEFD3940F40107B0C7A01791A1267EB9003BAEFF080407B0C7AB4
:4026000001791E1267EB9003BAEFF080309003B8E0FFEFD3940F40107B0C7A01791B1267EB9003BAEFF080157B0C7A01791F1267EB9003BAEFF080059003BAE4F09003BA0B
:40264000E0FFEF3395E0FEFDFC7B207A0079007800120501A804A905AA06AB079003B4E0FEA3E0FFE4FCFD1204E69003BB1206889003BB120670AB07AA06A905A804A80467
:40268000A905AA06AB079003B6E0FEA3E0FFE4FCFD1205019003C11206887B007A80790078009003C112067012058C9003BFEEF0A3EFF09003B8E0FFEFC3940E5047900339
:4026C000BFE0FEA3E0FF9003B8E0FDC3740E9DFDEFA805088005CEC313CE13D8F9FF9003BFEEF0A3EFF09003B8E0FFEF04FF9003B9E0FEEE75F003A424EDF582E43403F5AC
:4027000083EFF080169003B9E0FFEF75F003A424EDF582E43403F583740FF09003BFE0FEA3E0FF9003B9E0FDED75F003A424EBF582E43403F583EEF0A3EFF0227F00126687
:40274000052290061B7401F090061CE4F090061CE0FFEFC39480400302293090061CE0FF7E00EF2480FFEE3460FE8F828E83740CF090061BE0FFEF75F00BA4244CF582E490
:402780003402F583E0FFEF604F90061BE0FFEF75F00BA4244BF582E43402F583E0FFEF5480FF7E00EF4E601890061CE0FF7E00EF240EFFEE3460FE8F828E83740CF0802E20
:4027C00090061CE0FF7E00EF240EFFEE3460FE8F828E837408F0801690061CE0FF7E00EF240EFFEE3460FE8F828E837480F090061BE0FFEF75F00BA4244FF582E43402F5C5
:4028000083E0FEA3E0FFEEFF7E0090061CE0FEEEFD7C00ED240CFDEC3460FC8D828C83EFF090061BE0FFEF75F00BA4244FF582E43402F583E0FEA3E0FFEF54FFFF90061C5E
:40284000E0FEEEFD7C00ED240DFDEC3460FC8D828C83EFF090061BE0FFEF75F00BA4244DF582E43402F583E0FEA3E0FFEF54FFFF90061CE0FEEEFD7C00ED2486FDEC3460C6
:40288000FC8D828C83EFF090061BE0FFEF75F00BA4244DF582E43402F583E0FEA3E0FFEEFF7E0090061CE0FEEEFD7C00ED2487FDEC3460FC8D828C83EFF090061BE0FFEFC3
:4028C00075F00BA4244DF582E43402F583E0FEA3E0FFEF54FFFF90061CE0FEEEFD7C00ED2484FDEC3460FC8D828C83EFF090061BE0FFEF75F00BA4244DF582E43402F5839A
:40290000E0FEA3E0FFEEFF7E0090061CE0FEEEFD7C00ED2485FDEC3460FC8D828C83EFF090061BE004F090061CE02410F002274D90600A74FFF0227F007E007D007C009013
:402940000373120688900377E4F0A3E4F090037FE4F07F007E007D407C409003801206889003847402F01268BC7B007A007980784190038012067012021B1240C59003739C
:4029800012068890037312067012036FEFC4F8540FC868FFEEC454F048FE124382AA06A9077B019003701206A9900386E4F0A37403F09003701206A090037C1206A97F0074
:4029C0007E007D807C4190037312067C1201127B007A00794078C012002112036F900377EEF0A3EFF090037FE4F090037FE0FFEFC39403503190037FE0FF7E00EF2400FFB7
:402A0000EE3480FE8F828E83E0FF90037C1206A0EF12040990037DE475F00112047090037FE004F080C490037FE0FF7E00900377E0FCA3E0FDC3EF9DEE9C501290037C12E5
:402A400006A0E412040990037FE004F080D890036DE0FF9003701206A0EF12040990036EE0FF9003701206A0E92401F9EA3400FAEF12040990036FE0FF9003701206A0E97A
:402A80002402F9EA3400FAEF1204097F00124F9C900385EFF0900385E0FFEF60089003847403F0807790037FE4F09003701206A09003791206A990037FE0FCE412033B907B
:402AC000037312067C1202B86042404090037FE0FFEFC3948050359003791206A090037FE0FD123CE1900385EFF0900385E0FFEF60089003847403F0802290037AE475F005
:402B00001012047090037FE004F080AA9003701206A0AE02AF0112373A1268C0900384E0FF22900449EFF090044A1206A9900449E0FFEFD394005003022CEE900449E0FF67
:402B4000EFC394094003022CEE900449E0FF7E00EF24FFFFEE34FFFEEFC4F8540FC868FFEEC454F048FE90044FEFF090044FE0FF7E00EF2488FFEE3460FE900450EEF0A343
:402B8000EFF0900449E0FFEF75F00BA4244DF582E43402F583E0FEA3E0FFC3E49FFF74029EFE90044DE0FCA3E0FDD3ED9FEC9E4028900449E0FFEF75F00BA4244DF582E42D
:402BC0003402F583E0FEA3E0FFC3E49FFF74029EFE90044DEEF0A3EFF090044DE0FEA3E0FFEEFF7E00900449E0FEEE75F00BA4244AF582E43402F583E0FEEF4EFF90044F52
:402C0000E0FEEEFD7C00ED240CFDEC3460FC8D828C83EFF090044DE0FEA3E0FFEF54FFFF90044FE0FEEEFD7C00ED240DFDEC3460FC8D828C83EFF07B007A007900C003C08D
:402C400002C00190044A1206A0D082D083D0E06B7008E965827003EA65836051900452E4F0A3E4F090044DE0FEA3E0FF900452E0FCA3E0FDC3ED9FEC9E503290044A1206F8
:402C8000A0900452E0FEA3E0FFE92FF9EA3EFA1203F0FF900450E0FCA3E0FD8D828C83EFF0900452E475F00112047080B7900449E0FFEF75F00BA42448F582E43402F58399
:402CC000E4F0900449E0FFEF75F00BA4244CF582E43402F583E0FF90044FE0FEEEFD7C00ED240EFDEC3460FC8D828C83EFF0227BFF7A6879EE9003011206A9900304E4F087
:402D0000A3E4F0900306E4F09003077402F01268C49003011206A0C003C002C0019005621206A0D082D083D0E06B7008E965827003EA658370479002C174A0F090030674C8
:402D400001F0900306E0FFEFC39440501A900306E0FF74C12FF582E43402F5837440F0900306E004F080DB7B017A0279C1125E8D125307EFB403069003077403F09005626A
:402D80001206A0C003C002C0019003011206A0C3D082D083D0E0E99582EA95834003022E42900306E0FFEFC3944050729005621206A0C003C002C0019003011206A0C3D066
:402DC00082D083D0E0E99582EA958350379003011206A01203F0FF900306E0FE74C12EF582E43402F583EFF0900306E004F0900302E475F001120470900304E475F00112EE
:402E00000470809D900306E0FF74C12FF582E43402F5837440F0900306E004F080837B017A0279C1125E8D900306E4F0125307EF64036003022D7D9003077403F0804602D2
:402E40002D7D900304E475F0041204709002C17480F09002C2E4F0900304E0FEA3E0FFEEFF7E009002C3EFF0900304E0FEA3E0FFEF54FFFF9002C4EFF07B017A0279C11298
:402E80005E8D1268C8900307E0FF229004C2EEF0A3EFF09004C4EDF01268359004C6EFF012682B9004C7EEF0A3EFF09004C7E0FEA3E0FF9004C2E0FCA3E0FDED6F7002ECF0
:402EC0006E700302301F9043A2E0FFEF5401FF9004C5EFF09004C6E0FFEF705E9004C7E0FEA3E0FFEF4E600C9004C2E0FEA3E0FFEF4E70469004C7E0FEA3E0FFEF4E701D49
:402F00007B027A4079809004C2E0FCA3E0FD126731904082E0FFEF54BFFFEFF022904082E0FFEF4440FFEFF07B027A4079809004C2E0FCA3E0FD126731229004C5E0FFEF7B
:402F4000606C904001E4F09040107401F0904014E4F0904008E0FFEF547FFFEFF0904082E0FFEF5408FF7E00EF4E600C9004C2E0FEA3E0FFEF4E70367B027A40790290040B
:402F8000C7E0FCA3E0FD1267319040017407F0904001E0FFEF5401FF7E00EF4E70F19043A2E0FFEF54FEFFEFF0904001E4F09043A2E0FFEF5401FF7E00EF4E603A7B027AFE
:402FC0004079029004C2E0FCA3E0FD1267319004C4E0FFEF60047F0280027F00EF4401FF904001EFF0904001E0FFEF5401FF7E00EF4E602B80EF227B027A4079809004C27B
:40300000E0FCA3E0FD1267319043A2C083C082E0FF9004C5E0FEEF4EFFD082D083EFF0229004C9EEF0A3EFF09004CBEDF01268499004CDEFF012683F9004CEEEF0A3EFF021
:403040009004CEE0FEA3E0FF9004C9E0FCA3E0FDED6F7002EC6E70030231B49043A1E0FFEF5401FF9004CCEFF09004CDE0FFEF705E9004CEE0FEA3E0FFEF4E600C9004C9B9
:40308000E0FEA3E0FFEF4E70469004CEE0FEA3E0FFEF4E701D7B027A4179009004C9E0FCA3E0FD126731904102E0FFEF54BFFFEFF022904102E0FFEF4440FFEFF07B027A6F
:4030C0004179009004C9E0FCA3E0FD126731229004CCE0FFEF606C904001E4F09040147401F0904010E4F0904008E0FFEF547FFFEFF0904102E0FFEF5408FF7E00EF4E6087
:403100000C9004C9E0FEA3E0FFEF4E70367B027A4079029004CEE0FCA3E0FD1267319040017407F0904001E0FFEF5401FF7E00EF4E70F19043A1E0FFEF54FEFFEFF090403C
:4031400001E4F09043A1E0FFEF5401FF7E00EF4E603A7B027A4079029004C9E0FCA3E0FD1267319004CBE0FFEF60047F0280027F00EF4401FF904001EFF0904001E0FFEFE5
:403180005401FF7E00EF4E602B80EF227B027A4179009004C9E0FCA3E0FD1267319043A1C083C082E0FF9004CCE0FEEF4EFFD082D083EFF0229005A0E4F0906004E0FFEF0D
:4031C000547FFF90059EEFF090059EE0FF7E00EF24FFFFEE34FFFEEFC4F8540FC868FFEEC454F048FE90059FEFF090059EE0FFEFD39400500302332390059EE0FFEFC39434
:4032000009400302332390059EE0FFEF75F00BA42449F582E43402F583E0FFEF54FEFFEFF090059EE0FFEF75F00BA4244AF582E43402F583E4F090059FE0FF7E00EF240C51
:40324000FFEE3460FE8F828E83E0FFEF547FFFEFF090059EE0FFEF75F00BA42448F582E43402F583E0FFEF54FDFFEFF090059EE0FFEF75F00BA4244BF582E43402F583E03A
:40328000FFEF5480FF7E00EF4E604990059EE0FFEF75F00BA42448F582E43402F583E0FFEFB4011890059FE0FF7E00EF240EFFEE3460FE8F828E83740CF0805F90059FE00E
:4032C000FF7E00EF240EFFEE3460FE8F828E83740DF0804790059EE0FFEF75F00BA42448F582E43402F583E0FFEFB4011890059FE0FF7E00EF240EFFEE3460FE8F828E83DF
:403300007408F0801690059FE0FF7E00EF240EFFEE3460FE8F828E837409F01264F19005A0EFF09005A0E0FF22C0E0C0F0C083C082C085C084C086758600C093759300C060
:40334000D075D000C000C001C002C003C004C005C006C007906028E0FF90060BEFF090060BE0FFEF5410FF7E00EF4E700302347790060C7401F090060BE0FFEF5480FF7E31
:4033800000EF4E603190060BE0FFEF540FFF7E00EF64014E600790060CE4F08046124F13900243E0FFEF5480FF7E00EF4E603490060CE4F0802D90060BE0FFEF5440FF7ECF
:4033C00000EF4E6005126246801990060BE0FFEF5420FF7E00EF4E6005126097800590060CE4F090060CE0FFEF7003023477906028E0FF90060BEFF090060BE0FFEF548088
:40340000FF7E00EF4E7070900246E0FF9002BEE0FEEE4FFF90060BEFF090060BE0FF906029EFF0906029E0FF90060BE0FEEE6F7046900243E0FF90060CEFF0906028E0FF23
:40344000EF5480FF90060BEFF090060BE0FFEF7018900243E0FF906028EFF0906028E0FFEF540FFF90060CEFF0900243E0FF90060CE0FEEEB507BAD007D006D005D004D0E1
:4034800003D002D001D000D0D0D093D086D084D085D082D083D0F0D0E032900414EFF0900415ECF0A3EDF09004171206A97B007A007900C003C002C00190051A1206A0D06A
:4034C00082D083D0E06B7008E965827003EA658370030235EE900414E0FFEFD3943F400C90041FE4F0A37410F002359890041F7401F0A37420F0900414E0FF7E007C207D85
:4035000000120708EF2400FFEE3400FEED3408FDEC3400FCC004C005C006C007900415E0FEA3E0FF7C007D20120708A804A905AA06AB07D007D006D005D0041204E69004FB
:403540001B12068890041AE4F090041AE0FFEFC39420504490041AE0FFE4FCFDFE90041B12067C1204E6A907AA06AB051267EB90051A1206A0E92400F9EA3401FA90041A38
:40358000E0FEEEFD7C00E92DF9EA3CFAEF12040990041AE004F080B19004171206A0C003C002C00190051A1206A0A801AC02AD03D001D002D0037E017F001207F190041499
:4035C000E0FFC007900415E0FCA3E0FD90051A1206A090041FE0FEA3E0FF90046EEEF0A3EFF0D0071239A4900421EFF0800690042174FFF0900421E0FF22904698E0FF90B9
:403600000515EFF07B007A4079807D007C0012672F9040827450F07B007A4079847DBF7C5D12672F9040867419F07B087A067968C003C002C0017B007A4179009003FB1281
:4036400006A9D001D002D0037F047E00125F3B9043007406F090430A74F3F09046987403F09043097484F09043087405F07FA07E867D017C009005161206889005161206FF
:4036800070D3EF9400EE94004033904308E0FFEF5420FF7E00EF4E70247FE07E017D007C00125F009005161206707BFF7AFF79FF78FF1204E690051612068880BE90051558
:4036C000E0FF904698EFF09042007452F07B0C7A01790F1267EB9046A1EFF07B007A4079047D007C0012672F9040047407F0904006E4F09040087448F0904004E4F090409A
:4037000009E4F09040017402F090400B7404F09043A2E0FFEF4403FF9043A2EFF09043A1E0FFEF4401FF9043A1EFF09043A0E0FFEF4480FF9043A0EFF0229003FEEEF0A3F2
:40374000EFF04E70030238789004A7E07002A3E070030238789003FEE0FEA3E024FCFFEE34FFFEA37404F0A374A5F0900400E0FCA3E0F5828C83E0FCA3E0FD900402ECF094
:40378000A3EDF04C60209003FEE0FCA3E0FD900402E0FAA3E0FBD39DEA9C500A900400EAF0A3EBF080C5900402E07002A3E0604D8F828E83A3A3E0FCA3E0FD9003FFE02DE6
:4037C000FD9003FEE03CFC900402E0FAA3E0FB6D7002EA6C70278B828A83A3A3E0FCA3E02404FDE43C8F828E83A3A38DF0120470900402E0FCA3E0F5828C83800390040266
:40380000E0FDA3E08F828E83CDF0A3EDF0900400E0FCA3E0FDF5828C83A3A3E0FAA3E0FBED2BFDEC3AFCED2404FDE43CFCED6F7002EC6E70338F828E83A3A3E0FCA3E0249A
:4038400004FDE43CFC900400E0FAA3E0FBF5828A83A3A3EC8DF01204708F828E83E0FFA3E08B828A83CF800C900400E0FCA3E0F5828C83EEF0A3EFF022900430EFF090045B
:40388000311206A9900430E0FFEFD394005003023993900430E0FFEFC3940940030239937B007A007900C003C002C0019004311206A0D082D083D0E06B7008E9658270034D
:4038C000EA65837003023993900430E0FF7E00EF24FFFFEE34FFFEEFC4F8540FC868FFEEC454F048FE900436EFF0900436E0FF7E00EF2488FFEE3460FE900437EEF0A3EFC6
:40390000F0900430E0FF12483F90043BEEF0A3EFF090043BE0FEA3E0FF900434E0FCA3E0FDD3ED9FEC9E401090043BE0FEA3E0FF900434EEF0A3EFF0900439E4F0A3E4F031
:40394000900434E0FEA3E0FF900439E0FCA3E0FDC3ED9FEC9E5032900437E0FEA3E0FF8F828E83E0FF9004311206A0900439E0FCA3E0FDE92DF9EA3CFAEF120409900439BF
:40398000E475F00112047080B7900430E0FF1251228008900434E4F0A3E4F0900434E0FEA3E0FF22900468EFF0900469ECF0A3EDF090046B1206A9126068EF6003023AB7E0
:4039C000900468E0FF90046B1206A090046EE0FCA3E0FD90047EECF0A3EDF01249A2900470EFF0900470E0FFEF64076003023AB2904722E0FFEF5402FF7E00EF4E70097F2C
:403A0000017E001260F480E8904722E0FFEF5402FF7E00EF4E600D904722E0FFEF1313543FFF80027FFFEF7007900470E4F0800690047074FFF0900470E0FFEF7074900401
:403A400068E0FF900469E0FCA3E0FD90051DE0FB90051EE0FE9004E0EEF0124C2E900470EFF0900470E0FFEF64077046904722E0FFEF5402FF7E00EF4E70097F017E001274
:403A800060F480E8904722E0FFEF5402FF7E00EF4E600D904722E0FFEF1313543FFF80027FFFEF7007900470E4F0800690047074FFF01265EF80069004707404F090047000
:403AC000E0FF2212666E900632EFF09043A5E0FFEF4401FFEFF09043B5E0FFEF4401FFEFF090609D7401F09060097402F0906010E0FFEF547FFFEFF07F007E001260F49093
:403B00004394E0FFEF54F9FFEFF0906012E0FFEF54DFFFEFF0904394E0FFEF4401FFEFF07F017E001260F47F287E001260F49051F8E0FFEF547FFFEFF09051F8E0FFEF543A
:403B4000BFFFEFF0904394E0FFEF4402FFEFF07F027E001260F4904394E0FFEF4404FFEFF0906084E4F0906085E4F0900632E0FF12653C7C5B7D7F7F171250207D067F17A0
:403B80001257177C5E7DFF7F151250207D067F151257177C337D297F181250207D067F181257177C557D1B7F061250207D067F061257177C557D827F071250207D067F07A1
:403BC0001257177C557DE97F081250207D067F08125717229003E2740CF01268999003E31206A99003D67420F0A3E4F07F007E00125EC69003DAEFF07F017E00125EC69083
:403C000003DBEFF07F027E00125EC69003DCEFF09003E31206A01203F0FF9003DDEFF09003E31206A0E92401F9EA3400FA1203F0FF9003DEEFF09003E31206A0E92402F9EC
:403C4000EA3400FA1203F0FF9003DFEFF09003E31206A0E92404F9EA3400FA1203F0FF9003E0EFF09003E31206A0E92407F9EA3400FA1203F0FF9003E1EFF09003E31206F9
:403C8000A0E92408F9EA3400FA12049CFFAEF09003D8EEF0A3EFF07B017A0379D6C003C002C0019005621206A09000031206A99003E2E0FF7E00900006EEF0A3EFF0D001FA
:403CC000D002D0031220649003E2E0FF7E00900563EE8FF01204701266A91268DC1266962290050B1206A990050EEDF01261F890050EE0FFEFC394804003023DDF12606856
:403D0000EF6003023DD790050F74FFF090050B1206A090047EE4F0A37410F07F401249A2EF64076003023DD2904722E0FFEF5402FF7E00EF4E60F1904722E0FFEF5402FFF1
:403D40007E00EF4E600D904722E0FFEF1313543FFF80027FFFEF700590050FE4F090050FE0FFEF706790050EE0FFEFFD7C0090051DE0FB90051EE0FF9004E0EFF07F40124A
:403D80004C2EEF6407703D90050F74FFF0904722E0FFEF5402FF7E00EF4E60F1904722E0FFEF5402FF7E00EF4E600D904722E0FFEF1313543FFF80027FFFEF701590050F78
:403DC000E4F0800E90050F74FFF0800690050F74FFF01265EF800E90050F7404F0800690050F7401F090050FE0FF2290059DE4F0906004E0FFEF547FFF90059BEFF090055B
:403E00009BE0FF7E00EF24FFFFEE34FFFEEFC4F8540FC868FFEEC454F048FE90059CEFF090059BE0FFEFD394005003023EDC90059BE0FFEFC394094003023EDC90059BE030
:403E4000FFEF75F00BA42449F582E43402F583E0FFEF4401FFEFF090059BE0FFEF75F00BA4244AF582E43402F583E4F090059BE0FFEF75F00BA42448F582E43402F583E015
:403E8000FFEF4402FFEFF090059BE0FFEF75F00BA4244BF582E43402F583E0FFEF5480FF7E00EF4E601890059CE0FF7E00EF240EFFEE3460FE8F828E83748DF08016900526
:403EC0009CE0FF7E00EF240EFFEE3460FE8F828E837489F01264F190059DEFF090059DE0FF229004E21206A99004E6E4F07B007A007900C003C002C0019004E21206A0D038
:403F000082D083D0E06B7008E965827003EA65837003023FD39004E21206A074221204099004E21206A0E92401F9EA3400FA74031204099004E57402F09004E5E0FFEFC3CE
:403F400094224003023FD39004E6E0FFE4FCFDFEEF2400FFEE3401FEED340CFDEC3400FCA907AA06AB051267EB9004E7EFF09004E6E004F09004E7E0FFEFC4540FFFEF907D
:403F80006E4E93FF9004E21206A09004E5E0FEE92EF9E43AFAEF1204099004E7E0FFEF540FFFEF906E4E93FF9004E5E0FEEEFD7C00ED2402FDEC3400FC9004E21206A0E97F
:403FC0002DF9EA3CFAEF1204099004E5E02404F0023F39229005A1E4F09005A2E4F0125EFB7D017F001261CF1268A0EF700612677FEF70F412673E12677FEF70030240BEC6
:40400000126581EF60F17B017A0579A27D011252939005A1EFF09005A2E0FFEF60D99005A1E0FFEF640260030240B69005A2E0FFEF1206BE404A014051024063034068045A
:4040400040A005408406000040AB7F0112626C80A6122CEFEF60051258E9809B7F0312626C8094125D4A808F7F0212626C124B90EFB402087F0212626C023FF77F03126269
:404080006C023FF77F0212626C1246B6EFB402087F0212626C023FF77F0312626C023FF7125F6F7F0212626C023FF77F0312626C023FF7023FF77F0312626C023FF71254C2
:4040C0004B1268B8229003FE12068874FFFFFEFDFC9003FEE0F8A3E0F9A3E0FAA3E0FBC312063960387F807E967D187C4B9003FEE0F8A3E0F9A3E0FAA3E0FB1202B860027E
:40410000501B7F807E967D187CCB9003FEE0F8A3E0F9A3E0FAA3E0FB1202B8500F9003FEE0FCA3E0FDA3E0FEA3E0FF229003FEE0FCA3E0FDA3E0FEA3E0FF12036F900402FE
:40414000120688900402E0FCA3E0FDA3E0FEA3E0FFEC120331C8ECC8C9EDC9CAEECACBEFCB9003FEE0FCA3E0FDA3E0FEA3E0FF12001DE4FBFAF9F81202B85025900402E0D6
:40418000FCA3E0FDA3E0FEA3E0FFE4FAF9F8EF2401FFEA3EFEE93DFDE83CFC900402120688900402E0FCA3E0FDA3E0FEA3E0FFEC1203312275930078007583467582E8E039
:4041C0004401F0009046ECE0F99046FAE0FAB903225420B40012B8001AEA901FFFF07401901FFEF09046F6F0901FFEE06005901FFFE0FA90480074C0F0758116900000787B
:40420000007920E4F0A3D8FCD9FAEA90040FF002001175151F7516FD12230E02425902617AE493A3F8E493A34003F68001F208DFF48029E493A3F85407240CC8C333C4547A
:404240000F4420C8834004F456800146F6DFE4800B0102040810204080904E88E47E019360BCA3FF543F30E509541FFEE493A360010ECF54C025E060A840B8E493A3FAE443
:4042800093A3F8E493A3C8C582C8CAC583CAF0A3C8C582C8CAC583CADFE9DEE780BE900640EFF09003ECE4F0900640E0FFEF64016003024381904E007430F0904E027406EC
:4042C000F0904E037408F0904E04E4F0904E05E4F0904E06741FF0904E08E4F0904E09E4F0904E0AE4F0904E147401F09058847414F09058857405F09058867416F090589B
:4043000087E4F090588A7444F090588B7448F090588C7401F090588E7401F090588F7411F09058907419F09058917497F07F521259979058947458F0905895E4F090589A02
:404340007405F090589B7402F090589CE4F090589DE4F07F001264057F337E037D007C009003F21206887D017F267E00122E8B7D017F9F7E001230207C607DF27F1D1250BE
:4043800020229003FEEEF0A3EFF0A37404F0A374A5F0900400E0FEA3E0F5828E83E0FEA3E0FF4E7003FEFF228F828E83A3A3E0FCA3E0FD9003FEE0FAA3E0FBC3ED9BEC9AD8
:4043C000500A900400EEF0A3EFF080C68F828E83A3A3E0FCA3E0C39BFDEC9AFC900402F0A3EDF0C39410EC940050178F828E83E0FCA3E0FD900400E0FAA3E0F5828A83EC52
:404400008045900403E024FCF0900402E034FFF0E0FDA3E08F828E83A3A3CDF0A3EDF0EF2404FFE43EFE900403E02FFF900402E03EFE900400F0A3EFF09003FEE0FDA3E00E
:404440008F828E83A3A3CDF0A3EDF0EF2404FFE43EFE2212666E9005D4EFF09003E6E0FF9005D3EFF09043AAE0FFEF4401FFEFF09043AAE0FFEF4410FFEFF09043BAE0FF1B
:40448000EF4401FFEFF09043BAE0FFEF4410FFEFF09046F8E0FFEF4402FFEFF09046F9E0FFEF4402FFEFF0905891E0FFEF4403FFEFF07F037E001260F49046F8E0FFEF541A
:4044C000FDFFEFF09046F9E0FFEF54FDFFEFF0905877E0FFEF4406FFEFF0905882747AF09043A1E0FFEF4401FFEFF09043B1E0FFEF4401FFEFF09043A2E0FFEF4401FFEF28
:40450000F09043B2E0FFEF4401FFEFF09044DB7420F09044C37420F09005D4E0FF12653C22900671E4F09002B5E0FF7E00900244EE8FF01204709002ACE0FEA3E0FFD3EF02
:404540009400EE94004053900671E0FFEFC3940850489002AE1206A01203F0FF900671E0FEEEFD7C00ED2400FDEC3460FC8D828C83EFF09002AE1206A0E92401F9EA3400DA
:40458000FA9002AE1206A9900671E004F09002AC74FF75F0FF120470809C9002B5E0FFEF6408600B900671E0FFEFD39400401C9002BEE0FFEF6480FF9002BEEFF0900243E5
:4045C000740FF09002BF7402F0800C9002437402F09002BF7402F0900671E0FF9002B5EFF0900671E0FF900246EFF0229003E67401F09003F1E4F07F101262D47F10126238
:40460000F57D077F1D1257179058967407F0905897E4F090589EE4F0905B07E0FFEF4418FFEFF0905893E4F0905B88E4F0905B89E4F0905880740AF0905881E4F0905883F9
:40464000E4F09058887412F09058897413F090588DE4F0904E017414F09003B8740CF09003B97401F07B007A807D6B7C8D7F0212253D9003E6E0FFEF75F003A424EDF58256
:40468000E43403F583E0FF904E0EEFF09003E6E0FFEF75F003A424EBF582E43403F583E0FCA3E0FD7B027A4E790C1267319003E6E0FF12429E229003A17403F07BFF7A6E18
:4046C0007961C003C002C0017B017A0379A2A801AC02AD03D001D002D0037E007F071207F1126581EF700612677FEF70F412677FEF70030247767B017A0379A27D0712523E
:4047000093EF640270709003A2E0FF7E00EF7F00FE9003B1EEF0A3EFF09003A3E0FF7E009003B1E0FCA3E0FDEE4CFEEF4DFF9003B1EEF0A3EFF09003A4E0FF9003A9EFF094
:404740009003A5E0FF9003AAEFF09003A6E0FF9003ABEFF09003A7E0FF9003ADEFF09003A8E0FF9003B0EFF07B017A0379A91265249003A1EFF09003A1E0FF2290063BE4AA
:40478000F0906000E0FFEF5480FF7E00EF64804E7033906001E0FFEF1206BE47A221000048399002ACE4F0A37407F07B017A04793D9002AE1206A912537590063BEFF0803B
:4047C0007880768074906000E0FFEF5480FF7E00EF4E7065906001E0FFEF1206BE47E720481422000048399002ACE4F0A37407F07B017A04793D9002AE1206A9900446E0C9
:40480000FFEF4401FF900446EFF012577690063BEFF08025906002E0FF7E00900447EEF0A3EFF0900446E0FFEF4402FF900446EFF01264F190063BEFF090063BE0FF2290B0
:404840000532EFF0900534E4F0A3E4F0900532E0FFEFD3940050030248EB900532E0FFEFC3940940030248EB900532E0FF7E00EF24FFFFEE34FFFEEFC4F8540FC868FFEE9E
:40488000C454F048FE900533EFF0900533E0FF7E00EF240CFFEE3460FE8F828E83E0FFEF540FFF7E00900534EEF0A3EFF0900533E0FF7E00EF240DFFEE3460FE8F828E8361
:4048C000E0FFEFFD7C00900534E0FEA3E0FFEF7F00FEEE4CFEEF4DFF900534EEF0A3EFF090053474FF75F0FE120470900534E0FEA3E0FF22900612E4F0906029E0FFEF5419
:404900000FFFEF24FEFF900611EFF0900611E0FF7E00900244EE8FF01204709002ACE0FEA3E0FFD3EF9400EE94004057900611E0FFEFD39400404C900612E0FF7E00EF2479
:4049400000FFEE3460FE8F828E83E0FF9002AE1206A0EF1204099002AE1206A0E92401F9EA3400FA9002AE1206A9900612E004F0900611E014F09002AC74FF75F0FF120467
:40498000708098900611E0FF900246EFF09002BEE0FFEF6480FF9002BEEFF0900243740BF02290047AEFF090047B1206A99004807407F0904722E0FFEF5402FF7E00EF4E89
:4049C000607D90472074B6F090472074D5F09047207402F0904722E0FFEF5402FF7E00EF4E705490047AE0FF904720EFF0900481E4F0A3E4F090047EE0FEA3E0FF900481F7
:404A0000E0FCA3E0FDC3ED9FEC9E503990047B1206A0900481E0FEA3E0FFE92FF9EA3EFA1203F0FF904720EFF0900481E475F00112047080C0800E9004807409F080069025
:404A400004807404F0900480E0FF229005297401F0906004E0FF90052AEFF0900242E0FFEF14FF12588E90052BEEF0A3EFF090052BE0FEA3E0FF8F828E83A31206B2E92418
:404A800004F9EA3400FA1203F0FF90052DEFF090052DE0FF90052AE0FEEEC39F500B90052AE0FFEFC394024007900529E4F0803890052AE0FF74AA2FF582E43402F583E008
:404AC000FF90052AE0FE74B92EF582E43402F583EFF0906002E0FF90052AE0FE74AA2EF582E43402F583EFF0900529E0FF2290054AEFF090054BEDF090054CEAF0A3EBF0C2
:404B000090054BE0FFEFC39403500B90054C74FF75F0FF12047090054CE0FEA3E0FF7C007D6412041BAC06AD0790054CE0FEA3E0FFEF7802CEC313CE13D8F9FFC3EF9DFB56
:404B4000EE9CFA90054CE0FEA3E0FF7C017D9012041BEF2BFFEE3AFE90054CE0FCA3E0FDEF2DFFEE3CFE90054BE0FDED906E4193FD7C0090054AE0FB7A00ED2BFDEC3AFC96
:404B8000EF2DFFEE3CFE7C007D0712041BAF05229004AD7403F07BFF7A6E795EC003C002C0017B017A0479AEA801AC02AD03D001D002D0037E007F031207F1126581EF7085
:404BC0000612677FEF70F412677FEF605B7B017A0479AE7D03125293EF6402704B9004AEE0FF9004B1EFF09004AFE0FF9004B2EFF09004B0E0FF9004B3EFF07B017A0479D2
:404C0000B1C003C002C0017B017A03796DA801AC02AD03D001D002D0037E007F031207F11229379004ADEFF09004ADE0FF229004DCEFF09004DDECF0A3EDF09004DFEBF0D9
:404C40009004E17407F0904722E0FFEF5402FF7E00EF4E606B90472074B6F090472074D8F09047207405F0904722E0FFEF5402FF7E00EF4E70429004DCE0FF904720EFF060
:404C80009004DDE0FEA3E0FFEEFF7E00904720EFF09004DDE0FEA3E0FFEF54FFFF904720EFF09004DFE0FF904720EFF09004E0E0FF904720EFF0800E9004E17409F08006B3
:404CC0009004E17404F09004E1E0FF229005C7EFF09005C8EDF09044C27480F09044C37401F09044C07440F09044C07480F09044C17401F09002BFE4F09005C8E0FFEF126A
:404D000006BE4D0C004D140100004D1C9060097402F0800E9060097403F080069060097403F09005C7E0FF9002C0EFF0900242E4F09002B4E4F09002B8E4F09002BBE4F0EB
:404D4000900241E4F09002B5E4F09060287403F09060087480F07F017E007D007C00125F009060127404F02290058C1206A912689290058C1206A01203F0FF900396EFF04F
:404D800090058C1206A0E92401F9EA3400FA1203F0FF900397EFF090058C1206A0E92402F9EA3400FA1203F0FF900398EFF090058C1206A0E92404F9EA3400FA1203F0FFE8
:404DC00090039AEFF090058C1206A0E92407F9EA3400FA1203F0FF90039DEFF090058C1206A0E92408F9EA3400FA12049CFFAEF090039EEEF0A3EFF012688B22900617E4FF
:404E0000F0900618E4F0906000E0FFEF5403FFEF1206BE4E1D014E290200004E47906004E0FF900618EFF0801E906004E0FFEF547FFFEF75F00BA42451F582E43402F5839A
:404E4000E0FF900618EFF0900618E0FF9002B6E0FCA3E0FD8D828C83E5822FF582E43583F583E493FFEF1206BE4E82014E7A024E820300004E82800A800812477C90061749
:404E8000EFF0900617E0FF22430562FF68EE44040B016E360044040600005DC041040A184404102EE0000041063A004103F1004103EC004103E7004103ED004103E6014188
:404EC0000394004A03960000000101000101076C4A03880000000101000101076C4103A00041039300410395004103920041065B0041065F004106630043051A0000004176
:404F0000066F00410676FF004804A50000000000000000906028E0FF900670EFF0900670E0FF906028EFF0906028E0FF900670EFF0900670E0FFEF5480FF7E00EF4E600BEE
:404F4000900670E0FF900243EFF0227F021256B5906000E0FFEF5460FFEF1206BE4F6A004F74204F7E4000004F88121405900670EFF08019124DFC900670EFF0800F125B3D
:404F8000D0900670EFF08005900670E4F0900670E0FFEF70069002437403F0229005D1EFF01261F89005D1E0FFEFC394025065126068EF70579005D1E0FD7F401253E1EF7C
:404FC0006407703D9005D274FFF0904722E0FFEF5402FF7E00EF4E60F1904722E0FFEF5402FF7E00EF4E600D904722E0FFEF1313543FFF80027FFFEF700D9005D2E4F080BD
:40500000069005D274FFF01265EF800E9005D27404F080069005D27401F09005D2E0FF229004F7EFF09004F8ECF0A3EDF09004F7E0FFEFD3941F5003D38001C340057F00C4
:405040001266059004F7E0FFEF541FFF7E00EF25E0FFEE33FEEF2400FFEE3444FEAA06A9077B011267229004FAEEF0A3EFF09004F7E0FF7E02EF8EF0A4FFAEF0EF2400FFD3
:40508000EE3444FEAA06A9077B019004F8E0FEA3E0FFAD07AC061267319004FAE0FEA3E0FF22904E14E0FFEF5403FF90058BEFF090058BE0FFEFD394015032904E11E0FFE9
:4050C0007E00900589EEF0A3EFF0900589E0FEA3E0FFEF7F00FE904E10E0FD7C00EE4CFEEF4DFF900589EEF0A3EFF0801F7B027A4E7910126722900589EEF0A3EFF0900577
:405100008BE0FFEFB40305904E12E0FF9003ECE0FFEF60059003F1E4F0900589E0FEA3E0FF229005C9EFF09005C9E0FFEFD39400406E9005C9E0FFEFC3940950639005C9C6
:40514000E0FF7E00EF24FFFFEE34FFFEEFC4F8540FC868FFEEC454F048FE9005CAEFF09005C9E0FFEF75F00BA42448F582E43402F583E4F09005C9E0FFEF75F00BA4244CB2
:40518000F582E43402F583E0FF9005CAE0FEEEFD7C00ED240EFDEC3460FC8D828C83EFF0229004FC1206A99004FFECF0A3EDF0900444E0FFEF75F00BA4244FF582E43402AE
:4051C000F583E0FEA3E0FF9004FFE0FCA3E0FDD3ED9FEC9E4025900444E0FFEF75F00BA4244FF582E43402F583E0FEA3E0FF9004FFEEF0A3EFF07F00126605900444E0FF5E
:405200009004FC1206A09004FFE0FCA3E0FD90044DECF0A3EDF0122B2222900242E0FFEF14FF12588E900598EEF0A3EFF0900598E0FEA3E0FF8F828E83A31206B2E9240412
:40524000F9EA3400FA1203F0FF90059AEFF090059AE0FF7E00EF2402FFEE3400FEEF7802C333CE33CED8F9FF900598E0FCA3E0FDEF2DFFEE3CFE900598EEF0A3EFF090055F
:4052800098E0FEA3E0FF8F828E83A31206B2AE02AF01229004951206A9900498EDF0900499E4F0A3E4F090049BE4F090049C7403F0125E53900499EEF0A3EFF0900498E084
:4052C000FF7E00900499E0FCA3E0FDEFB5051EEEB5041A9004951206A0900498E0FFEFFD7C001260C590049C7402F08014900499E0FEA3E0FFD3EF9400EE9400400312634E
:40530000CB90049CE0FF2290056BE4F090056CE4F090056D7403F090056BE0FFEF705012677FEF604A125E53EF4E700612677FEF70F37B017A05796B7D0112529390056C2B
:40534000EFF090056CE0FFEFB402CC90056BE0FFEFB4070A90056D7402F0801380B990056BE0FFEFB403B090056D7403F080A890056DE0FF229002ACE0FEA3E0FFEF4E7022
:405380000512631680589002BF7402F09002BEE4F0125C20906007E0FF7E00EF7F00FE906006E0FD7C00EE4CFEEF4DFF90060DEEF0A3EFF090060DE0FEA3E0FF9002ACE076
:4053C000FCA3E0FDD3ED9FEC9E401090060DE0FEA3E0FF9002ACEEF0A3EFF01245217F0122900592EFF0900593EDF09005947407F0904722E0FFEF5402FF7E00EF4E603F28
:4054000090472074B6F090472074DBF09047207408F0904722E0FFEF5402FF7E00EF4E7016900592E0FF904720EFF0900593E0FF904720EFF0800E9005947409F080069072
:4054400005947404F0900594E0FF22906008E0FFEF547FFFEFF0906012E0FFEF54FBFFEFF09043A5E0FFEF54FEFFEFF09043B5E0FFEF54FEFFEFF09044CA7480F09044CB70
:405480007401F09044C87440F09044C87480F09044C97401F0900242E4F09002B4E4F09002B8E4F09002BBE4F0900241E4F090063AE4F0221261F890066774FFF0126068B2
:4054C000EF704C7F01125833EF6407703D7B017A05791D7D02125650EFB4021F900667E4F0904722E0FFEF5402FF7E00EF4E701A7F017E001260F480E8800F904722E0FFEC
:40550000EF5402FF7E00EF4E60C31265EF80069006677404F0900667E0FF22C0E0C083C082C085C084C086758600C093759300C0D075D000C006C00790600EE0FF9002528D
:40554000E0FFEF5403FF7E00EF64014E600E900255E0FFEF6480FF900255EFF09002537401F090600BE0FFEF54FEFFEFF0D007D006D0D0D093D086D084D085D082D083D0B4
:40558000E032C0E0C083C082C085C084C086758600C093759300C0D075D000C006C00790601EE0FF90025DE0FFEF5403FF7E00EF64014E600E900260E0FFEF6480FF90026A
:4055C00060EFF090025E7401F090600BE0FFEF54FDFFEFF0D007D006D0D0D093D086D084D085D082D083D0E032C0E0C083C082C085C084C086758600C093759300C0D0759A
:40560000D000C006C00790602EE0FF900268E0FFEF5403FF7E00EF64014E600E90026BE0FFEF6480FF90026BEFF09002697401F090600BE0FFEF54FBFFEFF0D007D006D007
:40564000D0D093D086D084D085D082D083D0E0329005241206A9900527EDF0900528E4F0900527E0FF900528E0FEEEC39F5040904722E0FFEF5401FF7E00EF4E6003D3802B
:4056800001C340097F017E001260F480E2904720E0FF9005241206A0900528E0FEE92EF9E43AFAEF120409900528E004F080B1900528E0FF22900672EFF07B007A0079002A
:4056C000C003C002C0019002B11206A0D082D083D0E06B7008E965827003EA65836037900672E0FF9002B11206A0EF120409900244E0FEA3E0FF9002B11206A0E92401F95D
:40570000EA3400FAEE8FF01204C77B007A0079009002B11206A9229005BBEFF09005BCEDF09005BCE0FFEFD394075003D38001C340057F001266059005BBE0FFEFD3941F3A
:405740005003D38001C340057F001266059005BCE0FFEF5407FF7E00EF75F020A4FFAEF09005BBE0FEEE541FFE74802EF582E43444F583EFF0229002BF7404F09002BE745A
:4057800080F0125C20906007E0FF7E00EF7F00FE906006E0FD7C00EE4CFEEF4DFF90060FEEF0A3EFF090060FE0FEA3E0FF9002ACE0FCA3E0FDD3ED9FEC9E401090060FE007
:4057C000FEA3E0FF9002ACEEF0A3EFF0900243740BF07F012290054E1206A9900551E4F01261F87B007A007900C003C002C00190054E1206A0D082D083D0E06B7008E96507
:40580000827003EA658370089005517401F0801D126068EF60089005517404F0800F90054E1206A090051A1206A91265EF900551E0FF22900607EFF09006087407F090477F
:4058400022E0FFEF5402FF7E00EF4E603590472074B6F090472074E1F0904720740EF0904722E0FFEF5402FF7E00EF4E700C900607E0FF904720EFF0800E9006087409F09F
:4058800080069006087404F0900608E0FF22900595EFF09002C0E0FFEF25E025E024BEF582E4346DF5831206B2AE02AF01900596EEF0A3EFF0900596E0FEA3E0FF8F828E55
:4058C00083C083C082900595E0FFD082D08375F004EF120694E5822405F582E5833400F5831206B2AE02AF01229005A3E4F09005A4E4F012677FEF6049126581EF7006126F
:40590000677FEF70F47B017A0579A47D011252939005A3EFF09005A3E0FFEFB402D59005A4E0FFEFB4020F7BFF7A6879EE9005621206A92280BD9005A4E0FFEFB403B422BF
:4059400080B1227F017E00125EC6900622EFF07F027E00125EC6900573EFF0900622E0FFEF1206BE597400597B015982025989030000598E7F011266E080137F021266E002
:40598000800C7F041266E080057F081266E0900571E4F0A3E4F0229005DFEFF012666E9005E0EFF09046F8E0FFEF4403FFEFF09046F9E0FFEF4403FFEFF09005DFE0FF90B6
:4059C0005892EFF07F037E001260F49046F8E0FFEF54FCFFEFF09046F9E0FFEF54FCFFEFF09005E0E0FF12653C229005A5E4F0A3E4F01263E81261A59005A5EEF0A3EFF026
:405A00001268C47B017A0579A5C003C002C0019005621206A09000031206A9900006E4F0A37402F0D001D002D0031220641268C8900563E475F00212047022C0E0C0F0C00A
:405A400083C082C085C084C086758600C093759300C0D075D000C000C001C002C003C004C005C006C007123FD4D007D006D005D004D003D002D001D000D0D0D093D086D061
:405A800084D085D082D083D0F0D0E032C0E0C0F0C083C082C085C084C086758600C093759300C0D075D000C000C001C002C003C004C005C006C0071259EAD007D006D00504
:405AC000D004D003D002D001D000D0D0D093D086D084D085D082D083D0F0D0E032C0E0C0F0C083C082C085C084C086758600C093759300C0D075D000C000C001C002C0036E
:405B0000C004C005C006C007126803D007D006D005D004D003D002D001D000D0D0D093D086D084D085D082D083D0F0D0E032C0E0C0F0C083C082C085C084C086758600C08E
:405B400093759300C0D075D000C000C001C002C003C004C005C006C007123BD4D007D006D005D004D003D002D001D000D0D0D093D086D084D085D082D083D0F0D0E032C0D3
:405B8000E0C0F0C083C082C085C084C086758600C093759300C0D075D000C000C001C002C003C004C005C006C007126038D007D006D005D004D003D002D001D000D0D0D004
:405BC00093D086D084D085D082D083D0F0D0E03290067FE4F0906000E0FFEF5480FF7E00EF64804E7034906001E0FFEF1206BE5BF60100005C1A7BFF7A6D79D39002AE12B3
:405C000006A9906DD3E493FF7E009002ACEEF0A3EFF012537590067FEFF090067FE0FF22900244E4F0A3E4F07B007A007900C003C002C0019002B11206A0D082D083D0E04A
:405C40006B7008E965827003EA6583601F9002B11206A0E41204099002B11206A0E92401F9EA3400FAE475F0001204C72290058FEFF012666E900590EFF0900308E0FF9056
:405C80004390E0FEEF4EFF900308EFF0900308E0FF900591EFF0900308E0FF90058FE0FEEEF4FEEF5EFF900308EFF0900590E0FF12653C900591E0FF22900666EFF090068D
:405CC00066E0FFEFC394025039900666E0FFEF25E024FBF582E4346DF583E493FE740193FF8F828E83C083C082E0FF900666E0FEEE906DFF93FEEEF4FEEF5EFFD082D08304
:405D0000EFF022900665EFF0900665E0FFEFC394025036900665E0FFEF25E024FBF582E4346DF583E493FE740193FF8F828E83C083C082E0FF900665E0FEEE906DFF93FE29
:405D4000EF4EFFD082D083EFF0227F007E00125EC6900565EFF07F017E00125EC6900566EFF07F027E00125EC6900567EFF0126597EF700612677FEF70F412677FEF600D05
:405D80007B017A0579657D037C001251A122C2D5E830E70FB2D5E4C39BFBE49AFAE499F9E498F8EC30E717B2D5125DC412058CE4C39BFBE49AFAE499F9E498F8800312056D
:405DC0008C30D50DE4C39FFFE49EFEE49DFDE49CFC227B0C7A0179CF1267EB900664EFF0900664E0FFEF5407FF90586EEFF0900664E0FFEFC4540FFFEF540FFF90586FEFC1
:405E0000F090510D7480F0905B007480F09058767444F0229005D9EFF09003ECE0FFEF600C9003F1E0FF9005DAEFF0800E904E01E0FFEF5401FF9005DAEFF09005DAE0FFC7
:405E4000EF640160089005D9E0FFEF60CC9005DAE0FF229005CFE4F0A3E4F0900445E0FFEF75F00BA42448F582E43402F583E0FFEFB40110900445E0FF12483F9005CFEE79
:405E8000F0A3EFF09005CFE0FEA3E0FF229005681206A9126597EF700612677FEF70F49005681206A07D407C001251A1126597EF700612677FEF70F49005681206A07D002C
:405EC0007C001251A12290056EEEF0A3EFF0900570740AF01268BC90056EE0FEA3E0FFEF2400FFEE3480FE8F828E83E0FF900570EFF01268C0900570E0FF221266442232AA
:405F0000EC4D4E700D78FCEF24E950032840FD2200007BF178DA0000EF28FF78FFEE38FEED38FDEC38FC50E7EF2BFFEE38FEED38FDEC38FC40F22205020304758600EF4E12
:405F40006027EF60010E7593009003FBE0F595A3E0F585A3E0F5848B938A838982E0A30586F0A31586DFF6DEF4E4F593F59522900621E4F07B017A067921C003C002C001AB
:405F80007BFF7A6879ED9000031206A9900006E4F0A37401F0D001D002D003122064126773227FF37E011264557FF37E0112646F12666E900658EFF0906492E0FFEF441052
:405FC000FFEFF0900658E0FF12653C12674C7F001266F0227FF37E011264897FF37E011264A312666E90065CEFF0906497E0FFEF4410FFEFF090065CE0FF12653C126759E3
:406000007F00126700227FF37E011264BD7FF37E011264D712666E900660EFF0906495E0FFEF4410FFEFF0900660E0FF12653C1267667F00126710229002BFE4F090024216
:40604000E4F09002B4E4F09002B8E4F09002BBE4F0900241E4F09002B5E4F09060287403F09060087480F0229006097404F012666E90060AEFF090066FE0FFEF700B900664
:406080006F7401F0900609E4F090060AE0FF12653C900609E0FF229002BFE0FFEF1206BE60C40060B10260B50460B906000060C4221262B3221248F4227F031256B5900233
:4060C000437403F0229005061206A9900509ECF0A3EDF0900445E0FF9005061206A0900509E0FCA3E0FD900434ECF0A3EDF0123879223232EEFA90040AE0F88FF0A4FFAEDE
:40610000F0E88AF0A42EFEE5F03400FDEF24C9FF78FFEE38FEED38FDE438FC5003025F0022ACEAADA08B938A838982E0F96017A3E0F5EAA3E0F5A0A3E060F4FAA3E0F8A3DF
:40614000E0F2DAF8D9E98DA08CEAE4F593229002BBE0FFEF60139002BBE0FFEF4480FF906008EFF09002BBE4F09002BFE4F07F011256B59002437403F0221259439068ED71
:40618000E493FFEF6003125F6F1268D012661AD2AF9044F474FDF01266831266BC80FEE47E007F0022904E01E0FFEF4404FFEFF012678B7F00125E141250A29005E1EEF0CF
:4061C000A3EFF01267979005E1E0FEA3E0FF229005C5EFF09005C6EDF090063AE0FFEF7009123AC390063A7401F09005C5E0FF9005C6E0FD124CCC2212666E90066CEFF0C5
:406200009043A0E0FFEF4408FFEFF09043B0E0FFEF4408FFEFF090066CE0FF12653C22900673E4F0900673E0FFEFC394025010900673E0FF125CB9900673E004F080E59074
:40624000067674FFF0229002BFE0FFEF1206BE626B006260026264046268060000626B221268E0221266CF2212614E2290061FEFF0126597EF700612677FEF70F412677FFC
:40628000EF600D7B017A06791F7D017C001251A12212666E900649EFF0904382E0FFEF4430FFEFF0900649E0FF12653C9044C07420F0229002B5E0FF7E00900244EE8FF023
:4062C0001204709002BFE4F07F011256B59002437403F022900678EFF0904082C083C082E0FF900678E0FEEE54F8FEEF4EFFD082D083EFF02290067BEFF0904102C083C089
:4063000082E0FF90067BE0FEEE54F8FEEF4EFFD082D083EFF0229002BF7402F09002BE7480F0900243740FF09002B5E4F0900246E4F07F01229005C3EEF0A3EFF07B027AA8
:406340004479089005C3E0FEA3E0FFAD07AC06126731229005E5EEF0A3EFF07B027A4479069005E5E0FEA3E0FFAD07AC06126731229005E9EEF0A3EFF07B027A44790490A8
:4063800005E9E0FEA3E0FFAD07AC06126731229005EDEEF0A3EFF07B027A4479029005EDE0FEA3E0FFAD07AC06126731221254B4900668EFF0900668E0FFEF70081254B45C
:4063C000900668EFF0900668E0FF22900445E0FF7B017A06793C900434E4F0A37401F012387990063CE0FF229003E7E0FFEF70119003EDE0FFEF70031245EC9003E7740162
:40640000F012445322900674EFF012621F900674E0FF125D03900674E0FF900676EFF0229002C0E0FFEF25E025E024BEF582E4346DF5831206B2AE02AF0122121C8790447F
:40644000C87420F07C087D177F051250207D077F05125717229005F7EEF0A3EFF07B027A6479229005F7E0FCA3E0FD126731229005F9EEF0A3EFF07B027A6479029005F920
:40648000E0FCA3E0FD126731229005FBEEF0A3EFF07B027A6479269005FBE0FCA3E0FD126731229005FDEEF0A3EFF07B027A6479069005FDE0FCA3E0FD126731229005FFF8
:4064C000EEF0A3EFF07B027A6479249005FFE0FCA3E0FD12673122900601EEF0A3EFF07B027A647904900601E0FCA3E0FD126731229002BF7406F09002437406F09002BEB0
:406500007480F0900246E4F07F0122EC4D6011ED60010C8B938A838982E4F0A3DDFCDCFA759300229005741206A91268929005741206A0124D6812688B7F0222EF540160F5
:4065400004D2AF8002C2AFEF5402FF9044F4E054FD4FF0229043ACE0FFEF4410FFEFF09043BCE0FFEF4410FFEFF022900630EFF0900630E0FFEFC43354E0FF904484EFF03B
:4065800022900445E0FFEF75F00BA42448F582E43402F583E0FF22900444E0FFEF75F00BA42448F582E43402F583E0FF22900642EFF0900642E0FFEFC43354E0FF9044837A
:4065C000EFF022900644EFF0900644E0FFEFC43354E0FF904482EFF022900646EFF0900646E0FFEFC43354E0FF904481EFF02212666E90066EEFF090066FE4F090066EE04D
:40660000FF12653C2290FFFF1206E4EFF09046EA7401F09000011206E422900394E0FFEF700912643B9003947401F01262912290065BE0FFEF7009125FA290065B7401F0D6
:406640001267A32290065FE0FFEF7009125FD490065F7401F01267BB22900663E0FFEF70091260069006637401F01267D3229044F4E0F84402F0E85402FF10AF01227401BD
:406680004FFF2212685A7E5A7F3B1263357F0712656B126853221268687E5A7F8C1263537F071265AD126861221268767E5A7FDD1263717F071265C312686F221268847E7E
:4066C0005B7F2E12638F7F071265D912687D229002BFE4F07F011256B59002437403F022900656EFF0900656E0FF900395EFF022900659EFF0900659E0FF906482EFF022AD
:4067000090065DEFF090065DE0FF906487EFF022900661EFF0900661E0FF906485EFF0228B938A838982E0FFA3E0FE759300228B938A838982EDF0A3ECF075930022900403
:4067400046E4F0900445E0FF125122221268A6EF30E30512680D80F4221268ACEF30E30512681780F4221268B2EF30E30512682180F4229046F6E0FFEF4401FFEFF0229035
:406780005161E0FFEF5401FF7E0022904E00E0FFEF4401FFEFF022904E00E0FFEF54FEFFEFF022906472E0FFEF4480FFEFF022906472E0FFEF547FFFEFF022906477E0FF2D
:4067C000EF4480FFEFF022906477E0FFEF547FFFEFF022906475E0FFEF4480FFEFF022906475E0FFEF547FFFEFF0228B938A838982E0759300FF228B938A838982EDF0750E
:406800009300221266BC1268D81268D4227B027A647942126722227B027A647946126722227B027A647944126722227B027A40798012672222904082E0FFEF5407FF227B2A
:40684000027A41790012672222904102E0FFEF5407FF229044C07410F0229044C87410F0229044C07408F0229044C87408F0229044C07404F0229044C87404F0229044C088
:406880007402F0229044C87402F0229044C07420F0229044C87420F0227B017A03799622900242E0FF22906462E0FF22906467E0FF22906465E0FF221267C72212662F2279
:4068C0001267AF22126659221267DF22126554221268CC2212686822126876221268842212452122323222222222222222000000000000000000000000000000000000006A
:406900000000000000000000000000000000000000000000000000000000000000000000000000000000000000000000000000000000000000000000000000000000000057
:406940000000000000000000000000000000000000000000000000000000000000000000000000000000000000000000000000000000000000000000000000000000000017
:4069800000000000000000000000000000000000000000000000000000000000000000000000000000000000000000000000000000000000000000000000000000000000D7
:4069C0000000000000000000000000000000000000000000000000000000000000000000000000000000000000000000000000000000000000000000000000000000000097
:406A00000000000000000000000000000000000000000000000000000000000000000000000000000000000000000000000000000000000000000000000000000000000056
:406A40000000000000000000000000000000000000000000000000000000000000000000000000000000000000000000000000000000000000000000000000000000000016
:406A800000000000000000000000000000000000000000000000000000000000000000000000000000000000000000000000000000000000000000000000000000000000D6
:406AC0000000000000000000000000000000000000000000000000000000000000000000000000000000000000000000000000000000000000000000000000000000000096
:406B00000000000000000000000000000000000000000000000000000000000000000000000000000000000000000000000000000000000000000000000000000000000055
:406B40000000000000000000000000000000000000000000000000000000000000000000000000000000000000000000000000000000000000000000000000000000000015
:406B800000000000000000000000000000000000000000000000000000000000000000000000000000000000000000000000000000000000000000000000000000000000D5
:406BC0000000000000000000000000000000000000000000000000000000000000000000000000000000000000000000000000000000000000000000000000000000000095
:406C00000000000000000000000000000000000000000000000000000000000000000000000000000000000000000000000000000000000000000000000000000000000054
:406C40000000000000000000000000000000000000000000000000000000000000000000000000000000000000000000000000000000000000000000000000000000000014
:406C800000000000000000000000000000000000000000000000000000000000000000000000000000000000000000000000000000000000000000000000000000000000D4
:406CC000000000000000000000000000000000000000000000000000000000000000000000000000000000000000000000001201000202000008B40432F201000102800114
:406D000009024300020101C032090400000102020100052400100104240202052406000105240100010705810308000A09040100020A0000000705820240000A0705030294
:406D400040000A04030904180345007200650062007500730020004C0061006200730028035300540045004D002000530065006E0073006F00720020005200650076002027
:406D80000030002E003100000203000081030008020100820200400A0100030200400A020A01FF6D0003FF6D8A000000000000000000FF6D9F01FF6CEE01FF6DA101FF6D40
:406DC000B512034D005300460054003100300030000100280000000001040001000000000000000001435955534200000030303030310000000000000000005B0343244052
:406E000000005110002000514000200051C000100100000680010700090001140008000140000A00014C00020001500000200106800805BC00801F1C1F1E1F1E1F1F1E1F3F
:406E40001E1F000302050003050104060204303132333435363738394142434445460000000000000000000000000000000000000000000000000000000000000000000010
:406E800000000000000000000000000000000000000000000000000000000000000000000000000000000000000000000000000000000000000000000000000000000000D2
:406EC0000000000000000000000000000000000000000000000000000000000000000000000000000000000000000000000000000000000000000000000000000000000092
:406F00000000000000000000000000000000000000000000000000000000000000000000000000000000000000000000000000000000000000000000000000000000000051
:406F40000000000000000000000000000000000000000000000000000000000000000000000000000000000000000000000000000000000000000000000000000000000011
:0200000480007A
:40000000220045017E02005205000201011C0334037C60006403820D850D870D0101028B10E22001024C0201120217021E012F0130013102320237013A083B82404149FF28
:400040004AFF4BFF4F01501852805401580459045A045B045C115D115F016040624064406540668068806A806C806E8087029A019C019E029F01AE04AF01B001B101B302C5
:40008000B402B604BF01C041C5ECC602C807C9FFCAFFCBFFCD83CE03CF01D018D608D80BD908DA04DB04DC99DD91DF01E040E240E440E540E680E880EA80EC80EE800103D0
:4000C0003606800A050D800E80100118801A051E801F0820402104250127022A402F0131803504380441804280458046404B0551805B805C405F05628076C07A807B01831E
:400100000284048B088F029004948097209801A840B001B404C010C293C401CA18CC48CE02D099D6D8D808DE09E220E64001044F0501060407060D020F0117081A011C012B
:400140001E022F083001310433083402350336043F04405349FF4AFF4BFF4F0150185608580A59085A045B045C995D915F016040624064406540668068806A806C806E8038
:40018000860192029602A201AB01AF01B001B202B701BF40C053C5ECC702C813C9FFCAFFCBFFCD83CE03CF01D018D280D401D804D904DA04DB04DC01DD11DF01E040E2404B
:4001C000E440E540E680E880EA80EC80EE8001053B000404080A050C020D0816801A051B021D041F012048220826402A802C022F083008384039084308450848024C024D99
:40020000044F01550857085A105B805D045E805F0160086302740278087B018248910897229D049F80A404A703B501C024C233C410CA38CC02CE0AD042D218D6DCD80CDEE2
:400240000AE220E440EA10010612404649FF4AFF4BFF4F0150185A045D015F016040624064406540668068806A806C806E800107350044020408810A040B101040121B181B
:400280004019201A841B202201238028912A142B01304031083209332038443A013B1042804680480849054C04500C59055A40728079019240940897209E809F80A408B4D2
