:400000000251BB008F828E83E0540100000070F82278FFE4F6D8FD0252190203DBE86480F8E933E83360110460F0ED33EC337009E8FCE9FDEAFEEBFF220460DED3EB9FEA9F
:400040009EE99DE8C2E78CF0C2F795F0400CE8CCF8E9CDF9EACEFAEBCFFB1203A685D0F05804700320D5B3E80470075002B2D50203E592D5EC0460F7E4CCC0E0C398F860B5
:400080003B94186008400DD0E0FB0203BDE4FBFAC9FC8028E830E406E4C9FBE4CAFCE830E305E4C9CACBFCE854076010F8C3E913F9EA13FAEB13FBEC13FCD8F130F52FC331
:4000C000E49CFCEF9BFFEE9AFEED99FDD0E0FBEF4E4D4C701222DB030203E2EC2CFCEF33FFEE33FEED33FDED30E7EB0203BDEF2BFFEE3AFEED39FDD0E0FB50130BBB0003AD
:400100000203E5ED13FDEE13FEEF13FFEC13FC0203BDEC4D6011E8497017ED33EC3304600DE4FCFFFEFD22E933E8330470F80203DB1203A658046009E4CC248150062850E7
:40014000090203E52840030203E2C0E0EB4A7044B98006D0E0FB0203D1EF4E701CBD8008EBFFEAFEE9FD80EBE98DF0A4FEE5F00201FBE9CDF9EAFEEBFFEF89F0A4FCE5F087
:40018000CE89F0A42EFFE435F0CD89F0A42DFEE435F08067EF4E7005BD80D780C3EF8BF0A4ACF0EE8BF0A42CFCE435F0F8EF8AF0A42CE5F038FCE433CB8DF0A42CFCE5F0EE
:4001C0003BF8EE8AF0A42CFCE5F038F8E433CF89F0A42CFCE5F038CF3400CE89F0A42FFFE5F03EFEE433C98DF0A42EFEE5F039CD8AF0A42FFFE5F03EFEE43DFD33D0E0FBCD
:4002000050070BBB000F0203E5EC2CFCEF33FFEE33FEED33FD0203BD0203E5EC5D046005E8590470030203DB1203A6580460F6EC4860F2EC7004FDFEFF22C860DB2481C862
:400240005009C398600250060203E29850CAF582E9294B4A7005AB820203D175F0007C1A7880C3EF9BEE9AED99400DC3EF9BFFEE9AFEED99FDE842F0DC23ACF0D0E0FFD0BF
:40028000E0FED0E0FDAB8220E7101BEB60BAEC2CFCEF33FFEE33FEED33FD0203BDE803F830E705C0F075F000EF2FFFEE33FEED33FD40B830E7C280AA74F8CC6480CCC864A0
:4002C00080C8F58204604FC3EB9FF5F0EA9E42F0E99D42F0E89C45F0603C501DE5825FFFE582D313CB5BCBF42B5582FB50280ABA002409B9002008801DE5825BFBE582D354
:4003000013CF5FCFF4C3132F5582FF50090EBE00050DBD00010CC3EB9FF5F0EA9E42F0E99D42F0E89C45F06007CC4820E701B3EC2275F020800E75F010800575F0087D0045
:400340007E007F003392D530D503120615EC334010EF33FFEE33FEED33FDEC33FCD5F0ED22E5F0247EA2D513CC92E7CDCEFF22EDD2E7CD33EC3392D524814006E4FFFEFDFF
:40038000FC22FCE4CFCECDCC24E0501174FF80EDC3CC13CCCD13CDCE13CECF13CF0470F030D5DE020615E9D2E7C933E833F892D5EDD2E7CD33EC33FC5002B2D522EC30E70E
:4003C000100FBF000C0EBE00080DBD00040BEB6014A2D5EB13FCED92E7FD2274FFFCFDFEFF22E480F8A2D574FF13FC7D80E480EFBB010689828A83E0225002E722BBFE02EF
:40040000E32289828A83E49322BB010689828A83F0225002F722BBFE01F322BC000BBE0029EF8DF084FFADF022E4CCF875F008EF2FFFEE33FEEC33FCEE9DEC984005FCEEDA
:400440009DFE0FD5F0E9E4CEFD22EDF8F5F0EE8420D21CFEADF075F008EF2FFFED33FD4007985006D5F0F222C398FD0FD5F0EA22C5F0F8A3E028F0C5F0F8E582158270021C
:400480001583E038F022BB010A89828A83E0F5F0A3E022500687F009E71922BBFE07E3F5F009E3192289828A83E493F5F074019322BB010A89828A83F0E5F0A3F02250063F
:4004C000F709A7F01922BBFE06F3E5F009F31922EF2BFFEE3AFEED39FDEC38FC22C3EF9BFFEE9AFEED99FDEC98FC22E88FF0A4CC8BF0A42CFCE98EF0A42CFC8AF0EDA42C49
:40050000FCEA8EF0A4CDA8F08BF0A42DCC3825F0FDE98FF0A42CCD35F0FCEB8EF0A4FEA9F0EB8FF0A4CFC5F02ECD39FEE43CFCEAA42DCE35F0FDE43CFC2275F008758200F5
:40054000EF2FFFEE33FECD33CDCC33CCC58233C5829BED9AEC99E58298400CF582EE9BFEED9AFDEC99FC0FD5F0D6E4CEFBE4CDFAE4CCF9A88222B800C1B90059BA002DEC9C
:400580008BF084CFCECDFCE5F0CBF97818EF2FFFEE33FEED33FDEC33FCEB33FB10D703994004EB99FB0FD8E5E4F9FA227818EF2FFFEE33FEED33FDEC33FCC933C910D70560
:4005C0009BE99A4007EC9BFCE99AF90FD8E0E4C9FAE4CCFB2275F010EF2FFFEE33FEED33FDCC33CCC833C810D7079BEC9AE899400AED9BFDEC9AFCE899F80FD5F0DAE4CD47
:40060000FBE4CCFAE4C8F922EF4BFFEE4AFEED49FDEC48FC22C3E49FFFE49EFEE49DFDE49CFC22EB9FF5F0EA9E42F0E99D42F0E89C45F022E8600FECC313FCED13FDEE13AA
:40064000FEEF13FFD8F122E8600FEFC333FFEE33FEED33FDEC33FCD8F122E0FCA3E0FDA3E0FEA3E0FF22E0F8A3E0F9A3E0FAA3E0FB22ECF0A3EDF0A3EEF0A3EFF022A425D7
:4006800082F582E5F03583F58322E0FBA3E0FAA3E0F922EBF0A3EAF0A3E9F022E493FB740193FA740293F922D083D082F8E4937012740193700DA3A393F8740193F58288A3
:4006C00083E4737402936860EFA3A3A380DFE50C2582F582E50B3583F583B50B0485820C2210AF0685820CF50B2285820CF50BD2AF22EC8EF0A4CCC5F0CCCDF8EFA4CEC5FA
:40070000F02DFDE43CFCE8A42EC8C5F03DFDE43CFCEFA4FFE5F028FEE43DFDE43CFC22E709F608DFFA8046E709F208DFFA803E88828C83E709F0A3DFFA8032E309F608DF0F
:40074000FA806EE309F208DFFA806688828C83E309F0A3DFFA805A89828A83E0A3F608DFFA804E89828A83E0A3F208DFFA804280D280FA80C680D4805580F28029801080CB
:40078000A680EA809A80A880DA80E280CA802988848C8589828A83E493A30586F0A30586DFF5DEF3800B89828A83E493A3F608DFF9ECFAA9F0EDFB2288848C8589828A834A
:4007C000E0A30586F0A30586DFF6DEF480E389828A83E493A3F208DFF980D688F0EF60010E4E60CD88F0ED2402B4040050C3F582EB2402B4040050B9232345822390076F43
:4008000073C0E0C0F0C083C082C085C084C086758600C093759300C0D075D000C000C001C002C003C004C005C006C0077F0412761F900393E004F0900393E0FFEFD3943BA0
:400840005003020DFB900394E004F0900393E4F0900394E0FFEFD3943B5003020D54900395E004F0900394E4F0900395E0FFEFD394175003020C84900397E004F090039563
:40088000E4F0900398E475F001120470900396E004F0900396E0FFEFD3940740069003967401F090038FE0FFEF5402FF7E00EF4E602C90039AE0FFEFB4022390039AE0FFC7
:4008C000EF90EE5F93FF7E00EF2401FFEE3400FE900397E0FD7C00D3ED9FEC9E505890038FE0FFEF5402FF7E00EF4E601F90039AE0FFEF6402601590039AE0FFEF90EE5FA8
:4009000093FF900397E0FEEED39F502A90038FE0FFEF5402FF7E00EF4E6003020B2190039AE0FFEF90EE5F93FF900397E0FEEED39F5003020B2190039AE004F090039774C0
:4009400001F090039AE0FFEFD3940C5003020A7A90039BE475F00112047090039A7401F0900398E4F0A37401F090039BE0FEA3E0FF7C017D9012041BED4C602590039BE093
:40098000FEA3E0FF7E00EF5403FFEF4E701790039BE0FEA3E0FF7C007D6412041BED4C60047F0180027F00EFB4011090038FE0FFEF4402FF90038FEFF0800E90038FE0FF7D
:4009C000EF54FDFF90038FEFF090039DE0FFEF5480FF7E00EF64804E70047F0180027F00EF603690039BE0FEA3E0FF90038DE0FCA3E0FDEDB50714ECB50610900390E0FF4D
:400A0000EF4480FF900390EFF0800E900390E0FFEF547FFF900390EFF090039DE0FF90068AEFF090068AE0FFEF603290068AE0FF900390E0FEEE5FFF90068AE0FEEFB5062D
:400A4000047F0180027F00EF601390038FE0FFEF4408FF90038FEFF0900390E4F0900392E0FFEF5440FF7E00EF64404E70047F0180027F00EF60031284B690039DE0FFEFE6
:400A80005440FF7E00EF64404E70047F0180027F00EF602C90039AE0FF90038CE0FEEEB50710900390E0FFEF4440FF900390EFF0800E900390E0FFEF54BFFF900390EFF008
:400AC00090039DE0FF90068AEFF090068AE0FFEF603290068AE0FF900390E0FEEE5FFF90068AE0FEEFB506047F0180027F00EF601390038FE0FFEF4408FF90038FEFF090C1
:400B00000390E4F0900392E0FFEF5420FF7E00EF64204E70047F0180027F00EF60031284B590039DE0FFEF5408FF7E00EF64084E70047F0180027F00EF602C900396E0FF1F
:400B4000900388E0FEEEB50710900390E0FFEF4408FF900390EFF0800E900390E0FFEF54F7FF900390EFF090039DE0FFEF5420FF7E00EF64204E70047F0180027F00EF60C5
:400B800036900398E0FEA3E0FF90038AE0FCA3E0FDEDB50714ECB50610900390E0FFEF4420FF900390EFF0800E900390E0FFEF54DFFF900390EFF090039DE0FFEF5410FF1D
:400BC0007E00EF64104E70047F0180027F00EF602C900397E0FF900389E0FEEEB50710900390E0FFEF4410FF900390EFF0800E900390E0FFEF54EFFF900390EFF090039D60
:400C0000E0FF90068AEFF090068AE0FFEF603290068AE0FF900390E0FEEE5FFF90068AE0FEEFB506047F0180027F00EF601390038FE0FFEF4408FF90038FEFF0900390E438
:400C4000F0900392E0FFEF5408FF7E00EF64084E70047F0180027F00EF6003127A9B900396E0FFEFB4011D900392E0FFEF5410FF7E00EF64104E70047F0180027F00EF600F
:400C8000031284B4900395E0FFEFC3940C501090038FE0FFEF54FBFF90038FEFF0800E90038FE0FFEF4404FF90038FEFF090039DE0FFEF5404FF7E00EF64044E70047F01BD
:400CC00080027F00EF602C900395E0FF900387E0FEEEB50710900390E0FFEF4404FF900390EFF0800E900390E0FFEF54FBFF900390EFF090039DE0FF90068AEFF090068A88
:400D0000E0FFEF603290068AE0FF900390E0FEEE5FFF90068AE0FEEFB506047F0180027F00EF601390038FE0FFEF4408FF90038FEFF0900390E4F0900392E0FFEF5404FFFB
:400D40007E00EF64044E70047F0180027F00EF6003127A6B90039DE0FFEF5402FF7E00EF64024E70047F0180027F00EF602C900394E0FF900386E0FEEEB50710900390E074
:400D8000FFEF4402FF900390EFF0800E900390E0FFEF54FDFF900390EFF090039DE0FF90068AEFF090068AE0FFEF603290068AE0FF900390E0FEEE5FFF90068AE0FEEFB5B1
:400DC00006047F0180027F00EF601390038FE0FFEF4408FF90038FEFF0900390E4F0900392E0FFEF5402FF7E00EF64024E70047F0180027F00EF600312743E90039DE0FF50
:400E0000EF5401FF7E00EF64014E70047F0180027F00EF602C900393E0FF900385E0FEEEB50710900390E0FFEF4401FF900390EFF0800E900390E0FFEF54FEFF900390EF11
:400E4000F090039DE0FF90068AEFF090068AE0FFEF603290068AE0FF900390E0FEEE5FFF90068AE0FEEFB506047F0180027F00EF601390038FE0FFEF4408FF90038FEFF0DD
:400E8000900390E4F0900392E0FFEF5401FF7E00EF64014E70047F0180027F00EF600312712AD007D006D005D004D003D002D001D000D0D0D093D086D084D085D082D0839D
:400EC000D0F0D0E032900428EFF0900430E4F0A3E4F0900429E4F0900429E0FFEFC394094003020F84900429E0FFEF75F00BA42447F582E43402F583E4F0900429E0FFEFE0
:400F000075F00BA42449F582E43402F583E4F0900429E0FFEF75F00BA42448F582E43402F583E4F0900429E0FFEF75F00BA4244AF582E43402F583E4F0900429E0FFEF7581
:400F4000F00BA4244CF582E43402F583E4F0900429E0FFEF75F00BA4244FF582E43402F583E4F0A3E4F0900429E0FFEF75F00BA42451F582E43402F583E4F0900429E0048D
:400F8000F0020ED7900428E0FFEF603A90042BE4F090042BE0FFEFC39402502A90042BE0FF74AA2FF582E43402F583E4F090042BE0FF74B92FF582E43402F583E4F0900410
:400FC0002BE004F080CB900242E0FFEFD3940050030213EE900242E0FFEF14FF127297900432EEF0A3EFF0900432E0FEA3E0FF8F828E83A312069C90042D12069390042D86
:4010000012068AE92407F9EA3400FA1203F0FFEF5440FF7E00EF4E6010900241E0FFEF4401FF900241EFF0800E900241E0FFEF54FEFF900241EFF0900432E0FEA3E0FFEF5A
:401040002404FFEE3400FE900432EEF0A3EFF0900432E0FEA3E0FF8F828E83E493FF900429EFF090042B7401F090042BE0FFEFC394094003021303900432E0FEA3E0FF8F88
:40108000828E83A312069CAE02AF01900434EEF0A3EFF090042AE4F0900429E0FF90042AE0FEEEC39F40030212FA900434E0FEA3E0FF8F828E83740293FFEF547FFF7E00C2
:4010C00090042BE0FD7C00ED6F7002EC6E60030212D9900434E0FEA3E0FF8F828E83740493FE740593FF90042BE0FDED75F00BA4244FF582E43402F583E0FCA3E0FDC3EDDD
:401100009FEC9E502C900434E0FEA3E0FF8F828E83740493FE740593FF90042BE0FDED75F00BA4244FF582E43402F583EEF0A3EFF0900434E0FEA3E0FF8F828E83E493FF73
:4011400074AA2FF582E43402F583E0FF900434E0FCA3E0FD8D828C83740193FEEF6E60030212D9900434E0FEA3E0FF8F828E83740393FFEF5403FF90042CEFF0900434E066
:40118000FEA3E0FF8F828E83740293FFEF5480FF7E00EF4E700302121990042BE0FFEF75F00BA42448F582E43402F5837401F090042CE0FFEFB401047F0780027F0D90047E
:4011C0002BE0FEEE75F00BA4244CF582E43402F583EFF0900434E0FEA3E0FF8F828E83740693FFEF640A6018900434E0FEA3E0FF8F828E83740693FFEF6402600302128FB0
:4012000090042CE0FFEF6403700302128F90042BE0FF90044AEFF0807690042BE0FFEF75F00BA42448F582E43402F583E4F090042CE0FFEFB401047F0580027F0990042BD4
:40124000E0FEEE75F00BA4244CF582E43402F583EFF0900434E0FEA3E0FF8F828E83740693FFEF640A6014900434E0FEA3E0FF8F828E83740693FFEFB4021490042CE0FF61
:40128000EF6403600A90042BE0FF90044BEFF0900434E0FEA3E0FF8F828E83740293FF90042BE0FEEE75F00BA4244BF582E43402F583EFF0900434E0FEA3E0FF8F828E8380
:4012C000740393FF90042BE0FEEE75F00BA42447F582E43402F583EFF0900434E0FEA3E0FFEF2407FFEE3400FE900434EEF0A3EFF090042AE004F002109890042BE004F09B
:40130000021069900432E0FEA3E0FF8F828E83A312069CAE02AF01900434EEF0A3EFF090042BE4F0900429E0FF90042BE0FEEEC39F5053900434E0FEA3E0FF8F828E83E41E
:4013400093FF900434E0FCA3E0FD8D828C83740293FEEE547FFEEE75F00BA42451F582E43402F583EFF0900434E0FEA3E0FFEF2407FFEE3400FE900434EEF0A3EFF0900457
:401380002BE004F0809E1268739002B6EEF0A3EFF09004297401F0900429E0FFEFC394095049900430E0FEA3E0FF900429E0FDED75F00BA4244DF582E43402F583EEF0A31B
:4013C000EFF0900429E0FFEF75F00BA4244FF582E43402F583E0FEA3E0FF900430EE8FF0120470900429E004F080AC1232A822900492E4F07B007A007900900494120693D6
:401400009002ACE4F0A3E4F0906000E0FFEF5480FF7E00EF64804E60030216C3906001E0FFEF1206A815E50014350616740816940A00001889906003E0FFEFB401351280C9
:4014400005900499EEF0A3EFF0900499E0FEA3E0FF8F828E83A312069C9002AE1206939002ACE4F0A37412F0126BA0900492EFF0021889906003E0FFEF6402706B90600205
:40148000E0FF127297900499EEF0A3EFF0900499E0FEA3E0FF8F828E83A312069C9002AE1206939002AE12068AE92403F9EA3400FA1203F0FF7E00EF7F00FE9002AE12066B
:4014C0008AE92402F9EA3400FA1203F0FD7C00EE4CFEEF4DFF9002ACEEF0A3EFF0126BA0900492EFF0021889906003E0FFEF640360030215DA900497E4F07BFF7AED7979A0
:40150000900494120693900497E0FF906002E0FEEED39F403D90049412068A1203F0FFEF603090049412068A1203F0FF900498EFF090049412068A900498E0FF7E00E92F90
:40154000F9EA3EFA900494120693900497E004F080B4906002E0FFEFB4EE0C7BFF7AED79F7900494120693906002E0FFEF603090ED34E493FF906002E0FEEEB507217BFF2C
:401580007AED79BE9004941206937B017A03794A124FDA7B017A03794A90049412069390049412068A1203F0FFEF700302188990049412068A1203F0FF7E009002ACEEF0F9
:4015C000A3EFF090049412068A9002AE120693126BA0900492EFF00218891264E0900492EFF0021889906000E0FFEF5403FFEF1206A8163F0015FC02000018899002ACE403
:40160000F0A37402F0906004E0FFEF547FFFEF75F00BA42449F582E43402F583E0FF900621EFF0900622E4F07B017A0679219002AE120693126BA0900492EFF002188990CD
:4016400002ACE4F0A37402F0900241E0FF900621EFF0900622E4F07B017A0679219002AE120693126BA0900492EFF00218890218890218899002ACE4F0A37401F07B017A6F
:401680000279429002AE120693126BA0900492EFF00218899002ACE4F0A37401F0906004E0FF74AA2FF9E43402FA7B019002AE120693126BA0900492EFF0021889021889A7
:4016C000021889906001E0FFEF1206A817670118020316DF0516F40917140B00001889906002E0FF9002BBEFF0128020900492EFF0021889906002E0FF900242EFF09002DB
:40170000B87401F07F01120EC5128020900492EFF002188912609DEF7003021889906004E0FF900493EFF0900493E0FF9002B4EFF09002B87401F012188F900493E0FF74D3
:40174000AA2FF582E43402F583E0FF900493E0FE74B92EF582E43402F583EFF0128020900492EFF0021889906000E0FFEF5403FFEF1206A817970017BD011781020000180E
:4017800089906002E0FFEF6003021889124011900492EFF0021889906002E0FFEF64016003021889900241E0FFEF54FDFF900241EFF0128020900492EFF0021889906004B3
:4017C000E0FFEFC394024003021889906004E0FF74BC2FF582E43402F583C083C082E0FF906002E0FEEEF4FEEF5EFFD082D083EFF0128020900492EFF002188902188902BE
:401800001889906000E0FFEF5403FFEF1206A8182E00185001181C0200001889906002E0FFEF7065124EE3900492EFF0805B906002E0FFEF64017051900241E0FFEF440239
:40184000FF900241EFF0128020900492EFF08039906004E0FFEFC39402502E906004E0FF74BC2FF582E43402F583C083C082E0FF906002E0FEEEF4FEEF5EFFD082D083EF7F
:40188000F0128020900492EFF0900492E0FF22900242E0FFEFD394005003021C70900242E0FFEF14FF1272979004A0EEF0A3EFF09004A0E0FEA3E0FFEF2404FFEE3400FE42
:4018C0009004A0EEF0A3EFF09004A0E0FEA3E0FF8F828E83E493FF90049BEFF09004A0E0FEA3E0FF8F828E83A312069CAE02AF019004A2EEF0A3EFF090049DE4F090049BE3
:40190000E0FF90049DE0FEEEC39F4003021C709004A2E0FEA3E0FF8F828E83E493FF74B92FF582E43402F583E0FF9004A2E0FCA3E0FD8D828C83E493FE74AA2EF582E43426
:4019400002F583E0FEEE6F7003021C4F9004A2E0FEA3E0FF8F828E83E493FF74AA2FF582E43402F583E0FF9004A2E0FCA3E0FD8D828C83740193FEEF6E6003021C4F9004F8
:40198000A2E0FEA3E0FF8F828E83E493FF906004E0FEEF6E6003021C4F9004A2E0FEA3E0FF8F828E83740293FFEF547FFF90049CEFF090049CE0FF7E00EF24FFFFEE34FF3F
:4019C000FEEFC4F8540FC868FFEEC454F048FE90049FEFF09004A2E0FEA3E0FF8F828E83740393FFEF5403FF90049EEFF09004A2E0FEA3E0FF8F828E83740293FFEF5480C4
:401A0000FF7E00EF4E603C90049CE0FFEF75F00BA42448F582E43402F5837401F090049EE0FFEFB401047F0780027F0D90049CE0FEEE75F00BA4244CF582E43402F583EF9F
:401A4000F0803990049CE0FFEF75F00BA42448F582E43402F583E4F090049EE0FFEFB401047F0580027F0990049CE0FEEE75F00BA4244CF582E43402F583EFF090049FE0A0
:401A8000FF7E00EF240EFFEE3460FE8F828E837401F09004A2E0FEA3E0FF8F828E83740493FE740593FF90049CE0FDED75F00BA4244FF582E43402F583EEF0A3EFF0900438
:401AC000A2E0FEA3E0FF8F828E83740293FF90049CE0FEEE75F00BA4244BF582E43402F583EFF09004A2E0FEA3E0FF8F828E83740393FF90049CE0FEEE75F00BA42447F522
:401B000082E43402F583EFF090049CE0FFEF75F00BA4244AF582E43402F583E4F090049CE0FFEF75F00BA4244FF582E43402F583E0FEA3E0FFEEFF7E0090049FE0FEEEFD00
:401B40007C00ED240CFDEC3460FC8D828C83EFF090049CE0FFEF75F00BA4244FF582E43402F583E0FEA3E0FFEF54FFFF90049FE0FEEEFD7C00ED240DFDEC3460FC8D828C7D
:401B800083EFF090049CE0FFEF75F00BA4244DF582E43402F583E0FEA3E0FFEF54FFFF90049FE0FEEEFD7C00ED2486FDEC3460FC8D828C83EFF090049CE0FFEF75F00BA4FF
:401BC000244DF582E43402F583E0FEA3E0FFEEFF7E0090049FE0FEEEFD7C00ED2487FDEC3460FC8D828C83EFF090049CE0FFEF75F00BA4244DF582E43402F583E0FEA3E02D
:401C0000FFEF54FFFF90049FE0FEEEFD7C00ED2484FDEC3460FC8D828C83EFF090049CE0FFEF75F00BA4244DF582E43402F583E0FEA3E0FFEEFF7E0090049FE0FEEEFD7C12
:401C400000ED2485FDEC3460FC8D828C83EFF09004A2E0FEA3E0FFEF2407FFEE3400FE9004A2EEF0A3EFF090049DE004F00218FD22900398E4F0A3E4F0900397E0FF7E00B8
:401C8000900398EE8FF012047090039BE0FEA3E0FF7C017D9012041BED4C602590039BE0FEA3E0FF7E00EF5403FFEF4E701790039BE0FEA3E0FF7C007D6412041BED4C6035
:401CC000047F0180027F00EFB4011090038FE0FFEF4402FF90038FEFF0800E90038FE0FFEF54FDFF90038FEFF0900607E4F090039AE0FF7E00EF24FFFFEE34FFFE900607DE
:401D0000E0FD7C00C3ED9FEC9E501E900607E0FFEF90EE6093FF7E00900398EE8FF0120470900607E004F080C590038FE0FFEF5402FF7E00EF64024E70047F0180027F007B
:401D4000EF601590039AE0FFEFD39402400A900398E475F001120470900397E0FF90039AE0FD90039BE0FAA3E0FB126140EF04FF900396EFF0900396E0FFEFD39400400969
:401D8000900396E02400F08013900396E0FFEFF404FFC374079FFF900396EFF0900395E0FFEFC3940C501090038FE0FFEF54FBFF90038FEFF0800E90038FE0FFEF4404FFE4
:401DC00090038FEFF090039DE0FFEF5401FF7E00EF64014E70047F0180027F00EF602C900393E0FF900385E0FEEEB50710900390E0FFEF4401FF900390EFF0800E90039063
:401E0000E0FFEF54FEFF900390EFF090039DE0FFEF5402FF7E00EF64024E70047F0180027F00EF602C900394E0FF900386E0FEEEB50710900390E0FFEF4402FF900390EF9E
:401E4000F0800E900390E0FFEF54FDFF900390EFF090039DE0FFEF5404FF7E00EF64044E70047F0180027F00EF602C900395E0FF900387E0FEEEB50710900390E0FFEF44CB
:401E800004FF900390EFF0800E900390E0FFEF54FBFF900390EFF090039DE0FFEF5408FF7E00EF64084E70047F0180027F00EF602C900396E0FF900388E0FEEEB507109013
:401EC0000390E0FFEF4408FF900390EFF0800E900390E0FFEF54F7FF900390EFF090039DE0FFEF5420FF7E00EF64204E70047F0180027F00EF6036900398E0FEA3E0FF9024
:401F0000038AE0FCA3E0FDEDB50714ECB50610900390E0FFEF4420FF900390EFF0800E900390E0FFEF54DFFF900390EFF090039DE0FFEF5410FF7E00EF64104E70047F01B7
:401F400080027F00EF602C900397E0FF900389E0FEEEB50710900390E0FFEF4410FF900390EFF0800E900390E0FFEF54EFFF900390EFF090039DE0FFEF5440FF7E00EF64BD
:401F8000404E70047F0180027F00EF602C90039AE0FF90038CE0FEEEB50710900390E0FFEF4440FF900390EFF0800E900390E0FFEF54BFFF900390EFF090039DE0FFEF5405
:401FC00080FF7E00EF64804E70047F0180027F00EF603690039BE0FEA3E0FF90038DE0FCA3E0FDEDB50714ECB50610900390E0FFEF4480FF900390EFF0800E900390E0FF85
:40200000EF547FFF900390EFF090039DE0FF900608EFF0900608E0FFEF6032900608E0FF900390E0FEEE5FFF900608E0FEEFB506047F0180027F00EF601390038FE0FFEF8C
:402040004408FF90038FEFF0900390E4F0229005137410F0900317E0FFEF64017051904005E0FFEF54F0FF7E00EEC4F854F0C868FEEFC4540F48FFEF04FFAB07E4FAF9F8F1
:40208000904200E0FFEF5407FFEF90EE8893FFE4FCFDFE1205767B4B7A00790078001204EB127A0090400BE0FFEF4404FFEFF0900316E0FFEF640160030221497F00125519
:4020C0004B904210E0FF900514E4F0A37405F0900514E0FEA3E0FFD3EF9400EE94004069904005E0FFEF54F0FF7E00EEC4F854F0C868FEEFC4540F48FFEF04FFAB07E4FA62
:40210000F9F8904200E0FFEF5407FFEF90EE8893FFE4FCFDFE1205767BC87A00790078001204EB127A00904210E0FFEF5480FF7E00EF4E7007900513E4F0800D90051474AF
:40214000FF75F0FF12047080867F2D126EE190030AE0FFEF6402600990030AE0FFEFB4031E900312E0FF904004E0FEEE6F6008900312E0FF12822B90030AE0FF127EC1904E
:40218000030CE0FFEF5440FF7E00EF4E601690030BE0FFEF90EE8F93FFEFB403077F08123E93803590030BE0FFEF90EE8F93FF123E9390030CE0FFEF5440FF7E00EF4E609E
:4021C0000D904200E0FFEF4440FFEFF0800B904200E0FFEF54BFFFEFF090030EE0FFEFB401149043A0E0FFEF5410FF7E00EF4E70057F001268EC90030EE0FFEF70129043FF
:40220000A0E0FFEF5410FF7E00EF4E60031280B490030FE0FF1271E1900311E0FFEFB4010312832E904000E0FFEF5430FF7E00900310E0FD7C00ED6F7002EC6E601690408E
:4022400000E0FFEF54CFFF900310E0FEEF4EFF904000EFF0900315E0FFEF6401704B7F00125FF9904005E0FFEF54F0FF7E00EEC4F854F0C868FEEFC4540F48FFEF04FFAB09
:4022800007E4FAF9F8904200E0FFEF5407FFEF90EE8893FFE4FCFDFE1205767BFA7A00790078001204EB127A0090030AE0FFEF600990030AE0FFEFB4011E900312E0FF90CC
:4022C0004004E0FEEE6F6008900312E0FF12822B90030AE0FF127EC1904007E0FF7E00EF7F00FE900516EEF0A3EFF0900516E0FEA3E0FF904006E0FD7C00EE4CFEEF4DFF8F
:40230000900516EEF0A3EFF0900516E0FEA3E0FF900313E0FCA3E0FDED6F7002EC6E600B900313E0FEA3E0FF125953904800E0FFEF543FFF90030DE0FEEF4EFF904800EF75
:40234000F0900308E0FF9043A1EFF0900309E0FF9043A2EFF02290000012069390000312068AAF01AE02AD037C0090011912067290011912065AEF54FFFFEE54FFFEED54A2
:4023800000FDEC5400FC90011912067290000312068AAF01AE02AD037C007B007A0079FF7800D312062340030225DC90000312068AAF01AE02AD037C00A804A905AA06AB40
:4023C00007900006E0FEA3E0FFE4FCFD1204D07BFF7AFF79FF7800C312062350030225DC127F5A7B017A0179211270CC7B007A007901780090011912065A120576900108F3
:402400001206727B007A017900780090011912065A120576EF54FFFFEE5400FEED5400FDEC5400FC90010C1206727F007E017D007C0090010C1206661204EBC004C005C004
:4024400006C0077F007E007D017C009001081206661204EBA804A905AA06AB07D007D006D005D0041204D090011D1206727F007E007D007C00900114120672900118E4F0AE
:40248000900006E0FEA3E0FFE4FCFD900114120666C312062340030225CF900118E0FFEF60030225CF7F007E007D007C0090011012067290011012065AC3EE940140030260
:4024C000259390011912065A90011D120666C3120623405B900006E0FEA3E0FFE4FCFD900114120666C3120623504490011412065A90000012068AE92FF9EA3EFAEB3DFB1C
:402500001203F0FB90011012065A74082FF582E43400F583EBF090011412065A7B017A00790078001204D0900114120672803390011D12065AEF2400FFEE3400FEED3410B2
:40254000FDEC3400FCA907AA06AB051283CAAB0790011012065A74082FF582E43400F583EBF090011D12065A7B017A00790078001204D090011D12067290011012065A7BCE
:40258000017A00790078001204D09001101206720224B390010812065AC00790010C12065AAD07AC067B017A007908D007124462900118EFF090010C12065A7B017A007972
:4025C0000078001204D090010C120672022480904800E0FFEF4406FFEFF080069001187401F0900118E0FFEF6010900118E0FFEF6401600690011874FFF0900118E0FF226F
:40260000900465120693900468EDF0900469E4F0A3E4F090046BE4F0A3E4F090046DE4F090039FE0FEA3E0FF9003B0E0FCA3E0FDC3ED9FFFEC9EFE90046BEEF0A3EFF090C0
:40264000046BE0FEA3E0FFC3EE64809480501890046BE0FEA3E0FFEF24A8FFEE3461FE90046BEEF0A3EFF0900468E0FF7E0090046BE0FCA3E0FDC3ED9FEE6480F8EC6480E4
:4026800098502190039FE0FEA3E0FF9003B0E0FCA3E0FDED6F7002EC6E600990046D7401F002284A900468E0FF7E0090039FE0FCA3E0FDEF2DFFEE3CFED3EF94A8EE94616A
:4026C000506C90046512068AC003C002C00190039FE0FEA3E0FF747C2FF9748B3EFA7BFF900003120693900468E0FF7E00900006EEF0A3EFF0D001D002D0031223569004C0
:4027000068E0FF7E0090039FEE8FF012047090039FE0FEA3E0FFEF64A87003EE646160030227EF90039FE4F0A3E4F00227EF90039FE0FEA3E0FFC374A89FFF74619EFE90DC
:40274000046BEEF0A3EFF090046512068AC003C002C00190039FE0FEA3E0FF747C2FF9748B3EFA7BFF90000312069390046BE0FEA3E0FF900006EEF0A3EFF0D001D002D048
:402780000312235690046512068A90046BE0FEA3E0FFE92FF9EA3EFAC003C002C0017BFF7A8B797C900003120693900468E0FF7E0090046BE0FCA3E0FDC3EF9DFFEE9CFEDC
:4027C000900006EEF0A3EFF0D001D002D003122356900468E0FF7E0090046BE0FCA3E0FDC3EF9DFFEE9CFE90039FEEF0A3EFF07B017A03799FC003C002C0019003A1E0FE5D
:40280000A3E0FFEF25E0FFEE33FE74B72FF974843EFA7BFF900003120693900006E4F0A37402F0D001D002D0031223569003B0E0FEA3E0FF90039FE0FCA3E0FDEDB5070A71
:40284000ECB5060690046D7401F090046DE0FF2290054DEFF090054EECF0A3EDF01281BC900550EFF0904393E0FFEF5408FF7E00EF4E700D904683E0FFEF541FFFEFF08071
:4028800009900550E0FF128085229046ECE0FFEFC39405501A904689E0FFEF5401FF7E00EF4E7003D38001C340057F0012817D9046F5E0FFEF5407FF7E00EF4E6039904605
:4028C000ECE0FFEFC3940550077F0012817D8027904689E0FFEF5401FF7E00EF4E701290031EE4F0904689E0FFEF4401FFEFF0800690031E7401F0122A7790054DE0FFEFA3
:40290000C39402402A90054DE0FFEFD3940D501F90054DE0FFEF14FF12696190054EE0FEA3E0FFEE4408FE90054EEEF0A3EFF090054DE0FFEFB40117127C8E90054EE0FE8B
:40294000A3E0FFEE4408FE90054EEEF0A3EFF0904398E0FF90031FEFF090054EE0FEA3E0FFEEC4F854F0C868FEEFC4540F48FF904398EFF0904399E0FF900320EFF0900507
:402980004EE0FEA3E0FFEF540FFF904399EFF090439AE0FF900321EFF090054EE0FEA3E0FFEEC4540FFF7E00EF5401FF90439AEFF0904200E0FFEF5407FF7E00EF4E70085D
:4029C0009003487401F0801E900348E4F0904200E0FFEF5407FF900347EFF0904200E0FFEF54F8FFEFF0904393E0FFEF54F8FFEF4403FF904393EFF0904393E0FF0000008F
:402A0000900348E0FFEF64016016904200E0FFEF54F8FF900347E0FEEF4EFF904200EFF01245C29046F5E0FFEF5407FF7E00EF4E601E9046ECE0FFEFC39405401390031E4D
:402A4000E0FFEF700B904689E0FFEF54FEFFEFF090031FE0FF904398EFF0900320E0FF904399EFF0900321E0FF90439AEFF0900550E0FF12808522905A00E0FF900324EFAD
:402A8000F0905A02E0FF900325EFF0905A03E0FF900326EFF0905A04E0FF900327EFF0905A06E0FF900328EFF0905A08E0FF900329EFF0905A0AE0FF90032AEFF0905A10BC
:402AC000E0FF90032BEFF0905A12E0FF90032CEFF0905A13E0FF90032DEFF0905A14E0FF90032EEFF0905A16E0FF90032FEFF0905A18E0FF900330EFF0905A1AE0FF900370
:402B000031EFF0905A20E0FF900332EFF0905A22E0FF900333EFF0905A23E0FF900334EFF0905A24E0FF900335EFF0905A26E0FF900336EFF0905A28E0FF900337EFF09081
:402B40005A2AE0FF900338EFF0905A30E0FF900339EFF0905A32E0FF90033AEFF0905A33E0FF90033BEFF0905A34E0FF90033CEFF0905A36E0FF90033DEFF0905A38E0FFFA
:402B800090033EEFF0905A3AE0FF90033FEFF0905A00E4F0905A02E4F0905A03E4F0905A04E4F0905A06E4F0905A08E4F0905A0AE4F0905A10E4F0905A12E4F0905A13E4DF
:402BC000F0905A14E4F0905A16E4F0905A18E4F0905A1AE4F0905A20E4F0905A22E4F0905A23E4F0905A24E4F0905A26E4F0905A28E4F0905A2AE4F0905A30E4F0905A3254
:402C0000E4F0905A33E4F0905A34E4F0905A36E4F0905A38E4F0905A3AE4F09046E8E0FFEF5404FF7E00EF4E603390031C7401F090500BE0FFEF540EFF90031DEFF090502D
:402C40000BE0FFEF54F1FFEF440CFF90500BEFF09046E8E0FFEF54FBFFEFF0800590031CE4F0904322E0FFEF5408FF7E00EF4E60129003497401F0904322E0FFEF54F7FFD5
:402C8000EFF022900349E4F0229043A1E0FFEF540FFF900308EFF09043A2E0FF900309EFF09043A1E0FFEF54F0FFEFF09043A2E0FFEF5400FFEFF0904800E0FFEF54C0FFC2
:402CC00090030DEFF07F2D126EE1904200E0FFEF5407FF90030BEFF0904200E0FFEF5440FF90030CEFF0904200E0FFEF5410FF7E00EF4E60089003117401F08005900311C8
:402D0000E4F07F04123E939043A0E0FFEF5410FF7E00EF4E600890030E7401F0800A90030EE4F07F001268EC904200E0FFEF5420FF7E00EF4E6021904000E0FFEF5440FF28
:402D40007E00EF4E70047F0280027F0190030FEFF07F001271E1800590030FE4F0904000E0FFEF5430FF900310EFF0900310E0FFEF600B904000E0FFEF54CFFFEFF0904252
:402D800000E0FFEF5410FF7E00EF4E600312833A904004E0FF900312EFF0900312E0FFEF60057F0012822B904005E0FFEF5403FF90030AEFF090030AE0FFEF60057F0012D2
:402DC0007EC1904007E0FF7E00EF7F00FE900313EEF0A3EFF0900313E0FEA3E0FF904006E0FD7C00EE4CFEEF4DFF900313EEF0A3EFF0900313E0FEA3E0FFEF4E60077F0017
:402E00007E00125953904005E0FFEF54F0FF7E00EEC4F854F0C868FEEFC4540F48FFEF04FFAB07E4FAF9F8904200E0FFEF5407FFEF90EE8893FFE4FCFDFE120576126EE1BC
:402E4000904220E0FFEF5401FF7E00EF4E600B9003157401F01283228005900315E4F0904210E0FFEF5401FF7E00EF4E600B9003167401F012836A8005900316E4F090404A
:402E80000BE0FFEF5404FF7E00EF4E60079003177401F022900317E4F0227F007E007D007C00900372120672900376E4F0A3E4F090037EE4F07F007E007D407C4090037FA9
:402EC0001206729003837420F07B007A007980784190037F12065A12021B1250CC90037212067290037212065A12036FEFC4F8540FC868FFEEC454F048FE12561FAA06A943
:402F0000077B0190036F12069390036F12068A90037B1206937F007E007D807C419003721206661201127B007A00794078C012002112036F900376EEF0A3EFF090037EE4AA
:402F4000F090037EE0FFEFC39403503190037EE0FF7E00EF2400FFEE3480FE8F828E83E0FF90037B12068AEF12040990037CE475F00112047090037EE004F080C490037EAF
:402F8000E0FF7E00900376E0FCA3E0FDC3EF9DEE9C501290037B12068AE412040990037EE004F080D890036CE0FF90036F12068AEF12040990036DE0FF90036F12068AE928
:402FC0002401F9EA3400FAEF12040990036EE0FF90036F12068AE92402F9EA3400FAEF1204099044F4E0FFEF4402FFEFF000C2AF7F001265F5900384EFF0D2AF9044F47412
:40300000FDF0900384E0FFEF60099003837430F002309D90037EE4F090036F12068A90037812069390037EE0FCE412033B9003721206661202B86058405690037EE0FFEF00
:40304000C39480504B9044F4E0FFEF4402FFEFF000C2AF90037812068A90037EE0FD124CE0900384EFF0D2AF9044F474FDF0900384E0FFEF60089003837430F0801F900311
:4030800079E475F01012047090037EE004F0809490036F12068AAE02AF01124719900383E0FF229003D9EFF09003DAECF0A3EDF09003DCEAF0A3EBF09003DFE0FFEFD394B0
:4030C0000050030232A29003DFE0FFEFD3940140030232A29003D9E0FFEF1206A830F00130F004311D0731480831730A0000319E9003DEE0FFEFD3940F40117B0C7A0179D3
:40310000181283CA9003E0EFF00231A37B0C7A01791C1283CA9003E0EFF00231A39003DEE0FFEFD3940F40107B0C7A0179191283CA9003E0EFF0806B7B0C7A01791D128370
:40314000CA9003E0EFF0805B9003DEE0FFEFD3940F40107B0C7A01791A1283CA9003E0EFF080407B0C7A01791E1283CA9003E0EFF080309003DEE0FFEFD3940F40107B0CC7
:403180007A01791B1283CA9003E0EFF080157B0C7A01791F1283CA9003E0EFF080059003E0E4F09003E0E0FFEF3395E0FEFDFC7B207A00790078001204EBA804A905AA06B2
:4031C000AB079003DAE0FEA3E0FFE4FCFD1204D09003E11206729003E112065AAB07AA06A905A804A804A905AA06AB079003DCE0FEA3E0FFE4FCFD1204EB9003E712067280
:403200007B007A80790078009003E712065A1205769003E5EEF0A3EFF09003DEE0FFEFC3940E50479003E5E0FEA3E0FF9003DEE0FDC3740E9DFDEFA805088005CEC313CEFC
:4032400013D8F9FF9003E5EEF0A3EFF09003DEE0FFEF04FF9003DFE0FEEE75F003A42403F582E43404F583EFF080169003DFE0FFEF75F003A42403F582E43404F583740F5F
:40328000F09003E5E0FEA3E0FF9003DFE0FDED75F003A42401F582E43404F583EEF0A3EFF0227F0012817D229006237401F0900624E4F0900624E0FFEFC394804003023417
:4032C00096900624E0FF7E00EF2480FFEE3460FE8F828E83740CF0900623E0FFEF75F00BA4244CF582E43402F583E0FFEF604F900623E0FFEF75F00BA4244BF582E4340251
:40330000F583E0FFEF5480FF7E00EF4E6018900624E0FF7E00EF240EFFEE3460FE8F828E83740CF0802E900624E0FF7E00EF240EFFEE3460FE8F828E837408F080169006D9
:4033400024E0FF7E00EF240EFFEE3460FE8F828E837480F0900623E0FFEF75F00BA4244FF582E43402F583E0FEA3E0FFEEFF7E00900624E0FEEEFD7C00ED240CFDEC3460AB
:40338000FC8D828C83EFF0900623E0FFEF75F00BA4244FF582E43402F583E0FEA3E0FFEF54FFFF900624E0FEEEFD7C00ED240DFDEC3460FC8D828C83EFF0900623E0FFEF42
:4033C00075F00BA4244DF582E43402F583E0FEA3E0FFEF54FFFF900624E0FEEEFD7C00ED2486FDEC3460FC8D828C83EFF0900623E0FFEF75F00BA4244DF582E43402F5837D
:40340000E0FEA3E0FFEEFF7E00900624E0FEEEFD7C00ED2487FDEC3460FC8D828C83EFF0900623E0FFEF75F00BA4244DF582E43402F583E0FEA3E0FFEF54FFFF900624E064
:40344000FEEEFD7C00ED2484FDEC3460FC8D828C83EFF0900623E0FFEF75F00BA4244DF582E43402F583E0FEA3E0FFEEFF7E00900624E0FEEEFD7C00ED2485FDEC3460FCEE
:403480008D828C83EFF0900623E004F0900624E02410F00232B390600A74FFF0227B007A4679E81283CAEF4405FD7B007A4679E81283D6750A00E50AC39407503AAF0AEF29
:4034C00075F005A4243DF582E434EEF583AF82AE838E088F09AE08AF098F828E8312069CAE08AF098F828E83740393FC740493FD12806C050A80BF7B087A007900127BE1C6
:40350000905883740AF07B017A5079031283CAEF4402FD7B017A5079031283D67B017A5079131283CAEF4402FD7B017A5079131283D69043A0E0FFEF4440FF9043A0EFF07C
:403540009043C2E0FFEF4410FF9043C2EFF07B087A027914C003C002C0017B007A5179029004C1120693D001D002D0037F087E001279817B087A02791CC003C002C0017BB2
:40358000007A5179C09004C1120693D001D002D0037F0A7E001279817B087A027928C003C002C0017B007A5179F09004C1120693D001D002D0037F0A7E001279817B087A63
:4035C000027934C003C002C0017B007A5179309004C1120693D001D002D0037F0A7E001279817B087A027940C003C002C0017B007A5179629004C1120693D001D002D003C9
:403600007F087E001279819044F47401F0904322E0FFEF4408FF904322EFF09046ECE0FFEFC394055006904689743AF090480074F1F012485890480074B1F01278D27B0088
:403640007A4379A0C003C002C0017B007A4379B09004C1120693D001D002D0037F0E7E001279819043B0E0FFEF54FDFFEFF02290044FEFF090045012069390044FE0FFEF9C
:40368000D39400500302383B90044FE0FFEFC39409400302383B90044FE0FF7E00EF24FFFFEE34FFFEEFC4F8540FC868FFEEC454F048FE900455EFF0900455E0FF7E00EF2C
:4036C0002488FFEE3460FE900456EEF0A3EFF090044FE0FFEF75F00BA4244DF582E43402F583E0FEA3E0FFC3E49FFF74029EFE900453E0FCA3E0FDD3ED9FEC9E4028900437
:403700004FE0FFEF75F00BA4244DF582E43402F583E0FEA3E0FFC3E49FFF74029EFE900453EEF0A3EFF0900453E0FEA3E0FFEEFF7E0090044FE0FEEE75F00BA4244AF58286
:40374000E43402F583E0FEEF4EFF900455E0FEEEFD7C00ED240CFDEC3460FC8D828C83EFF0900453E0FEA3E0FFEF54FFFF900455E0FEEEFD7C00ED240DFDEC3460FC8D8280
:403780008C83EFF07B007A007900C003C002C00190045012068AD082D083D0E06B7008E965827003EA65836051900458E4F0A3E4F0900453E0FEA3E0FF900458E0FCA3E01A
:4037C000FDC3ED9FEC9E503290045012068A900458E0FEA3E0FFE92FF9EA3EFA1203F0FF900456E0FCA3E0FD8D828C83EFF0900458E475F00112047080B790044FE0FFEF81
:4038000075F00BA42448F582E43402F583E4F090044FE0FFEF75F00BA4244CF582E43402F583E0FF900455E0FEEEFD7C00ED240EFDEC3460FC8D828C83EFF022908B77E4B3
:4038400093FE740193FF9003B2EEF0A3EFF0908B79E493FE740193FF9003A1EEF0A3EFF09003B2E0FEA3E0FFEF25E0FFEE33FE74B72FF58274843EF583E493FE740193FFB5
:403880009003B0EEF0A3EFF09003A1E0FEA3E0FFEF25E0FFEE33FE74B72FF58274843EF583E493FE740193FF90039FEEF0A3EFF01284A91281921281A7127FB2127F951219
:4038C00073EB127D5B7F00127C64127186D2AF9044F474FDF01281D11281F7908B7BE493FF9003A9EFF09003A9E0FFEF60031279B512781512847B122C897D407C087F0063
:4039000012285012204E1284749003A5E0FFEF60111282DB7F06127345124DEA12809D12821B9003A9E0FFEF60077F0112734580C39003ADE0FFEF601B7F02127345127BB8
:40394000297F197E007D007C00126E7B12821B9003ADE4F09003A6E0FFEF60197F0412734512809D1252A57F197E007D007C00126E7B12821B9003ACE0FFEF60197F01127B
:40398000734512809D1283167F197E007D007C00126E7B12821B9003A4E0FFEF60081278159003A4E4F090039EE0FFEF70030238F41282DB7F051273457F647E007D007CEE
:4039C00000126E7B12821B90039EE4F00238F4E47E007F00229004D9EEF0A3EFF09004DBEDF01284179004DDEFF012840D9004DEEEF0A3EFF09004DEE0FEA3E0FF9004D91D
:403A0000E0FCA3E0FDED6F7002EC6E7003023B699043A2E0FFEF5401FF9004DCEFF09004DDE0FFEF705E9004DEE0FEA3E0FFEF4E600C9004D9E0FEA3E0FFEF4E7046900427
:403A4000DEE0FEA3E0FFEF4E701D7B027A4079809004D9E0FCA3E0FD1282FB904082E0FFEF54BFFFEFF022904082E0FFEF4440FFEFF07B027A4079809004D9E0FCA3E0FD08
:403A80001282FB229004DCE0FFEF606C904001E4F09040107401F0904014E4F0904008E0FFEF547FFFEFF0904082E0FFEF5408FF7E00EF4E600C9004D9E0FEA3E0FFEF4EA6
:403AC00070367B027A4079029004DEE0FCA3E0FD1282FB9040017407F0904001E0FFEF5401FF7E00EF4E70F19043A2E0FFEF54FEFFEFF0904001E4F09043A2E0FFEF540116
:403B0000FF7E00EF4E603A7B027A4079029004D9E0FCA3E0FD1282FB9004DBE0FFEF60047F0280027F00EF4401FF904001EFF0904001E0FFEF5401FF7E00EF4E602B80EF79
:403B4000227B027A4079809004D9E0FCA3E0FD1282FB9043A2C083C082E0FF9004DCE0FEEF4EFFD082D083EFF0229004E0EEF0A3EFF09004E2EDF012842B9004E4EFF01241
:403B800084219004E5EEF0A3EFF09004E5E0FEA3E0FF9004E0E0FCA3E0FDED6F7002EC6E7003023CFE9043A1E0FFEF5401FF9004E3EFF09004E4E0FFEF705E9004E5E0FEB0
:403BC000A3E0FFEF4E600C9004E0E0FEA3E0FFEF4E70469004E5E0FEA3E0FFEF4E701D7B027A4179009004E0E0FCA3E0FD1282FB904102E0FFEF54BFFFEFF022904102E0B9
:403C0000FFEF4440FFEFF07B027A4179009004E0E0FCA3E0FD1282FB229004E3E0FFEF606C904001E4F09040147401F0904010E4F0904008E0FFEF547FFFEFF0904102E045
:403C4000FFEF5408FF7E00EF4E600C9004E0E0FEA3E0FFEF4E70367B027A4079029004E5E0FCA3E0FD1282FB9040017407F0904001E0FFEF5401FF7E00EF4E70F19043A148
:403C8000E0FFEF54FEFFEFF0904001E4F09043A1E0FFEF5401FF7E00EF4E603A7B027A4079029004E0E0FCA3E0FD1282FB9004E2E0FFEF60047F0280027F00EF4401FF9078
:403CC0004001EFF0904001E0FFEF5401FF7E00EF4E602B80EF227B027A4179009004E0E0FCA3E0FD1282FB9043A1C083C082E0FF9004E3E0FEEF4EFFD082D083EFF022902B
:403D000002C17420F09003B0E0FEA3E0FF900302EEF0A3EFF0900304E4F0A3E4F0900306E4F090039FE0FEA3E0FF900302E0FCA3E0FDED6F7002EC6E70459003A9E0FFEFEB
:403D4000703D9002C274A0F09003067401F0900306E0FFEFC39440501A900306E0FF74C22FF582E43402F5837440F0900306E004F080DB7B017A0279C2127948023E8D9023
:403D80000306E0FFEFC394404003023E15900302E0FEA3E0FF747C2FF582748B3EF583E493FF900306E0FE74C22EF582E43402F583EFF0900306E004F0900302E475F00138
:403DC000120470900304E475F001120470900302E0FEA3E0FFC3EF94A8EE94614008900302E4F0A3E4F090039FE0FEA3E0FF900302E0FCA3E0FDED6F7002EC6E70819003B9
:403E000006E0FF74C22FF582E43402F5837440F08003023D7F7B017A0279C2127948900306E4F0126B32EFB430089002C17430F0805B90039FE0FEA3E0FF900302E0FCA3E5
:403E4000E0FDED6F7002EC6E6003023D7F900304E475F0041204709002C27480F09002C3E4F0900304E0FEA3E0FFEEFF7E009002C4EFF0900304E0FEA3E0FFEF54FFFF90F2
:403E800002C5EFF07B017A0279C21279489002C1E0FF2290058CEFF0904200E0FFEF5407FF90058DEFF090058CE0FFEFB408047F03800590058CE0FF90058EEFF090058D2D
:403EC000E0FFEF1206A83EDC003EE4013EEC023EF4033EFB043F030500003F0B90058D7402F0802C90058D7401F0802490058D7403F0801C90058DE4F0801590058D74041F
:403F0000F0800D90058D7405F080057F0012817D90058DE0FF90058EE0FEEEC39F400890058CE0FF125BAE90058CE0FFEF1206A83F49003F62013F7A023F87033F9F043F32
:403F4000B7053FCF0800003FE3904200E0FFEF54F8FFEF4403FFEF54BFFF904200EFF0023FE8904200E0FFEF54F8FFEF4401FFEF54BFFF904200EFF0806E904200E0FFEFF4
:403F800054B8FFEFF08061904200E0FFEF54F8FFEF4402FFEF54BFFF904200EFF08049904200E0FFEF54F8FFEF4404FFEF54BFFF904200EFF08031904200E0FFEF54F8FF2D
:403FC000EF4405FFEF54BFFF904200EFF08019904200E0FFEF54F8FFEF4442FF904200EFF080057F0012817D90058CE0FFEFB4080512832E800312833A90058DE0FF9005C0
:404000008EE0FEEEC39F500890058CE0FF125BAE229005B2E4F0906004E0FFEF547FFF9005B0EFF09005B0E0FF7E00EF24FFFFEE34FFFEEFC4F8540FC868FFEEC454F0480F
:40404000FE9005B1EFF09005B0E0FFEFD39400500302417F9005B0E0FFEFC39409400302417F9005B0E0FFEF75F00BA42449F582E43402F583E0FFEF54FEFFEFF09005B036
:40408000E0FFEF75F00BA4244AF582E43402F583E4F09005B1E0FF7E00EF240CFFEE3460FE8F828E83E0FFEF547FFFEFF09005B0E0FFEF75F00BA42448F582E43402F58355
:4040C000E0FFEF54FDFFEFF09005B0E0FFEF75F00BA4244BF582E43402F583E0FFEF5480FF7E00EF4E60499005B0E0FFEF75F00BA42448F582E43402F583E0FFEFB40118E8
:404100009005B1E0FF7E00EF240EFFEE3460FE8F828E83740CF0805F9005B1E0FF7E00EF240EFFEE3460FE8F828E83740DF080479005B0E0FFEF75F00BA42448F582E4340C
:4041400002F583E0FFEFB401189005B1E0FF7E00EF240EFFEE3460FE8F828E837408F080169005B1E0FF7E00EF240EFFEE3460FE8F828E837409F01280209005B2EFF09089
:4041800005B2E0FF22C0E0C0F0C083C082C085C084C086758600C093759300C0D075D000C000C001C002C003C004C005C006C007906028E0FF900613EFF0900613E0FFEF66
:4041C0005410FF7E00EF4E70030242D39006147401F0900613E0FFEF5480FF7E00EF4E6031900613E0FFEF540FFF7E00EF64014E6007900614E4F0804612656C900243E036
:40420000FFEF5480FF7E00EF4E6034900614E4F0802D900613E0FFEF5440FF7E00EF4E6005127DD08019900613E0FFEF5420FF7E00EF4E6005127B578005900614E4F090A0
:404240000614E0FFEF70030242D3906028E0FF900613EFF0900613E0FFEF5480FF7E00EF4E7070900246E0FF9002BEE0FEEE4FFF900613EFF0900613E0FF906029EFF090AF
:404280006029E0FF900613E0FEEE6F7046900243E0FF900614EFF0906028E0FFEF5480FF900613EFF0900613E0FFEF7018900243E0FF906028EFF0906028E0FFEF540FFF8C
:4042C000900614EFF0900243E0FF900614E0FEEEB507BAD007D006D005D004D003D002D001D000D0D0D093D086D084D085D082D083D0F0D0E03290039FE0FEA3E0FF90038B
:40430000B0E0FCA3E0FDD3ED9FEC9E50030243DD9003B2740175F0201204709003B2E0FEA3E0FFC3EF9460EE940340089003B2E4F0A3E4F09003B2E0FEA3E0FFEF2401FFEE
:40434000EE3400FE9003A1EEF0A3EFF07B017A0379B2C003C002C0017BFF7A8B7977900003120693900006E4F0A37402F0D001D002D0031223567B017A0379A1C003C00266
:40438000C0017BFF7A8B7979900003120693900006E4F0A37402F0D001D002D0031223567B017A03799FC003C002C0019003A1E0FEA3E0FFEF25E0FFEE33FE74B72FF97455
:4043C000843EFA7BFF900003120693900006E4F0A37402F0D001D002D00312235690039FE0FEA3E0FF9003B0EEF0A3EFF07B017A03799FC003C002C0019003B2E0FEA3E0A3
:40440000FFEF25E0FFEE33FE74B72FF974843EFA7BFF900003120693900006E4F0A37402F0D001D002D0031223569003A9E0FFEF602F9003A9E4F07B017A0379A9C003C075
:4044400002C0017BFF7A8B797B900003120693900006E4F0A37401F0D001D002D0031223562290041AEFF090041BECF0A3EDF090041D1206937B007A007900C003C002C08C
:404480000190053612068AD082D083D0E06B7008E965827003EA658370030245B690041AE0FFEFD3943F400C900425E4F0A37410F00245609004257401F0A37420F090043F
:4044C0001AE0FF7E007C207D001206F2EF2400FFEE3400FEED3408FDEC3400FCC004C005C006C00790041BE0FEA3E0FF7C007D201206F2A804A905AA06AB07D007D006D02D
:4045000005D0041204D0900421120672900420E4F0900420E0FFEFC394205044900420E0FFE4FCFDFE9004211206661204D0A907AA06AB051283CA90053612068AE92400F8
:40454000F9EA3401FA900420E0FEEEFD7C00E92DF9EA3CFAEF120409900420E004F080B190041D12068AC003C002C00190053612068AA801AC02AD03D001D002D0037E0138
:404580007F001207DB90041AE0FFC00790041BE0FCA3E0FD90053612068A900425E0FEA3E0FF90047DEEF0A3EFF0D007124AB0900427EFF0800690042774FFF0900427E076
:4045C000FF22900324E0FF905A00EFF0900325E0FF905A02EFF0900326E0FF905A03EFF0900327E0FF905A04EFF0900328E0FF905A06EFF0900329E0FF905A08EFF09003A7
:404600002AE0FF905A0AEFF090032BE0FF905A10EFF090032CE0FF905A12EFF090032DE0FF905A13EFF090032EE0FF905A14EFF090032FE0FF905A16EFF0900330E0FF9005
:404640005A18EFF0900331E0FF905A1AEFF0900332E0FF905A20EFF0900333E0FF905A22EFF0900334E0FF905A23EFF0900335E0FF905A24EFF0900336E0FF905A26EFF089
:40468000900337E0FF905A28EFF0900338E0FF905A2AEFF0900339E0FF905A30EFF090033AE0FF905A32EFF090033BE0FF905A33EFF090033CE0FF905A34EFF090033DE074
:4046C000FF905A36EFF090033EE0FF905A38EFF090033FE0FF905A3AEFF090031CE0FFEFB4012190500BE0FFEF54F1FF90031DE0FEEF4EFF90500BEFF09046E8E0FFEF44A3
:4047000004FFEFF0900349E0FFEFB4010B904322E0FFEF4408FFEFF0229004BCEEF0A3EFF04E70030248579004B6E07002A3E070030248579004BCE0FEA3E024FCFFEE34E7
:40474000FFFEA37404F0A374B4F09004BEE0FCA3E0F5828C83E0FCA3E0FD9004C0ECF0A3EDF04C60209004BCE0FCA3E0FD9004C0E0FAA3E0FBD39DEA9C500A9004BEEAF093
:40478000A3EBF080C59004C0E07002A3E0604D8F828E83A3A3E0FCA3E0FD9004BDE02DFD9004BCE03CFC9004C0E0FAA3E0FB6D7002EA6C70278B828A83A3A3E0FCA3E0247E
:4047C00004FDE43C8F828E83A3A38DF01204709004C0E0FCA3E0F5828C8380039004C0E0FDA3E08F828E83CDF0A3EDF09004BEE0FCA3E0FDF5828C83A3A3E0FAA3E0FBED9F
:404800002BFDEC3AFCED2404FDE43CFCED6F7002EC6E70338F828E83A3A3E0FCA3E02404FDE43CFC9004BEE0FAA3E0FBF5828A83A3A3EC8DF01204708F828E83E0FFA3E046
:404840008B828A83CF800C9004BEE0FCA3E0F5828C83EEF0A3EFF022904698E0FF900531EFF07B007A4079807D007C001282F99040827450F07B087A027948C003C002C059
:40488000017B007A4179009004C1120693D001D002D0037F047E001279819043007406F090430A74F3F09046987403F09043097484F09043087405F07FA07E867D017C005A
:4048C00090053212067290053212065AD3EF9400EE94004033904308E0FFEF5420FF7E00EF4E70247FE07E017D007C00127A0090053212065A7BFF7AFF79FF78FF1204D014
:4049000090053212067280BE900531E0FF904698EFF09042007452F07B0C7A01790F1283CA9046A1EFF07B007A4079047D007C001282F99040047407F0904006E4F090403E
:40494000087448F0904004E4F0904009E4F09040017402F090400B7404F09043A2E0FFEF4401FF9043A2EFF09043A1E0FFEF4401FF9043A1EFF09043A0E0FFEF4480FF906C
:4049800043A0EFF022900436EFF0900437120693900436E0FFEFD394005003024A9F900436E0FFEFC394094003024A9F7B007A007900C003C002C00190043712068AD0821E
:4049C000D083D0E06B7008E965827003EA65837003024A9F900436E0FF7E00EF24FFFFEE34FFFEEFC4F8540FC868FFEEC454F048FE90043CEFF090043CE0FF7E00EF248817
:404A0000FFEE3460FE90043DEEF0A3EFF0900436E0FF125DED900441EEF0A3EFF0900441E0FEA3E0FF90043AE0FCA3E0FDD3ED9FEC9E4010900441E0FEA3E0FF90043AEE03
:404A4000F0A3EFF090043FE4F0A3E4F090043AE0FEA3E0FF90043FE0FCA3E0FDC3ED9FEC9E503290043DE0FEA3E0FF8F828E83E0FF90043712068A90043FE0FCA3E0FDE937
:404A80002DF9EA3CFAEF12040990043FE475F00112047080B7900436E0FF12677B800890043AE4F0A3E4F090043AE0FEA3E0FF22900477EFF0900478ECF0A3EDF090047ADA
:404AC000120693127AFAEF6003024BC3900477E0FF90047A12068A90047DE0FCA3E0FD90048DECF0A3EDF0125F5090047FEFF090047FE0FFEF64076003024BBE904722E059
:404B0000FFEF5402FF7E00EF4E70097F017E00127BB480E8904722E0FFEF5402FF7E00EF4E600D904722E0FFEF1313543FFF80027FFFEF700790047FE4F0800690047F743A
:404B4000FFF090047FE0FFEF7074900477E0FF900478E0FCA3E0FD900539E0FB90053AE0FE9004F7EEF012628090047FEFF090047FE0FFEF64077046904722E0FFEF54026B
:404B8000FF7E00EF4E70097F017E00127BB480E8904722E0FFEF5402FF7E00EF4E600D904722E0FFEF1313543FFF80027FFFEF700790047FE4F0800690047F74FFF012817C
:404BC00067800690047F7404F090047FE0FF221281BC90063DEFF09043A5E0FFEF4401FFEFF09043B5E0FFEF4401FFEFF090609D7401F09060097402F0906010E0FFEF54E3
:404C00007FFFEFF07F007E00127BB4904394E0FFEF54F9FFEFF0906012E0FFEF54DFFFEFF0904394E0FFEF4401FFEFF07F017E00127BB47F287E00127BB49051F8E0FFEFF4
:404C4000547FFFEFF09051F8E0FFEF54BFFFEFF0904394E0FFEF4402FFEFF07F027E00127BB4904394E0FFEF4404FFEFF0906084E4F0906085E4F090063DE0FF1280857C21
:404C8000747DE27F171266797D067F1712700E7C7B7DB27F151266797D067F1512700E7C417D857F181266797D067F1812700E7C6D7D467F011266797D067F0112700E7C82
:404CC0006D7DAD7F021266797D067F0212700E7C6E7D147F031266797D067F0312700E2290052712069390052AEDF0127D8290052AE0FFEFC394804003024DDE127AFAEF15
:404D00006003024DD690052B74FFF090052712068A90048DE4F0A37410F07F40125F50EF64076003024DD1904722E0FFEF5402FF7E00EF4E60F1904722E0FFEF5402FF7E3F
:404D400000EF4E600D904722E0FFEF1313543FFF80027FFFEF700590052BE4F090052BE0FFEF706790052AE0FFEFFD7C00900539E0FB90053AE0FF9004F7EFF07F401262B3
:404D800080EF6407703D90052B74FFF0904722E0FFEF5402FF7E00EF4E60F1904722E0FFEF5402FF7E00EF4E600D904722E0FFEF1313543FFF80027FFFEF701590052BE446
:404DC000F0800E90052B74FFF0800690052B74FFF0128167800E90052B7404F0800690052B7401F090052BE0FF229005B3E4F09005B4E4F07F0012823B1284A112849D124A
:404E000084997D017F00127CE0128489EF7006128376EF70F4128308128376EF7003024EDF12810FEF60F17B017A0579B47D01126A4B9005B3EFF09005B4E0FFEF60D99079
:404E400005B3E0FFEF64206003024ED79005B4E0FFEF1206A84E6B014E72024E84034E89044EC1054EA50600004ECC7F10127DF680A6123CFFEF60051272F2809B7F301247
:404E80007DF6809412778D808F7F20127DF61261E2EFB420087F20127DF6024E187F30127DF6024E187F20127DF6125AE7EFB420087F20127DF6024E187F30127DF6024E88
:404EC000181284957F20127DF6024E187F30127DF6024E18024E187F30127DF6024E18127FCF229005AFE4F0906004E0FFEF547FFF9005ADEFF09005ADE0FF7E00EF24FF43
:404F0000FFEE34FFFEEFC4F8540FC868FFEEC454F048FE9005AEEFF09005ADE0FFEFD394005003024FD49005ADE0FFEFC394094003024FD49005ADE0FFEF75F00BA4244960
:404F4000F582E43402F583E0FFEF4401FFEFF09005ADE0FFEF75F00BA4244AF582E43402F583E4F09005ADE0FFEF75F00BA42448F582E43402F583E0FFEF4402FFEFF090AD
:404F800005ADE0FFEF75F00BA4244BF582E43402F583E0FFEF5480FF7E00EF4E60189005AEE0FF7E00EF240EFFEE3460FE8F828E83748DF080169005AEE0FF7E00EF240E67
:404FC000FFEE3460FE8F828E837489F01280209005AFEFF09005AFE0FF229004F91206939004FDE4F07B007A007900C003C002C0019004F912068AD082D083D0E06B700851
:40500000E965827003EA658370030250CB9004F912068A74221204099004F912068AE92401F9EA3400FA74031204099004FC7402F09004FCE0FFEFC3942240030250CB9046
:4050400004FDE0FFE4FCFDFEEF2400FFEE3401FEED340CFDEC3400FCA907AA06AB051283CA9004FEEFF09004FDE004F09004FEE0FFEFC4540FFFEF90EE7893FF9004F9121B
:40508000068A9004FCE0FEE92EF9E43AFAEF1204099004FEE0FFEF540FFFEF90EE7893FF9004FCE0FEEEFD7C00ED2402FDEC3400FC9004F912068AE92DF9EA3CFAEF12041F
:4050C000099004FCE02404F0025031229004BC12067274FFFFFEFDFC9004BCE0F8A3E0F9A3E0FAA3E0FBC312062360387F807E967D187C4B9004BCE0F8A3E0F9A3E0FAA3CF
:40510000E0FB1202B86002501B7F807E967D187CCB9004BCE0F8A3E0F9A3E0FAA3E0FB1202B8500F9004BCE0FCA3E0FDA3E0FEA3E0FF229004BCE0FCA3E0FDA3E0FEA3E0C1
:40514000FF12036F9004C01206729004C0E0FCA3E0FDA3E0FEA3E0FFEC120331C8ECC8C9EDC9CAEECACBEFCB9004BCE0FCA3E0FDA3E0FEA3E0FF12001DE4FBFAF9F812022B
:40518000B850259004C0E0FCA3E0FDA3E0FEA3E0FFE4FAF9F8EF2401FFEA3EFEE93DFDE83CFC9004C01206729004C0E0FCA3E0FDA3E0FEA3E0FFEC1203312275930078005F
:4051C0007583467582E8E04401F0009046ECE0F99046FAE0FAB903225420B40012B8001AEA901FFFF07401901FFEF09046F6F0901FFEE06005901FFFE0FA90480074C0F082
:4052000075810C90000078007920E4F0A3D8FCD9FAEA900415F0020011750B1F750CFD12349D02526002383CE493A3F8E493A34003F68001F208DFF48029E493A3F8540724
:40524000240CC8C333C4540F4420C8834004F456800146F6DFE4800B0102040810204080905D37E47E019360BCA3FF543F30E509541FFEE493A360010ECF54C025E060A85F
:4052800040B8E493A3FAE493A3F8E493A3C8C582C8CAC583CAF0A3C8C582C8CAC583CADFE9DEE780BE1284829003C41206939003B47420F0A3E4F07F007E00127ACB9003AF
:4052C000B8EFF07F017E00127ACB9003B9EFF07F027E00127ACB9003BAEFF09003C412068A1203F0FF9003BBEFF09003C412068AE92401F9EA3400FA1203F0FF9003BCEF91
:40530000F09003C412068AE92402F9EA3400FA1203F0FF9003BDEFF09003C412068AE92404F9EA3400FA1203F0FF9003BEEFF09003C412068AE92407F9EA3400FA1203F0BF
:40534000FF9003BFEFF09003C412068AE92408F9EA3400FA120486FFAEF09003B6EEF0A3EFF07B017A0379B47D10122600EF60071279B5128316221281E41284A19003A7C6
:405380007401F09003AEE4F02290064AEFF0900402E4F090064AE0FFEF6401600302546C904E007430F0904E027406F0904E037408F0904E04E4F0904E05E4F0904E067422
:4053C0001FF0904E08E4F0904E09E4F0904E0AE4F0904E147401F09058847414F09058857405F09058867416F0905887E4F090588A7444F090588B7448F090588C7401F01F
:4054000090588E7401F090588F7411F09058907419F09058917497F07F521273989058947458F0905895E4F090589A7405F090589B7402F090589CE4F090589DE4F07F00C1
:40544000127FEA7F337E037D007C009004081206727D017F267E001239D57D017F9F7E00123B6A7C7B7DB37F1D126679221281BC900649EFF0904E00E0FFEF54FEFFEFF00E
:40548000904E01E0FFEF4404FFEFF09046F8E0FFEF4402FFEFF09046F9E0FFEF4402FFEFF0905891E0FFEF54FCFFEFF0905892E0FFEF54F7FFEFF07F037E00127BB490469B
:4054C000F8E0FFEF54FDFFEFF09046F9E0FFEF54FDFFEFF09043AAE0FFEF54EFFFEFF09043AAE0FFEF54FEFFEFF09043BAE0FFEF54FEFFEFF09043BAE0FFEF54EFFFEFF0FD
:40550000905877E0FFEF54F9FFEFF09043A1E0FFEF54FEFFEFF09043B1E0FFEF54FEFFEFF0905882E0FFEF54F7FFEFF09043A2E0FFEF54FEFFEFF09043B2E0FFEF54FEFFA7
:40554000EFF0900649E0FF128085229004CBEFF09004CCE4F09004CBE0FF9004CDEFF0904210E0FFEF4401FFEFF09004CBE0FFEFD394005003025619904300E0FF9004CF25
:40558000EFF0904380E0FF9004D0EFF0904382E0FF9004D1EFF07F181269D69004CC7410F09004CDE0FFEFD394004047904210E0FF9004CE7404F09004CEE0FFEFD3940024
:4055C00040137F0112761F7E00EF30E0F59004CEE014F080E2904210E0FFEF5480FF7E00EF4E70079004CCE4F080089004CDE014F080AE9004CFE0FFEF5404FF7E00EF4EF0
:40560000700312835E9004D0E0FF904380EFF09004D1E0FF904382EFF09004CCE0FF229004BCEEF0A3EFF0A37404F0A374B4F09004BEE0FEA3E0F5828E83E0FEA3E0FF4E57
:405640007003FEFF228F828E83A3A3E0FCA3E0FD9004BCE0FAA3E0FBC3ED9BEC9A500A9004BEEEF0A3EFF080C68F828E83A3A3E0FCA3E0C39BFDEC9AFC9004C0F0A3EDF0A1
:40568000C39410EC940050178F828E83E0FCA3E0FD9004BEE0FAA3E0F5828A83EC80459004C1E024FCF09004C0E034FFF0E0FDA3E08F828E83A3A3CDF0A3EDF0EF2404FF83
:4056C000E43EFE9004C1E02FFF9004C0E03EFE9004BEF0A3EFF09004BCE0FDA3E08F828E83A3A3CDF0A3EDF0EF2404FFE43EFE221281BC9005E4EFF09003FCE0FF9005E3B9
:40570000EFF09043AAE0FFEF4401FFEFF09043AAE0FFEF4410FFEFF09043BAE0FFEF4401FFEFF09043BAE0FFEF4410FFEFF09046F8E0FFEF4402FFEFF09046F9E0FFEF44F3
:4057400002FFEFF0905891E0FFEF4403FFEFF07F037E00127BB49046F8E0FFEF54FDFFEFF09046F9E0FFEF54FDFFEFF0905877E0FFEF4406FFEFF0905882747AF09043A1F4
:40578000E0FFEF4401FFEFF09043B1E0FFEF4401FFEFF09043A2E0FFEF4401FFEFF09043B2E0FFEF4401FFEFF09044DB7420F09044C37420F09005E4E0FF12808522900632
:4057C0007DE4F09002B5E0FF7E00900244EE8FF01204709002ACE0FEA3E0FFD3EF9400EE9400405390067DE0FFEFC3940850489002AE12068A1203F0FF90067DE0FEEEFD48
:405800007C00ED2400FDEC3460FC8D828C83EFF09002AE12068AE92401F9EA3400FA9002AE12069390067DE004F09002AC74FF75F0FF120470809C9002B5E0FFEF640860FA
:405840000B90067DE0FFEFD39400401C9002BEE0FFEF6480FF9002BEEFF0900243740FF09002BF7402F0800C9002437402F09002BF7402F090067DE0FF9002B5EFF090061E
:405880007DE0FF900246EFF0229003B2E4F0A3E4F09003A1E4F0A37401F09003B0E4F0A3E4F090039FE4F0A3E4F07B017A0379B2C003C002C0017BFF7A8B7977900003128A
:4058C0000693900006E4F0A37402F0D001D002D0031223567B017A0379A1C003C002C0017BFF7A8B7979900003120693900006E4F0A37402F0D001D002D0031223567B01A3
:405900007A0379B0C003C002C0017BFF7A8479B7900003120693900006E4F0A37402F0D001D002D0031223567B017A03799FC003C002C0017BFF7A8479B9900003120693E2
:40594000900006E4F0A37402F0D001D002D003122356229004E7EEF0A3EFF01281BC9004ECEFF0904007E0FF7E00EF7F00FE9004EAEEF0A3EFF09004EAE0FEA3E0FF9040DC
:4059800006E0FD7C00EE4CFEEF4DFF9004EAEEF0A3EFF09004E7E0FEA3E0FFEF4E600C9004EAE0FEA3E0FFEF4E705E904004E0FF9004E9EFF09004E9E0FFEFC394075005BD
:4059C0007F0712822B9004E7E0FEA3E0FFEF4E7018904008E0FFEF4440FFEFF09004E7E0FEA3E0FF12749180169004E7E0FEA3E0FF127491904008E0FFEF54BFFFEFF09019
:405A000004E9E0FF12822B800B9004E7E0FEA3E0FF1274919004ECE0FF128085229003FC7401F0900407E4F07F10127E7F7F10127EA07D077F1D12700E9058967407F090DD
:405A40005897E4F090589EE4F0905B07E0FFEF4418FFEFF0905893E4F0905B88E4F0905B89E4F0905880740AF0905881E4F0905883E4F09058887412F09058897413F09081
:405A8000588DE4F0904E017414F09003DE740CF09003DF7401F07B007A807D6B7C8D7F021230A39003FCE0FFEF75F003A42403F582E43404F583E0FF904E0EEFF09003FC7E
:405AC000E0FFEF75F003A42401F582E43404F583E0FCA3E0FD7B027A4E790C1282FB9003FCE0FF125389229003C77430F07BFF7AEE7999C003C002C0017B017A0379C8A85F
:405B000001AC02AD03D001D002D0037E007F071207DB12810FEF7006128376EF70F4128376EF7003025BA87B017A0379C87D07126A4BEF642070719003C8E0FF7E00EF7FC2
:405B400000FE9003D7EEF0A3EFF09003C9E0FF7E009003D7E0FCA3E0FDEE4CFEEF4DFF9003D7EEF0A3EFF09003CAE0FF9003CFEFF09003CBE0FF9003D0EFF09003CCE0FF67
:405B80009003D1EFF09003CDE0FF9003D3EFF09003CEE0FF9003D6EFF07B017A0379CF1263BA9003C77420F09003C7E0FF229005B9EFF01275839005BAEFF09005BAE0FF5A
:405BC000EFB4010B906009E0FFEF54FDFFEFF09005B9E0FFEF1206A85BF1005C00015C0F025C1E035C2D045C3C055C4B0800005C6E7B0C7A0179081283CA9046A1EFF02294
:405C00007B0C7A0179091283CA9046A1EFF0227B0C7A01790A1283CA9046A1EFF0227B0C7A01790B1283CA9046A1EFF0227B0C7A0179891283CA9046A1EFF0227B0C7A0173
:405C4000790C1283CA9046A1EFF0227B0C7A01790F1283CA9046A1EFF09005BAE0FFEFB40111906009E0FFEF4402FFEFF0227F0012817D22900646E4F0906000E0FFEF5426
:405C800080FF7E00EF64804E7033906001E0FFEF1206A85C9A2100005D319002ACE4F0A37407F07B017A0479439002AE120693126BA0900646EFF080788076807490600094
:405CC000E0FFEF5480FF7E00EF4E7065906001E0FFEF1206A85CDF205D0C2200005D319002ACE4F0A37407F07B017A0479439002AE12069390044CE0FFEF4401FF90044CED
:405D0000EFF012706D900646EFF08025906002E0FF7E0090044DEEF0A3EFF090044CE0FFEF4402FF90044CEFF0128020900646EFF0900646E0FF224103A6004103AC00418E
:405D400003AD004103A5004103A40041039E004103A7004103AA004103A9004103AE004103AF004103AB00440411016E360044040C00005DC0410410184404162EE00000DE
:405D80004106450041040700410402004103FD00410403004103FC014205F30030410391004A03930000000101000101076C4A03850000000101000101076C41039D0041F9
:405DC0000390004103920041038F004106690041066FFF43053600000041067B00410682FF004804B40000000000000000900551EFF0900553E4F0A3E4F0900551E0FFEF4E
:405E0000D394005003025E99900551E0FFEFC394094003025E99900551E0FF7E00EF24FFFFEE34FFFEEFC4F8540FC868FFEEC454F048FE900552EFF0900552E0FF7E00EF7A
:405E4000240CFFEE3460FE8F828E83E0FFEF540FFF7E00900553EEF0A3EFF0900552E0FF7E00EF240DFFEE3460FE8F828E83E0FFEFFD7C00900553E0FEA3E0FFEF7F00FE5B
:405E8000EE4CFEEF4DFF900553EEF0A3EFF090055374FF75F0FE120470900553E0FEA3E0FF2290061AE4F0906029E0FFEF540FFFEF24FEFF900619EFF0900619E0FF7E0002
:405EC000900244EE8FF01204709002ACE0FEA3E0FFD3EF9400EE94004057900619E0FFEFD39400404C90061AE0FF7E00EF2400FFEE3460FE8F828E83E0FF9002AE12068ADA
:405F0000EF1204099002AE12068AE92401F9EA3400FA9002AE12069390061AE004F0900619E014F09002AC74FF75F0FF1204708098900619E0FF900246EFF09002BEE0FF29
:405F4000EF6480FF9002BEEFF0900243740BF022900489EFF090048A12069390048F7407F0904722E0FFEF5402FF7E00EF4E607D90472074B6F090472074D5F09047207407
:405F800002F0904722E0FFEF5402FF7E00EF4E7054900489E0FF904720EFF0900490E4F0A3E4F090048DE0FEA3E0FF900490E0FCA3E0FDC3ED9FEC9E503990048A12068AF0
:405FC000900490E0FEA3E0FFE92FF9EA3EFA1203F0FF904720EFF0900490E475F00112047080C0800E90048F7409F0800690048F7404F090048FE0FF229004FFEFF0900582
:4060000000E4F0904220E0FFEF4401FFEFF09004FFE0FFEF7003026097904300E0FFEF5404FF900501EFF0904380E0FF900502EFF0904382E0FF900503EFF07F181269D634
:406040009005007410F07F0112761F7E00EF20E027904225E0FFEF5401FF7E00EF4E60E6904225E0FFEF5401FF7E00EF4E60D7900500E4F0800280CE900501E0FFEF700327
:4060800012835E900502E0FF904380EFF0900503E0FF904382EFF0900500E0FF229005407401F0906004E0FF900541EFF0900242E0FFEF14FF127297900542EEF0A3EFF03B
:4060C000900542E0FEA3E0FF8F828E83A312069CE92404F9EA3400FA1203F0FF900544EFF0900544E0FF900541E0FEEEC39F500B900541E0FFEFC394024007900540E4F00E
:406100008038900541E0FF74AA2FF582E43402F583E0FF900541E0FE74B92EF582E43402F583EFF0906002E0FF900541E0FE74AA2EF582E43402F583EFF0900540E0FF2237
:40614000900565EFF0900566EDF0900567EAF0A3EBF0900566E0FFEFC39403500B90056774FF75F0FF120470900567E0FEA3E0FF7C007D6412041BAC06AD07900567E0FE19
:40618000A3E0FFEF7802CEC313CE13D8F9FFC3EF9DFBEE9CFA900567E0FEA3E0FF7C017D9012041BEF2BFFEE3AFE900567E0FCA3E0FDEF2DFFEE3CFE900566E0FDED90EE9D
:4061C0006B93FD7C00900565E0FB7A00ED2BFDEC3AFCEF2DFFEE3CFE7C007D0712041BAF05229004C47430F07BFF7AEE7996C003C002C0017B017A0479C5A801AC02AD03F6
:40620000D001D002D0037E007F031207DB12810FEF7006128376EF70F4128376EF605B7B017A0479C57D03126A4BEF6420704B9004C5E0FF9004C8EFF09004C6E0FF9004ED
:40624000C9EFF09004C7E0FF9004CAEFF07B017A0479C8C003C002C0017B017A03796CA801AC02AD03D001D002D0037E007F031207DB122E9A9004C4EFF09004C4E0FF22C5
:406280009004F3EFF09004F4ECF0A3EDF09004F6EBF09004F87407F0904722E0FFEF5402FF7E00EF4E606B90472074B6F090472074D8F09047207405F0904722E0FFEF54D7
:4062C00002FF7E00EF4E70429004F3E0FF904720EFF09004F4E0FEA3E0FFEEFF7E00904720EFF09004F4E0FEA3E0FFEF54FFFF904720EFF09004F6E0FF904720EFF09004F9
:40630000F7E0FF904720EFF0800E9004F87409F080069004F87404F09004F8E0FF229005D9EFF09005DAEDF09044C27480F09044C37401F09044C07402F09044C07404F01E
:406340009044C07408F09002BFE4F09005DAE0FFEF1206A8635E006366010000636E9060097402F0800E9060097403F080069060097403F09005D9E0FF9002C0EFF090025C
:4063800042E4F09002B4E4F09002B8E4F09002BBE4F0900241E4F09002B5E4F09060287403F09060087480F07F017E007D007C00127A009060127404F0229005A112069361
:4063C00012847B9005A112068A1203F0FF900393EFF09005A112068AE92401F9EA3400FA1203F0FF900394EFF09005A112068AE92402F9EA3400FA1203F0FF900395EFF0A7
:406400009005A112068AE92404F9EA3400FA1203F0FF900397EFF09005A112068AE92407F9EA3400FA1203F0FF90039AEFF09005A112068AE92408F9EA3400FA120486FFAF
:40644000AEF090039BEEF0A3EFF0128474229005C1EFF0904308E0FFEF5402FF7E00EF4E60047F0180027F009005C2EFF090430A74F3F09005C1E0FFEF64017033904698ED
:406480007401F07F0A7E00127BB4904309E0FFEF54F3FFEF4408FF904309EFF07F147E00127BB4904308E0FFEF4402FFEFF0802A9046987406F07F0A7E00127BB490430985
:4064C000E0FFEF54F3FFEF4404FF904309EFF0904308E0FFEF54FDFFEFF09005C2E0FF2290061FE4F0900620E4F0906000E0FFEF5403FFEF1206A8650101650D0200006551
:406500002B906004E0FF900620EFF0801E906004E0FFEF547FFFEF75F00BA42451F582E43402F583E0FF900620EFF0900620E0FF9002B6E0FCA3E0FD8D828C83E5822FF5BF
:4065400082E43583F583E493FFEF1206A8656601655E0265660300006566800A8008125C7490061FEFF090061FE0FF22906028E0FF90067CEFF090067CE0FF906028EFF028
:40658000906028E0FF90067CEFF090067CE0FFEF5480FF7E00EF4E600B90067CE0FF900243EFF0227F02126FAC906000E0FFEF5460FFEF1206A865C30065CD2065D740008F
:4065C0000065E11213EF90067CEFF080191264E090067CEFF0800F12753390067CEFF0800590067CE4F090067CE0FFEF70069002437403F022900609EFF0127D82900609E9
:40660000E0FFEFC394025065127AFAEF7057900609E0FD7F40126C0CEF6407703D90060A74FFF0904722E0FFEF5402FF7E00EF4E60F1904722E0FFEF5402FF7E00EF4E6014
:406640000D904722E0FFEF1313543FFF80027FFFEF700D90060AE4F0800690060A74FFF0128167800E90060A7404F0800690060A7401F090060AE0FF2290050EEFF0900552
:406680000FECF0A3EDF090050EE0FFEFD3941F5003D38001C340057F0012817D90050EE0FFEF541FFF7E00EF25E0FFEE33FEEF2400FFEE3444FEAA06A9077B011282EC9065
:4066C0000511EEF0A3EFF090050EE0FF7E02EF8EF0A4FFAEF0EF2400FFEE3444FEAA06A9077B0190050FE0FEA3E0FFAD07AC061282FB900511E0FEA3E0FF22904E14E0FF30
:40670000EF5403FF9005A0EFF09005A0E0FFEFD394015032904E11E0FF7E0090059EEEF0A3EFF090059EE0FEA3E0FFEF7F00FE904E10E0FD7C00EE4CFEEF4DFF90059EEE5A
:40674000F0A3EFF0801F7B027A4E79101282EC90059EEEF0A3EFF09005A0E0FFEFB40305904E12E0FF900402E0FFEF6005900407E4F090059EE0FEA3E0FF229005DBEFF05D
:406780009005DBE0FFEFD39400406E9005DBE0FFEFC3940950639005DBE0FF7E00EF24FFFFEE34FFFEEFC4F8540FC868FFEEC454F048FE9005DCEFF09005DBE0FFEF75F0CC
:4067C0000BA42448F582E43402F583E4F09005DBE0FFEF75F00BA4244CF582E43402F583E0FF9005DCE0FEEEFD7C00ED240EFDEC3460FC8D828C83EFF02290051812069332
:4068000090051BECF0A3EDF090044AE0FFEF75F00BA4244FF582E43402F583E0FEA3E0FF90051BE0FCA3E0FDD3ED9FEC9E402590044AE0FFEF75F00BA4244FF582E4340292
:40684000F583E0FEA3E0FF90051BEEF0A3EFF07F0012817D90044AE0FF90051812068A90051BE0FCA3E0FD900453ECF0A3EDF012366F22900242E0FFEF14FF127297900508
:40688000AAEEF0A3EFF09005AAE0FEA3E0FF8F828E83A312069CE92404F9EA3400FA1203F0FF9005ACEFF09005ACE0FF7E00EF2402FFEE3400FEEF7802C333CE33CED8F99F
:4068C000FF9005AAE0FCA3E0FDEF2DFFEE3CFE9005AAEEF0A3EFF09005AAE0FEA3E0FF8F828E83A312069CAE02AF0122900545EFF09043A0E0FFEF4410FFEFF09043B0E0F3
:40690000FFEF4410FFEFF0900545E0FFEF6051904300E0FFEF5404FF900548EFF0904380E0FF900547EFF0904382E0FF900546EFF07F001269D67F0112761F7E00EF30E0DB
:40694000F5900548E0FFEF700312835E900547E0FF904380EFF0900546E0FF904382EFF022900638EFF0904382E0FFEF54F7FFEFF0128346904382E0FFEF5404FF7E00EF59
:406980004E602F900638E0FF904381E0FEEE6F6044904382E0FFEF54FBFFEFF0900638E0FF904381EFF0904382E0FFEF4404FFEFF022900638E0FF904381E0FEEE6F600AD9
:4069C000900638E0FF904381EFF0904382E0FFEF4404FFEFF022900639EFF0904382E0FFEF54FDFFEFF0128352904382E0FFEF5401FF7E00EF4E602F900639E0FF904380A3
:406A0000E0FEEE6F6044904382E0FFEF54FEFFEFF0900639E0FF904380EFF0904382E0FFEF4401FFEFF022900639E0FF904380E0FEEE6F600A900639E0FF904380EFF090C6
:406A40004382E0FFEF4401FFEFF0229004A41206939004A7EDF09004A8E4F0A3E4F09004AAE4F09004AB7430F012790E9004A8EEF0A3EFF09004A7E0FF7E009004A8E0FCF2
:406A8000A3E0FDEFB5051EEEB5041A9004A412068A9004A7E0FFEFFD7C00127B859004AB7420F080149004A8E0FEA3E0FFD3EF9400EE94004003127F789004ABE0FF229079
:406AC000430A74F3F09046987403F0904309E0FFEF54F3FFEF4404FF904309EFF0904308E0FFEF4404FFEFF0904308E0FFEF4401FFEFF09005BF7403F0A374E8F09005BFA3
:406B0000E0FEA3E0FFD3EF9400EE940040231284037E00EF30E5067F0012644E227F017E00127BB49005BF74FF75F0FF12047080CC22900583E4F0900584E4F0900585746F
:406B400030F0900583E0FFEF7050128376EF604A12790EEF4E7006128376EF70F37B017A0579837D01126A4B900584EFF0900584E0FFEFB42013900583E0FFEFB4070A90C5
:406B800005857420F0801380B9900584E0FFEFB420B09005857430F080A8900585E0FF229002ACE0FEA3E0FFEF4E7005127EE180589002BF7402F09002BEE4F01275D29042
:406BC0006007E0FF7E00EF7F00FE906006E0FD7C00EE4CFEEF4DFF900615EEF0A3EFF0900615E0FEA3E0FF9002ACE0FCA3E0FDD3ED9FEC9E4010900615E0FEA3E0FF90021D
:406C0000ACEEF0A3EFF01257BE7F01229005A4EFF09005A5EDF09005A67407F0904722E0FFEF5402FF7E00EF4E603F90472074B6F090472074DBF09047207408F090472291
:406C4000E0FFEF5402FF7E00EF4E70169005A4E0FF904720EFF09005A5E0FF904720EFF0800E9005A67409F080069005A67404F09005A6E0FF22906008E0FFEF547FFFEFB1
:406C8000F0906012E0FFEF54FBFFEFF09043A5E0FFEF54FEFFEFF09043B5E0FFEF54FEFFEFF09044CA7480F09044CB7401F09044C87402F09044C87404F09044C87408F057
:406CC000900242E4F09002B4E4F09002B8E4F09002BBE4F0900241E4F0900645E4F022127D8290067674FFF0127AFAEF704C7F0112723CEF6407703D7B017A0579397D02F7
:406D0000126F47EFB4021F900676E4F0904722E0FFEF5402FF7E00EF4E701A7F017E00127BB480E8800F904722E0FFEF5402FF7E00EF4E60C312816780069006767404F062
:406D4000900676E0FF22C0E0C083C082C085C084C086758600C093759300C0D075D000C006C00790600EE0FF900252E0FFEF5403FF7E00EF64014E600E900255E0FFEF64CE
:406D800080FF900255EFF09002537401F090600BE0FFEF54FEFFEFF0D007D006D0D0D093D086D084D085D082D083D0E032C0E0C083C082C085C084C086758600C0937593CB
:406DC00000C0D075D000C006C00790601EE0FF90025DE0FFEF5403FF7E00EF64014E600E900260E0FFEF6480FF900260EFF090025E7401F090600BE0FFEF54FDFFEFF0D012
:406E000007D006D0D0D093D086D084D085D082D083D0E032C0E0C083C082C085C084C086758600C093759300C0D075D000C006C00790602EE0FF900268E0FFEF5403FF7EA7
:406E400000EF64014E600E90026BE0FFEF6480FF90026BEFF09002697401F090600BE0FFEF54FBFFEFF0D007D006D0D0D093D086D084D085D082D083D0E03290FFFC120649
:406E8000CE120672850B83850C8212065AD3EF9400EE9480402F90041612065A127A00850B83850C82C083C08212065AEF2400FFEE3480FEED34FFFDEC34FFFCD082D083C7
:406EC00012067280BF90040C12065A850B83850C821206661204EB127A009000041206CE2290060DEFF01281BC90060EEFF090060DE0FFEFD394165014904800E0FFEF544A
:406F00003FFFEF4440FF904800EFF0803190060DE0FFEFD3942C5014904800E0FFEF543FFFEF4480FF904800EFF08012904800E0FFEF543FFFEF44C0FF904800EFF0900627
:406F40000EE0FF1280852290053B12069390053EEDF090053FE4F090053EE0FF90053FE0FEEEC39F5040904722E0FFEF5401FF7E00EF4E6003D38001C340097F017E00122B
:406F80007BB480E2904720E0FF90053B12068A90053FE0FEE92EF9E43AFAEF12040990053FE004F080B190053FE0FF2290067EEFF07B007A007900C003C002C0019002B178
:406FC00012068AD082D083D0E06B7008E965827003EA6583603790067EE0FF9002B112068AEF120409900244E0FEA3E0FF9002B112068AE92401F9EA3400FAEE8FF0120468
:40700000B17B007A0079009002B1120693229005CDEFF09005CEEDF09005CEE0FFEFD394075003D38001C340057F0012817D9005CDE0FFEFD3941F5003D38001C340057FDF
:407040000012817D9005CEE0FFEF5407FF7E00EF75F020A4FFAEF09005CDE0FEEE541FFE74802EF582E43444F583EFF0229002BF7404F09002BE7480F01275D2906007E018
:40708000FF7E00EF7F00FE906006E0FD7C00EE4CFEEF4DFF900617EEF0A3EFF0900617E0FEA3E0FF9002ACE0FCA3E0FDD3ED9FEC9E4010900617E0FEA3E0FF9002ACEEF00F
:4070C000A3EFF0900243740BF07F0122900571120693900574E4F0127D827B007A007900C003C002C00190057112068AD082D083D0E06B7008E965827003EA6583700890D8
:4071000005747401F0801D127AFAEF60089005747404F0800F90057112068A900536120693128167900574E0FF229003A9E0FFEF70539003A3E0FFEF70279003A7E0FFEF65
:40714000601F9003AEE004F09003A8E0FF9003AEE0FEEEB5070B9003AD7401F09003AEE4F09003ABE004F09003ABE0FFEFC3940340139003AAE0FFEF600B9003ABE4F090F0
:40718000039E7401F02290062A7403F07F017E00127ACB9003A3EFF07F027E00127ACB9003A8EFF09003A3E0FFEF1206A871B70271C703000071D590062AE0FFEF4404FF62
:4071C00090062AEFF0800E90062AE0FFEF4408FF90062AEFF090062AE0FF12823B1284742290062DEFF090062DE0FFEF1206A8722A0072130171FC0200007236904000E074
:40720000FFEF54BFFFEFF0904200E0FFEF4420FFEFF022904000E0FFEF4440FFEFF0904200E0FFEF4420FFEFF022904200E0FFEF54DFFFEFF0227F0012817D2290060FEF4F
