:10000000024080008F828E83E0540100000070F86F
:100010002278FFE4F6D8FD0240DE0203DBE86480CC
:10002000F8E933E83360110460F0ED33EC33700924
:10003000E8FCE9FDEAFEEBFF220460DED3EB9FEA79
:100040009EE99DE8C2E78CF0C2F795F0400CE8CC41
:10005000F8E9CDF9EACEFAEBCFFB1203A685D0F092
:100060005804700320D5B3E80470075002B2D502DB
:1000700003E592D5EC0460F7E4CCC0E0C398F860E7
:100080003B94186008400DD0E0FB0203BDE4FBFA8E
:10009000C9FC8028E830E406E4C9FBE4CAFCE83087
:1000A000E305E4C9CACBFCE854076010F8C3E913C0
:1000B000F9EA13FAEB13FBEC13FCD8F130F52FC37C
:1000C000E49CFCEF9BFFEE9AFEED99FDD0E0FBEF88
:1000D0004E4D4C701222DB030203E2EC2CFCEF339A
:1000E000FFEE33FEED33FDED30E7EB0203BDEF2B0A
:1000F000FFEE3AFEED39FDD0E0FB50130BBB0003E1
:100100000203E5ED13FDEE13FEEF13FFEC13FC020B
:1001100003BDEC4D6011E8497017ED33EC3304601A
:100120000DE4FCFFFEFD22E933E8330470F802031E
:10013000DB1203A658046009E4CC24815006285041
:10014000090203E52840030203E2C0E0EB4A7044E1
:10015000B98006D0E0FB0203D1EF4E701CBD8008D1
:10016000EBFFEAFEE9FD80EBE98DF0A4FEE5F0028D
:1001700001FBE9CDF9EAFEEBFFEF89F0A4FCE5F025
:10018000CE89F0A42EFFE435F0CD89F0A42DFEE455
:1001900035F08067EF4E7005BD80D780C3EF8BF0E0
:1001A000A4ACF0EE8BF0A42CFCE435F0F8EF8AF070
:1001B000A42CE5F038FCE433CB8DF0A42CFCE5F066
:1001C0003BF8EE8AF0A42CFCE5F038F8E433CF8954
:1001D000F0A42CFCE5F038CF3400CE89F0A42FFF3A
:1001E000E5F03EFEE433C98DF0A42EFEE5F039CDF6
:1001F0008AF0A42FFFE5F03EFEE43DFD33D0E0FBA6
:1002000050070BBB000F0203E5EC2CFCEF33FFEEB5
:1002100033FEED33FD0203BD0203E5EC5D04600532
:10022000E8590470030203DB1203A6580460F6ECDD
:100230004860F2EC7004FDFEFF22C860DB2481C838
:100240005009C398600250060203E29850CAF58232
:10025000E9294B4A7005AB820203D175F0007C1A84
:100260007880C3EF9BEE9AED99400DC3EF9BFFEEB4
:100270009AFEED99FDE842F0DC23ACF0D0E0FFD02F
:10028000E0FED0E0FDAB8220E7101BEB60BAEC2C67
:10029000FCEF33FFEE33FEED33FD0203BDE803F860
:1002A00030E705C0F075F000EF2FFFEE33FEED33C1
:1002B000FD40B830E7C280AA74F8CC6480CCC86432
:1002C00080C8F58204604FC3EB9FF5F0EA9E42F0D0
:1002D000E99D42F0E89C45F0603C501DE5825FFFDF
:1002E000E582D313CB5BCBF42B5582FB50280ABAA3
:1002F000002409B9002008801DE5825BFBE582D35C
:1003000013CF5FCFF4C3132F5582FF50090EBE00E9
:10031000050DBD00010CC3EB9FF5F0EA9E42F0E92C
:100320009D42F0E89C45F06007CC4820E701B3EC23
:100330002275F020800E75F010800575F0087D00A4
:100340007E007F003392D530D50312062BEC33406C
:1003500010EF33FFEE33FEED33FDEC33FCD5F0ED63
:1003600022E5F0247EA2D513CC92E7CDCEFF22ED7C
:10037000D2E7CD33EC3392D524814006E4FFFEFD75
:10038000FC22FCE4CFCECDCC24E0501174FF80EDF4
:10039000C3CC13CCCD13CDCE13CECF13CF0470F07E
:1003A00030D5DE02062BE9D2E7C933E833F892D51F
:1003B000EDD2E7CD33EC33FC5002B2D522EC30E77E
:1003C000100FBF000C0EBE00080DBD00040BEB604B
:1003D00014A2D5EB13FCED92E7FD2274FFFCFDFEA9
:1003E000FF22E480F8A2D574FF13FC7D80E480EF47
:1003F000BB010689828A83E0225002E722BBFE020B
:10040000E32289828A83E49322BB010689828A835C
:10041000F0225002F722BBFE01F322BC000BBE000B
:1004200029EF8DF084FFADF022E4CCF875F008EFF1
:100430002FFFEE33FEEC33FCEE9DEC984005FCEE16
:100440009DFE0FD5F0E9E4CEFD22EDF8F5F0EE8447
:1004500020D21CFEADF075F008EF2FFFED33FD400C
:1004600007985006D5F0F222C398FD0FD5F0EA2286
:10047000C5F0F8A3E028F0C5F0F8E5821582700217
:100480001583E038F022A3F8E0C5F025F0F0E5820E
:10049000158270021583E0C838F0E822BB010A8992
:1004A000828A83E0F5F0A3E022500687F009E7197D
:1004B00022BBFE07E3F5F009E3192289828A83E46F
:1004C00093F5F074019322BB010A89828A83F0E5D7
:1004D000F0A3F0225006F709A7F01922BBFE06F39D
:1004E000E5F009F31922EF2BFFEE3AFEED39FDECB2
:1004F00038FC22C3EF9BFFEE9AFEED99FDEC98FCD1
:1005000022E88FF0A4CC8BF0A42CFCE98EF0A42C74
:10051000FC8AF0EDA42CFCEA8EF0A4CDA8F08BF0C0
:10052000A42DCC3825F0FDE98FF0A42CCD35F0FCBE
:10053000EB8EF0A4FEA9F0EB8FF0A4CFC5F02ECD8A
:1005400039FEE43CFCEAA42DCE35F0FDE43CFC226F
:1005500075F008758200EF2FFFEE33FECD33CDCC62
:1005600033CCC58233C5829BED9AEC99E5829840E5
:100570000CF582EE9BFEED9AFDEC99FC0FD5F0D6C2
:10058000E4CEFBE4CDFAE4CCF9A88222B800C1B9EC
:100590000059BA002DEC8BF084CFCECDFCE5F0CB2A
:1005A000F97818EF2FFFEE33FEED33FDEC33FCEB63
:1005B00033FB10D703994004EB99FB0FD8E5E4F91E
:1005C000FA227818EF2FFFEE33FEED33FDEC33FC0B
:1005D000C933C910D7059BE99A4007EC9BFCE99AFF
:1005E000F90FD8E0E4C9FAE4CCFB2275F010EF2F44
:1005F000FFEE33FEED33FDCC33CCC833C810D70744
:100600009BEC9AE899400AED9BFDEC9AFCE899F87E
:100610000FD5F0DAE4CDFBE4CCFAE4C8F922EF4BD5
:10062000FFEE4AFEED49FDEC48FC22C3E49FFFE4E7
:100630009EFEE49DFDE49CFC22EB9FF5F0EA9E42C9
:10064000F0E99D42F0E89C45F022E8600FECC3130E
:10065000FCED13FDEE13FEEF13FFD8F122E8600F5F
:10066000EFC333FFEE33FEED33FDEC33FCD8F12264
:10067000E0FCA3E0FDA3E0FEA3E0FF22E0F8A3E09E
:10068000F9A3E0FAA3E0FB22ECF0A3EDF0A3EEF077
:10069000A3EFF022A42582F582E5F03583F58322CD
:1006A000E0FBA3E0FAA3E0F922EBF0A3EAF0A3E970
:1006B000F022E493FB740193FA740293F922D0833D
:1006C000D082F8E4937012740193700DA3A393F891
:1006D000740193F5828883E4737402936860EFA3D6
:1006E000A3A380DFE50C2582F582E50B3583F58336
:1006F000B50B0485820C2210AF0685820CF50B2207
:1007000085820CF50BD2AF22EC8EF0A4CCC5F0CCD8
:10071000CDF8EFA4CEC5F02DFDE43CFCE8A42EC836
:10072000C5F03DFDE43CFCEFA4FFE5F028FEE43D10
:10073000FDE43CFC22E709F608DFFA8046E709F20F
:1007400008DFFA803E88828C83E709F0A3DFFA8015
:1007500032E309F608DFFA806EE309F208DFFA8077
:100760006688828C83E309F0A3DFFA805A89828A43
:1007700083E0A3F608DFFA804E89828A83E0A3F241
:1007800008DFFA804280D280FA80C680D48055800B
:10079000F28029801080A680EA809A80A880DA8082
:1007A000E280CA802988848C8589828A83E493A325
:1007B0000586F0A30586DFF5DEF3800B89828A8348
:1007C000E493A3F608DFF9ECFAA9F0EDFB228884A4
:1007D0008C8589828A83E0A30586F0A30586DFF6EF
:1007E000DEF480E389828A83E493A3F208DFF98050
:1007F000D688F0EF60010E4E60CD88F0ED2402B493
:10080000040050C3F582EB2402B4040050B9232342
:1008100045822390078573C0E0C0F0C083C082C0CA
:1008200085C084C086758600C093759300C0D0755E
:10083000D000C000C001C002C003C004C005C00693
:10084000C0077F04125B46900395E004F090039587
:10085000E0FFEFD3943B5003020E11900396E004A7
:10086000F0900395E4F0900396E0FFEFD3943B50B3
:1008700003020D6A900397E004F0900396E4F09071
:100880000397E0FFEFD394175003020C9A9003995B
:10089000E004F0900397E4F090039AE475F00112FD
:1008A0000470900398E004F0900398E0FFEFD39475
:1008B0000740069003987401F0900391E0FFEF5415
:1008C00002FF7E00EF4E602C90039CE0FFEFB4022D
:1008D0002390039CE0FFEF906D2293FF7E00EF24B6
:1008E00001FFEE3400FE900399E0FD7C00D3ED9F04
:1008F000EC9E5058900391E0FFEF5402FF7E00EF12
:100900004E601F90039CE0FFEF6402601590039C13
:10091000E0FFEF906D2293FF900399E0FEEED39FEE
:10092000502A900391E0FFEF5402FF7E00EF4E60EB
:1009300003020B3790039CE0FFEF906D2293FF9032
:100940000399E0FEEED39F5003020B3790039CE027
:1009500004F09003997401F090039CE0FFEFD394AE
:100960000C5003020A9090039DE475F0011204708C
:1009700090039C7401F090039AE4F0A37401F0904A
:10098000039DE0FEA3E0FF7C017D9012041BED4C73
:10099000602590039DE0FEA3E0FF7E00EF5403FF7F
:1009A000EF4E701790039DE0FEA3E0FF7C007D6496
:1009B00012041BED4C60047F0180027F00EFB40144
:1009C00010900391E0FFEF4402FF900391EFF0805D
:1009D0000E900391E0FFEF54FDFF900391EFF09034
:1009E000039FE0FFEF5480FF7E00EF64804E7004B1
:1009F0007F0180027F00EF603690039DE0FEA3E060
:100A0000FF90038FE0FCA3E0FDEDB50714ECB50605
:100A100010900392E0FFEF4480FF900392EFF0808C
:100A20000E900392E0FFEF547FFF900392EFF0905F
:100A3000039FE0FF900679EFF0900679E0FFEF600A
:100A400032900679E0FF900392E0FEEE5FFF9006A1
:100A500079E0FEEFB506047F0180027F00EF6013AE
:100A6000900391E0FFEF4408FF900391EFF09003B3
:100A700092E4F0900394E0FFEF5440FF7E00EF64B7
:100A8000404E70047F0180027F00EF60031267E632
:100A900090039FE0FFEF5440FF7E00EF64404E70F4
:100AA000047F0180027F00EF602C90039CE0FF90A8
:100AB000038EE0FEEEB50710900392E0FFEF444096
:100AC000FF900392EFF0800E900392E0FFEF54BF8F
:100AD000FF900392EFF090039FE0FF900679EFF014
:100AE000900679E0FFEF6032900679E0FF90039284
:100AF000E0FEEE5FFF900679E0FEEFB506047F01B1
:100B000080027F00EF6013900391E0FFEF4408FF45
:100B1000900391EFF0900392E4F0900394E0FFEFE4
:100B20005420FF7E00EF64204E70047F0180027F1E
:100B300000EF60031267E590039FE0FFEF5408FFAA
:100B40007E00EF64084E70047F0180027F00EF603A
:100B50002C900398E0FF90038AE0FEEEB50710901A
:100B60000392E0FFEF4408FF900392EFF0800E90B5
:100B70000392E0FFEF54F7FF900392EFF090039F92
:100B8000E0FFEF5420FF7E00EF64204E70047F01F1
:100B900080027F00EF603690039AE0FEA3E0FF90B2
:100BA000038CE0FCA3E0FDEDB50714ECB506109056
:100BB0000392E0FFEF4420FF900392EFF0800E904D
:100BC0000392E0FFEF54DFFF900392EFF090039F5A
:100BD000E0FFEF5410FF7E00EF64104E70047F01C1
:100BE00080027F00EF602C900399E0FF90038BE080
:100BF000FEEEB50710900392E0FFEF4410FF900364
:100C000092EFF0800E900392E0FFEF54EFFF90031D
:100C100092EFF090039FE0FF900679EFF090067955
:100C2000E0FFEF6032900679E0FF900392E0FEEE85
:100C30005FFF900679E0FEEFB506047F0180027F3A
:100C400000EF6013900391E0FFEF4408FF900391E1
:100C5000EFF0900392E4F0900394E0FFEF5408FF6C
:100C60007E00EF64084E70047F0180027F00EF6019
:100C7000031267E3900398E0FFEFB4011D90039423
:100C8000E0FFEF5410FF7E00EF64104E70047F0110
:100C900080027F00EF60031267E4900397E0FFEFAC
:100CA000C3940C5010900391E0FFEF54FBFF9003AE
:100CB00091EFF0800E900391E0FFEF4404FF90036A
:100CC00091EFF090039FE0FFEF5404FF7E00EF648C
:100CD000044E70047F0180027F00EF602C90039728
:100CE000E0FF900389E0FEEEB50710900392E0FF6D
:100CF000EF4404FF900392EFF0800E900392E0FF28
:100D0000EF54FBFF900392EFF090039FE0FF9006FB
:100D100079EFF0900679E0FFEF6032900679E0FF1E
:100D2000900392E0FEEE5FFF900679E0FEEFB506DD
:100D3000047F0180027F00EF6013900391E0FFEFDA
:100D40004408FF900391EFF0900392E4F090039435
:100D5000E0FFEF5404FF7E00EF64044E70047F0157
:100D600080027F00EF60031267E290039FE0FFEFD5
:100D70005402FF7E00EF64024E70047F0180027F08
:100D800000EF602C900396E0FF900388E0FEEEB544
:100D90000710900392E0FFEF4402FF900392EFF000
:100DA000800E900392E0FFEF54FDFF900392EFF06E
:100DB00090039FE0FF900679EFF0900679E0FFEF57
:100DC0006032900679E0FF900392E0FEEE5FFF90C4
:100DD0000679E0FEEFB506047F0180027F00EF6038
:100DE00013900391E0FFEF4408FF900391EFF09020
:100DF0000392E4F0900394E0FFEF5402FF7E00EFD3
:100E000064024E70047F0180027F00EF600312676E
:100E1000E190039FE0FFEF5401FF7E00EF64014E7D
:100E200070047F0180027F00EF602C900395E0FF4B
:100E3000900387E0FEEEB50710900392E0FFEF44C9
:100E400001FF900392EFF0800E900392E0FFEF54C9
:100E5000FEFF900392EFF090039FE0FF900679EF82
:100E6000F0900679E0FFEF6032900679E0FF9003A2
:100E700092E0FEEE5FFF900679E0FEEFB506047F9C
:100E80000180027F00EF6013900391E0FFEF4408C0
:100E9000FF900391EFF0900392E4F0900394E0FF51
:100EA000EF5401FF7E00EF64014E70047F01800269
:100EB0007F00EF60031267E0D007D006D005D004B2
:100EC000D003D002D001D000D0D0D093D086D0842F
:100ED000D085D082D083D0F0D0E032900421EFF0E2
:100EE000900429E4F0A3E4F0900422E4F0900422BA
:100EF000E0FFEFC394094003020F9A900422E0FF41
:100F0000EF75F00BA42447F582E43402F583E4F096
:100F1000900422E0FFEF75F00BA42449F582E4343D
:100F200002F583E4F0900422E0FFEF75F00BA424B7
:100F300048F582E43402F583E4F0900422E0FFEF08
:100F400075F00BA4244AF582E43402F583E4F090B2
:100F50000422E0FFEF75F00BA4244CF582E4340288
:100F6000F583E4F0900422E0FFEF75F00BA4244F2A
:100F7000F582E43402F583E4F0A3E4F0900422E087
:100F8000FFEF75F00BA42451F582E43402F583E4FD
:100F9000F0900422E004F0020EED900421E0FFEF57
:100FA000603A900424E4F0900424E0FFEFC394023C
:100FB000502A900424E0FF74AA2FF582E43402F54D
:100FC00083E4F0900424E0FF74B92FF582E4340246
:100FD000F583E4F0900424E004F080CB900242E03A
:100FE000FFEFD394005003021404900242E0FFEF9D
:100FF00014FF1257C190042BEEF0A3EFF090042BD6
:10100000E0FEA3E0FF8F828E83A31206B290042637
:101010001206A99004261206A0E92407F9EA340072
:10102000FA1203F0FFEF5440FF7E00EF4E60109085
:101030000241E0FFEF4401FF900241EFF0800E908B
:101040000241E0FFEF54FEFF900241EFF090042BCD
:10105000E0FEA3E0FFEF2404FFEE3400FE90042B3B
:10106000EEF0A3EFF090042BE0FEA3E0FF8F828E62
:1010700083E493FF900422EFF09004247401F09035
:101080000424E0FFEFC39409400302131990042BDA
:10109000E0FEA3E0FF8F828E83A31206B2AE02AF02
:1010A0000190042DEEF0A3EFF0900423E4F09004FF
:1010B00022E0FF900423E0FEEEC39F4003021310E2
:1010C00090042DE0FEA3E0FF8F828E83740293FFD5
:1010D000EF547FFF7E00900424E0FD7C00ED6F70F4
:1010E00002EC6E60030212EF90042DE0FEA3E0FF1D
:1010F0008F828E83740493FE740593FF900424E022
:10110000FDED75F00BA4244FF582E43402F583E085
:10111000FCA3E0FDC3ED9FEC9E502C90042DE0FE5F
:10112000A3E0FF8F828E83740493FE740593FF9077
:101130000424E0FDED75F00BA4244FF582E43402A5
:10114000F583EEF0A3EFF090042DE0FEA3E0FF8F17
:10115000828E83E493FF74AA2FF582E43402F58330
:10116000E0FF90042DE0FCA3E0FD8D828C837401F0
:1011700093FEEF6E60030212EF90042DE0FEA3E0F9
:10118000FF8F828E83740393FFEF5403FF90042537
:10119000EFF090042DE0FEA3E0FF8F828E837402B7
:1011A00093FFEF5480FF7E00EF4E700302122F90EA
:1011B0000424E0FFEF75F00BA42448F582E4340228
:1011C000F5837401F0900425E0FFEFB401047F077C
:1011D00080027F0D900424E0FEEE75F00BA4244CF9
:1011E000F582E43402F583EFF090042DE0FEA3E0F5
:1011F000FF8F828E83740693FFEF640A6018900459
:101200002DE0FEA3E0FF8F828E83740693FFEF64D0
:101210000260030212A5900425E0FFEF640370034F
:101220000212A5900424E0FF900443EFF080769032
:101230000424E0FFEF75F00BA42448F582E43402A7
:10124000F583E4F0900425E0FFEFB401047F05800E
:10125000027F09900424E0FEEE75F00BA4244CF507
:1012600082E43402F583EFF090042DE0FEA3E0FF6A
:101270008F828E83740693FFEF640A601490042DAE
:10128000E0FEA3E0FF8F828E83740693FFEFB4022B
:1012900014900425E0FFEF6403600A900424E0FF4B
:1012A000900444EFF090042DE0FEA3E0FF8F828EC7
:1012B00083740293FF900424E0FEEE75F00BA424E7
:1012C0004BF582E43402F583EFF090042DE0FEA3A9
:1012D000E0FF8F828E83740393FF900424E0FEEE80
:1012E00075F00BA42447F582E43402F583EFF09007
:1012F000042DE0FEA3E0FFEF2407FFEE3400FE9094
:10130000042DEEF0A3EFF0900423E004F00210AE01
:10131000900424E004F002107F90042BE0FEA3E090
:10132000FF8F828E83A31206B2AE02AF0190042D0E
:10133000EEF0A3EFF0900424E4F0900422E0FF909C
:101340000424E0FEEEC39F505390042DE0FEA3E082
:10135000FF8F828E83E493FF90042DE0FCA3E0FDD9
:101360008D828C83740293FEEE547FFEEE75F00B3B
:10137000A42451F582E43402F583EFF090042DE0CB
:10138000FEA3E0FFEF2407FFEE3400FE90042DEEF5
:10139000F0A3EFF0900424E004F0809E1251CC9072
:1013A00002B6EEF0A3EFF09004227401F090042254
:1013B000E0FFEFC394095049900429E0FEA3E0FF49
:1013C000900422E0FDED75F00BA4244DF582E43489
:1013D00002F583EEF0A3EFF0900422E0FFEF75F04A
:1013E0000BA4244FF582E43402F583E0FEA3E0FF72
:1013F000900429EE8FF0120470900422E004F08033
:10140000AC12251322900482E4F07B007A0079006C
:101410009004841206A99002ACE4F0A3E4F090607A
:1014200000E0FFEF5480FF7E00EF64804E60030217
:1014300016D9906001E0FFEF1206BE15FB00144BB9
:1014400006168A0816AA0A0000189F906003E0FF9B
:10145000EFB40135126303900489EEF0A3EFF0902E
:101460000489E0FEA3E0FF8F828E83A31206B29070
:1014700002AE1206A99002ACE4F0A37412F012526C
:1014800045900482EFF002189F906003E0FFEF6444
:1014900002706B906002E0FF1257C1900489EEF079
:1014A000A3EFF0900489E0FEA3E0FF8F828E83A378
:1014B0001206B29002AE1206A99002AE1206A0E980
:1014C0002403F9EA3400FA1203F0FF7E00EF7F00F4
:1014D000FE9002AE1206A0E92402F9EA3400FA12E4
:1014E00003F0FD7C00EE4CFEEF4DFF9002ACEEF001
:1014F000A3EFF0125245900482EFF002189F906023
:1015000003E0FFEF640360030215F0900487E4F04A
:101510007BFF7A6C793D9004841206A9900487E0E1
:10152000FF906002E0FEEED39F403D9004841206DF
:10153000A01203F0FFEF60309004841206A01203A3
:10154000F0FF900488EFF09004841206A0900488C5
:10155000E0FF7E00E92FF9EA3EFA9004841206A922
:10156000900487E004F080B4906002E0FFEFB4EEF6
:101570000C7BFF7A6C79BB9004841206A990600200
:10158000E0FFEF6030906BF8E493FF906002E0FEC4
:10159000EEB507217BFF7A6C79829004841206A94C
:1015A0007B017A03794A123E9F7B017A03794A9044
:1015B00004841206A99004841206A01203F0FFEF1F
:1015C000700302189F9004841206A01203F0FF7E9D
:1015D000009002ACEEF0A3EFF09004841206A0900D
:1015E00002AE1206A9125245900482EFF002189F33
:1015F000124DAE900482EFF002189F906000E0FF61
:10160000EF5403FFEF1206BE16550016120200003B
:10161000189F9002ACE4F0A37402F0906004E0FF25
:10162000EF547FFFEF75F00BA42449F582E43402F8
:10163000F583E0FF900613EFF0900614E4F07B01D1
:101640007A0679139002AE1206A9125245900482CE
:10165000EFF002189F9002ACE4F0A37402F0900245
:1016600041E0FF900613EFF0900614E4F07B017A5E
:101670000679139002AE1206A9125245900482EF29
:10168000F002189F02189F02189F9002ACE4F0A38A
:101690007401F07B017A0279429002AE1206A9121F
:1016A0005245900482EFF002189F9002ACE4F0A340
:1016B0007401F0906004E0FF74AA2FF9E43402FA98
:1016C0007B019002AE1206A9125245900482EFF0FF
:1016D00002189F02189F02189F906001E0FFEF120E
:1016E00006BE177D0118180316F505170A09172AF3
:1016F0000B0000189F906002E0FF9002BBEFF01219
:1017000063D4900482EFF002189F906002E0FF9093
:101710000242EFF09002B87401F07F01120EDB126A
:1017200063D4900482EFF002189F1249FDEF70031A
:1017300002189F906004E0FF900483EFF090048310
:10174000E0FF9002B4EFF09002B87401F01218A517
:10175000900483E0FF74AA2FF582E43402F583E05D
:10176000FF900483E0FE74B92EF582E43402F58321
:10177000EFF01263D4900482EFF002189F906000A3
:10178000E0FFEF5403FFEF1206BE17AD0017D301C1
:101790001797020000189F906002E0FFEF600302BD
:1017A000189F123180900482EFF002189F9060021F
:1017B000E0FFEF6401600302189F900241E0FFEF39
:1017C00054FDFF900241EFF01263D4900482EFF0D9
:1017D00002189F906004E0FFEFC3940240030218D8
:1017E0009F906004E0FF74BC2FF582E43402F5831F
:1017F000C083C082E0FF906002E0FEEEF4FEEF5E88
:10180000FFD082D083EFF01263D4900482EFF00215
:10181000189F02189F02189F906000E0FFEF54038A
:10182000FFEF1206BE1844001866011832020000CD
:10183000189F906002E0FFEF7065123DA89004824F
:10184000EFF0805B906002E0FFEF64017051900266
:1018500041E0FFEF4402FF900241EFF01263D490A9
:101860000482EFF08039906004E0FFEFC3940250EF
:101870002E906004E0FF74BC2FF582E43402F583FF
:10188000C083C082E0FF906002E0FEEEF4FEEF5EF7
:10189000FFD082D083EFF01263D4900482EFF090F7
:1018A0000482E0FF22900242E0FFEFD39400500355
:1018B000021C86900242E0FFEF14FF1257C1900411
:1018C00090EEF0A3EFF0900490E0FEA3E0FFEF2491
:1018D00004FFEE3400FE900490EEF0A3EFF09004CD
:1018E00090E0FEA3E0FF8F828E83E493FF90048B51
:1018F000EFF0900490E0FEA3E0FF8F828E83A312AE
:1019000006B2AE02AF01900492EEF0A3EFF09004A5
:101910008DE4F090048BE0FF90048DE0FEEEC39F19
:101920004003021C86900492E0FEA3E0FF8F828EAB
:1019300083E493FF74B92FF582E43402F583E0FF6A
:10194000900492E0FCA3E0FD8D828C83E493FE740E
:10195000AA2EF582E43402F583E0FEEE6F700302F6
:101960001C65900492E0FEA3E0FF8F828E83E493D7
:10197000FF74AA2FF582E43402F583E0FF9004920D
:10198000E0FCA3E0FD8D828C83740193FEEF6E601A
:1019900003021C65900492E0FEA3E0FF8F828E8319
:1019A000E493FF906004E0FEEF6E6003021C65901C
:1019B0000492E0FEA3E0FF8F828E83740293FFEF18
:1019C000547FFF90048CEFF090048CE0FF7E00EFDA
:1019D00024FFFFEE34FFFEEFC4F8540FC868FFEE9B
:1019E000C454F048FE90048FEFF0900492E0FEA300
:1019F000E0FF8F828E83740393FFEF5403FF900404
:101A00008EEFF0900492E0FEA3E0FF8F828E83744D
:101A10000293FFEF5480FF7E00EF4E603C90048CF9
:101A2000E0FFEF75F00BA42448F582E43402F5835F
:101A30007401F090048EE0FFEFB401047F07800290
:101A40007F0D90048CE0FEEE75F00BA4244CF58223
:101A5000E43402F583EFF0803990048CE0FFEF75F9
:101A6000F00BA42448F582E43402F583E4F09004FA
:101A70008EE0FFEFB401047F0580027F0990048CA3
:101A8000E0FEEE75F00BA4244CF582E43402F583FD
:101A9000EFF090048FE0FF7E00EF240EFFEE346045
:101AA000FE8F828E837401F0900492E0FEA3E0FF2B
:101AB0008F828E83740493FE740593FF90048CE0F0
:101AC000FDED75F00BA4244FF582E43402F583EEAE
:101AD000F0A3EFF0900492E0FEA3E0FF8F828E83EC
:101AE000740293FF90048CE0FEEE75F00BA4244B7F
:101AF000F582E43402F583EFF0900492E0FEA3E077
:101B0000FF8F828E83740393FF90048CE0FEEE754A
:101B1000F00BA42447F582E43402F583EFF090043F
:101B20008CE0FFEF75F00BA4244AF582E43402F553
:101B300083E4F090048CE0FFEF75F00BA4244FF5E4
:101B400082E43402F583E0FEA3E0FFEEFF7E009026
:101B5000048FE0FEEEFD7C00ED240CFDEC3460FC17
:101B60008D828C83EFF090048CE0FFEF75F00BA476
:101B7000244FF582E43402F583E0FEA3E0FFEF5446
:101B8000FFFF90048FE0FEEEFD7C00ED240DFDECE8
:101B90003460FC8D828C83EFF090048CE0FFEF7555
:101BA000F00BA4244DF582E43402F583E0FEA3E0BB
:101BB000FFEF54FFFF90048FE0FEEEFD7C00ED246C
:101BC00086FDEC3460FC8D828C83EFF090048CE019
:101BD000FFEF75F00BA4244DF582E43402F583E0A9
:101BE000FEA3E0FFEEFF7E0090048FE0FEEEFD7CA2
:101BF00000ED2487FDEC3460FC8D828C83EFF09047
:101C0000048CE0FFEF75F00BA4244DF582E4340260
:101C1000F583E0FEA3E0FFEF54FFFF90048FE0FEAA
:101C2000EEFD7C00ED2484FDEC3460FC8D828C8321
:101C3000EFF090048CE0FFEF75F00BA4244DF582DB
:101C4000E43402F583E0FEA3E0FFEEFF7E009004A3
:101C50008FE0FEEEFD7C00ED2485FDEC3460FC8D14
:101C6000828C83EFF0900492E0FEA3E0FFEF240764
:101C7000FFEE3400FE900492EEF0A3EFF090048D9E
:101C8000E004F00219132290039AE4F0A3E4F09028
:101C90000399E0FF7E0090039AEE8FF0120470909B
:101CA000039DE0FEA3E0FF7C017D9012041BED4C40
:101CB000602590039DE0FEA3E0FF7E00EF5403FF4C
:101CC000EF4E701790039DE0FEA3E0FF7C007D6463
:101CD00012041BED4C60047F0180027F00EFB40111
:101CE00010900391E0FFEF4402FF900391EFF0802A
:101CF0000E900391E0FFEF54FDFF900391EFF09001
:101D000005EFE4F090039CE0FF7E00EF24FFFFEE80
:101D100034FFFE9005EFE0FD7C00C3ED9FEC9E508C
:101D20001E9005EFE0FFEF906D2393FF7E00900380
:101D30009AEE8FF01204709005EFE004F080C590E9
:101D40000391E0FFEF5402FF7E00EF64024E700447
:101D50007F0180027F00EF601590039CE0FFEFD3CE
:101D60009402400A90039AE475F001120470900303
:101D700099E0FF90039CE0FD90039DE0FAA3E0FB57
:101D8000124AA0EF04FF900398EFF0900398E0FF51
:101D9000EFD394004009900398E02400F080139062
:101DA0000398E0FFEFF404FFC374079FFF900398CC
:101DB000EFF0900397E0FFEFC3940C501090039165
:101DC000E0FFEF54FBFF900391EFF0800E90039142
:101DD000E0FFEF4404FF900391EFF090039FE0FFDA
:101DE000EF5401FF7E00EF64014E70047F0180021A
:101DF0007F00EF602C900395E0FF900387E0FEEEFC
:101E0000B50710900392E0FFEF4401FF900392EFBB
:101E1000F0800E900392E0FFEF54FEFF900392EFEC
:101E2000F090039FE0FFEF5402FF7E00EF64024E4C
:101E300070047F0180027F00EF602C900396E0FF2A
:101E4000900388E0FEEEB50710900392E0FFEF44A8
:101E500002FF900392EFF0800E900392E0FFEF54A8
:101E6000FDFF900392EFF090039FE0FFEF5404FF1B
:101E70007E00EF64044E70047F0180027F00EF60FB
:101E80002C900397E0FF900389E0FEEEB5071090D9
:101E90000392E0FFEF4404FF900392EFF0800E9076
:101EA0000392E0FFEF54FBFF900392EFF090039F4B
:101EB000E0FFEF5408FF7E00EF64084E70047F01DE
:101EC00080027F00EF602C900398E0FF90038AE08F
:101ED000FEEEB50710900392E0FFEF4408FF900379
:101EE00092EFF0800E900392E0FFEF54F7FF900323
:101EF00092EFF090039FE0FFEF5420FF7E00EF642D
:101F0000204E70047F0180027F00EF603690039ABC
:101F1000E0FEA3E0FF90038CE0FCA3E0FDEDB5073D
:101F200014ECB50610900392E0FFEF4420FF9003FD
:101F300092EFF0800E900392E0FFEF54DFFF9003EA
:101F400092EFF090039FE0FFEF5410FF7E00EF64EC
:101F5000104E70047F0180027F00EF602C90039987
:101F6000E0FF90038BE0FEEEB50710900392E0FFD8
:101F7000EF4410FF900392EFF0800E900392E0FF89
:101F8000EF54EFFF900392EFF090039FE0FFEF54C8
:101F900040FF7E00EF64404E70047F0180027F00AE
:101FA000EF602C90039CE0FF90038EE0FEEEB507FF
:101FB00010900392E0FFEF4440FF900392EFF08017
:101FC0000E900392E0FFEF54BFFF900392EFF0906A
:101FD000039FE0FFEF5480FF7E00EF64804E7004AB
:101FE0007F0180027F00EF603690039DE0FEA3E05A
:101FF000FF90038FE0FCA3E0FDEDB50714ECB50600
:1020000010900392E0FFEF4480FF900392EFF08086
:102010000E900392E0FFEF547FFF900392EFF09059
:10202000039FE0FF9005F0EFF09005F0E0FFEF6018
:10203000329005F0E0FF900392E0FEEE5FFF900526
:10204000F0E0FEEFB506047F0180027F00EF601331
:10205000900391E0FFEF4408FF900391EFF09003AD
:1020600092E4F0229000001206A99000031206A04C
:10207000AF01AE02AD037C009001191206889001F9
:1020800019120670EF54FFFFEE54FFFEED5400FDF1
:10209000EC5400FC9001191206889000031206A06F
:1020A000AF01AE02AD037C007B007A0079FF7800BF
:1020B000D312063940030222EA9000031206A0AFB1
:1020C00001AE02AD037C00A804A905AA06AB0790E7
:1020D0000006E0FEA3E0FFE4FCFD1204E67BFF7ACD
:1020E000FF79FF7800C312063950030222EA126218
:1020F000AD7B017A0179211257087B007A007901C2
:10210000780090011912067012058C9001081206D1
:10211000887B007A0179007800900119120670120C
:10212000058CEF54FFFFEE5400FEED5400FDEC541F
:1021300000FC90010C1206887F007E017D007C006F
:1021400090010C12067C120501C004C005C006C037
:10215000077F007E007D017C0090010812067C1242
:102160000501A804A905AA06AB07D007D006D0052B
:10217000D0041204E690011D1206887F007E007DC7
:10218000007C00900114120688900118E4F0900081
:1021900006E0FEA3E0FFE4FCFD90011412067CC300
:1021A00012063940030222DD900118E0FFEF6003C0
:1021B0000222DD7F007E007D007C0090011012066F
:1021C00088900110120670C3EE940140030222A110
:1021D00090011912067090011D12067CC312063977
:1021E000405B900006E0FEA3E0FFE4FCFD900114DC
:1021F00012067CC3120639504490011412067090E6
:1022000000001206A0E92FF9EA3EFAEB3DFB1203AB
:10221000F0FB90011012067074082FF582E4340070
:10222000F583EBF09001141206707B017A007900BF
:1022300078001204E6900114120688803390011D84
:10224000120670EF2400FFEE3400FEED3410FDECBA
:102250003400FCA907AA06AB051266E0AB079001A3
:102260001012067074082FF582E43400F583EBF049
:1022700090011D1206707B017A007900780012042B
:10228000E690011D1206889001101206707B017AFB
:1022900000790078001204E69001101206880221ED
:1022A000C1900108120670C00790010C120670ADB3
:1022B00007AC067B017A007908D0071234659001DB
:1022C00018EFF090010C1206707B017A007900780B
:1022D000001204E690010C12068802218E9048003C
:1022E000E0FFEF4406FFEFF080069001187401F064
:1022F000900118E0FFEF6010900118E0FFEF64011B
:10230000600690011874FFF0900118E0FF2290031E
:10231000B2EFF09003B3ECF0A3EDF09003B5EAF068
:10232000A3EBF09003B8E0FFEFD394005003022535
:102330000D9003B8E0FFEFD39401400302250D9008
:1023400003B2E0FFEF1206BE235B01235B04238888
:102350000723B30823DE0A000024099003B7E0FF37
:10236000EFD3940F40117B0C7A0179181266E0903C
:1023700003B9EFF002240E7B0C7A01791C1266E09F
:102380009003B9EFF002240E9003B7E0FFEFD3946F
:102390000F40107B0C7A0179191266E09003B9EFB7
:1023A000F0806B7B0C7A01791D1266E09003B9EF27
:1023B000F0805B9003B7E0FFEFD3940F40107B0CED
:1023C0007A01791A1266E09003B9EFF080407B0C35
:1023D0007A01791E1266E09003B9EFF08030900325
:1023E000B7E0FFEFD3940F40107B0C7A01791B12FA
:1023F00066E09003B9EFF080157B0C7A01791F122B
:1024000066E09003B9EFF080059003B9E4F0900323
:10241000B9E0FFEF3395E0FEFDFC7B207A00790008
:102420007800120501A804A905AA06AB079003B31A
:10243000E0FEA3E0FFE4FCFD1204E69003BA1206FE
:10244000889003BA120670AB07AA06A905A804A8CB
:1024500004A905AA06AB079003B5E0FEA3E0FFE4DC
:10246000FCFD1205019003C01206887B007A80797A
:102470000078009003C012067012058C9003BEEE27
:10248000F0A3EFF09003B7E0FFEFC3940E50479036
:1024900003BEE0FEA3E0FF9003B7E0FDC3740E9D12
:1024A000FDEFA805088005CEC313CE13D8F9FF9021
:1024B00003BEEEF0A3EFF09003B7E0FFEF04FF9050
:1024C00003B8E0FEEE75F003A424ECF582E43403D7
:1024D000F583EFF080169003B8E0FFEF75F003A4EA
:1024E00024ECF582E43403F583740FF09003BEE02E
:1024F000FEA3E0FF9003B8E0FDED75F003A424EA2D
:10250000F582E43403F583EEF0A3EFF0227F0012AE
:1025100064E8229006157401F0900616E4F0900627
:1025200016E0FFEFC394804003022701900616E0F7
:10253000FF7E00EF2480FFEE3460FE8F828E837476
:102540000CF0900615E0FFEF75F00BA4244CF5821B
:10255000E43402F583E0FFEF604F900615E0FFEFF3
:1025600075F00BA4244BF582E43402F583E0FFEF11
:102570005480FF7E00EF4E6018900616E0FF7E004C
:10258000EF240EFFEE3460FE8F828E83740CF08099
:102590002E900616E0FF7E00EF240EFFEE3460FE64
:1025A0008F828E837408F08016900616E0FF7E00FE
:1025B000EF240EFFEE3460FE8F828E837480F090E5
:1025C0000615E0FFEF75F00BA4244FF582E434020A
:1025D000F583E0FEA3E0FFEEFF7E00900616E0FE2E
:1025E000EEFD7C00ED240CFDEC3460FC8D828C83D0
:1025F000EFF0900615E0FFEF75F00BA4244FF58285
:10260000E43402F583E0FEA3E0FFEF54FFFF900601
:1026100016E0FEEEFD7C00ED240DFDEC3460FC8D3B
:10262000828C83EFF0900615E0FFEF75F00BA42489
:102630004DF582E43402F583E0FEA3E0FFEF54FFA2
:10264000FF900616E0FEEEFD7C00ED2486FDEC34E6
:1026500060FC8D828C83EFF0900615E0FFEF75F043
:102660000BA4244DF582E43402F583E0FEA3E0FFE1
:10267000EEFF7E00900616E0FEEEFD7C00ED248766
:10268000FDEC3460FC8D828C83EFF0900615E0FF4A
:10269000EF75F00BA4244DF582E43402F583E0FEDF
:1026A000A3E0FFEF54FFFF900616E0FEEEFD7C0076
:1026B000ED2484FDEC3460FC8D828C83EFF0900679
:1026C00015E0FFEF75F00BA4244DF582E43402F51C
:1026D00083E0FEA3E0FFEEFF7E00900616E0FEEE34
:1026E000FD7C00ED2485FDEC3460FC8D828C83EF55
:1026F000F0900615E004F0900616E02410F0022594
:102700001E90600A74FFF0227F007E007D007C0036
:10271000900372120688900376E4F0A3E4F090032D
:102720007EE4F07F007E007D407C4090037F1206B7
:10273000889003837402F01267B57B007A00798079
:10274000784190037F12067012021B123F91900392
:102750007212068890037212067012036FEFC4F8AB
:10276000540FC868FFEEC454F048FE124334AA0662
:10277000A9077B0190036F1206A9900385E4F0A3DB
:102780007403F090036F1206A090037B1206A97FDA
:10279000007E007D807C4190037212067C12011243
:1027A0007B007A00794078C012002112036F9003F9
:1027B00076EEF0A3EFF090037EE4F090037EE0FF6E
:1027C000EFC39403503190037EE0FF7E00EF2400BE
:1027D000FFEE3480FE8F828E83E0FF90037B120633
:1027E000A0EF12040990037CE475F00112047090CC
:1027F000037EE004F080C490037EE0FF7E0090033F
:1028000076E0FCA3E0FDC3EF9DEE9C501290037BAD
:102810001206A0E412040990037EE004F080D89030
:10282000036CE0FF90036F1206A0EF1204099003FF
:102830006DE0FF90036F1206A0E92401F9EA34006D
:10284000FAEF12040990036EE0FF90036F1206A0E6
:10285000E92402F9EA3400FAEF1204097F00124F6A
:102860004E900384EFF0900384E0FFEF6008900344
:10287000837403F0807790037EE4F090036F120678
:10288000A09003781206A990037EE0FCE412033BBB
:1028900090037212067C1202B86042404090037EA0
:1028A000E0FFEFC3948050359003781206A09003A8
:1028B0007EE0FD123C9E900384EFF0900384E0FFE5
:1028C000EF60089003837403F08022900379E4752D
:1028D000F01012047090037EE004F080AA90036F61
:1028E0001206A0AE02AF011235C51267B99003837C
:1028F000E0FF22904698E0FF9004DBEFF07B007A47
:102900004079807D007C001266249040827450F0F3
:102910007B007A4079847DBF7C5D1266249040867E
:102920007419F07B087A0579B0C003C002C0017B3E
:10293000007A4179009003FA1206A9D001D002D0A2
:10294000037F047E00125E3B9043007406F09043C8
:102950000A74F3F09046987403F09043097484F07D
:102960009043087405F07FA07E867D017C00900472
:10297000DC1206889004DC120670D3EF9400EE940B
:10298000004033904308E0FFEF5420FF7E00EF4EFD
:1029900070247FE07E017D007C00125E009004DCEC
:1029A0001206707BFF7AFF79FF78FF1204E690042D
:1029B000DC12068880BE9004DBE0FF904698EFF0C2
:1029C0009042007452F07B0C7A01790F1266E0900D
:1029D00046A1EFF07B007A4279227D187C081266CE
:1029E000247B007A4279207D517C12126624900467
:1029F000E0E4F07F197E007D007C009004DC12068C
:102A0000889004DC120670D3EF9400EE9400404EE0
:102A10009004E0E0FFEF64036044904225E0FFEFA4
:102A20005401FF7E009004E0E0FEEE25E0FEEE4F54
:102A3000FFEF5403FF9004E0EFF07FE07E017D00A4
:102A40007C00125E009004DC1206707BFF7AFF7936
:102A5000FF78FF1204E69004DC12068880A390043D
:102A6000DC120670EF4E70057F031265B27B007AB0
:102A70004079047D007C011266249040047407F0C4
:102A8000904006E4F09040087448F0904004E4F070
:102A9000904009E4F09040017402F090400B7404FF
:102AA000F09043A2E0FFEF4403FF9043A2EFF090C9
:102AB00043A1E0FFEF4401FF9043A1EFF09043A05A
:102AC000E0FFEF4480FF9043A0EFF022900448EF36
:102AD000F09004491206A9900448E0FFEFD3940057
:102AE0005003022C98900448E0FFEFC39409400380
:102AF000022C98900448E0FF7E00EF24FFFFEE34A4
:102B0000FFFEEFC4F8540FC868FFEEC454F048FE4F
:102B100090044EEFF090044EE0FF7E00EF2488FF1B
:102B2000EE3460FE90044FEEF0A3EFF0900448E026
:102B3000FFEF75F00BA4244DF582E43402F583E039
:102B4000FEA3E0FFC3E49FFF74029EFE90044CE0EE
:102B5000FCA3E0FDD3ED9FEC9E4028900448E0FFED
:102B6000EF75F00BA4244DF582E43402F583E0FE0A
:102B7000A3E0FFC3E49FFF74029EFE90044CEEF0BE
:102B8000A3EFF090044CE0FEA3E0FFEEFF7E009088
:102B90000448E0FEEE75F00BA4244AF582E434020A
:102BA000F583E0FEEF4EFF90044EE0FEEEFD7C006C
:102BB000ED240CFDEC3460FC8D828C83EFF09004EE
:102BC0004CE0FEA3E0FFEF54FFFF90044EE0FEEE6A
:102BD000FD7C00ED240DFDEC3460FC8D828C83EFD8
:102BE000F07B007A007900C003C002C00190044964
:102BF0001206A0D082D083D0E06B7008E9658270A5
:102C000003EA65836051900451E4F0A3E4F090047A
:102C10004CE0FEA3E0FF900451E0FCA3E0FDC3ED17
:102C20009FEC9E50329004491206A0900451E0FEA1
:102C3000A3E0FFE92FF9EA3EFA1203F0FF90044FF8
:102C4000E0FCA3E0FD8D828C83EFF0900451E475ED
:102C5000F00112047080B7900448E0FFEF75F00BAC
:102C6000A42448F582E43402F583E4F0900448E0BB
:102C7000FFEF75F00BA4244CF582E43402F583E0F9
:102C8000FF90044EE0FEEEFD7C00ED240EFDEC34E2
:102C900060FC8D828C83EFF02290480074F1F0127A
:102CA00028F37B007A4679E81266E0EF4405FD7B65
:102CB000007A4679E81266EC750A00E50AC39408C2
:102CC000503AAF0AEF75F005A424FBF582E4346CAA
:102CD000F583AF82AE838E088F09AE08AF098F826D
:102CE0008E831206B2AE08AF098F828E837403936F
:102CF000FC740493FD1263EE050A80BF7B087A0022
:102D00007900126021905883740AF07B017A50791F
:102D1000031266E0EF4402FD7B017A5079031266EC
:102D2000EC7B017A5079131266E0EF4402FD7B01DF
:102D30007A5079131266EC9043A0E0FFEF4440FF15
:102D40009043A0EFF09043C2E0FFEF4410FF9043A8
:102D5000C2EFF07B087A057984C003C002C0017B12
:102D6000007A5179029003FA1206A9D001D002D05C
:102D7000037F087E00125E3B7B087A05798CC003D6
:102D8000C002C0017B007A5179F09003FA1206A9C3
:102D9000D001D002D0037F0A7E00125E3B7B087A0E
:102DA000057998C003C002C0017B007A5179309048
:102DB00003FA1206A9D001D002D0037F0A7E0012C6
:102DC0005E3B7B087A0579A4C003C002C0017B008A
:102DD0007A5179609003FA1206A9D001D002D0038B
:102DE0007F0A7E00125E3B9044F47401F09043220F
:102DF000E0FFEF4408FF904322EFF09046ECE0FF45
:102E0000EFC394055006904689743AF07B017A50DE
:102E100079077D401266EC7B017A5079177D40126C
:102E200066EC125CF37B007A4379A0C003C002C059
:102E3000017B007A4379B09003FA1206A9D001D041
:102E400002D0037F0E7E00125E3B9043B0E0FFEFA6
:102E500054FDFFEFF0229004C1EEF0A3EFF09004D8
:102E6000C3EDF012672A9004C5EFF01267209004BA
:102E7000C6EEF0A3EFF09004C6E0FEA3E0FF9004DE
:102E8000C1E0FCA3E0FDED6F7002EC6E7003022F59
:102E9000EA9043A2E0FFEF5401FF9004C4EFF090EA
:102EA00004C5E0FFEF705E9004C6E0FEA3E0FFEF14
:102EB0004E600C9004C1E0FEA3E0FFEF4E70469020
:102EC00004C6E0FEA3E0FFEF4E701D7B027A40795E
:102ED000809004C1E0FCA3E0FD126626904082E0F1
:102EE000FFEF54BFFFEFF022904082E0FFEF44403D
:102EF000FFEFF07B027A4079809004C1E0FCA3E010
:102F0000FD126626229004C4E0FFEF606C90400141
:102F1000E4F09040107401F0904014E4F090400808
:102F2000E0FFEF547FFFEFF0904082E0FFEF5408A6
:102F3000FF7E00EF4E600C9004C1E0FEA3E0FFEFC7
:102F40004E70367B027A4079029004C6E0FCA3E022
:102F5000FD1266269040017407F0904001E0FFEFFB
:102F60005401FF7E00EF4E70F19043A2E0FFEF545A
:102F7000FEFFEFF0904001E4F09043A2E0FFEF5439
:102F800001FF7E00EF4E603A7B027A4079029004A6
:102F9000C1E0FCA3E0FD1266269004C3E0FFEF60F1
:102FA000047F0280027F00EF4401FF904001EFF0B8
:102FB000904001E0FFEF5401FF7E00EF4E602B8058
:102FC000EF227B027A4079809004C1E0FCA3E0FD0F
:102FD0001266269043A2C083C082E0FF9004C4E042
:102FE000FEEF4EFFD082D083EFF0229004C8EEF0C7
:102FF000A3EFF09004CAEDF012673E9004CCEFF01E
:103000001267349004CDEEF0A3EFF09004CDE0FE13
:10301000A3E0FF9004C8E0FCA3E0FDED6F7002ECBC
:103020006E700302317F9043A1E0FFEF5401FF90E7
:1030300004CBEFF09004CCE0FFEF705E9004CDE0A5
:10304000FEA3E0FFEF4E600C9004C8E0FEA3E0FF9B
:10305000EF4E70469004CDE0FEA3E0FFEF4E701DF2
:103060007B027A4179009004C8E0FCA3E0FD12667F
:1030700026904102E0FFEF54BFFFEFF022904102A3
:10308000E0FFEF4440FFEFF07B027A4179009004CB
:10309000C8E0FCA3E0FD126626229004CBE0FFEF1F
:1030A000606C904001E4F09040147401F090401086
:1030B000E4F0904008E0FFEF547FFFEFF090410212
:1030C000E0FFEF5408FF7E00EF4E600C9004C8E074
:1030D000FEA3E0FFEF4E70367B027A407902900447
:1030E000CDE0FCA3E0FD1266269040017407F0904D
:1030F0004001E0FFEF5401FF7E00EF4E70F190437E
:10310000A1E0FFEF54FEFFEFF0904001E4F09043A8
:10311000A1E0FFEF5401FF7E00EF4E603A7B027AA0
:103120004079029004C8E0FCA3E0FD1266269004FA
:10313000CAE0FFEF60047F0280027F00EF4401FFDE
:10314000904001EFF0904001E0FFEF5401FF7E005E
:10315000EF4E602B80EF227B027A4179009004C809
:10316000E0FCA3E0FD1266269043A1C083C082E08C
:10317000FF9004CBE0FEEF4EFFD082D083EFF02231
:1031800090059AE4F0906004E0FFEF547FFF900513
:1031900098EFF0900598E0FF7E00EF24FFFFEE34FB
:1031A000FFFEEFC4F8540FC868FFEEC454F048FEA9
:1031B000900599EFF0900598E0FFEFD3940050034D
:1031C0000232EE900598E0FFEFC39409400302320B
:1031D000EE900598E0FFEF75F00BA42449F582E42A
:1031E0003402F583E0FFEF54FEFFEFF0900598E026
:1031F000FFEF75F00BA4244AF582E43402F583E472
:10320000F0900599E0FF7E00EF240CFFEE3460FEA5
:103210008F828E83E0FFEF547FFFEFF0900598E000
:10322000FFEF75F00BA42448F582E43402F583E047
:10323000FFEF54FDFFEFF0900598E0FFEF75F00B06
:10324000A4244BF582E43402F583E0FFEF5480FFC1
:103250007E00EF4E6049900598E0FFEF75F00BA4FB
:103260002448F582E43402F583E0FFEFB4011890BE
:103270000599E0FF7E00EF240EFFEE3460FE8F82A2
:103280008E83740CF0805F900599E0FF7E00EF2440
:103290000EFFEE3460FE8F828E83740DF0804790B7
:1032A0000598E0FFEF75F00BA42448F582E43402A2
:1032B000F583E0FFEFB40118900599E0FF7E00EF81
:1032C000240EFFEE3460FE8F828E837408F0801629
:1032D000900599E0FF7E00EF240EFFEE3460FE8F34
:1032E000828E837409F01263D490059AEFF09005F2
:1032F0009AE0FF22C0E0C0F0C083C082C085C084D5
:10330000C086758600C093759300C0D075D000C08C
:1033100000C001C002C003C004C005C006C00790C1
:103320006028E0FF900605EFF0900605E0FFEF54FF
:1033300010FF7E00EF4E70030234429006067401C7
:10334000F0900605E0FFEF5480FF7E00EF4E603105
:10335000900605E0FFEF540FFF7E00EF64014E6022
:1033600007900606E4F08046124EC5900243E0FF47
:10337000EF5480FF7E00EF4E6034900606E4F0804C
:103380002D900605E0FFEF5440FF7E00EF4E6005F4
:103390001261468019900605E0FFEF5420FF7E0081
:1033A000EF4E6005125F978005900606E4F09006E8
:1033B00006E0FFEF7003023442906028E0FF9006C1
:1033C00005EFF0900605E0FFEF5480FF7E00EF4E22
:1033D0007070900246E0FF9002BEE0FEEE4FFF905C
:1033E0000605EFF0900605E0FF906029EFF0906091
:1033F00029E0FF900605E0FEEE6F7046900243E084
:10340000FF900606EFF0906028E0FFEF5480FF90F9
:103410000605EFF0900605E0FFEF7018900243E01C
:10342000FF906028EFF0906028E0FFEF540FFF90CE
:103430000606EFF0900243E0FF900606E0FEEEB5D0
:1034400007BAD007D006D005D004D003D002D001EF
:10345000D000D0D0D093D086D084D085D082D083F5
:10346000D0F0D0E032900413EFF0900414ECF0A30D
:10347000EDF09004161206A97B007A007900C003D3
:10348000C002C00190051A1206A0D082D083D0E0FD
:103490006B7008E965827003EA658370030235B9D1
:1034A000900413E0FFEFD3943F400C90041EE4F02F
:1034B000A37410F002356390041E7401F0A374200D
:1034C000F0900413E0FF7E007C207D00120708EFDF
:1034D0002400FFEE3400FEED3408FDEC3400FCC0A7
:1034E00004C005C006C007900414E0FEA3E0FF7C02
:1034F000007D20120708A804A905AA06AB07D0077B
:10350000D006D005D0041204E690041A1206889062
:103510000419E4F0900419E0FFEFC39420504490A4
:103520000419E0FFE4FCFDFE90041A12067C12046C
:10353000E6A907AA06AB051266E090051A1206A0D6
:10354000E92400F9EA3401FA900419E0FEEEFD7C6A
:1035500000E92DF9EA3CFAEF120409900419E0049D
:10356000F080B19004161206A0C003C002C0019002
:10357000051A1206A0A801AC02AD03D001D002D0FA
:10358000037E017F001207F1900413E0FFC0079053
:103590000414E0FCA3E0FD90051A1206A090041E9E
:1035A000E0FEA3E0FF90046DEEF0A3EFF0D0071271
:1035B0003961900420EFF0800690042074FFF090B1
:1035C0000420E0FF229003FDEEF0A3EFF04E700325
:1035D0000237039004A6E07002A3E07003023703F1
:1035E0009003FDE0FEA3E024FCFFEE34FFFEA37495
:1035F00004F0A374A4F09003FFE0FCA3E0F5828C38
:1036000083E0FCA3E0FD900401ECF0A3EDF04C603E
:10361000209003FDE0FCA3E0FD900401E0FAA3E0AC
:10362000FBD39DEA9C500A9003FFEAF0A3EBF080E5
:10363000C5900401E07002A3E0604D8F828E83A3E9
:10364000A3E0FCA3E0FD9003FEE02DFD9003FDE070
:103650003CFC900401E0FAA3E0FB6D7002EA6C70A0
:10366000278B828A83A3A3E0FCA3E02404FDE43C2F
:103670008F828E83A3A38DF0120470900401E0FC6E
:10368000A3E0F5828C838003900401E0FDA3E08F2A
:10369000828E83CDF0A3EDF09003FFE0FCA3E0FD6C
:1036A000F5828C83A3A3E0FAA3E0FBED2BFDEC3ABB
:1036B000FCED2404FDE43CFCED6F7002EC6E703315
:1036C0008F828E83A3A3E0FCA3E02404FDE43CFCF2
:1036D0009003FFE0FAA3E0FBF5828A83A3A3EC8DBD
:1036E000F01204708F828E83E0FFA3E08B828A83C6
:1036F000CF800C9003FFE0FCA3E0F5828C83EEF01A
:10370000A3EFF0227BFF7A6779E89003011206A904
:10371000900304E4F0A3E4F0900306E4F01267BD24
:103720009005621206A0C003C002C00190030112FE
:1037300006A0C3D082D083D0E0E99582EA95834089
:10374000030237E2900306E0FFEFC394405072900B
:1037500005621206A0C003C002C001900301120658
:10376000A0C3D082D083D0E0E99582EA9583503718
:103770009003011206A01203F0FF900306E0FE740E
:10378000C12EF582E43402F583EFF0900306E004E5
:10379000F0900302E475F001120470900304E475E4
:1037A000F001120470809D900306E0FF74C12FF5B4
:1037B00082E43402F5837440F0900306E004F08064
:1037C0008312647AEF7006126674EF70F47B017AEC
:1037D0000279C17D407C00125153900306E4F0024F
:1037E0003720900304E475F0041204709002C17451
:1037F00080F09002C2E4F0900304E0FEA3E0FFEE4C
:10380000FF7E009002C3EFF0900304E0FEA3E0FF10
:10381000EF54FFFF9002C4EFF012647AEF700612CB
:103820006674EF70F47B017A0279C17D407C0012EE
:1038300051531267C12290042FEFF090043012060A
:10384000A990042FE0FFEFD3940050030239509069
:10385000042FE0FFEFC3940940030239507B007A44
:10386000007900C003C002C0019004301206A0D04D
:1038700082D083D0E06B7008E965827003EA6583CB
:10388000700302395090042FE0FF7E00EF24FFFF09
:10389000EE34FFFEEFC4F8540FC868FFEEC454F0D6
:1038A00048FE900435EFF0900435E0FF7E00EF24F1
:1038B00088FFEE3460FE900436EEF0A3EFF0900443
:1038C0002FE0FF1247F190043AEEF0A3EFF09004DE
:1038D0003AE0FEA3E0FF900433E0FCA3E0FDD3ED6B
:1038E0009FEC9E401090043AE0FEA3E0FF9004336A
:1038F000EEF0A3EFF0900438E4F0A3E4F09004338A
:10390000E0FEA3E0FF900438E0FCA3E0FDC3ED9FE0
:10391000EC9E5032900436E0FEA3E0FF8F828E834F
:10392000E0FF9004301206A0900438E0FCA3E0FD14
:10393000E92DF9EA3CFAEF120409900438E475F035
:103940000112047080B790042FE0FF1250D4800859
:10395000900433E4F0A3E4F0900433E0FEA3E0FF2E
:1039600022900467EFF0900468ECF0A3EDF090046F
:103970006A1206A9125F68EF6003023A7490046746
:10398000E0FF90046A1206A090046DE0FCA3E0FD45
:1039900090047DECF0A3EDF012495490046FEFF029
:1039A00090046FE0FFEF64076003023A6F904722D4
:1039B000E0FFEF5402FF7E00EF4E70097F017E00B2
:1039C000125FF480E8904722E0FFEF5402FF7E0090
:1039D000EF4E600D904722E0FFEF1313543FFF803E
:1039E000027FFFEF700790046FE4F0800690046F91
:1039F00074FFF090046FE0FFEF7074900467E0FFD5
:103A0000900468E0FCA3E0FD90051DE0FB90051E1E
:103A1000E0FE9004E5EEF0124BE090046FEFF090C2
:103A2000046FE0FFEF64077046904722E0FFEF5419
:103A300002FF7E00EF4E70097F017E00125FF4806E
:103A4000E8904722E0FFEF5402FF7E00EF4E600D4A
:103A5000904722E0FFEF1313543FFF80027FFFEFF8
:103A6000700790046FE4F0800690046F74FFF0120A
:103A700064D2800690046F7404F090046FE0FF221B
:103A800012655190062CEFF09043A5E0FFEF440142
:103A9000FFEFF09043B5E0FFEF4401FFEFF09060DF
:103AA0009D7401F09060097402F0906010E0FFEFE7
:103AB000547FFFEFF07F007E00125FF4904394E0AC
:103AC000FFEF54F9FFEFF0906012E0FFEF54DFFFDB
:103AD000EFF0904394E0FFEF4401FFEFF07F017EB1
:103AE00000125FF47F287E00125FF49051F8E0FF2F
:103AF000EF547FFFEFF09051F8E0FFEF54BFFFEF7E
:103B0000F0904394E0FFEF4402FFEFF07F027E006D
:103B1000125FF4904394E0FFEF4404FFEFF09060F5
:103B200084E4F0906085E4F090062CE0FF12641FBE
:103B30007C5A7D587F17124FD27D067F1712564A46
:103B40007C5F7DF27F15124FD27D067F1512564A9B
:103B50007C327DF47F18124FD27D067F1812564AB0
:103B60007C537DEB7F06124FD27D067F0612564AAC
:103B70007C547D527F07124FD27D067F0712564A32
:103B80007C547DB97F08124FD27D067F0812564AB9
:103B9000229003E1740CF012678E9003E21206A9E2
:103BA0009003D57420F0A3E4F07F007E00125DAE98
:103BB0009003D9EFF07F017E00125DAE9003DAEF43
:103BC000F07F027E00125DAE9003DBEFF09003E227
:103BD0001206A01203F0FF9003DCEFF09003E21254
:103BE00006A0E92401F9EA3400FA1203F0FF900379
:103BF000DDEFF09003E21206A0E92402F9EA3400B6
:103C0000FA1203F0FF9003DEEFF09003E21206A039
:103C1000E92404F9EA3400FA1203F0FF9003DFEF1D
:103C2000F09003E21206A0E92407F9EA3400FA1240
:103C300003F0FF9003E0EFF09003E21206A0E92406
:103C400008F9EA3400FA12049CFFAEF09003D7EEB4
:103C5000F0A3EFF07B017A0379D5C003C002C00165
:103C60009005621206A09000031206A99003E1E0FD
:103C7000FF7E00900006EEF0A3EFF0D001D002D05E
:103C8000031220649003E1E0FF7E00900563EE8F55
:103C9000F012047012658C1267D5126579229005B6
:103CA000101206A9900513EDF01260F8900513E0CC
:103CB000FFEFC394804003023D9C125F68EF6003F6
:103CC000023D9490051474FFF09005101206A09028
:103CD000047DE4F0A37410F07F40124954EF6407B0
:103CE0006003023D8F904722E0FFEF5402FF7E0009
:103CF000EF4E60F1904722E0FFEF5402FF7E00EFAD
:103D00004E600D904722E0FFEF1313543FFF8002F7
:103D10007FFFEF7005900514E4F0900514E0FFEFCD
:103D20007067900513E0FFEFFD7C0090051DE0FB40
:103D300090051EE0FF9004E5EFF07F40124BE0EFAE
:103D40006407703D90051474FFF0904722E0FFEF88
:103D50005402FF7E00EF4E60F1904722E0FFEF54E7
:103D600002FF7E00EF4E600D904722E0FFEF13133D
:103D7000543FFF80027FFFEF7015900514E4F08040
:103D80000E90051474FFF0800690051474FFF01275
:103D900064D2800E9005147404F0800690051474AB
:103DA00001F0900514E0FF22900597E4F090600484
:103DB000E0FFEF547FFF900595EFF0900595E0FF51
:103DC0007E00EF24FFFFEE34FFFEEFC4F8540FC86F
:103DD00068FFEEC454F048FE900596EFF09005950C
:103DE000E0FFEFD394005003023E99900595E0FF69
:103DF000EFC394094003023E99900595E0FFEF75EB
:103E0000F00BA42449F582E43402F583E0FFEF448B
:103E100001FFEFF0900595E0FFEF75F00BA4244A49
:103E2000F582E43402F583E4F0900595E0FFEF7548
:103E3000F00BA42448F582E43402F583E0FFEF445C
:103E400002FFEFF0900595E0FFEF75F00BA4244B17
:103E5000F582E43402F583E0FFEF5480FF7E00EF4B
:103E60004E6018900596E0FF7E00EF240EFFEE34C2
:103E700060FE8F828E83748DF08016900596E0FF31
:103E80007E00EF240EFFEE3460FE8F828E837489F5
:103E9000F01263D4900597EFF0900597E0FF229021
:103EA00004E71206A99004EBE4F07B007A007900A5
:103EB000C003C002C0019004E71206A0D082D083E4
:103EC000D0E06B7008E965827003EA6583700302D5
:103ED0003F909004E71206A074221204099004E7B0
:103EE0001206A0E92401F9EA3400FA740312040965
:103EF0009004EA7402F09004EAE0FFEFC3942240D9
:103F000003023F909004EBE0FFE4FCFDFEEF240091
:103F1000FFEE3401FEED340CFDEC3400FCA907AAE1
:103F200006AB051266E09004ECEFF09004EBE004C1
:103F3000F09004ECE0FFEFC4540FFFEF906D3B9363
:103F4000FF9004E71206A09004EAE0FEE92EF9E4EF
:103F50003AFAEF1204099004ECE0FFEF540FFFEF80
:103F6000906D3B93FF9004EAE0FEEEFD7C00ED24B3
:103F700002FDEC3400FC9004E71206A0E92DF9EAFA
:103F80003CFAEF1204099004EAE02404F0023EF641
:103F9000229003FD12068874FFFFFEFDFC9003FDD6
:103FA000E0F8A3E0F9A3E0FAA3E0FBC3120639604E
:103FB000387F807E967D187C4B9003FDE0F8A3E06F
:103FC000F9A3E0FAA3E0FB1202B86002501B7F8065
:103FD0007E967D187CCB9003FDE0F8A3E0F9A3E08A
:103FE000FAA3E0FB1202B8500F9003FDE0FCA3E03F
:103FF000FDA3E0FEA3E0FF229003FDE0FCA3E0FDB3
:10400000A3E0FEA3E0FF12036F9004011206889064
:104010000401E0FCA3E0FDA3E0FEA3E0FFEC12033B
:1040200031C8ECC8C9EDC9CAEECACBEFCB9003FDCD
:10403000E0FCA3E0FDA3E0FEA3E0FF12001DE4FB13
:10404000FAF9F81202B85025900401E0FCA3E0FD53
:10405000A3E0FEA3E0FFE4FAF9F8EF2401FFEA3E53
:10406000FEE93DFDE83CFC90040112068890040145
:10407000E0FCA3E0FDA3E0FEA3E0FFEC120331228D
:1040800075930078007583467582E8E04401F0007E
:104090009046ECE0F99046FAE0FAB903225420B4D5
:1040A0000012B8001AEA901FFFF07401901FFEF092
:1040B0009046F6F0901FFEE06005901FFFE0FA903A
:1040C000480074C0F075810C90000078007920E4FD
:1040D000F0A3D8FCD9FAEA90040EF0020011750B97
:1040E0001F750CFD122C9902412502607AE493A3FE
:1040F000F8E493A34003F68001F208DFF48029E49A
:1041000093A3F85407240CC8C333C4540F4420C8E5
:10411000834004F456800146F6DFE4800B0102047C
:104120000810204080904E3AE47E019360BCA3FFCB
:10413000543F30E509541FFEE493A360010ECF54B1
:10414000C025E060A840B8E493A3FAE493A3F8E4A0
:1041500093A3C8C582C8CAC583CAF0A3C8C582C80C
:10416000CAC583CADFE9DEE780BE90059BE4F09014
:10417000059CE4F01267AD7D017F001260CF1267ED
:1041800095EF7006126674EF70F41266331266745F
:10419000EF7003024249126464EF60F17B017A051B
:1041A000799C7D0112558590059BEFF090059CE070
:1041B000FFEF60D990059BE0FFEF640260030242CD
:1041C0004190059CE0FFEF1206BE41E00141E7028D
:1041D00041EF0341F404422B05420F060000423632
:1041E0007F0112616C80A6123704125BDC809E1284
:1041F0005C6B80997F0212616C124B42EFB4020734
:104200007F0212616C80867F0312616C02418D7F98
:104210000212616C124668EFB402087F0212616CF0
:1042200002418D7F0312616C02418D125E6F7F022D
:1042300012616C02418D7F0312616C02418D02415B
:104240008D7F0312616C02418D12531B1267B122E4
:1042500090063AEFF09003EBE4F090063AE0FFEFBF
:1042600064016003024333904E007430F0904E02BC
:104270007406F0904E037408F0904E04E4F0904EF3
:1042800005E4F0904E06741FF0904E08E4F0904E56
:1042900009E4F0904E0AE4F0904E147401F0905846
:1042A000847414F09058857405F09058867416F054
:1042B000905887E4F090588A7444F090588B744872
:1042C000F090588C7401F090588E7401F090588FD3
:1042D0007411F09058907419F09058917497F07F81
:1042E000521258709058947458F0905895E4F09089
:1042F000589A7405F090589B7402F090589CE4F022
:1043000090589DE4F07F001262E87F337E037D00C9
:104310007C009003F11206887D017F697E00122ED9
:10432000567D017FAA7E01122FEB7C5F7DF37F1DFE
:10433000124FD2229003FDEEF0A3EFF0A37404F02D
:10434000A374A4F09003FFE0FEA3E0F5828E83E067
:10435000FEA3E0FF4E7003FEFF228F828E83A3A395
:10436000E0FCA3E0FD9003FDE0FAA3E0FBC3ED9BBE
:10437000EC9A500A9003FFEEF0A3EFF080C68F8214
:104380008E83A3A3E0FCA3E0C39BFDEC9AFC900406
:1043900001F0A3EDF0C39410EC940050178F828EBF
:1043A00083E0FCA3E0FD9003FFE0FAA3E0F5828A3E
:1043B00083EC8045900402E024FCF0900401E0349A
:1043C000FFF0E0FDA3E08F828E83A3A3CDF0A3EDE9
:1043D000F0EF2404FFE43EFE900402E02FFF90047F
:1043E00001E03EFE9003FFF0A3EFF09003FDE0FD3F
:1043F000A3E08F828E83A3A3CDF0A3EDF0EF24047E
:10440000FFE43EFE221265519005CEEFF09003E5E9
:10441000E0FF9005CDEFF09043AAE0FFEF4401FFED
:10442000EFF09043AAE0FFEF4410FFEFF09043BAA3
:10443000E0FFEF4401FFEFF09043BAE0FFEF4410DC
:10444000FFEFF09046F8E0FFEF4402FFEFF09046F8
:10445000F9E0FFEF4402FFEFF0905891E0FFEF44E6
:1044600003FFEFF07F037E00125FF49046F8E0FF59
:10447000EF54FDFFEFF09046F9E0FFEF54FDFFEF42
:10448000F0905877E0FFEF4406FFEFF09058827409
:104490007AF09043A1E0FFEF4401FFEFF09043B1C9
:1044A000E0FFEF4401FFEFF09043A2E0FFEF440193
:1044B000FFEFF09043B2E0FFEF4401FFEFF09044D4
:1044C000DB7420F09044C37420F09005CEE0FF121E
:1044D000641F2290066CE4F09002B5E0FF7E00902D
:1044E0000244EE8FF01204709002ACE0FEA3E0FFF5
:1044F000D3EF9400EE9400405390066CE0FFEFC3BE
:10450000940850489002AE1206A01203F0FF9006E5
:104510006CE0FEEEFD7C00ED2400FDEC3460FC8DD3
:10452000828C83EFF09002AE1206A0E92401F9EA32
:104530003400FA9002AE1206A990066CE004F090E6
:1045400002AC74FF75F0FF120470809C9002B5E01D
:10455000FFEF6408600B90066CE0FFEFD39400401F
:104560001C9002BEE0FFEF6480FF9002BEEFF0906F
:104570000243740FF09002BF7402F0800C9002436B
:104580007402F09002BF7402F090066CE0FF90029B
:10459000B5EFF090066CE0FF900246EFF02290033A
:1045A000E57401F09003F0E4F07F101261D47F1005
:1045B0001261F57D077F1D12564A9058967407F0D8
:1045C000905897E4F090589EE4F0905B07E0FFEF7E
:1045D0004418FFEFF0905893E4F0905B88E4F0907B
:1045E0005B89E4F0905880740AF0905881E4F09070
:1045F0005883E4F09058887412F09058897413F03E
:1046000090588DE4F0904E017414F09003B7740C40
:10461000F09003B87401F07B007A807D6B7C8D7F15
:104620000212230E9003E5E0FFEF75F003A424ECE3
:10463000F582E43403F583E0FF904E0EEFF0900333
:10464000E5E0FFEF75F003A424EAF582E43403F516
:1046500083E0FCA3E0FD7B027A4E790C1266269083
:1046600003E5E0FF124250229003A07403F07BFFA9
:104670007A6D794EC003C002C0017B017A0379A133
:10468000A801AC02AD03D001D002D0037E007F07A9
:104690001207F1126464EF7006126674EF70F41280
:1046A0006674EF70030247287B017A0379A17D07C6
:1046B000125585EF640270709003A1E0FF7E00EF59
:1046C0007F00FE9003B0EEF0A3EFF09003A2E0FFB6
:1046D0007E009003B0E0FCA3E0FDEE4CFEEF4DFF4A
:1046E0009003B0EEF0A3EFF09003A3E0FF9003A8D7
:1046F000EFF09003A4E0FF9003A9EFF09003A5E092
:10470000FF9003AAEFF09003A6E0FF9003ACEFF058
:104710009003A7E0FF9003AFEFF07B017A0379A845
:104720001264079003A0EFF09003A0E0FF22900630
:1047300035E4F0906000E0FFEF5480FF7E00EF640E
:10474000804E7033906001E0FFEF1206BE475421A7
:10475000000047EB9002ACE4F0A37407F07B017A11
:1047600004793C9002AE1206A9125245900635EF2C
:10477000F0807880768074906000E0FFEF5480FFD6
:104780007E00EF4E7065906001E0FFEF1206BE47BD
:10479000992047C622000047EB9002ACE4F0A374D6
:1047A00007F07B017A04793C9002AE1206A99004CE
:1047B00045E0FFEF4401FF900445EFF01256A99049
:1047C0000635EFF08025906002E0FF7E0090044601
:1047D000EEF0A3EFF0900445E0FFEF4402FF9004F9
:1047E00045EFF01263D4900635EFF0900635E0FF08
:1047F00022900532EFF0900534E4F0A3E4F0900548
:1048000032E0FFEFD39400500302489D900532E060
:10481000FFEFC39409400302489D900532E0FF7EFC
:1048200000EF24FFFFEE34FFFEEFC4F8540FC8681A
:10483000FFEEC454F048FE900533EFF0900533E0EE
:10484000FF7E00EF240CFFEE3460FE8F828E83E04B
:10485000FFEF540FFF7E00900534EEF0A3EFF090D1
:104860000533E0FF7E00EF240DFFEE3460FE8F8203
:104870008E83E0FFEFFD7C00900534E0FEA3E0FFB7
:10488000EF7F00FEEE4CFEEF4DFF900534EEF0A3FF
:10489000EFF090053474FF75F0FE1204709005344B
:1048A000E0FEA3E0FF2290060CE4F0906029E0FF18
:1048B000EF540FFFEF24FEFF90060BEFF090060B76
:1048C000E0FF7E00900244EE8FF01204709002AC84
:1048D000E0FEA3E0FFD3EF9400EE94004057900673
:1048E0000BE0FFEFD39400404C90060CE0FF7E00FD
:1048F000EF2400FFEE3460FE8F828E83E0FF900293
:10490000AE1206A0EF1204099002AE1206A0E9242E
:1049100001F9EA3400FA9002AE1206A990060CE002
:1049200004F090060BE014F09002AC74FF75F0FFF9
:10493000120470809890060BE0FF900246EFF09012
:1049400002BEE0FFEF6480FF9002BEEFF0900243F2
:10495000740BF022900479EFF090047A1206A9907B
:10496000047F7407F0904722E0FFEF5402FF7E00BF
:10497000EF4E607D90472074B6F090472074D5F0DC
:104980009047207402F0904722E0FFEF5402FF7E30
:1049900000EF4E7054900479E0FF904720EFF090C4
:1049A0000480E4F0A3E4F090047DE0FEA3E0FF9037
:1049B0000480E0FCA3E0FDC3ED9FEC9E5039900421
:1049C0007A1206A0900480E0FEA3E0FFE92FF9EA46
:1049D0003EFA1203F0FF904720EFF0900480E47558
:1049E000F00112047080C0800E90047F7409F08082
:1049F0000690047F7404F090047FE0FF2290052964
:104A00007401F0906004E0FF90052AEFF0900242FC
:104A1000E0FFEF14FF1257C190052BEEF0A3EFF06B
:104A200090052BE0FEA3E0FF8F828E83A31206B2D7
:104A3000E92404F9EA3400FA1203F0FF90052DEF9F
:104A4000F090052DE0FF90052AE0FEEEC39F500B8D
:104A500090052AE0FFEFC394024007900529E4F097
:104A6000803890052AE0FF74AA2FF582E43402F51D
:104A700083E0FF90052AE0FE74B92EF582E434024B
:104A8000F583EFF0906002E0FF90052AE0FE74AA43
:104A90002EF582E43402F583EFF0900529E0FF2241
:104AA00090054AEFF090054BEDF090054CEAF0A32D
:104AB000EBF090054BE0FFEFC39403500B90054CD7
:104AC00074FF75F0FF12047090054CE0FEA3E0FF48
:104AD0007C007D6412041BAC06AD0790054CE0FE23
:104AE000A3E0FFEF7802CEC313CE13D8F9FFC3EFD4
:104AF0009DFBEE9CFA90054CE0FEA3E0FF7C017D5F
:104B00009012041BEF2BFFEE3AFE90054CE0FCA345
:104B1000E0FDEF2DFFEE3CFE90054BE0FDED906DCE
:104B20002E93FD7C0090054AE0FB7A00ED2BFDEC16
:104B30003AFCEF2DFFEE3CFE7C007D0712041BAF1C
:104B400005229004AC7403F07BFF7A6D794BC003AF
:104B5000C002C0017B017A0479ADA801AC02AD03AB
:104B6000D001D002D0037E007F031207F1126464EB
:104B7000EF7006126674EF70F4126674EF605B7B80
:104B8000017A0479AD7D03125585EF6402704B9074
:104B900004ADE0FF9004B0EFF09004AEE0FF9004AD
:104BA000B1EFF09004AFE0FF9004B2EFF07B017A38
:104BB0000479B0C003C002C0017B017A03796CA8FC
:104BC00001AC02AD03D001D002D0037E007F0312FE
:104BD00007F11227089004ACEFF09004ACE0FF223C
:104BE0009004E1EFF09004E2ECF0A3EDF09004E427
:104BF000EBF09004E67407F0904722E0FFEF5402D8
:104C0000FF7E00EF4E606B90472074B6F090472017
:104C100074D8F09047207405F0904722E0FFEF54DD
:104C200002FF7E00EF4E70429004E1E0FF904720CB
:104C3000EFF09004E2E0FEA3E0FFEEFF7E0090477D
:104C400020EFF09004E2E0FEA3E0FFEF54FFFF90BE
:104C50004720EFF09004E4E0FF904720EFF090044D
:104C6000E5E0FF904720EFF0800E9004E67409F035
:104C700080069004E67404F09004E6E0FF229005BC
:104C8000C1EFF09005C2EDF09044C27480F0904402
:104C9000C37401F09044C07440F09044C07480F03C
:104CA0009044C17401F09002BFE4F09005C2E0FFAF
:104CB000EF1206BE4CBE004CC60100004CCE906008
:104CC000097402F0800E9060097403F08006906011
:104CD000097403F09005C1E0FF9002C0EFF090026C
:104CE00042E4F09002B4E4F09002B8E4F09002BB29
:104CF000E4F0900241E4F09002B5E4F09060287492
:104D000003F09060087480F07F017E007D007C00DD
:104D1000125E009060127404F0229005861206A9BB
:104D20001267879005861206A01203F0FF90039584
:104D3000EFF09005861206A0E92401F9EA3400FAA2
:104D40001203F0FF900396EFF09005861206A0E99B
:104D50002402F9EA3400FA1203F0FF900397EFF00F
:104D60009005861206A0E92404F9EA3400FA120339
:104D7000F0FF900399EFF09005861206A0E9240752
:104D8000F9EA3400FA1203F0FF90039CEFF090056B
:104D9000861206A0E92408F9EA3400FA12049CFFFE
:104DA000AEF090039DEEF0A3EFF012678022900624
:104DB00011E4F0900612E4F0906000E0FFEF54037D
:104DC000FFEF1206BE4DCF014DDB0200004DF99002
:104DD0006004E0FF900612EFF0801E906004E0FF98
:104DE000EF547FFFEF75F00BA42451F582E43402F9
:104DF000F583E0FF900612EFF0900612E0FF9002BC
:104E0000B6E0FCA3E0FD8D828C83E5822FF582E481
:104E10003583F583E493FFEF1206BE4E34014E2C2A
:104E2000024E340300004E34800A800812472E9050
:104E30000611EFF0900611E0FF22430562FF67E8DC
:104E400044040A03D090004404050000FA00410421
:104E5000094044040F7D000000410634004103F086
:104E6000004103EB004103E6004103EC004103E590
:104E700001410393004A0395000000010100010174
:104E8000076C4A03870000000101000101076C4123
:104E9000039F0041039200410394004103910041AC
:104EA0000655004106590041065D0043051A000001
:104EB0000041066A00410671FF004804A40000009A
:104EC0000000000000906028E0FF90066BEFF0907B
:104ED000066BE0FF906028EFF0906028E0FF9006FE
:104EE0006BEFF090066BE0FFEF5480FF7E00EF4E1B
:104EF000600B90066BE0FF900243EFF0227F0212FE
:104F000055E8906000E0FFEF5460FFEF1206BE4FDF
:104F10001C004F26204F304000004F3A12140590DD
:104F2000066BEFF08019124DAE90066BEFF0800F1C
:104F3000125AA990066BEFF0800590066BE4F09092
:104F4000066BE0FFEF70069002437403F0229005B9
:104F5000CBEFF01260F89005CBE0FFEFC394025066
:104F600065125F68EF70579005CBE0FD7F401252ED
:104F7000B1EF6407703D9005CC74FFF0904722E0DC
:104F8000FFEF5402FF7E00EF4E60F1904722E0FFFA
:104F9000EF5402FF7E00EF4E600D904722E0FFEFDE
:104FA0001313543FFF80027FFFEF700D9005CCE498
:104FB000F080069005CC74FFF01264D2800E90054C
:104FC000CC7404F080069005CC7401F09005CCE020
:104FD000FF229004FCEFF09004FDECF0A3EDF090C4
:104FE00004FCE0FFEFD3941F5003D38001C34005BE
:104FF0007F001264E89004FCE0FFEF541FFF7E0086
:10500000EF25E0FFEE33FEEF2400FFEE3444FEAA6E
:1050100006A9077B011266179004FFEEF0A3EFF0DC
:105020009004FCE0FF7E02EF8EF0A4FFAEF0EF24D0
:1050300000FFEE3444FEAA06A9077B019004FDE0C0
:10504000FEA3E0FFAD07AC061266269004FFE0FE6B
:10505000A3E0FF22904E14E0FFEF5403FF9005857C
:10506000EFF0900585E0FFEFD394015032904E11A0
:10507000E0FF7E00900583EEF0A3EFF0900583E063
:10508000FEA3E0FFEF7F00FE904E10E0FD7C00EEFF
:105090004CFEEF4DFF900583EEF0A3EFF0801F7BF9
:1050A000027A4E7910126617900583EEF0A3EFF0A6
:1050B000900585E0FFEFB40305904E12E0FF9003EA
:1050C000EBE0FFEF60059003F0E4F0900583E0FE75
:1050D000A3E0FF229005C3EFF09005C3E0FFEFD3FC
:1050E0009400406E9005C3E0FFEFC39409506390B5
:1050F00005C3E0FF7E00EF24FFFFEE34FFFEEFC4A8
:10510000F8540FC868FFEEC454F048FE9005C4EF91
:10511000F09005C3E0FFEF75F00BA42448F582E49E
:105120003402F583E4F09005C3E0FFEF75F00BA4C3
:10513000244CF582E43402F583E0FF9005C4E0FEE0
:10514000EEFD7C00ED240EFDEC3460FC8D828C8342
:10515000EFF0229005011206A9900504ECF0A3EDF2
:10516000F0900443E0FFEF75F00BA4244FF582E4C8
:105170003402F583E0FEA3E0FF900504E0FCA3E029
:10518000FDD3ED9FEC9E4025900443E0FFEF75F0CA
:105190000BA4244FF582E43402F583E0FEA3E0FF84
:1051A000900504EEF0A3EFF07F001264E890044352
:1051B000E0FF9005011206A0900504E0FCA3E0FDCD
:1051C00090044CECF0A3EDF0122ACC22900242E0C5
:1051D000FFEF14FF1257C1900592EEF0A3EFF0908D
:1051E0000592E0FEA3E0FF8F828E83A31206B2E950
:1051F0002404F9EA3400FA1203F0FF900594EFF06A
:10520000900594E0FF7E00EF2402FFEE3400FEEFF5
:105210007802C333CE33CED8F9FF900592E0FCA3D9
:10522000E0FDEF2DFFEE3CFE900592EEF0A3EFF0D7
:10523000900592E0FEA3E0FF8F828E83A31206B258
:10524000AE02AF01229002ACE0FEA3E0FFEF4E7091
:105250000512621680589002BF7402F09002BEE4FC
:10526000F0125AF9906007E0FF7E00EF7F00FE9099
:105270006006E0FD7C00EE4CFEEF4DFF900607EE71
:10528000F0A3EFF0900607E0FEA3E0FF9002ACE091
:10529000FCA3E0FDD3ED9FEC9E4010900607E0FEDE
:1052A000A3E0FF9002ACEEF0A3EFF01244D37F0135
:1052B0002290058CEFF090058DEDF090058E74072F
:1052C000F0904722E0FFEF5402FF7E00EF4E603F78
:1052D00090472074B6F090472074DBF0904720741C
:1052E00008F0904722E0FFEF5402FF7E00EF4E707F
:1052F0001690058CE0FF904720EFF090058DE0FFC1
:10530000904720EFF0800E90058E7409F080069093
:10531000058E7404F090058EE0FF22906008E0FF97
:10532000EF547FFFEFF0906012E0FFEF54FBFFEFD0
:10533000F09043A5E0FFEF54FEFFEFF09043B5E09F
:10534000FFEF54FEFFEFF09044CA7480F09044CB1E
:105350007401F09044C87440F09044C87480F09098
:1053600044C97401F0900242E4F09002B4E4F09079
:1053700002B8E4F09002BBE4F0900241E4F0900641
:1053800034E4F0221260F890066274FFF0125F6855
:10539000EF704C7F01125766EF6407703D7B017A16
:1053A00005791D7D02125520EFB4021F900662E4BC
:1053B000F0904722E0FFEF5402FF7E00EF4E701A9C
:1053C0007F017E00125FF480E8800F904722E0FFAB
:1053D000EF5402FF7E00EF4E60C31264D28006904D
:1053E00006627404F0900662E0FF22C0E0C083C051
:1053F00082C085C084C086758600C093759300C046
:10540000D075D000C006C00790600EE0FF90025239
:10541000E0FFEF5403FF7E00EF64014E600E900248
:1054200055E0FFEF6480FF900255EFF09002537457
:1054300001F090600BE0FFEF54FEFFEFF0D007D0DB
:1054400006D0D0D093D086D084D085D082D083D0DF
:10545000E032C0E0C083C082C085C084C08675864B
:1054600000C093759300C0D075D000C006C00790EF
:10547000601EE0FF90025DE0FFEF5403FF7E00EF4F
:1054800064014E600E900260E0FFEF6480FF9002C6
:1054900060EFF090025E7401F090600BE0FFEF545B
:1054A000FDFFEFF0D007D006D0D0D093D086D084C7
:1054B000D085D082D083D0E032C0E0C083C082C02B
:1054C00085C084C086758600C093759300C0D07572
:1054D000D000C006C00790602EE0FF900268E0FF99
:1054E000EF5403FF7E00EF64014E600E90026BE00C
:1054F000FFEF6480FF90026BEFF09002697401F09F
:1055000090600BE0FFEF54FBFFEFF0D007D006D028
:10551000D0D093D086D084D085D082D083D0E032D2
:105520009005241206A9900527EDF0900528E4F0D7
:10553000900527E0FF900528E0FEEEC39F504090C5
:105540004722E0FFEF5401FF7E00EF4E6003D3805F
:1055500001C340097F017E00125FF480E290472082
:10556000E0FF9005241206A0900528E0FEE92EF940
:10557000E43AFAEF120409900528E004F080B190B3
:105580000528E0FF229004941206A9900497EDF0FC
:10559000900498E4F0A3E4F090049AE4F090049B63
:1055A0007402F0125D74900498EEF0A3EFF0900492
:1055B00097E0FF7E00900498E0FCA3E0FDEFB505C6
:1055C00018EEB504149004941206A0900497E0FF1E
:1055D000EFFD7C00125FC58009125DE390049B74AF
:1055E00003F090049BE0FF2290066DEFF07B007AC1
:1055F000007900C003C002C0019002B11206A0D021
:1056000082D083D0E06B7008E965827003EA65831D
:10561000603790066DE0FF9002B11206A0EF120411
:1056200009900244E0FEA3E0FF9002B11206A0E957
:105630002401F9EA3400FAEE8FF01204C77B007AF5
:105640000079009002B11206A9229005B5EFF09002
:1056500005B6EDF09005B6E0FFEFD394075003D305
:105660008001C340057F001264E89005B5E0FFEFBC
:10567000D3941F5003D38001C340057F001264E818
:105680009005B6E0FFEF5407FF7E00EF75F020A411
:10569000FFAEF09005B5E0FEEE541FFE74802EF5CF
:1056A00082E43444F583EFF0229002BF7404F0905A
:1056B00002BE7480F0125AF9906007E0FF7E00EF9E
:1056C0007F00FE906006E0FD7C00EE4CFEEF4DFF9B
:1056D000900609EEF0A3EFF0900609E0FEA3E0FFCC
:1056E0009002ACE0FCA3E0FDD3ED9FEC9E40109057
:1056F0000609E0FEA3E0FF9002ACEEF0A3EFF0900D
:105700000243740BF07F012290054E1206A990050A
:1057100051E4F01260F87B007A007900C003C00207
:10572000C00190054E1206A0D082D083D0E06B70ED
:1057300008E965827003EA65837008900551740179
:10574000F0801D125F68EF60089005517404F080CE
:105750000F90054E1206A090051A1206A91264D2E7
:10576000900551E0FF22900601EFF09006027407C9
:10577000F0904722E0FFEF5402FF7E00EF4E6035CD
:1057800090472074B6F090472074E1F09047207461
:105790000EF0904722E0FFEF5402FF7E00EF4E70C4
:1057A0000C900601E0FF904720EFF0800E9006027B
:1057B0007409F080069006027404F0900602E0FF7F
:1057C0002290058FEFF09002C0E0FFEF25E025E08A
:1057D00024B8F582E4346CF5831206B2AE02AF0150
:1057E000900590EEF0A3EFF0900590E0FEA3E0FFAF
:1057F0008F828E83C083C08290058FE0FFD082D0DD
:105800008375F004EF120694E5822405F582E583A2
:105810003400F5831206B2AE02AF01227F017E0092
:10582000125DAE90061CEFF07F027E00125DAE901E
:10583000056DEFF090061CE0FFEF1206BE584D001C
:10584000585401585B02586203000058677F0112E8
:1058500065D580137F021265D5800C7F041265D553
:1058600080057F081265D590056BE4F0A3E4F02273
:105870009005D9EFF01265519005DAEFF09046F8F7
:10588000E0FFEF4403FFEFF09046F9E0FFEF440341
:10589000FFEFF09005D9E0FF905892EFF07F037E84
:1058A00000125FF49046F8E0FFEF54FCFFEFF09039
:1058B00046F9E0FFEF54FCFFEFF09005DAE0FF124D
:1058C000641F2290059FE4F0A3E4F01262CB126003
:1058D000A590059FEEF0A3EFF01267BD7B017A055E
:1058E000799FC003C002C0019005621206A090001B
:1058F000031206A9900006E4F0A37402F0D001D0D0
:1059000002D0031220641267C1900563E475F002AF
:1059100012047022C0E0C0F0C083C082C085C08481
:10592000C086758600C093759300C0D075D000C046
:1059300000C001C002C003C004C005C006C00712F9
:10594000416AD007D006D005D004D003D002D001E0
:10595000D000D0D0D093D086D084D085D082D083D0
:10596000D0F0D0E032C0E0C0F0C083C082C085C0BB
:1059700084C086758600C093759300C0D075D00032
:10598000C000C001C002C003C004C005C006C007FB
:105990001258C3D007D006D005D004D003D002D00F
:1059A00001D000D0D0D093D086D084D085D082D002
:1059B00083D0F0D0E032C0E0C0F0C083C082C085A8
:1059C000C084C086758600C093759300C0D075D022
:1059D00000C000C001C002C003C004C005C006C0B2
:1059E000071266F8D007D006D005D004D003D00245
:1059F000D001D000D0D0D093D086D084D085D082B2
:105A0000D083D0F0D0E032C0E0C0F0C083C082C00C
:105A100085C084C086758600C093759300C0D0751C
:105A2000D000C000C001C002C003C004C005C00651
:105A3000C007123B91D007D006D005D004D003D0C8
:105A400002D001D000D0D0D093D086D084D085D0E1
:105A500082D083D0F0D0E032C0E0C0F0C083C082FA
:105A6000C085C084C086758600C093759300C0D081
:105A700075D000C000C001C002C003C004C005C092
:105A800006C007125F38D007D006D005D004D00377
:105A9000D002D001D000D0D0D093D086D084D08591
:105AA000D082D083D0F0D0E03290067AE4F09060DB
:105AB00000E0FFEF5480FF7E00EF64804E70349072
:105AC0006001E0FFEF1206BE5ACF0100005AF37BDF
:105AD000FF7A6C79CD9002AE1206A9906CCDE4935A
