:100000000205D8008F828E83E0540100000070F852
:100010002278FFE4F6D8FD020636BB010689828A03
:1000200083E0225002E722BBFE02E32289828A8318
:10003000E49322BB010689828A83F0225002F722D0
:10004000BBFE01F322C5F0F8A3E028F0C5F0F8E507
:1000500082158270021583E038F022EF2BFFEE3A12
:10006000FEED39FDEC38FC22E88FF0A4CC8BF0A437
:100070002CFCE98EF0A42CFC8AF0EDA42CFCEA8E7A
:10008000F0A4CDA8F08BF0A42DCC3825F0FDE98F9D
:10009000F0A42CCD35F0FCEB8EF0A4FEA9F0EB8F94
:1000A000F0A4CFC5F02ECD39FEE43CFCEAA42DCE61
:1000B00035F0FDE43CFC2275F008758200EF2FFF5F
:1000C000EE33FECD33CDCC33CCC58233C5829BED30
:1000D0009AEC99E58298400CF582EE9BFEED9AFD34
:1000E000EC99FC0FD5F0D6E4CEFBE4CDFAE4CCF9E4
:1000F000A88222B800C1B90059BA002DEC8BF08457
:10010000CFCECDFCE5F0CBF97818EF2FFFEE33FE24
:10011000ED33FDEC33FCEB33FB10D703994004EBDC
:1001200099FB0FD8E5E4F9FA227818EF2FFFEE33A8
:10013000FEED33FDEC33FCC933C910D7059BE99ABA
:100140004007EC9BFCE99AF90FD8E0E4C9FAE4CC4B
:10015000FB2275F010EF2FFFEE33FEED33FDCC33B5
:10016000CCC833C810D7079BEC9AE899400AED9B9E
:10017000FDEC9AFCE899F80FD5F0DAE4CDFBE4CC7D
:10018000FAE4C8F922EF4BFFEE4AFEED49FDEC48D8
:10019000FC22E8600FECC313FCED13FDEE13FEEF41
:1001A00013FFD8F122E8600FEFC333FFEE33FEED0B
:1001B00033FDEC33FCD8F122E0FCA3E0FDA3E0FE2C
:1001C000A3E0FF22E0F8A3E0F9A3E0FAA3E0FB221A
:1001D000ECF0A3EDF0A3EEF0A3EFF022E0FBA3E040
:1001E000FAA3E0F922EBF0A3EAF0A3E9F022E4930A
:1001F000FB740193FA740293F922D083D082F8E45D
:10020000937012740193700DA3A393F8740193F586
:10021000828883E4737402936860EFA3A3A380DFF2
:10022000E50C2582F582E50B3583F583B50B048556
:10023000820C2210AF0685820CF50B2285820CF50C
:100240000BD2AF22EC8EF0A4CCC5F0CCCDF8EFA44D
:10025000CEC5F02DFDE43CFCE8A42EC8C5F03DFD64
:10026000E43CFCEFA4FFE5F028FEE43DFDE43CFCAB
:1002700022E709F608DFFA8046E709F208DFFA808C
:100280003E88828C83E709F0A3DFFA8032E309F627
:1002900008DFFA806EE309F208DFFA806688828C54
:1002A00083E309F0A3DFFA805A89828A83E0A3F608
:1002B00008DFFA804E89828A83E0A3F208DFFA80A1
:1002C0004280D280FA80C680D4805580F280298016
:1002D0001080A680EA809A80A880DA80E280CA80B6
:1002E0002988848C8589828A83E493A30586F0A378
:1002F0000586DFF5DEF3800B89828A83E493A3F61B
:1003000008DFF9ECFAA9F0EDFB2288848C8589825C
:100310008A83E0A30586F0A30586DFF6DEF480E39A
:1003200089828A83E493A3F208DFF980D688F0EF0C
:1003300060010E4E60CD88F0ED2402B4040050C37D
:10034000F582EB2402B4040050B9232345822390A4
:1003500002C1737B007A4679E81207F3EF4405FD8A
:100360007B007A4679E81209B2750A00E50AC3945F
:1003700008503AAF0AEF75F005A424D8F582E434AA
:1003800009F583AF82AE838E088F09AE08AF098F5F
:10039000828E831201EEAE08AF098F828E837403C2
:1003A00093FC740493FD120919050A80BF7B087A37
:1003B0000079001208687B017A5079031207F3EF85
:1003C0004402FD7B017A5079031209B27B017A5015
:1003D00079131207F3EF4402FD7B017A507913126F
:1003E00009B29043A0E0FFEF4440FF9043A0EFF03C
:1003F0009043C2E0FFEF4410FF9043C2EFF07B0850
:100400007A0079DCC003C002C0017B007A51790216
:100410009000561201E5D001D002D0037F087E0083
:100420001207BF7B087A0079E4C003C002C0017BD9
:10043000007A5179F09000561201E5D001D002D037
:10044000037F0A7E001207BF7B087A0079F0C003A1
:10045000C002C0017B007A5179629000561201E51A
:10046000D001D002D0037F087E001207BF9044F471
:100470007401F0904322E0FFEF4408FF904322EF25
:10048000F09046ECE0FFEFC3940550069046897467
:100490003AF090480074F1F01204D590480074B11D
:1004A000F01207897B007A4379A0C003C002C00123
:1004B0007B007A4379B09000561201E5D001D0025A
:1004C000D0037F0E7E001207BF9043B0E0FFEF54D1
:1004D000FDFFEFF0227B007A4079807D637C001283
:1004E00009A3904082741BF09043007406F0904280
:1004F000007452F07B0C7A01790F1207F39046A139
:10050000EFF07B007A4279227D087C071209A37BF9
:10051000007A4279207D517C121209A3900055E4A3
:10052000F07F197E007D007C009000511201D09078
:1005300000511201B8D3EF9400EE9400404E9000A9
:1005400055E0FFEF64036044904225E0FFEF540163
:10055000FF7E00900055E0FEEE25E0FEEE4FFFEF3F
:100560005403FF900055EFF07FE07E017D007C009A
:100570001208009000511201B87BFF7AFF79FF78D2
:10058000FF12005B9000511201D080A39000511225
:1005900001B8EF4E70057F031209707B007A407935
:1005A000047D007C011209A39040047407F0904080
:1005B00006E4F09040087448F0904004E4F0904065
:1005C00009E4F09040017402F09043A2E0FFEF4490
:1005D00001FF9043A2EFF0227593007800758346E7
:1005E0007582E8E04401F0009046ECE0F99046FAAC
:1005F000E0FAB903225420B40012B8001AEA901F9E
:10060000FFF07401901FFEF09046F6F0901FFEE0A0
:100610006005901FFFE0FA90480074C0F075810CEF
:1006200090000078007920E4F0A3D8FCD9FAEA9091
:10063000004CF0020011750B1F750CFD12035302E4
:10064000067D020982E493A3F8E493A34003F680B5
:1006500001F208DFF48029E493A3F85407240CC8BE
:10066000C333C4540F4420C8834004F45680014669
:10067000F6DFE4800B010204081020408090083B64
:10068000E47E019360BCA3FF543F30E509541FFE94
:10069000E493A360010ECF54C025E060A840B8E405
:1006A00093A3FAE493A3F8E493A3C8C582C8CAC588
:1006B00083CAF0A3C8C582C8CAC583CADFE9DEE71A
:1006C00080BEC0E0C0F0C083C082C085C084C08648
:1006D000758600C093759300C0D075D000C000C06F
:1006E00001C002C003C004C005C006C0077FFA7E77
:1006F000001208951209BEEF70F3800280EF7FF4BC
:100700007E01120895D007D006D005D004D003D0C2
:1007100002D001D000D0D0D093D086D084D085D064
:1007200082D083D0F0D0E032904F00E0FFEF540150
:10073000FFEFF0904F02E0FFEF54FCFFEFF0904F1F
:100740000BE0FFEF54CFFFEFF0904F0BE0FFEF44D3
:1007500030FFEFF0904F0BE0FFEF54F0FFEFF09021
:100760004F0BE0FFEF440FFFEFF0904F01E0FFEF82
:100770004401FFEFF07FF37E011208957FF37E01C5
:100780001208FF7F00120993227B0C7A0179CF12A5
:1007900007F3900051EFF0900051E0FFEF5407FF96
:1007A00090586EEFF0900051E0FFEFC4540FFFEF50
:1007B000540FFF90586FEFF09058767444F0227504
:1007C0008600EF4E6027EF60010E75930090005693
:1007D000E0F595A3E0F585A3E0F5848B938A838902
:1007E00082E0A30586F0A31586DFF6DEF4E4F59338
:0F07F000F595228B938A838982E0759300FF220F
:10080000EC4D4E700D78FCEF24E950032840FD229A
:1008100000007BF178DA0000EF28FF78FFEE38FE69
:10082000ED38FDEC38FC50E7EF2BFFEE38FEED38ED
:10083000FDEC38FC40F2220502030442006201F4A0
:1008400041006400440048016E360044004300004B
:100850005DC04100471844004D2EE0000043005D9C
:100860000000004100650000ACEAADA08B938A83D4
:100870008982E0F96017A3E0F5EAA3E0F5A0A3E020
:1008800060F4FAA3E0F8A3E0F2DAF8D9E98DA08CDD
:10089000EAE4F59322900059EEF0A3EFF0900059AE
:1008A000E0FEA3E0FF90005BEEF0A3EFF07B027AA6
:1008B0004F790490005BE0FCA3E0FD1209A52290B3
:1008C00043A3E0FFEF4401FFEFF09043B3E0FFEFFD
:1008D0004401FFEFF0904F00E0FFEF4401FFEFF025
:1008E00022900051EEF0A3EFF07B027A4479009061
:1008F0000051E0FEA3E0FFAD07AC061209A522906F
:100900000051EEF0A3EFF07B027A4F790690005190
:10091000E0FCA3E0FD1209A522EC4D6011ED6001A1
:100920000C8B938A838982E4F0A3DDFCDCFA759357
:100930000022900051EFF0900051E0FFEFC43354DB
:10094000E0FF904480EFF022900064E0FFEF700938
:100950001207289000647401F01208BF221209D116
:100960007E067FC21208E17F071209321209CA22ED
:10097000900056EFF0900056E0FF900056EFF080A8
:10098000FE22D2AF9044F474FDF012095D120948C2
:1009900080FE22900051EFF0900051E0FF904F0355
:1009A000EFF0228B938A838982EDF0A3ECF07593AC
:1009B00000228B938A838982EDF0759300229051F7
:1009C00061E0FFEF5401FF7E00229044C07401F00B
:1009D000229044C87401F022004F00000C00511016
:1009E00000500051C0001001000010000114000868
:1009F000000140000A00014C0002000150000020EC
:00000001FF
