:1000000002415A008F828E83E0540100000070F894
:100010002278FFE4F6D8FD0241B80203DBE86480F1
:10002000F8E933E83360110460F0ED33EC33700924
:10003000E8FCE9FDEAFEEBFF220460DED3EB9FEA79
:100040009EE99DE8C2E78CF0C2F795F0400CE8CC41
:10005000F8E9CDF9EACEFAEBCFFB1203A685D0F092
:100060005804700320D5B3E80470075002B2D502DB
:1000700003E592D5EC0460F7E4CCC0E0C398F860E7
:100080003B94186008400DD0E0FB0203BDE4FBFA8E
:10009000C9FC8028E830E406E4C9FBE4CAFCE83087
:1000A000E305E4C9CACBFCE854076010F8C3E913C0
:1000B000F9EA13FAEB13FBEC13FCD8F130F52FC37C
:1000C000E49CFCEF9BFFEE9AFEED99FDD0E0FBEF88
:1000D0004E4D4C701222DB030203E2EC2CFCEF339A
:1000E000FFEE33FEED33FDED30E7EB0203BDEF2B0A
:1000F000FFEE3AFEED39FDD0E0FB50130BBB0003E1
:100100000203E5ED13FDEE13FEEF13FFEC13FC020B
:1001100003BDEC4D6011E8497017ED33EC3304601A
:100120000DE4FCFFFEFD22E933E8330470F802031E
:10013000DB1203A658046009E4CC24815006285041
:10014000090203E52840030203E2C0E0EB4A7044E1
:10015000B98006D0E0FB0203D1EF4E701CBD8008D1
:10016000EBFFEAFEE9FD80EBE98DF0A4FEE5F0028D
:1001700001FBE9CDF9EAFEEBFFEF89F0A4FCE5F025
:10018000CE89F0A42EFFE435F0CD89F0A42DFEE455
:1001900035F08067EF4E7005BD80D780C3EF8BF0E0
:1001A000A4ACF0EE8BF0A42CFCE435F0F8EF8AF070
:1001B000A42CE5F038FCE433CB8DF0A42CFCE5F066
:1001C0003BF8EE8AF0A42CFCE5F038F8E433CF8954
:1001D000F0A42CFCE5F038CF3400CE89F0A42FFF3A
:1001E000E5F03EFEE433C98DF0A42EFEE5F039CDF6
:1001F0008AF0A42FFFE5F03EFEE43DFD33D0E0FBA6
:1002000050070BBB000F0203E5EC2CFCEF33FFEEB5
:1002100033FEED33FD0203BD0203E5EC5D04600532
:10022000E8590470030203DB1203A6580460F6ECDD
:100230004860F2EC7004FDFEFF22C860DB2481C838
:100240005009C398600250060203E29850CAF58232
:10025000E9294B4A7005AB820203D175F0007C1A84
:100260007880C3EF9BEE9AED99400DC3EF9BFFEEB4
:100270009AFEED99FDE842F0DC23ACF0D0E0FFD02F
:10028000E0FED0E0FDAB8220E7101BEB60BAEC2C67
:10029000FCEF33FFEE33FEED33FD0203BDE803F860
:1002A00030E705C0F075F000EF2FFFEE33FEED33C1
:1002B000FD40B830E7C280AA74F8CC6480CCC86432
:1002C00080C8F58204604FC3EB9FF5F0EA9E42F0D0
:1002D000E99D42F0E89C45F0603C501DE5825FFFDF
:1002E000E582D313CB5BCBF42B5582FB50280ABAA3
:1002F000002409B9002008801DE5825BFBE582D35C
:1003000013CF5FCFF4C3132F5582FF50090EBE00E9
:10031000050DBD00010CC3EB9FF5F0EA9E42F0E92C
:100320009D42F0E89C45F06007CC4820E701B3EC23
:100330002275F020800E75F010800575F0087D00A4
:100340007E007F003392D530D503120615EC334082
:1003500010EF33FFEE33FEED33FDEC33FCD5F0ED63
:1003600022E5F0247EA2D513CC92E7CDCEFF22ED7C
:10037000D2E7CD33EC3392D524814006E4FFFEFD75
:10038000FC22FCE4CFCECDCC24E0501174FF80EDF4
:10039000C3CC13CCCD13CDCE13CECF13CF0470F07E
:1003A00030D5DE020615E9D2E7C933E833F892D535
:1003B000EDD2E7CD33EC33FC5002B2D522EC30E77E
:1003C000100FBF000C0EBE00080DBD00040BEB604B
:1003D00014A2D5EB13FCED92E7FD2274FFFCFDFEA9
:1003E000FF22E480F8A2D574FF13FC7D80E480EF47
:1003F000BB010689828A83E0225002E722BBFE020B
:10040000E32289828A83E49322BB010689828A835C
:10041000F0225002F722BBFE01F322BC000BBE000B
:1004200029EF8DF084FFADF022E4CCF875F008EFF1
:100430002FFFEE33FEEC33FCEE9DEC984005FCEE16
:100440009DFE0FD5F0E9E4CEFD22EDF8F5F0EE8447
:1004500020D21CFEADF075F008EF2FFFED33FD400C
:1004600007985006D5F0F222C398FD0FD5F0EA2286
:10047000C5F0F8A3E028F0C5F0F8E5821582700217
:100480001583E038F022BB010A89828A83E0F5F007
:10049000A3E022500687F009E71922BBFE07E3F527
:1004A000F009E3192289828A83E493F5F0740193B9
:1004B00022BB010A89828A83F0E5F0A3F02250066C
:1004C000F709A7F01922BBFE06F3E5F009F319229C
:1004D000EF2BFFEE3AFEED39FDEC38FC22C3EF9B2B
:1004E000FFEE9AFEED99FDEC98FC22E88FF0A4CC8B
:1004F0008BF0A42CFCE98EF0A42CFC8AF0EDA42C4B
:10050000FCEA8EF0A4CDA8F08BF0A42DCC3825F019
:10051000FDE98FF0A42CCD35F0FCEB8EF0A4FEA904
:10052000F0EB8FF0A4CFC5F02ECD39FEE43CFCEA11
:10053000A42DCE35F0FDE43CFC2275F00875820058
:10054000EF2FFFEE33FECD33CDCC33CCC58233C598
:10055000829BED9AEC99E58298400CF582EE9BFE29
:10056000ED9AFDEC99FC0FD5F0D6E4CEFBE4CDFA84
:10057000E4CCF9A88222B800C1B90059BA002DEC28
:100580008BF084CFCECDFCE5F0CBF97818EF2FFFC0
:10059000EE33FEED33FDEC33FCEB33FB10D7039968
:1005A0004004EB99FB0FD8E5E4F9FA227818EF2F15
:1005B000FFEE33FEED33FDEC33FCC933C910D70534
:1005C0009BE99A4007EC9BFCE99AF90FD8E0E4C953
:1005D000FAE4CCFB2275F010EF2FFFEE33FEED3383
:1005E000FDCC33CCC833C810D7079BEC9AE89940B0
:1005F0000AED9BFDEC9AFCE899F80FD5F0DAE4CD12
:10060000FBE4CCFAE4C8F922EF4BFFEE4AFEED49D9
:10061000FDEC48FC22C3E49FFFE49EFEE49DFDE464
:100620009CFC22EB9FF5F0EA9E42F0E99D42F0E847
:100630009C45F022E8600FECC313FCED13FDEE13B4
:10064000FEEF13FFD8F122E8600FEFC333FFEE3364
:10065000FEED33FDEC33FCD8F122E0FCA3E0FDA37A
:10066000E0FEA3E0FF22E0F8A3E0F9A3E0FAA3E0B4
:10067000FB22ECF0A3EDF0A3EEF0A3EFF022A42513
:1006800082F582E5F03583F58322E0FBA3E0FAA34F
:10069000E0F922EBF0A3EAF0A3E9F022E493FB7483
:1006A0000193FA740293F922D083D082F8E4937014
:1006B00012740193700DA3A393F8740193F58288CB
:1006C00083E4737402936860EFA3A3A380DFE50C57
:1006D0002582F582E50B3583F583B50B0485820C05
:1006E0002210AF0685820CF50B2285820CF50BD209
:1006F000AF22EC8EF0A4CCC5F0CCCDF8EFA4CEC5E3
:10070000F02DFDE43CFCE8A42EC8C5F03DFDE43C22
:10071000FCEFA4FFE5F028FEE43DFDE43CFC22E70D
:1007200009F608DFFA8046E709F208DFFA803E881A
:10073000828C83E709F0A3DFFA8032E309F608DF51
:10074000FA806EE309F208DFFA806688828C83E320
:1007500009F0A3DFFA805A89828A83E0A3F608DFD2
:10076000FA804E89828A83E0A3F208DFFA80428011
:10077000D280FA80C680D4805580F2802980108093
:10078000A680EA809A80A880DA80E280CA802988E0
:10079000848C8589828A83E493A30586F0A30586E9
:1007A000DFF5DEF3800B89828A83E493A3F608DF0A
:1007B000F9ECFAA9F0EDFB2288848C8589828A8382
:1007C000E0A30586F0A30586DFF6DEF480E38982E8
:1007D0008A83E493A3F208DFF980D688F0EF600102
:1007E0000E4E60CD88F0ED2402B4040050C3F582B3
:1007F000EB2402B4040050B9232345822390076FF1
:1008000073C0E0C0F0C083C082C085C084C086755C
:100810008600C093759300C0D075D000C000C001A1
:10082000C002C003C004C005C006C0077F04125F39
:1008300019900394E004F0900394E0FFEFD3943B0D
:100840005003020DFB900395E004F0900394E4F054
:10085000900395E0FFEFD3943B5003020D549003B7
:1008600096E004F0900395E4F0900396E0FFEFD358
:1008700094175003020C84900398E004F0900396C0
:10088000E4F0900399E475F001120470900397E08E
:1008900004F0900397E0FFEFD3940740069003978E
:1008A0007401F0900390E0FFEF5402FF7E00EF4EE2
:1008B000602C90039BE0FFEFB4022390039BE0FFCA
:1008C000EF90700993FF7E00EF2401FFEE3400FEED
:1008D000900398E0FD7C00D3ED9FEC9E5058900370
:1008E00090E0FFEF5402FF7E00EF4E601F90039BED
:1008F000E0FFEF6402601590039BE0FFEF9070094A
:1009000093FF900398E0FEEED39F502A900390E06F
:10091000FFEF5402FF7E00EF4E6003020B219003B5
:100920009BE0FFEF90700993FF900398E0FEEED3F9
:100930009F5003020B2190039BE004F090039874F6
:1009400001F090039BE0FFEFD3940C5003020A7A6E
:1009500090039CE475F00112047090039B7401F005
:10096000900399E4F0A37401F090039CE0FEA3E0EF
:10097000FF7C017D9012041BED4C602590039CE0F0
:10098000FEA3E0FF7E00EF5403FFEF4E70179003CD
:100990009CE0FEA3E0FF7C007D6412041BED4C6034
:1009A000047F0180027F00EFB40110900390E0FF0C
:1009B000EF4402FF900390EFF0800E900390E0FF71
:1009C000EF54FDFF900390EFF090039EE0FFEF5493
:1009D00080FF7E00EF64804E70047F0180027F0004
:1009E000EF603690039CE0FEA3E0FF90038EE0FCF6
:1009F000A3E0FDEDB50714ECB50610900391E0FF00
:100A0000EF4480FF900391EFF0800E900391E0FFA0
:100A1000EF547FFF900391EFF090039EE0FF90066C
:100A200077EFF0900677E0FFEF6032900677E0FF17
:100A3000900391E0FEEE5FFF900677E0FEEFB506D3
:100A4000047F0180027F00EF6013900390E0FFEFCE
:100A50004408FF900390EFF0900391E4F09003932B
:100A6000E0FFEF5440FF7E00EF64404E70047F01D2
:100A700080027F00EF6003126ACB90039EE0FFEFDD
:100A80005440FF7E00EF64404E70047F0180027F7F
:100A900000EF602C90039BE0FF90038DE0FEEEB52D
:100AA0000710900391E0FFEF4440FF900391EFF0B7
:100AB000800E900391E0FFEF54BFFF900391EFF0A1
:100AC00090039EE0FF900677EFF0900677E0FFEF4F
:100AD0006032900677E0FF900391E0FEEE5FFF90BA
:100AE0000677E0FEEFB506047F0180027F00EF602D
:100AF00013900390E0FFEF4408FF900390EFF09015
:100B00000391E4F0900393E0FFEF5420FF7E00EFA9
:100B100064204E70047F0180027F00EF6003126A40
:100B2000C790039EE0FFEF5408FF7E00EF64084E7D
:100B300070047F0180027F00EF602C900397E0FF3C
:100B4000900389E0FEEEB50710900391E0FFEF44BB
:100B500008FF900391EFF0800E900391E0FFEF54B7
:100B6000F7FF900391EFF090039EE0FFEF5420FF1A
:100B70007E00EF64204E70047F0180027F00EF60F2
:100B800036900399E0FEA3E0FF90038BE0FCA3E026
:100B9000FDEDB50714ECB50610900391E0FFEF44AE
:100BA00020FF900391EFF0800E900391E0FFEF544F
:100BB000DFFF900391EFF090039EE0FFEF5410FFF2
:100BC0007E00EF64104E70047F0180027F00EF60B2
:100BD0002C900398E0FF90038AE0FEEEB50710909A
:100BE0000391E0FFEF4410FF900391EFF0800E902F
:100BF0000391E0FFEF54EFFF900391EFF090039E1D
:100C0000E0FF900677EFF0900677E0FFEF6032901C
:100C10000677E0FF900391E0FEEE5FFF900677E03D
:100C2000FEEFB506047F0180027F00EF60139003A2
:100C300090E0FFEF4408FF900390EFF0900391E401
:100C4000F0900393E0FFEF5408FF7E00EF64084E3E
:100C500070047F0180027F00EF6003126ABF90037F
:100C600097E0FFEFB4011D900393E0FFEF5410FFF6
:100C70007E00EF64104E70047F0180027F00EF6001
:100C800003126AC3900396E0FFEFC3940C501090D8
:100C90000390E0FFEF54FBFF900390EFF0800E9085
:100CA0000390E0FFEF4404FF900390EFF090039E69
:100CB000E0FFEF5404FF7E00EF64044E70047F01F8
:100CC00080027F00EF602C900396E0FF900388E0A5
:100CD000FEEEB50710900391E0FFEF4404FF900390
:100CE00091EFF0800E900391E0FFEF54FBFF900333
:100CF00091EFF090039EE0FF900677EFF09006777B
:100D0000E0FFEF6032900677E0FF900391E0FEEEA7
:100D10005FFF900677E0FEEFB506047F0180027F5B
:100D200000EF6013900390E0FFEF4408FF90039002
:100D3000EFF0900391E4F0900393E0FFEF5404FF91
:100D40007E00EF64044E70047F0180027F00EF603C
:100D500003126ABB90039EE0FFEF5402FF7E00EF98
:100D600064024E70047F0180027F00EF602C9003CC
:100D700095E0FF900387E0FEEEB50710900391E049
:100D8000FFEF4402FF900391EFF0800E900391E09B
:100D9000FFEF54FDFF900391EFF090039EE0FF9072
:100DA0000677EFF0900677E0FFEF6032900677E08D
:100DB000FF900391E0FEEE5FFF900677E0FEEFB557
:100DC00006047F0180027F00EF6013900390E0FF34
:100DD000EF4408FF900390EFF0900391E4F090034C
:100DE00093E0FFEF5402FF7E00EF64024E70047F39
:100DF0000180027F00EF6003126AB790039EE0FF5C
:100E0000EF5401FF7E00EF64014E70047F01800209
:100E10007F00EF602C900394E0FF900386E0FEEEED
:100E2000B50710900391E0FFEF4401FF900391EFAD
:100E3000F0800E900391E0FFEF54FEFF900391EFDE
:100E4000F090039EE0FF900677EFF0900677E0FFCA
:100E5000EF6032900677E0FF900391E0FEEE5FFFD7
:100E6000900677E0FEEFB506047F0180027F00EF79
:100E70006013900390E0FFEF4408FF900390EFF0C1
:100E8000900391E4F0900393E0FFEF5401FF7E00A4
:100E9000EF64014E70047F0180027F00EF60031257
:100EA0006AB3D007D006D005D004D003D002D00159
:100EB000D000D0D0D093D086D084D085D082D083BB
:100EC000D0F0D0E032900420EFF0900428E4F0A3BA
:100ED000E4F0900421E4F0900421E0FFEFC39409D2
:100EE0004003020F84900421E0FFEF75F00BA4246F
:100EF00047F582E43402F583E4F0900421E0FFEF4B
:100F000075F00BA42449F582E43402F583E4F090F3
:100F10000421E0FFEF75F00BA42448F582E43402CD
:100F2000F583E4F0900421E0FFEF75F00BA4244A70
:100F3000F582E43402F583E4F0900421E0FFEF75DC
:100F4000F00BA4244CF582E43402F583E4F0900421
:100F500021E0FFEF75F00BA4244FF582E43402F595
:100F600083E4F0A3E4F0900421E0FFEF75F00BA41C
:100F70002451F582E43402F583E4F0900421E00486
:100F8000F0020ED7900420E0FFEF603A900423E4D3
:100F9000F0900423E0FFEFC39402502A900423E072
:100FA000FF74AA2FF582E43402F583E4F090042361
:100FB000E0FF74B92FF582E43402F583E4F0900485
:100FC00023E004F080CB900242E0FFEFD394005086
:100FD000030213EE900242E0FFEF14FF125B2A902F
:100FE000042AEEF0A3EFF090042AE0FEA3E0FF8FC6
:100FF000828E83A312069C900425120693900425EA
:1010000012068AE92407F9EA3400FA1203F0FFEF26
:101010005440FF7E00EF4E6010900241E0FFEF442D
:1010200001FF900241EFF0800E900241E0FFEF548B
:10103000FEFF900241EFF090042AE0FEA3E0FFEFF4
:101040002404FFEE3400FE90042AEEF0A3EFF090AB
:10105000042AE0FEA3E0FF8F828E83E493FF9004D6
:1010600021EFF09004237401F0900423E0FFEFC31C
:101070009409400302130390042AE0FEA3E0FF8FCB
:10108000828E83A312069CAE02AF0190042CEEF078
:10109000A3EFF0900422E4F0900421E0FF900422FA
:1010A000E0FEEEC39F40030212FA90042CE0FEA380
:1010B000E0FF8F828E83740293FFEF547FFF7E00E8
:1010C000900423E0FD7C00ED6F7002EC6E60030283
:1010D00012D990042CE0FEA3E0FF8F828E8374046B
:1010E00093FE740593FF900423E0FDED75F00BA4CF
:1010F000244FF582E43402F583E0FCA3E0FDC3ED68
:101100009FEC9E502C90042CE0FEA3E0FF8F828E7B
:1011100083740493FE740593FF900423E0FDED7542
:10112000F00BA4244FF582E43402F583EEF0A3EF34
:10113000F090042CE0FEA3E0FF8F828E83E493FF07
:1011400074AA2FF582E43402F583E0FF90042CE0CA
:10115000FCA3E0FD8D828C83740193FEEF6E60032F
:101160000212D990042CE0FEA3E0FF8F828E8374DC
:101170000393FFEF5403FF900424EFF090042CE05E
:10118000FEA3E0FF8F828E83740293FFEF5480FFF3
:101190007E00EF4E7003021219900423E0FFEF75FA
:1011A000F00BA42448F582E43402F5837401F09036
:1011B0000424E0FFEFB401047F0780027F0D900458
:1011C00023E0FEEE75F00BA4244CF582E43402F526
:1011D00083EFF090042CE0FEA3E0FF8F828E8374F7
:1011E0000693FFEF640A601890042CE0FEA3E0FF72
:1011F0008F828E83740693FFEF6402600302128F66
:10120000900424E0FFEF6403700302128F90042324
:10121000E0FF900442EFF08076900423E0FFEF754A
:10122000F00BA42448F582E43402F583E4F0900442
:1012300024E0FFEFB401047F0580027F09900423BE
:10124000E0FEEE75F00BA4244CF582E43402F58345
:10125000EFF090042CE0FEA3E0FF8F828E837406F3
:1012600093FFEF640A601490042CE0FEA3E0FF8F6C
:10127000828E83740693FFEFB40214900424E0FF7F
:10128000EF6403600A900423E0FF900443EFF090C2
:10129000042CE0FEA3E0FF8F828E83740293FF9004
:1012A0000423E0FEEE75F00BA4244BF582E4340237
:1012B000F583EFF090042CE0FEA3E0FF8F828E8395
:1012C000740393FF900423E0FEEE75F00BA4244713
:1012D000F582E43402F583EFF090042CE0FEA3E005
:1012E000FFEF2407FFEE3400FE90042CEEF0A3EF96
:1012F000F0900422E004F0021098900423E004F03F
:1013000002106990042AE0FEA3E0FF8F828E83A37F
:1013100012069CAE02AF0190042CEEF0A3EFF09009
:101320000423E4F0900421E0FF900423E0FEEEC3E8
:101330009F505390042CE0FEA3E0FF8F828E83E445
:1013400093FF90042CE0FCA3E0FD8D828C8374025B
:1013500093FEEE547FFEEE75F00BA42451F582E46B
:101360003402F583EFF090042CE0FEA3E0FFEF24BD
:1013700007FFEE3400FE90042CEEF0A3EFF0900493
:1013800023E004F0809E1252A89002B6EEF0A3EF84
:10139000F09004217401F0900421E0FFEFC3940960
:1013A0005049900428E0FEA3E0FF900421E0FDED09
:1013B00075F00BA4244DF582E43402F583EEF0A31E
:1013C000EFF0900421E0FFEF75F00BA4244FF582BD
:1013D000E43402F583E0FEA3E0FF900428EE8FF0F2
:1013E000120470900421E004F080AC1224FD2290DD
:1013F0000481E4F07B007A00790090048312069364
:101400009002ACE4F0A3E4F0906000E0FFEF5480C1
:10141000FF7E00EF64804E60030216C3906001E01F
:10142000FFEF1206A815E500143506167408169489
:101430000A00001889906003E0FFEFB401351266DE
:10144000CC900488EEF0A3EFF0900488E0FEA3E0D7
:10145000FF8F828E83A312069C9002AE1206939099
:1014600002ACE4F0A37412F01254E3900481EFF0A4
:10147000021889906003E0FFEF6402706B906002D5
:10148000E0FF125B2A900488EEF0A3EFF09004884E
:10149000E0FEA3E0FF8F828E83A312069C9002AE33
:1014A0001206939002AE12068AE92403F9EA340088
:1014B000FA1203F0FF7E00EF7F00FE9002AE1206EC
:1014C0008AE92402F9EA3400FA1203F0FD7C00EE06
:1014D0004CFEEF4DFF9002ACEEF0A3EFF01254E3A0
:1014E000900481EFF0021889906003E0FFEF64033D
:1014F00060030215DA900486E4F07BFF7A6F7929A5
:10150000900483120693900486E0FF906002E0FE50
:10151000EED39F403D90048312068A1203F0FFEF42
:10152000603090048312068A1203F0FF900487EF64
:10153000F090048312068A900487E0FF7E00E92F72
:10154000F9EA3EFA900483120693900486E004F0D0
:1015500080B4906002E0FFEFB4EE0C7BFF7A6F790D
:10156000A7900483120693906002E0FFEF60309032
:101570006EE4E493FF906002E0FEEEB507217BFF8E
:101580007A6F796E9004831206937B017A03794B0C
:10159000123F797B017A03794B9004831206939072
:1015A000048312068A1203F0FFEF70030218899079
:1015B000048312068A1203F0FF7E009002ACEEF064
:1015C000A3EFF090048312068A9002AE12069312E3
:1015D00054E3900481EFF0021889124F15900481B2
:1015E000EFF0021889906000E0FFEF5403FFEF1264
:1015F00006A8163F0015FC02000018899002ACE412
:10160000F0A37402F0906004E0FFEF547FFFEF75E9
:10161000F00BA42449F582E43402F583E0FF900640
:101620000EEFF090060FE4F07B017A06790E90023F
:10163000AE1206931254E3900481EFF002188990E1
:1016400002ACE4F0A37402F0900241E0FF90060EB9
:10165000EFF090060FE4F07B017A06790E9002AE6F
:101660001206931254E3900481EFF00218890218D5
:10167000890218899002ACE4F0A37401F07B017A2E
:101680000279429002AE1206931254E3900481EF65
:10169000F00218899002ACE4F0A37401F0906004A9
:1016A000E0FF74AA2FF9E43402FA7B019002AE1233
:1016B00006931254E3900481EFF00218890218890E
:1016C000021889906001E0FFEF1206A81767011861
:1016D000020316DF0516F40917140B000018899091
:1016E0006002E0FF9002BBEFF0126701900481EF0F
:1016F000F0021889906002E0FF900242EFF0900241
:10170000B87401F07F01120EC5126701900481EFD9
:10171000F0021889124ACFEF700302188990600412
:10172000E0FF900482EFF0900482E0FF9002B4EFBB
:10173000F09002B87401F012188F900482E0FF74E8
:10174000AA2FF582E43402F583E0FF900482E0FEE4
:1017500074B92EF582E43402F583EFF0126701903C
:101760000481EFF0021889906000E0FFEF5403FF5E
:10177000EF1206A817970017BD0117810200001885
:1017800089906002E0FFEF600302188912314190F6
:101790000481EFF0021889906002E0FFEF640160BD
:1017A00003021889900241E0FFEF54FDFF900241CF
:1017B000EFF0126701900481EFF002188990600445
:1017C000E0FFEFC394024003021889906004E0FF39
:1017D00074BC2FF582E43402F583C083C082E0FF3D
:1017E000906002E0FEEEF4FEEF5EFFD082D083EF69
:1017F000F0126701900481EFF00218890218890243
:101800001889906000E0FFEF5403FFEF1206A8185C
:101810002E00185001181C0200001889906002E088
:10182000FFEF7065123E82900481EFF0805B906064
:1018300002E0FFEF64017051900241E0FFEF4402CB
:10184000FF900241EFF0126701900481EFF08039C0
:10185000906004E0FFEFC39402502E906004E0FF1C
:1018600074BC2FF582E43402F583C083C082E0FFAC
:10187000906002E0FEEEF4FEEF5EFFD082D083EFD8
:10188000F0126701900481EFF0900481E0FF229054
:101890000242E0FFEFD394005003021C709002421A
:1018A000E0FFEF14FF125B2A90048FEEF0A3EFF03D
:1018B00090048FE0FEA3E0FFEF2404FFEE3400FE6F
:1018C00090048FEEF0A3EFF090048FE0FEA3E0FF12
:1018D0008F828E83E493FF90048AEFF090048FE070
:1018E000FEA3E0FF8F828E83A312069CAE02AF019F
:1018F000900491EEF0A3EFF090048CE4F090048A51
:10190000E0FF90048CE0FEEEC39F4003021C709049
:101910000491E0FEA3E0FF8F828E83E493FF74B90D
:101920002FF582E43402F583E0FF900491E0FCA3FC
:10193000E0FD8D828C83E493FE74AA2EF582E4345C
:1019400002F583E0FEEE6F7003021C4F900491E0FD
:10195000FEA3E0FF8F828E83E493FF74AA2FF582AB
:10196000E43402F583E0FF900491E0FCA3E0FD8DF8
:10197000828C83740193FEEF6E6003021C4F90040F
:1019800091E0FEA3E0FF8F828E83E493FF906004DA
:10199000E0FEEF6E6003021C4F900491E0FEA3E0B6
:1019A000FF8F828E83740293FFEF547FFF90048B2E
:1019B000EFF090048BE0FF7E00EF24FFFFEE34FF9A
:1019C000FEEFC4F8540FC868FFEEC454F048FE9010
:1019D000048EEFF0900491E0FEA3E0FF8F828E83EF
:1019E000740393FFEF5403FF90048DEFF090049184
:1019F000E0FEA3E0FF8F828E83740293FFEF54809A
:101A0000FF7E00EF4E603C90048BE0FFEF75F00B23
:101A1000A42448F582E43402F5837401F090048D27
:101A2000E0FFEFB401047F0780027F0D90048BE09C
:101A3000FEEE75F00BA4244CF582E43402F583EF3E
:101A4000F0803990048BE0FFEF75F00BA42448F58B
:101A500082E43402F583E4F090048DE0FFEFB401FA
:101A6000047F0580027F0990048BE0FEEE75F00B89
:101A7000A4244CF582E43402F583EFF090048EE068
:101A8000FF7E00EF240EFFEE3460FE8F828E8374A3
:101A900001F0900491E0FEA3E0FF8F828E83740436
:101AA00093FE740593FF90048BE0FDED75F00BA49D
:101AB000244FF582E43402F583EEF0A3EFF09004B6
:101AC00091E0FEA3E0FF8F828E83740293FF900467
:101AD0008BE0FEEE75F00BA4244BF582E43402F5A6
:101AE00083EFF0900491E0FEA3E0FF8F828E837479
:101AF0000393FF90048BE0FEEE75F00BA42447F5F2
:101B000082E43402F583EFF090048BE0FFEF75F090
:101B10000BA4244AF582E43402F583E4F090048BAC
:101B2000E0FFEF75F00BA4244FF582E43402F58357
:101B3000E0FEA3E0FFEEFF7E0090048EE0FEEEFDEF
:101B40007C00ED240CFDEC3460FC8D828C83EFF086
:101B500090048BE0FFEF75F00BA4244FF582E43482
:101B600002F583E0FEA3E0FFEF54FFFF90048EE058
:101B7000FEEEFD7C00ED240DFDEC3460FC8D828CCE
:101B800083EFF090048BE0FFEF75F00BA4244DF58C
:101B900082E43402F583E0FEA3E0FFEF54FFFF9000
:101BA000048EE0FEEEFD7C00ED2486FDEC3460FC4E
:101BB0008D828C83EFF090048BE0FFEF75F00BA427
:101BC000244DF582E43402F583E0FEA3E0FFEEFF4E
:101BD0007E0090048EE0FEEEFD7C00ED2487FDEC9F
:101BE0003460FC8D828C83EFF090048BE0FFEF7506
:101BF000F00BA4244DF582E43402F583E0FEA3E06B
:101C0000FFEF54FFFF90048EE0FEEEFD7C00ED241C
:101C100084FDEC3460FC8D828C83EFF090048BE0CB
:101C2000FFEF75F00BA4244DF582E43402F583E058
:101C3000FEA3E0FFEEFF7E0090048EE0FEEEFD7C52
:101C400000ED2485FDEC3460FC8D828C83EFF090F8
:101C50000491E0FEA3E0FFEF2407FFEE3400FE90C6
:101C60000491EEF0A3EFF090048CE004F00218FD74
:101C700022900399E4F0A3E4F0900398E0FF7E0043
:101C8000900399EE8FF012047090039CE0FEA3E0A5
:101C9000FF7C017D9012041BED4C602590039CE0BD
:101CA000FEA3E0FF7E00EF5403FFEF4E701790039A
:101CB0009CE0FEA3E0FF7C007D6412041BED4C6001
:101CC000047F0180027F00EFB40110900390E0FFD9
:101CD000EF4402FF900390EFF0800E900390E0FF3E
:101CE000EF54FDFF900390EFF09005F2E4F09003C5
:101CF0009BE0FF7E00EF24FFFFEE34FFFE9005F235
:101D0000E0FD7C00C3ED9FEC9E501E9005F2E0FFCD
:101D1000EF90700A93FF7E00900399EE8FF012040B
:101D2000709005F2E004F080C5900390E0FFEF545E
:101D300002FF7E00EF64024E70047F0180027F008C
:101D4000EF601590039BE0FFEFD39402400A9003ED
:101D500099E475F001120470900398E0FF90039BE2
:101D6000E0FD90039CE0FAA3E0FB124B72EF04FF4E
:101D7000900397EFF0900397E0FFEFD394004009B2
:101D8000900397E02400F08013900397E0FFEFF4B6
:101D900004FFC374079FFF900397EFF0900396E052
:101DA000FFEFC3940C5010900390E0FFEF54FBFF43
:101DB000900390EFF0800E900390E0FFEF4404FF5B
:101DC000900390EFF090039EE0FFEF5401FF7E0040
:101DD000EF64014E70047F0180027F00EF602C9061
:101DE0000394E0FF900386E0FEEEB50710900391A8
:101DF000E0FFEF4401FF900391EFF0800E9003911C
:101E0000E0FFEF54FEFF900391EFF090039EE0FFA0
:101E1000EF5402FF7E00EF64024E70047F018002E7
:101E20007F00EF602C900395E0FF900387E0FEEECB
:101E3000B50710900391E0FFEF4402FF900391EF8C
:101E4000F0800E900391E0FFEF54FDFF900391EFBF
:101E5000F090039EE0FFEF5404FF7E00EF64044E19
:101E600070047F0180027F00EF602C900396E0FFFA
:101E7000900388E0FEEEB50710900391E0FFEF4479
:101E800004FF900391EFF0800E900391E0FFEF5478
:101E9000FBFF900391EFF090039EE0FFEF5408FFEB
:101EA0007E00EF64084E70047F0180027F00EF60C7
:101EB0002C900397E0FF900389E0FEEEB5071090A9
:101EC0000391E0FFEF4408FF900391EFF0800E9044
:101ED0000391E0FFEF54F7FF900391EFF090039E22
:101EE000E0FFEF5420FF7E00EF64204E70047F017E
:101EF00080027F00EF6036900399E0FEA3E0FF9040
:101F0000038BE0FCA3E0FDEDB50714ECB5061090E3
:101F10000391E0FFEF4420FF900391EFF0800E90DB
:101F20000391E0FFEF54DFFF900391EFF090039EE9
:101F3000E0FFEF5410FF7E00EF64104E70047F014D
:101F400080027F00EF602C900398E0FF90038AE00E
:101F5000FEEEB50710900391E0FFEF4410FF9003F1
:101F600091EFF0800E900391E0FFEF54EFFF9003AC
:101F700091EFF090039EE0FFEF5440FF7E00EF648E
:101F8000404E70047F0180027F00EF602C90039B25
:101F9000E0FF90038DE0FEEEB50710900391E0FFA7
:101FA000EF4440FF900391EFF0800E900391E0FF2B
:101FB000EF54BFFF900391EFF090039EE0FFEF54CA
:101FC00080FF7E00EF64804E70047F0180027F00FE
:101FD000EF603690039CE0FEA3E0FF90038EE0FCF0
:101FE000A3E0FDEDB50714ECB50610900391E0FFFA
:101FF000EF4480FF900391EFF0800E900391E0FF9B
:10200000EF547FFF900391EFF090039EE0FF900567
:10201000F3EFF09005F3E0FFEF60329005F3E0FF9F
:10202000900391E0FEEE5FFF9005F3E0FEEFB50652
:10203000047F0180027F00EF6013900390E0FFEFC8
:102040004408FF900390EFF0900391E4F022900099
:102050000012069390000312068AAF01AE02AD0390
:102060007C0090011912067290011912065AEF5461
:10207000FFFFEE54FFFEED5400FDEC5400FC900118
:102080001912067290000312068AAF01AE02AD0368
:102090007C007B007A0079FF7800D312062340038E
:1020A0000222D490000312068AAF01AE02AD037C77
:1020B00000A804A905AA06AB07900006E0FEA3E06D
:1020C000FFE4FCFD1204D07BFF7AFF79FF7800C3A8
:1020D00012062350030222D41266597B017A017939
:1020E00021125A717B007A0079017800900119124F
:1020F000065A1205769001081206727B007A017961
:1021000000780090011912065A120576EF54FFFF6D
:10211000EE5400FEED5400FDEC5400FC90010C1256
:1021200006727F007E017D007C0090010C12066625
:102130001204EBC004C005C006C0077F007E007D0E
:10214000017C009001081206661204EBA804A905A0
:10215000AA06AB07D007D006D005D0041204D09051
:10216000011D1206727F007E007D007C009001142C
:10217000120672900118E4F0900006E0FEA3E0FF62
:10218000E4FCFD900114120666C31206234003020C
:1021900022C7900118E0FFEF60030222C77F007E94
:1021A000007D007C00900110120672900110120652
:1021B0005AC3EE9401400302228B90011912065A71
:1021C00090011D120666C3120623405B900006E0D4
:1021D000FEA3E0FFE4FCFD900114120666C31206A4
:1021E00023504490011412065A90000012068AE906
:1021F0002FF9EA3EFAEB3DFB1203F0FB90011012BF
:10220000065A74082FF582E43400F583EBF0900150
:102210001412065A7B017A00790078001204D090DB
:102220000114120672803390011D12065AEF240029
:10223000FFEE3400FEED3410FDEC3400FCA907AADB
:1022400006AB051269CFAB0790011012065A74084D
:102250002FF582E43400F583EBF090011D12065A4D
:102260007B017A00790078001204D090011D1206DB
:102270007290011012065A7B017A007900780012E0
:1022800004D09001101206720221AB9001081206D0
:102290005AC00790010C12065AAD07AC067B017AB2
:1022A000007908D007123426900118EFF090010C45
:1022B00012065A7B017A00790078001204D090014E
:1022C0000C120672022178904800E0FFEF4406FFEE
:1022D000EFF080069001187401F0900118E0FFEF14
:1022E0006010900118E0FFEF64016006900118741F
:1022F000FFF0900118E0FF229003B1EFF09003B2DD
:10230000ECF0A3EDF09003B4EAF0A3EBF09003B788
:10231000E0FFEFD3940050030224F79003B7E0FFEF
:10232000EFD3940140030224F79003B1E0FFEF12D2
:1023300006A8234501234504237207239D0823C8CB
:102340000A000023F39003B6E0FFEFD3940F40118F
:102350007B0C7A0179181269CF9003B8EFF0022351
:10236000F87B0C7A01791C1269CF9003B8EFF00268
:1023700023F89003B6E0FFEFD3940F40107B0C7A64
:102380000179191269CF9003B8EFF0806B7B0C7A5A
:1023900001791D1269CF9003B8EFF0805B9003B60E
:1023A000E0FFEFD3940F40107B0C7A01791A126989
:1023B000CF9003B8EFF080407B0C7A01791E126950
:1023C000CF9003B8EFF080309003B6E0FFEFD394E6
:1023D0000F40107B0C7A01791B1269CF9003B8EF84
:1023E000F080157B0C7A01791F1269CF9003B8EF4A
:1023F000F080059003B8E4F09003B8E0FFEF339568
:10240000E0FEFDFC7B207A00790078001204EBA846
:1024100004A905AA06AB079003B2E0FEA3E0FFE41F
:10242000FCFD1204D09003B91206729003B9120693
:102430005AAB07AA06A905A804A804A905AA06ABD1
:10244000079003B4E0FEA3E0FFE4FCFD1204EB9070
:1024500003BF1206727B007A80790078009003BF78
:1024600012065A1205769003BDEEF0A3EFF090032A
:10247000B6E0FFEFC3940E50479003BDE0FEA3E02B
:10248000FF9003B6E0FDC3740E9DFDEFA805088024
:1024900005CEC313CE13D8F9FF9003BDEEF0A3EF22
:1024A000F09003B6E0FFEF04FF9003B7E0FEEE7597
:1024B000F003A424EBF582E43403F583EFF08016F7
:1024C0009003B7E0FFEF75F003A424EBF582E4344A
:1024D00003F583740FF09003BDE0FEA3E0FF9003CB
:1024E000B7E0FDED75F003A424E9F582E43403F5CB
:1024F00083EEF0A3EFF0227F0012684422900610D2
:102500007401F0900611E4F0900611E0FFEFC3941F
:102510008040030226EB900611E0FF7E00EF24804E
:10252000FFEE3460FE8F828E83740CF0900610E014
:10253000FFEF75F00BA4244CF582E43402F583E040
:10254000FFEF604F900610E0FFEF75F00BA4244BF7
:10255000F582E43402F583E0FFEF5480FF7E00EF64
:102560004E6018900611E0FF7E00EF240EFFEE345F
:1025700060FE8F828E83740CF0802E900611E0FF37
:102580007E00EF240EFFEE3460FE8F828E8374088F
:10259000F08016900611E0FF7E00EF240EFFEE346F
:1025A00060FE8F828E837480F0900610E0FFEF75DE
:1025B000F00BA4244FF582E43402F583E0FEA3E09F
:1025C000FFEEFF7E00900611E0FEEEFD7C00ED24A4
:1025D0000CFDEC3460FC8D828C83EFF0900610E0F3
:1025E000FFEF75F00BA4244FF582E43402F583E08D
:1025F000FEA3E0FFEF54FFFF900611E0FEEEFD7C2E
:1026000000ED240DFDEC3460FC8D828C83EFF090A6
:102610000610E0FFEF75F00BA4244DF582E43402C0
:10262000F583E0FEA3E0FFEF54FFFF900611E0FE0C
:10263000EEFD7C00ED2486FDEC3460FC8D828C8305
:10264000EFF0900610E0FFEF75F00BA4244DF5823B
:10265000E43402F583E0FEA3E0FFEEFF7E00900687
:1026600011E0FEEEFD7C00ED2487FDEC3460FC8D76
:10267000828C83EFF0900610E0FFEF75F00BA4243E
:102680004DF582E43402F583E0FEA3E0FFEF54FF52
:10269000FF900611E0FEEEFD7C00ED2484FDEC349D
:1026A00060FC8D828C83EFF0900610E0FFEF75F0F8
:1026B0000BA4244DF582E43402F583E0FEA3E0FF91
:1026C000EEFF7E00900611E0FEEEFD7C00ED24851D
:1026D000FDEC3460FC8D828C83EFF0900610E004FA
:1026E000F0900611E02410F002250890600A74FFB3
:1026F000F0227F007E007D007C0090037312067242
:10270000900377E4F0A3E4F090037FE4F07F007E91
:10271000007D407C40900380120672900384740216
:10272000F07F02125C377B007A0079807841900359
:102730008012065A12021B12406B9003731206722B
:1027400090037312065A12036FEFC4F8540FC8684F
:10275000FFEEC454F048FE124406AA06A9077B0106
:1027600090037012069390037012068A90037C12F5
:1027700006937F007E007D807C4190037312066685
:102780001201127B007A00794078C01200211203F6
:102790006F900377EEF0A3EFF090037FE4F09003E7
:1027A0007FE0FFEFC39403503190037FE0FF7E0092
:1027B000EF2400FFEE3480FE8F828E83E0FF9003D3
:1027C0007C12068AEF12040990037DE475F0011271
:1027D000047090037FE004F080C490037FE0FF7EEC
:1027E00000900377E0FCA3E0FDC3EF9DEE9C501248
:1027F00090037C12068AE412040990037FE004F03F
:1028000080D890036DE0FF90037012068AEF1204E7
:102810000990036EE0FF90037012068AE92401F923
:10282000EA3400FAEF12040990036FE0FF9003709E
:1028300012068AE92402F9EA3400FAEF1204097F49
:102840000012502A900385EFF0900385E0FFEF60BF
:10285000089003847403F0807990037FE4F0900380
:102860007012068A90037912069390037FE0FCE4CD
:1028700012033B9003731206661202B86042404096
:1028800090037FE0FFEFC3948050359003791206E8
:102890008A90037FE0FD123C72900385EFF0900375
:1028A00085E0FFEF60089003847403F080249003B8
:1028B0007AE475F01012047090037FE004F080AAAF
:1028C00090037012068AAE02AF011236C67F021262
:1028D0005953900384E0FF227B007A4679E812691D
:1028E000CFEF4405FD7B007A4679E81269DB750A73
:1028F00000E50AC39407503AAF0AEF75F005A42427
:10290000E7F582E4346FF583AF82AE838E088F09DA
:10291000AE08AF098F828E8312069CAE08AF098F76
:10292000828E83740393FC740493FD12671B050A63
:1029300080BF7B087A0079001263F5905883740A8F
:10294000F07B017A5079031269CFEF4402FD7B01DD
:102950007A5079031269DB7B017A5079131269CFBF
:10296000EF4402FD7B017A5079131269DB9043A09A
:10297000E0FFEF4440FF9043A0EFF09043C2E0FF40
:10298000EF4410FF9043C2EFF07B087A0179BCC09E
:1029900003C002C0017B007A5179029003F912064C
:1029A00093D001D002D0037F087E001262747B08AE
:1029B0007A0179C4C003C002C0017B007A5179C09A
:1029C0009003F9120693D001D002D0037F0A7E0053
:1029D0001262747B087A0179D0C003C002C0017B07
:1029E000007A5179F09003F9120693D001D002D009
:1029F000037F0A7E001262747B087A0179DCC003CF
:102A0000C002C0017B007A5179309003F91206931D
:102A1000D001D002D0037F0A7E001262747B087A54
:102A20000179E8C003C002C0017B007A517962904D
:102A300003F9120693D001D002D0037F087E001262
:102A400062749044F47401F0904322E0FFEF440874
:102A5000FF904322EFF09046ECE0FFEFC394055067
:102A600006904689743AF090480074F1F012358669
:102A700090480074B1F012607E7B007A4379A0C068
:102A800003C002C0017B007A4379B09003F91206BB
:102A900093D001D002D0037F0E7E00126274904367
:102AA000B0E0FFEF54FDFFEFF022900447EFF0900D
:102AB0000448120693900447E0FFEFD394005003BC
:102AC000022C76900447E0FFEFC394094003022CE8
:102AD00076900447E0FF7E00EF24FFFFEE34FFFE18
:102AE000EFC4F8540FC868FFEEC454F048FE9004D9
:102AF0004DEFF090044DE0FF7E00EF2488FFEE34B0
:102B000060FE90044EEEF0A3EFF0900447E0FFEF7C
:102B100075F00BA4244DF582E43402F583E0FEA3A6
:102B2000E0FFC3E49FFF74029EFE90044BE0FCA311
:102B3000E0FDD3ED9FEC9E4028900447E0FFEF7549
:102B4000F00BA4244DF582E43402F583E0FEA3E00B
:102B5000FFC3E49FFF74029EFE90044BEEF0A3EFD0
:102B6000F090044BE0FEA3E0FFEEFF7E00900447F0
:102B7000E0FEEE75F00BA4244AF582E43402F583FE
:102B8000E0FEEF4EFF90044DE0FEEEFD7C00ED24F4
:102B90000CFDEC3460FC8D828C83EFF090044BE0F4
:102BA000FEA3E0FFEF54FFFF90044DE0FEEEFD7C3E
:102BB00000ED240DFDEC3460FC8D828C83EFF07B06
:102BC000007A007900C003C002C0019004481206D8
:102BD0008AD082D083D0E06B7008E965827003EA06
:102BE00065836051900450E4F0A3E4F090044BE05E
:102BF000FEA3E0FF900450E0FCA3E0FDC3ED9FECDA
:102C00009E503290044812068A900450E0FEA3E0E1
:102C1000FFE92FF9EA3EFA1203F0FF90044EE0FCC0
:102C2000A3E0FD8D828C83EFF0900450E475F001F9
:102C300012047080B7900447E0FFEF75F00BA424F6
:102C400048F582E43402F583E4F0900447E0FFEFB6
:102C500075F00BA4244CF582E43402F583E0FF9078
:102C6000044DE0FEEEFD7C00ED240EFDEC3460FC36
:102C70008D828C83EFF0227BFF7A6A79D4900301F6
:102C8000120693900304E4F0A3E4F0900306E4F04A
:102C90009003077402F07F02125C37900301120662
:102CA0008AC003C002C00190052C12068AD082D0CF
:102CB00083D0E06B7008E965827003EA6583704732
:102CC0009002C174A0F09003067401F0900306E036
:102CD000FFEFC39440501A900306E0FF74C12FF534
:102CE00082E43402F5837440F0900306E004F0803F
:102CF000DB7B017A0279C11261B4125475EFB4031F
:102D0000069003077403F090052C12068AC003C0D6
:102D100002C00190030112068AC3D082D083D0E0A2
:102D2000E99582EA95834003022DCC900306E0FFEB
:102D3000EFC39440507290052C12068AC003C00263
:102D4000C00190030112068AC3D082D083D0E0E98B
:102D50009582EA9583503790030112068A1203F098
:102D6000FF900306E0FE74C12EF582E43402F58381
:102D7000EFF0900306E004F0900302E475F0011216
:102D80000470900304E475F001120470809D9003B8
:102D900006E0FF74C12FF582E43402F5837440F03D
:102DA000900306E004F080837B017A0279C112610E
:102DB000B4900306E4F0125475EF64036003022D2F
:102DC000079003077403F08048022D07900304E482
:102DD00075F0041204709002C17480F09002C2E495
:102DE000F0900304E0FEA3E0FFEEFF7E009002C33C
:102DF000EFF0900304E0FEA3E0FFEF54FFFF90022A
:102E0000C4EFF07B017A0279C11261B47F021259DA
:102E100053900307E0FF229004C0EEF0A3EFF09080
:102E200004C2EDF0126A1F9004C4EFF0126A15900C
:102E300004C5EEF0A3EFF09004C5E0FEA3E0FF9020
:102E400004C0E0FCA3E0FDED6F7002EC6E700302C5
:102E50002FAB9043A2E0FFEF5401FF9004C3EFF0CB
:102E60009004C4E0FFEF705E9004C5E0FEA3E0FFB5
:102E7000EF4E600C9004C0E0FEA3E0FFEF4E704602
:102E80009004C5E0FEA3E0FFEF4E701D7B027A4088
:102E900079809004C0E0FCA3E0FD1269609040825C
:102EA000E0FFEF54BFFFEFF022904082E0FFEF44DD
:102EB00040FFEFF07B027A4079809004C0E0FCA3F1
:102EC000E0FD126960229004C3E0FFEF606C904067
:102ED00001E4F09040107401F0904014E4F0904050
:102EE00008E0FFEF547FFFEFF0904082E0FFEF54E7
:102EF00008FF7E00EF4E600C9004C0E0FEA3E0FFF0
:102F0000EF4E70367B027A4079029004C5E0FCA354
:102F1000E0FD1269609040017407F0904001E0FF0D
:102F2000EF5401FF7E00EF4E70F19043A2E0FFEFFF
:102F300054FEFFEFF0904001E4F09043A2E0FFEF79
:102F40005401FF7E00EF4E603A7B027A4079029096
:102F500004C0E0FCA3E0FD1269609004C2E0FFEF52
:102F600060047F0280027F00EF4401FF904001EF88
:102F7000F0904001E0FFEF5401FF7E00EF4E602B28
:102F800080EF227B027A4079809004C0E0FCA3E0CD
:102F9000FD1269609043A2C083C082E0FF9004C329
:102FA000E0FEEF4EFFD082D083EFF0229004C7EE18
:102FB000F0A3EFF09004C9EDF0126A339004CBEF68
:102FC000F0126A299004CCEEF0A3EFF09004CCE06C
:102FD000FEA3E0FF9004C7E0FCA3E0FDED6F7002EC
:102FE000EC6E70030231409043A1E0FFEF5401FF0B
:102FF0009004CAEFF09004CBE0FFEF705E9004CC39
:10300000E0FEA3E0FFEF4E600C9004C7E0FEA3E0FB
:10301000FFEF4E70469004CCE0FEA3E0FFEF4E7051
:103020001D7B027A4179009004C7E0FCA3E0FD1209
:103030006960904102E0FFEF54BFFFEFF022904142
:1030400002E0FFEF4440FFEFF07B027A417900900D
:1030500004C7E0FCA3E0FD126960229004CAE0FF0F
:10306000EF606C904001E4F09040147401F09040E7
:1030700010E4F0904008E0FFEF547FFFEFF0904144
:1030800002E0FFEF5408FF7E00EF4E600C9004C793
:10309000E0FEA3E0FFEF4E70367B027A40790290AB
:1030A00004CCE0FCA3E0FD1269609040017407F0DD
:1030B000904001E0FFEF5401FF7E00EF4E70F19071
:1030C00043A1E0FFEF54FEFFEFF0904001E4F090E9
:1030D00043A1E0FFEF5401FF7E00EF4E603A7B0218
:1030E0007A4079029004C7E0FCA3E0FD1269609089
:1030F00004C9E0FFEF60047F0280027F00EF44011B
:10310000FF904001EFF0904001E0FFEF5401FF7E9F
:1031100000EF4E602B80EF227B027A417900900411
:10312000C7E0FCA3E0FD1269609043A1C083C082A8
:10313000E0FF9004CAE0FEEF4EFFD082D083EFF0B4
:103140002290059FE4F0906004E0FFEF547FFF9031
:10315000059DEFF090059DE0FF7E00EF24FFFFEE60
:1031600034FFFEEFC4F8540FC868FFEEC454F048B3
:10317000FE90059EEFF090059DE0FFEFD394005088
:10318000030232AF90059DE0FFEFC39409400302B4
:1031900032AF90059DE0FFEF75F00BA42449F58256
:1031A000E43402F583E0FFEF54FEFFEFF090059D5D
:1031B000E0FFEF75F00BA4244AF582E43402F583B6
:1031C000E4F090059EE0FF7E00EF240CFFEE3460FB
:1031D000FE8F828E83E0FFEF547FFFEFF090059D1E
:1031E000E0FFEF75F00BA42448F582E43402F58388
:1031F000E0FFEF54FDFFEFF090059DE0FFEF75F06D
:103200000BA4244BF582E43402F583E0FFEF5480F5
:10321000FF7E00EF4E604990059DE0FFEF75F00BDB
:10322000A42448F582E43402F583E0FFEFB40118EA
:1032300090059EE0FF7E00EF240EFFEE3460FE8FCF
:10324000828E83740CF0805F90059EE0FF7E00EF1D
:10325000240EFFEE3460FE8F828E83740DF0804763
:1032600090059DE0FFEF75F00BA42448F582E4344F
:1032700002F583E0FFEFB4011890059EE0FF7E00A9
:10328000EF240EFFEE3460FE8F828E837408F08090
:103290001690059EE0FF7E00EF240EFFEE3460FEE8
:1032A0008F828E837409F012670190059FEFF09072
:1032B000059FE0FF22C0E0C0F0C083C082C085C08F
:1032C00084C086758600C093759300C0D075D00009
:1032D000C000C001C002C003C004C005C006C007D2
:1032E000906028E0FF9005FCEFF09005FCE0FFEF18
:1032F0005410FF7E00EF4E70030234039005FD74FE
:1033000001F09005FCE0FFEF5480FF7E00EF4E607F
:10331000319005FCE0FFEF540FFF7E00EF64014E9B
:1033200060079005FDE4F08046124FA1900243E053
:10333000FFEF5480FF7E00EF4E60349005FDE4F017
:10334000802D9005FCE0FFEF5440FF7E00EF4E60C3
:10335000051264EF80199005FCE0FFEF5420FF7E1A
:1033600000EF4E600512636C80059005FDE4F0905F
:1033700005FDE0FFEF7003023403906028E0FF904A
:1033800005FCEFF09005FCE0FFEF5480FF7E00EFBE
:103390004E7070900246E0FF9002BEE0FEEE4FFFDE
:1033A0009005FCEFF09005FCE0FF906029EFF090B5
:1033B0006029E0FF9005FCE0FEEE6F70469002434E
:1033C000E0FF9005FDEFF0906028E0FFEF5480FFF4
:1033D0009005FCEFF09005FCE0FFEF7018900243C1
:1033E000E0FF906028EFF0906028E0FFEF540FFFBF
:1033F0009005FDEFF0900243E0FF9005FDE0FEEE4A
:10340000B507BAD007D006D005D004D003D002D07B
:1034100001D000D0D0D093D086D084D085D082D0B7
:1034200083D0F0D0E032900412EFF0900413ECF06F
:10343000A3EDF09004151206937B007A007900C08A
:1034400003C002C00190051D12068AD082D083D02D
:10345000E06B7008E965827003EA658370030235EA
:103460007A900412E0FFEFD3943F400C90041DE4E7
:10347000F0A37410F002352490041D7401F0A374BD
:1034800020F0900412E0FF7E007C207D001206F206
:10349000EF2400FFEE3400FEED3408FDEC3400FCB8
:1034A000C004C005C006C007900413E0FEA3E0FFFF
:1034B0007C007D201206F2A804A905AA06AB07D05D
:1034C00007D006D005D0041204D090041912067259
:1034D000900418E4F0900418E0FFEFC394205044E7
:1034E000900418E0FFE4FCFDFE9004191206661239
:1034F00004D0A907AA06AB051269CF90051D1206D4
:103500008AE92400F9EA3401FA900418E0FEEEFD9D
:103510007C00E92DF9EA3CFAEF120409900418E066
:1035200004F080B190041512068AC003C002C001E5
:1035300090051D12068AA801AC02AD03D001D0028D
:10354000D0037E017F001207DB900412E0FFC0076A
:10355000900413E0FCA3E0FD90051D12068A900480
:103560001DE0FEA3E0FF90046CEEF0A3EFF0D007A7
:1035700012393090041FEFF0800690041F74FFF0A2
:1035800090041FE0FF22904698E0FF900518EFF0AE
:103590007B007A4079807D007C0012695E904082D9
:1035A0007450F07B007A4079847D017C0012695E62
:1035B0009040867419F07B087A0179F0C003C0024C
:1035C000C0017B007A4179009003F9120693D00183
:1035D000D002D0037F047E00126274904300740610
:1035E000F090430A74F3F09046987403F090430906
:1035F0007484F09043087405F07FA07E867D017C82
:103600000090051912067290051912065AD3EF940C
:1036100000EE94004033904308E0FFEF5420FF7E1B
:1036200000EF4E70247FE07E017D007C001262007E
:1036300090051912065A7BFF7AFF79FF78FF120472
:10364000D090051912067280BE900518E0FF9046D2
:1036500098EFF09042007452F07B0C7A01790F12CF
:1036600069CF9046A1EFF07B007A4079047D007C21
:103670000012695E9040047407F0904006E4F090F8
:1036800040087448F0904004E4F0904009E4F09061
:1036900040017402F090400B7404F09043A2E0FFEC
:1036A000EF4403FF9043A2EFF09043A1E0FFEF440B
:1036B00001FF9043A1EFF09043A0E0FFEF4480FFB3
:1036C0009043A0EFF0229003FCEEF0A3EFF04E70D9
:1036D000030238049004A5E07002A3E070030238EE
:1036E000049003FCE0FEA3E024FCFFEE34FFFEA305
:1036F0007404F0A374A3F09003FEE0FCA3E0F58251
:103700008C83E0FCA3E0FD900400ECF0A3EDF04C12
:1037100060209003FCE0FCA3E0FD900400E0FAA32D
:10372000E0FBD39DEA9C500A9003FEEAF0A3EBF085
:1037300080C5900400E07002A3E0604D8F828E830C
:10374000A3A3E0FCA3E0FD9003FDE02DFD9003FCAE
:10375000E03CFC900400E0FAA3E0FB6D7002EA6C30
:1037600070278B828A83A3A3E0FCA3E02404FDE4FA
:103770003C8F828E83A3A38DF0120470900400E02E
:10378000FCA3E0F5828C838003900400E0FDA3E0BD
:103790008F828E83CDF0A3EDF09003FEE0FCA3E0DA
:1037A000FDF5828C83A3A3E0FAA3E0FBED2BFDECF7
:1037B0003AFCED2404FDE43CFCED6F7002EC6E700D
:1037C000338F828E83A3A3E0FCA3E02404FDE43CBA
:1037D000FC9003FEE0FAA3E0FBF5828A83A3A3EC4E
:1037E0008DF01204708F828E83E0FFA3E08B828ABB
:1037F00083CF800C9003FEE0FCA3E0F5828C83EE87
:10380000F0A3EFF02290042EEFF090042F12069315
:1038100090042EE0FFEFD39400500302391F900470
:103820002EE0FFEFC39409400302391F7B007A00AA
:103830007900C003C002C00190042F12068AD08212
:10384000D083D0E06B7008E965827003EA6583700D
:103850000302391F90042EE0FF7E00EF24FFFFEEED
:1038600034FFFEEFC4F8540FC868FFEEC454F048AC
:10387000FE900434EFF0900434E0FF7E00EF2488E3
:10388000FFEE3460FE900435EEF0A3EFF090042ECE
:10389000E0FF1248C3900439EEF0A3EFF090043932
:1038A000E0FEA3E0FF900432E0FCA3E0FDD3ED9F37
:1038B000EC9E4010900439E0FEA3E0FF900432EE4D
:1038C000F0A3EFF0900437E4F0A3E4F0900432E0CA
:1038D000FEA3E0FF900437E0FCA3E0FDC3ED9FEC06
:1038E0009E5032900435E0FEA3E0FF8F828E83E08D
:1038F000FF90042F12068A900437E0FCA3E0FDE954
:103900002DF9EA3CFAEF120409900437E475F0014E
:1039100012047080B790042EE0FF1251B08008901E
:103920000432E4F0A3E4F0900432E0FEA3E0FF22CE
:10393000900466EFF0900467ECF0A3EDF09004695A
:1039400012069312633DEF6003023A43900466E06F
:10395000FF90046912068A90046CE0FCA3E0FD90DD
:10396000047CECF0A3EDF0124A2690046EEFF09088
:10397000046EE0FFEF64076003023A3E904722E0E6
:10398000FFEF5402FF7E00EF4E70097F017E0012B0
:1039900063C880E8904722E0FFEF5402FF7E00EF0B
:1039A0004E600D904722E0FFEF1313543FFF80025B
:1039B0007FFFEF700790046EE4F0800690046E7451
:1039C000FFF090046EE0FFEF7074900466E0FF90EB
:1039D0000467E0FCA3E0FD900520E0FB900521E0FA
:1039E000FE9004DEEEF0124CB290046EEFF0900404
:1039F0006EE0FFEF64077046904722E0FFEF54024D
:103A0000FF7E00EF4E70097F017E001263C880E8E0
:103A1000904722E0FFEF5402FF7E00EF4E600D90D2
:103A20004722E0FFEF1313543FFF80027FFFEF7048
:103A30000790046EE4F0800690046E74FFF0126844
:103A40002E800690046E7404F090046EE0FF2290C5
:103A500003E0740CF0126A8A9003E112069390035B
:103A6000D47420F0A3E4F07F007E0012623B900348
:103A7000D8EFF07F017E0012623B9003D9EFF07F18
:103A8000027E0012623B9003DAEFF09003E112062F
:103A90008A1203F0FF9003DBEFF09003E112068A35
:103AA000E92401F9EA3400FA1203F0FF9003DCEF95
:103AB000F09003E112068AE92402F9EA3400FA12CE
:103AC00003F0FF9003DDEFF09003E112068AE92492
:103AD00004F9EA3400FA1203F0FF9003DEEFF090ED
:103AE00003E112068AE92407F9EA3400FA1203F026
:103AF000FF9003DFEFF09003E112068AE92408F952
:103B0000EA3400FA120486FFAEF09003D6EEF0A37A
:103B1000EFF07B017A0379D4C003C002C0019005A5
:103B20002C12068A9000031206939003E0E0FF7EB9
:103B300000900006EEF0A3EFF0D001D002D0031207
:103B4000204E9003E0E0FF7E0090052DEE8FF012F6
:103B50000470126898126AAB90061DE0FF1268DFCD
:103B600022126883900630EFF09043A5E0FFEF4407
:103B700001FFEFF09043B5E0FFEF4401FFEFF0905D
:103B8000609D7401F09060097402F0906010E0FF95
:103B9000EF547FFFEFF07F007E001263C8904394E4
:103BA000E0FFEF54F9FFEFF0906012E0FFEF54DF19
:103BB000FFEFF0904394E0FFEF4401FFEFF07F014F
:103BC0007E001263C87F287E001263C89051F8E01F
:103BD000FFEF547FFFEFF09051F8E0FFEF54BFFF8D
:103BE000EFF0904394E0FFEF4402FFEFF07F027E9E
:103BF000001263C8904394E0FFEF4404FFEFF0909D
:103C00006084E4F0906085E4F0900630E0FF126795
:103C10004C7C5D7D8D7F171250AE7D067F1712594B
:103C2000B37C637DC77F151250AE7D067F15125998
:103C3000B37C327DB57F181250AE7D067F181259C5
:103C4000B37C567DF17F011250AE7D067F01125983
:103C5000B37C577D587F021250AE7D067F02125909
:103C6000B37C577DBF7F031250AE7D067F03125990
:103C7000B32290050E120693900511EDF01264A187
:103C8000900511E0FFEFC394804003023D70126382
:103C90003DEF6003023D6890051274FFF090050E41
:103CA00012068A90047CE4F0A37410F07F40124A5C
:103CB00026EF64076003023D63904722E0FFEF5464
:103CC00002FF7E00EF4E60F1904722E0FFEF5402CA
:103CD000FF7E00EF4E600D904722E0FFEF1313547C
:103CE0003FFF80027FFFEF7005900512E4F0900522
:103CF00012E0FFEF7067900511E0FFEFFD7C009090
:103D00000520E0FB900521E0FF9004DEEFF07F400E
:103D1000124CB2EF6407703D90051274FFF09047AB
:103D200022E0FFEF5402FF7E00EF4E60F190472249
:103D3000E0FFEF5402FF7E00EF4E600D904722E05F
:103D4000FFEF1313543FFF80027FFFEF70159005C4
:103D500012E4F0800E90051274FFF08006900512B8
:103D600074FFF012682E800E9005127404F0800625
:103D70009005127401F0900512E0FF229005A0E476
:103D8000F09005A1E4F0126AAB126AA7126A977F5D
:103D9000001268DF7D017F001264787F01125C37BA
:103DA000126A91EF7006126993EF70F412696D1246
:103DB0006677126993EF7003023E791267D6EF605F
:103DC000F17B017A0579A17D011253219005A0EFC5
:103DD000F09005A1E0FFEF60D99005A0E0FFEF644F
:103DE000026003023E719005A1E0FFEF1206A83EBB
:103DF00005013E0C023E1E033E23043E5B053E3F92
:103E00000600003E667F0112651580A6122C77EF32
:103E10006005125B85809B7F031265158094125F9D
:103E2000F6808F7F02126515124C14EFB402087FE2
:103E300002126515023DB27F03126515023DB27F85
:103E40000212651512473AEFB402087F0212651597
:103E5000023DB27F03126515023DB21262A87F02D5
:103E6000126515023DB27F03126515023DB2023D97
:103E7000B27F03126515023DB21268CF7F0112595D
:103E8000532290059CE4F0906004E0FFEF547FFF24
:103E900090059AEFF090059AE0FF7E00EF24FFFF77
:103EA000EE34FFFEEFC4F8540FC868FFEEC454F0C0
:103EB00048FE90059BEFF090059AE0FFEFD3940049
:103EC0005003023F7390059AE0FFEFC3940940034B
:103ED000023F7390059AE0FFEF75F00BA42449F5BB
:103EE00082E43402F583E0FFEF4401FFEFF0900538
:103EF0009AE0FFEF75F00BA4244AF582E43402F552
:103F000083E4F090059AE0FFEF75F00BA42448F5E8
:103F100082E43402F583E0FFEF4402FFEFF0900506
:103F20009AE0FFEF75F00BA4244BF582E43402F520
:103F300083E0FFEF5480FF7E00EF4E601890059BFA
:103F4000E0FF7E00EF240EFFEE3460FE8F828E8352
:103F5000748DF0801690059BE0FF7E00EF240EFF2D
:103F6000EE3460FE8F828E837489F01267019005B3
:103F70009CEFF090059CE0FF229004E012069390E5
:103F800004E4E4F07B007A007900C003C002C001C1
:103F90009004E012068AD082D083D0E06B7008E9EA
:103FA00065827003EA6583700302406A9004E01240
:103FB000068A74221204099004E012068AE9240198
:103FC000F9EA3400FA74031204099004E37402F06D
:103FD0009004E3E0FFEFC39422400302406A9004A0
:103FE000E4E0FFE4FCFDFEEF2400FFEE3401FEED13
:103FF000340CFDEC3400FCA907AA06AB051269CF0E
:104000009004E5EFF09004E4E004F09004E5E0FFB4
:10401000EFC4540FFFEF90702293FF9004E012065C
:104020008A9004E3E0FEE92EF9E43AFAEF1204097B
:104030009004E5E0FFEF540FFFEF90702293FF90A4
:1040400004E3E0FEEEFD7C00ED2402FDEC3400FC18
:104050009004E012068AE92DF9EA3CFAEF1204090D
:104060009004E3E02404F0023FD0229003FC120607
:104070007274FFFFFEFDFC9003FCE0F8A3E0F9A3DF
:10408000E0FAA3E0FBC312062360387F807E967DB2
:10409000187C4B9003FCE0F8A3E0F9A3E0FAA3E05E
:1040A000FB1202B86002501B7F807E967D187CCB8D
:1040B0009003FCE0F8A3E0F9A3E0FAA3E0FB12020E
:1040C000B8500F9003FCE0FCA3E0FDA3E0FEA3E0EA
:1040D000FF229003FCE0FCA3E0FDA3E0FEA3E0FFD1
:1040E00012036F900400120672900400E0FCA3E03B
:1040F000FDA3E0FEA3E0FFEC120331C8ECC8C9ED5C
:10410000C9CAEECACBEFCB9003FCE0FCA3E0FDA351
:10411000E0FEA3E0FF12001DE4FBFAF9F81202B87A
:104120005025900400E0FCA3E0FDA3E0FEA3E0FF27
:10413000E4FAF9F8EF2401FFEA3EFEE93DFDE83C30
:10414000FC900400120672900400E0FCA3E0FDA3C2
:10415000E0FEA3E0FFEC12033122759300780075B6
:1041600083467582E8E04401F0009046ECE0F99067
:1041700046FAE0FAB903225420B40012B8001AEA51
:10418000901FFFF07401901FFEF09046F6F0901F14
:10419000FEE06005901FFFE0FA90480074C0F075E3
:1041A000810C90000078007920E4F0A3D8FCD9FAC3
:1041B000EA90040DF0020011750B1F750CFD12281A
:1041C000D80241FF0260C0E493A3F8E493A3400344
:1041D000F68001F208DFF48029E493A3F854072461
:1041E0000CC8C333C4540F4420C8834004F4568021
:1041F0000146F6DFE4800B010204081020408090A5
:104200004DECE47E019360BCA3FF543F30E50954BC
:104210001FFEE493A360010ECF54C025E060A840C8
:10422000B8E493A3FAE493A3F8E493A3C8C582C8BF
:10423000CAC583CAF0A3C8C582C8CAC583CADFE994
:10424000DEE780BE90063EEFF09003EAE4F09006D1
:104250003EE0FFEF64016003024327904E0074309C
:10426000F0904E027406F0904E037408F0904E04E5
:10427000E4F0904E05E4F0904E06741FF0904E0866
:10428000E4F0904E09E4F0904E0AE4F0904E14747D
:1042900001F09058847414F09058857405F090588B
:1042A000867416F0905887E4F090588A7444F09021
:1042B000588B7448F090588C7401F090588E7401AB
:1042C000F090588F7411F09058907419F0905891A4
:1042D0007497F07F52125CE79058947458F090589D
:1042E00095E4F090589A7405F090589B7402F09001
:1042F000589CE4F090589DE4F07F001266B17F3343
:104300007E037D007C009003F01206727D017F2603
:104310007E00122E177D017F9F7E00122FAC7C6ADB
:104320007DCF7F1D1250AE2212688390063DEFF0C4
:10433000904E00E0FFEF54FEFFEFF0904E01E0FFE3
:10434000EF4404FFEFF09046F8E0FFEF4402FFEF88
:10435000F09046F9E0FFEF4402FFEFF0905891E053
:10436000FFEF54FCFFEFF0905892E0FFEF54F7FF9F
:10437000EFF07F037E001263C89046F8E0FFEF5431
:10438000FDFFEFF09046F9E0FFEF54FDFFEFF090F6
:1043900043AAE0FFEF54EFFFEFF09043AAE0FFEFF6
:1043A00054FEFFEFF09043BAE0FFEF54FEFFEFF052
:1043B0009043BAE0FFEF54EFFFEFF0905877E0FF43
:1043C000EF54F9FFEFF09043A1E0FFEF54FEFFEF51
:1043D000F09043B1E0FFEF54FEFFEFF0905882E021
:1043E000FFEF54F7FFEFF09043A2E0FFEF54FEFF22
:1043F000EFF09043B2E0FFEF54FEFFEFF090063D88
:10440000E0FF12674C229003FCEEF0A3EFF0A374E0
:1044100004F0A374A3F09003FEE0FEA3E0F5828E07
:1044200083E0FEA3E0FF4E7003FEFF228F828E83A7
:10443000A3A3E0FCA3E0FD9003FCE0FAA3E0FBC330
:10444000ED9BEC9A500A9003FEEEF0A3EFF080C6CD
:104450008F828E83A3A3E0FCA3E0C39BFDEC9AFCB8
:10446000900400F0A3EDF0C39410EC940050178F6B
:10447000828E83E0FCA3E0FD9003FEE0FAA3E0F56A
:10448000828A83EC8045900401E024FCF0900400D3
:10449000E034FFF0E0FDA3E08F828E83A3A3CDF094
:1044A000A3EDF0EF2404FFE43EFE900401E02FFFB3
:1044B000900400E03EFE9003FEF0A3EFF09003FCBA
:1044C000E0FDA3E08F828E83A3A3CDF0A3EDF0EFF8
:1044D0002404FFE43EFE221268839005D3EFF0909F
:1044E00003E4E0FF9005D2EFF09043AAE0FFEF4431
:1044F00001FFEFF09043AAE0FFEF4410FFEFF090D0
:1045000043BAE0FFEF4401FFEFF09043BAE0FFEF62
:104510004410FFEFF09046F8E0FFEF4402FFEFF0A9
:104520009046F9E0FFEF4402FFEFF0905891E0FF72
:10453000EF4403FFEFF07F037E001263C89046F85C
:10454000E0FFEF54FDFFEFF09046F9E0FFEF54FD80
:10455000FFEFF0905877E0FFEF4406FFEFF0905840
:1045600082747AF09043A1E0FFEF4401FFEFF090F6
:1045700043B1E0FFEF4401FFEFF09043A2E0FFEF13
:104580004401FFEFF09043B2E0FFEF4401FFEFF092
:104590009044DB7420F09044C37420F09005D3E085
:1045A000FF12674C22900668E4F09002B5E0FF7EAF
:1045B00000900244EE8FF01204709002ACE0FEA373
:1045C000E0FFD3EF9400EE94004053900668E0FFC4
:1045D000EFC3940850489002AE12068A1203F0FF0F
:1045E000900668E0FEEEFD7C00ED2400FDEC3460FA
:1045F000FC8D828C83EFF09002AE12068AE92401D2
:10460000F9EA3400FA9002AE120693900668E004CC
:10461000F09002AC74FF75F0FF120470809C900261
:10462000B5E0FFEF6408600B900668E0FFEFD394FD
:1046300000401C9002BEE0FFEF6480FF9002BEEFDE
:10464000F0900243740FF09002BF7402F0800C905F
:1046500002437402F09002BF7402F0900668E0FF1B
:104660009002B5EFF0900668E0FF900246EFF0226E
:104670009003E47401F09003EFE4F07F1012659E64
:104680007F101265BF7D077F1D1259B39058967435
:1046900007F0905897E4F090589EE4F0905B07E0A4
:1046A000FFEF4418FFEFF0905893E4F0905B88E43C
:1046B000F0905B89E4F0905880740AF0905881E49F
:1046C000F0905883E4F09058887412F090588974F0
:1046D00013F090588DE4F0904E017414F09003B6EE
:1046E000740CF09003B77401F07B007A807D6B7CD2
:1046F0008D7F021222F89003E4E0FFEF75F003A42F
:1047000024EBF582E43403F583E0FF904E0EEFF0E6
:104710009003E4E0FFEF75F003A424E9F582E434AC
:1047200003F583E0FCA3E0FD7B027A4E790C12696D
:10473000609003E4E0FF1242442290039F7403F070
:104740007BFF7A707935C003C002C0017B017A0318
:1047500079A0A801AC02AD03D001D002D0037E0045
:104760007F071207DB1267D6EF7006126993EF70AE
:10477000F4126993EF70030247FA7B017A0379A080
:104780007D07125321EF640270709003A0E0FF7E5A
:1047900000EF7F00FE9003AFEEF0A3EFF09003A1D7
:1047A000E0FF7E009003AFE0FCA3E0FDEE4CFEEFE7
:1047B0004DFF9003AFEEF0A3EFF09003A2E0FF9067
:1047C00003A7EFF09003A3E0FF9003A8EFF090039E
:1047D000A4E0FF9003A9EFF09003A5E0FF9003ABE6
:1047E000EFF09003A6E0FF9003AEEFF07B017A03B9
:1047F00079A712673490039FEFF090039FE0FF22A8
:10480000900639E4F0906000E0FFEF5480FF7E00F6
:10481000EF64804E7033906001E0FFEF1206A8480D
:104820002621000048BD9002ACE4F0A37407F07BA1
:10483000017A04793B9002AE1206931254E390067B
:1048400039EFF0807880768074906000E0FFEF545C
:1048500080FF7E00EF4E7065906001E0FFEF120672
:10486000A8486B20489822000048BD9002ACE4F0B4
:10487000A37407F07B017A04793B9002AE12069391
:10488000900444E0FFEF4401FF900444EFF0125A1B
:1048900012900639EFF08025906002E0FF7E0090D4
:1048A0000445EEF0A3EFF0900444E0FFEF4402FF74
:1048B000900444EFF0126701900639EFF09006394A
:1048C000E0FF2290053CEFF090053EE4F0A3E4F019
:1048D00090053CE0FFEFD39400500302496F900530
:1048E0003CE0FFEFC39409400302496F90053CE0B0
:1048F000FF7E00EF24FFFFEE34FFFEEFC4F8540FFD
:10490000C868FFEEC454F048FE90053DEFF09005F6
:104910003DE0FF7E00EF240CFFEE3460FE8F828EC0
:1049200083E0FFEF540FFF7E0090053EEEF0A3EF13
:10493000F090053DE0FF7E00EF240DFFEE3460FEB9
:104940008F828E83E0FFEFFD7C0090053EE0FEA3AA
:10495000E0FFEF7F00FEEE4CFEEF4DFF90053EEED8
:10496000F0A3EFF090053E74FF75F0FE1204709016
:10497000053EE0FEA3E0FF22900603E4F0906029EC
:10498000E0FFEF540FFFEF24FEFF900602EFF090E0
:104990000602E0FF7E00900244EE8FF01204709059
:1049A00002ACE0FEA3E0FFD3EF9400EE940040578A
:1049B000900602E0FFEFD39400404C900603E0FF26
:1049C0007E00EF2400FFEE3460FE8F828E83E0FFD6
:1049D0009002AE12068AEF1204099002AE12068A05
:1049E000E92401F9EA3400FA9002AE120693900627
:1049F00003E004F0900602E014F09002AC74FF753E
:104A0000F0FF1204708098900602E0FF900246EFDB
:104A1000F09002BEE0FFEF6480FF9002BEEFF090E6
:104A20000243740BF022900478EFF09004791206A0
:104A30009390047E7407F0904722E0FFEF5402FF4A
:104A40007E00EF4E607D90472074B6F09047207452
:104A5000D5F09047207402F0904722E0FFEF540217
:104A6000FF7E00EF4E7054900478E0FF904720EFF7
:104A7000F090047FE4F0A3E4F090047CE0FEA3E077
:104A8000FF90047FE0FCA3E0FDC3ED9FEC9E503956
:104A900090047912068A90047FE0FEA3E0FFE92FDC
:104AA000F9EA3EFA1203F0FF904720EFF090047FFE
:104AB000E475F00112047080C0800E90047E7409C9
:104AC000F0800690047E7404F090047EE0FF229053
:104AD00005277401F0906004E0FF900528EFF09046
:104AE0000242E0FFEF14FF125B2A900529EEF0A3CB
:104AF000EFF0900529E0FEA3E0FF8F828E83A312E2
:104B0000069CE92404F9EA3400FA1203F0FF900548
:104B10002BEFF090052BE0FF900528E0FEEEC39F01
:104B2000500B900528E0FFEFC39402400790052743
:104B3000E4F08038900528E0FF74AA2FF582E43471
:104B400002F583E0FF900528E0FE74B92EF582E4BB
:104B50003402F583EFF0906002E0FF900528E0FE5C
:104B600074AA2EF582E43402F583EFF0900527E075
:104B7000FF22900554EFF0900555EDF0900556EAB0
:104B8000F0A3EBF0900555E0FFEFC39403500B90BA
:104B9000055674FF75F0FF120470900556E0FEA3F1
:104BA000E0FF7C007D6412041BAC06AD0790055647
:104BB000E0FEA3E0FFEF7802CEC313CE13D8F9FFD7
:104BC000C3EF9DFBEE9CFA900556E0FEA3E0FF7C50
:104BD000017D9012041BEF2BFFEE3AFE900556E08C
:104BE000FCA3E0FDEF2DFFEE3CFE900555E0FDED52
:104BF00090701593FD7C00900554E0FB7A00ED2B3E
:104C0000FDEC3AFCEF2DFFEE3CFE7C007D0712042C
:104C10001BAF05229004AB7403F07BFF7A707932EE
:104C2000C003C002C0017B017A0479ACA801AC02C8
:104C3000AD03D001D002D0037E007F031207DB1248
:104C400067D6EF7006126993EF70F4126993EF6004
:104C50005B7B017A0479AC7D03125321EF6402700F
:104C60004B9004ACE0FF9004AFEFF09004ADE0FF98
:104C70009004B0EFF09004AEE0FF9004B1EFF07B51
:104C8000017A0479AFC003C002C0017B017A0379C5
:104C90006DA801AC02AD03D001D002D0037E007F2D
:104CA000031207DB1226F29004ABEFF09004ABE0A6
:104CB000FF229004DAEFF09004DBECF0A3EDF0902B
:104CC00004DDEBF09004DF7407F0904722E0FFEF83
:104CD0005402FF7E00EF4E606B90472074B6F09058
:104CE000472074D8F09047207405F0904722E0FFE9
:104CF000EF5402FF7E00EF4E70429004DAE0FF9026
:104D00004720EFF09004DBE0FEA3E0FFEEFF7E0023
:104D1000904720EFF09004DBE0FEA3E0FFEF54FFAC
:104D2000FF904720EFF09004DDE0FF904720EFF088
:104D30009004DEE0FF904720EFF0800E9004DF74D7
:104D400009F080069004DF7404F09004DFE0FF2295
:104D50009005C6EFF09005C7EDF09044C27480F066
:104D60009044C37401F09044C07402F09044C07445
:104D700004F09044C07408F09002BFE4F09005C7BE
:104D8000E0FFEF1206A84D90004D980100004DA0E5
:104D90009060097402F0800E9060097403F0800640
:104DA0009060097403F09005C6E0FF9002C0EFF038
:104DB000900242E4F09002B4E4F09002B8E4F09083
:104DC00002BBE4F0900241E4F09002B5E4F09060A0
:104DD000287403F09060087480F07F017E007D00ED
:104DE0007C001262009060127404F02243052CFFD4
:104DF0006AD441052F00420570000041061D0044A1
:104E00000409016E360044040400005DC04104083A
:104E10001844040E2EE00000410638004103EF0064
:104E20004103EA004103E5004103EB004103E401D3
:104E30004205E20030410392004A03940000000161
:104E400001000101076C4A03860000000101000116
:104E500001076C41039E004103910041039300410F
:104E600003900041065B0043051D000000410666FB
:104E70000041066DFF004804A30000000000000090
:104E80000090058E120693126A8390058E12068A90
:104E90001203F0FF900394EFF090058E12068AE95A
:104EA0002401F9EA3400FA1203F0FF900395EFF0C1
:104EB00090058E12068AE92402F9EA3400FA1203F8
:104EC000F0FF900396EFF090058E12068AE9240415
:104ED000F9EA3400FA1203F0FF900398EFF090051E
:104EE0008E12068AE92407F9EA3400FA1203F0FF69
:104EF00090039BEFF090058E12068AE92408F9EAE8
:104F00003400FA120486FFAEF090039CEEF0A3EF9B
:104F1000F0126A7C2290060CE4F090060DE4F0900A
:104F20006000E0FFEF5403FFEF1206A84F36014F79
:104F3000420200004F60906004E0FF90060DEFF029
:104F4000801E906004E0FFEF547FFFEF75F00BA42C
:104F50002451F582E43402F583E0FF90060DEFF072
:104F600090060DE0FF9002B6E0FCA3E0FD8D828C80
:104F700083E5822FF582E43583F583E493FFEF1216
:104F800006A84F9B014F93024F9B0300004F9B804D
:104F90000A800812480090060CEFF090060CE0FF23
:104FA00022906028E0FF900667EFF0900667E0FF30
:104FB000906028EFF0906028E0FF900667EFF09097
:104FC0000667E0FFEF5480FF7E00EF4E600B900617
:104FD00067E0FF900243EFF0227F021258F19060E9
:104FE00000E0FFEF5460FFEF1206A84FF8005002F8
:104FF00020500C40000050161213EF900667EFF09F
:105000008019124F15900667EFF0800F125DDE9049
:105010000667EFF08005900667E4F0900667E0FF12
:10502000EF70069002437403F0229005D0EFF01267
:1050300064A19005D0E0FFEFC39402506512633D78
:10504000EF70579005D0E0FD7F4012554FEF640799
:10505000703D9005D174FFF0904722E0FFEF5402BD
:10506000FF7E00EF4E60F1904722E0FFEF5402FF19
:105070007E00EF4E600D904722E0FFEF1313543F88
:10508000FF80027FFFEF700D9005D1E4F080069065
:1050900005D174FFF012682E800E9005D17404F0D3
:1050A00080069005D17401F09005D1E0FF229004B4
:1050B000F5EFF09004F6ECF0A3EDF09004F5E0FFCE
:1050C000EFD3941F5003D38001C340057F001268C3
:1050D000449004F5E0FFEF541FFF7E00EF25E0FF52
:1050E000EE33FEEF2400FFEE3444FEAA06A9077B50
:1050F000011269519004F8EEF0A3EFF09004F5E08E
:10510000FF7E02EF8EF0A4FFAEF0EF2400FFEE343E
:1051100044FEAA06A9077B019004F6E0FEA3E0FF87
:10512000AD07AC061269609004F8E0FEA3E0FF2230
:10513000904E14E0FFEF5403FF90058DEFF09005C3
:105140008DE0FFEFD394015032904E11E0FF7E00CE
:1051500090058BEEF0A3EFF090058BE0FEA3E0FF4F
:10516000EF7F00FE904E10E0FD7C00EE4CFEEF4D18
:10517000FF90058BEEF0A3EFF0801F7B027A4E7953
:105180001012695190058BEEF0A3EFF090058DE0C1
:10519000FFEFB40305904E12E0FF9003EAE0FFEF4B
:1051A00060059003EFE4F090058BE0FEA3E0FF22A2
:1051B0009005C8EFF09005C8E0FFEFD39400406E73
:1051C0009005C8E0FFEFC3940950639005C8E0FF65
:1051D0007E00EF24FFFFEE34FFFEEFC4F8540FC84B
:1051E00068FFEEC454F048FE9005C9EFF09005C882
:1051F000E0FFEF75F00BA42448F582E43402F58358
:10520000E4F09005C8E0FFEF75F00BA4244CF582A4
:10521000E43402F583E0FF9005C9E0FEEEFD7C007A
:10522000ED240EFDEC3460FC8D828C83EFF0229037
:1052300004FF120693900502ECF0A3EDF0900442F7
:10524000E0FFEF75F00BA4244FF582E43402F58300
:10525000E0FEA3E0FF900502E0FCA3E0FDD3ED9F9C
:10526000EC9E4025900442E0FFEF75F00BA4244F24
:10527000F582E43402F583E0FEA3E0FF900502EE40
:10528000F0A3EFF07F00126844900442E0FF900426
:10529000FF12068A900502E0FCA3E0FD90044BECAF
:1052A000F0A3EDF0122AAA22900242E0FFEF14FFD1
:1052B000125B2A900597EEF0A3EFF0900597E0FEC1
:1052C000A3E0FF8F828E83A312069CE92404F9EAEF
:1052D0003400FA1203F0FF900599EFF0900599E081
:1052E000FF7E00EF2402FFEE3400FEEF7802C333AE
:1052F000CE33CED8F9FF900597E0FCA3E0FDEF2D6B
:10530000FFEE3CFE900597EEF0A3EFF0900597E0DE
:10531000FEA3E0FF8F828E83A312069CAE02AF0134
:1053200022900493120693900496EDF0900497E473
:10533000F0A3E4F0900499E4F090049A7403F0125E
:10534000617A900497EEF0A3EFF0900496E0FF7E70
:1053500000900497E0FCA3E0FDEFB5051EEEB50458
:105360001A90049312068A900496E0FFEFFD7C00E9
:1053700012639A90049A7402F08014900497E0FEED
:10538000A3E0FFD3EF9400EE940040031266779001
:10539000049AE0FF22C0E0C0F0C083C082C085C094
:1053A00084C086758600C093759300C0D075D00008
:1053B000C000C001C002C003C004C005C006C007D1
:1053C0007FF47E017D007C00125826126792EF70F8
:1053D0000812697B125E2E8003125E7D1267A9128D
:1053E0006A60D007D006D005D004D003D002D00127
:1053F000D000D0D0D093D086D084D085D082D08336
:10540000D0F0D0E032C0E0C0F0C083C082C085C020
:1054100084C086758600C093759300C0D075D00097
:10542000C000C001C002C003C004C005C006C00760
:105430007FF47E017D007C001258261269E7EF7030
:1054400008123A4F125E2E8003125E7D1269F3122B
:105450006A75D007D006D005D004D003D002D001A1
:10546000D000D0D0D093D086D084D085D082D083C5
:10547000D0F0D0E03290056AE4F090056BE4F09053
:10548000056C7403F090056AE0FFEF7050126993A9
:10549000EF604A12617AEF4E7006126993EF70F373
:1054A0007B017A05796A7D0112532190056BEFF03B
:1054B00090056BE0FFEFB402CC90056AE0FFEFB41B
:1054C000070A90056C7402F0801380B990056AE0B9
:1054D000FFEFB403B090056C7403F080A890056CE6
:1054E000E0FF229002ACE0FEA3E0FFEF4E70051259
:1054F00065E080589002BF7402F09002BEE4F012A2
:105500005ECC906007E0FF7E00EF7F00FE906006BB
:10551000E0FD7C00EE4CFEEF4DFF9005FEEEF0A3AB
:10552000EFF09005FEE0FEA3E0FF9002ACE0FCA3EC
:10553000E0FDD3ED9FEC9E40109005FEE0FEA3E061
:10554000FF9002ACEEF0A3EFF01245A57F01229090
:105550000591EFF0900592EDF09005937407F090AF
:105560004722E0FFEF5402FF7E00EF4E603F90477E
:105570002074B6F090472074DBF09047207408F058
:10558000904722E0FFEF5402FF7E00EF4E7016902E
:105590000591E0FF904720EFF0900592E0FF9047E3
:1055A00020EFF0800E9005937409F080069005932B
:1055B0007404F0900593E0FF22906008E0FFEF5440
:1055C0007FFFEFF0906012E0FFEF54FBFFEFF090F1
:1055D00043A5E0FFEF54FEFFEFF09043B5E0FFEF8F
:1055E00054FEFFEFF09044CA7480F09044CB7401F5
:1055F000F09044C87402F09044C87404F09044C819
:105600007408F0900242E4F09002B4E4F09002B822
:10561000E4F09002BBE4F0900241E4F0900638E43C
:10562000F022C0E0C0F0C083C082C085C084C086C4
:10563000758600C093759300C0D075D000C000C0BF
:1056400001C002C003C004C005C006C0077FF47ECD
:10565000017D007C00125826126993EF6003123D11
:105660007C12699F126A4BD007D006D005D004D0B7
:1056700003D002D001D000D0D0D093D086D084D037
:1056800085D082D083D0F0D0E0321264A190066140
:1056900074FFF012633DEF704C7F01125ACFEF643C
:1056A00007703D7B017A0579207D0212588CEFB49A
:1056B000021F900661E4F0904722E0FFEF5402FFE2
:1056C0007E00EF4E701A7F017E001263C880E88072
:1056D0000F904722E0FFEF5402FF7E00EF4E60C3C1
:1056E00012682E80069006617404F0900661E0FF57
:1056F00022C0E0C083C082C085C084C08675860099
:10570000C093759300C0D075D000C006C0079060EC
:105710000EE0FF900252E0FFEF5403FF7E00EF64C3
:10572000014E600E900255E0FFEF6480FF9002553D
:10573000EFF09002537401F090600BE0FFEF54FE25
:10574000FFEFF0D007D006D0D0D093D086D084D051
:1057500085D082D083D0E032C0E0C083C082C085D3
:10576000C084C086758600C093759300C0D075D084
:1057700000C006C00790601EE0FF90025DE0FFEFF2
:105780005403FF7E00EF64014E600E900260E0FF64
:10579000EF6480FF900260EFF090025E7401F09081
:1057A000600BE0FFEF54FDFFEFF0D007D006D0D044
:1057B000D093D086D084D085D082D083D0E032C040
:1057C000E0C083C082C085C084C086758600C09357
:1057D000759300C0D075D000C006C00790602EE061
:1057E000FF900268E0FFEF5403FF7E00EF64014E7C
:1057F000600E90026BE0FFEF6480FF90026BEFF0B1
:105800009002697401F090600BE0FFEF54FBFFEF32
:10581000F0D007D006D0D0D093D086D084D085D019
:1058200082D083D0E03290FFFC1206CE1206728541
:105830000B83850C8212065AD3EF9400EE948040BD
:105840002F90040E12065A126200850B83850C827B
:10585000C083C08212065AEF2400FFEE3480FEEDB2
:1058600034FFFDEC34FFFCD082D08312067280BF7F
:1058700090040412065A850B83850C821206661268
:1058800004EB1262009000041206CE229005221250
:105890000693900525EDF0900526E4F0900525E0AF
:1058A000FF900526E0FEEEC39F5040904722E0FFA8
:1058B000EF5401FF7E00EF4E6003D38001C3400927
:1058C0007F017E001263C880E2904720E0FF9005D0
:1058D0002212068A900526E0FEE92EF9E43AFAEF54
:1058E000120409900526E004F080B1900526E0FF3F
:1058F00022900669EFF07B007A007900C003C002B5
:10590000C0019002B112068AD082D083D0E06B70C1
:1059100008E965827003EA65836037900669E0FFF5
:105920009002B112068AEF120409900244E0FEA32D
:10593000E0FF9002B112068AE92401F9EA3400FA84
:10594000EE8FF01204B17B007A0079009002B11260
:10595000069322900618EFF0900618E0FFEF12066B
:10596000A8596E01599702597905000059B27F0074
:1059700012692F7F0012693F2290052FE0FFEF6030
:105980000B7F0312692F7F0112693F227F0012698A
:105990002F7F0012693F22126993EF600B7F031281
:1059A000692F7F0312693F227F0012692F7F001247
:1059B000693F229005BAEFF09005BBEDF09005BB72
:1059C000E0FFEFD394075003D38001C340057F006D
:1059D0001268449005BAE0FFEFD3941F5003D380C0
:1059E00001C340057F001268449005BBE0FFEF54FF
:1059F00007FF7E00EF75F020A4FFAEF09005BAE03F
:105A0000FEEE541FFE74802EF582E43444F583EFDD
:105A1000F0229002BF7404F09002BE7480F0125E17
:105A2000CC906007E0FF7E00EF7F00FE906006E014
:105A3000FD7C00EE4CFEEF4DFF900600EEF0A3EF74
:105A4000F0900600E0FEA3E0FF9002ACE0FCA3E0D3
:105A5000FDD3ED9FEC9E4010900600E0FEA3E0FF1A
:105A60009002ACEEF0A3EFF0900243740BF07F01D4
:105A70002290055812069390055BE4F01264A17B16
:105A8000007A007900C003C002C0019005581206D8
:105A90008AD082D083D0E06B7008E965827003EA17
:105AA0006583700890055B7401F0801D12633DEF03
:105AB000600890055B7404F0800F90055812068A08
:105AC00090051D12069312682E90055BE0FF229050
:105AD00005F8EFF09005F97407F0904722E0FFEF2A
