:4000000002278F008F828E83E0540100000070F82278FFE4F6D8FD0227ED0203DBE86480F8E933E83360110460F0ED33EC337009E8FCE9FDEAFEEBFF220460DED3EB9FEA4C
:400040009EE99DE8C2E78CF0C2F795F0400CE8CCF8E9CDF9EACEFAEBCFFB1203A685D0F05804700320D5B3E80470075002B2D50203E592D5EC0460F7E4CCC0E0C398F860B5
:400080003B94186008400DD0E0FB0203BDE4FBFAC9FC8028E830E406E4C9FBE4CAFCE830E305E4C9CACBFCE854076010F8C3E913F9EA13FAEB13FBEC13FCD8F130F52FC331
:4000C000E49CFCEF9BFFEE9AFEED99FDD0E0FBEF4E4D4C701222DB030203E2EC2CFCEF33FFEE33FEED33FDED30E7EB0203BDEF2BFFEE3AFEED39FDD0E0FB50130BBB0003AD
:400100000203E5ED13FDEE13FEEF13FFEC13FC0203BDEC4D6011E8497017ED33EC3304600DE4FCFFFEFD22E933E8330470F80203DB1203A658046009E4CC248150062850E7
:40014000090203E52840030203E2C0E0EB4A7044B98006D0E0FB0203D1EF4E701CBD8008EBFFEAFEE9FD80EBE98DF0A4FEE5F00201FBE9CDF9EAFEEBFFEF89F0A4FCE5F087
:40018000CE89F0A42EFFE435F0CD89F0A42DFEE435F08067EF4E7005BD80D780C3EF8BF0A4ACF0EE8BF0A42CFCE435F0F8EF8AF0A42CE5F038FCE433CB8DF0A42CFCE5F0EE
:4001C0003BF8EE8AF0A42CFCE5F038F8E433CF89F0A42CFCE5F038CF3400CE89F0A42FFFE5F03EFEE433C98DF0A42EFEE5F039CD8AF0A42FFFE5F03EFEE43DFD33D0E0FBCD
:4002000050070BBB000F0203E5EC2CFCEF33FFEE33FEED33FD0203BD0203E5EC5D046005E8590470030203DB1203A6580460F6EC4860F2EC7004FDFEFF22C860DB2481C862
:400240005009C398600250060203E29850CAF582E9294B4A7005AB820203D175F0007C1A7880C3EF9BEE9AED99400DC3EF9BFFEE9AFEED99FDE842F0DC23ACF0D0E0FFD0BF
:40028000E0FED0E0FDAB8220E7101BEB60BAEC2CFCEF33FFEE33FEED33FD0203BDE803F830E705C0F075F000EF2FFFEE33FEED33FD40B830E7C280AA74F8CC6480CCC864A0
:4002C00080C8F58204604FC3EB9FF5F0EA9E42F0E99D42F0E89C45F0603C501DE5825FFFE582D313CB5BCBF42B5582FB50280ABA002409B9002008801DE5825BFBE582D354
:4003000013CF5FCFF4C3132F5582FF50090EBE00050DBD00010CC3EB9FF5F0EA9E42F0E99D42F0E89C45F06007CC4820E701B3EC2275F020800E75F010800575F0087D0045
:400340007E007F003392D530D503120587EC334010EF33FFEE33FEED33FDEC33FCD5F0ED22E5F0247EA2D513CC92E7CDCEFF22EDD2E7CD33EC3392D524814006E4FFFEFD8E
:40038000FC22FCE4CFCECDCC24E0501174FF80EDC3CC13CCCD13CDCE13CECF13CF0470F030D5DE020587E9D2E7C933E833F892D5EDD2E7CD33EC33FC5002B2D522EC30E79D
:4003C000100FBF000C0EBE00080DBD00040BEB6014A2D5EB13FCED92E7FD2274FFFCFDFEFF22E480F8A2D574FF13FC7D80E480EFBB010689828A83E0225002E722BBFE02EF
:40040000E32289828A83E49322BB010689828A83F0225002F722BBFE01F322C5F0F8A3E028F0C5F0F8E582158270021583E038F022BB010A89828A83F0E5F0A3F02250060B
:40044000F709A7F01922BBFE06F3E5F009F31922EF2BFFEE3AFEED39FDEC38FC22E88FF0A4CC8BF0A42CFCE98EF0A42CFC8AF0EDA42CFCEA8EF0A4CDA8F08BF0A42DCC3803
:4004800025F0FDE98FF0A42CCD35F0FCEB8EF0A4FEA9F0EB8FF0A4CFC5F02ECD39FEE43CFCEAA42DCE35F0FDE43CFC2275F008758200EF2FFFEE33FECD33CDCC33CCC58218
:4004C00033C5829BED9AEC99E58298400CF582EE9BFEED9AFDEC99FC0FD5F0D6E4CEFBE4CDFAE4CCF9A88222B800C1B90059BA002DEC8BF084CFCECDFCE5F0CBF97818EFBB
:400500002FFFEE33FEED33FDEC33FCEB33FB10D703994004EB99FB0FD8E5E4F9FA227818EF2FFFEE33FEED33FDEC33FCC933C910D7059BE99A4007EC9BFCE99AF90FD8E032
:40054000E4C9FAE4CCFB2275F010EF2FFFEE33FEED33FDCC33CCC833C810D7079BEC9AE899400AED9BFDEC9AFCE899F80FD5F0DAE4CDFBE4CCFAE4C8F922EF4BFFEE4AFE17
:40058000ED49FDEC48FC22C3E49FFFE49EFEE49DFDE49CFC22EB9FF5F0EA9E42F0E99D42F0E89C45F022E8600FECC313FCED13FDEE13FEEF13FFD8F122E8600FEFC333FFE1
:4005C000EE33FEED33FDEC33FCD8F122E0FCA3E0FDA3E0FEA3E0FF22E0F8A3E0F9A3E0FAA3E0FB22ECF0A3EDF0A3EEF0A3EFF022A42582F582E5F03583F58322E0FBA3E0FF
:40060000FAA3E0F922EBF0A3EAF0A3E9F022E493FB740193FA740293F922D083D082F8E4937012740193700DA3A393F8740193F5828883E4737402936860EFA3A3A380DFBF
:40064000E50C2582F582E50B3583F583B50B0485820C2210AF0685820CF50B2285820CF50BD2AF22EC8EF0A4CCC5F0CCCDF8EFA4CEC5F02DFDE43CFCE8A42EC8C5F03DFDB5
:40068000E43CFCEFA4FFE5F028FEE43DFDE43CFC22E709F608DFFA8046E709F208DFFA803E88828C83E709F0A3DFFA8032E309F608DFFA806EE309F208DFFA806688828C14
:4006C00083E309F0A3DFFA805A89828A83E0A3F608DFFA804E89828A83E0A3F208DFFA804280D280FA80C680D4805580F28029801080A680EA809A80A880DA80E280CA8097
:400700002988848C8589828A83E493A30586F0A30586DFF5DEF3800B89828A83E493A3F608DFF9ECFAA9F0EDFB2288848C8589828A83E0A30586F0A30586DFF6DEF480E36C
:4007400089828A83E493A3F208DFF980D688F0EF60010E4E60CD88F0ED2402B4040050C3F582EB2402B4040050B923234582239006E173900076EFF090007EE4F0A3E4F0D7
:40078000900077E4F0900077E0FFEFC394094003020832900077E0FFEF75F00BA42490F582E43400F583E4F0900077E0FFEF75F00BA42492F582E43400F583E4F0900077B1
:4007C000E0FFEF75F00BA42491F582E43400F583E4F0900077E0FFEF75F00BA42493F582E43400F583E4F0900077E0FFEF75F00BA42495F582E43400F583E4F0900077E0A8
:40080000FFEF75F00BA42498F582E43400F583E4F0A3E4F0900077E0FFEF75F00BA4249AF582E43400F583E4F0900077E004F0020785900076E0FFEF603A900079E4F090E2
:400840000079E0FFEFC39402502A900079E0FF74F32FF582E43400F583E4F0900079E0FF74022FF582E43401F583E4F0900079E004F080CB90008BE0FFEFD39400500302CF
:400880000C9C90008BE0FFEF14FF12383D900080EEF0A3EFF0900080E0FEA3E0FF8F828E83A312060E90007B12060590007B1205FCE92407F9EA3400FA1203F0FFEF544050
:4008C000FF7E00EF4E601090008AE0FFEF4401FF90008AEFF0800E90008AE0FFEF54FEFF90008AEFF0900080E0FEA3E0FFEF2404FFEE3400FE900080EEF0A3EFF0900080C3
:40090000E0FEA3E0FF8F828E83E493FF900077EFF09000797401F0900079E0FFEFC394094003020BB1900080E0FEA3E0FF8F828E83A312060EAE02AF01900082EEF0A3EFF6
:40094000F0900078E4F0900077E0FF900078E0FEEEC39F4003020BA8900082E0FEA3E0FF8F828E83740293FFEF547FFF7E00900079E0FD7C00ED6F7002EC6E6003020B873B
:40098000900082E0FEA3E0FF8F828E83740493FE740593FF900079E0FDED75F00BA42498F582E43400F583E0FCA3E0FDC3ED9FEC9E502C900082E0FEA3E0FF8F828E83742C
:4009C0000493FE740593FF900079E0FDED75F00BA42498F582E43400F583EEF0A3EFF0900082E0FEA3E0FF8F828E83E493FF74F32FF582E43400F583E0FF900082E0FCA336
:400A0000E0FD8D828C83740193FEEF6E6003020B87900082E0FEA3E0FF8F828E83740393FFEF5403FF90007AEFF0900082E0FEA3E0FF8F828E83740293FFEF5480FF7E00BA
:400A4000EF4E7003020AC7900079E0FFEF75F00BA42491F582E43400F5837401F090007AE0FFEFB401047F0780027F0D900079E0FEEE75F00BA42495F582E43400F583EF2A
:400A8000F0900082E0FEA3E0FF8F828E83740693FFEF640A6018900082E0FEA3E0FF8F828E83740693FFEF64026003020B3D90007AE0FFEF64037003020B3D900079E0FF4B
:400AC000900184EFF08076900079E0FFEF75F00BA42491F582E43400F583E4F090007AE0FFEFB401047F0580027F09900079E0FEEE75F00BA42495F582E43400F583EFF0EA
:400B0000900082E0FEA3E0FF8F828E83740693FFEF640A6014900082E0FEA3E0FF8F828E83740693FFEFB4021490007AE0FFEF6403600A900079E0FF900185EFF090008253
:400B4000E0FEA3E0FF8F828E83740293FF900079E0FEEE75F00BA42494F582E43400F583EFF0900082E0FEA3E0FF8F828E83740393FF900079E0FEEE75F00BA42490F582B3
:400B8000E43400F583EFF0900082E0FEA3E0FFEF2407FFEE3400FE900082EEF0A3EFF0900078E004F0020946900079E004F0020917900080E0FEA3E0FF8F828E83A3120630
:400BC0000EAE02AF01900082EEF0A3EFF0900079E4F0900077E0FF900079E0FEEEC39F5053900082E0FEA3E0FF8F828E83E493FF900082E0FCA3E0FD8D828C83740293FEDB
:400C0000EE547FFEEE75F00BA4249AF582E43400F583EFF0900082E0FEA3E0FFEF2407FFEE3400FE900082EEF0A3EFF0900079E004F0809E1233639000FFEEF0A3EFF09010
:400C400000777401F0900077E0FFEFC39409504990007EE0FEA3E0FF900077E0FDED75F00BA42496F582E43400F583EEF0A3EFF0900077E0FFEF75F00BA42498F582E43422
:400C800000F583E0FEA3E0FF90007EEE8FF012041B900077E004F080AC1215162290006DE4F07B007A00790090006F1206059000F5E4F0A3E4F0906000E0FFEF5480FF7E10
:400CC00000EF64804E6003020F6B906001E0FFEF12061A0E93000CE3060F1F080F3F0A0000112E906003E0FFEFB40135123DCB900074EEF0A3EFF0900074E0FEA3E0FF8F84
:400D0000828E83A312060E9000F71206059000F5E4F0A37412F012344890006DEFF002112E906003E0FFEF6402706B906002E0FF12383D900074EEF0A3EFF0900074E0FEF6
:400D4000A3E0FF8F828E83A312060E9000F71206059000F71205FCE92403F9EA3400FA1203F0FF7E00EF7F00FE9000F71205FCE92402F9EA3400FA1203F0FD7C00EE4CFE49
:400D8000EF4DFF9000F5EEF0A3EFF012344890006DEFF002112E906003E0FFEF64036003020E88900072E4F07BFF7A40794B90006F120605900072E0FF906002E0FEEED3E9
:400DC0009F403D90006F1205FC1203F0FFEF603090006F1205FC1203F0FF900073EFF090006F1205FC900073E0FF7E00E92FF9EA3EFA90006F120605900072E004F080B47F
:400E0000906002E0FFEFB4EE0C7BFF7A4079C990006F120605906002E0FFEF6030904006E493FF906002E0FEEEB507217BFF7A40799090006F1206057B017A01794D12252E
:400E4000AE7B017A01794D90006F12060590006F1205FC1203F0FFEF700302112E90006F1205FC1203F0FF7E009000F5EEF0A3EFF090006F1205FC9000F712060512344875
:400E800090006DEFF002112E12305290006DEFF002112E906000E0FFEF5403FFEF12061A0EED000EAA020000112E9000F5E4F0A37402F0906004E0FFEF547FFFEF75F00BE6
:400EC000A42492F582E43400F583E0FF900196EFF0900197E4F07B017A0179969000F712060512344890006DEFF002112E9000F5E4F0A37402F090008AE0FF900196EFF0FA
:400F0000900197E4F07B017A0179969000F712060512344890006DEFF002112E02112E9000F5E4F0A37401F07B017A00798B9000F712060512344890006DEFF002112E90E5
:400F400000F5E4F0A37401F0906004E0FF74F32FF9E43400FA7B019000F712060512344890006DEFF002112E02112E906001E0FFEF12061A100F0110A7030F87050F9C0906
:400F80000FBC0B0000112E906002E0FF900104EFF0123E0090006DEFF002112E906002E0FF90008BEFF09001017401F07F01120773123E0090006DEFF002112E122E75EF8B
:400FC000700302112E906004E0FF90006EEFF090006EE0FF9000FDEFF09001017401F012113490006EE0FF74F32FF582E43400F583E0FF90006EE0FE74022EF582E434018D
:40100000F583EFF0123E0090006DEFF002112E906000E0FFEF5403FFEF12061A103F001065011029020000112E906002E0FFEF600302112E121C3790006DEFF002112E9002
:401040006002E0FFEF6401600302112E90008AE0FFEF54FDFF90008AEFF0123E0090006DEFF002112E906004E0FFEFC39402400302112E906004E0FF74052FF582E43401EF
:40108000F583C083C082E0FF906002E0FEEEF4FEEF5EFFD082D083EFF0123E0090006DEFF002112E02112E906000E0FFEF5403FFEF12061A10D30010F50110C10200001124
:4010C0002E906002E0FFEF70651224B790006DEFF0805B906002E0FFEF6401705190008AE0FFEF4402FF90008AEFF0123E0090006DEFF08039906004E0FFEFC39402502EFF
:40110000906004E0FF74052FF582E43401F583C083C082E0FF906002E0FEEEF4FEEF5EFFD082D083EFF0123E0090006DEFF090006DE0FF2290008BE0FFEFD3940050030279
:40114000151590008BE0FFEF14FF12383D90007BEEF0A3EFF090007BE0FEA3E0FFEF2404FFEE3400FE90007BEEF0A3EFF090007BE0FEA3E0FF8F828E83E493FF900076EF53
:40118000F090007BE0FEA3E0FF8F828E83A312060EAE02AF0190007DEEF0A3EFF0900078E4F0900076E0FF900078E0FEEEC39F400302151590007DE0FEA3E0FF8F828E8327
:4011C000E493FF74022FF582E43401F583E0FF90007DE0FCA3E0FD8D828C83E493FE74F32EF582E43400F583E0FEEE6F70030214F490007DE0FEA3E0FF8F828E83E493FF98
:4012000074F32FF582E43400F583E0FF90007DE0FCA3E0FD8D828C83740193FEEF6E60030214F490007DE0FEA3E0FF8F828E83E493FF906004E0FEEF6E60030214F49000AA
:401240007DE0FEA3E0FF8F828E83740293FFEF547FFF900077EFF0900077E0FF7E00EF24FFFFEE34FFFEEFC4F8540FC868FFEEC454F048FE90007AEFF090007DE0FEA3E05C
:40128000FF8F828E83740393FFEF5403FF900079EFF090007DE0FEA3E0FF8F828E83740293FFEF5480FF7E00EF4E603C900077E0FFEF75F00BA42491F582E43400F583740E
:4012C00001F0900079E0FFEFB401047F0780027F0D900077E0FEEE75F00BA42495F582E43400F583EFF08039900077E0FFEF75F00BA42491F582E43400F583E4F090007918
:40130000E0FFEFB401047F0580027F09900077E0FEEE75F00BA42495F582E43400F583EFF090007AE0FF7E00EF240EFFEE3460FE8F828E837401F090007DE0FEA3E0FF8F88
:40134000828E83740493FE740593FF900077E0FDED75F00BA42498F582E43400F583EEF0A3EFF090007DE0FEA3E0FF8F828E83740293FF900077E0FEEE75F00BA42494F593
:4013800082E43400F583EFF090007DE0FEA3E0FF8F828E83740393FF900077E0FEEE75F00BA42490F582E43400F583EFF0900077E0FFEF75F00BA42493F582E43400F5837C
:4013C000E4F0900077E0FFEF75F00BA42498F582E43400F583E0FEA3E0FFEEFF7E0090007AE0FEEEFD7C00ED240CFDEC3460FC8D828C83EFF0900077E0FFEF75F00BA424B3
:4014000098F582E43400F583E0FEA3E0FFEF54FFFF90007AE0FEEEFD7C00ED240DFDEC3460FC8D828C83EFF0900077E0FFEF75F00BA42496F582E43400F583E0FEA3E0FF7F
:40144000EF54FFFF90007AE0FEEEFD7C00ED2486FDEC3460FC8D828C83EFF0900077E0FFEF75F00BA42496F582E43400F583E0FEA3E0FFEEFF7E0090007AE0FEEEFD7C000B
:40148000ED2487FDEC3460FC8D828C83EFF0900077E0FFEF75F00BA42496F582E43400F583E0FEA3E0FFEF54FFFF90007AE0FEEEFD7C00ED2484FDEC3460FC8D828C83EF69
:4014C000F0900077E0FFEF75F00BA42496F582E43400F583E0FEA3E0FFEEFF7E0090007AE0FEEEFD7C00ED2485FDEC3460FC8D828C83EFF090007DE0FEA3E0FFEF2407FFA6
:40150000EE3400FE90007DEEF0A3EFF0900078E004F00211A2229000847401F0900085E4F0900085E0FFEFC394804003021704900085E0FF7E00EF2480FFEE3460FE8F825A
:401540008E83740CF0900084E0FFEF75F00BA42495F582E43400F583E0FFEF604F900084E0FFEF75F00BA42494F582E43400F583E0FFEF5480FF7E00EF4E6018900085E039
:40158000FF7E00EF240EFFEE3460FE8F828E83740CF0802E900085E0FF7E00EF240EFFEE3460FE8F828E837408F08016900085E0FF7E00EF240EFFEE3460FE8F828E8374F0
:4015C00080F0900084E0FFEF75F00BA42498F582E43400F583E0FEA3E0FFEEFF7E00900085E0FEEEFD7C00ED240CFDEC3460FC8D828C83EFF0900084E0FFEF75F00BA424F0
:4016000098F582E43400F583E0FEA3E0FFEF54FFFF900085E0FEEEFD7C00ED240DFDEC3460FC8D828C83EFF0900084E0FFEF75F00BA42496F582E43400F583E0FEA3E0FF65
:40164000EF54FFFF900085E0FEEEFD7C00ED2486FDEC3460FC8D828C83EFF0900084E0FFEF75F00BA42496F582E43400F583E0FEA3E0FFEEFF7E00900085E0FEEEFD7C00E6
:40168000ED2487FDEC3460FC8D828C83EFF0900084E0FFEF75F00BA42496F582E43400F583E0FEA3E0FFEF54FFFF900085E0FEEEFD7C00ED2484FDEC3460FC8D828C83EF4F
:4016C000F0900084E0FFEF75F00BA42496F582E43400F583E0FEA3E0FFEEFF7E00900085E0FEEEFD7C00ED2485FDEC3460FC8D828C83EFF0900084E004F0900085E0241001
:40170000F002152190600A74FFF022900014EEF0A3EFF0900016ECF0A3EDF07F007E007D007C0090001B1205E490001FE4F0A3E4F0900027E4F07F007E007D007C40900015
:40174000291205E47B007A00798078419000291205CC12021B1226A090001B1205E490001B1205CC12036FEFC4F8540FC868FFEEC454F048FE12295BAA06A9077B019000C8
:40178000181206059000181205FC9000241206057F007E007D807C4190001B1205D81201127B007A007900784012002112036F90001FEEF0A3EFF0900027E4F0900027E0E4
:4017C000FFEFC394025031900027E0FF7E00EF2400FFEE3480FE8F828E83E0FF9000241205FCEF120409900025E475F00112041B900027E004F080C4900027E0FF7E0090E2
:40180000001FE0FCA3E0FDC3EF9DEE9C50129000241205FCE4120409900027E004F080D8900016E0FEA3E0FF7F009000181205FC900014E0FCA3E0FDE92DF9EA3CFAEF12D5
:401840000409900016E0FEA3E0FFEF54FFFF9000181205FC900014E0FCA3E0FDED2401FDEC3400FCE92DF9EA3CFAEF1204097F00123165900028EFF0900027E4F090001800
:401880001205FC900021120605900027E0FCE412033B90001B1205D81202B8602D402B900027E0FFEFC3948050209000211205FC900027E0FD1223AD900022E475F01012FF
:4018C000041B900027E004F080BF9000181205FCAE02AF01121F1C22900015EFF0900016120605900015E0FFEFD394005003021AA4900015E0FFEFC394094003021AA490DB
:401900000015E0FF7E00EF24FFFFEE34FFFEEFC4F8540FC868FFEEC454F048FE90001BEFF090001BE0FF7E00EF2488FFEE3460FE90001CEEF0A3EFF0900015E0FFEF75F0FC
:401940000BA42496F582E43400F583E0FEA3E0FFC3E49FFF74029EFE900019E0FCA3E0FDD3ED9FEC9E4028900015E0FFEF75F00BA42496F582E43400F583E0FEA3E0FFC37F
:40198000E49FFF74029EFE900019EEF0A3EFF0900019E0FEA3E0FFEEFF7E00900015E0FEEE75F00BA42493F582E43400F583E0FEEF4EFF90001BE0FEEEFD7C00ED240CFDAF
:4019C000EC3460FC8D828C83EFF0900019E0FEA3E0FFEF54FFFF90001BE0FEEEFD7C00ED240DFDEC3460FC8D828C83EFF07B007A007900C003C002C0019000161205FCD063
:401A000082D083D0E06B7008E965827003EA6583605190001EE4F0A3E4F0900019E0FEA3E0FF90001EE0FCA3E0FDC3ED9FEC9E50329000161205FC90001EE0FEA3E0FFE961
:401A40002FF9EA3EFA1203F0FF90001CE0FCA3E0FD8D828C83EFF090001EE475F00112041B80B7900015E0FFEF75F00BA42491F582E43400F583E4F0900015E0FFEF75F0C4
:401A80000BA42495F582E43400F583E0FF90001BE0FEEEFD7C00ED240EFDEC3460FC8D828C83EFF02290480074F1F01221867B007A4679E8123FAEEF4405FD7B007A4679C7
:401AC000E8123FBA750A00E50AC39408503AAF0AEF75F005A42403F582E43441F583AF82AE838E088F09AE08AF098F828E8312060EAE08AF098F828E83740393FC74049390
:401B0000FD123E1A050A80BF7B087A007900123C0D7B017A507903123FAEEF4402FD7B017A507903123FBA7B017A507913123FAEEF4402FD7B017A507913123FBA9043A00C
:401B4000E0FFEF4440FF9043A0EFF09043C2E0FFEF4410FF9043C2EFF07B087A017928C003C002C0017B007A517902900005120605D001D002D0037F087E00123B4D7B08A8
:401B80007A017930C003C002C0017B007A5179F0900005120605D001D002D0037F0A7E00123B4D7B087A01793CC003C002C0017B007A517962900005120605D001D002D004
:401BC000037F087E00123B4D9044F47401F0904322E0FFEF4408FF904322EFF09046ECE0FFEFC394055006904689743AF07B017A5079077D40123FBA7B017A5079177D40D4
:401C0000123FBA123AE27B007A4379A0C003C002C0017B007A4379B0900005120605D001D002D0037F0E7E00123B4D9043B0E0FFEF54FDFFEFF022900078E4F0906004E054
:401C4000FFEF547FFF900076EFF0900076E0FF7E00EF24FFFFEE34FFFEEFC4F8540FC868FFEEC454F048FE900077EFF0900076E0FFEFD394005003021DA5900076E0FFEFA7
:401C8000C394094003021DA5900076E0FFEF75F00BA42492F582E43400F583E0FFEF54FEFFEFF0900076E0FFEF75F00BA42493F582E43400F583E4F0900077E0FF7E00EF4D
:401CC000240CFFEE3460FE8F828E83E0FFEF547FFFEFF0900076E0FFEF75F00BA42491F582E43400F583E0FFEF54FDFFEFF0900076E0FFEF75F00BA42494F582E43400F5CF
:401D000083E0FFEF5480FF7E00EF4E6049900076E0FFEF75F00BA42491F582E43400F583E0FFEFB40118900077E0FF7E00EF240EFFEE3460FE8F828E83740CF0805F9000D7
:401D400077E0FF7E00EF240EFFEE3460FE8F828E83740DF08047900076E0FFEF75F00BA42491F582E43400F583E0FFEFB40118900077E0FF7E00EF240EFFEE3460FE8F8241
:401D80008E837408F08016900077E0FF7E00EF240EFFEE3460FE8F828E837409F0123E00900078EFF0900078E0FF22C0E0C0F0C083C082C085C084C086758600C093759343
:401DC00000C0D075D000C000C001C002C003C004C005C006C007906028E0FF90006AEFF090006AE0FFEF5410FF7E00EF4E7003021EF990006B7401F090006AE0FFEF5480B4
:401E0000FF7E00EF4E603190006AE0FFEF540FFF7E00EF64014E600790006BE4F080461230DC90008CE0FFEF5480FF7E00EF4E603490006BE4F0802D90006AE0FFEF54400F
:401E4000FF7E00EF4E6005123D09801990006AE0FFEF5420FF7E00EF4E6005123C3A800590006BE4F090006BE0FFEF7003021EF9906028E0FF90006AEFF090006AE0FFEF2E
:401E80005480FF7E00EF4E707090008FE0FF900107E0FEEE4FFF90006AEFF090006AE0FF906029EFF0906029E0FF90006AE0FEEE6F704690008CE0FF90006BEFF09060288A
:401EC000E0FFEF5480FF90006AEFF090006AE0FFEF701890008CE0FF906028EFF0906028E0FFEF540FFF90006BEFF090008CE0FF90006BE0FEEEB507BAD007D006D005D07A
:401F000004D003D002D001D000D0D0D093D086D084D085D082D083D0F0D0E03290002DEEF0A3EFF04E700302205A90018BE07002A3E0700302205A90002DE0FEA3E024FC96
:401F4000FFEE34FFFEA37401F0A37489F090002FE0FCA3E0F5828C83E0FCA3E0FD900031ECF0A3EDF04C602090002DE0FCA3E0FD900031E0FAA3E0FBD39DEA9C500A9000B0
:401F80002FEAF0A3EBF080C5900031E07002A3E0604D8F828E83A3A3E0FCA3E0FD90002EE02DFD90002DE03CFC900031E0FAA3E0FB6D7002EA6C70278B828A83A3A3E0FC90
:401FC000A3E02404FDE43C8F828E83A3A38DF012041B900031E0FCA3E0F5828C838003900031E0FDA3E08F828E83CDF0A3EDF090002FE0FCA3E0FDF5828C83A3A3E0FAA3F6
:40200000E0FBED2BFDEC3AFCED2404FDE43CFCED6F7002EC6E70338F828E83A3A3E0FCA3E02404FDE43CFC90002FE0FAA3E0FBF5828A83A3A3EC8DF012041B8F828E83E010
:40204000FFA3E08B828A83CF800C90002FE0FCA3E0F5828C83EEF0A3EFF022900059EFF090005A120605900059E0FFEFD394005003022175900059E0FFEFC394094003020F
:4020800021757B007A007900C003C002C00190005A1205FCD082D083D0E06B7008E965827003EA65837003022175900059E0FF7E00EF24FFFFEE34FFFEEFC4F8540FC868CD
:4020C000FFEEC454F048FE90005FEFF090005FE0FF7E00EF2488FFEE3460FE900060EEF0A3EFF0900059E0FF122BB8900064EEF0A3EFF0900064E0FEA3E0FF90005DE0FCF3
:40210000A3E0FDD3ED9FEC9E4010900064E0FEA3E0FF90005DEEF0A3EFF0900062E4F0A3E4F090005DE0FEA3E0FF900062E0FCA3E0FDC3ED9FEC9E5032900060E0FEA3E0C1
:40214000FF8F828E83E0FF90005A1205FC900062E0FCA3E0FDE92DF9EA3CFAEF120409900062E475F00112041B80B7900059E0FF12326B800890005DE4F0A3E4F090005D0F
:40218000E0FEA3E0FF227B007A4079807DE77C03123F79904082741BF07B007A4079847D637C00123F79904086741BF09043007406F09042007452F07B0C7A01790F123F24
:4021C000AE9046A1EFF07B007A4279227D187C08123F797B007A4279207D517C12123F79900004E4F07F197E007D007C009000001205E49000001205CCD3EF9400EE9400E3
:40220000404E900004E0FFEF64036044904225E0FFEF5401FF7E00900004E0FEEE25E0FEEE4FFFEF5403FF900004EFF07FE07E017D007C00123A009000001205CC7BFF7A2B
:40224000FF79FF78FF1204509000001205E480A39000001205CCEF4E70057F03123F377B007A4079047D007C01123F799040047407F0904006E4F09040087448F090400476
:40228000E4F0904009E4F09040017402F09043A2E0FFEF4403FF9043A2EFF022123EFB900011EFF09043A5E0FFEF4401FFEFF09043B5E0FFEF4401FFEFF090609D7401F0C8
:4022C0009060097402F0906010E0FFEF547FFFEFF07F007E00123BE0904394E0FFEF54F9FFEFF0906012E0FFEF54DFFFEFF0904394E0FFEF4401FFEFF07F017E00123BE012
:402300007F287E00123BE09051F8E0FFEF547FFFEFF09051F8E0FFEF54BFFFEFF0904394E0FFEF4402FFEFF07F027E00123BE0904394E0FFEF4404FFEFF0906084E4F090A3
:402340006085E4F0900011E0FF123E337C387DE97F171231E97D067F1712377F7C3F7DF57F151231E97D067F1512377F7C1D7DAB7F181231E97D067F1812377F7C357D87FD
:402380007F011231E97D067F0112377F7C357DEE7F021231E97D067F0212377F7C367D557F031231E97D067F0312377F2290002D120605900030EDF0123CBD900030E0FFCF
:4023C000EFC3948040030224AB123BB1EF60030224A390003174FFF090002D1205FC900036E4F0A37410F07F40122DCEEF6407600302249E904722E0FFEF5402FF7E00EF6F
:402400004E60F1904722E0FFEF5402FF7E00EF4E600D904722E0FFEF1313543FFF80027FFFEF7005900031E4F0900031E0FFEF7067900030E0FFEFFD7C00900194E0FB9044
:402440000195E0FF900036EFF07F40122F18EF6407703D90003174FFF0904722E0FFEF5402FF7E00EF4E60F1904722E0FFEF5402FF7E00EF4E600D904722E0FFEF13135452
:402480003FFF80027FFFEF7015900031E4F0800E90003174FFF0800690003174FFF0123EBB800E9000317404F080069000317401F0900031E0FF22900078E4F0906004E099
:4024C000FFEF547FFF900076EFF0900076E0FF7E00EF24FFFFEE34FFFEEFC4F8540FC868FFEEC454F048FE900077EFF0900076E0FFEFD3940050030225A8900076E0FFEF14
:40250000C3940940030225A8900076E0FFEF75F00BA42492F582E43400F583E0FFEF4401FFEFF0900076E0FFEF75F00BA42493F582E43400F583E4F0900076E0FFEF75F0E0
:402540000BA42491F582E43400F583E0FFEF4402FFEFF0900076E0FFEF75F00BA42494F582E43400F583E0FFEF5480FF7E00EF4E6018900077E0FF7E00EF240EFFEE34607D
:40258000FE8F828E83748DF08016900077E0FF7E00EF240EFFEE3460FE8F828E837489F0123E00900078EFF0900078E0FF2290007612060590007AE4F07B007A007900C0F2
:4025C00003C002C0019000761205FCD082D083D0E06B7008E965827003EA6583700302269F9000761205FC74221204099000761205FCE92401F9EA3400FA74031204099089
:4026000000797402F0900079E0FFEFC39422400302269F90007AE0FFE4FCFDFEEF2400FFEE3401FEED340CFDEC3400FCA907AA06AB05123FAE90007BEFF090007AE004F04D
:4026400090007BE0FFEFC4540FFFEF90412B93FF9000761205FC900079E0FEE92EF9E43AFAEF12040990007BE0FFEF540FFFEF90412B93FF900079E0FEEEFD7C00ED24028F
:40268000FDEC3400FC9000761205FCE92DF9EA3CFAEF120409900079E02404F00226052290002D1205E474FFFFFEFDFC90002DE0F8A3E0F9A3E0FAA3E0FBC3120595603827
:4026C0007F807E967D187C4B90002DE0F8A3E0F9A3E0FAA3E0FB1202B86002501B7F807E967D187CCB90002DE0F8A3E0F9A3E0FAA3E0FB1202B8500F90002DE0FCA3E0FD87
:40270000A3E0FEA3E0FF2290002DE0FCA3E0FDA3E0FEA3E0FF12036F9000311205E4900031E0FCA3E0FDA3E0FEA3E0FFEC120331C8ECC8C9EDC9CAEECACBEFCB90002DE027
:40274000FCA3E0FDA3E0FEA3E0FF12001DE4FBFAF9F81202B85025900031E0FCA3E0FDA3E0FEA3E0FFE4FAF9F8EF2401FFEA3EFEE93DFDE83CFC9000311205E4900031E0D8
:40278000FCA3E0FDA3E0FEA3E0FFEC1203312275930078007583467582E8E04401F0009046ECE0F99046FAE0FAB903225420B40012B8001AEA901FFFF07401901FFEF0903B
:4027C00046F6F0901FFEE06005901FFFE0FA90480074C0F075810C90000078007920E4F0A3D8FCD9FAEA900178F0020011750B1F750CFD121AA5022834023AACE493A3F83A
:40280000E493A34003F68001F208DFF48029E493A3F85407240CC8C333C4540F4420C8834004F456800146F6DFE4800B0102040810204080903A75E47E019360BCA3FF543E
:402840003F30E509541FFEE493A360010ECF54C025E060A840B8E493A3FAE493A3F8E493A3C8C582C8CAC583CAF0A3C8C582C8CAC583CADFE9DEE780BE900008E4F07BFF2F
:402880007A41793BC003C002C0017B017A007909A801AC02AD03D001D002D0037E007F0512074D90000E74FFF07D017F001239D7123FDEEF7006123FA2EF70F4123F881221
:4028C0003FA2EF7003022957123E8F90000EEFF090000EE0FFEF60E77B017A007909122C6D900008EFF0900008E0FFEF6459705F900009E0FFEF12061A291743290D4429B9
:402900000649000029477F45123CE480B2123FF47F59123CE480A87B017A007909C003C002C0017B017A00790FA801AC02AD03D001D002D0037E007F0512074D123F107F38
:4029400059123CE40228BF7F4E123CE40228BF7F4E123CE40228BF123FC62290002DEEF0A3EFF0A37401F0A37489F090002FE0FEA3E0F5828E83E0FEA3E0FF4E7003FEFF5F
:40298000228F828E83A3A3E0FCA3E0FD90002DE0FAA3E0FBC3ED9BEC9A500A90002FEEF0A3EFF080C68F828E83A3A3E0FCA3E0C39BFDEC9AFC900031F0A3EDF0C39410EC64
:4029C000940050178F828E83E0FCA3E0FD90002FE0FAA3E0F5828A83EC8045900032E024FCF0900031E034FFF0E0FDA3E08F828E83A3A3CDF0A3EDF0EF2404FFE43EFE90CC
:402A00000032E02FFF900031E03EFE90002FF0A3EFF090002DE0FDA3E08F828E83A3A3CDF0A3EDF0EF2404FFE43EFE2290007BE4F09000FEE0FF7E0090008DEE8FF01204C4
:402A40001B9000F5E0FEA3E0FFD3EF9400EE9400405390007BE0FFEFC3940850489000F71205FC1203F0FF90007BE0FEEEFD7C00ED2400FDEC3460FC8D828C83EFF0900016
:402A8000F71205FCE92401F9EA3400FA9000F712060590007BE004F09000F574FF75F0FF12041B809C9000FEE0FFEF6408600B90007BE0FFEFD39400401C900107E0FFEF8C
:402AC0006480FF900107EFF090008C740FF09001087402F0800C90008C7402F09001087402F090007BE0FF9000FEEFF090007BE0FF90008FEFF022900078E4F0906000E0D4
:402B0000FFEF5480FF7E00EF64804E7031906001E0FFEF12061A2B1D2100002BB29000F5E4F0A37407F07B017A01797D9000F7120605123448900078EFF080768074906016
:402B400000E0FFEF5480FF7E00EF4E7065906001E0FFEF12061A2B60202B8D2200002BB29000F5E4F0A37407F07B017A01797D9000F7120605900186E0FFEF4401FF90011F
:402B800086EFF01237DE900078EFF08025906002E0FF7E00900187EEF0A3EFF0900186E0FFEF4402FF900186EFF0123E00900078EFF0900078E0FF22900066EFF090006809
:402BC000E4F0A3E4F0900066E0FFEFD394005003022C64900066E0FFEFC394094003022C64900066E0FF7E00EF24FFFFEE34FFFEEFC4F8540FC868FFEEC454F048FE9000F5
:402C000067EFF0900067E0FF7E00EF240CFFEE3460FE8F828E83E0FFEF540FFF7E00900068EEF0A3EFF0900067E0FF7E00EF240DFFEE3460FE8F828E83E0FFEFFD7C009048
:402C40000068E0FEA3E0FFEF7F00FEEE4CFEEF4DFF900068EEF0A3EFF090006874FF75F0FE12041B900068E0FEA3E0FF2290000F120605900052E4F0A3E4F0900054E4F03B
:402C80009000557459F0123A3B900052EEF0A3EFF0900052E0FEA3E0FFEF64054E70727B017A007912123B18900012E0FF90000F1205FCEF120409900013E0FF7E00EF7F4A
:402CC00000FE900014E0FD7C00EE4CFEEF4DFF90000F1205FCE92401F9EA3400FAEE8FF0120431900015E0FF7E00EF7F00FE900016E0FD7C00EE4CFEEF4DFF90000F12054B
:402D0000FCE92403F9EA3400FAEE8FF01204318009123DAE900055744EF0900055E0FF2290006DE4F0906029E0FFEF540FFFEF24FEFF90006CEFF090006CE0FF7E009000D1
:402D40008DEE8FF012041B9000F5E0FEA3E0FFD3EF9400EE9400405790006CE0FFEFD39400404C90006DE0FF7E00EF2400FFEE3460FE8F828E83E0FF9000F71205FCEF128F
:402D800004099000F71205FCE92401F9EA3400FA9000F712060590006DE004F090006CE014F09000F574FF75F0FF12041B809890006CE0FF90008FEFF0900107E0FFEF64B0
:402DC00080FF900107EFF090008C740BF022900032EFF09000331206059000387407F0904722E0FFEF5402FF7E00EF4E607B90472074B6F090472074D5F09047207402F02C
:402E0000904722E0FFEF5402FF7E00EF4E7052900032E0FF904720EFF0900039E4F0A3E4F0900036E0FEA3E0FF900039E0FCA3E0FDC3ED9FEC9E50379000331205FC90005D
:402E400039E0FEA3E0FFE92FF9EA3EFA1203F0FF904720EFF0900039E475F00112041B80C09000387409F080069000387404F0900038E0FF229000767401F0906004E0FF36
:402E8000900077EFF090008BE0FFEF14FF12383D900078EEF0A3EFF0900078E0FEA3E0FF8F828E83A312060EE92404F9EA3400FA1203F0FF90007AEFF090007AE0FF900066
:402EC00077E0FEEEC39F500B900077E0FFEFC394024007900076E4F08038900077E0FF74F32FF582E43400F583E0FF900077E0FE74022EF582E43401F583EFF0906002E027
:402F0000FF900077E0FE74F32EF582E43400F583EFF0900076E0FF22900032EFF0900033ECF0A3EDF0900035EBF09000377407F0904722E0FFEF5402FF7E00EF4E606B9067
:402F4000472074B6F090472074D8F09047207405F0904722E0FFEF5402FF7E00EF4E7042900032E0FF904720EFF0900033E0FEA3E0FFEEFF7E00904720EFF0900033E0FE38
:402F8000A3E0FFEF54FFFF904720EFF0900035E0FF904720EFF0900036E0FF904720EFF0800E9000377409F080069000377404F0900037E0FF22900011EFF0900012EDF045
:402FC0009044C27480F09044C37401F09044C07402F09044C07404F09044C07408F0900108E4F0900012E0FFEF12061A2FF6002FFE01000030069060097402F0800E9060F0
:40300000097403F080069060097403F0900011E0FF900109EFF090008BE4F09000FDE4F0900101E4F0900104E4F090008AE4F09000FEE4F09060287403F09060087480F077
:403040007F017E007D007C00123A009060127404F022900076E4F0900077E4F0906000E0FFEF5403FFEF12061A307301307F020000309D906004E0FF900077EFF0801E908E
:403080006004E0FFEF547FFFEF75F00BA4249AF582E43400F583E0FF900077EFF0900077E0FF9000FFE0FCA3E0FD8D828C83E5822FF582E43583F583E493FFEF12061A30A8
:4030C000D60130CE0230D603000030D68008122AF7900076EFF0900076E0FF22906028E0FF90006CEFF090006CE0FF906028EFF0906028E0FF90006CEFF090006CE0FFEF03
:403100005480FF7E00EF4E600B90006CE0FF90008CEFF0227F021236BC906000E0FFEF5460FFEF12061A313300313D2031474000003151120C9D90006CEFF0801912305298
:4031400090006CEFF0800F12393A90006CEFF0800590006CE4F090006CE0FFEF700690008C7403F02290002DEFF0123CBD90002DE0FFEFC394025065123BB1EF70579000C7
:403180002DE0FD7F401234B4EF6407703D90002E74FFF0904722E0FFEF5402FF7E00EF4E60F1904722E0FFEF5402FF7E00EF4E600D904722E0FFEF1313543FFF80027FFF39
:4031C000EF700D90002EE4F0800690002E74FFF0123EBB800E90002E7404F0800690002E7401F090002EE0FF22900012EFF0900013ECF0A3EDF0900012E0FFEFD3941F503D
:4032000003D38001C340057F00123ED1900012E0FFEF541FFF7E00EF25E0FFEE33FEEF2400FFEE3444FEAA06A9077B01123F6C900015EEF0A3EFF0900012E0FF7E02EF8E8B
:40324000F0A4FFAEF0EF2400FFEE3444FEAA06A9077B01900013E0FEA3E0FFAD07AC06123F7B900015E0FEA3E0FF22900066EFF0900066E0FFEFD39400406E900066E0FFEC
:40328000EFC394095063900066E0FF7E00EF24FFFFEE34FFFEEFC4F8540FC868FFEEC454F048FE900067EFF0900066E0FFEF75F00BA42491F582E43400F583E4F0900066DC
:4032C000E0FFEF75F00BA42495F582E43400F583E0FF900067E0FEEEFD7C00ED240EFDEC3460FC8D828C83EFF022900010120605900013ECF0A3EDF0900184E0FFEF75F056
:403300000BA42498F582E43400F583E0FEA3E0FF900013E0FCA3E0FDD3ED9FEC9E4025900184E0FFEF75F00BA42498F582E43400F583E0FEA3E0FF900013EEF0A3EFF07FD2
:4033400000123ED1900184E0FF9000101205FC900013E0FCA3E0FD900019ECF0A3EDF01218D82290008BE0FFEF14FF12383D900084EEF0A3EFF0900084E0FEA3E0FF8F82E1
:403380008E83A312060EE92404F9EA3400FA1203F0FF900086EFF0900086E0FF7E00EF2402FFEE3400FEEF7802C333CE33CED8F9FF900084E0FCA3E0FDEF2DFFEE3CFE9030
:4033C0000084EEF0A3EFF0900084E0FEA3E0FF8F828E83A312060EAE02AF0122900002EEF0A3EFF0900004E4F0A3740AF0900002E0FEA3E0FFEF2400FFEE3480FE8F828E5A
:4034000083E0FF7E00EF7F00FE900004EEF0A3EFF0900002E0FEA3E0FFEF2401FFEE3480FE8F828E83E0FF7E00900004E0FCA3E0FDEE4CFEEF4DFF900004EEF0A3EFF09041
:403440000004E0FEA3E0FF229000F5E0FEA3E0FFEF4E7005123D7180589001087402F0900107E4F012398A906007E0FF7E00EF7F00FE906006E0FD7C00EE4CFEEF4DFF9045
:403480000079EEF0A3EFF0900079E0FEA3E0FF9000F5E0FCA3E0FDD3ED9FEC9E4010900079E0FEA3E0FF9000F5EEF0A3EFF0122A2C7F012290002FEFF0900030EDF090008D
:4034C000317407F0904722E0FFEF5402FF7E00EF4E603F90472074B6F090472074DBF09047207408F0904722E0FFEF5402FF7E00EF4E701690002FE0FF904720EFF09000AF
:4035000030E0FF904720EFF0800E9000317409F080069000317404F0900031E0FF22906008E0FFEF547FFFEFF0906012E0FFEF54FBFFEFF09043A5E0FFEF54FEFFEFF090FF
:4035400043B5E0FFEF54FEFFEFF09044CA7480F09044CB7401F09044C87402F09044C87404F09044C87408F090008BE4F09000FDE4F0900101E4F0900104E4F090008AE4A4
:40358000F0900198E4F022C0E0C083C082C085C084C086758600C093759300C0D075D000C006C00790600EE0FF90009BE0FFEF5403FF7E00EF64014E600E90009EE0FFEF9A
:4035C0006480FF90009EEFF090009C7401F090600BE0FFEF54FEFFEFF0D007D006D0D0D093D086D084D085D082D083D0E032C0E0C083C082C085C084C086758600C0937564
:403600009300C0D075D000C006C00790601EE0FF9000A6E0FFEF5403FF7E00EF64014E600E9000A9E0FFEF6480FF9000A9EFF09000A77401F090600BE0FFEF54FDFFEFF02A
:40364000D007D006D0D0D093D086D084D085D082D083D0E032C0E0C083C082C085C084C086758600C093759300C0D075D000C006C00790602EE0FF9000B1E0FFEF5403FF06
:403680007E00EF64014E600E9000B4E0FFEF6480FF9000B4EFF09000B27401F090600BE0FFEF54FBFFEFF0D007D006D0D0D093D086D084D085D082D083D0E03290006DEFA5
:4036C000F07B007A007900C003C002C0019000FA1205FCD082D083D0E06B7008E965827003EA6583603790006DE0FF9000FA1205FCEF12040990008DE0FEA3E0FF9000FA17
:403700001205FCE92401F9EA3400FAEE8FF01204317B007A0079009000FA12060522904F00E0FFEF5401FFEFF0904F02E0FFEF54FCFFEFF0904F0BE0FFEF54CFFFEFF09066
:403740004F0BE0FFEF4430FFEFF0904F0BE0FFEF54F0FFEFF0904F0BE0FFEF440FFFEFF0904F01E0FFEF4401FFEFF07FF37E01123C937FF37E01123DE67F00123F5A229067
:403780000012EFF0900013EDF0900013E0FFEFD394075003D38001C340057F00123ED1900012E0FFEFD3941F5003D38001C340057F00123ED1900013E0FFEF5407FF7E00DC
:4037C000EF75F020A4FFAEF0900012E0FEEE541FFE74802EF582E43444F583EFF0229001087404F09001077480F012398A906007E0FF7E00EF7F00FE906006E0FD7C00EE78
:403800004CFEEF4DFF900079EEF0A3EFF0900079E0FEA3E0FF9000F5E0FCA3E0FDD3ED9FEC9E4010900079E0FEA3E0FF9000F5EEF0A3EFF090008C740BF07F012290008785
:40384000EFF0900109E0FFEF25E025E024C6F582E43440F58312060EAE02AF01900088EEF0A3EFF0900088E0FEA3E0FF8F828E83C083C082900087E0FFD082D08375F004A5
:40388000EF1205F0E5822405F582E5833400F58312060EAE02AF0122C0E0C0F0C083C082C085C084C086758600C093759300C0D075D000C000C001C002C003C004C005C031
:4038C00006C007122879D007D006D005D004D003D002D001D000D0D0D093D086D084D085D082D083D0F0D0E032C0E0C0F0C083C082C085C084C086758600C093759300C0A9
:40390000D075D000C000C001C002C003C004C005C006C007123B81D007D006D005D004D003D002D001D000D0D0D093D086D084D085D082D083D0F0D0E03290006DE4F09042
:403940006000E0FFEF5480FF7E00EF64804E7034906001E0FFEF12061A396001000039847BFF7A4079DB9000F71206059040DBE493FF7E009000F5EEF0A3EFF012344890ED
:40398000006DEFF090006DE0FF2290008DE4F0A3E4F07B007A007900C003C002C0019000FA1205FCD082D083D0E06B7008E965827003EA6583601F9000FA1205FCE41204A1
:4039C000099000FA1205FCE92401F9EA3400FAE475F0001204312290000FEFF0900010EDF0900198E0FFEF700912229C9001987401F090000FE0FF900010E0FD122FB62273
:403A0000EC4D4E700D78FCEF24E950032840FD2200007BF178DA0000EF28FF78FFEE38FEED38FDEC38FC50E7EF2BFFEE38FEED38FDEC38FC40F22205020304900056E4F0B5
:403A4000A3E4F0900185E0FFEF75F00BA42491F582E43400F583E0FFEFB40110900185E0FF122BB8900056EEF0A3EFF0900056E0FEA3E0FF2244017403D0900044016F0020
:403A800000FA00410173404401797D000000410198004101990043019100000041019A00004801890000000000000000900000E4F0A3E4F0123FE8D2AF9044F474FDF012D4
:403AC0003F24123EE67F007E001233DC900000EEF0A3EFF0900000E0FEA3E0FF123C9380FE227B0C7A0179CF123FAE900000EFF0900000E0FFEF5407FF90586EEFF0900079
:403B000000E0FFEFC4540FFFEF540FFF90586FEFF09058767444F022900056120605900185E0FF9000561205FC900185E0FEEE75F00BA42498F582E43400F583E0FCA3E0D9
:403B4000FD90005DECF0A3EDF012205B22758600EF4E6027EF60010E759300900005E0F595A3E0F585A3E0F5848B938A838982E0A30586F0A31586DFF6DEF4E4F593F59524
:403B800022900108E4F090008BE4F09000FDE4F0900101E4F0900104E4F090008AE4F09000FEE4F09060287403F09060087480F0229000327404F0123EFB900033EFF090E3
:403BC000019AE0FFEF700B90019A7401F0900032E4F0900033E0FF123E33900032E0FF22EEFA900173E0F88FF0A4FFAEF0E88AF0A42EFEE5F03400FDEF24C9FF78FFEE389F
:403C0000FEED38FDE438FC5003023A0022ACEAADA08B938A838982E0F96017A3E0F5EAA3E0F5A0A3E060F4FAA3E0F8A3E0F2DAF8D9E98DA08CEAE4F59322900108E0FFEFCB
:403C400012061A3C66003C53023C57043C5B0600003C66123D5022122D20227F031236BC90008C7403F022900104E0FFEF6013900104E0FFEF4480FF906008EFF090010434
:403C8000E4F0900108E4F07F011236BC90008C7403F022900002EEF0A3EFF0900002E0FEA3E0FF900004EEF0A3EFF07B027A4F7904900004E0FCA3E0FD123F7B22123EFBD6
:403CC000900032EFF09043A0E0FFEF4408FFEFF09043B0E0FFEF4408FFEFF0900032E0FF123E332290000FEFF0123EA5EF7006123FA2EF70F4123FA2EF600D7B017A00791B
:403D00000F7D017C001232EA22900108E0FFEF12061A3D2D003D22023D26043D2A0600003D2D123FF022123F4922123C67229043A3E0FFEF4401FFEFF09043B3E0FFEF4493
:403D400001FFEFF0904F00E0FFEF4401FFEFF0229000FEE0FF7E0090008DEE8FF012041B900108E4F07F011236BC90008C7403F0229001087402F09001077480F090008C9F
:403D8000740FF09000FEE4F090008FE4F07F0122900002EEF0A3EFF07B027A447900900002E0FEA3E0FFAD07AC06123F7B22900185E0FF7B017A00795690005DE4F0A3741B
:403DC00001F012205B900056E0FF22900109E0FFEF25E025E024C6F582E43440F58312060EAE02AF0122900002EEF0A3EFF07B027A4F7906900002E0FCA3E0FD123F7B2280
:403E00009001087406F090008C7406F09001077480F090008FE4F07F0122EC4D6011ED60010C8B938A838982E4F0A3DDFCDCFA75930022EF54016004D2AF8002C2AFEF54FF
:403E400002FF9044F4E054FD4FF0229043ACE0FFEF4410FFEFF09043BCE0FFEF4410FFEFF0229043ACE0FFEF54EFFFEFF09043BCE0FFEF54EFFFEFF022900002EFF09000A8
:403E800002E0FFEFC43354E0FF904480EFF022900185E0FFEF75F00BA42491F582E43400F583E0FF22900184E0FFEF75F00BA42491F582E43400F583E0FF22123EFB90006F
:403EC00032EFF090019AE4F0900032E0FF123E332290FFFF120640EFF09046EA7401F090000112064022900199E0FFEF700912371E9001997401F0123D2E229044F4E0F8D1
:403F00004402F0E85402FF10AF012274014FFF22900010E0FEA3E0FF900012E0FCA3E0FD12170B22123FD77E387F98123D907F07123E79123FD022900005EFF0900005E0A4
:403F4000FF900005EFF080FE22900108E4F07F011236BC90008C7403F022900002EFF0900002E0FF904F03EFF0228B938A838982E0FFA3E0FE759300228B938A838982EDF0
:403F8000F0A3ECF075930022900186E4F0900185E0FF12326B229046F6E0FFEF4401FFEFF022905161E0FFEF5401FF7E00228B938A838982E0759300FF228B938A8389825F
:403FC000EDF075930022123FEC12351E123F96229044C07401F0229044C87401F02290008BE0FF22123E4B22123FE422123E6222122A2C2222321201000202000008B40418
:4040000032F201000102800109024300020101C032090400000102020100052400100104240202052406000105240100010705810308000A09040100020A00000007058275
:404040000240000A0705030240000A04030904180345007200650062007500730020004C0061006200730028035300540045004D002000530065006E0073006F0072002044
:4040800000520065007600200030002E003100000203000081030008020100820200400A0100030200400A020A01FF400803FF4092000000000000000000FF40A701FF3F25
:4040C000F601FF40A901FF40BD12034D005300460054003100300030000100280000000001040001000000000000000001435955534200000030303030310000000000005D
:40410000000000004F00000C00511000500051C00010010000100001140008000140000A00014C000200015000002030313233343536373839414243444546000000000077
:40414000000000000000000000000000000000000000000000000000000000000000000000000000000000000000000000000000000000000000000000000000000000003F
:4041800000000000000000000000000000000000000000000000000000000000000000000000000000000000000000000000000000000000000000000000000000000000FF
:4041C00000000000000000000000000000000000000000000000000000000000000000000000000000000000000000000000000000000000000000000000000000000000BF
:40420000000000000000000000000000000000000000000000000000000000000000000000000000000000000000000000000000000000000000000000000000000000007E
:0200000480007A
:40000000180045017E02004F0201100A4B005203000101037C40010101E20401021400020205100112021E082B01300433013403360838083B083E045608580459045B047D
:400040005C105D905F0101031404010D020F011C011D021F1827202F045C406701832087109040B440C010C290CA20D610D810E6080105039708A801AB08010701AF040113
:400080000D02E608EA40010F01E204011701EE02011901EE020140063012350236408002CCF0E22001410C5B205F808380841085029C109D02A640D480D620E280E65001BE
:4000C000420912805B029B02A640AB22C410D640EA80EE80014303A640AE80EC1001440301028240C00801450484209640B502EA0201460296409C2001470608200B400E77
:400100004096409C20C20E014802AE40EE40014C01AF400150050003010102140803090101510100AB00000000070700030000000000000000000000C00000000101000022
:40014000000000000000000000000000000000000000000000000000000000000000000000000000000000000000000000000000000000000000000000000000000000007F
:40018000000000000000000000000000000000000000000000000000000000000000000000000000000000000000000000000000000000000000000000000000000000003F
:4001C00000000000000000000000000000000000000000000000000000000000000000000000000000000000000000000000000000000000000000000000000000000000FF
:4002000000000000000000000000000000000000000000000000000000000000000000000000000000000000000000000000000000000000000000000000000000000000BE
:0200000490006A
:0400000000004005B7
:0200000490105A
:04000000BC90ACAF55
:0200000490303A
:02000000123DAF
:0200000490501A
:0C00000000011E02806903011E2492A66C
:0200000490402A
:4000000000000000000000000000000000000000000000000000000000000000000000000000000000000000000000000000000000000000000000000000000000000000C0
:00000001FF
