:40000000024D66008F828E83E0540100000070F82278FFE4F6D8FD024DC40203DBE86480F8E933E83360110460F0ED33EC337009E8FCE9FDEAFEEBFF220460DED3EB9FEA52
:400040009EE99DE8C2E78CF0C2F795F0400CE8CCF8E9CDF9EACEFAEBCFFB1203A685D0F05804700320D5B3E80470075002B2D50203E592D5EC0460F7E4CCC0E0C398F860B5
:400080003B94186008400DD0E0FB0203BDE4FBFAC9FC8028E830E406E4C9FBE4CAFCE830E305E4C9CACBFCE854076010F8C3E913F9EA13FAEB13FBEC13FCD8F130F52FC331
:4000C000E49CFCEF9BFFEE9AFEED99FDD0E0FBEF4E4D4C701222DB030203E2EC2CFCEF33FFEE33FEED33FDED30E7EB0203BDEF2BFFEE3AFEED39FDD0E0FB50130BBB0003AD
:400100000203E5ED13FDEE13FEEF13FFEC13FC0203BDEC4D6011E8497017ED33EC3304600DE4FCFFFEFD22E933E8330470F80203DB1203A658046009E4CC248150062850E7
:40014000090203E52840030203E2C0E0EB4A7044B98006D0E0FB0203D1EF4E701CBD8008EBFFEAFEE9FD80EBE98DF0A4FEE5F00201FBE9CDF9EAFEEBFFEF89F0A4FCE5F087
:40018000CE89F0A42EFFE435F0CD89F0A42DFEE435F08067EF4E7005BD80D780C3EF8BF0A4ACF0EE8BF0A42CFCE435F0F8EF8AF0A42CE5F038FCE433CB8DF0A42CFCE5F0EE
:4001C0003BF8EE8AF0A42CFCE5F038F8E433CF89F0A42CFCE5F038CF3400CE89F0A42FFFE5F03EFEE433C98DF0A42EFEE5F039CD8AF0A42FFFE5F03EFEE43DFD33D0E0FBCD
:4002000050070BBB000F0203E5EC2CFCEF33FFEE33FEED33FD0203BD0203E5EC5D046005E8590470030203DB1203A6580460F6EC4860F2EC7004FDFEFF22C860DB2481C862
:400240005009C398600250060203E29850CAF582E9294B4A7005AB820203D175F0007C1A7880C3EF9BEE9AED99400DC3EF9BFFEE9AFEED99FDE842F0DC23ACF0D0E0FFD0BF
:40028000E0FED0E0FDAB8220E7101BEB60BAEC2CFCEF33FFEE33FEED33FD0203BDE803F830E705C0F075F000EF2FFFEE33FEED33FD40B830E7C280AA74F8CC6480CCC864A0
:4002C00080C8F58204604FC3EB9FF5F0EA9E42F0E99D42F0E89C45F0603C501DE5825FFFE582D313CB5BCBF42B5582FB50280ABA002409B9002008801DE5825BFBE582D354
:4003000013CF5FCFF4C3132F5582FF50090EBE00050DBD00010CC3EB9FF5F0EA9E42F0E99D42F0E89C45F06007CC4820E701B3EC2275F020800E75F010800575F0087D0045
:400340007E007F003392D530D503120615EC334010EF33FFEE33FEED33FDEC33FCD5F0ED22E5F0247EA2D513CC92E7CDCEFF22EDD2E7CD33EC3392D524814006E4FFFEFDFF
:40038000FC22FCE4CFCECDCC24E0501174FF80EDC3CC13CCCD13CDCE13CECF13CF0470F030D5DE020615E9D2E7C933E833F892D5EDD2E7CD33EC33FC5002B2D522EC30E70E
:4003C000100FBF000C0EBE00080DBD00040BEB6014A2D5EB13FCED92E7FD2274FFFCFDFEFF22E480F8A2D574FF13FC7D80E480EFBB010689828A83E0225002E722BBFE02EF
:40040000E32289828A83E49322BB010689828A83F0225002F722BBFE01F322BC000BBE0029EF8DF084FFADF022E4CCF875F008EF2FFFEE33FEEC33FCEE9DEC984005FCEEDA
:400440009DFE0FD5F0E9E4CEFD22EDF8F5F0EE8420D21CFEADF075F008EF2FFFED33FD4007985006D5F0F222C398FD0FD5F0EA22C5F0F8A3E028F0C5F0F8E582158270021C
:400480001583E038F022BB010A89828A83E0F5F0A3E022500687F009E71922BBFE07E3F5F009E3192289828A83E493F5F074019322BB010A89828A83F0E5F0A3F02250063F
:4004C000F709A7F01922BBFE06F3E5F009F31922EF2BFFEE3AFEED39FDEC38FC22C3EF9BFFEE9AFEED99FDEC98FC22E88FF0A4CC8BF0A42CFCE98EF0A42CFC8AF0EDA42C49
:40050000FCEA8EF0A4CDA8F08BF0A42DCC3825F0FDE98FF0A42CCD35F0FCEB8EF0A4FEA9F0EB8FF0A4CFC5F02ECD39FEE43CFCEAA42DCE35F0FDE43CFC2275F008758200F5
:40054000EF2FFFEE33FECD33CDCC33CCC58233C5829BED9AEC99E58298400CF582EE9BFEED9AFDEC99FC0FD5F0D6E4CEFBE4CDFAE4CCF9A88222B800C1B90059BA002DEC9C
:400580008BF084CFCECDFCE5F0CBF97818EF2FFFEE33FEED33FDEC33FCEB33FB10D703994004EB99FB0FD8E5E4F9FA227818EF2FFFEE33FEED33FDEC33FCC933C910D70560
:4005C0009BE99A4007EC9BFCE99AF90FD8E0E4C9FAE4CCFB2275F010EF2FFFEE33FEED33FDCC33CCC833C810D7079BEC9AE899400AED9BFDEC9AFCE899F80FD5F0DAE4CD47
:40060000FBE4CCFAE4C8F922EF4BFFEE4AFEED49FDEC48FC22C3E49FFFE49EFEE49DFDE49CFC22EB9FF5F0EA9E42F0E99D42F0E89C45F022E8600FECC313FCED13FDEE13AA
:40064000FEEF13FFD8F122E8600FEFC333FFEE33FEED33FDEC33FCD8F122E0FCA3E0FDA3E0FEA3E0FF22E0F8A3E0F9A3E0FAA3E0FB22ECF0A3EDF0A3EEF0A3EFF022A425D7
:4006800082F582E5F03583F58322E0FBA3E0FAA3E0F922EBF0A3EAF0A3E9F022E493FB740193FA740293F922D083D082F8E4937012740193700DA3A393F8740193F58288A3
:4006C00083E4737402936860EFA3A3A380DFE50C2582F582E50B3583F583B50B0485820C2210AF0685820CF50B2285820CF50BD2AF22EC8EF0A4CCC5F0CCCDF8EFA4CEC5FA
:40070000F02DFDE43CFCE8A42EC8C5F03DFDE43CFCEFA4FFE5F028FEE43DFDE43CFC22E709F608DFFA8046E709F208DFFA803E88828C83E709F0A3DFFA8032E309F608DF0F
:40074000FA806EE309F208DFFA806688828C83E309F0A3DFFA805A89828A83E0A3F608DFFA804E89828A83E0A3F208DFFA804280D280FA80C680D4805580F28029801080CB
:40078000A680EA809A80A880DA80E280CA802988848C8589828A83E493A30586F0A30586DFF5DEF3800B89828A83E493A3F608DFF9ECFAA9F0EDFB2288848C8589828A834A
:4007C000E0A30586F0A30586DFF6DEF480E389828A83E493A3F208DFF980D688F0EF60010E4E60CD88F0ED2402B4040050C3F582EB2402B4040050B9232345822390076F43
:4008000073C0E0C0F0C083C082C085C084C086758600C093759300C0D075D000C000C001C002C003C004C005C006C0077F0412723E900394E004F0900394E0FFEFD3943B83
:400840005003020DFB900395E004F0900394E4F0900395E0FFEFD3943B5003020D54900396E004F0900395E4F0900396E0FFEFD394175003020C84900398E004F09003965B
:40088000E4F0900399E475F001120470900397E004F0900397E0FFEFD3940740069003977401F0900390E0FFEF5402FF7E00EF4E602C90039BE0FFEFB4022390039BE0FFC0
:4008C000EF90849093FF7E00EF2401FFEE3400FE900398E0FD7C00D3ED9FEC9E5058900390E0FFEF5402FF7E00EF4E601F90039BE0FFEF6402601590039BE0FFEF90849016
:4009000093FF900398E0FEEED39F502A900390E0FFEF5402FF7E00EF4E6003020B2190039BE0FFEF90849093FF900398E0FEEED39F5003020B2190039BE004F090039874F3
:4009400001F090039BE0FFEFD3940C5003020A7A90039CE475F00112047090039B7401F0900399E4F0A37401F090039CE0FEA3E0FF7C017D9012041BED4C602590039CE08D
:40098000FEA3E0FF7E00EF5403FFEF4E701790039CE0FEA3E0FF7C007D6412041BED4C60047F0180027F00EFB40110900390E0FFEF4402FF900390EFF0800E900390E0FF79
:4009C000EF54FDFF900390EFF090039EE0FFEF5480FF7E00EF64804E70047F0180027F00EF603690039CE0FEA3E0FF90038EE0FCA3E0FDEDB50714ECB50610900391E0FF48
:400A0000EF4480FF900391EFF0800E900391E0FFEF547FFF900391EFF090039EE0FF900673EFF0900673E0FFEF6032900673E0FF900391E0FEEE5FFF900673E0FEEFB50684
:400A4000047F0180027F00EF6013900390E0FFEF4408FF900390EFF0900391E4F0900393E0FFEF5440FF7E00EF64404E70047F0180027F00EF6003127F5990039EE0FFEF43
:400A80005440FF7E00EF64404E70047F0180027F00EF602C90039BE0FF90038DE0FEEEB50710900391E0FFEF4440FF900391EFF0800E900391E0FFEF54BFFF900391EFF002
:400AC00090039EE0FF900673EFF0900673E0FFEF6032900673E0FF900391E0FEEE5FFF900673E0FEEFB506047F0180027F00EF6013900390E0FFEF4408FF900390EFF09019
:400B00000391E4F0900393E0FFEF5420FF7E00EF64204E70047F0180027F00EF6003127F5890039EE0FFEF5408FF7E00EF64084E70047F0180027F00EF602C900397E0FF7D
:400B4000900389E0FEEEB50710900391E0FFEF4408FF900391EFF0800E900391E0FFEF54F7FF900391EFF090039EE0FFEF5420FF7E00EF64204E70047F0180027F00EF60BF
:400B800036900399E0FEA3E0FF90038BE0FCA3E0FDEDB50714ECB50610900391E0FFEF4420FF900391EFF0800E900391E0FFEF54DFFF900391EFF090039EE0FFEF5410FF16
:400BC0007E00EF64104E70047F0180027F00EF602C900398E0FF90038AE0FEEEB50710900391E0FFEF4410FF900391EFF0800E900391E0FFEF54EFFF900391EFF090039E59
:400C0000E0FF900673EFF0900673E0FFEF6032900673E0FF900391E0FEEE5FFF900673E0FEEFB506047F0180027F00EF6013900390E0FFEF4408FF900390EFF0900391E490
:400C4000F0900393E0FFEF5408FF7E00EF64084E70047F0180027F00EF6003127D9F900397E0FFEFB4011D900393E0FFEF5410FF7E00EF64104E70047F0180027F00EF6005
:400C800003127F57900396E0FFEFC3940C5010900390E0FFEF54FBFF900390EFF0800E900390E0FFEF4404FF900390EFF090039EE0FFEF5404FF7E00EF64044E70047F0119
:400CC00080027F00EF602C900396E0FF900388E0FEEEB50710900391E0FFEF4404FF900391EFF0800E900391E0FFEF54FBFF900391EFF090039EE0FF900673EFF0900673AF
:400D0000E0FFEF6032900673E0FF900391E0FEEE5FFF900673E0FEEFB506047F0180027F00EF6013900390E0FFEF4408FF900390EFF0900391E4F0900393E0FFEF5404FF24
:400D40007E00EF64044E70047F0180027F00EF6003127D9290039EE0FFEF5402FF7E00EF64024E70047F0180027F00EF602C900395E0FF900387E0FEEEB50710900391E046
:400D8000FFEF4402FF900391EFF0800E900391E0FFEF54FDFF900391EFF090039EE0FF900673EFF0900673E0FFEF6032900673E0FF900391E0FEEE5FFF900673E0FEEFB508
:400DC00006047F0180027F00EF6013900390E0FFEF4408FF900390EFF0900391E4F0900393E0FFEF5402FF7E00EF64024E70047F0180027F00EF6003127D8590039EE0FFFB
:400E0000EF5401FF7E00EF64014E70047F0180027F00EF602C900394E0FF900386E0FEEEB50710900391E0FFEF4401FF900391EFF0800E900391E0FFEF54FEFF900391EF0B
:400E4000F090039EE0FF900673EFF0900673E0FFEF6032900673E0FF900391E0FEEE5FFF900673E0FEEFB506047F0180027F00EF6013900390E0FFEF4408FF900390EFF035
:400E8000900391E4F0900393E0FFEF5401FF7E00EF64014E70047F0180027F00EF6003127D78D007D006D005D004D003D002D001D000D0D0D093D086D084D085D082D08341
:400EC000D0F0D0E032900410EFF0900418E4F0A3E4F0900411E4F0900411E0FFEFC394094003020F84900411E0FFEF75F00BA42447F582E43402F583E4F0900411E0FFEF70
:400F000075F00BA42449F582E43402F583E4F0900411E0FFEF75F00BA42448F582E43402F583E4F0900411E0FFEF75F00BA4244AF582E43402F583E4F0900411E0FFEF75C9
:400F4000F00BA4244CF582E43402F583E4F0900411E0FFEF75F00BA4244FF582E43402F583E4F0A3E4F0900411E0FFEF75F00BA42451F582E43402F583E4F0900411E004D5
:400F8000F0020ED7900410E0FFEF603A900413E4F0900413E0FFEFC39402502A900413E0FF74AA2FF582E43402F583E4F0900413E0FF74B92FF582E43402F583E4F0900488
:400FC00013E004F080CB900242E0FFEFD3940050030213EE900242E0FFEF14FF126EA590041AEEF0A3EFF090041AE0FEA3E0FF8F828E83A312069C900415120693900415F4
:4010000012068AE92407F9EA3400FA1203F0FFEF5440FF7E00EF4E6010900241E0FFEF4401FF900241EFF0800E900241E0FFEF54FEFF900241EFF090041AE0FEA3E0FFEF72
:401040002404FFEE3400FE90041AEEF0A3EFF090041AE0FEA3E0FF8F828E83E493FF900411EFF09004137401F0900413E0FFEFC39409400302130390041AE0FEA3E0FF8F18
:40108000828E83A312069CAE02AF0190041CEEF0A3EFF0900412E4F0900411E0FF900412E0FEEEC39F40030212FA90041CE0FEA3E0FF8F828E83740293FFEF547FFF7E003A
:4010C000900413E0FD7C00ED6F7002EC6E60030212D990041CE0FEA3E0FF8F828E83740493FE740593FF900413E0FDED75F00BA4244FF582E43402F583E0FCA3E0FDC3ED25
:401100009FEC9E502C90041CE0FEA3E0FF8F828E83740493FE740593FF900413E0FDED75F00BA4244FF582E43402F583EEF0A3EFF090041CE0FEA3E0FF8F828E83E493FFBB
:4011400074AA2FF582E43402F583E0FF90041CE0FCA3E0FD8D828C83740193FEEF6E60030212D990041CE0FEA3E0FF8F828E83740393FFEF5403FF900414EFF090041CE0C6
:40118000FEA3E0FF8F828E83740293FFEF5480FF7E00EF4E7003021219900413E0FFEF75F00BA42448F582E43402F5837401F0900414E0FFEFB401047F0780027F0D9004AE
:4011C00013E0FEEE75F00BA4244CF582E43402F583EFF090041CE0FEA3E0FF8F828E83740693FFEF640A601890041CE0FEA3E0FF8F828E83740693FFEF6402600302128FF8
:40120000900414E0FFEF6403700302128F900413E0FF900432EFF08076900413E0FFEF75F00BA42448F582E43402F583E4F0900414E0FFEFB401047F0580027F0990041364
:40124000E0FEEE75F00BA4244CF582E43402F583EFF090041CE0FEA3E0FF8F828E83740693FFEF640A601490041CE0FEA3E0FF8F828E83740693FFEFB40214900414E0FFA9
:40128000EF6403600A900413E0FF900433EFF090041CE0FEA3E0FF8F828E83740293FF900413E0FEEE75F00BA4244BF582E43402F583EFF090041CE0FEA3E0FF8F828E83F8
:4012C000740393FF900413E0FEEE75F00BA42447F582E43402F583EFF090041CE0FEA3E0FFEF2407FFEE3400FE90041CEEF0A3EFF0900412E004F0021098900413E004F013
:4013000002106990041AE0FEA3E0FF8F828E83A312069CAE02AF0190041CEEF0A3EFF0900413E4F0900411E0FF900413E0FEEEC39F505390041CE0FEA3E0FF8F828E83E4AE
:4013400093FF90041CE0FCA3E0FD8D828C83740293FEEE547FFEEE75F00BA42451F582E43402F583EFF090041CE0FEA3E0FFEF2407FFEE3400FE90041CEEF0A3EFF090049F
:4013800013E004F0809E1263A29002B6EEF0A3EFF09004117401F0900411E0FFEFC394095049900418E0FEA3E0FF900411E0FDED75F00BA4244DF582E43402F583EEF0A369
:4013C000EFF0900411E0FFEF75F00BA4244FF582E43402F583E0FEA3E0FF900418EE8FF0120470900411E004F080AC122E4F22900471E4F07B007A007900900473120693BD
:401400009002ACE4F0A3E4F0906000E0FFEF5480FF7E00EF64804E60030216C3906001E0FFEF1206A815E50014350616740816940A00001889906003E0FFEFB40135127ACF
:4014400040900478EEF0A3EFF0900478E0FEA3E0FF8F828E83A312069C9002AE1206939002ACE4F0A37412F01266CF900471EFF0021889906003E0FFEF6402706B90600203
:40148000E0FF126EA5900478EEF0A3EFF0900478E0FEA3E0FF8F828E83A312069C9002AE1206939002AE12068AE92403F9EA3400FA1203F0FF7E00EF7F00FE9002AE1206A3
:4014C0008AE92402F9EA3400FA1203F0FD7C00EE4CFEEF4DFF9002ACEEF0A3EFF01266CF900471EFF0021889906003E0FFEF640360030215DA900476E4F07BFF7A8379B0EB
:40150000900473120693900476E0FF906002E0FEEED39F403D90047312068A1203F0FFEF603090047312068A1203F0FF900477EFF090047312068A900477E0FF7E00E92F77
:40154000F9EA3EFA900473120693900476E004F080B4906002E0FFEFB4EE0C7BFF7A84792E900473120693906002E0FFEF603090836BE493FF906002E0FEEEB507217BFFF4
:401580007A8379F59004731206937B017A03794B124B857B017A03794B90047312069390047312068A1203F0FFEF700302188990047312068A1203F0FF7E009002ACEEF007
:4015C000A3EFF090047312068A9002AE1206931266CF900471EFF0021889125F93900471EFF0021889906000E0FFEF5403FFEF1206A8163F0015FC02000018899002ACE48E
:40160000F0A37402F0906004E0FFEF547FFFEF75F00BA42449F582E43402F583E0FF90060DEFF090060EE4F07B017A06790D9002AE1206931266CF900471EFF00218899000
:4016400002ACE4F0A37402F0900241E0FF90060DEFF090060EE4F07B017A06790D9002AE1206931266CF900471EFF00218890218890218899002ACE4F0A37401F07B017AA2
:401680000279429002AE1206931266CF900471EFF00218899002ACE4F0A37401F0906004E0FF74AA2FF9E43402FA7B019002AE1206931266CF900471EFF002188902188995
:4016C000021889906001E0FFEF1206A817670118020316DF0516F40917140B00001889906002E0FF9002BBEFF0127A75900471EFF0021889906002E0FF900242EFF09002AD
:40170000B87401F07F01120EC5127A75900471EFF0021889125ABFEF7003021889906004E0FF900472EFF0900472E0FF9002B4EFF09002B87401F012188F900472E0FF74EC
:40174000AA2FF582E43402F583E0FF900472E0FE74B92EF582E43402F583EFF0127A75900471EFF0021889906000E0FFEF5403FFEF1206A817970017BD0117810200001801
:4017800089906002E0FFEF6003021889123C11900471EFF0021889906002E0FFEF64016003021889900241E0FFEF54FDFF900241EFF0127A75900471EFF0021889906004AA
:4017C000E0FFEFC394024003021889906004E0FF74BC2FF582E43402F583C083C082E0FF906002E0FEEEF4FEEF5EFFD082D083EFF0127A75900471EFF00218890218890290
:401800001889906000E0FFEF5403FFEF1206A8182E00185001181C0200001889906002E0FFEF7065124A8E900471EFF0805B906002E0FFEF64017051900241E0FFEF4402B3
:40184000FF900241EFF0127A75900471EFF08039906004E0FFEFC39402502E906004E0FF74BC2FF582E43402F583C083C082E0FF906002E0FEEEF4FEEF5EFFD082D083EF51
:40188000F0127A75900471EFF0900471E0FF22900242E0FFEFD394005003021C70900242E0FFEF14FF126EA590047FEEF0A3EFF090047FE0FEA3E0FFEF2404FFEE3400FE6D
:4018C00090047FEEF0A3EFF090047FE0FEA3E0FF8F828E83E493FF90047AEFF090047FE0FEA3E0FF8F828E83A312069CAE02AF01900481EEF0A3EFF090047CE4F090047ACA
:40190000E0FF90047CE0FEEEC39F4003021C70900481E0FEA3E0FF8F828E83E493FF74B92FF582E43402F583E0FF900481E0FCA3E0FD8D828C83E493FE74AA2EF582E43489
:4019400002F583E0FEEE6F7003021C4F900481E0FEA3E0FF8F828E83E493FF74AA2FF582E43402F583E0FF900481E0FCA3E0FD8D828C83740193FEEF6E6003021C4F90043A
:4019800081E0FEA3E0FF8F828E83E493FF906004E0FEEF6E6003021C4F900481E0FEA3E0FF8F828E83740293FFEF547FFF90047BEFF090047BE0FF7E00EF24FFFFEE34FFC3
:4019C000FEEFC4F8540FC868FFEEC454F048FE90047EEFF0900481E0FEA3E0FF8F828E83740393FFEF5403FF90047DEFF0900481E0FEA3E0FF8F828E83740293FFEF548048
:401A0000FF7E00EF4E603C90047BE0FFEF75F00BA42448F582E43402F5837401F090047DE0FFEFB401047F0780027F0D90047BE0FEEE75F00BA4244CF582E43402F583EF02
:401A4000F0803990047BE0FFEF75F00BA42448F582E43402F583E4F090047DE0FFEFB401047F0580027F0990047BE0FEEE75F00BA4244CF582E43402F583EFF090047EE024
:401A8000FF7E00EF240EFFEE3460FE8F828E837401F0900481E0FEA3E0FF8F828E83740493FE740593FF90047BE0FDED75F00BA4244FF582E43402F583EEF0A3EFF090047A
:401AC00081E0FEA3E0FF8F828E83740293FF90047BE0FEEE75F00BA4244BF582E43402F583EFF0900481E0FEA3E0FF8F828E83740393FF90047BE0FEEE75F00BA42447F5A6
:401B000082E43402F583EFF090047BE0FFEF75F00BA4244AF582E43402F583E4F090047BE0FFEF75F00BA4244FF582E43402F583E0FEA3E0FFEEFF7E0090047EE0FEEEFD63
:401B40007C00ED240CFDEC3460FC8D828C83EFF090047BE0FFEF75F00BA4244FF582E43402F583E0FEA3E0FFEF54FFFF90047EE0FEEEFD7C00ED240DFDEC3460FC8D828CBF
:401B800083EFF090047BE0FFEF75F00BA4244DF582E43402F583E0FEA3E0FFEF54FFFF90047EE0FEEEFD7C00ED2486FDEC3460FC8D828C83EFF090047BE0FFEF75F00BA462
:401BC000244DF582E43402F583E0FEA3E0FFEEFF7E0090047EE0FEEEFD7C00ED2487FDEC3460FC8D828C83EFF090047BE0FFEF75F00BA4244DF582E43402F583E0FEA3E06F
:401C0000FFEF54FFFF90047EE0FEEEFD7C00ED2484FDEC3460FC8D828C83EFF090047BE0FFEF75F00BA4244DF582E43402F583E0FEA3E0FFEEFF7E0090047EE0FEEEFD7C75
:401C400000ED2485FDEC3460FC8D828C83EFF0900481E0FEA3E0FFEF2407FFEE3400FE900481EEF0A3EFF090047CE004F00218FD22900399E4F0A3E4F0900398E0FF7E0019
:401C8000900399EE8FF012047090039CE0FEA3E0FF7C017D9012041BED4C602590039CE0FEA3E0FF7E00EF5403FFEF4E701790039CE0FEA3E0FF7C007D6412041BED4C6031
:401CC000047F0180027F00EFB40110900390E0FFEF4402FF900390EFF0800E900390E0FFEF54FDFF900390EFF09005F5E4F090039BE0FF7E00EF24FFFFEE34FFFE9005F5FF
:401D0000E0FD7C00C3ED9FEC9E501E9005F5E0FFEF90849193FF7E00900399EE8FF01204709005F5E004F080C5900390E0FFEF5402FF7E00EF64024E70047F0180027F00D8
:401D4000EF601590039BE0FFEFD39402400A900399E475F001120470900398E0FF90039BE0FD90039CE0FAA3E0FB125B62EF04FF900397EFF0900397E0FFEFD39400400946
:401D8000900397E02400F08013900397E0FFEFF404FFC374079FFF900397EFF0900396E0FFEFC3940C5010900390E0FFEF54FBFF900390EFF0800E900390E0FFEF4404FFDD
:401DC000900390EFF090039EE0FFEF5401FF7E00EF64014E70047F0180027F00EF602C900394E0FF900386E0FEEEB50710900391E0FFEF4401FF900391EFF0800E9003915C
:401E0000E0FFEF54FEFF900391EFF090039EE0FFEF5402FF7E00EF64024E70047F0180027F00EF602C900395E0FF900387E0FEEEB50710900391E0FFEF4402FF900391EF98
:401E4000F0800E900391E0FFEF54FDFF900391EFF090039EE0FFEF5404FF7E00EF64044E70047F0180027F00EF602C900396E0FF900388E0FEEEB50710900391E0FFEF44C5
:401E800004FF900391EFF0800E900391E0FFEF54FBFF900391EFF090039EE0FFEF5408FF7E00EF64084E70047F0180027F00EF602C900397E0FF900389E0FEEEB50710900D
:401EC0000391E0FFEF4408FF900391EFF0800E900391E0FFEF54F7FF900391EFF090039EE0FFEF5420FF7E00EF64204E70047F0180027F00EF6036900399E0FEA3E0FF901E
:401F0000038BE0FCA3E0FDEDB50714ECB50610900391E0FFEF4420FF900391EFF0800E900391E0FFEF54DFFF900391EFF090039EE0FFEF5410FF7E00EF64104E70047F01B1
:401F400080027F00EF602C900398E0FF90038AE0FEEEB50710900391E0FFEF4410FF900391EFF0800E900391E0FFEF54EFFF900391EFF090039EE0FFEF5440FF7E00EF64B6
:401F8000404E70047F0180027F00EF602C90039BE0FF90038DE0FEEEB50710900391E0FFEF4440FF900391EFF0800E900391E0FFEF54BFFF900391EFF090039EE0FFEF54FE
:401FC00080FF7E00EF64804E70047F0180027F00EF603690039CE0FEA3E0FF90038EE0FCA3E0FDEDB50714ECB50610900391E0FFEF4480FF900391EFF0800E900391E0FF80
:40200000EF547FFF900391EFF090039EE0FF9005F6EFF09005F6E0FFEF60329005F6E0FF900391E0FEEE5FFF9005F6E0FEEFB506047F0180027F00EF6013900390E0FFEFD4
:402040004408FF900390EFF0900391E4F0229004F97410F0900318E0FFEF64017051904005E0FFEF54F0FF7E00EEC4F854F0C868FEEFC4540F48FFEF04FFAB07E4FAF9F809
:40208000904200E0FFEF5407FFEF9084B993FFE4FCFDFE1205767B4B7A00790078001204EB12750090400BE0FFEF4404FFEFF0900317E0FFEF640160030221497F0012505B
:4020C000EE904210E0FF9004FAE4F0A37405F09004FAE0FEA3E0FFD3EF9400EE94004069904005E0FFEF54F0FF7E00EEC4F854F0C868FEEFC4540F48FFEF04FFAB07E4FAF5
:40210000F9F8904200E0FFEF5407FFEF9084B993FFE4FCFDFE1205767BC87A00790078001204EB127500904210E0FFEF5480FF7E00EF4E70079004F9E4F0800D9004FA7423
:40214000FF75F0FF12047080867F2D126B4490030BE0FFEF6402600990030BE0FFEFB4031E900313E0FF904004E0FEEE6F6008900313E0FF127C9D90030BE0FF127917902C
:40218000030DE0FFEF5440FF7E00EF4E601690030CE0FFEF9084C093FFEFB403077F08123A93803590030CE0FFEF9084C093FF123A9390030DE0FFEF5440FF7E00EF4E6014
:4021C0000D904200E0FFEF4440FFEFF0800B904200E0FFEF54BFFFEFF090030FE0FFEFB401149043A0E0FFEF5410FF7E00EF4E70057F0012641B90030FE0FFEF70129043D2
:40220000A0E0FFEF5410FF7E00EF4E6003127B0A900310E0FF126DEF900312E0FFEFB40103127DC4904000E0FFEF5430FF7E00900311E0FD7C00ED6F7002EC6E60169040A0
:4022400000E0FFEF54CFFF900311E0FEEF4EFF904000EFF0900316E0FFEF6401704B7F00125A1B904005E0FFEF54F0FF7E00EEC4F854F0C868FEEFC4540F48FFEF04FFABEA
:4022800007E4FAF9F8904200E0FFEF5407FFEF9084B993FFE4FCFDFE1205767BFA7A00790078001204EB12750090030BE0FFEF600990030BE0FFEFB4011E900313E0FF9007
:4022C0004004E0FEEE6F6008900313E0FF127C9D90030BE0FF127917904007E0FF7E00EF7F00FE9004FCEEF0A3EFF09004FCE0FEA3E0FF904006E0FD7C00EE4CFEEF4DFF06
:402300009004FCEEF0A3EFF09004FCE0FEA3E0FF900314E0FCA3E0FDED6F7002EC6E600B900314E0FEA3E0FF12542C904800E0FFEF543FFF90030EE0FEEF4EFF904800EFD4
:40234000F0900309E0FF9043A1EFF090030AE0FF9043A2EFF02290000012069390000312068AAF01AE02AD037C0090011912067290011912065AEF54FFFFEE54FFFEED54A0
:4023800000FDEC5400FC90011912067290000312068AAF01AE02AD037C007B007A0079FF7800D312062340030225DC90000312068AAF01AE02AD037C00A804A905AA06AB40
:4023C00007900006E0FEA3E0FFE4FCFD1204D07BFF7AFF79FF7800C312062350030225DC1279B07B017A017921126D917B007A007901780090011912065A120576900108E1
:402400001206727B007A017900780090011912065A120576EF54FFFFEE5400FEED5400FDEC5400FC90010C1206727F007E017D007C0090010C1206661204EBC004C005C004
:4024400006C0077F007E007D017C009001081206661204EBA804A905AA06AB07D007D006D005D0041204D090011D1206727F007E007D007C00900114120672900118E4F0AE
:40248000900006E0FEA3E0FFE4FCFD900114120666C312062340030225CF900118E0FFEF60030225CF7F007E007D007C0090011012067290011012065AC3EE940140030260
:4024C000259390011912065A90011D120666C3120623405B900006E0FEA3E0FFE4FCFD900114120666C3120623504490011412065A90000012068AE92FF9EA3EFAEB3DFB1C
:402500001203F0FB90011012065A74082FF582E43400F583EBF090011412065A7B017A00790078001204D0900114120672803390011D12065AEF2400FFEE3400FEED3410B2
:40254000FDEC3400FCA907AA06AB05127E6CAB0790011012065A74082FF582E43400F583EBF090011D12065A7B017A00790078001204D090011D12067290011012065A7B31
:40258000017A00790078001204D09001101206720224B390010812065AC00790010C12065AAD07AC067B017A007908D007123EF6900118EFF090010C12065A7B017A0079E4
:4025C0000078001204D090010C120672022480904800E0FFEF4406FFEFF080069001187401F0900118E0FFEF6010900118E0FFEF6401600690011874FFF0900118E0FF226F
:40260000900533EFF0900534ECF0A3EDF0127C3E900536EFF0904393E0FFEF5408FF7E00EF4E700D904683E0FFEF541FFFEFF08009900536E0FF127AF2229046ECE0FFEFB6
:40264000C39405501A904689E0FFEF5401FF7E00EF4E7003D38001C340057F00127BFF9046F5E0FFEF5407FF7E00EF4E60399046ECE0FFEFC3940550077F00127BFF802742
:40268000904689E0FFEF5401FF7E00EF4E701290031FE4F0904689E0FFEF4401FFEFF0800690031F7401F0122827900533E0FFEFC39402402A900533E0FFEFD3940D501FB6
:4026C000900533E0FFEF14FF126490900534E0FEA3E0FFEE4408FE900534EEF0A3EFF0900533E0FFEFB40117127786900534E0FEA3E0FFEE4408FE900534EEF0A3EFF09016
:402700004398E0FF900320EFF0900534E0FEA3E0FFEEC4F854F0C868FEEFC4540F48FF904398EFF0904399E0FF900321EFF0900534E0FEA3E0FFEF540FFF904399EFF0902E
:40274000439AE0FF900322EFF0900534E0FEA3E0FFEEC4540FFF7E00EF5401FF90439AEFF0904200E0FFEF5407FF7E00EF4E70089003497401F0801E900349E4F090420031
:40278000E0FFEF5407FF900348EFF0904200E0FFEF54F8FFEFF0904393E0FFEF54F8FFEF4403FF904393EFF0904393E0FF000000900349E0FFEF64016016904200E0FFEF0A
:4027C00054F8FF900348E0FEEF4EFF904200EFF01240569046F5E0FFEF5407FF7E00EF4E601E9046ECE0FFEFC39405401390031FE0FFEF700B904689E0FFEF54FEFFEFF07D
:40280000900320E0FF904398EFF0900321E0FF904399EFF0900322E0FF90439AEFF0900536E0FF127AF222905A00E0FF900325EFF0905A02E0FF900326EFF0905A03E0FF25
:40284000900327EFF0905A04E0FF900328EFF0905A06E0FF900329EFF0905A08E0FF90032AEFF0905A0AE0FF90032BEFF0905A10E0FF90032CEFF0905A12E0FF90032DEF10
:40288000F0905A13E0FF90032EEFF0905A14E0FF90032FEFF0905A16E0FF900330EFF0905A18E0FF900331EFF0905A1AE0FF900332EFF0905A20E0FF900333EFF0905A2208
:4028C000E0FF900334EFF0905A23E0FF900335EFF0905A24E0FF900336EFF0905A26E0FF900337EFF0905A28E0FF900338EFF0905A2AE0FF900339EFF0905A30E0FF9003CE
:402900003AEFF0905A32E0FF90033BEFF0905A33E0FF90033CEFF0905A34E0FF90033DEFF0905A36E0FF90033EEFF0905A38E0FF90033FEFF0905A3AE0FF900340EFF090DA
:402940005A00E4F0905A02E4F0905A03E4F0905A04E4F0905A06E4F0905A08E4F0905A0AE4F0905A10E4F0905A12E4F0905A13E4F0905A14E4F0905A16E4F0905A18E4F0A9
:40298000905A1AE4F0905A20E4F0905A22E4F0905A23E4F0905A24E4F0905A26E4F0905A28E4F0905A2AE4F0905A30E4F0905A32E4F0905A33E4F0905A34E4F0905A36E447
:4029C000F0905A38E4F0905A3AE4F09046E8E0FFEF5404FF7E00EF4E603390031D7401F090500BE0FFEF540EFF90031EEFF090500BE0FFEF54F1FFEF440CFF90500BEFF004
:402A00009046E8E0FFEF54FBFFEFF0800590031DE4F0904322E0FFEF5408FF7E00EF4E601290034A7401F0904322E0FFEF54F7FFEFF02290034AE4F0229043A1E0FFEF54D0
:402A40000FFF900309EFF09043A2E0FF90030AEFF09043A1E0FFEF54F0FFEFF09043A2E0FFEF5400FFEFF0904800E0FFEF54C0FF90030EEFF07F2D126B44904200E0FFEFDE
:402A80005407FF90030CEFF0904200E0FFEF5440FF90030DEFF0904200E0FFEF5410FF7E00EF4E60089003127401F08005900312E4F07F04123A939043A0E0FFEF5410FF58
:402AC0007E00EF4E600890030F7401F0800A90030FE4F07F0012641B904200E0FFEF5420FF7E00EF4E6021904000E0FFEF5440FF7E00EF4E70047F0280027F01900310EFD8
:402B0000F07F00126DEF8005900310E4F0904000E0FFEF5430FF900311EFF0900311E0FFEF600B904000E0FFEF54CFFFEFF0904200E0FFEF5410FF7E00EF4E6003127DD01C
:402B4000904004E0FF900313EFF0900313E0FFEF60057F00127C9D904005E0FFEF5403FF90030BEFF090030BE0FFEF60057F00127917904007E0FF7E00EF7F00FE900314EB
:402B8000EEF0A3EFF0900314E0FEA3E0FF904006E0FD7C00EE4CFEEF4DFF900314EEF0A3EFF0900314E0FEA3E0FFEF4E60077F007E0012542C904005E0FFEF54F0FF7E0067
:402BC000EEC4F854F0C868FEEFC4540F48FFEF04FFAB07E4FAF9F8904200E0FFEF5407FFEF9084B993FFE4FCFDFE120576126B44904220E0FFEF5401FF7E00EF4E600B90AE
:402C000003167401F0127DB88005900316E4F0904210E0FFEF5401FF7E00EF4E600B9003177401F0127E008005900317E4F090400BE0FFEF5404FF7E00EF4E600790031834
:402C40007401F022900318E4F0229003B1EFF09003B2ECF0A3EDF09003B4EAF0A3EBF09003B7E0FFEFD394005003022E499003B7E0FFEFD394014003022E499003B1E0FF1F
:402C8000EF1206A82C97012C97042CC4072CEF082D1A0A00002D459003B6E0FFEFD3940F40117B0C7A017918127E6C9003B8EFF0022D4A7B0C7A01791C127E6C9003B8EF20
:402CC000F0022D4A9003B6E0FFEFD3940F40107B0C7A017919127E6C9003B8EFF0806B7B0C7A01791D127E6C9003B8EFF0805B9003B6E0FFEFD3940F40107B0C7A01791ADE
:402D0000127E6C9003B8EFF080407B0C7A01791E127E6C9003B8EFF080309003B6E0FFEFD3940F40107B0C7A01791B127E6C9003B8EFF080157B0C7A01791F127E6C9003E7
:402D4000B8EFF080059003B8E4F09003B8E0FFEF3395E0FEFDFC7B207A00790078001204EBA804A905AA06AB079003B2E0FEA3E0FFE4FCFD1204D09003B91206729003B913
:402D800012065AAB07AA06A905A804A804A905AA06AB079003B4E0FEA3E0FFE4FCFD1204EB9003BF1206727B007A80790078009003BF12065A1205769003BDEEF0A3EFF061
:402DC0009003B6E0FFEFC3940E50479003BDE0FEA3E0FF9003B6E0FDC3740E9DFDEFA805088005CEC313CE13D8F9FF9003BDEEF0A3EFF09003B6E0FFEF04FF9003B7E0FE9B
:402E0000EE75F003A424EBF582E43403F583EFF080169003B7E0FFEF75F003A424EBF582E43403F583740FF09003BDE0FEA3E0FF9003B7E0FDED75F003A424E9F582E434EE
:402E400003F583EEF0A3EFF0227F00127BFF2290060F7401F0900610E4F0900610E0FFEFC39480400302303D900610E0FF7E00EF2480FFEE3460FE8F828E83740CF090066A
:402E80000FE0FFEF75F00BA4244CF582E43402F583E0FFEF604F90060FE0FFEF75F00BA4244BF582E43402F583E0FFEF5480FF7E00EF4E6018900610E0FF7E00EF240EFF35
:402EC000EE3460FE8F828E83740CF0802E900610E0FF7E00EF240EFFEE3460FE8F828E837408F08016900610E0FF7E00EF240EFFEE3460FE8F828E837480F090060FE0FF1E
:402F0000EF75F00BA4244FF582E43402F583E0FEA3E0FFEEFF7E00900610E0FEEEFD7C00ED240CFDEC3460FC8D828C83EFF090060FE0FFEF75F00BA4244FF582E43402F549
:402F400083E0FEA3E0FFEF54FFFF900610E0FEEEFD7C00ED240DFDEC3460FC8D828C83EFF090060FE0FFEF75F00BA4244DF582E43402F583E0FEA3E0FFEF54FFFF90061066
:402F8000E0FEEEFD7C00ED2486FDEC3460FC8D828C83EFF090060FE0FFEF75F00BA4244DF582E43402F583E0FEA3E0FFEEFF7E00900610E0FEEEFD7C00ED2487FDEC3460F3
:402FC000FC8D828C83EFF090060FE0FFEF75F00BA4244DF582E43402F583E0FEA3E0FFEF54FFFF900610E0FEEEFD7C00ED2484FDEC3460FC8D828C83EFF090060FE0FFEFCD
:4030000075F00BA4244DF582E43402F583E0FEA3E0FFEEFF7E00900610E0FEEEFD7C00ED2485FDEC3460FC8D828C83EFF090060FE004F0900610E02410F0022E5A90600A99
:4030400074FFF0227F007E007D007C00900373120672900377E4F0A3E4F090037FE4F07F007E007D407C409003801206729003847402F07F02126A787B007A00798078415E
:4030800090038012065A12021B124C7790037312067290037312065A12036FEFC4F8540FC868FFEEC454F048FE1251C2AA06A9077B0190037012069390037012068A90039B
:4030C0007C1206937F007E007D807C419003731206661201127B007A00794078C012002112036F900377EEF0A3EFF090037FE4F090037FE0FFEFC39403503190037FE0FFB0
:403100007E00EF2400FFEE3480FE8F828E83E0FF90037C12068AEF12040990037DE475F00112047090037FE004F080C490037FE0FF7E00900377E0FCA3E0FDC3EF9DEE9CE7
:40314000501290037C12068AE412040990037FE004F080D890036DE0FF90037012068AEF12040990036EE0FF90037012068AE92401F9EA3400FAEF12040990036FE0FF9046
:40318000037012068AE92402F9EA3400FAEF1204097F001260A8900385EFF0900385E0FFEF60089003847403F0807990037FE4F090037012068A90037912069390037FE043
:4031C000FCE412033B9003731206661202B86042404090037FE0FFEFC39480503590037912068A90037FE0FD124886900385EFF0900385E0FFEF60089003847403F080240D
:4032000090037AE475F01012047090037FE004F080AA90037012068AAE02AF011241AD7F021262AD900384E0FF227B007A4679E8127E6CEF4405FD7B007A4679E8127E7862
:40324000750A00E50AC39407503AAF0AEF75F005A4246EF582E43484F583AF82AE838E088F09AE08AF098F828E8312069CAE08AF098F828E83740393FC740493FD127AC166
:40328000050A80BF7B087A00790012772D905883740AF07B017A507903127E6CEF4402FD7B017A507903127E787B017A507913127E6CEF4402FD7B017A507913127E789097
:4032C00043A0E0FFEF4440FF9043A0EFF09043C2E0FFEF4410FF9043C2EFF07B087A0179D8C003C002C0017B007A5179029004A0120693D001D002D0037F087E001275AD3A
:403300007B087A0179E0C003C002C0017B007A5179C09004A0120693D001D002D0037F0A7E001275AD7B087A0179ECC003C002C0017B007A5179F09004A0120693D001D009
:4033400002D0037F0A7E001275AD7B087A0179F8C003C002C0017B007A5179309004A0120693D001D002D0037F0A7E001275AD7B087A027904C003C002C0017B007A517988
:40338000629004A0120693D001D002D0037F087E001275AD9044F47401F0904322E0FFEF4408FF904322EFF09046ECE0FFEFC394055006904689743AF090480074F1F01290
:4033C00042EC90480074B1F01273A37B007A4379A0C003C002C0017B007A4379B09004A0120693D001D002D0037F0E7E001275AD9043B0E0FFEF54FDFFEFF022900437EFA2
:40340000F0900438120693900437E0FFEFD3940050030235C8900437E0FFEFC3940940030235C8900437E0FF7E00EF24FFFFEE34FFFEEFC4F8540FC868FFEEC454F048FEC7
:4034400090043DEFF090043DE0FF7E00EF2488FFEE3460FE90043EEEF0A3EFF0900437E0FFEF75F00BA4244DF582E43402F583E0FEA3E0FFC3E49FFF74029EFE90043BE095
:40348000FCA3E0FDD3ED9FEC9E4028900437E0FFEF75F00BA4244DF582E43402F583E0FEA3E0FFC3E49FFF74029EFE90043BEEF0A3EFF090043BE0FEA3E0FFEEFF7E009008
:4034C0000437E0FEEE75F00BA4244AF582E43402F583E0FEEF4EFF90043DE0FEEEFD7C00ED240CFDEC3460FC8D828C83EFF090043BE0FEA3E0FFEF54FFFF90043DE0FEEE6A
:40350000FD7C00ED240DFDEC3460FC8D828C83EFF07B007A007900C003C002C00190043812068AD082D083D0E06B7008E965827003EA65836051900440E4F0A3E4F09004AB
:403540003BE0FEA3E0FF900440E0FCA3E0FDC3ED9FEC9E503290043812068A900440E0FEA3E0FFE92FF9EA3EFA1203F0FF90043EE0FCA3E0FD8D828C83EFF0900440E475F4
:40358000F00112047080B7900437E0FFEF75F00BA42448F582E43402F583E4F0900437E0FFEF75F00BA4244CF582E43402F583E0FF90043DE0FEEEFD7C00ED240EFDEC3410
:4035C00060FC8D828C83EFF0227BFF7A7F795B900301120693900304E4F0A3E4F0900306E4F09003077402F07F02126A7890030112068AC003C002C0019004A412068AD0E0
:4036000082D083D0E06B7008E965827003EA658370479002C174A0F09003067401F0900306E0FFEFC39440501A900306E0FF74C12FF582E43402F5837440F0900306E00493
:40364000F080DB7B017A0279C112753B126661EFB403069003077403F09004A412068AC003C002C00190030112068AC3D082D083D0E0E99582EA9583400302371E900306E2
:40368000E0FFEFC3944050729004A412068AC003C002C00190030112068AC3D082D083D0E0E99582EA9583503790030112068A1203F0FF900306E0FE74C12EF582E4340247
:4036C000F583EFF0900306E004F0900302E475F001120470900304E475F001120470809D900306E0FF74C12FF582E43402F5837440F0900306E004F080837B017A0279C1F2
:4037000012753B900306E4F0126661EF640360030236599003077403F08048023659900304E475F0041204709002C17480F09002C2E4F0900304E0FEA3E0FFEEFF7E009022
:4037400002C3EFF0900304E0FEA3E0FFEF54FFFF9002C4EFF07B017A0279C112753B7F021262AD900307E0FF229004BFEEF0A3EFF09004C1EDF0127EB99004C3EFF0127E13
:40378000AF9004C4EEF0A3EFF09004C4E0FEA3E0FF9004BFE0FCA3E0FDED6F7002EC6E70030238FD9043A2E0FFEF5401FF9004C2EFF09004C3E0FFEF705E9004C4E0FEA3D1
:4037C000E0FFEF4E600C9004BFE0FEA3E0FFEF4E70469004C4E0FEA3E0FFEF4E701D7B027A4079809004BFE0FCA3E0FD127D5D904082E0FFEF54BFFFEFF022904082E0FFEA
:40380000EF4440FFEFF07B027A4079809004BFE0FCA3E0FD127D5D229004C2E0FFEF606C904001E4F09040107401F0904014E4F0904008E0FFEF547FFFEFF0904082E0FF30
:40384000EF5408FF7E00EF4E600C9004BFE0FEA3E0FFEF4E70367B027A4079029004C4E0FCA3E0FD127D5D9040017407F0904001E0FFEF5401FF7E00EF4E70F19043A2E04F
:40388000FFEF54FEFFEFF0904001E4F09043A2E0FFEF5401FF7E00EF4E603A7B027A4079029004BFE0FCA3E0FD127D5D9004C1E0FFEF60047F0280027F00EF4401FF904000
:4038C00001EFF0904001E0FFEF5401FF7E00EF4E602B80EF227B027A4079809004BFE0FCA3E0FD127D5D9043A2C083C082E0FF9004C2E0FEEF4EFFD082D083EFF0229004D0
:40390000C6EEF0A3EFF09004C8EDF0127ECD9004CAEFF0127EC39004CBEEF0A3EFF09004CBE0FEA3E0FF9004C6E0FCA3E0FDED6F7002EC6E7003023A929043A1E0FFEF5408
:4039400001FF9004C9EFF09004CAE0FFEF705E9004CBE0FEA3E0FFEF4E600C9004C6E0FEA3E0FFEF4E70469004CBE0FEA3E0FFEF4E701D7B027A4179009004C6E0FCA3E009
:40398000FD127D5D904102E0FFEF54BFFFEFF022904102E0FFEF4440FFEFF07B027A4179009004C6E0FCA3E0FD127D5D229004C9E0FFEF606C904001E4F09040147401F00D
:4039C000904010E4F0904008E0FFEF547FFFEFF0904102E0FFEF5408FF7E00EF4E600C9004C6E0FEA3E0FFEF4E70367B027A4079029004CBE0FCA3E0FD127D5D904001745E
:403A000007F0904001E0FFEF5401FF7E00EF4E70F19043A1E0FFEF54FEFFEFF0904001E4F09043A1E0FFEF5401FF7E00EF4E603A7B027A4079029004C6E0FCA3E0FD127D87
:403A40005D9004C8E0FFEF60047F0280027F00EF4401FF904001EFF0904001E0FFEF5401FF7E00EF4E602B80EF227B027A4179009004C6E0FCA3E0FD127D5D9043A1C08322
:403A8000C082E0FF9004C9E0FEEF4EFFD082D083EFF022900578EFF0904200E0FFEF5407FF900579EFF0900578E0FFEFB408047F038005900578E0FF90057AEFF09005796B
:403AC000E0FFEF1206A83ADC003AE4013AEC023AF4033AFB043B030500003B0B9005797402F0802C9005797401F080249005797403F0801C900579E4F080159005797404A3
:403B0000F0800D9005797405F080057F00127BFF900579E0FF90057AE0FEEEC39F4008900578E0FF125686900578E0FFEF1206A83B49003B62013B7A023B87033B9F043B63
:403B4000B7053BCF0800003BE3904200E0FFEF54F8FFEF4403FFEF54BFFF904200EFF0023BE8904200E0FFEF54F8FFEF4401FFEF54BFFF904200EFF0806E904200E0FFEF04
:403B800054B8FFEFF08061904200E0FFEF54F8FFEF4402FFEF54BFFF904200EFF08049904200E0FFEF54F8FFEF4404FFEF54BFFF904200EFF08031904200E0FFEF54F8FF31
:403BC000EF4405FFEF54BFFF904200EFF08019904200E0FFEF54F8FFEF4442FF904200EFF080057F00127BFF900578E0FFEFB40805127DC48003127DD0900579E0FF900550
:403C00007AE0FEEEC39F5008900578E0FF1256862290059EE4F0906004E0FFEF547FFF90059CEFF090059CE0FF7E00EF24FFFFEE34FFFEEFC4F8540FC868FFEEC454F048A4
:403C4000FE90059DEFF090059CE0FFEFD394005003023D7F90059CE0FFEFC394094003023D7F90059CE0FFEF75F00BA42449F582E43402F583E0FFEF54FEFFEFF090059CA6
:403C8000E0FFEF75F00BA4244AF582E43402F583E4F090059DE0FF7E00EF240CFFEE3460FE8F828E83E0FFEF547FFFEFF090059CE0FFEF75F00BA42448F582E43402F58381
:403CC000E0FFEF54FDFFEFF090059CE0FFEF75F00BA4244BF582E43402F583E0FFEF5480FF7E00EF4E604990059CE0FFEF75F00BA42448F582E43402F583E0FFEFB4011814
:403D000090059DE0FF7E00EF240EFFEE3460FE8F828E83740CF0805F90059DE0FF7E00EF240EFFEE3460FE8F828E83740DF0804790059CE0FFEF75F00BA42448F582E4344C
:403D400002F583E0FFEFB4011890059DE0FF7E00EF240EFFEE3460FE8F828E837408F0801690059DE0FF7E00EF240EFFEE3460FE8F828E837409F0127A7590059EEFF0907A
:403D8000059EE0FF22C0E0C0F0C083C082C085C084C086758600C093759300C0D075D000C000C001C002C003C004C005C006C007906028E0FF9005FFEFF09005FFE0FFEFA8
:403DC0005410FF7E00EF4E7003023ED39006007401F09005FFE0FFEF5480FF7E00EF4E60319005FFE0FFEF540FFF7E00EF64014E6007900600E4F0804612601F900243E0E2
:403E0000FFEF5480FF7E00EF4E6034900600E4F0802D9005FFE0FFEF5440FF7E00EF4E600512782680199005FFE0FFEF5420FF7E00EF4E60051276A58005900600E4F0905C
:403E40000600E0FFEF7003023ED3906028E0FF9005FFEFF09005FFE0FFEF5480FF7E00EF4E7070900246E0FF9002BEE0FEEE4FFF9005FFEFF09005FFE0FF906029EFF0901F
:403E80006029E0FF9005FFE0FEEE6F7046900243E0FF900600EFF0906028E0FFEF5480FF9005FFEFF09005FFE0FFEF7018900243E0FF906028EFF0906028E0FFEF540FFFE3
:403EC000900600EFF0900243E0FF900600E0FEEEB507BAD007D006D005D004D003D002D001D000D0D0D093D086D084D085D082D083D0F0D0E032900402EFF0900403ECF0F4
:403F0000A3EDF09004051206937B007A007900C003C002C00190051C12068AD082D083D0E06B7008E965827003EA6583700302404A900402E0FFEFD3943F400C90040DE48F
:403F4000F0A37410F0023FF490040D7401F0A37420F0900402E0FF7E007C207D001206F2EF2400FFEE3400FEED3408FDEC3400FCC004C005C006C007900403E0FEA3E0FF41
:403F80007C007D201206F2A804A905AA06AB07D007D006D005D0041204D0900409120672900408E4F0900408E0FFEFC394205044900408E0FFE4FCFDFE9004091206661257
:403FC00004D0A907AA06AB05127E6C90051C12068AE92400F9EA3401FA900408E0FEEEFD7C00E92DF9EA3CFAEF120409900408E004F080B190040512068AC003C002C0012F
:4040000090051C12068AA801AC02AD03D001D002D0037E017F001207DB900402E0FFC007900403E0FCA3E0FD90051C12068A90040DE0FEA3E0FF90045CEEF0A3EFF0D00714
:4040400012454490040FEFF0800690040F74FFF090040FE0FF22900325E0FF905A00EFF0900326E0FF905A02EFF0900327E0FF905A03EFF0900328E0FF905A04EFF09003D1
:4040800029E0FF905A06EFF090032AE0FF905A08EFF090032BE0FF905A0AEFF090032CE0FF905A10EFF090032DE0FF905A12EFF090032EE0FF905A13EFF090032FE0FF90AE
:4040C0005A14EFF0900330E0FF905A16EFF0900331E0FF905A18EFF0900332E0FF905A1AEFF0900333E0FF905A20EFF0900334E0FF905A22EFF0900335E0FF905A23EFF035
:40410000900336E0FF905A24EFF0900337E0FF905A26EFF0900338E0FF905A28EFF0900339E0FF905A2AEFF090033AE0FF905A30EFF090033BE0FF905A32EFF090033CE01D
:40414000FF905A33EFF090033DE0FF905A34EFF090033EE0FF905A36EFF090033FE0FF905A38EFF0900340E0FF905A3AEFF090031DE0FFEFB4012190500BE0FFEF54F1FF31
:4041800090031EE0FEEF4EFF90500BEFF09046E8E0FFEF4404FFEFF090034AE0FFEFB4010B904322E0FFEF4408FFEFF02290049BEEF0A3EFF04E70030242EB900495E07046
:4041C00002A3E070030242EB90049BE0FEA3E024FCFFEE34FFFEA37404F0A37493F090049DE0FCA3E0F5828C83E0FCA3E0FD90049FECF0A3EDF04C602090049BE0FCA3E0CA
:40420000FD90049FE0FAA3E0FBD39DEA9C500A90049DEAF0A3EBF080C590049FE07002A3E0604D8F828E83A3A3E0FCA3E0FD90049CE02DFD90049BE03CFC90049FE0FAA32E
:40424000E0FB6D7002EA6C70278B828A83A3A3E0FCA3E02404FDE43C8F828E83A3A38DF012047090049FE0FCA3E0F5828C83800390049FE0FDA3E08F828E83CDF0A3EDF09B
:4042800090049DE0FCA3E0FDF5828C83A3A3E0FAA3E0FBED2BFDEC3AFCED2404FDE43CFCED6F7002EC6E70338F828E83A3A3E0FCA3E02404FDE43CFC90049DE0FAA3E0FB8C
:4042C000F5828A83A3A3EC8DF01204708F828E83E0FFA3E08B828A83CF800C90049DE0FCA3E0F5828C83EEF0A3EFF022904698E0FF900517EFF07B007A4079807D007C0075
:40430000127D5B9040827450F07B087A02790CC003C002C0017B007A4179009004A0120693D001D002D0037F047E001275AD9043007406F090430A74F3F09046987403F044
:404340009043097484F09043087405F07FA07E867D017C0090051812067290051812065AD3EF9400EE94004033904308E0FFEF5420FF7E00EF4E70247FE07E017D007C0035
:4043800012750090051812065A7BFF7AFF79FF78FF1204D090051812067280BE900517E0FF904698EFF09042007452F07B0C7A01790F127E6C9046A1EFF07B007A4079042C
:4043C0007D007C00127D5B9040047407F0904006E4F09040087448F0904004E4F0904009E4F09040017402F090400B7404F09043A2E0FFEF4401FF9043A2EFF09043A1E06F
:40440000FFEF4401FF9043A1EFF09043A0E0FFEF4480FF9043A0EFF02290041EEFF090041F12069390041EE0FFEFD39400500302453390041EE0FFEFC3940940030245333F
:404440007B007A007900C003C002C00190041F12068AD082D083D0E06B7008E965827003EA6583700302453390041EE0FF7E00EF24FFFFEE34FFFEEFC4F8540FC868FFEE8F
:40448000C454F048FE900424EFF0900424E0FF7E00EF2488FFEE3460FE900425EEF0A3EFF090041EE0FF12580F900429EEF0A3EFF0900429E0FEA3E0FF900422E0FCA3E076
:4044C000FDD3ED9FEC9E4010900429E0FEA3E0FF900422EEF0A3EFF0900427E4F0A3E4F0900422E0FEA3E0FF900427E0FCA3E0FDC3ED9FEC9E5032900425E0FEA3E0FF8F1D
:40450000828E83E0FF90041F12068A900427E0FCA3E0FDE92DF9EA3CFAEF120409900427E475F00112047080B790041EE0FF12622E8008900422E4F0A3E4F0900422E0FE4E
:40454000A3E0FF22900456EFF0900457ECF0A3EDF0900459120693127676EF6003024657900456E0FF90045912068A90045CE0FCA3E0FD90046CECF0A3EDF012597290048F
:404580005EEFF090045EE0FFEF64076003024652904722E0FFEF5402FF7E00EF4E70097F017E0012770080E8904722E0FFEF5402FF7E00EF4E600D904722E0FFEF131354D2
:4045C0003FFF80027FFFEF700790045EE4F0800690045E74FFF090045EE0FFEF7074900456E0FF900457E0FCA3E0FD90051FE0FB900520E0FE9004DDEEF0125CA290045E4F
:40460000EFF090045EE0FFEF64077046904722E0FFEF5402FF7E00EF4E70097F017E0012770080E8904722E0FFEF5402FF7E00EF4E600D904722E0FFEF1313543FFF800236
:404640007FFFEF700790045EE4F0800690045E74FFF0127BD4800690045E7404F090045EE0FF229003E0740CF0127F249003E11206939003D47420F0A3E4F07F007E001259
:4046800075749003D8EFF07F017E001275749003D9EFF07F027E001275749003DAEFF09003E112068A1203F0FF9003DBEFF09003E112068AE92401F9EA3400FA1203F0FF9D
:4046C0009003DCEFF09003E112068AE92402F9EA3400FA1203F0FF9003DDEFF09003E112068AE92404F9EA3400FA1203F0FF9003DEEFF09003E112068AE92407F9EA340016
:40470000FA1203F0FF9003DFEFF09003E112068AE92408F9EA3400FA120486FFAEF09003D6EEF0A3EFF07B017A0379D4C003C002C0019004A412068A9000031206939003B5
:40474000E0E0FF7E00900006EEF0A3EFF0D001D002D0031223569003E0E0FF7E009004A5EE8FF0120470127C66127F4B900619E0FF127CAD22127C3E90062CEFF09043A569
:40478000E0FFEF4401FFEFF09043B5E0FFEF4401FFEFF090609D7401F09060097402F0906010E0FFEF547FFFEFF07F007E00127700904394E0FFEF54F9FFEFF0906012E0F7
:4047C000FFEF54DFFFEFF0904394E0FFEF4401FFEFF07F017E001277007F287E001277009051F8E0FFEF547FFFEFF09051F8E0FFEF54BFFFEFF0904394E0FFEF4402FFEFD4
:40480000F07F027E00127700904394E0FFEF4404FFEFF0906084E4F0906085E4F090062CE0FF127AF27C717D017F1712612C7D067F17126CD37C747DFF7F1512612C7D06C9
:404840007F15126CD37C3D7D857F1812612C7D067F18126CD37C697D437F0112612C7D067F01126CD37C697DAA7F0212612C7D067F02126CD37C6A7D117F0312612C7D0646
:404880007F03126CD32290050D120693900510EDF01277D8900510E0FFEFC394804003024984127676EF600302497C90051174FFF090050D12068A90046CE4F0A37410F028
:4048C0007F40125972EF64076003024977904722E0FFEF5402FF7E00EF4E60F1904722E0FFEF5402FF7E00EF4E600D904722E0FFEF1313543FFF80027FFFEF7005900511A8
:40490000E4F0900511E0FFEF7067900510E0FFEFFD7C0090051FE0FB900520E0FF9004DDEFF07F40125CA2EF6407703D90051174FFF0904722E0FFEF5402FF7E00EF4E60E3
:40494000F1904722E0FFEF5402FF7E00EF4E600D904722E0FFEF1313543FFF80027FFFEF7015900511E4F0800E90051174FFF0800690051174FFF0127BD4800E9005117466
:4049800004F080069005117401F0900511E0FF2290059FE4F09005A0E4F0127F4B127F47127F377F00127CAD7D017F001277AF7F01126A78127F2BEF7006127E18EF70F4BF
:4049C000127D6A127E18EF7003024A8A127B7CEF60F17B017A0579A07D0112657A90059FEFF09005A0E0FFEF60D990059FE0FFEF64026003024A829005A0E0FFEF1206A867
:404A00004A16014A1D024A2F034A34044A6C054A500600004A777F0112784C80A61235C9EF6005126F00809B7F0312784C809412731B808F7F0212784C125C04EFB4020885
:404A40007F0212784C0249C37F0312784C0249C37F0212784C1255C0EFB402087F0212784C0249C37F0312784C0249C31274607F0212784C0249C37F0312784C0249C302C2
:404A800049C37F0312784C0249C3127BEA2290059BE4F0906004E0FFEF547FFF900599EFF0900599E0FF7E00EF24FFFFEE34FFFEEFC4F8540FC868FFEEC454F048FE90057D
:404AC0009AEFF0900599E0FFEFD394005003024B7F900599E0FFEFC394094003024B7F900599E0FFEF75F00BA42449F582E43402F583E0FFEF4401FFEFF0900599E0FFEFDD
:404B000075F00BA4244AF582E43402F583E4F0900599E0FFEF75F00BA42448F582E43402F583E0FFEF4402FFEFF0900599E0FFEF75F00BA4244BF582E43402F583E0FFEF49
:404B40005480FF7E00EF4E601890059AE0FF7E00EF240EFFEE3460FE8F828E83748DF0801690059AE0FF7E00EF240EFFEE3460FE8F828E837489F0127A7590059BEFF0907F
:404B8000059BE0FF229004DF1206939004E3E4F07B007A007900C003C002C0019004DF12068AD082D083D0E06B7008E965827003EA65837003024C769004DF12068A7422F3
:404BC0001204099004DF12068AE92401F9EA3400FA74031204099004E27402F09004E2E0FFEFC394224003024C769004E3E0FFE4FCFDFEEF2400FFEE3401FEED340CFDECB2
:404C00003400FCA907AA06AB05127E6C9004E4EFF09004E3E004F09004E4E0FFEFC4540FFFEF9084A993FF9004DF12068A9004E2E0FEE92EF9E43AFAEF1204099004E4E0F5
:404C4000FFEF540FFFEF9084A993FF9004E2E0FEEEFD7C00ED2402FDEC3400FC9004DF12068AE92DF9EA3CFAEF1204099004E2E02404F0024BDC2290049B12067274FFFF89
:404C8000FEFDFC90049BE0F8A3E0F9A3E0FAA3E0FBC312062360387F807E967D187C4B90049BE0F8A3E0F9A3E0FAA3E0FB1202B86002501B7F807E967D187CCB90049BE065
:404CC000F8A3E0F9A3E0FAA3E0FB1202B8500F90049BE0FCA3E0FDA3E0FEA3E0FF2290049BE0FCA3E0FDA3E0FEA3E0FF12036F90049F12067290049FE0FCA3E0FDA3E0FE8B
:404D0000A3E0FFEC120331C8ECC8C9EDC9CAEECACBEFCB90049BE0FCA3E0FDA3E0FEA3E0FF12001DE4FBFAF9F81202B8502590049FE0FCA3E0FDA3E0FEA3E0FFE4FAF9F894
:404D4000EF2401FFEA3EFEE93DFDE83CFC90049F12067290049FE0FCA3E0FDA3E0FEA3E0FFEC1203312275930078007583467582E8E04401F0009046ECE0F99046FAE0FA1D
:404D8000B903225420B40012B8001AEA901FFFF07401901FFEF09046F6F0901FFEE06005901FFFE0FA90480074C0F075810C90000078007920E4F0A3D8FCD9FAEA9003FD02
:404DC000F0020011750B1F750CFD12322A024E0B025012E493A3F8E493A34003F68001F208DFF48029E493A3F85407240CC8C333C4540F4420C8834004F456800146F6DFAF
:404E0000E4800B0102040810204080905F02E47E019360BCA3FF543F30E509541FFEE493A360010ECF54C025E060A840B8E493A3FAE493A3F8E493A3C8C582C8CAC583CAD9
:404E4000F0A3C8C582C8CAC583CADFE9DEE780BE90063AEFF09003EAE4F090063AE0FFEF64016003024F33904E007430F0904E027406F0904E037408F0904E04E4F0904E9A
:404E800005E4F0904E06741FF0904E08E4F0904E09E4F0904E0AE4F0904E147401F09058847414F09058857405F09058867416F0905887E4F090588A7444F090588B7448FC
:404EC000F090588C7401F090588E7401F090588F7411F09058907419F09058917497F07F5212700A9058947458F0905895E4F090589A7405F090589B7402F090589CE4F0A7
:404F000090589DE4F07F00127A257F337E037D007C009003F01206727D017F267E001237697D017F9F7E001238FE7C7F7D537F1D12612C22127C3E900639EFF0904E00E09A
:404F4000FFEF54FEFFEFF0904E01E0FFEF4404FFEFF09046F8E0FFEF4402FFEFF09046F9E0FFEF4402FFEFF0905891E0FFEF54FCFFEFF0905892E0FFEF54F7FFEFF07F0357
:404F80007E001277009046F8E0FFEF54FDFFEFF09046F9E0FFEF54FDFFEFF09043AAE0FFEF54EFFFEFF09043AAE0FFEF54FEFFEFF09043BAE0FFEF54FEFFEFF09043BAE074
:404FC000FFEF54EFFFEFF0905877E0FFEF54F9FFEFF09043A1E0FFEF54FEFFEFF09043B1E0FFEF54FEFFEFF0905882E0FFEF54F7FFEFF09043A2E0FFEF54FEFFEFF09043AF
:40500000B2E0FFEF54FEFFEFF0900639E0FF127AF2229004A7E4F09004A3E4F09004A8E4F09004A9E4F0907F5AE493FFEF60031275E1127F3F127C291279EB12705D127C34
:4050400014126FB29045667402F09045187402F09045307401F0D2AF9044F474FDF0127C53127C79127A08127F1D122A397D407C087F0112260012204E127F16127D3D90C6
:4050800004A3E0FFEF6010124990127E24127EE59004A3E4F080CD9004A8E0FFEF60201246639004A8E4F07FFA7E007D007C00126ADE127E48127F0F7F061262AD80A5902D
:4050C00004A9E0FFEF609D127DAC9004A9E4F07FFA7E007D007C00126ADE127B21127EFA7F061262AD025064E47E007F00229004B1EFF09004B2E4F09004B1E0FF9004B362
:40510000EFF0904210E0FFEF4401FFEFF09004B1E0FFEFD3940050030251BC904300E0FF9004B5EFF0904380E0FF9004B6EFF0904382E0FF9004B7EFF07F181265059004A7
:40514000B27410F09004B3E0FFEFD394004047904210E0FF9004B47404F09004B4E0FFEFD3940040137F0112723E7E00EF30E0F59004B4E014F080E2904210E0FFEF5480FF
:40518000FF7E00EF4E70079004B2E4F080089004B3E014F080AE9004B5E0FFEF5404FF7E00EF4E7003127DF49004B6E0FF904380EFF09004B7E0FF904382EFF09004B2E0C5
:4051C000FF2290049BEEF0A3EFF0A37404F0A37493F090049DE0FEA3E0F5828E83E0FEA3E0FF4E7003FEFF228F828E83A3A3E0FCA3E0FD90049BE0FAA3E0FBC3ED9BEC9AE4
:40520000500A90049DEEF0A3EFF080C68F828E83A3A3E0FCA3E0C39BFDEC9AFC90049FF0A3EDF0C39410EC940050178F828E83E0FCA3E0FD90049DE0FAA3E0F5828A83EC2C
:4052400080459004A0E024FCF090049FE034FFF0E0FDA3E08F828E83A3A3CDF0A3EDF0EF2404FFE43EFE9004A0E02FFF90049FE03EFE90049DF0A3EFF090049BE0FDA3E011
:405280008F828E83A3A3CDF0A3EDF0EF2404FFE43EFE22127C3E9005D2EFF09003E4E0FF9005D1EFF09043AAE0FFEF4401FFEFF09043AAE0FFEF4410FFEFF09043BAE0FFED
:4052C000EF4401FFEFF09043BAE0FFEF4410FFEFF09046F8E0FFEF4402FFEFF09046F9E0FFEF4402FFEFF0905891E0FFEF4403FFEFF07F037E001277009046F8E0FFEF54A9
:40530000FDFFEFF09046F9E0FFEF54FDFFEFF0905877E0FFEF4406FFEFF0905882747AF09043A1E0FFEF4401FFEFF09043B1E0FFEF4401FFEFF09043A2E0FFEF4401FFEFD9
:40534000F09043B2E0FFEF4401FFEFF09044DB7420F09044C37420F09005D2E0FF127AF222900666E4F09002B5E0FF7E00900244EE8FF01204709002ACE0FEA3E0FFD3EFF6
:405380009400EE94004053900666E0FFEFC3940850489002AE12068A1203F0FF900666E0FEEEFD7C00ED2400FDEC3460FC8D828C83EFF09002AE12068AE92401F9EA3400CE
:4053C000FA9002AE120693900666E004F09002AC74FF75F0FF120470809C9002B5E0FFEF6408600B900666E0FFEFD39400401C9002BEE0FFEF6480FF9002BEEFF0900243C3
:40540000740FF09002BF7402F0800C9002437402F09002BF7402F0900666E0FF9002B5EFF0900666E0FF900246EFF0229004CDEEF0A3EFF0127C3E9004D2EFF0904007E086
:40544000FF7E00EF7F00FE9004D0EEF0A3EFF09004D0E0FEA3E0FF904006E0FD7C00EE4CFEEF4DFF9004D0EEF0A3EFF09004CDE0FEA3E0FFEF4E600C9004D0E0FEA3E0FF27
:40548000EF4E705E904004E0FF9004CFEFF09004CFE0FFEFC3940750057F07127C9D9004CDE0FEA3E0FFEF4E7018904008E0FFEF4440FFEFF09004CDE0FEA3E0FF1270B0D6
:4054C00080169004CDE0FEA3E0FF1270B0904008E0FFEF54BFFFEFF09004CFE0FF127C9D800B9004CDE0FEA3E0FF1270B09004D2E0FF127AF2229003E47401F09003EFE47A
:40550000F07F101278D57F101278F67D077F1D126CD39058967407F0905897E4F090589EE4F0905B07E0FFEF4418FFEFF0905893E4F0905B88E4F0905B89E4F090588074C3
:405540000AF0905881E4F0905883E4F09058887412F09058897413F090588DE4F0904E017414F09003B6740CF09003B77401F07B007A807D6B7C8D7F02122C4A9003E4E019
:40558000FFEF75F003A424EBF582E43403F583E0FF904E0EEFF09003E4E0FFEF75F003A424E9F582E43403F583E0FCA3E0FD7B027A4E790C127D5D9003E4E0FF124E50228C
:4055C00090039F7403F07BFF7A8479CAC003C002C0017B017A0379A0A801AC02AD03D001D002D0037E007F071207DB127B7CEF7006127E18EF70F4127E18EF70030256803F
:405600007B017A0379A07D0712657AEF640270709003A0E0FF7E00EF7F00FE9003AFEEF0A3EFF09003A1E0FF7E009003AFE0FCA3E0FDEE4CFEEF4DFF9003AFEEF0A3EFF0CC
:405640009003A2E0FF9003A7EFF09003A3E0FF9003A8EFF09003A4E0FF9003A9EFF09003A5E0FF9003ABEFF09003A6E0FF9003AEEFF07B017A0379A7127ADA90039FEFF0A1
:4056800090039FE0FF229005A5EFF01271A29005A6EFF09005A6E0FFEFB4010B906009E0FFEF54FDFFEFF09005A5E0FFEF1206A856C90056D80156E70256F6035705045745
:4056C0001405572308000057467B0C7A017908127E6C9046A1EFF0227B0C7A017909127E6C9046A1EFF0227B0C7A01790A127E6C9046A1EFF0227B0C7A01790B127E6C9078
:4057000046A1EFF0227B0C7A017989127E6C9046A1EFF0227B0C7A01790C127E6C9046A1EFF0227B0C7A01790F127E6C9046A1EFF09005A6E0FFEFB40111906009E0FFEF9C
:405740004402FFEFF0227F00127BFF22900635E4F0906000E0FFEF5480FF7E00EF64804E7033906001E0FFEF1206A8577221000058099002ACE4F0A37407F07B017A0479E7
:405780002B9002AE1206931266CF900635EFF0807880768074906000E0FFEF5480FF7E00EF4E7065906001E0FFEF1206A857B72057E422000058099002ACE4F0A37407F054
:4057C0007B017A04792B9002AE120693900434E0FFEF4401FF900434EFF0126D32900635EFF08025906002E0FF7E00900435EEF0A3EFF0900434E0FFEF4402FF900434EF95
:40580000F0127A75900635EFF0900635E0FF22900537EFF0900539E4F0A3E4F0900537E0FFEFD3940050030258BB900537E0FFEFC3940940030258BB900537E0FF7E00EF6A
:4058400024FFFFEE34FFFEEFC4F8540FC868FFEEC454F048FE900538EFF0900538E0FF7E00EF240CFFEE3460FE8F828E83E0FFEF540FFF7E00900539EEF0A3EFF09005382F
:40588000E0FF7E00EF240DFFEE3460FE8F828E83E0FFEFFD7C00900539E0FEA3E0FFEF7F00FEEE4CFEEF4DFF900539EEF0A3EFF090053974FF75F0FE120470900539E0FE72
:4058C000A3E0FF22900606E4F0906029E0FFEF540FFFEF24FEFF900605EFF0900605E0FF7E00900244EE8FF01204709002ACE0FEA3E0FFD3EF9400EE94004057900605E078
:40590000FFEFD39400404C900606E0FF7E00EF2400FFEE3460FE8F828E83E0FF9002AE12068AEF1204099002AE12068AE92401F9EA3400FA9002AE120693900606E004F0AE
:40594000900605E014F09002AC74FF75F0FF1204708098900605E0FF900246EFF09002BEE0FFEF6480FF9002BEEFF0900243740BF022900468EFF090046912069390046EA9
:405980007407F0904722E0FFEF5402FF7E00EF4E607D90472074B6F090472074D5F09047207402F0904722E0FFEF5402FF7E00EF4E7054900468E0FF904720EFF090046FDB
:4059C000E4F0A3E4F090046CE0FEA3E0FF90046FE0FCA3E0FDC3ED9FEC9E503990046912068A90046FE0FEA3E0FFE92FF9EA3EFA1203F0FF904720EFF090046FE475F001DF
:405A000012047080C0800E90046E7409F0800690046E7404F090046EE0FF229004E5EFF09004E6E4F0904220E0FFEF4401FFEFF09004E5E0FFEF7003025AB9904300E0FFA6
:405A4000EF5404FF9004E7EFF0904380E0FF9004E8EFF0904382E0FF9004E9EFF07F181265059004E67410F07F0112723E7E00EF20E027904225E0FFEF5401FF7E00EF4EBE
:405A800060E6904225E0FFEF5401FF7E00EF4E60D79004E6E4F0800280CE9004E7E0FFEF7003127DF49004E8E0FF904380EFF09004E9E0FF904382EFF09004E6E0FF229010
:405AC00005267401F0906004E0FF900527EFF0900242E0FFEF14FF126EA5900528EEF0A3EFF0900528E0FEA3E0FF8F828E83A312069CE92404F9EA3400FA1203F0FF900560
:405B00002AEFF090052AE0FF900527E0FEEEC39F500B900527E0FFEFC394024007900526E4F08038900527E0FF74AA2FF582E43402F583E0FF900527E0FE74B92EF582E4E8
:405B40003402F583EFF0906002E0FF900527E0FE74AA2EF582E43402F583EFF0900526E0FF2290054FEFF0900550EDF0900551EAF0A3EBF0900550E0FFEFC39403500B9082
:405B8000055174FF75F0FF120470900551E0FEA3E0FF7C007D6412041BAC06AD07900551E0FEA3E0FFEF7802CEC313CE13D8F9FFC3EF9DFBEE9CFA900551E0FEA3E0FF7C64
:405BC000017D9012041BEF2BFFEE3AFE900551E0FCA3E0FDEF2DFFEE3CFE900550E0FDED90849C93FD7C0090054FE0FB7A00ED2BFDEC3AFCEF2DFFEE3CFE7C007D0712046E
:405C00001BAF05229004AA7403F07BFF7A8479C7C003C002C0017B017A0479ABA801AC02AD03D001D002D0037E007F031207DB127B7CEF7006127E18EF70F4127E18EF60E1
:405C40005B7B017A0479AB7D0312657AEF6402704B9004ABE0FF9004AEEFF09004ACE0FF9004AFEFF09004ADE0FF9004B0EFF07B017A0479AEC003C002C0017B017A03798E
:405C80006DA801AC02AD03D001D002D0037E007F031207DB1230449004AAEFF09004AAE0FF229004D9EFF09004DAECF0A3EDF09004DCEBF09004DE7407F0904722E0FFEF1F
:405CC0005402FF7E00EF4E606B90472074B6F090472074D8F09047207405F0904722E0FFEF5402FF7E00EF4E70429004D9E0FF904720EFF09004DAE0FEA3E0FFEEFF7E0041
:405D0000904720EFF09004DAE0FEA3E0FFEF54FFFF904720EFF09004DCE0FF904720EFF09004DDE0FF904720EFF0800E9004DE7409F080069004DE7404F09004DEE0FF221D
:405D40009005C5EFF09005C6EDF09044C27480F09044C37401F09044C07402F09044C07404F09044C07408F09002BFE4F09005C6E0FFEF1206A85D80005D880100005D9088
:405D80009060097402F0800E9060097403F080069060097403F09005C5E0FF9002C0EFF0900242E4F09002B4E4F09002B8E4F09002BBE4F0900241E4F09002B5E4F0906093
:405DC000287403F09060087480F07F017E007D007C001275009060127404F02290058D120693127F1D90058D12068A1203F0FF900394EFF090058D12068AE92401F9EA34FC
:405E000000FA1203F0FF900395EFF090058D12068AE92402F9EA3400FA1203F0FF900396EFF090058D12068AE92404F9EA3400FA1203F0FF900398EFF090058D12068AE9CC
:405E40002407F9EA3400FA1203F0FF90039BEFF090058D12068AE92408F9EA3400FA120486FFAEF090039CEEF0A3EFF0127F16229005ADEFF0904308E0FFEF5402FF7E00BD
:405E8000EF4E60047F0180027F009005AEEFF090430A74F3F09005ADE0FFEF640170339046987401F07F0A7E00127700904309E0FFEF54F3FFEF4408FF904309EFF07F1477
:405EC0007E00127700904308E0FFEF4402FFEFF0802A9046987406F07F0A7E00127700904309E0FFEF54F3FFEF4404FF904309EFF0904308E0FFEF54FDFFEFF09005AEE0E0
:405F0000FF224304A4FF7F5B42056F0000410619004403F9016E36004403F400005DC04103F8184403FE2EE00000410634004103EF004103EA004103E5004103EB0041030A
:405F4000E4014205E10030410392004A03940000000101000101076C4A03860000000101000101076C41039E004103910041039300410390004106590043051C00000041C5
:405F800006640041066BFF00480493000000000000000090060BE4F090060CE4F0906000E0FFEF5403FFEF1206A85FB4015FC00200005FDE906004E0FF90060CEFF0801ED5
:405FC000906004E0FFEF547FFFEF75F00BA42451F582E43402F583E0FF90060CEFF090060CE0FF9002B6E0FCA3E0FD8D828C83E5822FF582E43583F583E493FFEF1206A8A3
:4060000060190160110260190300006019800A800812574C90060BEFF090060BE0FF22906028E0FF900665EFF0900665E0FF906028EFF0906028E0FF900665EFF090066527
:40604000E0FFEF5480FF7E00EF4E600B900665E0FF900243EFF0227F02126C71906000E0FFEF5460FFEF1206A8607600608020608A40000060941213EF900665EFF080199E
:40608000125F93900665EFF0800F127152900665EFF08005900665E4F0900665E0FFEF70069002437403F0229005CFEFF01277D89005CFE0FFEFC394025065127676EF7092
:4060C000579005CFE0FD7F4012673BEF6407703D9005D074FFF0904722E0FFEF5402FF7E00EF4E60F1904722E0FFEF5402FF7E00EF4E600D904722E0FFEF1313543FFF805B
:40610000027FFFEF700D9005D0E4F080069005D074FFF0127BD4800E9005D07404F080069005D07401F09005D0E0FF229004F4EFF09004F5ECF0A3EDF09004F4E0FFEFD305
:40614000941F5003D38001C340057F00127BFF9004F4E0FFEF541FFF7E00EF25E0FFEE33FEEF2400FFEE3444FEAA06A9077B01127D4E9004F7EEF0A3EFF09004F4E0FF7E5B
:4061800002EF8EF0A4FFAEF0EF2400FFEE3444FEAA06A9077B019004F5E0FEA3E0FFAD07AC06127D5D9004F7E0FEA3E0FF22904E14E0FFEF5403FF90058CEFF090058CE07E
:4061C000FFEFD394015032904E11E0FF7E0090058AEEF0A3EFF090058AE0FEA3E0FFEF7F00FE904E10E0FD7C00EE4CFEEF4DFF90058AEEF0A3EFF0801F7B027A4E79101259
:406200007D4E90058AEEF0A3EFF090058CE0FFEFB40305904E12E0FF9003EAE0FFEF60059003EFE4F090058AE0FEA3E0FF229005C7EFF09005C7E0FFEFD39400406E9005E4
:40624000C7E0FFEFC3940950639005C7E0FF7E00EF24FFFFEE34FFFEEFC4F8540FC868FFEEC454F048FE9005C8EFF09005C7E0FFEF75F00BA42448F582E43402F583E4F051
:406280009005C7E0FFEF75F00BA4244CF582E43402F583E0FF9005C8E0FEEEFD7C00ED240EFDEC3460FC8D828C83EFF022900617EFF0900617E0FFEF1206A862CE0062D9BD
:4062C0000163020262E405631E06000063287F00127D1D7F00127D2D227F00127D1D7F00127D2D229004A7E0FFEF600B7F03127D1D7F01127D2D227F00127D1D7F00127D90
:406300002D22127E18EF600B7F03127D1D7F03127D2D227F00127D1D7F00127D2D227F00127D1D7F00127D2D229004FE120693900501ECF0A3EDF0900432E0FFEF75F00B3B
:40634000A4244FF582E43402F583E0FEA3E0FF900501E0FCA3E0FDD3ED9FEC9E4025900432E0FFEF75F00BA4244FF582E43402F583E0FEA3E0FF900501EEF0A3EFF07F0064
:40638000127BFF900432E0FF9004FE12068A900501E0FCA3E0FD90043BECF0A3EDF01233FC22900242E0FFEF14FF126EA5900596EEF0A3EFF0900596E0FEA3E0FF8F828E69
:4063C00083A312069CE92404F9EA3400FA1203F0FF900598EFF0900598E0FF7E00EF2402FFEE3400FEEF7802C333CE33CED8F9FF900596E0FCA3E0FDEF2DFFEE3CFE900576
:4064000096EEF0A3EFF0900596E0FEA3E0FF8F828E83A312069CAE02AF012290052BEFF09043A0E0FFEF4410FFEFF09043B0E0FFEF4410FFEFF090052BE0FFEF6051904339
:4064400000E0FFEF5404FF90052EEFF0904380E0FF90052DEFF0904382E0FF90052CEFF07F001265057F0112723E7E00EF30E0F590052EE0FFEF7003127DF490052DE0FFD7
:40648000904380EFF090052CE0FF904382EFF022900627EFF0904382E0FFEF54F7FFEFF0127DDC904382E0FFEF5404FF7E00EF4E602F900627E0FF904381E0FEEE6F6044CE
:4064C000904382E0FFEF54FBFFEFF0900627E0FF904381EFF0904382E0FFEF4404FFEFF022900627E0FF904381E0FEEE6F600A900627E0FF904381EFF0904382E0FFEF4447
:4065000004FFEFF022900628EFF0904382E0FFEF54FDFFEFF0127DE8904382E0FFEF5401FF7E00EF4E602F900628E0FF904380E0FEEE6F6044904382E0FFEF54FEFFEFF00E
:40654000900628E0FF904380EFF0904382E0FFEF4401FFEFF022900628E0FF904380E0FEEE6F600A900628E0FF904380EFF0904382E0FFEF4401FFEFF02290048312069356
:40658000900486EDF0900487E4F0A3E4F0900489E4F090048A7403F012749B900487EEF0A3EFF0900486E0FF7E00900487E0FCA3E0FDEFB5051EEEB5041A90048312068A3D
:4065C000900486E0FFEFFD7C001276D390048A7402F08014900487E0FEA3E0FFD3EF9400EE940040031279CE90048AE0FF2290430A74F3F09046987403F0904309E0FFEF06
:4066000054F3FFEF4404FF904309EFF0904308E0FFEF4404FFEFF0904308E0FFEF4401FFEFF09005AB7403F0A374E8F09005ABE0FEA3E0FFD3EF9400EE94004023127EA5E2
:406640007E00EF30E5067F00125E70227F017E001277009005AB74FF75F0FF12047080CC22900569E4F090056AE4F090056B7403F0900569E0FFEF7050127E18EF604A1294
:40668000749BEF4E7006127E18EF70F37B017A0579697D0112657A90056AEFF090056AE0FFEFB402CC900569E0FFEFB4070A90056B7402F0801380B9900569E0FFEFB4035F
:4066C000B090056B7403F080A890056BE0FF229002ACE0FEA3E0FFEF4E700512793780589002BF7402F09002BEE4F01271F1906007E0FF7E00EF7F00FE906006E0FD7C0012
:40670000EE4CFEEF4DFF900601EEF0A3EFF0900601E0FEA3E0FF9002ACE0FCA3E0FDD3ED9FEC9E4010900601E0FEA3E0FF9002ACEEF0A3EFF01253617F0122900590EFF024
:40674000900591EDF09005927407F0904722E0FFEF5402FF7E00EF4E603F90472074B6F090472074DBF09047207408F0904722E0FFEF5402FF7E00EF4E7016900590E0FF03
:40678000904720EFF0900591E0FF904720EFF0800E9005927409F080069005927404F0900592E0FF22906008E0FFEF547FFFEFF0906012E0FFEF54FBFFEFF09043A5E0FFFE
:4067C000EF54FEFFEFF09043B5E0FFEF54FEFFEFF09044CA7480F09044CB7401F09044C87402F09044C87404F09044C87408F0900242E4F09002B4E4F09002B8E4F09002EE
:40680000BBE4F0900241E4F0900634E4F022C0E0C0F0C083C082C085C084C086758600C093759300C0D075D000C000C001C002C003C004C005C006C00712204E127F167FD1
:40684000001262AD127D3D7F06126A789004A97401F0D007D006D005D004D003D002D001D000D0D0D093D086D084D085D082D083D0F0D0E032C0E0C0F0C083C082C085C051
:4068800084C086758600C093759300C0D075D000C000C001C002C003C004C005C006C00712204E127F167F001262AD127D3D7F06126A789004A87401F0D007D006D005D0C8
:4068C00004D003D002D001D000D0D0D093D086D084D085D082D083D0F0D0E0321277D890065F74FFF0127676EF704C7F01126E4AEF6407703D7B017A05791F7D02126BAA19
:40690000EFB4021F90065FE4F0904722E0FFEF5402FF7E00EF4E701A7F017E0012770080E8800F904722E0FFEF5402FF7E00EF4E60C3127BD4800690065F7404F090065FB8
:40694000E0FF22C0E0C083C082C085C084C086758600C093759300C0D075D000C006C00790600EE0FF900252E0FFEF5403FF7E00EF64014E600E900255E0FFEF6480FF90CF
:406980000255EFF09002537401F090600BE0FFEF54FEFFEFF0D007D006D0D0D093D086D084D085D082D083D0E032C0E0C083C082C085C084C086758600C093759300C0D04E
:4069C00075D000C006C00790601EE0FF90025DE0FFEF5403FF7E00EF64014E600E900260E0FFEF6480FF900260EFF090025E7401F090600BE0FFEF54FDFFEFF0D007D006C9
:406A0000D0D0D093D086D084D085D082D083D0E032C0E0C083C082C085C084C086758600C093759300C0D075D000C006C00790602EE0FF900268E0FFEF5403FF7E00EF6435
:406A4000014E600E90026BE0FFEF6480FF90026BEFF09002697401F090600BE0FFEF54FBFFEFF0D007D006D0D0D093D086D084D085D082D083D0E032900616EFF09006160C
:406A8000E0FFEF1206A86A9C016AC8026AB2036AA7046ABD056AD30600006ADD7F03127D1D7F03127D2D227F01127D1D7F01127D2D227F03127D1D7F01127D2D227F0212EC
:406AC0007D1D7F03127D2D227F02127D1D7F02127D2D227F02127D1D7F01127D2D2290FFFC1206CE120672850B83850C8212065AD3EF9400EE9480402F9003FE12065A1216
:406B00007500850B83850C82C083C08212065AEF2400FFEE3480FEED34FFFDEC34FFFCD082D08312067280BF9003F412065A850B83850C821206661204EB127500900004B2
:406B40001206CE229005F9EFF0127C3E9005FAEFF09005F9E0FFEFD394165014904800E0FFEF543FFFEF4440FF904800EFF080319005F9E0FFEFD3942C5014904800E0FF0D
:406B8000EF543FFFEF4480FF904800EFF08012904800E0FFEF543FFFEF44C0FF904800EFF09005FAE0FF127AF222900521120693900524EDF0900525E4F0900524E0FF90BD
:406BC0000525E0FEEEC39F5040904722E0FFEF5401FF7E00EF4E6003D38001C340097F017E0012770080E2904720E0FF90052112068A900525E0FEE92EF9E43AFAEF120438
:406C000009900525E004F080B1900525E0FF22C0E0C0F0C083C082C085C084C086758600C093759300C0D075D000C000C001C002C003C004C005C006C00712204E127F16BF
:406C40007F001262AD127D3D9004A37401F0D007D006D005D004D003D002D001D000D0D0D093D086D084D085D082D083D0F0D0E032900667EFF07B007A007900C003C00258
:406C8000C0019002B112068AD082D083D0E06B7008E965827003EA65836037900667E0FF9002B112068AEF120409900244E0FEA3E0FF9002B112068AE92401F9EA3400FA41
:406CC000EE8FF01204B17B007A0079009002B1120693229005B9EFF09005BAEDF09005BAE0FFEFD394075003D38001C340057F00127BFF9005B9E0FFEFD3941F5003D380FC
:406D000001C340057F00127BFF9005BAE0FFEF5407FF7E00EF75F020A4FFAEF09005B9E0FEEE541FFE74802EF582E43444F583EFF0229002BF7404F09002BE7480F012712C
:406D4000F1906007E0FF7E00EF7F00FE906006E0FD7C00EE4CFEEF4DFF900603EEF0A3EFF0900603E0FEA3E0FF9002ACE0FCA3E0FDD3ED9FEC9E4010900603E0FEA3E0FFE2
:406D80009002ACEEF0A3EFF0900243740BF07F012290055712069390055AE4F01277D87B007A007900C003C002C00190055712068AD082D083D0E06B7008E965827003EAED
:406DC0006583700890055A7401F0801D127676EF600890055A7404F0800F90055712068A90051C120693127BD490055AE0FF2290061CEFF090061CE0FFEF1206A86E380055
:406E00006E21016E0A0200006E44904000E0FFEF54BFFFEFF0904200E0FFEF4420FFEFF022904000E0FFEF4440FFEFF0904200E0FFEF4420FFEFF022904200E0FFEF54DF2C
:406E4000FFEFF0227F00127BFF229005FBEFF09005FC7407F0904722E0FFEF5402FF7E00EF4E603590472074B6F090472074E1F0904720740EF0904722E0FFEF5402FF7EBE
:406E800000EF4E700C9005FBE0FF904720EFF0800E9005FC7409F080069005FC7404F09005FCE0FF22900593EFF09002C0E0FFEF25E025E0242BF582E43484F58312069C78
:406EC000AE02AF01900594EEF0A3EFF0900594E0FEA3E0FF8F828E83C083C082900593E0FFD082D08375F004EF12067EE5822405F582E5833400F58312069CAE02AF01228E
:406F00009005A1E4F09005A2E4F0127E18EF6049127B7CEF7006127E18EF70F47B017A0579A27D0112657A9005A1EFF09005A1E0FFEFB402D59005A2E0FFEFB4020F7BFF26
:406F40007A7F795B9004A41206932280BD9005A2E0FFEFB403B42280B1229005A3E4F0A3E4F07F05126A781278931274D59005A3EEF0A3EFF07B017A0579A3C003C002C0B6
:406F8000019004A412068A900003120693900006E4F0A37402F0D001D002D0031223569004A5E475F00212047012705D7F051262AD227F017E00127574900618EFF07F028D
:406FC0007E00127574900571EFF0900618E0FFEF1206A86FE3006FEB016FF3026FFB03000070019006197401F080169006197402F0800E9006197404F080069006197408F3
:40700000F07F00127CAD127F16229005DDEFF0127C3E9005DEEFF09046F8E0FFEF4403FFEFF09046F9E0FFEF4403FFEFF09005DDE0FF905892EFF07F037E001277009046E2
:40704000F8E0FFEF54FCFFEFF09046F9E0FFEF54FCFFEFF09005DEE0FF127AF2229043AAE0FFEF5401FF7E00EF64014E70399043AAE0FFEF5410FF7E00EF64104E702890F2
:4070800005E17401F0904E00E0FFEF5401FF7E00EF4E600E9005E1E0FFEF4402FF9005E1EFF0124F3480059005E1E4F0127E84229005A7EEF0A3EFF0904014E0FFEF54F052
:4070C000FFEFF0904010E4F0904008E0FFEF4480FFEFF09005A7E0FEA3E0FFEF54FFFF904002EFF09005A7E0FEA3E0FFEEFF7E00904003EFF0904001E0FFEF4401FFEFF0AD
:4071000022C0E0C0F0C083C082C085C084C086758600C093759300C0D075D000C000C001C002C003C004C005C006C007127646D007D006D005D004D003D002D001D000D008
:40714000D0D093D086D084D085D082D083D0F0D0E032900674E4F0906000E0FFEF5480FF7E00EF64804E7034906001E0FFEF1206A87178010000719C7BFF7A8479409002AB
:40718000AE120693908440E493FF7E009002ACEEF0A3EFF01266CF900674EFF0900674E0FF2290061BE4F0904393E0FFEF5407FF7E00EF4E700F9043A5E0FFEF5401FF7EF0
:4071C00000EF4E7020904393E0FFEF5407FF7E00EF64014E70159043B5E0FFEF5401FF7E00EF4E600690061B7401F090061BE0FF22900244E4F0A3E4F07B007A007900C0AD
:4072000003C002C0019002B112068AD082D083D0E06B7008E965827003EA6583601F9002B112068AE41204099002B112068AE92401F9EA3400FAE475F0001204B122900564
