:40000000024E7B008F828E83E0540100000070F82278FFE4F6D8FD024ED90203DBE86480F8E933E83360110460F0ED33EC337009E8FCE9FDEAFEEBFF220460DED3EB9FEA26
:400040009EE99DE8C2E78CF0C2F795F0400CE8CCF8E9CDF9EACEFAEBCFFB1203A685D0F05804700320D5B3E80470075002B2D50203E592D5EC0460F7E4CCC0E0C398F860B5
:400080003B94186008400DD0E0FB0203BDE4FBFAC9FC8028E830E406E4C9FBE4CAFCE830E305E4C9CACBFCE854076010F8C3E913F9EA13FAEB13FBEC13FCD8F130F52FC331
:4000C000E49CFCEF9BFFEE9AFEED99FDD0E0FBEF4E4D4C701222DB030203E2EC2CFCEF33FFEE33FEED33FDED30E7EB0203BDEF2BFFEE3AFEED39FDD0E0FB50130BBB0003AD
:400100000203E5ED13FDEE13FEEF13FFEC13FC0203BDEC4D6011E8497017ED33EC3304600DE4FCFFFEFD22E933E8330470F80203DB1203A658046009E4CC248150062850E7
:40014000090203E52840030203E2C0E0EB4A7044B98006D0E0FB0203D1EF4E701CBD8008EBFFEAFEE9FD80EBE98DF0A4FEE5F00201FBE9CDF9EAFEEBFFEF89F0A4FCE5F087
:40018000CE89F0A42EFFE435F0CD89F0A42DFEE435F08067EF4E7005BD80D780C3EF8BF0A4ACF0EE8BF0A42CFCE435F0F8EF8AF0A42CE5F038FCE433CB8DF0A42CFCE5F0EE
:4001C0003BF8EE8AF0A42CFCE5F038F8E433CF89F0A42CFCE5F038CF3400CE89F0A42FFFE5F03EFEE433C98DF0A42EFEE5F039CD8AF0A42FFFE5F03EFEE43DFD33D0E0FBCD
:4002000050070BBB000F0203E5EC2CFCEF33FFEE33FEED33FD0203BD0203E5EC5D046005E8590470030203DB1203A6580460F6EC4860F2EC7004FDFEFF22C860DB2481C862
:400240005009C398600250060203E29850CAF582E9294B4A7005AB820203D175F0007C1A7880C3EF9BEE9AED99400DC3EF9BFFEE9AFEED99FDE842F0DC23ACF0D0E0FFD0BF
:40028000E0FED0E0FDAB8220E7101BEB60BAEC2CFCEF33FFEE33FEED33FD0203BDE803F830E705C0F075F000EF2FFFEE33FEED33FD40B830E7C280AA74F8CC6480CCC864A0
:4002C00080C8F58204604FC3EB9FF5F0EA9E42F0E99D42F0E89C45F0603C501DE5825FFFE582D313CB5BCBF42B5582FB50280ABA002409B9002008801DE5825BFBE582D354
:4003000013CF5FCFF4C3132F5582FF50090EBE00050DBD00010CC3EB9FF5F0EA9E42F0E99D42F0E89C45F06007CC4820E701B3EC2275F020800E75F010800575F0087D0045
:400340007E007F003392D530D503120615EC334010EF33FFEE33FEED33FDEC33FCD5F0ED22E5F0247EA2D513CC92E7CDCEFF22EDD2E7CD33EC3392D524814006E4FFFEFDFF
:40038000FC22FCE4CFCECDCC24E0501174FF80EDC3CC13CCCD13CDCE13CECF13CF0470F030D5DE020615E9D2E7C933E833F892D5EDD2E7CD33EC33FC5002B2D522EC30E70E
:4003C000100FBF000C0EBE00080DBD00040BEB6014A2D5EB13FCED92E7FD2274FFFCFDFEFF22E480F8A2D574FF13FC7D80E480EFBB010689828A83E0225002E722BBFE02EF
:40040000E32289828A83E49322BB010689828A83F0225002F722BBFE01F322BC000BBE0029EF8DF084FFADF022E4CCF875F008EF2FFFEE33FEEC33FCEE9DEC984005FCEEDA
:400440009DFE0FD5F0E9E4CEFD22EDF8F5F0EE8420D21CFEADF075F008EF2FFFED33FD4007985006D5F0F222C398FD0FD5F0EA22C5F0F8A3E028F0C5F0F8E582158270021C
:400480001583E038F022BB010A89828A83E0F5F0A3E022500687F009E71922BBFE07E3F5F009E3192289828A83E493F5F074019322BB010A89828A83F0E5F0A3F02250063F
:4004C000F709A7F01922BBFE06F3E5F009F31922EF2BFFEE3AFEED39FDEC38FC22C3EF9BFFEE9AFEED99FDEC98FC22E88FF0A4CC8BF0A42CFCE98EF0A42CFC8AF0EDA42C49
:40050000FCEA8EF0A4CDA8F08BF0A42DCC3825F0FDE98FF0A42CCD35F0FCEB8EF0A4FEA9F0EB8FF0A4CFC5F02ECD39FEE43CFCEAA42DCE35F0FDE43CFC2275F008758200F5
:40054000EF2FFFEE33FECD33CDCC33CCC58233C5829BED9AEC99E58298400CF582EE9BFEED9AFDEC99FC0FD5F0D6E4CEFBE4CDFAE4CCF9A88222B800C1B90059BA002DEC9C
:400580008BF084CFCECDFCE5F0CBF97818EF2FFFEE33FEED33FDEC33FCEB33FB10D703994004EB99FB0FD8E5E4F9FA227818EF2FFFEE33FEED33FDEC33FCC933C910D70560
:4005C0009BE99A4007EC9BFCE99AF90FD8E0E4C9FAE4CCFB2275F010EF2FFFEE33FEED33FDCC33CCC833C810D7079BEC9AE899400AED9BFDEC9AFCE899F80FD5F0DAE4CD47
:40060000FBE4CCFAE4C8F922EF4BFFEE4AFEED49FDEC48FC22C3E49FFFE49EFEE49DFDE49CFC22EB9FF5F0EA9E42F0E99D42F0E89C45F022E8600FECC313FCED13FDEE13AA
:40064000FEEF13FFD8F122E8600FEFC333FFEE33FEED33FDEC33FCD8F122E0FCA3E0FDA3E0FEA3E0FF22E0F8A3E0F9A3E0FAA3E0FB22ECF0A3EDF0A3EEF0A3EFF022A425D7
:4006800082F582E5F03583F58322E0FBA3E0FAA3E0F922EBF0A3EAF0A3E9F022E493FB740193FA740293F922D083D082F8E4937012740193700DA3A393F8740193F58288A3
:4006C00083E4737402936860EFA3A3A380DFE50C2582F582E50B3583F583B50B0485820C2210AF0685820CF50B2285820CF50BD2AF22EC8EF0A4CCC5F0CCCDF8EFA4CEC5FA
:40070000F02DFDE43CFCE8A42EC8C5F03DFDE43CFCEFA4FFE5F028FEE43DFDE43CFC22E709F608DFFA8046E709F208DFFA803E88828C83E709F0A3DFFA8032E309F608DF0F
:40074000FA806EE309F208DFFA806688828C83E309F0A3DFFA805A89828A83E0A3F608DFFA804E89828A83E0A3F208DFFA804280D280FA80C680D4805580F28029801080CB
:40078000A680EA809A80A880DA80E280CA802988848C8589828A83E493A30586F0A30586DFF5DEF3800B89828A83E493A3F608DFF9ECFAA9F0EDFB2288848C8589828A834A
:4007C000E0A30586F0A30586DFF6DEF480E389828A83E493A3F208DFF980D688F0EF60010E4E60CD88F0ED2402B4040050C3F582EB2402B4040050B9232345822390076F43
:4008000073C0E0C0F0C083C082C085C084C086758600C093759300C0D075D000C000C001C002C003C004C005C006C0077F04127133900394E004F0900394E0FFEFD3943B8F
:400840005003020DFB900395E004F0900394E4F0900395E0FFEFD3943B5003020D54900396E004F0900395E4F0900396E0FFEFD394175003020C84900398E004F09003965B
:40088000E4F0900399E475F001120470900397E004F0900397E0FFEFD3940740069003977401F0900390E0FFEF5402FF7E00EF4E602C90039BE0FFEFB4022390039BE0FFC0
:4008C000EF90857593FF7E00EF2401FFEE3400FE900398E0FD7C00D3ED9FEC9E5058900390E0FFEF5402FF7E00EF4E601F90039BE0FFEF6402601590039BE0FFEF9085754A
:4009000093FF900398E0FEEED39F502A900390E0FFEF5402FF7E00EF4E6003020B2190039BE0FFEF90857593FF900398E0FEEED39F5003020B2190039BE004F0900398740D
:4009400001F090039BE0FFEFD3940C5003020A7A90039CE475F00112047090039B7401F0900399E4F0A37401F090039CE0FEA3E0FF7C017D9012041BED4C602590039CE08D
:40098000FEA3E0FF7E00EF5403FFEF4E701790039CE0FEA3E0FF7C007D6412041BED4C60047F0180027F00EFB40110900390E0FFEF4402FF900390EFF0800E900390E0FF79
:4009C000EF54FDFF900390EFF090039EE0FFEF5480FF7E00EF64804E70047F0180027F00EF603690039CE0FEA3E0FF90038EE0FCA3E0FDEDB50714ECB50610900391E0FF48
:400A0000EF4480FF900391EFF0800E900391E0FFEF547FFF900391EFF090039EE0FF90067FEFF090067FE0FFEF603290067FE0FF900391E0FEEE5FFF90067FE0FEEFB50654
:400A4000047F0180027F00EF6013900390E0FFEF4408FF900390EFF0900391E4F0900393E0FFEF5440FF7E00EF64404E70047F0180027F00EF600312803890039EE0FFEF63
:400A80005440FF7E00EF64404E70047F0180027F00EF602C90039BE0FF90038DE0FEEEB50710900391E0FFEF4440FF900391EFF0800E900391E0FFEF54BFFF900391EFF002
:400AC00090039EE0FF90067FEFF090067FE0FFEF603290067FE0FF900391E0FEEE5FFF90067FE0FEEFB506047F0180027F00EF6013900390E0FFEF4408FF900390EFF090E9
:400B00000391E4F0900393E0FFEF5420FF7E00EF64204E70047F0180027F00EF600312803790039EE0FFEF5408FF7E00EF64084E70047F0180027F00EF602C900397E0FF9D
:400B4000900389E0FEEEB50710900391E0FFEF4408FF900391EFF0800E900391E0FFEF54F7FF900391EFF090039EE0FFEF5420FF7E00EF64204E70047F0180027F00EF60BF
:400B800036900399E0FEA3E0FF90038BE0FCA3E0FDEDB50714ECB50610900391E0FFEF4420FF900391EFF0800E900391E0FFEF54DFFF900391EFF090039EE0FFEF5410FF16
:400BC0007E00EF64104E70047F0180027F00EF602C900398E0FF90038AE0FEEEB50710900391E0FFEF4410FF900391EFF0800E900391E0FFEF54EFFF900391EFF090039E59
:400C0000E0FF90067FEFF090067FE0FFEF603290067FE0FF900391E0FEEE5FFF90067FE0FEEFB506047F0180027F00EF6013900390E0FFEF4408FF900390EFF0900391E460
:400C4000F0900393E0FFEF5408FF7E00EF64084E70047F0180027F00EF600312788B900397E0FFEFB4011D900393E0FFEF5410FF7E00EF64104E70047F0180027F00EF601E
:400C800003128036900396E0FFEFC3940C5010900390E0FFEF54FBFF900390EFF0800E900390E0FFEF4404FF900390EFF090039EE0FFEF5404FF7E00EF64044E70047F0139
:400CC00080027F00EF602C900396E0FF900388E0FEEEB50710900391E0FFEF4404FF900391EFF0800E900391E0FFEF54FBFF900391EFF090039EE0FF90067FEFF090067F97
:400D0000E0FFEF603290067FE0FF900391E0FEEE5FFF90067FE0FEEFB506047F0180027F00EF6013900390E0FFEF4408FF900390EFF0900391E4F0900393E0FFEF5404FF0C
:400D40007E00EF64044E70047F0180027F00EF600312786390039EE0FFEF5402FF7E00EF64024E70047F0180027F00EF602C900395E0FF900387E0FEEEB50710900391E07A
:400D8000FFEF4402FF900391EFF0800E900391E0FFEF54FDFF900391EFF090039EE0FF90067FEFF090067FE0FFEF603290067FE0FF900391E0FEEE5FFF90067FE0FEEFB5D8
:400DC00006047F0180027F00EF6013900390E0FFEF4408FF900390EFF0900391E4F0900393E0FFEF5402FF7E00EF64024E70047F0180027F00EF600312717F90039EE0FF0D
:400E0000EF5401FF7E00EF64014E70047F0180027F00EF602C900394E0FF900386E0FEEEB50710900391E0FFEF4401FF900391EFF0800E900391E0FFEF54FEFF900391EF0B
:400E4000F090039EE0FF90067FEFF090067FE0FFEF603290067FE0FF900391E0FEEE5FFF90067FE0FEEFB506047F0180027F00EF6013900390E0FFEF4408FF900390EFF005
:400E8000900391E4F0900393E0FFEF5401FF7E00EF64014E70047F0180027F00EF6003126E0FD007D006D005D004D003D002D001D000D0D0D093D086D084D085D082D083B9
:400EC000D0F0D0E032900420EFF0900428E4F0A3E4F0900421E4F0900421E0FFEFC394094003020F84900421E0FFEF75F00BA42447F582E43402F583E4F0900421E0FFEF10
:400F000075F00BA42449F582E43402F583E4F0900421E0FFEF75F00BA42448F582E43402F583E4F0900421E0FFEF75F00BA4244AF582E43402F583E4F0900421E0FFEF7599
:400F4000F00BA4244CF582E43402F583E4F0900421E0FFEF75F00BA4244FF582E43402F583E4F0A3E4F0900421E0FFEF75F00BA42451F582E43402F583E4F0900421E004A5
:400F8000F0020ED7900420E0FFEF603A900423E4F0900423E0FFEFC39402502A900423E0FF74AA2FF582E43402F583E4F0900423E0FF74B92FF582E43402F583E4F0900438
:400FC00023E004F080CB900242E0FFEFD3940050030213EE900242E0FFEF14FF126D5A90042AEEF0A3EFF090042AE0FEA3E0FF8F828E83A312069C900425120693900425F0
:4010000012068AE92407F9EA3400FA1203F0FFEF5440FF7E00EF4E6010900241E0FFEF4401FF900241EFF0800E900241E0FFEF54FEFF900241EFF090042AE0FEA3E0FFEF62
:401040002404FFEE3400FE90042AEEF0A3EFF090042AE0FEA3E0FF8F828E83E493FF900421EFF09004237401F0900423E0FFEFC39409400302130390042AE0FEA3E0FF8FB8
:40108000828E83A312069CAE02AF0190042CEEF0A3EFF0900422E4F0900421E0FF900422E0FEEEC39F40030212FA90042CE0FEA3E0FF8F828E83740293FFEF547FFF7E00EA
:4010C000900423E0FD7C00ED6F7002EC6E60030212D990042CE0FEA3E0FF8F828E83740493FE740593FF900423E0FDED75F00BA4244FF582E43402F583E0FCA3E0FDC3EDF5
:401100009FEC9E502C90042CE0FEA3E0FF8F828E83740493FE740593FF900423E0FDED75F00BA4244FF582E43402F583EEF0A3EFF090042CE0FEA3E0FF8F828E83E493FF8B
:4011400074AA2FF582E43402F583E0FF90042CE0FCA3E0FD8D828C83740193FEEF6E60030212D990042CE0FEA3E0FF8F828E83740393FFEF5403FF900424EFF090042CE086
:40118000FEA3E0FF8F828E83740293FFEF5480FF7E00EF4E7003021219900423E0FFEF75F00BA42448F582E43402F5837401F0900424E0FFEFB401047F0780027F0D90048E
:4011C00023E0FEEE75F00BA4244CF582E43402F583EFF090042CE0FEA3E0FF8F828E83740693FFEF640A601890042CE0FEA3E0FF8F828E83740693FFEF6402600302128FC8
:40120000900424E0FFEF6403700302128F900423E0FF900442EFF08076900423E0FFEF75F00BA42448F582E43402F583E4F0900424E0FFEFB401047F0580027F0990042304
:40124000E0FEEE75F00BA4244CF582E43402F583EFF090042CE0FEA3E0FF8F828E83740693FFEF640A601490042CE0FEA3E0FF8F828E83740693FFEFB40214900424E0FF79
:40128000EF6403600A900423E0FF900443EFF090042CE0FEA3E0FF8F828E83740293FF900423E0FEEE75F00BA4244BF582E43402F583EFF090042CE0FEA3E0FF8F828E83A8
:4012C000740393FF900423E0FEEE75F00BA42447F582E43402F583EFF090042CE0FEA3E0FFEF2407FFEE3400FE90042CEEF0A3EFF0900422E004F0021098900423E004F0C3
:4013000002106990042AE0FEA3E0FF8F828E83A312069CAE02AF0190042CEEF0A3EFF0900423E4F0900421E0FF900423E0FEEEC39F505390042CE0FEA3E0FF8F828E83E44E
:4013400093FF90042CE0FCA3E0FD8D828C83740293FEEE547FFEEE75F00BA42451F582E43402F583EFF090042CE0FEA3E0FFEF2407FFEE3400FE90042CEEF0A3EFF090046F
:4013800023E004F0809E1263929002B6EEF0A3EFF09004217401F0900421E0FFEFC394095049900428E0FEA3E0FF900421E0FDED75F00BA4244DF582E43402F583EEF0A329
:4013C000EFF0900421E0FFEF75F00BA4244FF582E43402F583E0FEA3E0FF900428EE8FF0120470900421E004F080AC12305822900481E4F07B007A00790090048312069362
:401400009002ACE4F0A3E4F0906000E0FFEF5480FF7E00EF64804E60030216C3906001E0FFEF1206A815E50014350616740816940A00001889906003E0FFEFB40135127BCE
:4014400022900488EEF0A3EFF0900488E0FEA3E0FF8F828E83A312069C9002AE1206939002ACE4F0A37412F01266BF900481EFF0021889906003E0FFEF6402706B90600201
:40148000E0FF126D5A900488EEF0A3EFF0900488E0FEA3E0FF8F828E83A312069C9002AE1206939002AE12068AE92403F9EA3400FA1203F0FF7E00EF7F00FE9002AE1206CF
:4014C0008AE92402F9EA3400FA1203F0FD7C00EE4CFEEF4DFF9002ACEEF0A3EFF01266BF900481EFF0021889906003E0FFEF640360030215DA900486E4F07BFF7A84798FFB
:40150000900483120693900486E0FF906002E0FEEED39F403D90048312068A1203F0FFEF603090048312068A1203F0FF900487EFF090048312068A900487E0FF7E00E92F07
:40154000F9EA3EFA900483120693900486E004F080B4906002E0FFEFB4EE0C7BFF7A85790D900483120693906002E0FFEF603090844AE493FF906002E0FEEEB507217BFF04
:401580007A8479D49004831206937B017A03794B124BAF7B017A03794B90048312069390048312068A1203F0FFEF700302188990048312068A1203F0FF7E009002ACEEF0BD
:4015C000A3EFF090048312068A9002AE1206931266BF900481EFF0021889125FFF900481EFF0021889906000E0FFEF5403FFEF1206A8163F0015FC02000018899002ACE402
:40160000F0A37402F0906004E0FFEF547FFFEF75F00BA42449F582E43402F583E0FF900615EFF0900616E4F07B017A0679159002AE1206931266BF900481EFF002188990E8
:4016400002ACE4F0A37402F0900241E0FF900615EFF0900616E4F07B017A0679159002AE1206931266BF900481EFF00218890218890218899002ACE4F0A37401F07B017A8A
:401680000279429002AE1206931266BF900481EFF00218899002ACE4F0A37401F0906004E0FF74AA2FF9E43402FA7B019002AE1206931266BF900481EFF002188902188995
:4016C000021889906001E0FFEF1206A817670118020316DF0516F40917140B00001889906002E0FF9002BBEFF0127B57900481EFF0021889906002E0FF900242EFF09002BA
:40170000B87401F07F01120EC5127B57900481EFF0021889125BBCEF7003021889906004E0FF900482EFF0900482E0FF9002B4EFF09002B87401F012188F900482E0FF74CB
:40174000AA2FF582E43402F583E0FF900482E0FE74B92EF582E43402F583EFF0127B57900481EFF0021889906000E0FFEF5403FFEF1206A817970017BD01178102000018FE
:4017800089906002E0FFEF6003021889123C2A900481EFF0021889906002E0FFEF64016003021889900241E0FFEF54FDFF900241EFF0127B57900481EFF00218899060048E
:4017C000E0FFEFC394024003021889906004E0FF74BC2FF582E43402F583C083C082E0FF906002E0FEEEF4FEEF5EFFD082D083EFF0127B57900481EFF0021889021889029D
:401800001889906000E0FFEF5403FFEF1206A8182E00185001181C0200001889906002E0FFEF7065124AB8900481EFF0805B906002E0FFEF64017051900241E0FFEF440279
:40184000FF900241EFF0127B57900481EFF08039906004E0FFEFC39402502E906004E0FF74BC2FF582E43402F583C083C082E0FF906002E0FEEEF4FEEF5EFFD082D083EF5E
:40188000F0127B57900481EFF0900481E0FF22900242E0FFEFD394005003021C70900242E0FFEF14FF126D5A90048FEEF0A3EFF090048FE0FEA3E0FFEF2404FFEE3400FE96
:4018C00090048FEEF0A3EFF090048FE0FEA3E0FF8F828E83E493FF90048AEFF090048FE0FEA3E0FF8F828E83A312069CAE02AF01900491EEF0A3EFF090048CE4F090048A5A
:40190000E0FF90048CE0FEEEC39F4003021C70900491E0FEA3E0FF8F828E83E493FF74B92FF582E43402F583E0FF900491E0FCA3E0FD8D828C83E493FE74AA2EF582E43459
:4019400002F583E0FEEE6F7003021C4F900491E0FEA3E0FF8F828E83E493FF74AA2FF582E43402F583E0FF900491E0FCA3E0FD8D828C83740193FEEF6E6003021C4F90041A
:4019800091E0FEA3E0FF8F828E83E493FF906004E0FEEF6E6003021C4F900491E0FEA3E0FF8F828E83740293FFEF547FFF90048BEFF090048BE0FF7E00EF24FFFFEE34FF83
:4019C000FEEFC4F8540FC868FFEEC454F048FE90048EEFF0900491E0FEA3E0FF8F828E83740393FFEF5403FF90048DEFF0900491E0FEA3E0FF8F828E83740293FFEF548008
:401A0000FF7E00EF4E603C90048BE0FFEF75F00BA42448F582E43402F5837401F090048DE0FFEFB401047F0780027F0D90048BE0FEEE75F00BA4244CF582E43402F583EFD2
:401A4000F0803990048BE0FFEF75F00BA42448F582E43402F583E4F090048DE0FFEFB401047F0580027F0990048BE0FEEE75F00BA4244CF582E43402F583EFF090048EE0E4
:401A8000FF7E00EF240EFFEE3460FE8F828E837401F0900491E0FEA3E0FF8F828E83740493FE740593FF90048BE0FDED75F00BA4244FF582E43402F583EEF0A3EFF090045A
:401AC00091E0FEA3E0FF8F828E83740293FF90048BE0FEEE75F00BA4244BF582E43402F583EFF0900491E0FEA3E0FF8F828E83740393FF90048BE0FEEE75F00BA42447F566
:401B000082E43402F583EFF090048BE0FFEF75F00BA4244AF582E43402F583E4F090048BE0FFEF75F00BA4244FF582E43402F583E0FEA3E0FFEEFF7E0090048EE0FEEEFD33
:401B40007C00ED240CFDEC3460FC8D828C83EFF090048BE0FFEF75F00BA4244FF582E43402F583E0FEA3E0FFEF54FFFF90048EE0FEEEFD7C00ED240DFDEC3460FC8D828C9F
:401B800083EFF090048BE0FFEF75F00BA4244DF582E43402F583E0FEA3E0FFEF54FFFF90048EE0FEEEFD7C00ED2486FDEC3460FC8D828C83EFF090048BE0FFEF75F00BA432
:401BC000244DF582E43402F583E0FEA3E0FFEEFF7E0090048EE0FEEEFD7C00ED2487FDEC3460FC8D828C83EFF090048BE0FFEF75F00BA4244DF582E43402F583E0FEA3E04F
:401C0000FFEF54FFFF90048EE0FEEEFD7C00ED2484FDEC3460FC8D828C83EFF090048BE0FFEF75F00BA4244DF582E43402F583E0FEA3E0FFEEFF7E0090048EE0FEEEFD7C45
:401C400000ED2485FDEC3460FC8D828C83EFF0900491E0FEA3E0FFEF2407FFEE3400FE900491EEF0A3EFF090048CE004F00218FD22900399E4F0A3E4F0900398E0FF7E00E9
:401C8000900399EE8FF012047090039CE0FEA3E0FF7C017D9012041BED4C602590039CE0FEA3E0FF7E00EF5403FFEF4E701790039CE0FEA3E0FF7C007D6412041BED4C6031
:401CC000047F0180027F00EFB40110900390E0FFEF4402FF900390EFF0800E900390E0FFEF54FDFF900390EFF09005FDE4F090039BE0FF7E00EF24FFFFEE34FFFE9005FDEF
:401D0000E0FD7C00C3ED9FEC9E501E9005FDE0FFEF90857693FF7E00900399EE8FF01204709005FDE004F080C5900390E0FFEF5402FF7E00EF64024E70047F0180027F00E2
:401D4000EF601590039BE0FFEFD39402400A900399E475F001120470900398E0FF90039BE0FD90039CE0FAA3E0FB125C5FEF04FF900397EFF0900397E0FFEFD39400400948
:401D8000900397E02400F08013900397E0FFEFF404FFC374079FFF900397EFF0900396E0FFEFC3940C5010900390E0FFEF54FBFF900390EFF0800E900390E0FFEF4404FFDD
:401DC000900390EFF090039EE0FFEF5401FF7E00EF64014E70047F0180027F00EF602C900394E0FF900386E0FEEEB50710900391E0FFEF4401FF900391EFF0800E9003915C
:401E0000E0FFEF54FEFF900391EFF090039EE0FFEF5402FF7E00EF64024E70047F0180027F00EF602C900395E0FF900387E0FEEEB50710900391E0FFEF4402FF900391EF98
:401E4000F0800E900391E0FFEF54FDFF900391EFF090039EE0FFEF5404FF7E00EF64044E70047F0180027F00EF602C900396E0FF900388E0FEEEB50710900391E0FFEF44C5
:401E800004FF900391EFF0800E900391E0FFEF54FBFF900391EFF090039EE0FFEF5408FF7E00EF64084E70047F0180027F00EF602C900397E0FF900389E0FEEEB50710900D
:401EC0000391E0FFEF4408FF900391EFF0800E900391E0FFEF54F7FF900391EFF090039EE0FFEF5420FF7E00EF64204E70047F0180027F00EF6036900399E0FEA3E0FF901E
:401F0000038BE0FCA3E0FDEDB50714ECB50610900391E0FFEF4420FF900391EFF0800E900391E0FFEF54DFFF900391EFF090039EE0FFEF5410FF7E00EF64104E70047F01B1
:401F400080027F00EF602C900398E0FF90038AE0FEEEB50710900391E0FFEF4410FF900391EFF0800E900391E0FFEF54EFFF900391EFF090039EE0FFEF5440FF7E00EF64B6
:401F8000404E70047F0180027F00EF602C90039BE0FF90038DE0FEEEB50710900391E0FFEF4440FF900391EFF0800E900391E0FFEF54BFFF900391EFF090039EE0FFEF54FE
:401FC00080FF7E00EF64804E70047F0180027F00EF603690039CE0FEA3E0FF90038EE0FCA3E0FDEDB50714ECB50610900391E0FFEF4480FF900391EFF0800E900391E0FF80
:40200000EF547FFF900391EFF090039EE0FF9005FEEFF09005FEE0FFEF60329005FEE0FF900391E0FEEE5FFF9005FEE0FEEFB506047F0180027F00EF6013900390E0FFEFB4
:402040004408FF900390EFF0900391E4F0229005027410F0900318E0FFEF64017051904005E0FFEF54F0FF7E00EEC4F854F0C868FEEFC4540F48FFEF04FFAB07E4FAF9F8FF
:40208000904200E0FFEF5407FFEF90859E93FFE4FCFDFE1205767B4B7A00790078001204EB12750090400BE0FFEF4404FFEFF0900317E0FFEF640160030221497F00125174
:4020C00027904210E0FF900503E4F0A37405F0900503E0FEA3E0FFD3EF9400EE94004069904005E0FFEF54F0FF7E00EEC4F854F0C868FEEFC4540F48FFEF04FFAB07E4FAA8
:40210000F9F8904200E0FFEF5407FFEF90859E93FFE4FCFDFE1205767BC87A00790078001204EB127500904210E0FFEF5480FF7E00EF4E7007900502E4F0800D9005037429
:40214000FF75F0FF12047080867F2D126A0090030BE0FFEF6402600990030BE0FFEFB4031E900313E0FF904004E0FEEE6F6008900313E0FF127D7A90030BE0FF1274E090CF
:40218000030DE0FFEF5440FF7E00EF4E601690030CE0FFEF9085A593FFEFB403077F08123AAC803590030CE0FFEF9085A593FF123AAC90030DE0FFEF5440FF7E00EF4E6016
:4021C0000D904200E0FFEF4440FFEFF0800B904200E0FFEF54BFFFEFF090030FE0FFEFB401149043A0E0FFEF5410FF7E00EF4E70057F0012640B90030FE0FFEF70129043E2
:40220000A0E0FFEF5410FF7E00EF4E6003127C03900310E0FF126CA4900312E0FFEFB40103127E98904000E0FFEF5430FF7E00900311E0FD7C00ED6F7002EC6E601690401D
:4022400000E0FFEF54CFFF900311E0FEEF4EFF904000EFF0900316E0FFEF6401704B7F00125B18904005E0FFEF54F0FF7E00EEC4F854F0C868FEEFC4540F48FFEF04FFABEC
:4022800007E4FAF9F8904200E0FFEF5407FFEF90859E93FFE4FCFDFE1205767BFA7A00790078001204EB12750090030BE0FFEF600990030BE0FFEFB4011E900313E0FF9021
:4022C0004004E0FEEE6F6008900313E0FF127D7A90030BE0FF1274E0904007E0FF7E00EF7F00FE900505EEF0A3EFF0900505E0FEA3E0FF904006E0FD7C00EE4CFEEF4DFF50
:40230000900505EEF0A3EFF0900505E0FEA3E0FF900314E0FCA3E0FDED6F7002EC6E600B900314E0FEA3E0FF125465904800E0FFEF543FFF90030EE0FEEF4EFF904800EF87
:40234000F0900309E0FF9043A1EFF090030AE0FF9043A2EFF02290000012069390000312068AAF01AE02AD037C0090011912067290011912065AEF54FFFFEE54FFFEED54A0
:4023800000FDEC5400FC90011912067290000312068AAF01AE02AD037C007B007A0079FF7800D312062340030225DC90000312068AAF01AE02AD037C00A804A905AA06AB40
:4023C00007900006E0FEA3E0FFE4FCFD1204D07BFF7AFF79FF7800C312062350030225DC127A927B017A017921126BEB7B007A007901780090011912065A120576900108A6
:402400001206727B007A017900780090011912065A120576EF54FFFFEE5400FEED5400FDEC5400FC90010C1206727F007E017D007C0090010C1206661204EBC004C005C004
:4024400006C0077F007E007D017C009001081206661204EBA804A905AA06AB07D007D006D005D0041204D090011D1206727F007E007D007C00900114120672900118E4F0AE
:40248000900006E0FEA3E0FFE4FCFD900114120666C312062340030225CF900118E0FFEF60030225CF7F007E007D007C0090011012067290011012065AC3EE940140030260
:4024C000259390011912065A90011D120666C3120623405B900006E0FEA3E0FFE4FCFD900114120666C3120623504490011412065A90000012068AE92FF9EA3EFAEB3DFB1C
:402500001203F0FB90011012065A74082FF582E43400F583EBF090011412065A7B017A00790078001204D0900114120672803390011D12065AEF2400FFEE3400FEED3410B2
:40254000FDEC3400FCA907AA06AB05127F40AB0790011012065A74082FF582E43400F583EBF090011D12065A7B017A00790078001204D090011D12067290011012065A7B5C
:40258000017A00790078001204D09001101206720224B390010812065AC00790010C12065AAD07AC067B017A007908D007123F0F900118EFF090010C12065A7B017A0079CA
:4025C0000078001204D090010C120672022480904800E0FFEF4406FFEFF080069001187401F0900118E0FFEF6010900118E0FFEF6401600690011874FFF0900118E0FF226F
:4026000090053CEFF090053DECF0A3EDF0127D0B90053FEFF0904393E0FFEF5408FF7E00EF4E700D904683E0FFEF541FFFEFF0800990053FE0FF127BD4229046ECE0FFEFE1
:40264000C39405501A904689E0FFEF5401FF7E00EF4E7003D38001C340057F00127CCC9046F5E0FFEF5407FF7E00EF4E60399046ECE0FFEFC3940550077F00127CCC8027A6
:40268000904689E0FFEF5401FF7E00EF4E701290031FE4F0904689E0FFEF4401FFEFF0800690031F7401F012282790053CE0FFEFC39402402A90053CE0FFEFD3940D501FA4
:4026C00090053CE0FFEF14FF12648090053DE0FEA3E0FFEE4408FE90053DEEF0A3EFF090053CE0FFEFB4011712779690053DE0FEA3E0FFEE4408FE90053DEEF0A3EFF090E0
:402700004398E0FF900320EFF090053DE0FEA3E0FFEEC4F854F0C868FEEFC4540F48FF904398EFF0904399E0FF900321EFF090053DE0FEA3E0FFEF540FFF904399EFF0901C
:40274000439AE0FF900322EFF090053DE0FEA3E0FFEEC4540FFF7E00EF5401FF90439AEFF0904200E0FFEF5407FF7E00EF4E70089003497401F0801E900349E4F090420028
:40278000E0FFEF5407FF900348EFF0904200E0FFEF54F8FFEFF0904393E0FFEF54F8FFEF4403FF904393EFF0904393E0FF000000900349E0FFEF64016016904200E0FFEF0A
:4027C00054F8FF900348E0FEEF4EFF904200EFF012406F9046F5E0FFEF5407FF7E00EF4E601E9046ECE0FFEFC39405401390031FE0FFEF700B904689E0FFEF54FEFFEFF064
:40280000900320E0FF904398EFF0900321E0FF904399EFF0900322E0FF90439AEFF090053FE0FF127BD422905A00E0FF900325EFF0905A02E0FF900326EFF0905A03E0FF39
:40284000900327EFF0905A04E0FF900328EFF0905A06E0FF900329EFF0905A08E0FF90032AEFF0905A0AE0FF90032BEFF0905A10E0FF90032CEFF0905A12E0FF90032DEF10
:40288000F0905A13E0FF90032EEFF0905A14E0FF90032FEFF0905A16E0FF900330EFF0905A18E0FF900331EFF0905A1AE0FF900332EFF0905A20E0FF900333EFF0905A2208
:4028C000E0FF900334EFF0905A23E0FF900335EFF0905A24E0FF900336EFF0905A26E0FF900337EFF0905A28E0FF900338EFF0905A2AE0FF900339EFF0905A30E0FF9003CE
:402900003AEFF0905A32E0FF90033BEFF0905A33E0FF90033CEFF0905A34E0FF90033DEFF0905A36E0FF90033EEFF0905A38E0FF90033FEFF0905A3AE0FF900340EFF090DA
:402940005A00E4F0905A02E4F0905A03E4F0905A04E4F0905A06E4F0905A08E4F0905A0AE4F0905A10E4F0905A12E4F0905A13E4F0905A14E4F0905A16E4F0905A18E4F0A9
:40298000905A1AE4F0905A20E4F0905A22E4F0905A23E4F0905A24E4F0905A26E4F0905A28E4F0905A2AE4F0905A30E4F0905A32E4F0905A33E4F0905A34E4F0905A36E447
:4029C000F0905A38E4F0905A3AE4F09046E8E0FFEF5404FF7E00EF4E603390031D7401F090500BE0FFEF540EFF90031EEFF090500BE0FFEF54F1FFEF440CFF90500BEFF004
:402A00009046E8E0FFEF54FBFFEFF0800590031DE4F0904322E0FFEF5408FF7E00EF4E601290034A7401F0904322E0FFEF54F7FFEFF02290034AE4F0229043A1E0FFEF54D0
:402A40000FFF900309EFF09043A2E0FF90030AEFF09043A1E0FFEF54F0FFEFF09043A2E0FFEF5400FFEFF0904800E0FFEF54C0FF90030EEFF07F2D126A00904200E0FFEF23
:402A80005407FF90030CEFF0904200E0FFEF5440FF90030DEFF0904200E0FFEF5410FF7E00EF4E60089003127401F08005900312E4F07F04123AAC9043A0E0FFEF5410FF3F
:402AC0007E00EF4E600890030F7401F0800A90030FE4F07F0012640B904200E0FFEF5420FF7E00EF4E6021904000E0FFEF5440FF7E00EF4E70047F0280027F01900310EFE8
:402B0000F07F00126CA48005900310E4F0904000E0FFEF5430FF900311EFF0900311E0FFEF600B904000E0FFEF54CFFFEFF0904200E0FFEF5410FF7E00EF4E6003127EA493
:402B4000904004E0FF900313EFF0900313E0FFEF60057F00127D7A904005E0FFEF5403FF90030BEFF090030BE0FFEF60057F001274E0904007E0FF7E00EF7F00FE90031449
:402B8000EEF0A3EFF0900314E0FEA3E0FF904006E0FD7C00EE4CFEEF4DFF900314EEF0A3EFF0900314E0FEA3E0FFEF4E60077F007E00125465904005E0FFEF54F0FF7E002E
:402BC000EEC4F854F0C868FEEFC4540F48FFEF04FFAB07E4FAF9F8904200E0FFEF5407FFEF90859E93FFE4FCFDFE120576126A00904220E0FFEF5401FF7E00EF4E600B900D
:402C000003167401F0127E8C8005900316E4F0904210E0FFEF5401FF7E00EF4E600B9003177401F0127ED48005900317E4F090400BE0FFEF5404FF7E00EF4E60079003188B
:402C40007401F022900318E4F0227F007E007D007C00900373120672900377E4F0A3E4F090037FE4F07F007E007D407C409003801206729003847402F07B007A0079807875
:402C80004190038012065A12021B124CA190037312067290037312065A12036FEFC4F8540FC868FFEEC454F048FE1251FBAA06A9077B0190037012069390037012068A90FE
:402CC000037C1206937F007E007D807C419003731206661201127B007A00794078C012002112036F900377EEF0A3EFF090037FE4F090037FE0FFEFC39403503190037FE0B0
:402D0000FF7E00EF2400FFEE3480FE8F828E83E0FF90037C12068AEF12040990037DE475F00112047090037FE004F080C490037FE0FF7E00900377E0FCA3E0FDC3EF9DEE88
:402D40009C501290037C12068AE412040990037FE004F080D890036DE0FF90037012068AEF12040990036EE0FF90037012068AE92401F9EA3400FAEF12040990036FE0FF3E
:402D800090037012068AE92402F9EA3400FAEF1204099044F4E0FFEF4402FFEFF000C2AF7F00126114900385EFF0D2AF9044F474FDF0900385E0FFEF60099003847403F0A1
:402DC000022E4D90037FE4F090037012068A90037912069390037FE0FCE412033B9003731206661202B86058405690037FE0FFEFC39480504B9044F4E0FFEF4402FFEFF048
:402E000000C2AF90037912068A90037FE0FD1249AE900385EFF0D2AF9044F474FDF0900385E0FFEF60089003847403F0801F90037AE475F01012047090037FE004F0809489
:402E400090037012068AAE02AF011241C6900384E0FF229003B1EFF09003B2ECF0A3EDF09003B4EAF0A3EBF09003B7E0FFEFD3940050030230529003B7E0FFEFD3940140A3
:402E8000030230529003B1E0FFEF1206A82EA0012EA0042ECD072EF8082F230A00002F4E9003B6E0FFEFD3940F40117B0C7A017918127F409003B8EFF0022F537B0C7A011D
:402EC000791C127F409003B8EFF0022F539003B6E0FFEFD3940F40107B0C7A017919127F409003B8EFF0806B7B0C7A01791D127F409003B8EFF0805B9003B6E0FFEFD3947B
:402F00000F40107B0C7A01791A127F409003B8EFF080407B0C7A01791E127F409003B8EFF080309003B6E0FFEFD3940F40107B0C7A01791B127F409003B8EFF080157B0C14
:402F40007A01791F127F409003B8EFF080059003B8E4F09003B8E0FFEF3395E0FEFDFC7B207A00790078001204EBA804A905AA06AB079003B2E0FEA3E0FFE4FCFD1204D0BC
:402F80009003B91206729003B912065AAB07AA06A905A804A804A905AA06AB079003B4E0FEA3E0FFE4FCFD1204EB9003BF1206727B007A80790078009003BF12065A120563
:402FC000769003BDEEF0A3EFF09003B6E0FFEFC3940E50479003BDE0FEA3E0FF9003B6E0FDC3740E9DFDEFA805088005CEC313CE13D8F9FF9003BDEEF0A3EFF09003B6E08C
:40300000FFEF04FF9003B7E0FEEE75F003A424FBF582E43403F583EFF080169003B7E0FFEF75F003A424FBF582E43403F583740FF09003BDE0FEA3E0FF9003B7E0FDED75E6
:40304000F003A424F9F582E43403F583EEF0A3EFF0227F00127CCC229006177401F0900618E4F0900618E0FFEFC394804003023246900618E0FF7E00EF2480FFEE3460FE54
:403080008F828E83740CF0900617E0FFEF75F00BA4244CF582E43402F583E0FFEF604F900617E0FFEF75F00BA4244BF582E43402F583E0FFEF5480FF7E00EF4E6018900688
:4030C00018E0FF7E00EF240EFFEE3460FE8F828E83740CF0802E900618E0FF7E00EF240EFFEE3460FE8F828E837408F08016900618E0FF7E00EF240EFFEE3460FE8F828E62
:40310000837480F0900617E0FFEF75F00BA4244FF582E43402F583E0FEA3E0FFEEFF7E00900618E0FEEEFD7C00ED240CFDEC3460FC8D828C83EFF0900617E0FFEF75F00BE1
:40314000A4244FF582E43402F583E0FEA3E0FFEF54FFFF900618E0FEEEFD7C00ED240DFDEC3460FC8D828C83EFF0900617E0FFEF75F00BA4244DF582E43402F583E0FEA37D
:40318000E0FFEF54FFFF900618E0FEEEFD7C00ED2486FDEC3460FC8D828C83EFF0900617E0FFEF75F00BA4244DF582E43402F583E0FEA3E0FFEEFF7E00900618E0FEEEFDA4
:4031C0007C00ED2487FDEC3460FC8D828C83EFF0900617E0FFEF75F00BA4244DF582E43402F583E0FEA3E0FFEF54FFFF900618E0FEEEFD7C00ED2484FDEC3460FC8D828CFF
:4032000083EFF0900617E0FFEF75F00BA4244DF582E43402F583E0FEA3E0FFEEFF7E00900618E0FEEEFD7C00ED2485FDEC3460FC8D828C83EFF0900617E004F0900618E04A
:403240002410F002306390600A74FFF0227B007A4679E8127F40EF4405FD7B007A4679E8127F4C750A00E50AC39407503AAF0AEF75F005A42453F582E43485F583AF82AE0D
:40328000838E088F09AE08AF098F828E8312069CAE08AF098F828E83740393FC740493FD127BA3050A80BF7B087A0079001276E9905883740AF07B017A507903127F40EFBB
:4032C0004402FD7B017A507903127F4C7B017A507913127F40EF4402FD7B017A507913127F4C9043A0E0FFEF4440FF9043A0EFF09043C2E0FFEF4410FF9043C2EFF07B08A5
:403300007A027914C003C002C0017B007A5179029004B0120693D001D002D0037F087E0012753B7B087A02791CC003C002C0017B007A5179C09004B0120693D001D002D096
:40334000037F0A7E0012753B7B087A027928C003C002C0017B007A5179F09004B0120693D001D002D0037F0A7E0012753B7B087A027934C003C002C0017B007A517930904D
:4033800004B0120693D001D002D0037F0A7E0012753B7B087A027940C003C002C0017B007A5179629004B0120693D001D002D0037F087E0012753B9044F47401F090432202
:4033C000E0FFEF4408FF904322EFF09046ECE0FFEFC394055006904689743AF090480074F1F012430590480074B1F01274317B007A4379A0C003C002C0017B007A4379B07E
:403400009004B0120693D001D002D0037F0E7E0012753B9043B0E0FFEF54FDFFEFF022900447EFF0900448120693900447E0FFEFD3940050030235EB900447E0FFEFC394F2
:403440000940030235EB900447E0FF7E00EF24FFFFEE34FFFEEFC4F8540FC868FFEEC454F048FE90044DEFF090044DE0FF7E00EF2488FFEE3460FE90044EEEF0A3EFF09013
:403480000447E0FFEF75F00BA4244DF582E43402F583E0FEA3E0FFC3E49FFF74029EFE90044BE0FCA3E0FDD3ED9FEC9E4028900447E0FFEF75F00BA4244DF582E43402F56E
:4034C00083E0FEA3E0FFC3E49FFF74029EFE90044BEEF0A3EFF090044BE0FEA3E0FFEEFF7E00900447E0FEEE75F00BA4244AF582E43402F583E0FEEF4EFF90044DE0FEEEB0
:40350000FD7C00ED240CFDEC3460FC8D828C83EFF090044BE0FEA3E0FFEF54FFFF90044DE0FEEEFD7C00ED240DFDEC3460FC8D828C83EFF07B007A007900C003C002C00191
:4035400090044812068AD082D083D0E06B7008E965827003EA65836051900450E4F0A3E4F090044BE0FEA3E0FF900450E0FCA3E0FDC3ED9FEC9E503290044812068A9004B4
:4035800050E0FEA3E0FFE92FF9EA3EFA1203F0FF90044EE0FCA3E0FD8D828C83EFF0900450E475F00112047080B7900447E0FFEF75F00BA42448F582E43402F583E4F09068
:4035C0000447E0FFEF75F00BA4244CF582E43402F583E0FF90044DE0FEEEFD7C00ED240EFDEC3460FC8D828C83EFF0227BFF7A80793A900301120693900304E4F0A3E4F021
:40360000900306E4F09003077402F090030112068AC003C002C0019003DA12068AD082D083D0E06B7008E965827003EA658370479002C174A0F09003067401F0900306E0C0
:40364000FFEFC39440501A900306E0FF74C12FF582E43402F5837440F0900306E004F080DB7B017A0279C11274A7126651EFB403069003077403F09003DA12068AC003C0A3
:4036800002C00190030112068AC3D082D083D0E0E99582EA9583400302373C900306E0FFEFC3944050729003DA12068AC003C002C00190030112068AC3D082D083D0E0E9F3
:4036C0009582EA9583503790030112068A1203F0FF900306E0FE74C12EF582E43402F583EFF0900306E004F0900302E475F001120470900304E475F001120470809D900345
:4037000006E0FF74C12FF582E43402F5837440F0900306E004F080837B017A0279C11274A7900306E4F0126651EF640360030236779003077403F08043023677900304E438
:4037400075F0041204709002C17480F09002C2E4F0900304E0FEA3E0FFEEFF7E009002C3EFF0900304E0FEA3E0FFEF54FFFF9002C4EFF07B017A0279C11274A7900307E01F
:40378000FF229004C8EEF0A3EFF09004CAEDF0127F8D9004CCEFF0127F839004CDEEF0A3EFF09004CDE0FEA3E0FF9004C8E0FCA3E0FDED6F7002EC6E70030239169043A2E5
:4037C000E0FFEF5401FF9004CBEFF09004CCE0FFEF705E9004CDE0FEA3E0FFEF4E600C9004C8E0FEA3E0FFEF4E70469004CDE0FEA3E0FFEF4E701D7B027A4079809004C83D
:40380000E0FCA3E0FD127E59904082E0FFEF54BFFFEFF022904082E0FFEF4440FFEFF07B027A4079809004C8E0FCA3E0FD127E59229004CBE0FFEF606C904001E4F090402D
:40384000107401F0904014E4F0904008E0FFEF547FFFEFF0904082E0FFEF5408FF7E00EF4E600C9004C8E0FEA3E0FFEF4E70367B027A4079029004CDE0FCA3E0FD127E592B
:403880009040017407F0904001E0FFEF5401FF7E00EF4E70F19043A2E0FFEF54FEFFEFF0904001E4F09043A2E0FFEF5401FF7E00EF4E603A7B027A4079029004C8E0FCA32C
:4038C000E0FD127E599004CAE0FFEF60047F0280027F00EF4401FF904001EFF0904001E0FFEF5401FF7E00EF4E602B80EF227B027A4079809004C8E0FCA3E0FD127E5990E2
:4039000043A2C083C082E0FF9004CBE0FEEF4EFFD082D083EFF0229004CFEEF0A3EFF09004D1EDF0127FA19004D3EFF0127F979004D4EEF0A3EFF09004D4E0FEA3E0FF905A
:4039400004CFE0FCA3E0FDED6F7002EC6E7003023AAB9043A1E0FFEF5401FF9004D2EFF09004D3E0FFEF705E9004D4E0FEA3E0FFEF4E600C9004CFE0FEA3E0FFEF4E704691
:403980009004D4E0FEA3E0FFEF4E701D7B027A4179009004CFE0FCA3E0FD127E59904102E0FFEF54BFFFEFF022904102E0FFEF4440FFEFF07B027A4179009004CFE0FCA3D2
:4039C000E0FD127E59229004D2E0FFEF606C904001E4F09040147401F0904010E4F0904008E0FFEF547FFFEFF0904102E0FFEF5408FF7E00EF4E600C9004CFE0FEA3E0FF00
:403A0000EF4E70367B027A4079029004D4E0FCA3E0FD127E599040017407F0904001E0FFEF5401FF7E00EF4E70F19043A1E0FFEF54FEFFEFF0904001E4F09043A1E0FFEFA0
:403A40005401FF7E00EF4E603A7B027A4079029004CFE0FCA3E0FD127E599004D1E0FFEF60047F0280027F00EF4401FF904001EFF0904001E0FFEF5401FF7E00EF4E602B0E
:403A800080EF227B027A4179009004CFE0FCA3E0FD127E599043A1C083C082E0FF9004D2E0FEEF4EFFD082D083EFF02290057EEFF0904200E0FFEF5407FF90057FEFF090AF
:403AC000057EE0FFEFB408047F03800590057EE0FF900580EFF090057FE0FFEF1206A83AF5003AFD013B05023B0D033B14043B1C0500003B2490057F7402F0802C90057FEA
:403B00007401F0802490057F7403F0801C90057FE4F0801590057F7404F0800D90057F7405F080057F00127CCC90057FE0FF900580E0FEEEC39F400890057EE0FF1256BF6D
:403B400090057EE0FFEF1206A83B62003B7B013B93023BA0033BB8043BD0053BE80800003BFC904200E0FFEF54F8FFEF4403FFEF54BFFF904200EFF0023C01904200E0FF77
:403B8000EF54F8FFEF4401FFEF54BFFF904200EFF0806E904200E0FFEF54B8FFEFF08061904200E0FFEF54F8FFEF4402FFEF54BFFF904200EFF08049904200E0FFEF54F807
:403BC000FFEF4404FFEF54BFFF904200EFF08031904200E0FFEF54F8FFEF4405FFEF54BFFF904200EFF08019904200E0FFEF54F8FFEF4442FF904200EFF080057F00127C1E
:403C0000CC90057EE0FFEFB40805127E988003127EA490057FE0FF900580E0FEEEC39F500890057EE0FF1256BF229005A4E4F0906004E0FFEF547FFF9005A2EFF09005A280
:403C4000E0FF7E00EF24FFFFEE34FFFEEFC4F8540FC868FFEEC454F048FE9005A3EFF09005A2E0FFEFD394005003023D989005A2E0FFEFC394094003023D989005A2E0FFFC
:403C8000EF75F00BA42449F582E43402F583E0FFEF54FEFFEFF09005A2E0FFEF75F00BA4244AF582E43402F583E4F09005A3E0FF7E00EF240CFFEE3460FE8F828E83E0FFF5
:403CC000EF547FFFEFF09005A2E0FFEF75F00BA42448F582E43402F583E0FFEF54FDFFEFF09005A2E0FFEF75F00BA4244BF582E43402F583E0FFEF5480FF7E00EF4E604903
:403D00009005A2E0FFEF75F00BA42448F582E43402F583E0FFEFB401189005A3E0FF7E00EF240EFFEE3460FE8F828E83740CF0805F9005A3E0FF7E00EF240EFFEE3460FE7F
:403D40008F828E83740DF080479005A2E0FFEF75F00BA42448F582E43402F583E0FFEFB401189005A3E0FF7E00EF240EFFEE3460FE8F828E837408F080169005A3E0FF7ED2
:403D800000EF240EFFEE3460FE8F828E837409F0127B579005A4EFF09005A4E0FF22C0E0C0F0C083C082C085C084C086758600C093759300C0D075D000C000C001C002C0CC
:403DC00003C004C005C006C007906028E0FF900607EFF0900607E0FFEF5410FF7E00EF4E7003023EEC9006087401F0900607E0FFEF5480FF7E00EF4E6031900607E0FFEF17
:403E0000540FFF7E00EF64014E6007900608E4F0804612608B900243E0FFEF5480FF7E00EF4E6034900608E4F0802D900607E0FFEF5440FF7E00EF4E600512792880199086
:403E40000607E0FFEF5420FF7E00EF4E60051276618005900608E4F0900608E0FFEF7003023EEC906028E0FF900607EFF0900607E0FFEF5480FF7E00EF4E7070900246E0E5
:403E8000FF9002BEE0FEEE4FFF900607EFF0900607E0FF906029EFF0906029E0FF900607E0FEEE6F7046900243E0FF900608EFF0906028E0FFEF5480FF900607EFF0900627
:403EC00007E0FFEF7018900243E0FF906028EFF0906028E0FFEF540FFF900608EFF0900243E0FF900608E0FEEEB507BAD007D006D005D004D003D002D001D000D0D0D093C2
:403F0000D086D084D085D082D083D0F0D0E032900412EFF0900413ECF0A3EDF09004151206937B007A007900C003C002C00190052512068AD082D083D0E06B7008E9658247
:403F40007003EA65837003024063900412E0FFEFD3943F400C90041DE4F0A37410F002400D90041D7401F0A37420F0900412E0FF7E007C207D001206F2EF2400FFEE3400FC
:403F8000FEED3408FDEC3400FCC004C005C006C007900413E0FEA3E0FF7C007D201206F2A804A905AA06AB07D007D006D005D0041204D0900419120672900418E4F090043E
:403FC00018E0FFEFC394205044900418E0FFE4FCFDFE9004191206661204D0A907AA06AB05127F4090052512068AE92400F9EA3401FA900418E0FEEEFD7C00E92DF9EA3CD7
:40400000FAEF120409900418E004F080B190041512068AC003C002C00190052512068AA801AC02AD03D001D002D0037E017F001207DB900412E0FFC007900413E0FCA3E019
:40404000FD90052512068A90041DE0FEA3E0FF90046CEEF0A3EFF0D00712455D90041FEFF0800690041F74FFF090041FE0FF22900325E0FF905A00EFF0900326E0FF905A27
:4040800002EFF0900327E0FF905A03EFF0900328E0FF905A04EFF0900329E0FF905A06EFF090032AE0FF905A08EFF090032BE0FF905A0AEFF090032CE0FF905A10EFF09005
:4040C000032DE0FF905A12EFF090032EE0FF905A13EFF090032FE0FF905A14EFF0900330E0FF905A16EFF0900331E0FF905A18EFF0900332E0FF905A1AEFF0900333E0FFAB
:40410000905A20EFF0900334E0FF905A22EFF0900335E0FF905A23EFF0900336E0FF905A24EFF0900337E0FF905A26EFF0900338E0FF905A28EFF0900339E0FF905A2AEFFC
:40414000F090033AE0FF905A30EFF090033BE0FF905A32EFF090033CE0FF905A33EFF090033DE0FF905A34EFF090033EE0FF905A36EFF090033FE0FF905A38EFF090034078
:40418000E0FF905A3AEFF090031DE0FFEFB4012190500BE0FFEF54F1FF90031EE0FEEF4EFF90500BEFF09046E8E0FFEF4404FFEFF090034AE0FFEFB4010B904322E0FFEF57
:4041C0004408FFEFF0229004ABEEF0A3EFF04E70030243049004A5E07002A3E070030243049004ABE0FEA3E024FCFFEE34FFFEA37404F0A374A3F09004ADE0FCA3E0F58256
:404200008C83E0FCA3E0FD9004AFECF0A3EDF04C60209004ABE0FCA3E0FD9004AFE0FAA3E0FBD39DEA9C500A9004ADEAF0A3EBF080C59004AFE07002A3E0604D8F828E835D
:40424000A3A3E0FCA3E0FD9004ACE02DFD9004ABE03CFC9004AFE0FAA3E0FB6D7002EA6C70278B828A83A3A3E0FCA3E02404FDE43C8F828E83A3A38DF01204709004AFE002
:40428000FCA3E0F5828C8380039004AFE0FDA3E08F828E83CDF0A3EDF09004ADE0FCA3E0FDF5828C83A3A3E0FAA3E0FBED2BFDEC3AFCED2404FDE43CFCED6F7002EC6E70B6
:4042C000338F828E83A3A3E0FCA3E02404FDE43CFC9004ADE0FAA3E0FBF5828A83A3A3EC8DF01204708F828E83E0FFA3E08B828A83CF800C9004ADE0FCA3E0F5828C83EE24
:40430000F0A3EFF022904698E0FF900520EFF07B007A4079807D007C00127E579040827450F07B087A027948C003C002C0017B007A4179009004B0120693D001D002D003DA
:404340007F047E0012753B9043007406F090430A74F3F09046987403F09043097484F09043087405F07FA07E867D017C0090052112067290052112065AD3EF9400EE9400CF
:404380004033904308E0FFEF5420FF7E00EF4E70247FE07E017D007C0012750090052112065A7BFF7AFF79FF78FF1204D090052112067280BE900520E0FF904698EFF090E2
:4043C00042007452F07B0C7A01790F127F409046A1EFF07B007A4079047D007C00127E579040047407F0904006E4F09040087448F0904004E4F0904009E4F0904001740279
:40440000F090400B7404F09043A2E0FFEF4401FF9043A2EFF09043A1E0FFEF4401FF9043A1EFF09043A0E0FFEF4480FF9043A0EFF02290042EEFF090042F12069390042E4C
:40444000E0FFEFD39400500302454C90042EE0FFEFC39409400302454C7B007A007900C003C002C00190042F12068AD082D083D0E06B7008E965827003EA6583700302453B
:404480004C90042EE0FF7E00EF24FFFFEE34FFFEEFC4F8540FC868FFEEC454F048FE900434EFF0900434E0FF7E00EF2488FFEE3460FE900435EEF0A3EFF090042EE0FF1226
:4044C000590C900439EEF0A3EFF0900439E0FEA3E0FF900432E0FCA3E0FDD3ED9FEC9E4010900439E0FEA3E0FF900432EEF0A3EFF0900437E4F0A3E4F0900432E0FEA3E012
:40450000FF900437E0FCA3E0FDC3ED9FEC9E5032900435E0FEA3E0FF8F828E83E0FF90042F12068A900437E0FCA3E0FDE92DF9EA3CFAEF120409900437E475F0011204706C
:4045400080B790042EE0FF12629A8008900432E4F0A3E4F0900432E0FEA3E0FF22900466EFF0900467ECF0A3EDF0900469120693127632EF6003024670900466E0FF90046B
:404580006912068A90046CE0FCA3E0FD90047CECF0A3EDF0125A6F90046EEFF090046EE0FFEF6407600302466B904722E0FFEF5402FF7E00EF4E70097F017E001276BC8009
:4045C000E8904722E0FFEF5402FF7E00EF4E600D904722E0FFEF1313543FFF80027FFFEF700790046EE4F0800690046E74FFF090046EE0FFEF7074900466E0FF900467E081
:40460000FCA3E0FD900528E0FB900529E0FE9004E6EEF0125D9F90046EEFF090046EE0FFEF64077046904722E0FFEF5402FF7E00EF4E70097F017E001276BC80E89047229F
:40464000E0FFEF5402FF7E00EF4E600D904722E0FFEF1313543FFF80027FFFEF700790046EE4F0800690046E74FFF0127CB6800690046E7404F090046EE0FF229003F0741B
:404680000CF01280069003F11206939003E47420F0A3E4F07F007E001276039003E8EFF07F017E001276039003E9EFF07F027E001276039003EAEFF09003F112068A1203DE
:4046C000F0FF9003EBEFF09003F112068AE92401F9EA3400FA1203F0FF9003ECEFF09003F112068AE92402F9EA3400FA1203F0FF9003EDEFF09003F112068AE92404F9EA04
:404700003400FA1203F0FF9003EEEFF09003F112068AE92407F9EA3400FA1203F0FF9003EFEFF09003F112068AE92408F9EA3400FA120486FFAEF09003E6EEF0A3EFF07B5E
:40474000017A0379E4C003C002C0019003DA12068A9000031206939003F0E0FF7E00900006EEF0A3EFF0D001D002D0031223569003F0E0FF7E009003DBEE8FF012047012A1
:404780007D331280299003DD7401F09003D8E4F022127D0B900632EFF09043A5E0FFEF4401FFEFF09043B5E0FFEF4401FFEFF090609D7401F09060097402F0906010E0FF05
:4047C000EF547FFFEFF07F007E001276BC904394E0FFEF54F9FFEFF0906012E0FFEF54DFFFEFF0904394E0FFEF4401FFEFF07F017E001276BC7F287E001276BC9051F8E0DB
:40480000FFEF547FFFEFF09051F8E0FFEF54BFFFEFF0904394E0FFEF4402FFEFF07F027E001276BC904394E0FFEF4404FFEFF0906084E4F0906085E4F0900632E0FF127B85
:40484000D47C6F7D5A7F171261987D067F17126B2D7C807D317F151261987D067F15126B2D7C3D7D9E7F181261987D067F18126B2D7C687D657F011261987D067F01126B29
:404880002D7C687DCC7F021261987D067F02126B2D7C697D337F031261987D067F03126B2D22908039E493FFEF600312756F128021127CE1126C49127CF6127AEA127ACD2E
:4048C000126EB61278B37F0012776CD2AF9044F474FDF0127D20127D469003D7E0FFEF601B7F0212704A1270987F197E007D007C0012699A127D6A9003D7E4F09003E1E0DA
:40490000FFEF60197F0412704A127BEC12467C7F197E007D007C0012699A127D6A9003E3E0FFEF60197F0112704A127BEC127E747F197E007D007C0012699A127D6A900321
:40494000D9E0FFEF6017127E397F0612704A127E2A124D90127FB2127E80127D6A9003D5E0FFEF60081273749003D5E4F09003D4E0FFEF601B127E397F0512704A7F647E0D
:40498000007D007C0012699A127D6A9003D4E4F0127FFF122A397D407C087F0012260012204E127FF80248D9E47E007F0022900516120693900519EDF01278DA900519E0B6
:4049C000FFEFC394804003024AAC127632EF6003024AA490051A74FFF090051612068A90047CE4F0A37410F07F40125A6FEF64076003024A9F904722E0FFEF5402FF7E0085
:404A0000EF4E60F1904722E0FFEF5402FF7E00EF4E600D904722E0FFEF1313543FFF80027FFFEF700590051AE4F090051AE0FFEF7067900519E0FFEFFD7C00900528E0FB5D
:404A4000900529E0FF9004E6EFF07F40125D9FEF6407703D90051A74FFF0904722E0FFEF5402FF7E00EF4E60F1904722E0FFEF5402FF7E00EF4E600D904722E0FFEF131301
:404A8000543FFF80027FFFEF701590051AE4F0800E90051A74FFF0800690051A74FFF0127CB6800E90051A7404F0800690051A7401F090051AE0FF229005A1E4F090600404
:404AC000E0FFEF547FFF90059FEFF090059FE0FF7E00EF24FFFFEE34FFFEEFC4F8540FC868FFEEC454F048FE9005A0EFF090059FE0FFEFD394005003024BA990059FE0FFF0
:404B0000EFC394094003024BA990059FE0FFEF75F00BA42449F582E43402F583E0FFEF4401FFEFF090059FE0FFEF75F00BA4244AF582E43402F583E4F090059FE0FFEF7598
:404B4000F00BA42448F582E43402F583E0FFEF4402FFEFF090059FE0FFEF75F00BA4244BF582E43402F583E0FFEF5480FF7E00EF4E60189005A0E0FF7E00EF240EFFEE34F9
:404B800060FE8F828E83748DF080169005A0E0FF7E00EF240EFFEE3460FE8F828E837489F0127B579005A1EFF09005A1E0FF229004E81206939004ECE4F07B007A00790094
:404BC000C003C002C0019004E812068AD082D083D0E06B7008E965827003EA65837003024CA09004E812068A74221204099004E812068AE92401F9EA3400FA7403120409FD
:404C00009004EB7402F09004EBE0FFEFC394224003024CA09004ECE0FFE4FCFDFEEF2400FFEE3401FEED340CFDEC3400FCA907AA06AB05127F409004EDEFF09004ECE00440
:404C4000F09004EDE0FFEFC4540FFFEF90858E93FF9004E812068A9004EBE0FEE92EF9E43AFAEF1204099004EDE0FFEF540FFFEF90858E93FF9004EBE0FEEEFD7C00ED2450
:404C800002FDEC3400FC9004E812068AE92DF9EA3CFAEF1204099004EBE02404F0024C06229004AB12067274FFFFFEFDFC9004ABE0F8A3E0F9A3E0FAA3E0FBC31206236073
:404CC000387F807E967D187C4B9004ABE0F8A3E0F9A3E0FAA3E0FB1202B86002501B7F807E967D187CCB9004ABE0F8A3E0F9A3E0FAA3E0FB1202B8500F9004ABE0FCA3E0A0
:404D0000FDA3E0FEA3E0FF229004ABE0FCA3E0FDA3E0FEA3E0FF12036F9004AF1206729004AFE0FCA3E0FDA3E0FEA3E0FFEC120331C8ECC8C9EDC9CAEECACBEFCB9004AB4D
:404D4000E0FCA3E0FDA3E0FEA3E0FF12001DE4FBFAF9F81202B850259004AFE0FCA3E0FDA3E0FEA3E0FFE4FAF9F8EF2401FFEA3EFEE93DFDE83CFC9004AF1206729004AF9D
:404D8000E0FCA3E0FDA3E0FEA3E0FFEC120331229005A5E4F09005A6E4F07D017F001277E812800DEF7006127EECEF70F4127E66127EECEF7003024E77127C5EEF60F17BA0
:404DC000017A0579A67D0112656A9005A5EFF09005A6E0FFEF60D99005A5E0FFEF64026003024E6F9005A6E0FFEF1206A84E03014E0A024E1C034E21044E59054E3D060038
:404E0000004E647F0112794E80A61235ECEF6005126DB5809B7F0312794E80941272EC808F7F0212794E125D01EFB402087F0212794E024DB07F0312794E024DB07F0212C0
:404E4000794E1255F9EFB402087F0212794E024DB07F0312794E024DB01275A27F0212794E024DB07F0312794E024DB0024DB07F0312794E024DB0127FAB22759300780098
:404E80007583467582E8E04401F0009046ECE0F99046FAE0FAB903225420B40012B8001AEA901FFFF07401901FFEF09046F6F0901FFEE06005901FFFE0FA90480074C0F0C5
:404EC00075810C90000078007920E4F0A3D8FCD9FAEA90040DF0020011750B1F750CFD12324D024F200248A2E493A3F8E493A34003F68001F208DFF48029E493A3F854078F
:404F0000240CC8C333C4540F4420C8834004F456800146F6DFE4800B0102040810204080905785E47E019360BCA3FF543F30E509541FFEE493A360010ECF54C025E060A85A
:404F400040B8E493A3FAE493A3F8E493A3C8C582C8CAC583CAF0A3C8C582C8CAC583CADFE9DEE780BE900640EFF09003FAE4F0900640E0FFEF64016003025048904E0074C7
:404F800030F0904E027406F0904E037408F0904E04E4F0904E05E4F0904E06741FF0904E08E4F0904E09E4F0904E0AE4F0904E147401F09058847414F09058857405F09094
:404FC00058867416F0905887E4F090588A7444F090588B7448F090588C7401F090588E7401F090588F7411F09058907419F09058917497F07F52126E639058947458F09058
:405000005895E4F090589A7405F090589B7402F090589CE4F090589DE4F07F00127B077F337E037D007C009004001206727D017F267E001237827D017F9F7E001239177C69
:40504000807D327F1D12619822127D0B90063FEFF0904E00E0FFEF54FEFFEFF0904E01E0FFEF4404FFEFF09046F8E0FFEF4402FFEFF09046F9E0FFEF4402FFEFF090589141
:40508000E0FFEF54FCFFEFF0905892E0FFEF54F7FFEFF07F037E001276BC9046F8E0FFEF54FDFFEFF09046F9E0FFEF54FDFFEFF09043AAE0FFEF54EFFFEFF09043AAE0FFE0
:4050C000EF54FEFFEFF09043BAE0FFEF54FEFFEFF09043BAE0FFEF54EFFFEFF0905877E0FFEF54F9FFEFF09043A1E0FFEF54FEFFEFF09043B1E0FFEF54FEFFEFF0905882D4
:40510000E0FFEF54F7FFEFF09043A2E0FFEF54FEFFEFF09043B2E0FFEF54FEFFEFF090063FE0FF127BD4229004BAEFF09004BBE4F09004BAE0FF9004BCEFF0904210E0FFDE
:40514000EF4401FFEFF09004BAE0FFEFD3940050030251F5904300E0FF9004BEEFF0904380E0FF9004BFEFF0904382E0FF9004C0EFF07F181264F59004BB7410F09004BC3C
:40518000E0FFEFD394004047904210E0FF9004BD7404F09004BDE0FFEFD3940040137F011271337E00EF30E0F59004BDE014F080E2904210E0FFEF5480FF7E00EF4E7007EC
:4051C0009004BBE4F080089004BCE014F080AE9004BEE0FFEF5404FF7E00EF4E7003127EC89004BFE0FF904380EFF09004C0E0FF904382EFF09004BBE0FF229004ABEEF06D
:40520000A3EFF0A37404F0A374A3F09004ADE0FEA3E0F5828E83E0FEA3E0FF4E7003FEFF228F828E83A3A3E0FCA3E0FD9004ABE0FAA3E0FBC3ED9BEC9A500A9004ADEEF028
:40524000A3EFF080C68F828E83A3A3E0FCA3E0C39BFDEC9AFC9004AFF0A3EDF0C39410EC940050178F828E83E0FCA3E0FD9004ADE0FAA3E0F5828A83EC80459004B0E02428
:40528000FCF09004AFE034FFF0E0FDA3E08F828E83A3A3CDF0A3EDF0EF2404FFE43EFE9004B0E02FFF9004AFE03EFE9004ADF0A3EFF09004ABE0FDA3E08F828E83A3A3CD49
:4052C000F0A3EDF0EF2404FFE43EFE22127D0B9005DAEFF09003F4E0FF9005D9EFF09043AAE0FFEF4401FFEFF09043AAE0FFEF4410FFEFF09043BAE0FFEF4401FFEFF09052
:4053000043BAE0FFEF4410FFEFF09046F8E0FFEF4402FFEFF09046F9E0FFEF4402FFEFF0905891E0FFEF4403FFEFF07F037E001276BC9046F8E0FFEF54FDFFEFF09046F9A5
:40534000E0FFEF54FDFFEFF0905877E0FFEF4406FFEFF0905882747AF09043A1E0FFEF4401FFEFF09043B1E0FFEF4401FFEFF09043A2E0FFEF4401FFEFF09043B2E0FFEF00
:405380004401FFEFF09044DB7420F09044C37420F09005DAE0FF127BD422900672E4F09002B5E0FF7E00900244EE8FF01204709002ACE0FEA3E0FFD3EF9400EE9400405359
:4053C000900672E0FFEFC3940850489002AE12068A1203F0FF900672E0FEEEFD7C00ED2400FDEC3460FC8D828C83EFF09002AE12068AE92401F9EA3400FA9002AE1206933A
:40540000900672E004F09002AC74FF75F0FF120470809C9002B5E0FFEF6408600B900672E0FFEFD39400401C9002BEE0FFEF6480FF9002BEEFF0900243740FF09002BF7417
:4054400002F0800C9002437402F09002BF7402F0900672E0FF9002B5EFF0900672E0FF900246EFF0229004D6EEF0A3EFF0127D0B9004DBEFF0904007E0FF7E00EF7F00FE9D
:405480009004D9EEF0A3EFF09004D9E0FEA3E0FF904006E0FD7C00EE4CFEEF4DFF9004D9EEF0A3EFF09004D6E0FEA3E0FFEF4E600C9004D9E0FEA3E0FFEF4E705E904004C4
:4054C000E0FF9004D8EFF09004D8E0FFEFC3940750057F07127D7A9004D6E0FEA3E0FFEF4E7018904008E0FFEF4440FFEFF09004D6E0FEA3E0FF126F0980169004D6E0FE3D
:40550000A3E0FF126F09904008E0FFEF54BFFFEFF09004D8E0FF127D7A800B9004D6E0FEA3E0FF126F099004DBE0FF127BD4229003F47401F09003FFE4F07F101279D77F02
:40554000101279F87D077F1D126B2D9058967407F0905897E4F090589EE4F0905B07E0FFEF4418FFEFF0905893E4F0905B88E4F0905B89E4F0905880740AF0905881E4F04D
:40558000905883E4F09058887412F09058897413F090588DE4F0904E017414F09003B6740CF09003B77401F07B007A807D6B7C8D7F02122E539003F4E0FFEF75F003A424D7
:4055C000FBF582E43403F583E0FF904E0EEFF09003F4E0FFEF75F003A424F9F582E43403F583E0FCA3E0FD7B027A4E790C127E599003F4E0FF124F652290039F7403F07B03
:40560000FF7A8579AFC003C002C0017B017A0379A0A801AC02AD03D001D002D0037E007F071207DB127C5EEF7006127EECEF70F4127EECEF70030256B97B017A0379A07DD9
:405640000712656AEF640270709003A0E0FF7E00EF7F00FE9003AFEEF0A3EFF09003A1E0FF7E009003AFE0FCA3E0FDEE4CFEEF4DFF9003AFEEF0A3EFF09003A2E0FF900384
:40568000A7EFF09003A3E0FF9003A8EFF09003A4E0FF9003A9EFF09003A5E0FF9003ABEFF09003A6E0FF9003AEEFF07B017A0379A7127BBC90039FEFF090039FE0FF229062
:4056C00005ADEFF0126FFB9005AEEFF09005AEE0FFEFB4010B906009E0FFEF54FDFFEFF09005ADE0FFEF1206A8570200571101572002572F03573E04574D05575C08000023
:40570000577F7B0C7A017908127F409046A1EFF0227B0C7A017909127F409046A1EFF0227B0C7A01790A127F409046A1EFF0227B0C7A01790B127F409046A1EFF0227B0CD6
:405740007A017989127F409046A1EFF0227B0C7A01790C127F409046A1EFF0227B0C7A01790F127F409046A1EFF09005AEE0FFEFB40111906009E0FFEF4402FFEFF0227F7F
:4057800000127CCC224303DAFF803A4103DF004103D9004103E1004103E3004103D7004103D5004103D4004103DE004103DD004103D8004103D6004103E2004103E00041B8
:4057C000061F00440409016E360044040400005DC04104081844040E2EE0000041063A004103FF004103FA004103F5004103FB004103F4014205E90030410392004A039492
:405800000000000101000101076C4A03860000000101000101076C41039E0041039100410393004103900041065F00410665FF43052500000041067000410677FF004804C7
:40584000A3000000000000000090063BE4F0906000E0FFEF5480FF7E00EF64804E7033906001E0FFEF1206A8586F21000059069002ACE4F0A37407F07B017A04793B9002E7
:40588000AE1206931266BF90063BEFF0807880768074906000E0FFEF5480FF7E00EF4E7065906001E0FFEF1206A858B42058E122000059069002ACE4F0A37407F07B017A2A
:4058C00004793B9002AE120693900444E0FFEF4401FF900444EFF0126B8C90063BEFF08025906002E0FF7E00900445EEF0A3EFF0900444E0FFEF4402FF900444EFF0127B4F
:405900005790063BEFF090063BE0FF22900540EFF0900542E4F0A3E4F0900540E0FFEFD3940050030259B8900540E0FFEFC3940940030259B8900540E0FF7E00EF24FFFFAC
:40594000EE34FFFEEFC4F8540FC868FFEEC454F048FE900541EFF0900541E0FF7E00EF240CFFEE3460FE8F828E83E0FFEF540FFF7E00900542EEF0A3EFF0900541E0FF7ECF
:4059800000EF240DFFEE3460FE8F828E83E0FFEFFD7C00900542E0FEA3E0FFEF7F00FEEE4CFEEF4DFF900542EEF0A3EFF090054274FF75F0FE120470900542E0FEA3E0FF28
:4059C0002290060EE4F0906029E0FFEF540FFFEF24FEFF90060DEFF090060DE0FF7E00900244EE8FF01204709002ACE0FEA3E0FFD3EF9400EE9400405790060DE0FFEFD318
:405A00009400404C90060EE0FF7E00EF2400FFEE3460FE8F828E83E0FF9002AE12068AEF1204099002AE12068AE92401F9EA3400FA9002AE12069390060EE004F090060DBB
:405A4000E014F09002AC74FF75F0FF120470809890060DE0FF900246EFF09002BEE0FFEF6480FF9002BEEFF0900243740BF022900478EFF090047912069390047E7407F0A0
:405A8000904722E0FFEF5402FF7E00EF4E607D90472074B6F090472074D5F09047207402F0904722E0FFEF5402FF7E00EF4E7054900478E0FF904720EFF090047FE4F0A3AE
:405AC000E4F090047CE0FEA3E0FF90047FE0FCA3E0FDC3ED9FEC9E503990047912068A90047FE0FEA3E0FFE92FF9EA3EFA1203F0FF904720EFF090047FE475F0011204707F
:405B000080C0800E90047E7409F0800690047E7404F090047EE0FF229004EEEFF09004EFE4F0904220E0FFEF4401FFEFF09004EEE0FFEF7003025BB6904300E0FFEF54049B
:405B4000FF9004F0EFF0904380E0FF9004F1EFF0904382E0FF9004F2EFF07F181264F59004EF7410F07F011271337E00EF20E027904225E0FFEF5401FF7E00EF4E60E69027
:405B80004225E0FFEF5401FF7E00EF4E60D79004EFE4F0800280CE9004F0E0FFEF7003127EC89004F1E0FF904380EFF09004F2E0FF904382EFF09004EFE0FF2290052F743B
:405BC00001F0906004E0FF900530EFF0900242E0FFEF14FF126D5A900531EEF0A3EFF0900531E0FEA3E0FF8F828E83A312069CE92404F9EA3400FA1203F0FF900533EFF01D
:405C0000900533E0FF900530E0FEEEC39F500B900530E0FFEFC39402400790052FE4F08038900530E0FF74AA2FF582E43402F583E0FF900530E0FE74B92EF582E43402F58F
:405C400083EFF0906002E0FF900530E0FE74AA2EF582E43402F583EFF090052FE0FF22900558EFF0900559EDF090055AEAF0A3EBF0900559E0FFEFC39403500B90055A74A3
:405C8000FF75F0FF12047090055AE0FEA3E0FF7C007D6412041BAC06AD0790055AE0FEA3E0FFEF7802CEC313CE13D8F9FFC3EF9DFBEE9CFA90055AE0FEA3E0FF7C017D9004
:405CC00012041BEF2BFFEE3AFE90055AE0FCA3E0FDEF2DFFEE3CFE900559E0FDED90858193FD7C00900558E0FB7A00ED2BFDEC3AFCEF2DFFEE3CFE7C007D0712041BAF05AB
:405D0000229004B37403F07BFF7A8579ACC003C002C0017B017A0479B4A801AC02AD03D001D002D0037E007F031207DB127C5EEF7006127EECEF70F4127EECEF605B7B0155
:405D40007A0479B47D0312656AEF6402704B9004B4E0FF9004B7EFF09004B5E0FF9004B8EFF09004B6E0FF9004B9EFF07B017A0479B7C003C002C0017B017A03796DA80116
:405D8000AC02AD03D001D002D0037E007F031207DB122C4A9004B3EFF09004B3E0FF229004E2EFF09004E3ECF0A3EDF09004E5EBF09004E77407F0904722E0FFEF5402FFA7
:405DC0007E00EF4E606B90472074B6F090472074D8F09047207405F0904722E0FFEF5402FF7E00EF4E70429004E2E0FF904720EFF09004E3E0FEA3E0FFEEFF7E009047208C
:405E0000EFF09004E3E0FEA3E0FFEF54FFFF904720EFF09004E5E0FF904720EFF09004E6E0FF904720EFF0800E9004E77409F080069004E77404F09004E7E0FF229005CD7B
:405E4000EFF09005CEEDF09044C27480F09044C37401F09044C07402F09044C07404F09044C07408F09002BFE4F09005CEE0FFEF1206A85E7D005E850100005E8D906009DE
:405E80007402F0800E9060097403F080069060097403F09005CDE0FF9002C0EFF0900242E4F09002B4E4F09002B8E4F09002BBE4F0900241E4F09002B5E4F09060287403E4
:405EC000F09060087480F07F017E007D007C001275009060127404F022900593120693127FFF90059312068A1203F0FF900394EFF090059312068AE92401F9EA3400FA129A
:405F000003F0FF900395EFF090059312068AE92402F9EA3400FA1203F0FF900396EFF090059312068AE92404F9EA3400FA1203F0FF900398EFF090059312068AE92407F9A1
:405F4000EA3400FA1203F0FF90039BEFF090059312068AE92408F9EA3400FA120486FFAEF090039CEEF0A3EFF0127FF8229005B5EFF0904308E0FFEF5402FF7E00EF4E6053
:405F8000047F0180027F009005B6EFF090430A74F3F09005B5E0FFEF640170339046987401F07F0A7E001276BC904309E0FFEF54F3FFEF4408FF904309EFF07F147E0012B8
:405FC00076BC904308E0FFEF4402FFEFF0802A9046987406F07F0A7E001276BC904309E0FFEF54F3FFEF4404FF904309EFF0904308E0FFEF54FDFFEFF09005B6E0FF229040
:406000000613E4F0900614E4F0906000E0FFEF5403FFEF1206A8602001602C020000604A906004E0FF900614EFF0801E906004E0FFEF547FFFEF75F00BA42451F582E434E4
:4060400002F583E0FF900614EFF0900614E0FF9002B6E0FCA3E0FD8D828C83E5822FF582E43583F583E493FFEF1206A8608501607D0260850300006085800A800812584956
:40608000900613EFF0900613E0FF22906028E0FF900671EFF0900671E0FF906028EFF0906028E0FF900671EFF0900671E0FFEF5480FF7E00EF4E600B900671E0FF9002438E
:4060C000EFF0227F02126ACB906000E0FFEF5460FFEF1206A860E20060EC2060F640000061001213EF900671EFF08019125FFF900671EFF0800F126FAB900671EFF0800503
:40610000900671E4F0900671E0FFEF70069002437403F0229005D7EFF01278DA9005D7E0FFEFC394025065127632EF70579005D7E0FD7F4012672BEF6407703D9005D874E0
:40614000FFF0904722E0FFEF5402FF7E00EF4E60F1904722E0FFEF5402FF7E00EF4E600D904722E0FFEF1313543FFF80027FFFEF700D9005D8E4F080069005D874FFF01230
:406180007CB6800E9005D87404F080069005D87401F09005D8E0FF229004FDEFF09004FEECF0A3EDF09004FDE0FFEFD3941F5003D38001C340057F00127CCC9004FDE0FF49
:4061C000EF541FFF7E00EF25E0FFEE33FEEF2400FFEE3444FEAA06A9077B01127E4A900500EEF0A3EFF09004FDE0FF7E02EF8EF0A4FFAEF0EF2400FFEE3444FEAA06A90719
:406200007B019004FEE0FEA3E0FFAD07AC06127E59900500E0FEA3E0FF22904E14E0FFEF5403FF900592EFF0900592E0FFEFD394015032904E11E0FF7E00900590EEF0A39D
:40624000EFF0900590E0FEA3E0FFEF7F00FE904E10E0FD7C00EE4CFEEF4DFF900590EEF0A3EFF0801F7B027A4E7910127E4A900590EEF0A3EFF0900592E0FFEFB403059002
:406280004E12E0FF9003FAE0FFEF60059003FFE4F0900590E0FEA3E0FF229005CFEFF09005CFE0FFEFD39400406E9005CFE0FFEFC3940950639005CFE0FF7E00EF24FFFF31
:4062C000EE34FFFEEFC4F8540FC868FFEEC454F048FE9005D0EFF09005CFE0FFEF75F00BA42448F582E43402F583E4F09005CFE0FFEF75F00BA4244CF582E43402F583E094
:40630000FF9005D0E0FEEEFD7C00ED240EFDEC3460FC8D828C83EFF02290050712069390050AECF0A3EDF0900442E0FFEF75F00BA4244FF582E43402F583E0FEA3E0FF9097
:40634000050AE0FCA3E0FDD3ED9FEC9E4025900442E0FFEF75F00BA4244FF582E43402F583E0FEA3E0FF90050AEEF0A3EFF07F00127CCC900442E0FF90050712068A900570
:406380000AE0FCA3E0FD90044BECF0A3EDF012341F22900242E0FFEF14FF126D5A90059CEEF0A3EFF090059CE0FEA3E0FF8F828E83A312069CE92404F9EA3400FA1203F065
:4063C000FF90059EEFF090059EE0FF7E00EF2402FFEE3400FEEF7802C333CE33CED8F9FF90059CE0FCA3E0FDEF2DFFEE3CFE90059CEEF0A3EFF090059CE0FEA3E0FF8F82C7
:406400008E83A312069CAE02AF0122900534EFF09043A0E0FFEF4410FFEFF09043B0E0FFEF4410FFEFF0900534E0FFEF6051904300E0FFEF5404FF900537EFF0904380E0B6
:40644000FF900536EFF0904382E0FF900535EFF07F001264F57F011271337E00EF30E0F5900537E0FFEF7003127EC8900536E0FF904380EFF0900535E0FF904382EFF022C4
:4064800090062DEFF0904382E0FFEF54F7FFEFF0127EB0904382E0FFEF5404FF7E00EF4E602F90062DE0FF904381E0FEEE6F6044904382E0FFEF54FBFFEFF090062DE0FF23
:4064C000904381EFF0904382E0FFEF4404FFEFF02290062DE0FF904381E0FEEE6F600A90062DE0FF904381EFF0904382E0FFEF4404FFEFF02290062EEFF0904382E0FFEF5D
:4065000054FDFFEFF0127EBC904382E0FFEF5401FF7E00EF4E602F90062EE0FF904380E0FEEE6F6044904382E0FFEF54FEFFEFF090062EE0FF904380EFF0904382E0FFEFFF
:406540004401FFEFF02290062EE0FF904380E0FEEE6F600A90062EE0FF904380EFF0904382E0FFEF4401FFEFF022900493120693900496EDF0900497E4F0A3E4F090049982
:40658000E4F090049A7403F012746D900497EEF0A3EFF0900496E0FF7E00900497E0FCA3E0FDEFB5051EEEB5041A90049312068A900496E0FFEFFD7C0012768F90049A746B
:4065C00002F08014900497E0FEA3E0FFD3EF9400EE94004003127AB090049AE0FF2290430A74F3F09046987403F0904309E0FFEF54F3FFEF4404FF904309EFF0904308E05F
:40660000FFEF4404FFEFF0904308E0FFEF4401FFEFF09005B37403F0A374E8F09005B3E0FEA3E0FFD3EF9400EE94004023127F797E00EF30E5067F00125F6D227F017E00EA
:406640001276BC9005B374FF75F0FF12047080CC22900572E4F0900573E4F09005747403F0900572E0FFEF7050127EECEF604A12746DEF4E7006127EECEF70F37B017A0583
:4066800079727D0112656A900573EFF0900573E0FFEFB402CC900572E0FFEFB4070A9005747402F0801380B9900572E0FFEFB403B09005747403F080A8900574E0FF22900E
:4066C00002ACE0FEA3E0FFEF4E7005127A1980589002BF7402F09002BEE4F01270E6906007E0FF7E00EF7F00FE906006E0FD7C00EE4CFEEF4DFF900609EEF0A3EFF0900603
:4067000009E0FEA3E0FF9002ACE0FCA3E0FDD3ED9FEC9E4010900609E0FEA3E0FF9002ACEEF0A3EFF012539A7F0122900596EFF0900597EDF09005987407F0904722E0FF5C
:40674000EF5402FF7E00EF4E603F90472074B6F090472074DBF09047207408F0904722E0FFEF5402FF7E00EF4E7016900596E0FF904720EFF0900597E0FF904720EFF08033
:406780000E9005987409F080069005987404F0900598E0FF22906008E0FFEF547FFFEFF0906012E0FFEF54FBFFEFF09043A5E0FFEF54FEFFEFF09043B5E0FFEF54FEFFEF68
:4067C000F09044CA7480F09044CB7401F09044C87402F09044C87404F09044C87408F0900242E4F09002B4E4F09002B8E4F09002BBE4F0900241E4F090063AE4F02212781D
:40680000DA90066B74FFF0127632EF704C7F01126CFFEF6407703D7B017A0579287D02126A66EFB4021F90066BE4F0904722E0FFEF5402FF7E00EF4E701A7F017E00127634
:40684000BC80E8800F904722E0FFEF5402FF7E00EF4E60C3127CB6800690066B7404F090066BE0FF22C0E0C083C082C085C084C086758600C093759300C0D075D000C00651
:40688000C00790600EE0FF900252E0FFEF5403FF7E00EF64014E600E900255E0FFEF6480FF900255EFF09002537401F090600BE0FFEF54FEFFEFF0D007D006D0D0D093D07D
:4068C00086D084D085D082D083D0E032C0E0C083C082C085C084C086758600C093759300C0D075D000C006C00790601EE0FF90025DE0FFEF5403FF7E00EF64014E600E9018
:406900000260E0FFEF6480FF900260EFF090025E7401F090600BE0FFEF54FDFFEFF0D007D006D0D0D093D086D084D085D082D083D0E032C0E0C083C082C085C084C0867587
:406940008600C093759300C0D075D000C006C00790602EE0FF900268E0FFEF5403FF7E00EF64014E600E90026BE0FFEF6480FF90026BEFF09002697401F090600BE0FFEF78
:4069800054FBFFEFF0D007D006D0D0D093D086D084D085D082D083D0E03290FFFC1206CE120672850B83850C8212065AD3EF9400EE9480402F90040E12065A127500850BEF
:4069C00083850C82C083C08212065AEF2400FFEE3480FEED34FFFDEC34FFFCD082D08312067280BF90040412065A850B83850C821206661204EB1275009000041206CE22E0
:406A0000900601EFF0127D0B900602EFF0900601E0FFEFD394165014904800E0FFEF543FFFEF4440FF904800EFF08031900601E0FFEFD3942C5014904800E0FFEF543FFFE3
:406A4000EF4480FF904800EFF08012904800E0FFEF543FFFEF44C0FF904800EFF0900602E0FF127BD42290052A12069390052DEDF090052EE4F090052DE0FF90052EE0FE5E
:406A8000EEC39F5040904722E0FFEF5401FF7E00EF4E6003D38001C340097F017E001276BC80E2904720E0FF90052A12068A90052EE0FEE92EF9E43AFAEF12040990052EE8
:406AC000E004F080B190052EE0FF22900673EFF07B007A007900C003C002C0019002B112068AD082D083D0E06B7008E965827003EA65836037900673E0FF9002B112068A9B
:406B0000EF120409900244E0FEA3E0FF9002B112068AE92401F9EA3400FAEE8FF01204B17B007A0079009002B1120693229005C1EFF09005C2EDF09005C2E0FFEFD394075F
:406B40005003D38001C340057F00127CCC9005C1E0FFEFD3941F5003D38001C340057F00127CCC9005C2E0FFEF5407FF7E00EF75F020A4FFAEF09005C1E0FEEE541FFE74A2
:406B8000802EF582E43444F583EFF0229002BF7404F09002BE7480F01270E6906007E0FF7E00EF7F00FE906006E0FD7C00EE4CFEEF4DFF90060BEEF0A3EFF090060BE0FE84
:406BC000A3E0FF9002ACE0FCA3E0FDD3ED9FEC9E401090060BE0FEA3E0FF9002ACEEF0A3EFF0900243740BF07F0122900560120693900563E4F01278DA7B007A007900C0BD
:406C000003C002C00190056012068AD082D083D0E06B7008E965827003EA658370089005637401F0801D127632EF60089005637404F0800F90056012068A9005251206937C
:406C4000127CB6900563E0FF227F017E001276039003D6EFF07F027E001276039003DEEFF090061F7403F09003D6E0FFEF1206A86C7A026C8A0300006C9890061FE0FFEFB1
:406C80004404FF90061FEFF0800E90061FE0FFEF4408FF90061FEFF090061FE0FF127D8A127FF822900622EFF0900622E0FFEF1206A86CED006CD6016CBF0200006CF99016
:406CC0004000E0FFEF54BFFFEFF0904200E0FFEF4420FFEFF022904000E0FFEF4440FFEFF0904200E0FFEF4420FFEFF022904200E0FFEF54DFFFEFF0227F00127CCC22902F
:406D00000603EFF09006047407F0904722E0FFEF5402FF7E00EF4E603590472074B6F090472074E1F0904720740EF0904722E0FFEF5402FF7E00EF4E700C900603E0FF90E9
:406D40004720EFF0800E9006047409F080069006047404F0900604E0FF22900599EFF09002C0E0FFEF25E025E0240AF582E43485F58312069CAE02AF0190059AEEF0A3EF71
:406D8000F090059AE0FEA3E0FF8F828E83C083C082900599E0FFD082D08375F004EF12067EE5822405F582E5833400F58312069CAE02AF01229005A7E4F09005A8E4F01289
:406DC0007EECEF6049127C5EEF7006127EECEF70F47B017A0579A87D0112656A9005A7EFF09005A7E0FFEFB402D59005A8E0FFEFB4020F7BFF7A80793A9003DA1206932215
:406E000080BD9005A8E0FFEFB403B42280B1229003D6E0FFEF70279003DDE0FFEF601F9003D8E004F09003DEE0FF9003D8E0FEEEB5070B9003D77401F09003D8E4F0900371
:406E4000E0E004F09003E0E0FFEFC3940340139003DFE0FFEF600B9003E0E4F09003D47401F0229005E5EFF0127D0B9005E6EFF09046F8E0FFEF4403FFEFF09046F9E0FFD4
:406E8000EF4403FFEFF09005E5E0FF905892EFF07F037E001276BC9046F8E0FFEF54FCFFEFF09046F9E0FFEF54FCFFEFF09005E6E0FF127BD4229043AAE0FFEF5401FF7E39
:406EC00000EF64014E70399043AAE0FFEF5410FF7E00EF64104E70289005E97401F0904E00E0FFEF5401FF7E00EF4E600E9005E9E0FFEF4402FF9005E9EFF01250498005A8
:406F00009005E9E4F0127F58229005AFEEF0A3EFF0904014E0FFEF54F0FFEFF0904010E4F0904008E0FFEF4480FFEFF09005AFE0FEA3E0FFEF54FFFF904002EFF09005AFA6
:406F4000E0FEA3E0FFEEFF7E00904003EFF0904001E0FFEF4401FFEFF022C0E0C0F0C083C082C085C084C086758600C093759300C0D075D000C000C001C002C003C004C057
:406F800005C006C0071275D3D007D006D005D004D003D002D001D000D0D0D093D086D084D085D082D083D0F0D0E032900680E4F0906000E0FFEF5480FF7E00EF64804E7076
:406FC00034906001E0FFEF1206A86FD10100006FF57BFF7A85791F9002AE12069390851FE493FF7E009002ACEEF0A3EFF01266BF900680EFF0900680E0FF22900621E4F0A9
:40700000904393E0FFEF5407FF7E00EF4E700F9043A5E0FFEF5401FF7E00EF4E7020904393E0FFEF5407FF7E00EF64014E70159043B5E0FFEF5401FF7E00EF4E600690060F
:40704000217401F0900621E0FF2290061EEFF090061EE0FFEF1206A8706E01706E02707703706E04708205708D060000709790061EE0FF127E1A227F02127DFA7F01127EF8
:407080000A227F03127DFA7F01127E0A227F03127DFA7F02127E0A229005A9E4F0A3E4F01279951277429005A9EEF0A3EFF07B017A0579A9C003C002C0019003DA12068A91
:4070C000900003120693900006E4F0A37402F0D001D002D0031223569003DBE475F002120470126EB622900244E4F0A3E4F07B007A007900C003C002C0019002B112068A8D
:40710000D082D083D0E06B7008E965827003EA6583601F9002B112068AE41204099002B112068AE92401F9EA3400FAE475F0001204B122900584EFF0127D0B900585EFF0DA
:40714000900308E0FF904390E0FEEF4EFF900308EFF0900308E0FF900586EFF0900308E0FF900584E0FEEEF4FEEF5EFF900308EFF0900585E0FF127BD4900586E0FF22900D
:4071800003D6E0FFEFB401279003DDE0FFEF601F9003D8E004F09003DEE0FF9003D8E0FEEEB5070B9003D77401F09003D8E4F09003E2E004F09003E2E0FFEFB4010B900315
:4071C000E2E4F09003D57401F022900668EFF0900668E0FFEFC394025039900668E0FFEF25E02447F582E43485F583E493FE740193FF8F828E83C083C082E0FF900668E0B7
:40720000FEEE90854B93FEEEF4FEEF5EFFD082D083EFF02290066AEFF090066AE0FFEFC39402503990066AE0FFEF25E0244DF582E43485F583E493FE740193FF8F828E83A2
