:10000000021CA8008F828E83E0540100000070F86B
:100010002278FFE4F6D8FD021D069000E2EFF09092
:1000200000EAE4F0A3E4F09000E3E4F09000E3E001
:10003000FFEFC3940940030200D99000E3E0FFEF13
:1000400075F00BA42409F582E43400F583E4F09004
:1000500000E3E0FFEF75F00BA4240BF582E434001D
:10006000F583E4F09000E3E0FFEF75F00BA4240AC1
:10007000F582E43400F583E4F09000E3E0FFEF75EF
:10008000F00BA4240CF582E43400F583E4F0900036
:10009000E3E0FFEF75F00BA4240EF582E43400F5E5
:1000A00083E4F09000E3E0FFEF75F00BA42411F57A
:1000B00082E43400F583E4F0A3E4F09000E3E0FF91
:1000C000EF75F00BA42413F582E43400F583E4F01B
:1000D0009000E3E004F002002C9000E2E0FFEF600B
:1000E0003A9000E5E4F09000E5E0FFEFC3940250A1
:1000F0002A9000E5E0FF746C2FF582E43400F5836C
:10010000E4F09000E5E0FF747B2FF582E43400F525
:1001100083E4F09000E5E004F080CB900004E0FF81
:10012000EFD394005003020543900004E0FFEF1466
:10013000FF1229219000ECEEF0A3EFF09000ECE02C
:10014000FEA3E0FF8F828E83A3120FBC9000E71204
:100150000FB39000E7120FAAE92407F9EA3400FA76
:10016000120DBDFFEF5440FF7E00EF4E6010900077
:1001700003E0FFEF4401FF900003EFF0800E9000DA
:1001800003E0FFEF54FEFF900003EFF09000ECE07F
:10019000FEA3E0FFEF2404FFEE3400FE9000ECEE3F
:1001A000F0A3EFF09000ECE0FEA3E0FF8F828E83DF
:1001B000E493FF9000E3EFF09000E57401F090000D
:1001C000E5E0FFEFC3940940030204589000ECE01F
:1001D000FEA3E0FF8F828E83A3120FBCAE02AF019D
:1001E0009000EEEEF0A3EFF09000E4E4F09000E376
:1001F000E0FF9000E4E0FEEEC39F400302044F9056
:1002000000EEE0FEA3E0FF8F828E83740293FFEF87
:10021000547FFF7E009000E5E0FD7C00ED6F7002F2
:10022000EC6E600302042E9000EEE0FEA3E0FF8F70
:10023000828E83740493FE740593FF9000E5E0FDC5
:10024000ED75F00BA42411F582E43400F583E0FC95
:10025000A3E0FDC3ED9FEC9E502C9000EEE0FEA3CA
:10026000E0FF8F828E83740493FE740593FF9000E9
:10027000E5E0FDED75F00BA42411F582E43400F502
:1002800083EEF0A3EFF09000EEE0FEA3E0FF8F829C
:100290008E83E493FF746C2FF582E43400F583E0E1
:1002A000FF9000EEE0FCA3E0FD8D828C837401934F
:1002B000FEEF6E600302042E9000EEE0FEA3E0FF6E
:1002C0008F828E83740393FFEF5403FF9000E6EF59
:1002D000F09000EEE0FEA3E0FF8F828E8374029325
:1002E000FFEF5480FF7E00EF4E700302036E90001C
:1002F000E5E0FFEF75F00BA4240AF582E43400F585
:10030000837401F09000E6E0FFEFB401047F078002
:10031000027F0D9000E5E0FEEE75F00BA4240EF5D3
:1003200082E43400F583EFF09000EEE0FEA3E0FFFE
:100330008F828E83740693FFEF640A60189000EE3C
:10034000E0FEA3E0FF8F828E83740693FFEF6402CA
:1003500060030203E49000E6E0FFEF640370030231
:1003600003E49000E5E0FF900172EFF080769000EA
:10037000E5E0FFEF75F00BA4240AF582E43400F504
:1003800083E4F09000E6E0FFEFB401047F05800213
:100390007F099000E5E0FEEE75F00BA4240EF582D7
:1003A000E43400F583EFF09000EEE0FEA3E0FF8F71
:1003B000828E83740693FFEF640A60149000EEE06F
:1003C000FEA3E0FF8F828E83740693FFEFB40214C6
:1003D0009000E6E0FFEF6403600A9000E5E0FF9024
:1003E0000173EFF09000EEE0FEA3E0FF8F828E83BA
:1003F000740293FF9000E5E0FEEE75F00BA4240D6F
:10040000F582E43400F583EFF09000EEE0FEA3E027
:10041000FF8F828E83740393FF9000E5E0FEEE75FC
:10042000F00BA42409F582E43400F583EFF090008A
:10043000EEE0FEA3E0FFEF2407FFEE3400FE9000A5
:10044000EEEEF0A3EFF09000E4E004F00201ED9096
:1004500000E5E004F00201BE9000ECE0FEA3E0FF46
:100460008F828E83A3120FBCAE02AF019000EEEE1E
:10047000F0A3EFF09000E5E4F09000E3E0FF9000DF
:10048000E5E0FEEEC39F50539000EEE0FEA3E0FFD8
:100490008F828E83E493FF9000EEE0FCA3E0FD8D5D
:1004A000828C83740293FEEE547FFEEE75F00BA4F3
:1004B0002413F582E43400F583EFF09000EEE0FEC3
:1004C000A3E0FFEF2407FFEE3400FE9000EEEEF015
:1004D000A3EFF09000E5E004F0809E1225869000E6
:1004E00078EEF0A3EFF09000E37401F09000E3E009
:1004F000FFEFC3940950499000EAE0FEA3E0FF90AB
:1005000000E3E0FDED75F00BA4240FF582E4340068
:10051000F583EEF0A3EFF09000E3E0FFEF75F00B52
:10052000A42411F582E43400F583E0FEA3E0FF90FB
:1005300000EAEE8FF0120DE89000E3E004F080ACEA
:10054000121149229000D9E4F07B007A00790090E2
:1005500000DB120FB390006EE4F0A3E4F0906000B3
:10056000E0FFEF5480FF7E00EF64804E60030208DE
:1005700012906001E0FFEF120FC8073A00058A06EB
:1005800007C60807E60A000009D5906003E0FFEF00
:10059000B40135122D1D9000E0EEF0A3EFF09000B5
:1005A000E0E0FEA3E0FF8F828E83A3120FBC9000D9
:1005B00070120FB390006EE4F0A37412F01225FFD6
:1005C0009000D9EFF00209D5906003E0FFEF6402DC
:1005D000706B906002E0FF1229219000E0EEF0A322
:1005E000EFF09000E0E0FEA3E0FF8F828E83A31285
:1005F0000FBC900070120FB3900070120FAAE92484
:1006000003F9EA3400FA120DBDFF7E00EF7F00FE11
:10061000900070120FAAE92402F9EA3400FA120DD0
:10062000BDFD7C00EE4CFEEF4DFF90006EEEF0A3A2
:10063000EFF01225FF9000D9EFF00209D59060038A
:10064000E0FFEF6403600302072F9000DEE4F07B1D
:10065000FF7A2E79EB9000DB120FB39000DEE0FF03
:10066000906002E0FEEED39F403D9000DB120FAAA7
:10067000120DBDFFEF60309000DB120FAA120DBD0E
:10068000FF9000DFEFF09000DB120FAA9000DFE098
:10069000FF7E00E92FF9EA3EFA9000DB120FB390DB
:1006A00000DEE004F080B4906002E0FFEFB4EE0CF6
:1006B0007BFF7A2F79699000DB120FB3906002E024
:1006C000FFEF6030902EA6E493FF906002E0FEEE14
:1006D000B507217BFF7A2F79309000DB120FB37BB7
:1006E000017A017939121BB67B017A0179399000C0
:1006F000DB120FB39000DB120FAA120DBDFFEF70DB
:10070000030209D59000DB120FAA120DBDFF7E0077
:1007100090006EEEF0A3EFF09000DB120FAA9000B5
:1007200070120FB31225FF9000D9EFF00209D51215
:1007300023729000D9EFF00209D5906000E0FFEF3E
:100740005403FFEF120FC80794000751020000097D
:10075000D590006EE4F0A37402F0906004E0FFEF27
:10076000547FFFEF75F00BA4240BF582E43400F501
:1007700083E0FF90017CEFF090017DE4F07B017A53
:1007800001797C900070120FB31225FF9000D9EF11
:10079000F00209D590006EE4F0A37402F09000031B
:1007A000E0FF90017CEFF090017DE4F07B017A01A5
:1007B000797C900070120FB31225FF9000D9EFF0F2
:1007C0000209D50209D590006EE4F0A37401F07B14
:1007D000017A007904900070120FB31225FF900087
:1007E000D9EFF00209D590006EE4F0A37401F09007
:1007F0006004E0FF746C2FF9E43400FA7B01900090
:1008000070120FB31225FF9000D9EFF00209D50244
:1008100009D5906001E0FFEF120FC808B601094E3C
:1008200003082E0508430908630B000009D59060F2
:1008300002E0FF90007DEFF0122D529000D9EFF012
:100840000209D5906002E0FF900004EFF090007A7A
:100850007401F07F0112001A122D529000D9EFF0AE
:100860000209D5122233EF70030209D5906004E02B
:10087000FF9000DAEFF09000DAE0FF900076EFF002
:1008800090007A7401F01209DB9000DAE0FF746CDA
:100890002FF582E43400F583E0FF9000DAE0FE7487
:1008A0007B2EF582E43400F583EFF0122D52900098
:1008B000D9EFF00209D5906000E0FFEF5403FFEF9D
:1008C000120FC808E600090C0108D002000009D583
:1008D000906002E0FFEF60030209D512133E900022
:1008E000D9EFF00209D5906002E0FFEF64016003E8
:1008F0000209D5900003E0FFEF54FDFF900003EFE5
:10090000F0122D529000D9EFF00209D5906004E06A
:10091000FFEFC3940240030209D5906004E0FF7426
:100920007E2FF582E43400F583C083C082E0FF901F
:100930006002E0FEEEF4FEEF5EFFD082D083EFF0C7
:10094000122D529000D9EFF00209D50209D590601E
:1009500000E0FFEF5403FFEF120FC8097A00099C73
:1009600001096802000009D5906002E0FFEF7065A0
:10097000121ABF9000D9EFF0805B906002E0FFEFA9
:1009800064017051900003E0FFEF4402FF90000308
:10099000EFF0122D529000D9EFF08039906004E012
:1009A000FFEFC39402502E906004E0FF747E2FF599
:1009B00082E43400F583C083C082E0FF906002E0EF
:1009C000FEEEF4FEEF5EFFD082D083EFF0122D52E8
:1009D0009000D9EFF09000D9E0FF22900004E0FFF2
:1009E000EFD394005003020DBC900004E0FFEF141D
:1009F000FF1229219000E7EEF0A3EFF09000E7E06E
:100A0000FEA3E0FFEF2404FFEE3400FE9000E7EECB
:100A1000F0A3EFF09000E7E0FEA3E0FF8F828E836B
:100A2000E493FF9000E2EFF09000E7E0FEA3E0FF28
:100A30008F828E83A3120FBCAE02AF019000E9EE4D
:100A4000F0A3EFF09000E4E4F09000E2E0FF90000B
:100A5000E4E0FEEEC39F4003020DBC9000E9E0FE1F
:100A6000A3E0FF8F828E83E493FF747B2FF582E4F3
:100A70003400F583E0FF9000E9E0FCA3E0FD8D8207
:100A80008C83E493FE746C2EF582E43400F583E0ED
:100A9000FEEE6F7003020D9B9000E9E0FEA3E0FF05
:100AA0008F828E83E493FF746C2FF582E43400F51B
:100AB00083E0FF9000E9E0FCA3E0FD8D828C83746D
:100AC0000193FEEF6E6003020D9B9000E9E0FEA330
:100AD000E0FF8F828E83E493FF906004E0FEEF6E70
:100AE0006003020D9B9000E9E0FEA3E0FF8F828E81
:100AF00083740293FFEF547FFF9000E3EFF09000C8
:100B0000E3E0FF7E00EF24FFFFEE34FFFEEFC4F8CA
:100B1000540FC868FFEEC454F048FE9000E6EFF0B2
:100B20009000E9E0FEA3E0FF8F828E83740393FFC1
:100B3000EF5403FF9000E5EFF09000E9E0FEA3E042
:100B4000FF8F828E83740293FFEF5480FF7E00EF4D
:100B50004E603C9000E3E0FFEF75F00BA4240AF533
:100B600082E43400F5837401F09000E5E0FFEFB417
:100B700001047F0780027F0D9000E3E0FEEE75F038
:100B80000BA4240EF582E43400F583EFF080399055
:100B900000E3E0FFEF75F00BA4240AF582E43400D3
:100BA000F583E4F09000E5E0FFEFB401047F0580F9
:100BB000027F099000E3E0FEEE75F00BA4240EF531
:100BC00082E43400F583EFF09000E6E0FF7E00EF72
:100BD000240EFFEE3460FE8F828E837401F090004D
:100BE000E9E0FEA3E0FF8F828E83740493FE740518
:100BF00093FF9000E3E0FDED75F00BA42411F58266
:100C0000E43400F583EEF0A3EFF09000E9E0FEA3FA
:100C1000E0FF8F828E83740293FF9000E3E0FEEE8C
:100C200075F00BA4240DF582E43400F583EFF09009
:100C300000E9E0FEA3E0FF8F828E83740393FF90B0
:100C400000E3E0FEEE75F00BA42409F582E4340025
:100C5000F583EFF09000E3E0FFEF75F00BA4240CB8
:100C6000F582E43400F583E4F09000E3E0FFEF75F3
:100C7000F00BA42411F582E43400F583E0FEA3E038
:100C8000FFEEFF7E009000E6E0FEEEFD7C00ED242E
:100C90000CFDEC3460FC8D828C83EFF09000E3E07F
:100CA000FFEF75F00BA42411F582E43400F583E026
:100CB000FEA3E0FFEF54FFFF9000E6E0FEEEFD7CB8
:100CC00000ED240DFDEC3460FC8D828C83EFF09000
:100CD00000E3E0FFEF75F00BA4240FF582E434008D
:100CE000F583E0FEA3E0FFEF54FFFF9000E6E0FE97
:100CF000EEFD7C00ED2486FDEC3460FC8D828C835F
:100D0000EFF09000E3E0FFEF75F00BA4240FF58205
:100D1000E43400F583E0FEA3E0FFEEFF7E009000E8
:100D2000E6E0FEEEFD7C00ED2487FDEC3460FC8DFA
:100D3000828C83EFF09000E3E0FFEF75F00BA424CA
:100D40000FF582E43400F583E0FEA3E0FFEF54FFEB
:100D5000FF9000E6E0FEEEFD7C00ED2484FDEC3427
:100D600060FC8D828C83EFF09000E3E0FFEF75F084
:100D70000BA4240FF582E43400F583E0FEA3E0FF2A
:100D8000EEFF7E009000E6E0FEEEFD7C00ED2485A7
:100D9000FDEC3460FC8D828C83EFF09000E9E0FE86
:100DA000A3E0FFEF2407FFEE3400FE9000E9EEF031
:100DB000A3EFF09000E4E004F0020A4922BB010630
:100DC00089828A83E0225002E722BBFE02E3228965
:100DD000828A83E49322BB010689828A83F02250AF
:100DE00002F722BBFE01F322C5F0F8A3E028F0C50C
:100DF000F0F8E582158270021583E038F022BB011D
:100E00000A89828A83F0E5F0A3F0225006F709A749
:100E1000F01922BBFE06F3E5F009F31922EF2BFFD0
:100E2000EE3AFEED39FDEC38FC22E88FF0A4CC8BD5
:100E3000F0A42CFCE98EF0A42CFC8AF0EDA42CFC90
:100E4000EA8EF0A4CDA8F08BF0A42DCC3825F0FDCF
:100E5000E98FF0A42CCD35F0FCEB8EF0A4FEA9F0C8
:100E6000EB8FF0A4CFC5F02ECD39FEE43CFCEAA414
:100E70002DCE35F0FDE43CFC2275F008758200EFC4
:100E80002FFFEE33FECD33CDCC33CCC58233C582BC
:100E90009BED9AEC99E58298400CF582EE9BFEED75
:100EA0009AFDEC99FC0FD5F0D6E4CEFBE4CDFAE444
:100EB000CCF9A88222B800C1B90059BA002DEC8B38
:100EC000F084CFCECDFCE5F0CBF97818EF2FFFEE14
:100ED00033FEED33FDEC33FCEB33FB10D7039940CD
:100EE00004EB99FB0FD8E5E4F9FA227818EF2FFF0D
:100EF000EE33FEED33FDEC33FCC933C910D7059B4F
:100F0000E99A4007EC9BFCE99AF90FD8E0E4C9FAAA
:100F1000E4CCFB2275F010EF2FFFEE33FEED33FD36
:100F2000CC33CCC833C810D7079BEC9AE899400A59
:100F3000ED9BFDEC9AFCE899F80FD5F0DAE4CDFBD7
:100F4000E4CCFAE4C8F922EF4BFFEE4AFEED49FD8E
:100F5000EC48FC22E8600FECC313FCED13FDEE132C
:100F6000FEEF13FFD8F122E8600FEFC333FFEE333B
:100F7000FEED33FDEC33FCD8F122E0FCA3E0FDA351
:100F8000E0FEA3E0FF22E0F8A3E0F9A3E0FAA3E08B
:100F9000FB22ECF0A3EDF0A3EEF0A3EFF022A425EA
:100FA00082F582E5F03583F58322E0FBA3E0FAA326
:100FB000E0F922EBF0A3EAF0A3E9F022E493FB745A
:100FC0000193FA740293F922D083D082F8E49370EB
:100FD00012740193700DA3A393F8740193F58288A2
:100FE00083E4737402936860EFA3A3A380DFE50C2E
:100FF0002582F582E50B3583F583B50B0485820CDC
:101000002210AF0685820CF50B2285820CF50BD2DF
:10101000AF22EC8EF0A4CCC5F0CCCDF8EFA4CEC5B9
:10102000F02DFDE43CFCE8A42EC8C5F03DFDE43CF9
:10103000FCEFA4FFE5F028FEE43DFDE43CFC22E7E4
:1010400009F608DFFA8046E709F208DFFA803E88F1
:10105000828C83E709F0A3DFFA8032E309F608DF28
:10106000FA806EE309F208DFFA806688828C83E3F7
:1010700009F0A3DFFA805A89828A83E0A3F608DFA9
:10108000FA804E89828A83E0A3F208DFFA804280E8
:10109000D280FA80C680D4805580F280298010806A
:1010A000A680EA809A80A880DA80E280CA802988B7
:1010B000848C8589828A83E493A30586F0A30586C0
:1010C000DFF5DEF3800B89828A83E493A3F608DFE1
:1010D000F9ECFAA9F0EDFB2288848C8589828A8359
:1010E000E0A30586F0A30586DFF6DEF480E38982BF
:1010F0008A83E493A3F208DFF980D688F0EF6001D9
:101100000E4E60CD88F0ED2402B4040050C3F58289
:10111000EB2402B4040050B9232345822390108F9E
:1011200073EF8DF0A4A8F0CF8CF0A428CE8DF0A49E
:101130002EFE22A3F8E0C5F025F0F0E582158270BE
:10114000021583E0C838F0E8229000F07401F090B6
:1011500000F1E4F09000F1E0FFEFC394804003025F
:1011600013379000F1E0FF7E00EF2480FFEE346043
:10117000FE8F828E83740CF09000F0E0FFEF75F02C
:101180000BA4240EF582E43400F583E0FFEF604FFA
:101190009000F0E0FFEF75F00BA4240DF582E4342D
:1011A00000F583E0FFEF5480FF7E00EF4E60189063
:1011B00000F1E0FF7E00EF240EFFEE3460FE8F8230
:1011C0008E83740CF0802E9000F1E0FF7E00EF24FF
:1011D0000EFFEE3460FE8F828E837408F0801690CE
:1011E00000F1E0FF7E00EF240EFFEE3460FE8F8200
:1011F0008E837480F09000F0E0FFEF75F00BA42474
:1012000011F582E43400F583E0FEA3E0FFEEFF7EFB
:10121000009000F1E0FEEEFD7C00ED240CFDEC34CE
:1012200060FC8D828C83EFF09000F0E0FFEF75F0B2
:101230000BA42411F582E43400F583E0FEA3E0FF63
:10124000EF54FFFF9000F1E0FEEEFD7C00ED240D79
:10125000FDEC3460FC8D828C83EFF09000F0E0FFB9
:10126000EF75F00BA4240FF582E43400F583E0FE63
:10127000A3E0FFEF54FFFF9000F1E0FEEEFD7C00E5
:10128000ED2486FDEC3460FC8D828C83EFF09000C1
:10129000F0E0FFEF75F00BA4240FF582E43400F5C5
:1012A00083E0FEA3E0FFEEFF7E009000F1E0FEEEA3
:1012B000FD7C00ED2487FDEC3460FC8D828C83EF97
:1012C000F09000F0E0FFEF75F00BA4240FF582E43E
:1012D0003400F583E0FEA3E0FFEF54FFFF9000F140
:1012E000E0FEEEFD7C00ED2484FDEC3460FC8D829C
:1012F0008C83EFF09000F0E0FFEF75F00BA4240F6B
:10130000F582E43400F583E0FEA3E0FFEEFF7E000B
:101310009000F1E0FEEEFD7C00ED2485FDEC3460F4
:10132000FC8D828C83EFF09000F0E004F09000F1EF
:10133000E02410F002115490600A74FFF022900033
:10134000E4E4F0906004E0FFEF547FFF9000E2EFF0
:10135000F09000E2E0FF7E00EF24FFFFEE34FFFE9E
:10136000EFC4F8540FC868FFEEC454F048FE900074
:10137000E3EFF09000E2E0FFEFD39400500302149B
:10138000AC9000E2E0FFEFC3940940030214AC907C
:1013900000E2E0FFEF75F00BA4240BF582E43400CB
:1013A000F583E0FFEF54FEFFEFF09000E2E0FFEF87
:1013B00075F00BA4240CF582E43400F583E4F0907E
:1013C00000E3E0FF7E00EF240CFFEE3460FE8F822E
:1013D0008E83E0FFEF547FFFEFF09000E2E0FFEF3D
:1013E00075F00BA4240AF582E43400F583E0FFEFE6
:1013F00054FDFFEFF09000E2E0FFEF75F00BA42446
:101400000DF582E43400F583E0FFEF5480FF7E00A9
:10141000EF4E60499000E2E0FFEF75F00BA4240A64
:10142000F582E43400F583E0FFEFB401189000E3A7
:10143000E0FF7E00EF240EFFEE3460FE8F828E838D
:10144000740CF0805F9000E3E0FF7E00EF240EFF5D
:10145000EE3460FE8F828E83740DF080479000E240
:10146000E0FFEF75F00BA4240AF582E43400F58365
:10147000E0FFEFB401189000E3E0FF7E00EF240EE0
:10148000FFEE3460FE8F828E837408F08016900029
:10149000E3E0FF7E00EF240EFFEE3460FE8F828ECD
:1014A000837409F0122D529000E4EFF09000E4E014
:1014B000FF22C0E0C0F0C083C082C085C084C08667
:1014C000758600C093759300C0D075D000C000C071
:1014D00001C002C003C004C005C006C00790602858
:1014E000E0FF9000D6EFF09000D6E0FFEF5410FF41
:1014F0007E00EF4E70030216009000D77401F0904A
:1015000000D6E0FFEF5480FF7E00EF4E6031900088
:10151000D6E0FFEF540FFF7E00EF64014E600790AE
:1015200000D7E4F080461223FC900005E0FFEF5462
:1015300080FF7E00EF4E60349000D7E4F0802D9065
:1015400000D6E0FFEF5440FF7E00EF4E6005122C06
:101550007980199000D6E0FFEF5420FF7E00EF4E17
:101560006005122B9C80059000D7E4F09000D7E036
:10157000FFEF7003021600906028E0FF9000D6EFA6
:10158000F09000D6E0FFEF5480FF7E00EF4E7070C9
:10159000900008E0FF900000E0FEEE4FFF9000D6C4
:1015A000EFF09000D6E0FF906029EFF0906029E026
:1015B000FF9000D6E0FEEE6F7046900005E0FF90D1
:1015C00000D7EFF0906028E0FFEF5480FF9000D646
:1015D000EFF09000D6E0FFEF7018900005E0FF906C
:1015E0006028EFF0906028E0FFEF540FFF9000D7E5
:1015F000EFF0900005E0FF9000D7E0FEEEB507BAEF
:10160000D007D006D005D004D003D002D001D0003E
:10161000D0D0D093D086D084D085D082D083D0F063
:10162000D0E0327B007A4679E8122E74EF4405FD53
:101630007B007A4679E8122E80750A00E50AC39489
:1016400008503AAF0AEF75F005A424E3F582E434BC
:101650002FF583AF82AE838E088F09AE08AF098F56
:10166000828E83120FBCAE08AF098F828E83740303
:1016700093FC740493FD122D6C050A80BF7B087ADD
:10168000007900122BF97B017A507903122E74EF46
:101690004402FD7B017A507903122E807B017A503F
:1016A0007913122E74EF4402FD7B017A50791312E4
:1016B0002E809043A0E0FFEF4440FF9043A0EFF066
:1016C0009043C2E0FFEF4410FF9043C2EFF07B086D
:1016D0007A0079F8C003C002C0017B007A51790218
:1016E000900085120FB3D001D002D0037F087E0096
:1016F000122AA07B087A017900C003C002C0017BD6
:10170000007A5179F0900085120FB3D001D002D049
:10171000037F0A7E00122AA09044F47401F09043E3
:1017200022E0FFEF4408FF904322EFF09046ECE008
:10173000FFEFC394055006904689743AF090480034
:1017400074F1F01219BC90480074B1F0122A6A7B4F
:10175000007A4379A0C003C002C0017B007A4379BC
:10176000B0900085120FB3D001D002D0037F0E7E5F
:1017700000122AA09043B0E0FFEF54FDFFEFF022EB
:101780009000C5EFF09000C6120FB39000C5E0FFC7
:10179000EFD39400500302189A9000C5E0FFEFC306
:1017A0009409400302189A7B007A007900C003C0B4
:1017B00002C0019000C6120FAAD082D083D0E06B85
:1017C0007008E965827003EA6583700302189A90D5
:1017D00000C5E0FF7E00EF24FFFFEE34FFFEEFC404
:1017E000F8540FC868FFEEC454F048FE9000CBEFE9
:1017F000F09000CBE0FF7E00EF2488FFEE3460FE27
:101800009000CCEEF0A3EFF09000C5E0FF1220D0E6
:101810009000D0EEF0A3EFF09000D0E0FEA3E0FF48
:101820009000C9E0FCA3E0FDD3ED9FEC9E4010903A
:1018300000D0E0FEA3E0FF9000C9EEF0A3EFF0902F
:1018400000CEE4F0A3E4F09000C9E0FEA3E0FF9036
:1018500000CEE0FCA3E0FDC3ED9FEC9E5032900073
:10186000CCE0FEA3E0FF8F828E83E0FF9000C612E3
:101870000FAA9000CEE0FCA3E0FDE92DF9EA3CFAC6
:10188000EF120DD69000CEE475F001120DE880B78E
:101890009000C5E0FF12250780089000C9E4F0A37E
:1018A000E4F09000C9E0FEA3E0FF22122DC89000F2
:1018B000C6EFF09043A5E0FFEF4401FFEFF0904347
:1018C000B5E0FFEF4401FFEFF090609D7401F090F0
:1018D00060097402F0906010E0FFEF547FFFEFF0BA
:1018E0007F007E00122BCC904394E0FFEF54F9FF71
:1018F000EFF0906012E0FFEF54DFFFEFF0904394C1
:10190000E0FFEF4401FFEFF07F017E00122BCC7F60
:10191000287E00122BCC9051F8E0FFEF547FFFEFB0
:10192000F09051F8E0FFEF54BFFFEFF0904394E0E8
:10193000FFEF4402FFEFF07F027E00122BCC9043BA
:1019400094E0FFEF4404FFEFF0906084E4F09060D7
:1019500085E4F09000C6E0FF122D857C297D7C7F18
:10196000171224857D077F171228C27C2B7DC97F23
:10197000151224857D077F151228C27C147DB27F45
:10198000181224857D077F181228C27C267D6B7F64
:10199000021224857D077F021228C27C267DD27F19
:1019A000031224857D077F031228C27C277D397F9F
:1019B000041224857D077F041228C2227B007A400E
:1019C00079807D637C00122E48904082741BF090D9
:1019D00043007406F09042007452F07B0C7A017957
:1019E0000F122E749046A1EFF07B007A4279227D8F
:1019F000087C07122E487B007A4279207D517C12A8
:101A0000122E48900084E4F07F197E007D007C0057
:101A1000900080120F92900080120F7AD3EF940002
:101A2000EE9400404E900084E0FFEF640360449029
:101A30004225E0FFEF5401FF7E00900084E0FEEEBF
:101A400025E0FEEE4FFFEF5403FF900084EFF07FA0
:101A5000E07E017D007C00122B00900080120F7A46
:101A60007BFF7AFF79FF78FF120E1D900080120F26
:101A70009280A3900080120F7AEF4E70057F0312C0
:101A80002E067B007A4079047D007C01122E48905E
:101A900040047407F0904006E4F09040087448F069
:101AA000904004E4F0904009E4F09040017402F0AA
:101AB0009043A2E0FFEF4401FF9043A2EFF0229099
:101AC00000E4E4F0906004E0FFEF547FFF9000E258
:101AD000EFF09000E2E0FF7E00EF24FFFFEE34FF26
:101AE000FEEFC4F8540FC868FFEEC454F048FE90EF
:101AF00000E3EFF09000E2E0FFEFD3940050030228
:101B00001BB09000E2E0FFEFC394094003021BB05A
:101B10009000E2E0FFEF75F00BA4240BF582E434B3
:101B200000F583E0FFEF4401FFEFF09000E2E0FFFB
:101B3000EF75F00BA4240CF582E43400F583E4F097
:101B40009000E2E0FFEF75F00BA4240AF582E43484
:101B500000F583E0FFEF4402FFEFF09000E2E0FFCA
:101B6000EF75F00BA4240DF582E43400F583E0FF5B
:101B7000EF5480FF7E00EF4E60189000E3E0FF7EA0
:101B800000EF240EFFEE3460FE8F828E83748DF0A2
:101B900080169000E3E0FF7E00EF240EFFEE34603D
:101BA000FE8F828E837489F0122D529000E4EFF044
:101BB0009000E4E0FF229000E2120FB39000E6E410
:101BC000F07B007A007900C003C002C0019000E2FF
:101BD000120FAAD082D083D0E06B7008E9658270C2
:101BE00003EA65837003021CA79000E2120FAA7437
:101BF00022120DD69000E2120FAAE92401F9EA346C
:101C000000FA7403120DD69000E57402F09000E51E
:101C1000E0FFEFC394224003021CA79000E6E0FF20
:101C2000E4FCFDFEEF2400FFEE3401FEED340CFD7C
:101C3000EC3400FCA907AA06AB05122E749000E74D
:101C4000EFF09000E6E004F09000E7E0FFEFC4540E
:101C50000FFFEF90300B93FF9000E2120FAA90005D
:101C6000E5E0FEE92EF9E43AFAEF120DD69000E72E
:101C7000E0FFEF540FFFEF90300B93FF9000E5E093
:101C8000FEEEFD7C00ED2402FDEC3400FC9000E251
:101C9000120FAAE92DF9EA3CFAEF120DD69000E5F1
:101CA000E02404F0021C0D22759300780075834631
:101CB0007582E8E04401F0009046ECE0F99046FAC5
:101CC000E0FAB903225420B40012B8001AEA901FB7
:101CD000FFF07401901FFEF09046F6F0901FFEE0BA
:101CE0006005901FFFE0FA90480074C0F0758120F5
:101CF00090000078007920E4F0A3D8FCD9FAEA90AB
:101D00000164F0020011750B1F750CFD1216230201
:101D10001D4D021E6DE493A3F8E493A34003F680E7
:101D200001F208DFF48029E493A3F85407240CC8D7
:101D3000C333C4540F4420C8834004F45680014682
:101D4000F6DFE4800B0102040810204080902B3B5A
:101D5000E47E019360BCA3FF543F30E509541FFEAD
:101D6000E493A360010ECF54C025E060A840B8E41E
:101D700093A3FAE493A3F8E493A3C8C582C8CAC5A1
:101D800083CAF0A3C8C582C8CAC583CADFE9DEE733
:101D900080BE9000C4EBF0A3EAF0A3E9F09000C489
:101DA000E0FBA3E0FAA3E0F9120DBDFF122DF25003
:101DB0000C9000C5E475F001120DE880E0D20090AF
:101DC00000C4E0FBA3E0FAA3E0F9120DBDFF642B11
:101DD0006004EFB42D1D9000C4E0FBA3E475F00196
:101DE000121133A9F0FA120DBD642D6003D38001E6
:101DF000C39200E49000C7F0A3F09000C4E0FBA3FE
:101E0000E0FAA3E0F9120DBDFF122E5750429000E8
:101E1000C4E0FBA3E0FAA3E0F9120DBDFF3395E0A7
:101E2000FEEF24D0FBEE34FFFA9000C7E0FEA3E003
:101E3000FF7C007D0A121121EF2BFFEE3A9000C7C4
:101E4000F0A3EFF09000C5E475F001120DE880AA50
:101E500030000A9000C7E0FEA3E0FF800F9000C7AB
:101E6000E0FEA3E0FFC3E49FFFE49EFE227BFF7A37
:101E70002F79A3C003C002C0017B017A007980A83A
:101E800001AC02AD03D001D002D0037E007F40122E
:101E900010FB7B017A0079809000C0120FB3900094
:101EA000C3E4F0D2AF9044F474FDF0122DB37D0082
:101EB0007F00122C50122E8CEF60FA122E66122D1B
:101EC0009DEF60FA122D009000C0120FAAEF120DC4
:101ED000D69000C1E475F001120DE89000C3E00453
:101EE000F09000C3E0FF747F2FF582E43400F583A7
:101EF000E0FFEF640A600B9000C3E0FFEFC3944083
:101F000040C29000C3E0FF74802FF582E43400F5F6
:101F100083E4F07B017A007980121D9290017AEEC1
:101F2000F0A3EFF09000C3E4F07B017A0079809099
:101F300000C0120FB390017AE0FEA3E0FF122C263E
:101F4000021EBE229000E7E4F0900077E0FF7E00E2
:101F5000900006EE8FF0120DE890006EE0FEA3E018
:101F6000FFD3EF9400EE940040539000E7E0FFEFC2
:101F7000C394085048900070120FAA120DBDFF9034
:101F800000E7E0FEEEFD7C00ED2400FDEC3460FC9B
:101F90008D828C83EFF0900070120FAAE92401F972
:101FA000EA3400FA900070120FB39000E7E004F0FA
:101FB00090006E74FF75F0FF120DE8809C90007722
:101FC000E0FFEF6408600B9000E7E0FFEFD39400C0
:101FD000401C900000E0FFEF6480FF900000EFF0F5
:101FE000900005740FF09000017402F0800C9000D6
:101FF000057402F09000017402F09000E7E0FF9099
:102000000077EFF09000E7E0FF900008EFF02290FB
:1020100000E4E4F0906000E0FFEF5480FF7E00EF0A
:1020200064804E7031906001E0FFEF120FC82035E0
:1020300021000020CA90006EE4F0A37407F07B0139
:102040007A01796B900070120FB31225FF9000E4B3
:10205000EFF080768074906000E0FFEF5480FF7EA8
:1020600000EF4E7065906001E0FFEF120FC820781E
:102070002020A522000020CA90006EE4F0A374077F
:10208000F07B017A01796B900070120FB3900174AC
:10209000E0FFEF4401FF900174EFF012286390001D
:1020A000E4EFF08025906002E0FF7E00900169EE91
:1020B000F0A3EFF0900174E0FFEF4402FF90017491
:1020C000EFF0122D529000E4EFF09000E4E0FF22D8
:1020D0009000D2EFF09000D4E4F0A3E4F09000D2AE
:1020E000E0FFEFD39400500302217C9000D2E0FF88
:1020F000EFC39409400302217C9000D2E0FF7E00F0
:10210000EF24FFFFEE34FFFEEFC4F8540FC868FF62
:10211000EEC454F048FE9000D3EFF09000D3E0FFFF
:102120007E00EF240CFFEE3460FE8F828E83E0FF92
:10213000EF540FFF7E009000D4EEF0A3EFF090007C
:10214000D3E0FF7E00EF240DFFEE3460FE8F828E21
:1021500083E0FFEFFD7C009000D4E0FEA3E0FFEF02
:102160007F00FEEE4CFEEF4DFF9000D4EEF0A3EFAB
:10217000F09000D474FF75F0FE120DE89000D4E0EA
:10218000FEA3E0FF229000D9E4F0906029E0FFEF89
:10219000540FFFEF24FEFF9000D8EFF09000D8E03E
:1021A000FF7E00900006EE8FF0120DE890006EE0CA
:1021B000FEA3E0FFD3EF9400EE940040579000D8C8
:1021C000E0FFEFD39400404C9000D9E0FF7E00EF99
:1021D0002400FFEE3460FE8F828E83E0FF9000705B
:1021E000120FAAEF120DD6900070120FAAE9240167
:1021F000F9EA3400FA900070120FB39000D9E004AD
:10220000F09000D8E014F090006E74FF75F0FF12AB
:102210000DE880989000D8E0FF900008EFF0900063
:1022200000E0FFEF6480FF900000EFF09000057485
:102230000BF0229000E27401F0906004E0FF900047
:10224000E3EFF0900004E0FFEF14FF12292190006B
:10225000E4EEF0A3EFF09000E4E0FEA3E0FF8F8255
:102260008E83A3120FBCE92404F9EA3400FA120D9C
:10227000BDFF9000E6EFF09000E6E0FF9000E3E0A5
:10228000FEEEC39F500B9000E3E0FFEFC3940240CB
:10229000079000E2E4F080389000E3E0FF746C2FD8
:1022A000F582E43400F583E0FF9000E3E0FE747B08
:1022B0002EF582E43400F583EFF0906002E0FF90A9
:1022C00000E3E0FE746C2EF582E43400F583EFF059
:1022D0009000E2E0FF229000C6EFF09000C7EDF022
:1022E0009044C27480F09044C37401F09044C07470
:1022F00004F09044C07408F09044C07410F0900052
:1023000001E4F09000C7E0FFEF120FC8231600238E
:102310001E01000023269060097402F0800E906078
:10232000097403F080069060097403F09000C6E021
:10233000FF900002EFF0900004E4F0900076E4F0EB
:1023400090007AE4F090007DE4F0900003E4F090D7
:102350000077E4F09060287403F09060087480F0D7
:102360007F017E007D007C00122B009060127404BF
:10237000F0229000E2E4F09000E3E4F0906000E0EE
:10238000FFEF5403FFEF120FC8239301239F0200B6
:102390000023BD906004E0FF9000E3EFF0801E900A
:1023A0006004E0FFEF547FFFEF75F00BA42413F5FA
:1023B00082E43400F583E0FF9000E3EFF09000E367
:1023C000E0FF900078E0FCA3E0FD8D828C83E58245
:1023D0002FF582E43583F583E493FFEF120FC823D2
:1023E000F60123EE0223F603000023F680081220F4
:1023F0000F9000E2EFF09000E2E0FF22906028E012
:10240000FF9000D8EFF09000D8E0FF906028EFF048
:10241000906028E0FF9000D8EFF09000D8E0FFEF48
:102420005480FF7E00EF4E600B9000D8E0FF9000DC
:1024300005EFF0227F021227A0906000E0FFEF542A
:1024400060FFEF120FC8245300245D202467400072
:102450000024711205449000D8EFF0801912237205
:102460009000D8EFF0800F1229CD9000D8EFF080C7
:10247000059000D8E4F09000D8E0FFEF70069000DF
:10248000057403F0229000C7EFF09000C8ECF0A3B1
:10249000EDF09000C7E0FFEFD3941F5003D380010D
:1024A000C340057F00122DDD9000C7E0FFEF541FF1
:1024B000FF7E00EF25E0FFEE33FEEF2400FFEE3459
:1024C00044FEAA06A9077B01122E3B9000CAEEF03B
:1024D000A3EFF09000C7E0FF7E02EF8EF0A4FFAE06
:1024E000F0EF2400FFEE3444FEAA06A9077B01901A
:1024F00000C8E0FEA3E0FFAD07AC06122E4A900034
:10250000CAE0FEA3E0FF229000D2EFF09000D2E0FC
:10251000FFEFD39400406E9000D2E0FFEFC3940928
:1025200050639000D2E0FF7E00EF24FFFFEE34FF07
:10253000FEEFC4F8540FC868FFEEC454F048FE9094
:1025400000D3EFF09000D2E0FFEF75F00BA4240A67
:10255000F582E43400F583E4F09000D2E0FFEF75FB
:10256000F00BA4240EF582E43400F583E0FF900024
:10257000D3E0FEEEFD7C00ED240EFDEC3460FC8D1E
:10258000828C83EFF022900004E0FFEF14FF122909
:10259000219000F0EEF0A3EFF09000F0E0FEA3E059
:1025A000FF8F828E83A3120FBCE92404F9EA340062
:1025B000FA120DBDFF9000F2EFF09000F2E0FF7E06
:1025C00000EF2402FFEE3400FEEF7802C333CE3377
:1025D000CED8F9FF9000F0E0FCA3E0FDEF2DFFEE78
:1025E0003CFE9000F0EEF0A3EFF09000F0E0FEA3D0
:1025F000E0FF8F828E83A3120FBCAE02AF01229048
:10260000006EE0FEA3E0FFEF4E7005122CE1805853
:102610009000017402F0900000E4F0122A1D906016
:1026200007E0FF7E00EF7F00FE906006E0FD7C008B
:10263000EE4CFEEF4DFF9000E5EEF0A3EFF09000C2
:10264000E5E0FEA3E0FF90006EE0FCA3E0FDD3ED2B
:102650009FEC9E40109000E5E0FEA3E0FF90006E2E
:10266000EEF0A3EFF0121F447F0122C0E0C083C050
:1026700082C085C084C086758600C093759300C0F3
:10268000D075D000C006C00790600EE0FF90001427
:10269000E0FFEF5403FF7E00EF64014E600E9000F8
:1026A00017E0FFEF6480FF900017EFF090001574C3
:1026B00001F090600BE0FFEF54FEFFEFF0D007D089
:1026C00006D0D0D093D086D084D085D082D083D08D
:1026D000E032C0E0C083C082C085C084C0867586F9
:1026E00000C093759300C0D075D000C006C007909D
:1026F000601EE0FF90001FE0FFEF5403FF7E00EF3D
:1027000064014E600E900022E0FFEF6480FF9000B5
:1027100022EFF09000207401F090600BE0FFEF5486
:10272000FDFFEFF0D007D006D0D0D093D086D08474
:10273000D085D082D083D0E032C0E0C083C082C0D8
:1027400085C084C086758600C093759300C0D0751F
:10275000D000C006C00790602EE0FF90002AE0FF86
:10276000EF5403FF7E00EF64014E600E90002DE0F9
:10277000FFEF6480FF90002DEFF090002B7401F0CC
:1027800090600BE0FFEF54FBFFEFF0D007D006D0D6
:10279000D0D093D086D084D085D082D083D0E03280
:1027A0009000D9EFF07B007A007900C003C002C02E
:1027B00001900073120FAAD082D083D0E06B700812
:1027C000E965827003EA658360379000D9E0FF9085
:1027D0000073120FAAEF120DD6900006E0FEA3E0E0
:1027E000FF900073120FAAE92401F9EA3400FAEE0F
:1027F0008FF0120DFE7B007A007900900073120FAB
:10280000B322904F00E0FFEF5401FFEFF0904F0232
:10281000E0FFEF54FCFFEFF0904F0BE0FFEF54CFE1
:10282000FFEFF0904F0BE0FFEF4430FFEFF0904FE1
:102830000BE0FFEF54F0FFEFF0904F0BE0FFEF44A1
:102840000FFFEFF0904F01E0FFEF4401FFEFF07F4B
:10285000F37E01122C267FF37E01122D387F0012A9
:102860002E29229000017404F09000007480F01270
:102870002A1D906007E0FF7E00EF7F00FE9060065B
:10288000E0FD7C00EE4CFEEF4DFF9000E5EEF0A386
:10289000EFF09000E5E0FEA3E0FF90006EE0FCA307
:1028A000E0FDD3ED9FEC9E40109000E5E0FEA3E03C
:1028B000FF90006EEEF0A3EFF0900005740BF07F38
:1028C00001229000C7EFF09000C8EDF09000C8E042
:1028D000FFEFD394075003D38001C340057F00125C
:1028E0002DDD9000C7E0FFEFD3941F5003D380018C
:1028F000C340057F00122DDD9000C8E0FFEF5407B4
:10290000FF7E00EF75F020A4FFAEF09000C7E0FE60
:10291000EE541FFE74802EF582E43444F583EFF00C
:10292000229000F3EFF0900002E0FFEF25E025E0B9
:102930002466F582E4342FF583120FBCAE02AF019A
:102940009000F4EEF0A3EFF09000F4E0FEA3E0FFBF
:102950008F828E83C083C0829000F3E0FFD082D04C
:102960008375F004EF120F9EE5822405F582E5835E
:102970003400F583120FBCAE02AF0122C0E0C0F0FC
:10298000C083C082C085C084C086758600C0937530
:102990009300C0D075D000C000C001C002C003C009
:1029A00004C005C006C007122B6CD007D006D005A6
:1029B000D004D003D002D001D000D0D0D093D086A4
:1029C000D084D085D082D083D0F0D0E0329000D9AE
:1029D000E4F0906000E0FFEF5480FF7E00EF648041
:1029E0004E7034906001E0FFEF120FC829F3010030
:1029F000002A177BFF7A2F797B900070120FB3901B
:102A00002F7BE493FF7E0090006EEEF0A3EFF012B8
:102A100025FF9000D9EFF09000D9E0FF229000064A
:102A2000E4F0A3E4F07B007A007900C003C002C0A8
:102A300001900073120FAAD082D083D0E06B70088F
:102A4000E965827003EA6583601F900073120FAA24
:102A5000E4120DD6900073120FAAE92401F9EA34AA
:102A600000FAE475F000120DFE227B0C7A0179CF9A
:102A7000122E74900080EFF0900080E0FFEF54077A
:102A8000FF90586EEFF0900080E0FFEFC4540FFF0E
:102A9000EF540FFF90586FEFF09058767444F02287
:102AA000758600EF4E6027EF60010E759300900071
:102AB00085E0F595A3E0F585A3E0F5848B938A8303
:102AC0008982E0A30586F0A31586DFF6DEF4E4F53F
:102AD00093F5952290007DE0FFEF601390007DE07C
:102AE000FFEF4480FF906008EFF090007DE4F090ED
:102AF0000001E4F07F011227A09000057403F0228A
:102B0000EC4D4E700D78FCEF24E950032840FD2277
:102B100000007BF178DA0000EF28FF78FFEE38FE46
:102B2000ED38FDEC38FC50E7EF2BFFEE38FEED38CA
:102B3000FDEC38FC40F2220502030442017A01F464
:102B400041017E0041017F00440160016E36004476
:102B5000015B00005DC041015F184401652EE0008B
:102B6000004301750000004101800000900001E475
:102B7000F0900004E4F0900076E4F090007AE4F045
:102B800090007DE4F0900003E4F0900077E4F09092
:102B900060287403F09060087480F022900001E0D7
:102BA000FFEF120FC82BC8002BB5022BB9042BBDA9
:102BB0000600002BC8122CC022122185227F03128E
:0A2BC00027A09000057403F02232F4
:102BCC00EEFA90015FE0F88FF0A4FFAEF0E88AF027
:102BDC00A42EFEE5F03400FDEF24C9FF78FFEE389B
:102BEC00FEED38FDE438FC5003022B0022ACEAADBC
:102BFC00A08B938A838982E0F96017A3E0F5EAA39E
:102C0C00E0F5A0A3E060F4FAA3E0F8A3E0F2DAF8B0
:102C1C00D9E98DA08CEAE4F593229000C4EEF0A3E0
:102C2C00EFF09000C4E0FEA3E0FF9000C6EEF0A32E
:102C3C00EFF07B027A4F79049000C6E0FCA3E0FD34
:102C4C00122E4A229000C4EFF09000C5EDF09001D6
:102C5C007EE0FFEF70091218AB90017E7401F090CA
:102C6C0000C4E0FF9000C5E0FD1222D622900001C6
:102C7C00E0FFEF120FC82C9D002C92022C96042C16
:102C8C009A0600002C9D122E9222122E1822122A25
:102C9C00D4229043A3E0FFEF4401FFEFF09043B345
:102CAC00E0FFEF4401FFEFF0904F00E0FFEF440135
:102CBC00FFEFF022900077E0FF7E00900006EE8F91
:102CCC00F0120DE8900001E4F07F011227A09000B3
:102CDC00057403F0229000017402F09000007480DF
:102CEC00F0900005740FF0900077E4F0900008E489
:102CFC00F07F0122900173E0FF7B017A0079C49090
:102D0C0000C9E4F0A37401F01217809000C4E0FF36
:102D1C0022900002E0FFEF25E025E02466F582E436
:102D2C00342FF583120FBCAE02AF01229000C4EE1B
:102D3C00F0A3EFF07B027A4F79069000C4E0FCA37D
:102D4C00E0FD122E4A229000017406F090000574EA
:102D5C0006F09000007480F0900008E4F07F0122EF
:102D6C00EC4D6011ED60010C8B938A838982E4F049
:102D7C00A3DDFCDCFA75930022EF54016004D2AFA2
:102D8C008002C2AFEF5402FF9044F4E054FD4FF0C8
:102D9C0022900173E0FFEF75F00BA4240AF582E496
:102DAC003400F583E0FF2290017FE0FFEF70091201
:102DBC00280290017F7401F0122C9E229044F4E0C2
:102DCC00F84402F0E85402FF10AF012274014FFFE7
:102DDC002290FFFF120FEEEFF09046EA7401F09094
:102DEC000001120FEE22EFC394094005EF940E4040
:102DFC0004EFB42003D38001C322900085EFF09040
:102E0C000085E0FF900085EFF080FE22900001E449
:102E1C00F07F011227A09000057403F0229000C4EB
:102E2C00EFF09000C4E0FF904F03EFF0228B938AF9
:102E3C00838982E0FFA3E0FE759300228B938A8343
:102E4C008982EDF0A3ECF075930022EFC39430402F
:102E5C0007EF943A50028001C322900174E4F09081
:102E6C000173E0FF122507228B938A838982E07518
:102E7C009300FF228B938A838982EDF07593002255
:102E8C00900004E0FF22121F4422120100020200F3
:102E9C000008B40432F2010001028001090243006F
:102EAC00020101C0320904000001020201000524E4
:102EBC00001001042402020524060001052401006F
:102ECC00010705810308000A09040100020A000039
:102EDC00000705820240000A0705030240000A04AD
:102EEC000309041803450072006500620075007345
:102EFC000020004C00610062007300280353005452
:102F0C000045004D002000530065006E0073006FFB
:102F1C000072002000520065007600200030002E68
:102F2C00003100000203000081030008020100824E
:102F3C000200400A0100030200400A020A01FF2EAF
:102F4C00A803FF2F32000000000000000000FF2F3C
:102F5C004701FF2E9601FF2F4901FF2F5D12034DF4
:102F6C0000530046005400310030003000010028AE
:102F7C00000000000104000100000000000000003F
:102F8C0001435955534200000030303030310000BD
:102F9C000000000000000000000000000000000025
:102FAC000000000000000000000000000000000015
:102FBC000000000000000000000000000000000005
:102FCC0000000000000000000000000000000000F5
:102FDC0000000000000000004F00000C0051100029
:102FEC00600051C000100100001000011400080026
:102FFC000140000A00014C0002000150000020308A
:0F300C0031323334353637383941424344454643
:00000001FF
