:10000000021E95008F828E83E0540100000070F87C
:100010002278FFE4F6D8FD021EF39000EBEFF0909B
:1000200000F3E4F0A3E4F09000ECE4F09000ECE0E6
:10003000FFEFC3940940030200D99000ECE0FFEF0A
:1000400075F00BA42406F582E43400F583E4F09007
:1000500000ECE0FFEF75F00BA42408F582E4340017
:10006000F583E4F09000ECE0FFEF75F00BA42407BB
:10007000F582E43400F583E4F09000ECE0FFEF75E6
:10008000F00BA42409F582E43400F583E4F0900039
:10009000ECE0FFEF75F00BA4240BF582E43400F5DF
:1000A00083E4F09000ECE0FFEF75F00BA4240EF574
:1000B00082E43400F583E4F0A3E4F09000ECE0FF88
:1000C000EF75F00BA42410F582E43400F583E4F01E
:1000D0009000ECE004F002002C9000EBE0FFEF60F9
:1000E0003A9000EEE4F09000EEE0FFEFC39402508F
:1000F0002A9000EEE0FF74692FF582E43400F58366
:10010000E4F09000EEE0FF74782FF582E43400F51F
:1001100083E4F09000EEE004F080CB900001E0FF7B
:10012000EFD394005003020543900001E0FFEF1469
:10013000FF122AE89000F5EEF0A3EFF09000F5E052
:10014000FEA3E0FF8F828E83A3120FBC9000F012FB
:100150000FB39000F0120FAAE92407F9EA3400FA6D
:10016000120DBDFFEF5440FF7E00EF4E6010900077
:1001700000E0FFEF4401FF900000EFF0800E9000E0
:1001800000E0FFEF54FEFF900000EFF09000F5E07C
:10019000FEA3E0FFEF2404FFEE3400FE9000F5EE36
:1001A000F0A3EFF09000F5E0FEA3E0FF8F828E83D6
:1001B000E493FF9000ECEFF09000EE7401F09000FB
:1001C000EEE0FFEFC3940940030204589000F5E00D
:1001D000FEA3E0FF8F828E83A3120FBCAE02AF019D
:1001E0009000F7EEF0A3EFF09000EDE4F09000EC5B
:1001F000E0FF9000EDE0FEEEC39F400302044F904D
:1002000000F7E0FEA3E0FF8F828E83740293FFEF7E
:10021000547FFF7E009000EEE0FD7C00ED6F7002E9
:10022000EC6E600302042E9000F7E0FEA3E0FF8F67
:10023000828E83740493FE740593FF9000EEE0FDBC
:10024000ED75F00BA4240EF582E43400F583E0FC98
:10025000A3E0FDC3ED9FEC9E502C9000F7E0FEA3C1
:10026000E0FF8F828E83740493FE740593FF9000E9
:10027000EEE0FDED75F00BA4240EF582E43400F5FC
:1002800083EEF0A3EFF09000F7E0FEA3E0FF8F8293
:100290008E83E493FF74692FF582E43400F583E0E4
:1002A000FF9000F7E0FCA3E0FD8D828C8374019346
:1002B000FEEF6E600302042E9000F7E0FEA3E0FF65
:1002C0008F828E83740393FFEF5403FF9000EFEF50
:1002D000F09000F7E0FEA3E0FF8F828E837402931C
:1002E000FFEF5480FF7E00EF4E700302036E90001C
:1002F000EEE0FFEF75F00BA42407F582E43400F57F
:10030000837401F09000EFE0FFEFB401047F0780F9
:10031000027F0D9000EEE0FEEE75F00BA4240BF5CD
:1003200082E43400F583EFF09000F7E0FEA3E0FFF5
:100330008F828E83740693FFEF640A60189000F733
:10034000E0FEA3E0FF8F828E83740693FFEF6402CA
:1003500060030203E49000EFE0FFEF640370030228
:1003600003E49000EEE0FF900179EFF080769000DA
:10037000EEE0FFEF75F00BA42407F582E43400F5FE
:1003800083E4F09000EFE0FFEFB401047F0580020A
:100390007F099000EEE0FEEE75F00BA4240BF582D1
:1003A000E43400F583EFF09000F7E0FEA3E0FF8F68
:1003B000828E83740693FFEF640A60149000F7E066
:1003C000FEA3E0FF8F828E83740693FFEFB40214C6
:1003D0009000EFE0FFEF6403600A9000EEE0FF9012
:1003E000017AEFF09000F7E0FEA3E0FF8F828E83AA
:1003F000740293FF9000EEE0FEEE75F00BA4240A69
:10040000F582E43400F583EFF09000F7E0FEA3E01E
:10041000FF8F828E83740393FF9000EEE0FEEE75F3
:10042000F00BA42406F582E43400F583EFF090008D
:10043000F7E0FEA3E0FFEF2407FFEE3400FE90009C
:10044000F7EEF0A3EFF09000EDE004F00201ED9084
:1004500000EEE004F00201BE9000F5E0FEA3E0FF34
:100460008F828E83A3120FBCAE02AF019000F7EE15
:10047000F0A3EFF09000EEE4F09000ECE0FF9000CD
:10048000EEE0FEEEC39F50539000F7E0FEA3E0FFC6
:100490008F828E83E493FF9000F7E0FCA3E0FD8D54
:1004A000828C83740293FEEE547FFEEE75F00BA4F3
:1004B0002410F582E43400F583EFF09000F7E0FEBD
:1004C000A3E0FFEF2407FFEE3400FE9000F7EEF00C
:1004D000A3EFF09000EEE004F0809E1226E490007E
:1004E00075EEF0A3EFF09000EC7401F09000ECE0FA
:1004F000FFEFC3940950499000F3E0FEA3E0FF90A2
:1005000000ECE0FDED75F00BA4240CF582E4340062
:10051000F583EEF0A3EFF09000ECE0FFEF75F00B49
:10052000A4240EF582E43400F583E0FEA3E0FF90FE
:1005300000F3EE8FF0120DE89000ECE004F080ACD8
:10054000121121229000E2E4F07B007A0079009001
:1005500000E4120FB390006BE4F0A3E4F0906000AD
:10056000E0FFEF5480FF7E00EF64804E60030208DE
:1005700012906001E0FFEF120FC8073A00058A06EB
:1005800007C60807E60A000009D5906003E0FFEF00
:10059000B40135122FF29000E9EEF0A3EFF09000D5
:1005A000E9E0FEA3E0FF8F828E83A3120FBC9000D0
:1005B0006D120FB390006BE4F0A37412F012275D7C
:1005C0009000E2EFF00209D5906003E0FFEF6402D3
:1005D000706B906002E0FF122AE89000E9EEF0A351
:1005E000EFF09000E9E0FEA3E0FF8F828E83A3127C
:1005F0000FBC90006D120FB390006D120FAAE9248A
:1006000003F9EA3400FA120DBDFF7E00EF7F00FE11
:1006100090006D120FAAE92402F9EA3400FA120DD3
:10062000BDFD7C00EE4CFEEF4DFF90006BEEF0A3A5
:10063000EFF012275D9000E2EFF00209D590600321
:10064000E0FFEF6403600302072F9000E7E4F07B14
:10065000FF7A32792E9000E4120FB39000E7E0FFAA
:10066000906002E0FEEED39F403D9000E4120FAA9E
:10067000120DBDFFEF60309000E4120FAA120DBD05
:10068000FF9000E8EFF09000E4120FAA9000E8E07D
:10069000FF7E00E92FF9EA3EFA9000E4120FB390D2
:1006A00000E7E004F080B4906002E0FFEFB4EE0CED
:1006B0007BFF7A3279AC9000E4120FB3906002E0D5
:1006C000FFEF60309031E9E493FF906002E0FEEECE
:1006D000B507217BFF7A3279739000E4120FB37B68
:1006E000017A017942121DA37B017A0179429000BF
:1006F000E4120FB39000E4120FAA120DBDFFEF70C9
:10070000030209D59000E4120FAA120DBDFF7E006E
:1007100090006BEEF0A3EFF09000E4120FAA9000AF
:100720006D120FB312275D9000E2EFF00209D512AF
:1007300024579000E2EFF00209D5906000E0FFEF4F
:100740005403FFEF120FC80794000751020000097D
:10075000D590006BE4F0A37402F0906004E0FFEF2A
:10076000547FFFEF75F00BA42408F582E43400F504
:1007700083E0FF900185EFF0900186E4F07B017A41
:1007800001798590006D120FB312275D9000E2EFA2
:10079000F00209D590006BE4F0A37402F090000021
:1007A000E0FF900185EFF0900186E4F07B017A0193
:1007B000798590006D120FB312275D9000E2EFF083
:1007C0000209D50209D590006BE4F0A37401F07B17
:1007D000017A00790190006D120FB312275D90002D
:1007E000E2EFF00209D590006BE4F0A37401F09001
:1007F0006004E0FF74692FF9E43400FA7B01900093
:100800006D120FB312275D9000E2EFF00209D502DE
:1008100009D5906001E0FFEF120FC808B601094E3C
:1008200003082E0508430908630B000009D59060F2
:1008300002E0FF90007AEFF01230279000E2EFF034
:100840000209D5906002E0FF900001EFF090007780
:100850007401F07F0112001A1230279000E2EFF0CD
:100860000209D5122318EF70030209D5906004E045
:10087000FF9000E3EFF09000E3E0FF900073EFF0F3
:100880009000777401F01209DB9000E3E0FF7469D7
:100890002FF582E43400F583E0FF9000E3E0FE747E
:1008A000782EF582E43400F583EFF01230279000C3
:1008B000E2EFF00209D5906000E0FFEF5403FFEF94
:1008C000120FC808E600090C0108D002000009D583
:1008D000906002E0FFEF60030209D51216759000E8
:1008E000E2EFF00209D5906002E0FFEF64016003DF
:1008F0000209D5900000E0FFEF54FDFF900000EFEB
:10090000F01230279000E2EFF00209D5906004E089
:10091000FFEFC3940240030209D5906004E0FF7426
:100920007B2FF582E43400F583C083C082E0FF9022
:100930006002E0FEEEF4FEEF5EFFD082D083EFF0C7
:100940001230279000E2EFF00209D50209D590603D
:1009500000E0FFEF5403FFEF120FC8097A00099C73
:1009600001096802000009D5906002E0FFEF7065A0
:10097000121CAC9000E2EFF0805B906002E0FFEFB1
:1009800064017051900000E0FFEF4402FF9000000E
:10099000EFF01230279000E2EFF08039906004E031
:1009A000FFEFC39402502E906004E0FF747B2FF59C
:1009B00082E43400F583C083C082E0FF906002E0EF
:1009C000FEEEF4FEEF5EFFD082D083EFF012302710
:1009D0009000E2EFF09000E2E0FF22900001E0FFE3
:1009E000EFD394005003020DBC900001E0FFEF1420
:1009F000FF122AE89000F0EEF0A3EFF09000F0E094
:100A0000FEA3E0FFEF2404FFEE3400FE9000F0EEC2
:100A1000F0A3EFF09000F0E0FEA3E0FF8F828E8362
:100A2000E493FF9000EBEFF09000F0E0FEA3E0FF16
:100A30008F828E83A3120FBCAE02AF019000F2EE44
:100A4000F0A3EFF09000EDE4F09000EBE0FF9000F9
:100A5000EDE0FEEEC39F4003020DBC9000F2E0FE0D
:100A6000A3E0FF8F828E83E493FF74782FF582E4F6
:100A70003400F583E0FF9000F2E0FCA3E0FD8D82FE
:100A80008C83E493FE74692EF582E43400F583E0F0
:100A9000FEEE6F7003020D9B9000F2E0FEA3E0FFFC
:100AA0008F828E83E493FF74692FF582E43400F51E
:100AB00083E0FF9000F2E0FCA3E0FD8D828C837464
:100AC0000193FEEF6E6003020D9B9000F2E0FEA327
:100AD000E0FF8F828E83E493FF906004E0FEEF6E70
:100AE0006003020D9B9000F2E0FEA3E0FF8F828E78
:100AF00083740293FFEF547FFF9000ECEFF09000BF
:100B0000ECE0FF7E00EF24FFFFEE34FFFEEFC4F8C1
:100B1000540FC868FFEEC454F048FE9000EFEFF0A9
:100B20009000F2E0FEA3E0FF8F828E83740393FFB8
:100B3000EF5403FF9000EEEFF09000F2E0FEA3E030
:100B4000FF8F828E83740293FFEF5480FF7E00EF4D
:100B50004E603C9000ECE0FFEF75F00BA42407F52D
:100B600082E43400F5837401F09000EEE0FFEFB40E
:100B700001047F0780027F0D9000ECE0FEEE75F02F
:100B80000BA4240BF582E43400F583EFF080399058
:100B900000ECE0FFEF75F00BA42407F582E43400CD
:100BA000F583E4F09000EEE0FFEFB401047F0580F0
:100BB000027F099000ECE0FEEE75F00BA4240BF52B
:100BC00082E43400F583EFF09000EFE0FF7E00EF69
:100BD000240EFFEE3460FE8F828E837401F090004D
:100BE000F2E0FEA3E0FF8F828E83740493FE74050F
:100BF00093FF9000ECE0FDED75F00BA4240EF58260
:100C0000E43400F583EEF0A3EFF09000F2E0FEA3F1
:100C1000E0FF8F828E83740293FF9000ECE0FEEE83
:100C200075F00BA4240AF582E43400F583EFF0900C
:100C300000F2E0FEA3E0FF8F828E83740393FF90A7
:100C400000ECE0FEEE75F00BA42406F582E434001F
:100C5000F583EFF09000ECE0FFEF75F00BA42409B2
:100C6000F582E43400F583E4F09000ECE0FFEF75EA
:100C7000F00BA4240EF582E43400F583E0FEA3E03B
:100C8000FFEEFF7E009000EFE0FEEEFD7C00ED2425
:100C90000CFDEC3460FC8D828C83EFF09000ECE076
:100CA000FFEF75F00BA4240EF582E43400F583E029
:100CB000FEA3E0FFEF54FFFF9000EFE0FEEEFD7CAF
:100CC00000ED240DFDEC3460FC8D828C83EFF09000
:100CD00000ECE0FFEF75F00BA4240CF582E4340087
:100CE000F583E0FEA3E0FFEF54FFFF9000EFE0FE8E
:100CF000EEFD7C00ED2486FDEC3460FC8D828C835F
:100D0000EFF09000ECE0FFEF75F00BA4240CF582FF
:100D1000E43400F583E0FEA3E0FFEEFF7E009000E8
:100D2000EFE0FEEEFD7C00ED2487FDEC3460FC8DF1
:100D3000828C83EFF09000ECE0FFEF75F00BA424C1
:100D40000CF582E43400F583E0FEA3E0FFEF54FFEE
:100D5000FF9000EFE0FEEEFD7C00ED2484FDEC341E
:100D600060FC8D828C83EFF09000ECE0FFEF75F07B
:100D70000BA4240CF582E43400F583E0FEA3E0FF2D
:100D8000EEFF7E009000EFE0FEEEFD7C00ED24859E
:100D9000FDEC3460FC8D828C83EFF09000F2E0FE7D
:100DA000A3E0FFEF2407FFEE3400FE9000F2EEF028
:100DB000A3EFF09000EDE004F0020A4922BB010627
:100DC00089828A83E0225002E722BBFE02E3228965
:100DD000828A83E49322BB010689828A83F02250AF
:100DE00002F722BBFE01F322C5F0F8A3E028F0C50C
:100DF000F0F8E582158270021583E038F022BB011D
:100E00000A89828A83F0E5F0A3F0225006F709A749
:100E1000F01922BBFE06F3E5F009F31922EF2BFFD0
:100E2000EE3AFEED39FDEC38FC22E88FF0A4CC8BD5
:100E3000F0A42CFCE98EF0A42CFC8AF0EDA42CFC90
:100E4000EA8EF0A4CDA8F08BF0A42DCC3825F0FDCF
:100E5000E98FF0A42CCD35F0FCEB8EF0A4FEA9F0C8
:100E6000EB8FF0A4CFC5F02ECD39FEE43CFCEAA414
:100E70002DCE35F0FDE43CFC2275F008758200EFC4
:100E80002FFFEE33FECD33CDCC33CCC58233C582BC
:100E90009BED9AEC99E58298400CF582EE9BFEED75
:100EA0009AFDEC99FC0FD5F0D6E4CEFBE4CDFAE444
:100EB000CCF9A88222B800C1B90059BA002DEC8B38
:100EC000F084CFCECDFCE5F0CBF97818EF2FFFEE14
:100ED00033FEED33FDEC33FCEB33FB10D7039940CD
:100EE00004EB99FB0FD8E5E4F9FA227818EF2FFF0D
:100EF000EE33FEED33FDEC33FCC933C910D7059B4F
:100F0000E99A4007EC9BFCE99AF90FD8E0E4C9FAAA
:100F1000E4CCFB2275F010EF2FFFEE33FEED33FD36
:100F2000CC33CCC833C810D7079BEC9AE899400A59
:100F3000ED9BFDEC9AFCE899F80FD5F0DAE4CDFBD7
:100F4000E4CCFAE4C8F922EF4BFFEE4AFEED49FD8E
:100F5000EC48FC22E8600FECC313FCED13FDEE132C
:100F6000FEEF13FFD8F122E8600FEFC333FFEE333B
:100F7000FEED33FDEC33FCD8F122E0FCA3E0FDA351
:100F8000E0FEA3E0FF22E0F8A3E0F9A3E0FAA3E08B
:100F9000FB22ECF0A3EDF0A3EEF0A3EFF022A425EA
:100FA00082F582E5F03583F58322E0FBA3E0FAA326
:100FB000E0F922EBF0A3EAF0A3E9F022E493FB745A
:100FC0000193FA740293F922D083D082F8E49370EB
:100FD00012740193700DA3A393F8740193F58288A2
:100FE00083E4737402936860EFA3A3A380DFE50C2E
:100FF0002582F582E50B3583F583B50B0485820CDC
:101000002210AF0685820CF50B2285820CF50BD2DF
:10101000AF22EC8EF0A4CCC5F0CCCDF8EFA4CEC5B9
:10102000F02DFDE43CFCE8A42EC8C5F03DFDE43CF9
:10103000FCEFA4FFE5F028FEE43DFDE43CFC22E7E4
:1010400009F608DFFA8046E709F208DFFA803E88F1
:10105000828C83E709F0A3DFFA8032E309F608DF28
:10106000FA806EE309F208DFFA806688828C83E3F7
:1010700009F0A3DFFA805A89828A83E0A3F608DFA9
:10108000FA804E89828A83E0A3F208DFFA804280E8
:10109000D280FA80C680D4805580F280298010806A
:1010A000A680EA809A80A880DA80E280CA802988B7
:1010B000848C8589828A83E493A30586F0A30586C0
:1010C000DFF5DEF3800B89828A83E493A3F608DFE1
:1010D000F9ECFAA9F0EDFB2288848C8589828A8359
:1010E000E0A30586F0A30586DFF6DEF480E38982BF
:1010F0008A83E493A3F208DFF980D688F0EF6001D9
:101100000E4E60CD88F0ED2402B4040050C3F58289
:10111000EB2402B4040050B9232345822390108F9E
:10112000739000F97401F09000FAE4F09000FAE096
:10113000FFEFC39480400302130F9000FAE0FF7E9C
:1011400000EF2480FFEE3460FE8F828E83740CF0FB
:101150009000F9E0FFEF75F00BA4240BF582E43466
:1011600000F583E0FFEF604F9000F9E0FFEF75F0CE
:101170000BA4240AF582E43400F583E0FFEF5480E9
:10118000FF7E00EF4E60189000FAE0FF7E00EF2433
:101190000EFFEE3460FE8F828E83740CF0802E90F2
:1011A00000FAE0FF7E00EF240EFFEE3460FE8F8237
:1011B0008E837408F080169000FAE0FF7E00EF2422
:1011C0000EFFEE3460FE8F828E837480F09000F903
:1011D000E0FFEF75F00BA4240EF582E43400F583F4
:1011E000E0FEA3E0FFEEFF7E009000FAE0FEEEFDE1
:1011F0007C00ED240CFDEC3460FC8D828C83EFF0E0
:101200009000F9E0FFEF75F00BA4240EF582E434B2
:1012100000F583E0FEA3E0FFEF54FFFF9000FAE04B
:10122000FEEEFD7C00ED240DFDEC3460FC8D828C27
:1012300083EFF09000F9E0FFEF75F00BA4240CF5BC
:1012400082E43400F583E0FEA3E0FFEF54FFFF905B
:1012500000FAE0FEEEFD7C00ED2486FDEC3460FC3F
:101260008D828C83EFF09000F9E0FFEF75F00BA416
:10127000240CF582E43400F583E0FEA3E0FFEEFFEA
:101280007E009000FAE0FEEEFD7C00ED2487FDEC90
:101290003460FC8D828C83EFF09000F9E0FFEF75F5
:1012A000F00BA4240CF582E43400F583E0FEA3E007
:1012B000FFEF54FFFF9000FAE0FEEEFD7C00ED240E
:1012C00084FDEC3460FC8D828C83EFF09000F9E0BB
:1012D000FFEF75F00BA4240CF582E43400F583E0F5
:1012E000FEA3E0FFEEFF7E009000FAE0FEEEFD7C44
:1012F00000ED2485FDEC3460FC8D828C83EFF09052
:1013000000F9E004F09000FAE02410F002112C90B3
:10131000600A74FFF0229000D0EFF09000D1120F1D
:10132000B39000D0E0FFEFD3940050030214E2909A
:1013300000D0E0FFEFC3940940030214E29000D014
:10134000E0FF7E00EF24FFFFEE34FFFEEFC4F85411
:101350000FC868FFEEC454F048FE9000D6EFF0903E
:1013600000D6E0FF7E00EF2488FFEE3460FE9000A0
:10137000D7EEF0A3EFF09000D0E0FFEF75F00BA4F4
:10138000240CF582E43400F583E0FEA3E0FFC3E41F
:101390009FFF74029EFE9000D4E0FCA3E0FDD3ED1D
:1013A0009FEC9E40289000D0E0FFEF75F00BA42446
:1013B0000CF582E43400F583E0FEA3E0FFC3E49F74
:1013C000FF74029EFE9000D4EEF0A3EFF09000D4E4
:1013D000E0FEA3E0FFEEFF7E009000D0E0FEEE75A1
:1013E000F00BA42409F582E43400F583E0FEEF4E0F
:1013F000FF9000D6E0FEEEFD7C00ED240CFDEC3409
:1014000060FC8D828C83EFF09000D4E0FEA3E0FFBF
:10141000EF54FFFF9000D6E0FEEEFD7C00ED240DC2
:10142000FDEC3460FC8D828C83EFF07B007A0079D8
:1014300000C003C002C0019000D1120FAAD082D018
:1014400083D0E06B7008E965827003EA65836051C0
:101450009000D9E4F0A3E4F09000D4E0FEA3E0FF14
:101460009000D9E0FCA3E0FDC3ED9FEC9E503290CC
:1014700000D1120FAA9000D9E0FEA3E0FFE92FF9F6
:10148000EA3EFA120DBDFF9000D7E0FCA3E0FD8D0F
:10149000828C83EFF09000D9E475F001120DE880A2
:1014A000B79000D0E0FFEF75F00BA42407F582E4BD
:1014B0003400F583E4F09000D0E0FFEF75F00BA46A
:1014C000240BF582E43400F583E0FF9000D6E0FEC3
:1014D000EEFD7C00ED240EFDEC3460FC8D828C83EF
:1014E000EFF02290480074F1F0121A857B007A46E2
:1014F00079E812319BEF4405FD7B007A4679E812CA
:1015000031A7750A00E50AC39408503AAF0AEF758F
:10151000F005A424E6F582E43432F583AF82AE838D
:101520008E088F09AE08AF098F828E83120FBCAE72
:1015300008AF098F828E83740393FC740493FD12A9
:101540003041050A80BF7B087A007900122DFE7BAE
:10155000017A50790312319BEF4402FD7B017A50EE
:1015600079031231A77B017A50791312319BEF4432
:1015700002FD7B017A5079131231A79043A0E0FF5E
:10158000EF4440FF9043A0EFF09043C2E0FFEF44F0
:1015900010FF9043C2EFF07B087A017944C003C08A
:1015A00002C0017B007A517902900085120FB3D0FE
:1015B00001D002D0037F087E00122D3B7B087A0108
:1015C000794CC003C002C0017B007A5179F09000D1
:1015D00085120FB3D001D002D0037F0A7E00122DF6
:1015E0003B7B087A017958C003C002C0017B007AB6
:1015F000517962900085120FB3D001D002D0037FE1
:10160000087E00122D3B9044F47401F0904322E0D8
:10161000FFEF4408FF904322EFF09046ECE0FFEF2D
:10162000C394055006904689743AF07B017A50794C
:10163000077D401231A77B017A5079177D40123126
:10164000A7122C857B007A4379A0C003C002C00199
:101650007B007A4379B0900085120FB3D001D0029D
:10166000D0037F0E7E00122D3B9043B0E0FFEF547D
:10167000FDFFEFF0229000EDE4F0906004E0FFEF5A
:10168000547FFF9000EBEFF09000EBE0FF7E00EF67
:1016900024FFFFEE34FFFEEFC4F8540FC868FFEEDE
:1016A000C454F048FE9000ECEFF09000EBE0FFEF48
:1016B000D3940050030217E39000EBE0FFEFC394D4
:1016C0000940030217E39000EBE0FFEF75F00BA475
:1016D0002408F582E43400F583E0FFEF54FEFFEFC9
:1016E000F09000EBE0FFEF75F00BA42409F582E425
:1016F0003400F583E4F09000ECE0FF7E00EF240C72
:10170000FFEE3460FE8F828E83E0FFEF547FFFEFA9
:10171000F09000EBE0FFEF75F00BA42407F582E4F6
:101720003400F583E0FFEF54FDFFEFF09000EBE0B5
:10173000FFEF75F00BA4240AF582E43400F583E092
:10174000FFEF5480FF7E00EF4E60499000EBE0FF1A
:10175000EF75F00BA42407F582E43400F583E0FF75
:10176000EFB401189000ECE0FF7E00EF240EFFEED6
:101770003460FE8F828E83740CF0805F9000ECE00A
:10178000FF7E00EF240EFFEE3460FE8F828E8374A6
:101790000DF080479000EBE0FFEF75F00BA42407FD
:1017A000F582E43400F583E0FFEFB401189000EC1B
:1017B000E0FF7E00EF240EFFEE3460FE8F828E830A
:1017C0007408F080169000ECE0FF7E00EF240EFF1E
:1017D000EE3460FE8F828E837409F0123027900001
:1017E000EDEFF09000EDE0FF22C0E0C0F0C083C05C
:1017F00082C085C084C086758600C093759300C082
:10180000D075D000C000C001C002C003C004C00534
:10181000C006C007906028E0FF9000DFEFF0900066
:10182000DFE0FFEF5410FF7E00EF4E700302193728
:101830009000E07401F09000DFE0FFEF5480FF7E45
:1018400000EF4E60319000DFE0FFEF540FFF7E00AD
:10185000EF64014E60079000E0E4F080461224E15E
:10186000900002E0FFEF5480FF7E00EF4E60349066
:1018700000E0E4F0802D9000DFE0FFEF5440FF7EB9
:1018800000EF4E6005122F2F80199000DFE0FFEF70
:101890005420FF7E00EF4E6005122E598005900007
:1018A000E0E4F09000E0E0FFEF7003021937906091
:1018B00028E0FF9000DFEFF09000DFE0FFEF5480C2
:1018C000FF7E00EF4E7070900005E0FF90007DE01D
:1018D000FEEE4FFF9000DFEFF09000DFE0FF906042
:1018E00029EFF0906029E0FF9000DFE0FEEE6F70DE
:1018F00046900002E0FF9000E0EFF0906028E0FFEB
:10190000EF5480FF9000DFEFF09000DFE0FFEF701A
:1019100018900002E0FF906028EFF0906028E0FF50
:10192000EF540FFF9000E0EFF0900002E0FF900016
:10193000E0E0FEEEB507BAD007D006D005D004D05F
:1019400003D002D001D000D0D0D093D086D084D0A4
:1019500085D082D083D0F0D0E0329000CEEFF090EE
:1019600000CF120FB39000CEE0FFEFD394005003EE
:10197000021A749000CEE0FFEFC394094003021AEC
:10198000747B007A007900C003C002C0019000CFD0
:10199000120FAAD082D083D0E06B7008E965827004
:1019A00003EA65837003021A749000CEE0FF7E00A4
:1019B000EF24FFFFEE34FFFEEFC4F8540FC868FFBA
:1019C000EEC454F048FE9000D4EFF09000D4E0FF55
:1019D0007E00EF2488FFEE3460FE9000D5EEF0A389
:1019E000EFF09000CEE0FF12210B9000D9EEF0A3B3
:1019F000EFF09000D9E0FEA3E0FF9000D2E0FCA35E
:101A0000E0FDD3ED9FEC9E40109000D9E0FEA3E0F6
:101A1000FF9000D2EEF0A3EFF09000D7E4F0A3E443
:101A2000F09000D2E0FEA3E0FF9000D7E0FCA3E03E
:101A3000FDC3ED9FEC9E50329000D5E0FEA3E0FF89
:101A40008F828E83E0FF9000CF120FAA9000D7E024
:101A5000FCA3E0FDE92DF9EA3CFAEF120DD6900067
:101A6000D7E475F001120DE880B79000CEE0FF12C8
:101A700025EC80089000D2E4F0A3E4F09000D2E0DE
:101A8000FEA3E0FF227B007A4079807DE77C031291
:101A90003172904082741BF07B007A4079847D63C0
:101AA0007C00123172904086741BF09043007406E3
:101AB000F09042007452F07B0C7A01790F12319B46
:101AC0009046A1EFF07B007A4279227D187C0812C3
:101AD00031727B007A4279207D517C1212317290F2
:101AE0000084E4F07F197E007D007C00900080126D
:101AF0000F92900080120F7AD3EF9400EE94004082
:101B00004E900084E0FFEF64036044904225E0FFC4
:101B1000EF5401FF7E00900084E0FEEE25E0FEEE33
:101B20004FFFEF5403FF900084EFF07FE07E017DD4
:101B3000007C00122D00900080120F7A7BFF7AFF4C
:101B400079FF78FF120E1D900080120F9280A390F3
:101B50000080120F7AEF4E70057F0312312F7B0049
:101B60007A4079047D007C01123172904004740740
:101B7000F0904006E4F09040087448F0904004E48F
:101B8000F0904009E4F09040017402F09043A2E02C
:101B9000FFEF4403FF9043A2EFF0221230F49000D5
:101BA000CDEFF09043A5E0FFEF4401FFEFF090434D
:101BB000B5E0FFEF4401FFEFF090609D7401F090FD
:101BC00060097402F0906010E0FFEF547FFFEFF0C7
:101BD0007F007E00122E2C904394E0FFEF54F9FF1B
:101BE000EFF0906012E0FFEF54DFFFEFF0904394CE
:101BF000E0FFEF4401FFEFF07F017E00122E2C7F0B
:101C0000287E00122E2C9051F8E0FFEF547FFFEF5A
:101C1000F09051F8E0FFEF54BFFFEFF0904394E0F5
:101C2000FFEF4402FFEFF07F027E00122E2C904364
:101C300094E0FFEF4404FFEFF0906084E4F09060E4
:101C400085E4F09000CDE0FF12305A7C2B7D977F29
:101C50001712256A7D067F17122A2A7C2E7D2B7F7C
:101C60001512256A7D067F15122A2A7C177DE97FC9
:101C70001812256A7D067F18122A2A7C287D327F59
:101C80000212256A7D067F02122A2A7C287D997F0E
:101C90000312256A7D067F03122A2A7C297D007F94
:101CA0000412256A7D067F04122A2A229000EDE4A0
:101CB000F0906004E0FFEF547FFF9000EBEFF090B6
:101CC00000EBE0FF7E00EF24FFFFEE34FFFEEFC4E9
:101CD000F8540FC868FFEEC454F048FE9000ECEFD3
:101CE000F09000EBE0FFEFD394005003021D9D90B5
:101CF00000EBE0FFEFC394094003021D9D9000EB51
:101D0000E0FFEF75F00BA42408F582E43400F583BE
:101D1000E0FFEF4401FFEFF09000EBE0FFEF75F024
:101D20000BA42409F582E43400F583E4F09000EB81
:101D3000E0FFEF75F00BA42407F582E43400F5838F
:101D4000E0FFEF4402FFEFF09000EBE0FFEF75F0F3
:101D50000BA4240AF582E43400F583E0FFEF5480FD
:101D6000FF7E00EF4E60189000ECE0FF7E00EF2455
:101D70000EFFEE3460FE8F828E83748DF08016909D
:101D800000ECE0FF7E00EF240EFFEE3460FE8F8259
:101D90008E837489F01230279000EDEFF09000ED03
:101DA000E0FF229000EB120FB39000EFE4F07B0015
:101DB0007A007900C003C002C0019000EB120FAAA4
:101DC000D082D083D0E06B7008E965827003EA6549
:101DD000837003021E949000EB120FAA7422120D5E
:101DE000D69000EB120FAAE92401F9EA3400FA7444
:101DF00003120DD69000EE7402F09000EEE0FFEFBB
:101E0000C394224003021E949000EFE0FFE4FCFD27
:101E1000FEEF2400FFEE3401FEED340CFDEC340047
:101E2000FCA907AA06AB0512319B9000F0EFF090D9
:101E300000EFE004F09000F0E0FFEFC4540FFFEF7C
:101E400090330E93FF9000EB120FAA9000EEE0FE8D
:101E5000E92EF9E43AFAEF120DD69000F0E0FFEF28
:101E6000540FFFEF90330E93FF9000EEE0FEEEFD77
:101E70007C00ED2402FDEC3400FC9000EB120FAA74
:101E8000E92DF9EA3CFAEF120DD69000EEE02404B9
:101E9000F0021DFA2275930078007583467582E87A
:101EA000E04401F0009046ECE0F99046FAE0FAB91F
:101EB00003225420B40012B8001AEA901FFFF074F5
:101EC00001901FFEF09046F6F0901FFEE060059036
:101ED0001FFFE0FA90480074C0F075810C9000007C
:101EE00078007920E4F0A3D8FCD9FAEA90016DF0EB
:101EF000020011750B1F750CFD1214E3021F3A024C
:101F00003141E493A3F8E493A34003F68001F2087F
:101F1000DFF48029E493A3F85407240CC8C333C426
:101F2000540F4420C8834004F456800146F6DFE491
:101F3000800B0102040810204080902D6FE47E0188
:101F40009360BCA3FF543F30E509541FFEE493A304
:101F500060010ECF54C025E060A840B8E493A3FA16
:101F6000E493A3F8E493A3C8C582C8CAC583CAF0A2
:101F7000A3C8C582C8CAC583CADFE9DEE780BE90B0
:101F800000F0E4F0900074E0FF7E00900003EE8F1C
:101F9000F0120DE890006BE0FEA3E0FFD3EF940099
:101FA000EE940040539000F0E0FFEFC394085048D7
:101FB00090006D120FAA120DBDFF9000F0E0FEEE32
:101FC000FD7C00ED2400FDEC3460FC8D828C83EF01
:101FD000F090006D120FAAE92401F9EA3400FA909A
:101FE000006D120FB39000F0E004F090006B74FFEE
:101FF00075F0FF120DE8809C900074E0FFEF64081C
:10200000600B9000F0E0FFEFD39400401C90007D47
:10201000E0FFEF6480FF90007DEFF0900002740F0E
:10202000F090007E7402F0800C9000027402F09038
:10203000007E7402F09000F0E0FF900074EFF090EA
:1020400000F0E0FF900005EFF0229000EDE4F0904A
:102050006000E0FFEF5480FF7E00EF64804E70313F
:10206000906001E0FFEF120FC820702100002105F1
:1020700090006BE4F0A37407F07B017A0179729011
:10208000006D120FB312275D9000EDEFF0807680A7
:1020900074906000E0FFEF5480FF7E00EF4E7065AB
:1020A000906001E0FFEF120FC820B32020E0220073
:1020B00000210590006BE4F0A37407F07B017A0126
:1020C000797290006D120FB390017BE0FFEF440135
:1020D000FF90017BEFF0122A899000EDEFF0802550
:1020E000906002E0FF7E0090017CEEF0A3EFF090A4
:1020F000017BE0FFEF4402FF90017BEFF0123027FD
:102100009000EDEFF09000EDE0FF229000DBEFF0AB
:102110009000DDE4F0A3E4F09000DBE0FFEFD39467
:102120000050030221B79000DBE0FFEFC3940940A9
:10213000030221B79000DBE0FF7E00EF24FFFFEEFB
:1021400034FFFEEFC4F8540FC868FFEEC454F048E3
:10215000FE9000DCEFF09000DCE0FF7E00EF240C4E
:10216000FFEE3460FE8F828E83E0FFEF540FFF7E20
:10217000009000DDEEF0A3EFF09000DCE0FF7E00C9
:10218000EF240DFFEE3460FE8F828E83E0FFEFFDC3
:102190007C009000DDE0FEA3E0FFEF7F00FEEE4C50
:1021A000FEEF4DFF9000DDEEF0A3EFF09000DD7448
:1021B000FF75F0FE120DE89000DDE0FEA3E0FF22C7
:1021C0009000E2E4F0906029E0FFEF540FFFEF246D
:1021D000FEFF9000E1EFF09000E1E0FF7E00900054
:1021E00003EE8FF0120DE890006BE0FEA3E0FFD34A
:1021F000EF9400EE940040579000E1E0FFEFD3949D
:1022000000404C9000E2E0FF7E00EF2400FFEE343F
:1022100060FE8F828E83E0FF90006D120FAAEF1296
:102220000DD690006D120FAAE92401F9EA3400FAE4
:1022300090006D120FB39000E2E004F09000E1E036
:1022400014F090006B74FF75F0FF120DE880989009
:1022500000E1E0FF900005EFF090007DE0FFEF640B
:1022600080FF90007DEFF0900002740BF022C0E040
:10227000C0F0C083C082C085C084C086758600C09F
:1022800093759300C0D075D000C000C001C002C0DB
:1022900003C004C005C006C00712311C7F01122D07
:1022A000D07D017F00122F061231CFEF60FA12317C
:1022B00081123088EF60347B017A00798A122CBB5E
:1022C000900088EEF0A3EFF0900088E0FEA3E0FF1E
:1022D000EF4E601712309EEF60FA7B017A00798A28
:1022E000900088E0FCA3E0FD12266B122EDC90002B
:1022F000CAEFF080BCD007D006D005D004D003D000
:1023000002D001D000D0D0D093D086D084D085D058
:1023100082D083D0F0D0E0329000EB7401F0906076
:1023200004E0FF9000ECEFF0900001E0FFEF14FFFD
:10233000122AE89000EDEEF0A3EFF09000EDE0FE41
:10234000A3E0FF8F828E83A3120FBCE92404F9EA75
:102350003400FA120DBDFF9000EFEFF09000EFE0B7
:10236000FF9000ECE0FEEEC39F500B9000ECE0FF0E
:10237000EFC3940240079000EBE4F080389000EC4B
:10238000E0FF74692FF582E43400F583E0FF9000EC
:10239000ECE0FE74782EF582E43400F583EFF090E3
:1023A0006002E0FF9000ECE0FE74692EF582E434F8
:1023B00000F583EFF09000EBE0FF229000CDEFF00E
:1023C0009000CEEDF09044C27480F09044C374014C
:1023D000F09044C07404F09044C07408F09044C07D
:1023E0007410F090007EE4F09000CEE0FFEF120F4A
:1023F000C823FB002403010000240B906009740231
:10240000F0800E9060097403F080069060097403F8
:10241000F09000CDE0FF90007FEFF0900001E4F03D
:10242000900073E4F0900077E4F090007AE4F0908C
:102430000000E4F0900074E4F09060287403F090E1
:1024400060087480F07F017E007D007C00122D000A
:102450009060127404F0229000EBE4F09000ECE441
:10246000F0906000E0FFEF5403FFEF120FC82478F4
:1024700001248402000024A2906004E0FF9000EC9C
:10248000EFF0801E906004E0FFEF547FFFEF75F0E7
:102490000BA42410F582E43400F583E0FF9000ECF7
:1024A000EFF09000ECE0FF900075E0FCA3E0FD8D04
:1024B000828C83E5822FF582E43583F583E493FFF4
:1024C000EF120FC824DB0124D30224DB0300002415
:1024D000DB800812204A9000EBEFF09000EBE0FF69
:1024E00022906028E0FF9000E1EFF09000E1E0FF33
:1024F000906028EFF0906028E0FF9000E1EFF0900E
:1025000000E1E0FFEF5480FF7E00EF4E600B900093
:10251000E1E0FF900002EFF0227F02122967906055
:1025200000E0FFEF5460FFEF120FC825380025428E
:1025300020254C40000025561205449000E1EFF0A4
:1025400080191224579000E1EFF0800F122BE890D1
:1025500000E1EFF080059000E1E4F09000E1E0FFA1
:10256000EF70069000027403F0229000CEEFF0901E
:1025700000CFECF0A3EDF09000CEE0FFEFD3941F7E
:102580005003D38001C340057F001230DF9000CE9E
:10259000E0FFEF541FFF7E00EF25E0FFEE33FEEF7C
:1025A0002400FFEE3444FEAA06A9077B0112316520
:1025B0009000D1EEF0A3EFF09000CEE0FF7E02EFAE
:1025C0008EF0A4FFAEF0EF2400FFEE3444FEAA0626
:1025D000A9077B019000CFE0FEA3E0FFAD07AC06AA
:1025E0001231749000D1E0FEA3E0FF229000DBEFF7
:1025F000F09000DBE0FFEFD39400406E9000DBE052
:10260000FFEFC3940950639000DBE0FF7E00EF24EE
:10261000FFFFEE34FFFEEFC4F8540FC868FFEEC4AE
:1026200054F048FE9000DCEFF09000DBE0FFEF7527
:10263000F00BA42407F582E43400F583E4F0900065
:10264000DBE0FFEF75F00BA4240BF582E43400F51A
:1026500083E0FF9000DCE0FEEEFD7C00ED240EFD4B
:10266000EC3460FC8D828C83EFF0229000CB120F53
:10267000B39000CEECF0A3EDF0900179E0FFEF75A0
:10268000F00BA4240EF582E43400F583E0FEA3E011
:10269000FF9000CEE0FCA3E0FDD3ED9FEC9E402533
:1026A000900179E0FFEF75F00BA4240EF582E4347D
:1026B00000F583E0FEA3E0FF9000CEEEF0A3EFF084
:1026C0007F001230DF900179E0FF9000CB120FAA5B
:1026D0009000CEE0FCA3E0FD9000D4ECF0A3EDF080
:1026E00012131622900001E0FFEF14FF122AE89067
:1026F00000F9EEF0A3EFF09000F9E0FEA3E0FF8F09
:10270000828E83A3120FBCE92404F9EA3400FA1282
:102710000DBDFF9000FBEFF09000FBE0FF7E00EFAF
:102720002402FFEE3400FEEF7802C333CE33CED85E
:10273000F9FF9000F9E0FCA3E0FDEF2DFFEE3CFE79
:102740009000F9EEF0A3EFF09000F9E0FEA3E0FFB7
:102750008F828E83A3120FBCAE02AF012290006B5A
:10276000E0FEA3E0FFEF4E7005122F978058900017
:102770007E7402F090007DE4F0122C38906007E047
:10278000FF7E00EF7F00FE906006E0FD7C00EE4CD7
:10279000FEEF4DFF9000EEEEF0A3EFF09000EEE0C4
:1027A000FEA3E0FF90006BE0FCA3E0FDD3ED9FEC07
:1027B0009E40109000EEE0FEA3E0FF90006BEEF074
:1027C000A3EFF0121F7F7F0122906008E0FFEF541B
:1027D0007FFFEFF0906012E0FFEF54FBFFEFF0900F
:1027E00043A5E0FFEF54FEFFEFF09043B5E0FFEFAD
:1027F00054FEFFEFF09044CA7480F09044CB740113
:10280000F09044C87404F09044C87408F09044C830
:102810007410F0900001E4F0900073E4F090007701
:10282000E4F090007AE4F0900000E4F0900188E495
:10283000F022C0E0C083C082C085C084C086758697
:1028400000C093759300C0D075D000C006C007903B
:10285000600EE0FF900011E0FFEF5403FF7E00EFF9
:1028600064014E600E900014E0FFEF6480FF900062
:1028700014EFF09000127401F090600BE0FFEF5441
:10288000FEFFEFF0D007D006D0D0D093D086D08412
:10289000D085D082D083D0E032C0E0C083C082C077
:1028A00085C084C086758600C093759300C0D075BE
:1028B000D000C006C00790601EE0FF90001CE0FF43
:1028C000EF5403FF7E00EF64014E600E90001FE0A6
:1028D000FFEF6480FF90001FEFF090001D7401F087
:1028E00090600BE0FFEF54FDFFEFF0D007D006D073
:1028F000D0D093D086D084D085D082D083D0E0321F
:10290000C0E0C083C082C085C084C086758600C018
:1029100093759300C0D075D000C006C00790602E9C
:10292000E0FF900027E0FFEF5403FF7E00EF64011B
:102930004E600E90002AE0FFEF6480FF90002AEFC7
:10294000F09000287401F090600BE0FFEF54FBFF63
:10295000EFF0D007D006D0D0D093D086D084D085E9
:10296000D082D083D0E0329000E2EFF07B007A009A
:102970007900C003C002C001900070120FAAD0827B
:10298000D083D0E06B7008E965827003EA658360EC
:10299000379000E2E0FF900070120FAAEF120DD600
:1029A000900003E0FEA3E0FF900070120FAAE9245C
:1029B00001F9EA3400FAEE8FF0120DFE7B007A0086
:1029C0007900900070120FB322904F00E0FFEF5497
:1029D00001FFEFF0904F02E0FFEF54FCFFEFF090AB
:1029E0004F0BE0FFEF54CFFFEFF0904F0BE0FFEF06
:1029F0004430FFEFF0904F0BE0FFEF54F0FFEFF0AB
:102A0000904F0BE0FFEF440FFFEFF0904F01E0FF1E
:102A1000EF4401FFEFF07FF37E01122EB27FF37ED1
:102A20000112300D7F00122CF0229000CEEFF090BA
:102A300000CFEDF09000CFE0FFEFD394075003D329
:102A40008001C340057F001230DF9000CEE0FFEF31
:102A5000D3941F5003D38001C340057F001230DFA1
:102A60009000CFE0FFEF5407FF7E00EF75F020A449
:102A7000FFAEF09000CEE0FEEE541FFE74802EF507
:102A800082E43444F583EFF02290007E7404F090E9
:102A9000007D7480F0122C38906007E0FF7E00EF1C
:102AA0007F00FE906006E0FD7C00EE4CFEEF4DFFE7
:102AB0009000EEEEF0A3EFF09000EEE0FEA3E0FF5A
:102AC00090006BE0FCA3E0FDD3ED9FEC9E401090E6
:102AD00000EEE0FEA3E0FF90006BEEF0A3EFF090BD
:102AE0000002740BF07F01229000FCEFF090007F59
:102AF000E0FFEF25E025E024A9F582E43432F583F8
:102B0000120FBCAE02AF019000FDEEF0A3EFF0900B
:102B100000FDE0FEA3E0FF8F828E83C083C0829021
:102B200000FCE0FFD082D08375F004EF120F9EE529
:102B3000822405F582E5833400F583120FBCAE02D2
:102B4000AF0122C0E0C0F0C083C082C085C084C095
:102B500086758600C093759300C0D075D000C00004
:102B6000C001C002C003C004C005C006C0071227D0
:102B7000C912318FD007D006D005D004D003D002BF
:102B8000D001D000D0D0D093D086D084D085D08250
:102B9000D083D0F0D0E032C0E0C0F0C083C082C0AB
:102BA00085C084C086758600C093759300C0D075BB
:102BB000D000C000C001C002C003C004C005C006F0
:102BC000C007122DA0D007D006D005D004D003D066
:102BD00002D001D000D0D0D093D086D084D085D080
:102BE00082D083D0F0D0E0329000E2E4F090600038
:102BF000E0FFEF5480FF7E00EF64804E7034906001
:102C000001E0FFEF120FC82C0E0100002C327BFFF9
:102C10007A3279BE90006D120FB39032BEE493FF0A
:102C20007E0090006BEEF0A3EFF012275D9000E2C3
:102C3000EFF09000E2E0FF22900003E4F0A3E4F064
:102C40007B007A007900C003C002C00190007012BE
:102C50000FAAD082D083D0E06B7008E96582700340
:102C6000EA6583601F900070120FAAE4120DD690DF
:102C70000070120FAAE92401F9EA3400FAE475F0B1
:102C800000120DFE227B0C7A0179CF12319B90004D
:102C900080EFF0900080E0FFEF5407FF90586EEF58
:102CA000F0900080E0FFEFC4540FFFEF540FFF904F
:102CB000586FEFF09058767444F0229000CB120FCA
:102CC000B390017AE0FF9000CB120FAA90017AE056
:102CD000FEEE75F00BA4240EF582E43400F583E0DB
:102CE000FCA3E0FD9000D2ECF0A3EDF012195A2203
:102CF000900080EFF0900080E0FF904F03EFF02213
:102D0000EC4D4E700D78FCEF24E950032840FD2275
:102D100000007BF178DA0000EF28FF78FFEE38FE44
:102D2000ED38FDEC38FC50E7EF2BFFEE38FEED38C8
:102D3000FDEC38FC40F22205020304758600EF4EDC
:102D40006027EF60010E759300900085E0F595A374
:102D5000E0F585A3E0F5848B938A838982E0A3055F
:102D600086F0A31586DFF6DEF4E4F593F5952242AE
:102D7000018300004101870044016903D0900044B1
:102D800001640000FA004101684044016E7D0000CA
:102D9000004101880043017E0000004101890000DC
:102DA00090007EE4F0900001E4F0900073E4F09075
:102DB0000077E4F090007AE4F0900000E4F09000F6
:102DC00074E4F09060287403F09060087480F0223E
:102DD0009000CBEFF0905100E0FFEF54FDFF90002A
:102DE000CCEFF09000CBE0FFEF25E0FFEF5402FFC7
:102DF0009000CCE0FEEF4EFF905100EFF022ACEAE5
:102E0000ADA08B938A838982E0F96017A3E0F5EA8D
:102E1000A3E0F5A0A3E060F4FAA3E0F8A3E0F2DAFF
:102E2000F8D9E98DA08CEAE4F5932232EEFA90010C
:102E300068E0F88FF0A4FFAEF0E88AF0A42EFEE57B
:102E4000F03400FDEF24C9FF78FFEE38FEED38FDC9
:102E5000E438FC5003022D002290007EE0FFEF12C8
:102E60000FC82E85002E72022E76042E7A060000E0
:102E70002E85122F76221221C0227F0312296790FD
:102E800000027403F02290007AE0FFEF60139000DC
:102E90007AE0FFEF4480FF906008EFF090007AE462
:102EA000F090007EE4F07F01122967900002740325
:102EB000F022900080EEF0A3EFF0900080E0FEA3FF
:102EC000E0FF900082EEF0A3EFF07B027A4F7904EE
:102ED000900082E0FCA3E0FD123174229000CBE46C
:102EE000F090007EE0FFEF701790017BE0FFEF6055
:102EF0000F90017BE0FF9000CBEFF090017BE4F0BE
:102F00009000CBE0FF229000CBEFF09000CCEDF0F2
:102F1000900188E0FFEF7009121B9B9001887401FB
:102F2000F09000CBE0FF9000CCE0FD1223BB22909C
:102F3000007EE0FFEF120FC82F53002F48022F4CE6
:102F4000042F500600002F531231D5221231522285
:102F5000122E86229043A3E0FFEF4401FFEFF09092
:102F600043B3E0FFEF4401FFEFF0904F00E0FFEFCD
:102F70004401FFEFF022900074E0FF7E0090000318
:102F8000EE8FF0120DE890007EE4F07F01122967C9
:102F90009000027403F02290007E7402F090007D95
:102FA0007480F0900002740FF0900074E4F09000D0
:102FB00005E4F07F0122900080EEF0A3EFF07B02A9
:102FC0007A447900900080E0FEA3E0FFAD07AC06F4
:102FD000123174229000CBEEF0A3EFF07B027A4422
:102FE00079029000CBE0FEA3E0FFAD07AC06123102
:102FF000742290007FE0FFEF25E025E024A9F58210
:10300000E43432F583120FBCAE02AF01229000808F
:10301000EEF0A3EFF07B027A4F7906900080E0FC9F
:10302000A3E0FD1231742290007E7406F09000023D
:103030007406F090007D7480F0900005E4F07F014C
:1030400022EC4D6011ED60010C8B938A838982E440
:10305000F0A3DDFCDCFA75930022EF54016004D28A
:10306000AF8002C2AFEF5402FF9044F4E054FD4F32
:10307000F022900080EFF0900080E0FFEFC4335426
:10308000E0FF904480EFF02290017AE0FFEF75F0CE
:103090000BA42407F582E43400F583E0FF229001BD
:1030A00079E0FFEF75F00BA42407F582E43400F516
:1030B00083E0FF229000CBEFF09000CBE0FFEFC465
:1030C0003354E0FF904481EFF022900187E0FFEF5E
:1030D00070091229C99001877401F0122F542290AF
:1030E000FFFF120FEEEFF09046EA7401F09000013E
:1030F000120FEE229044F4E0F84402F0E85402FF8C
:1031000010AF012274014FFF221231BA7E227F6E6E
:10311000122FB67F071230721231B3221231C87EDD
:103120002B7F43122FD47F051230B41231C122906D
:103130000085EFF0900085E0FF900085EFF080FEC5
:1031400022D2AF9044F474FDF01231091230CA80DB
:10315000FE2290007EE4F07F011229679000027445
:1031600003F0228B938A838982E0FFA3E0FE7593AC
:1031700000228B938A838982EDF0A3ECF075930093
:103180002290017BE4F090017AE0FF1225EC22907E
:1031900046F6E0FFEF4401FFEFF0228B938A83892C
:1031A00082E0759300FF228B938A838982EDF0750C
:1031B0009300229044C07401F0229044C87401F03E
:1031C000229044C07402F0229044C87402F022900D
:1031D0000001E0FF22121F7F221201000202000004
:1031E00008B40432F2010001028001090243000226
:1031F0000101C0320904000001020201000524009F
:103200001001042402020524060001052401000126
:103210000705810308000A09040100020A000000F2
:103220000705820240000A0705030240000A040362
:103230000904180345007200650062007500730000
:1032400020004C006100620073002803530054000A
:1032500045004D002000530065006E0073006F00B4
:1032600072002000520065007600200030002E0021
:103270003100000203000081030008020100820205
:1032800000400A0100030200400A020A01FF31EB7C
:1032900003FF3275000000000000000000FF328ACA
:1032A00001FF31D901FF328C01FF32A012034D0022
:1032B0005300460054003100300030000100280067
:1032C00000000001040001000000000000000001F7
:1032D0004359555342000000303030303100000077
:1032E000000000000000004F00000C0051100050D2
:1032F0000051C0001001000010000114000800017E
:1033000040000A00014C0002000150000020303152
:0E33100032333435363738394142434445466E
:00000001FF
