:400000000233AF008F828E83E0540100000070F82278FFE4F6D8FD02340D0203DBE86480F8E933E83360110460F0ED33EC337009E8FCE9FDEAFEEBFF220460DED3EB9FEAF3
:400040009EE99DE8C2E78CF0C2F795F0400CE8CCF8E9CDF9EACEFAEBCFFB1203A685D0F05804700320D5B3E80470075002B2D50203E592D5EC0460F7E4CCC0E0C398F860B5
:400080003B94186008400DD0E0FB0203BDE4FBFAC9FC8028E830E406E4C9FBE4CAFCE830E305E4C9CACBFCE854076010F8C3E913F9EA13FAEB13FBEC13FCD8F130F52FC331
:4000C000E49CFCEF9BFFEE9AFEED99FDD0E0FBEF4E4D4C701222DB030203E2EC2CFCEF33FFEE33FEED33FDED30E7EB0203BDEF2BFFEE3AFEED39FDD0E0FB50130BBB0003AD
:400100000203E5ED13FDEE13FEEF13FFEC13FC0203BDEC4D6011E8497017ED33EC3304600DE4FCFFFEFD22E933E8330470F80203DB1203A658046009E4CC248150062850E7
:40014000090203E52840030203E2C0E0EB4A7044B98006D0E0FB0203D1EF4E701CBD8008EBFFEAFEE9FD80EBE98DF0A4FEE5F00201FBE9CDF9EAFEEBFFEF89F0A4FCE5F087
:40018000CE89F0A42EFFE435F0CD89F0A42DFEE435F08067EF4E7005BD80D780C3EF8BF0A4ACF0EE8BF0A42CFCE435F0F8EF8AF0A42CE5F038FCE433CB8DF0A42CFCE5F0EE
:4001C0003BF8EE8AF0A42CFCE5F038F8E433CF89F0A42CFCE5F038CF3400CE89F0A42FFFE5F03EFEE433C98DF0A42EFEE5F039CD8AF0A42FFFE5F03EFEE43DFD33D0E0FBCD
:4002000050070BBB000F0203E5EC2CFCEF33FFEE33FEED33FD0203BD0203E5EC5D046005E8590470030203DB1203A6580460F6EC4860F2EC7004FDFEFF22C860DB2481C862
:400240005009C398600250060203E29850CAF582E9294B4A7005AB820203D175F0007C1A7880C3EF9BEE9AED99400DC3EF9BFFEE9AFEED99FDE842F0DC23ACF0D0E0FFD0BF
:40028000E0FED0E0FDAB8220E7101BEB60BAEC2CFCEF33FFEE33FEED33FD0203BDE803F830E705C0F075F000EF2FFFEE33FEED33FD40B830E7C280AA74F8CC6480CCC864A0
:4002C00080C8F58204604FC3EB9FF5F0EA9E42F0E99D42F0E89C45F0603C501DE5825FFFE582D313CB5BCBF42B5582FB50280ABA002409B9002008801DE5825BFBE582D354
:4003000013CF5FCFF4C3132F5582FF50090EBE00050DBD00010CC3EB9FF5F0EA9E42F0E99D42F0E89C45F06007CC4820E701B3EC2275F020800E75F010800575F0087D0045
:400340007E007F003392D530D503120595EC334010EF33FFEE33FEED33FDEC33FCD5F0ED22E5F0247EA2D513CC92E7CDCEFF22EDD2E7CD33EC3392D524814006E4FFFEFD80
:40038000FC22FCE4CFCECDCC24E0501174FF80EDC3CC13CCCD13CDCE13CECF13CF0470F030D5DE020595E9D2E7C933E833F892D5EDD2E7CD33EC33FC5002B2D522EC30E78F
:4003C000100FBF000C0EBE00080DBD00040BEB6014A2D5EB13FCED92E7FD2274FFFCFDFEFF22E480F8A2D574FF13FC7D80E480EFBB010689828A83E0225002E722BBFE02EF
:40040000E32289828A83E49322BB010689828A83F0225002F722BBFE01F322C5F0F8A3E028F0C5F0F8E582158270021583E038F022BB010A89828A83F0E5F0A3F02250060B
:40044000F709A7F01922BBFE06F3E5F009F31922EF2BFFEE3AFEED39FDEC38FC22C3EF9BFFEE9AFEED99FDEC98FC22E88FF0A4CC8BF0A42CFCE98EF0A42CFC8AF0EDA42CC9
:40048000FCEA8EF0A4CDA8F08BF0A42DCC3825F0FDE98FF0A42CCD35F0FCEB8EF0A4FEA9F0EB8FF0A4CFC5F02ECD39FEE43CFCEAA42DCE35F0FDE43CFC2275F00875820076
:4004C000EF2FFFEE33FECD33CDCC33CCC58233C5829BED9AEC99E58298400CF582EE9BFEED9AFDEC99FC0FD5F0D6E4CEFBE4CDFAE4CCF9A88222B800C1B90059BA002DEC1D
:400500008BF084CFCECDFCE5F0CBF97818EF2FFFEE33FEED33FDEC33FCEB33FB10D703994004EB99FB0FD8E5E4F9FA227818EF2FFFEE33FEED33FDEC33FCC933C910D705E0
:400540009BE99A4007EC9BFCE99AF90FD8E0E4C9FAE4CCFB2275F010EF2FFFEE33FEED33FDCC33CCC833C810D7079BEC9AE899400AED9BFDEC9AFCE899F80FD5F0DAE4CDC7
:40058000FBE4CCFAE4C8F922EF4BFFEE4AFEED49FDEC48FC22C3E49FFFE49EFEE49DFDE49CFC22EB9FF5F0EA9E42F0E99D42F0E89C45F022E8600FECC313FCED13FDEE132B
:4005C000FEEF13FFD8F122E8600FEFC333FFEE33FEED33FDEC33FCD8F122E0FCA3E0FDA3E0FEA3E0FF22E0F8A3E0F9A3E0FAA3E0FB22ECF0A3EDF0A3EEF0A3EFF022A42558
:4006000082F582E5F03583F58322E0FBA3E0FAA3E0F922EBF0A3EAF0A3E9F022E493FB740193FA740293F922D083D082F8E4937012740193700DA3A393F8740193F5828823
:4006400083E4737402936860EFA3A3A380DFD083D082F8E4937012740193700DA3A393F8740193F5828883E473740293B5F0067403936860E9A3A3A3A380D8E50C2582F5EB
:4006800082E50B3583F583B50B0485820C2210AF0685820CF50B2285820CF50BD2AF22EC8EF0A4CCC5F0CCCDF8EFA4CEC5F02DFDE43CFCE8A42EC8C5F03DFDE43CFCEFA453
:4006C000FFE5F028FEE43DFDE43CFC22E709F608DFFA8046E709F208DFFA803E88828C83E709F0A3DFFA8032E309F608DFFA806EE309F208DFFA806688828C83E309F0A381
:40070000DFFA805A89828A83E0A3F608DFFA804E89828A83E0A3F208DFFA804280D280FA80C680D4805580F28029801080A680EA809A80A880DA80E280CA802988848C8512
:4007400089828A83E493A30586F0A30586DFF5DEF3800B89828A83E493A3F608DFF9ECFAA9F0EDFB2288848C8589828A83E0A30586F0A30586DFF6DEF480E389828A83E476
:4007800093A3F208DFF980D688F0EF60010E4E60CD88F0ED2402B4040050C3F582EB2402B4040050B9232345822390071C7390042BEFF0900433E4F0A3E4F090042CE4F051
:4007C00090042CE0FFEFC39409400302086D90042CE0FFEF75F00BA42447F582E43402F583E4F090042CE0FFEF75F00BA42449F582E43402F583E4F090042CE0FFEF75F088
:400800000BA42448F582E43402F583E4F090042CE0FFEF75F00BA4244AF582E43402F583E4F090042CE0FFEF75F00BA4244CF582E43402F583E4F090042CE0FFEF75F00BE6
:40084000A4244FF582E43402F583E4F0A3E4F090042CE0FFEF75F00BA42451F582E43402F583E4F090042CE004F00207C090042BE0FFEF603A90042EE4F090042EE0FFEF6F
:40088000C39402502A90042EE0FF74AA2FF582E43402F583E4F090042EE0FF74B92FF582E43402F583E4F090042EE004F080CB900242E0FFEFD394005003020CD7900242CA
:4008C000E0FFEF14FF12493A900435EEF0A3EFF0900435E0FEA3E0FF8F828E83A312061C90043012061390043012060AE92407F9EA3400FA1203F0FFEF5440FF7E00EF4EFC
:400900006010900241E0FFEF4401FF900241EFF0800E900241E0FFEF54FEFF900241EFF0900435E0FEA3E0FFEF2404FFEE3400FE900435EEF0A3EFF0900435E0FEA3E0FFCD
:400940008F828E83E493FF90042CEFF090042E7401F090042EE0FFEFC394094003020BEC900435E0FEA3E0FF8F828E83A312061CAE02AF01900437EEF0A3EFF090042DE49B
:40098000F090042CE0FF90042DE0FEEEC39F4003020BE3900437E0FEA3E0FF8F828E83740293FFEF547FFF7E0090042EE0FD7C00ED6F7002EC6E6003020BC2900437E0FED4
:4009C000A3E0FF8F828E83740493FE740593FF90042EE0FDED75F00BA4244FF582E43402F583E0FCA3E0FDC3ED9FEC9E502C900437E0FEA3E0FF8F828E83740493FE7405A3
:400A000093FF90042EE0FDED75F00BA4244FF582E43402F583EEF0A3EFF0900437E0FEA3E0FF8F828E83E493FF74AA2FF582E43402F583E0FF900437E0FCA3E0FD8D828CEE
:400A400083740193FEEF6E6003020BC2900437E0FEA3E0FF8F828E83740393FFEF5403FF90042FEFF0900437E0FEA3E0FF8F828E83740293FFEF5480FF7E00EF4E700302DA
:400A80000B0290042EE0FFEF75F00BA42448F582E43402F5837401F090042FE0FFEFB401047F0780027F0D90042EE0FEEE75F00BA4244CF582E43402F583EFF0900437E028
:400AC000FEA3E0FF8F828E83740693FFEF640A6018900437E0FEA3E0FF8F828E83740693FFEF64026003020B7890042FE0FFEF64037003020B7890042EE0FF90044DEFF08C
:400B0000807690042EE0FFEF75F00BA42448F582E43402F583E4F090042FE0FFEFB401047F0580027F0990042EE0FEEE75F00BA4244CF582E43402F583EFF0900437E0FE57
:400B4000A3E0FF8F828E83740693FFEF640A6014900437E0FEA3E0FF8F828E83740693FFEFB4021490042FE0FFEF6403600A90042EE0FF90044EEFF0900437E0FEA3E0FFF3
:400B80008F828E83740293FF90042EE0FEEE75F00BA4244BF582E43402F583EFF0900437E0FEA3E0FF8F828E83740393FF90042EE0FEEE75F00BA42447F582E43402F583A6
:400BC000EFF0900437E0FEA3E0FFEF2407FFEE3400FE900437EEF0A3EFF090042DE004F002098190042EE004F0020952900435E0FEA3E0FF8F828E83A312061CAE02AF01F1
:400C0000900437EEF0A3EFF090042EE4F090042CE0FF90042EE0FEEEC39F5053900437E0FEA3E0FF8F828E83E493FF900437E0FCA3E0FD8D828C83740293FEEE547FFEEE05
:400C400075F00BA42451F582E43402F583EFF0900437E0FEA3E0FFEF2407FFEE3400FE900437EEF0A3EFF090042EE004F0809E1243429002B6EEF0A3EFF090042C7401F05C
:400C800090042CE0FFEFC394095049900433E0FEA3E0FF90042CE0FDED75F00BA4244DF582E43402F583EEF0A3EFF090042CE0FFEF75F00BA4244FF582E43402F583E0FE12
:400CC000A3E0FF900433EE8FF012041B90042CE004F080AC121A092290048CE4F07B007A00790090048E1206139002ACE4F0A3E4F0906000E0FFEF5480FF7E00EF64804E8E
:400D00006003020FAC906001E0FFEF1206280ECE000D1E060F5D080F7D0A00001172906003E0FFEFB40135125120900493EEF0A3EFF0900493E0FEA3E0FF8F828E83A312E7
:400D4000061C9002AE1206139002ACE4F0A37412F01243BB90048CEFF0021172906003E0FFEF6402706B906002E0FF12493A900493EEF0A3EFF0900493E0FEA3E0FF8F82A0
:400D80008E83A312061C9002AE1206139002AE12060AE92403F9EA3400FA1203F0FF7E00EF7F00FE9002AE12060AE92402F9EA3400FA1203F0FD7C00EE4CFEEF4DFF90026A
:400DC000ACEEF0A3EFF01243BB90048CEFF0021172906003E0FFEF64036003020EC3900491E4F07BFF7A5779ED90048E120613900491E0FF906002E0FEEED39F403D9004B9
:400E00008E12060A1203F0FFEF603090048E12060A1203F0FF900492EFF090048E12060A900492E0FF7E00E92FF9EA3EFA90048E120613900491E004F080B4906002E0FFED
:400E4000EFB4EE0C7BFF7A58796B90048E120613906002E0FFEF60309057A8E493FF906002E0FEEEB507217BFF7A58793290048E1206137B017A0379911231CE7B017A0317
:400E8000799190048E12061390048E12060A1203F0FFEF700302117290048E12060A1203F0FF7E009002ACEEF0A3EFF090048E12060A9002AE1206131243BB90048CEFF08A
:400EC000021172123FAF90048CEFF0021172906000E0FFEF5403FFEF1206280F28000EE502000011729002ACE4F0A37402F0906004E0FFEF547FFFEF75F00BA42449F58261
:400F0000E43402F583E0FF9005EDEFF09005EEE4F07B017A0579ED9002AE1206131243BB90048CEFF00211729002ACE4F0A37402F0900241E0FF9005EDEFF09005EEE4F0A3
:400F40007B017A0579ED9002AE1206131243BB90048CEFF00211720211720211729002ACE4F0A37401F07B017A0279429002AE1206131243BB90048CEFF00211729002ACFD
:400F8000E4F0A37401F0906004E0FF74AA2FF9E43402FA7B019002AE1206131243BB90048CEFF0021172021172021172906001E0FFEF12062810500110EB030FC8050FDD7D
:400FC000090FFD0B00001172906002E0FF9002BBEFF012515690048CEFF0021172906002E0FF900242EFF09002B87401F07F011207AE12515690048CEFF0021172123DD23C
:40100000EF7003021172906004E0FF90048DEFF090048DE0FF9002B4EFF09002B87401F012117890048DE0FF74AA2FF582E43402F583E0FF90048DE0FE74B92EF582E43469
:4010400002F583EFF012515690048CEFF0021172906000E0FFEF5403FFEF12062810800010A601106A0200001172906002E0FFEF600302117212245C90048CEFF002117293
:40108000906002E0FFEF64016003021172900241E0FFEF54FDFF900241EFF012515690048CEFF0021172906004E0FFEFC394024003021172906004E0FF74BC2FF582E4349F
:4010C00002F583C083C082E0FF906002E0FEEEF4FEEF5EFFD082D083EFF012515690048CEFF0021172021172021172906000E0FFEF5403FFEF12062811170011390111057F
:401100000200001172906002E0FFEF70651230D790048CEFF0805B906002E0FFEF64017051900241E0FFEF4402FF900241EFF012515690048CEFF08039906004E0FFEFC32E
:401140009402502E906004E0FF74BC2FF582E43402F583C083C082E0FF906002E0FEEEF4FEEF5EFFD082D083EFF012515690048CEFF090048CE0FF22900242E0FFEFD3945A
:40118000005003021559900242E0FFEF14FF12493A90049AEEF0A3EFF090049AE0FEA3E0FFEF2404FFEE3400FE90049AEEF0A3EFF090049AE0FEA3E0FF8F828E83E493FF1C
:4011C000900495EFF090049AE0FEA3E0FF8F828E83A312061CAE02AF0190049CEEF0A3EFF0900497E4F0900495E0FF900497E0FEEEC39F400302155990049CE0FEA3E0FFCD
:401200008F828E83E493FF74B92FF582E43402F583E0FF90049CE0FCA3E0FD8D828C83E493FE74AA2EF582E43402F583E0FEEE6F700302153890049CE0FEA3E0FF8F828E32
:4012400083E493FF74AA2FF582E43402F583E0FF90049CE0FCA3E0FD8D828C83740193FEEF6E600302153890049CE0FEA3E0FF8F828E83E493FF906004E0FEEF6E600302C5
:40128000153890049CE0FEA3E0FF8F828E83740293FFEF547FFF900496EFF0900496E0FF7E00EF24FFFFEE34FFFEEFC4F8540FC868FFEEC454F048FE900499EFF090049CF1
:4012C000E0FEA3E0FF8F828E83740393FFEF5403FF900498EFF090049CE0FEA3E0FF8F828E83740293FFEF5480FF7E00EF4E603C900496E0FFEF75F00BA42448F582E43439
:4013000002F5837401F0900498E0FFEFB401047F0780027F0D900496E0FEEE75F00BA4244CF582E43402F583EFF08039900496E0FFEF75F00BA42448F582E43402F583E407
:40134000F0900498E0FFEFB401047F0580027F09900496E0FEEE75F00BA4244CF582E43402F583EFF0900499E0FF7E00EF240EFFEE3460FE8F828E837401F090049CE0FE1B
:40138000A3E0FF8F828E83740493FE740593FF900496E0FDED75F00BA4244FF582E43402F583EEF0A3EFF090049CE0FEA3E0FF8F828E83740293FF900496E0FEEE75F00B71
:4013C000A4244BF582E43402F583EFF090049CE0FEA3E0FF8F828E83740393FF900496E0FEEE75F00BA42447F582E43402F583EFF0900496E0FFEF75F00BA4244AF582E405
:401400003402F583E4F0900496E0FFEF75F00BA4244FF582E43402F583E0FEA3E0FFEEFF7E00900499E0FEEEFD7C00ED240CFDEC3460FC8D828C83EFF0900496E0FFEF7565
:40144000F00BA4244FF582E43402F583E0FEA3E0FFEF54FFFF900499E0FEEEFD7C00ED240DFDEC3460FC8D828C83EFF0900496E0FFEF75F00BA4244DF582E43402F583E044
:40148000FEA3E0FFEF54FFFF900499E0FEEEFD7C00ED2486FDEC3460FC8D828C83EFF0900496E0FFEF75F00BA4244DF582E43402F583E0FEA3E0FFEEFF7E00900499E0FE90
:4014C000EEFD7C00ED2487FDEC3460FC8D828C83EFF0900496E0FFEF75F00BA4244DF582E43402F583E0FEA3E0FFEF54FFFF900499E0FEEEFD7C00ED2484FDEC3460FC8D43
:40150000828C83EFF0900496E0FFEF75F00BA4244DF582E43402F583E0FEA3E0FFEEFF7E00900499E0FEEEFD7C00ED2485FDEC3460FC8D828C83EFF090049CE0FEA3E0FFDC
:40154000EF2407FFEE3400FE90049CEEF0A3EFF0900497E004F00211E62290000012061390000312060AAF01AE02AD037C009001191205F29001191205DAEF54FFFFEE54BB
:40158000FFFEED5400FDEC5400FC9001191205F290000312060AAF01AE02AD037C007B007A0079FF7800D31205A340030217E090000312060AAF01AE02AD037C00A804A97C
:4015C00005AA06AB07900006E0FEA3E0FFE4FCFD1204507BFF7AFF79FF7800C31205A350030217E01250C87B017A0179211248817B007A00790178009001191205DA120471
:40160000F69001081205F27B007A01790078009001191205DA1204F6EF54FFFFEE5400FEED5400FDEC5400FC90010C1205F27F007E017D007C0090010C1205E612046BC011
:4016400004C005C006C0077F007E007D017C009001081205E612046BA804A905AA06AB07D007D006D005D00412045090011D1205F27F007E007D007C009001141205F290A3
:401680000118E4F0900006E0FEA3E0FFE4FCFD9001141205E6C31205A340030217D3900118E0FFEF60030217D37F007E007D007C009001101205F29001101205DAC3EE94DF
:4016C0000140030217979001191205DA90011D1205E6C31205A3405B900006E0FEA3E0FFE4FCFD9001141205E6C31205A350449001141205DA90000012060AE92FF9EA3E91
:40170000FAEB3DFB1203F0FB9001101205DA74082FF582E43400F583EBF09001141205DA7B017A00790078001204509001141205F2803390011D1205DAEF2400FFEE340056
:40174000FEED3410FDEC3400FCA907AA06AB05125301AB079001101205DA74082FF582E43400F583EBF090011D1205DA7B017A007900780012045090011D1205F290011096
:401780001205DA7B017A00790078001204509001101205F20216B79001081205DAC00790010C1205DAAD07AC067B017A007908D0071228B1900118EFF090010C1205DA7B63
:4017C000017A007900780012045090010C1205F2021684904800E0FFEF4406FFEFF080069001187401F0900118E0FFEF6010900118E0FFEF6401600690011874FFF09001AD
:4018000018E0FF229003CCEFF09003CDECF0A3EDF09003CFEAF0A3EBF09003D2E0FFEFD394005003021A039003D2E0FFEFD394014003021A039003CCE0FFEF1206281851FC
:4018400001185104187E0718A90818D40A000018FF9003D1E0FFEFD3940F40117B0C7A0179181253019003D3EFF00219047B0C7A01791C1253019003D3EFF002190490033D
:40188000D1E0FFEFD3940F40107B0C7A0179191253019003D3EFF0806B7B0C7A01791D1253019003D3EFF0805B9003D1E0FFEFD3940F40107B0C7A01791A1253019003D322
:4018C000EFF080407B0C7A01791E1253019003D3EFF080309003D1E0FFEFD3940F40107B0C7A01791B1253019003D3EFF080157B0C7A01791F1253019003D3EFF08005902D
:4019000003D3E4F09003D3E0FFEF3395E0FEFDFC7B207A007900780012046BA804A905AA06AB079003CDE0FEA3E0FFE4FCFD1204509003D41205F29003D41205DAAB07AAC0
:4019400006A905A804A804A905AA06AB079003CFE0FEA3E0FFE4FCFD12046B9003DA1205F27B007A80790078009003DA1205DA1204F69003D8EEF0A3EFF09003D1E0FFEFE8
:40198000C3940E50479003D8E0FEA3E0FF9003D1E0FDC3740E9DFDEFA805088005CEC313CE13D8F9FF9003D8EEF0A3EFF09003D1E0FFEF04FF9003D2E0FEEE75F003A42461
:4019C000F6F582E43403F583EFF080169003D2E0FFEF75F003A424F6F582E43403F583740FF09003D8E0FEA3E0FF9003D2E0FDED75F003A424F4F582E43403F583EEF0A3F3
:401A0000EFF0227F00125256229005EF7401F09005F0E4F09005F0E0FFEFC394804003021BF79005F0E0FF7E00EF2480FFEE3460FE8F828E83740CF09005EFE0FFEF75F04A
:401A40000BA4244CF582E43402F583E0FFEF604F9005EFE0FFEF75F00BA4244BF582E43402F583E0FFEF5480FF7E00EF4E60189005F0E0FF7E00EF240EFFEE3460FE8F827C
:401A80008E83740CF0802E9005F0E0FF7E00EF240EFFEE3460FE8F828E837408F080169005F0E0FF7E00EF240EFFEE3460FE8F828E837480F09005EFE0FFEF75F00BA4243F
:401AC0004FF582E43402F583E0FEA3E0FFEEFF7E009005F0E0FEEEFD7C00ED240CFDEC3460FC8D828C83EFF09005EFE0FFEF75F00BA4244FF582E43402F583E0FEA3E0FF24
:401B0000EF54FFFF9005F0E0FEEEFD7C00ED240DFDEC3460FC8D828C83EFF09005EFE0FFEF75F00BA4244DF582E43402F583E0FEA3E0FFEF54FFFF9005F0E0FEEEFD7C00BB
:401B4000ED2486FDEC3460FC8D828C83EFF09005EFE0FFEF75F00BA4244DF582E43402F583E0FEA3E0FFEEFF7E009005F0E0FEEEFD7C00ED2487FDEC3460FC8D828C83EFC5
:401B8000F09005EFE0FFEF75F00BA4244DF582E43402F583E0FEA3E0FFEF54FFFF9005F0E0FEEEFD7C00ED2484FDEC3460FC8D828C83EFF09005EFE0FFEF75F00BA4244D08
:401BC000F582E43402F583E0FEA3E0FFEEFF7E009005F0E0FEEEFD7C00ED2485FDEC3460FC8D828C83EFF09005EFE004F09005F0E02410F0021A1490600A74FFF022900318
:401C0000B3EEF0A3EFF09003B5ECF0A3EDF07F007E007D007C009003BA1205F29003BEE4F0A3E4F09003C6E4F07F007E007DC07C409003C71205F27B007A00798078419048
:401C400003C71205DA12021B1232C09003BA1205F29003BA1205DA12036FEFC4F8540FC868FFEEC454F048FE12357DAA06A9077B019003B71206139003B712060A9003C30E
:401C80001206137F007E007D807C419003BA1205E61201127B007A0079C0784012002112036F9003BEEEF0A3EFF09003C6E4F09003C6E0FFEFC3940650319003C6E0FF7E9D
:401CC00000EF2400FFEE3480FE8F828E83E0FF9003C312060AEF1204099003C4E475F00112041B9003C6E004F080C49003C6E0FF7E009003BEE0FCA3E0FDC3EF9DEE9C50DC
:401D0000129003C312060AE41204099003C6E004F080D89003B5E0FEA3E0FFEEFF7E009003B712060A9003B3E0FCA3E0FDE92DF9EA3CFAEF1204099003B5E0FEA3E0FFEF9C
:401D400054FFFF9003B712060A9003B3E0FCA3E0FDED2401FDEC3400FCE92DF9EA3CFAEF1204097F001240C49003CBEFF09003C6E4F09003B712060A9003C012061390031F
:401D8000C6E0FCE412033B9003BA1205E61202B8602D402B9003C6E0FFEFC3948050209003C012060A9003C6E0FD122FCD9003C1E475F01012041B9003C6E004F080BF903E
:401DC00003B712060AAE02AF01122A1122900452EFF0900453120613900452E0FFEFD394005003021F99900452E0FFEFC394094003021F99900452E0FF7E00EF24FFFFEEE6
:401E000034FFFEEFC4F8540FC868FFEEC454F048FE900458EFF0900458E0FF7E00EF2488FFEE3460FE900459EEF0A3EFF0900452E0FFEF75F00BA4244DF582E43402F5833B
:401E4000E0FEA3E0FFC3E49FFF74029EFE900456E0FCA3E0FDD3ED9FEC9E4028900452E0FFEF75F00BA4244DF582E43402F583E0FEA3E0FFC3E49FFF74029EFE900456EE43
:401E8000F0A3EFF0900456E0FEA3E0FFEEFF7E00900452E0FEEE75F00BA4244AF582E43402F583E0FEEF4EFF900458E0FEEEFD7C00ED240CFDEC3460FC8D828C83EFF09050
:401EC0000456E0FEA3E0FFEF54FFFF900458E0FEEEFD7C00ED240DFDEC3460FC8D828C83EFF07B007A007900C003C002C00190045312060AD082D083D0E06B7008E965825D
:401F00007003EA6583605190045BE4F0A3E4F0900456E0FEA3E0FF90045BE0FCA3E0FDC3ED9FEC9E503290045312060A90045BE0FEA3E0FFE92FF9EA3EFA1203F0FF90045E
:401F400059E0FCA3E0FD8D828C83EFF090045BE475F00112041B80B7900452E0FFEF75F00BA42448F582E43402F583E4F0900452E0FFEF75F00BA4244CF582E43402F583BC
:401F8000E0FF900458E0FEEEFD7C00ED240EFDEC3460FC8D828C83EFF02290480074F1F01227417B007A4679E8125301EF4405FD7B007A4679E812530D750A00E50AC394A9
:401FC00008503AAF0AEF75F005A424ABF582E43458F583AF82AE838E088F09AE08AF098F828E8312061CAE08AF098F828E83740393FC740493FD125189050A80BF7B087A42
:40200000007900124EC5905883740AF07B017A507903125301EF4402FD7B017A50790312530D7B017A507913125301EF4402FD7B017A50791312530D9043A0E0FFEF444028
:40204000FF9043A0EFF09043C2E0FFEF4410FF9043C2EFF07B087A017990C003C002C0017B007A517902900404120613D001D002D0037F087E00124D607B087A017998C00B
:4020800003C002C0017B007A5179F0900404120613D001D002D0037F0A7E00124D607B087A0179A4C003C002C0017B007A517962900404120613D001D002D0037F087E002C
:4020C000124D609044F47401F0904322E0FFEF4408FF904322EFF09046ECE0FFEFC394055006904689743AF07B017A5079077D4012530D7B017A5079177D4012530D124C7B
:40210000A57B007A4379A0C003C002C0017B007A4379B0900404120613D001D002D0037F0E7E00124D609043B0E0FFEF54FDFFEFF0229004C3EEF0A3EFF09004C5EDF0125E
:4021400053459004C7EFF012533B9004C8EEF0A3EFF09004C8E0FEA3E0FF9004C3E0FCA3E0FDED6F7002EC6E70030222C69043A2E0FFEF5401FF9004C6EFF09004C7E0FF33
:40218000EF705E9004C8E0FEA3E0FFEF4E600C9004C3E0FEA3E0FFEF4E70469004C8E0FEA3E0FFEF4E701D7B027A4079809004C3E0FCA3E0FD1252DA904082E0FFEF54BF79
:4021C000FFEFF022904082E0FFEF4440FFEFF07B027A4079809004C3E0FCA3E0FD1252DA229004C6E0FFEF606C904001E4F09040107401F0904014E4F0904008E0FFEF548A
:402200007FFFEFF0904082E0FFEF5408FF7E00EF4E600C9004C3E0FEA3E0FFEF4E70367B027A4079029004C8E0FCA3E0FD1252DA9040017407F0904001E0FFEF5401FF7EB0
:4022400000EF4E70F19043A2E0FFEF54FEFFEFF0904001E4F09043A2E0FFEF5401FF7E00EF4E603A7B027A4079029004C3E0FCA3E0FD1252DA9004C5E0FFEF60047F02808D
:40228000027F00EF4401FF904001EFF0904001E0FFEF5401FF7E00EF4E602B80EF227B027A4079809004C3E0FCA3E0FD1252DA9043A2C083C082E0FF9004C6E0FEEF4EFF82
:4022C000D082D083EFF0229004CAEEF0A3EFF09004CCEDF01253599004CEEFF012534F9004CFEEF0A3EFF09004CFE0FEA3E0FF9004CAE0FCA3E0FDED6F7002EC6E700302AD
:40230000245B9043A1E0FFEF5401FF9004CDEFF09004CEE0FFEF705E9004CFE0FEA3E0FFEF4E600C9004CAE0FEA3E0FFEF4E70469004CFE0FEA3E0FFEF4E701D7B027A4168
:4023400079009004CAE0FCA3E0FD1252DA904102E0FFEF54BFFFEFF022904102E0FFEF4440FFEFF07B027A4179009004CAE0FCA3E0FD1252DA229004CDE0FFEF606C90409F
:4023800001E4F09040147401F0904010E4F0904008E0FFEF547FFFEFF0904102E0FFEF5408FF7E00EF4E600C9004CAE0FEA3E0FFEF4E70367B027A4079029004CFE0FCA39C
:4023C000E0FD1252DA9040017407F0904001E0FFEF5401FF7E00EF4E70F19043A1E0FFEF54FEFFEFF0904001E4F09043A1E0FFEF5401FF7E00EF4E603A7B027A4079029033
:4024000004CAE0FCA3E0FD1252DA9004CCE0FFEF60047F0280027F00EF4401FF904001EFF0904001E0FFEF5401FF7E00EF4E602B80EF227B027A4179009004CAE0FCA3E005
:40244000FD1252DA9043A1C083C082E0FF9004CDE0FEEF4EFFD082D083EFF022900598E4F0906004E0FFEF547FFF900596EFF0900596E0FF7E00EF24FFFFEE34FFFEEFC41E
:40248000F8540FC868FFEEC454F048FE900597EFF0900596E0FFEFD3940050030225CA900596E0FFEFC3940940030225CA900596E0FFEF75F00BA42449F582E43402F58397
:4024C000E0FFEF54FEFFEFF0900596E0FFEF75F00BA4244AF582E43402F583E4F0900597E0FF7E00EF240CFFEE3460FE8F828E83E0FFEF547FFFEFF0900596E0FFEF75F060
:402500000BA42448F582E43402F583E0FFEF54FDFFEFF0900596E0FFEF75F00BA4244BF582E43402F583E0FFEF5480FF7E00EF4E6049900596E0FFEF75F00BA42448F58200
:40254000E43402F583E0FFEFB40118900597E0FF7E00EF240EFFEE3460FE8F828E83740CF0805F900597E0FF7E00EF240EFFEE3460FE8F828E83740DF08047900596E0FF07
:40258000EF75F00BA42448F582E43402F583E0FFEFB40118900597E0FF7E00EF240EFFEE3460FE8F828E837408F08016900597E0FF7E00EF240EFFEE3460FE8F828E8374FC
:4025C00009F0125156900598EFF0900598E0FF22C0E0C0F0C083C082C085C084C086758600C093759300C0D075D000C000C001C002C003C004C005C006C007906028E0FF0D
:402600009005D3EFF09005D3E0FFEF5410FF7E00EF4E700302271E9005D47401F09005D3E0FFEF5480FF7E00EF4E60319005D3E0FFEF540FFF7E00EF64014E60079005D49A
:40264000E4F0804612403B900243E0FFEF5480FF7E00EF4E60349005D4E4F0802D9005D3E0FFEF5440FF7E00EF4E6005124FBF80199005D3E0FFEF5420FF7E00EF4E600519
:40268000124E3B80059005D4E4F09005D4E0FFEF700302271E906028E0FF9005D3EFF09005D3E0FFEF5480FF7E00EF4E7070900246E0FF9002BEE0FEEE4FFF9005D3EFF082
:4026C0009005D3E0FF906029EFF0906029E0FF9005D3E0FEEE6F7046900243E0FF9005D4EFF0906028E0FFEF5480FF9005D3EFF09005D3E0FFEF7018900243E0FF906028C4
:40270000EFF0906028E0FFEF540FFF9005D4EFF0900243E0FF9005D4E0FEEEB507BAD007D006D005D004D003D002D001D000D0D0D093D086D084D085D082D083D0F0D0E018
:40274000327B007A4079807D007C001252D89040827450F07B007A4079847DE77C031252D8904086741BF07B007A4079887D637C001252D890408A741BF07B087A0179ACCE
:40278000C003C002C0017B007A417900900404120613D001D002D0037F047E00124D609043007406F09042007452F07B0C7A01790F1253019046A1EFF07B007A4279227DD1
:4027C000187C081252D87B007A4279207D517C121252D8900526E4F07F197E007D007C009005221205F29005221205DAD3EF9400EE9400404E900526E0FFEF640360449009
:402800004225E0FFEF5401FF7E00900526E0FEEE25E0FEEE4FFFEF5403FF900526EFF07FE07E017D007C00124E009005221205DA7BFF7AFF79FF78FF1204509005221205F7
:40284000F280A39005221205DAEF4E70057F031252A67B007A4079047D007C011252D89040047407F0904006E4F09040087448F0904004E4F0904009E4F09040017402F07C
:4028800090400B7404F09043A2E0FFEF4407FF9043A2EFF09043A1E0FFEF4401FF9043A1EFF09043A0E0FFEF4480FF9043A0EFF02290041DEFF090041EECF0A3EDF0900471
:4028C000201206137B007A007900C003C002C00190052712060AD082D083D0E06B7008E965827003EA65837003022A0590041DE0FFEFD3943F400C900428E4F0A37410F0F2
:402900000229AF9004287401F0A37420F090041DE0FF7E007C207D0012069FEF2400FFEE3400FEED3408FDEC3400FCC004C005C006C00790041EE0FEA3E0FF7C007D2012D0
:40294000069FA804A905AA06AB07D007D006D005D0041204509004241205F2900423E4F0900423E0FFEFC394205044900423E0FFE4FCFDFE9004241205E6120450A907AA78
:4029800006AB0512530190052712060AE92400F9EA3401FA900423E0FEEEFD7C00E92DF9EA3CFAEF120409900423E004F080B190042012060AC003C002C001900527120619
:4029C0000AA801AC02AD03D001D002D0037E017F0012078890041DE0FFC00790041EE0FCA3E0FD90052712060A900428E0FEA3E0FF900477EEF0A3EFF0D007122D9D9004A0
:402A00002AEFF0800690042A74FFF090042AE0FF22900407EEF0A3EFF04E7003022B4F9004A8E07002A3E07003022B4F900407E0FEA3E024FCFFEE34FFFEA37404F0A37493
:402A4000A6F0900409E0FCA3E0F5828C83E0FCA3E0FD90040BECF0A3EDF04C6020900407E0FCA3E0FD90040BE0FAA3E0FBD39DEA9C500A900409EAF0A3EBF080C590040B04
:402A8000E07002A3E0604D8F828E83A3A3E0FCA3E0FD900408E02DFD900407E03CFC90040BE0FAA3E0FB6D7002EA6C70278B828A83A3A3E0FCA3E02404FDE43C8F828E838E
:402AC000A3A38DF012041B90040BE0FCA3E0F5828C83800390040BE0FDA3E08F828E83CDF0A3EDF0900409E0FCA3E0FDF5828C83A3A3E0FAA3E0FBED2BFDEC3AFCED240414
:402B0000FDE43CFCED6F7002EC6E70338F828E83A3A3E0FCA3E02404FDE43CFC900409E0FAA3E0FBF5828A83A3A3EC8DF012041B8F828E83E0FFA3E08B828A83CF800C90C7
:402B40000409E0FCA3E0F5828C83EEF0A3EFF022900439EFF090043A120613900439E0FFEFD394005003022C6A900439E0FFEFC394094003022C6A7B007A007900C003C088
:402B800002C00190043A12060AD082D083D0E06B7008E965827003EA65837003022C6A900439E0FF7E00EF24FFFFEE34FFFEEFC4F8540FC868FFEEC454F048FE90043FEF75
:402BC000F090043FE0FF7E00EF2488FFEE3460FE900440EEF0A3EFF0900439E0FF123BC6900444EEF0A3EFF0900444E0FEA3E0FF90043DE0FCA3E0FDD3ED9FEC9E40109042
:402C00000444E0FEA3E0FF90043DEEF0A3EFF0900442E4F0A3E4F090043DE0FEA3E0FF900442E0FCA3E0FDC3ED9FEC9E5032900440E0FEA3E0FF8F828E83E0FF90043A12C7
:402C4000060A900442E0FCA3E0FDE92DF9EA3CFAEF120409900442E475F00112041B80B7900439E0FF12424A800890043DE4F0A3E4F090043DE0FEA3E0FF227BFF7A53794C
:402C80009890034812061390034BE4F0A3E4F090034DE4F090056F12060AC003C002C00190034812060AC3D082D083D0E0E99582EA95834003022D5690034DE0FFEFC39449
:402CC00040507290056F12060AC003C002C00190034812060AC3D082D083D0E0E99582EA9583503790034812060A1203F0FF90034DE0FE74082EF582E43403F583EFF090E6
:402D0000034DE004F0900349E475F00112041B90034BE475F00112041B809D90034DE0FF74082FF582E43403F5837440F090034DE004F08083125214EF70061252F5EF703E
:402D4000F47B017A0379087D407C001242C990034DE4F0022C949003087480F0900309E4F090034BE0FEA3E0FFEEFF7E0090030AEFF090034BE0FEA3E0FFEF54FFFF9003F3
:402D80000BEFF0125214EF70061252F5EF70F47B017A0379087D407C001242C922900471EFF0900472ECF0A3EDF0900474120613124DC4EF6003022EB0900471E0FF900468
:402DC0007412060A900477E0FCA3E0FD900487ECF0A3EDF0123D29900479EFF0900479E0FFEF64076003022EAB904722E0FFEF5402FF7E00EF4E70097F017E00124E9880B1
:402E0000E8904722E0FFEF5402FF7E00EF4E600D904722E0FFEF1313543FFF80027FFFEF7007900479E4F0800690047974FFF0900479E0FFEF7074900471E0FF900472E021
:402E4000FCA3E0FD90052AE0FB90052BE0FE9004E7EEF0123E75900479EFF0900479E0FFEF64077046904722E0FFEF5402FF7E00EF4E70097F017E00124E9880E8904722F1
:402E8000E0FFEF5402FF7E00EF4E600D904722E0FFEF1313543FFF80027FFFEF7007900479E4F0800690047974FFF012524080069004797404F0900479E0FF2212526B90FF
:402EC0000607EFF09043A5E0FFEF4401FFEFF09043B5E0FFEF4401FFEFF090609D7401F09060097402F0906010E0FFEF547FFFEFF07F007E00124E98904394E0FFEF54F9BD
:402F0000FFEFF0906012E0FFEF54DFFFEFF0904394E0FFEF4401FFEFF07F017E00124E987F287E00124E989051F8E0FFEF547FFFEFF09051F8E0FFEF54BFFFEFF090439410
:402F4000E0FFEF4402FFEFF07F027E00124E98904394E0FFEF4404FFEFF0906084E4F0906085E4F0900607E0FF1251A27C4A7DE27F171241487D067F171247C37C4D7DFF2B
:402F80007F151241487D067F151247C37C257DD07F181241487D067F181247C37C457D617F021241487D067F021247C37C457DC87F031241487D067F031247C37C467D2FCC
:402FC0007F041241487D067F041247C32290051812061390051BEDF0124F7190051BE0FFEFC3948040030230CB124DC4EF60030230C390051C74FFF090051812060A9004C2
:4030000087E4F0A37410F07F40123D29EF640760030230BE904722E0FFEF5402FF7E00EF4E60F1904722E0FFEF5402FF7E00EF4E600D904722E0FFEF1313543FFF80027F4E
:40304000FFEF700590051CE4F090051CE0FFEF706790051BE0FFEFFD7C0090052AE0FB90052BE0FF9004E7EFF07F40123E75EF6407703D90051C74FFF0904722E0FFEF54CE
:4030800002FF7E00EF4E60F1904722E0FFEF5402FF7E00EF4E600D904722E0FFEF1313543FFF80027FFFEF701590051CE4F0800E90051C74FFF0800690051C74FFF01252A7
:4030C00040800E90051C7404F0800690051C7401F090051CE0FF22900595E4F0906004E0FFEF547FFF900593EFF0900593E0FF7E00EF24FFFFEE34FFFEEFC4F8540FC8680F
:40310000FFEEC454F048FE900594EFF0900593E0FFEFD3940050030231C8900593E0FFEFC3940940030231C8900593E0FFEF75F00BA42449F582E43402F583E0FFEF44017A
:40314000FFEFF0900593E0FFEF75F00BA4244AF582E43402F583E4F0900593E0FFEF75F00BA42448F582E43402F583E0FFEF4402FFEFF0900593E0FFEF75F00BA4244BF53D
:4031800082E43402F583E0FFEF5480FF7E00EF4E6018900594E0FF7E00EF240EFFEE3460FE8F828E83748DF08016900594E0FF7E00EF240EFFEE3460FE8F828E837489F023
:4031C000125156900595EFF0900595E0FF229004EF1206139004F3E4F07B007A007900C003C002C0019004EF12060AD082D083D0E06B7008E965827003EA6583700302328C
:40320000BF9004EF12060A74221204099004EF12060AE92401F9EA3400FA74031204099004F27402F09004F2E0FFEFC3942240030232BF9004F3E0FFE4FCFDFEEF2400FFD9
:40324000EE3401FEED340CFDEC3400FCA907AA06AB051253019004F4EFF09004F3E004F09004F4E0FFEFC4540FFFEF9058D393FF9004EF12060A9004F2E0FEE92EF9E43AC0
:40328000FAEF1204099004F4E0FFEF540FFFEF9058D393FF9004F2E0FEEEFD7C00ED2402FDEC3400FC9004EF12060AE92DF9EA3CFAEF1204099004F2E02404F00232252240
:4032C0009004071205F274FFFFFEFDFC900407E0F8A3E0F9A3E0FAA3E0FBC31205A360387F807E967D187C4B900407E0F8A3E0F9A3E0FAA3E0FB1202B86002501B7F807E53
:40330000967D187CCB900407E0F8A3E0F9A3E0FAA3E0FB1202B8500F900407E0FCA3E0FDA3E0FEA3E0FF22900407E0FCA3E0FDA3E0FEA3E0FF12036F90040B1205F2900430
:403340000BE0FCA3E0FDA3E0FEA3E0FFEC120331C8ECC8C9EDC9CAEECACBEFCB900407E0FCA3E0FDA3E0FEA3E0FF12001DE4FBFAF9F81202B8502590040BE0FCA3E0FDA3DD
:40338000E0FEA3E0FFE4FAF9F8EF2401FFEA3EFEE93DFDE83CFC90040B1205F290040BE0FCA3E0FDA3E0FEA3E0FFEC1203312275930078007583467582E8E04401F0009026
:4033C00046ECE0F99046FAE0FAB903225420B40012B8001AEA901FFFF07401901FFEF09046F6F0901FFEE06005901FFFE0FA90480074C0F075810C90000078007920E4F0EB
:40340000A3D8FCD9FAEA900418F0020011750B1F750CFD121F9A023454025170E493A3F8E493A34003F68001F208DFF48029E493A3F85407240CC8C333C4540F4420C883E7
:403440004004F456800146F6DFE4800B0102040810204080904A40E47E019360BCA3FF543F30E509541FFEE493A360010ECF54C025E060A840B8E493A3FAE493A3F8E493B6
:40348000A3C8C582C8CAC583CAF0A3C8C582C8CAC583CADFE9DEE780BE900627EFF09003F5E4F0900627E0FFEF6401600302357C904E007430F0904E027406F0904E037496
:4034C00008F0904E04E4F0904E05E4F0904E06741FF0904E08E4F0904E09E4F0904E0AE4F0904E147401F09058847414F09058857405F09058867416F0905887E4F09058AB
:403500008A7444F090588B7448F090588C7401F090588E7401F090588F7411F09058907419F09058917497F07F521249ED9058947458F0905895E4F090589A7405F09058BC
:403540009B7402F090589CE4F090589DE4F07F0012513B7F337E037D007C009003FB1205F27D017F697E001221327D017FAA7E011222C77C4E7D977F1D124148229004077D
:40358000EEF0A3EFF0A37404F0A374A6F0900409E0FEA3E0F5828E83E0FEA3E0FF4E7003FEFF228F828E83A3A3E0FCA3E0FD900407E0FAA3E0FBC3ED9BEC9A500A900409AE
:4035C000EEF0A3EFF080C68F828E83A3A3E0FCA3E0C39BFDEC9AFC90040BF0A3EDF0C39410EC940050178F828E83E0FCA3E0FD900409E0FAA3E0F5828A83EC804590040CD7
:40360000E024FCF090040BE034FFF0E0FDA3E08F828E83A3A3CDF0A3EDF0EF2404FFE43EFE90040CE02FFF90040BE03EFE900409F0A3EFF0900407E0FDA3E08F828E83A385
:40364000A3CDF0A3EDF0EF2404FFE43EFE229004D1E4F07BFF7A5879E3C003C002C0017B017A0479D2A801AC02AD03D001D002D0037E007F051207887D017F00124F4812CE
:40368000537FEF70061252F5EF70F41252E71252F5EF70030237191251FEEF60F17B017A0479D2123B0F9004D1EFF09004D1E0FFEF6459705C9004D2E0FFEF12062836DA09
:4036C0004336D24436CB49000037097F45124FE580BC122C7B12469680B47B017A0479D2C003C002C0017B017A0479AEA801AC02AD03D001D002D0037E007F0512078812B2
:4037000049957F59124FE580857F4E124FE502368E7F4E124FE502368E1253312212526B9005DCEFF09003EFE0FF9005DBEFF09043AAE0FFEF4401FFEFF09043AAE0FFEF96
:403740004410FFEFF09043BAE0FFEF4401FFEFF09043BAE0FFEF4410FFEFF09046F8E0FFEF4402FFEFF09046F9E0FFEF4402FFEFF0905891E0FFEF4403FFEFF07F037E001F
:40378000124E989046F8E0FFEF54FDFFEFF09046F9E0FFEF54FDFFEFF0905877E0FFEF4406FFEFF0905882747AF09043A1E0FFEF4401FFEFF09043B1E0FFEF4401FFEFF003
:4037C0009043A2E0FFEF4401FFEFF09043B2E0FFEF4401FFEFF09044DB7420F09044C37420F09005DCE0FF1251A222C0E0C0F0C083C082C085C084C086758600C09375932E
:4038000000C0D075D000C000C001C002C003C004C005C006C0079005C7E4F0A3E4F0124E96125103124F1E9005C7EEF0A3EFF09005C7E0FEA3E0FFEE30E70A9005C7E4F05E
:40384000A3E4F0801B9005C7E0FEA3E0FFC3EF94FFEE940F400A9005C7740FF0A374FFF07B017A0579C7C003C002C00190056F12060A900003120613900006E4F0A374029D
:40388000F0D001D002D00312155A900570E475F00212041BD007D006D005D004D003D002D001D000D0D0D093D086D084D085D082D083D0F0D0E032900624E4F09002B5E006
:4038C000FF7E00900244EE8FF012041B9002ACE0FEA3E0FFD3EF9400EE94004053900624E0FFEFC3940850489002AE12060A1203F0FF900624E0FEEEFD7C00ED2400FDECF0
:403900003460FC8D828C83EFF09002AE12060AE92401F9EA3400FA9002AE120613900624E004F09002AC74FF75F0FF12041B809C9002B5E0FFEF6408600B900624E0FFEFAA
:40394000D39400401C9002BEE0FFEF6480FF9002BEEFF0900243740FF09002BF7402F0800C9002437402F09002BF7402F0900624E0FF9002B5EFF0900624E0FF900246EFB8
:40398000F0229003EF7401F09003FAE4F07F1012502B7F1012504C7D077F1D1247C39058967407F0905897E4F090589EE4F0905B07E0FFEF4418FFEFF0905893E4F0905B4E
:4039C00088E4F0905B89E4F0905880740AF0905881E4F0905883E4F09058887412F09058897413F090588DE4F0904E017414F09003D1740CF09003D27401F07B007A807DD3
:403A00006B7C8D7F021218049003EFE0FFEF75F003A424F6F582E43403F583E0FF904E0EEFF09003EFE0FFEF75F003A424F4F582E43403F583E0FCA3E0FD7B027A4E790C95
:403A40001252DA9003EFE0FF12349922900610E4F0906000E0FFEF5480FF7E00EF64804E7033906001E0FFEF1206283A722100003B099002ACE4F0A37407F07B017A0479B6
:403A8000469002AE1206131243BB900610EFF0807880768074906000E0FFEF5480FF7E00EF4E7065906001E0FFEF1206283AB7203AE42200003B099002ACE4F0A37407F009
:403AC0007B017A0479469002AE12061390044FE0FFEF4401FF90044FEFF0124822900610EFF08025906002E0FF7E00900450EEF0A3EFF090044FE0FFEF4402FF90044FEFEA
:403B0000F0125156900610EFF0900610E0FF229002C1120613900304E4F0A3E4F0900306E4F09003077459F0124D26900304EEF0A3EFF0900304E0FEA3E0FFEF64054E7003
:403B4000767B017A0279C47D057C00124E699002C4E0FF9002C112060AEF1204099002C5E0FF7E00EF7F00FE9002C6E0FD7C00EE4CFEEF4DFF9002C112060AE92401F9EA71
:403B80003400FAEE8FF01204319002C7E0FF7E00EF7F00FE9002C8E0FD7C00EE4CFEEF4DFF9002C112060AE92403F9EA3400FAEE8FF012043180091250E6900307744EF074
:403BC000900307E0FF22900543EFF0900545E4F0A3E4F0900543E0FFEFD394005003023C72900543E0FFEFC394094003023C72900543E0FF7E00EF24FFFFEE34FFFEEFC42D
:403C0000F8540FC868FFEEC454F048FE900544EFF0900544E0FF7E00EF240CFFEE3460FE8F828E83E0FFEF540FFF7E00900545EEF0A3EFF0900544E0FF7E00EF240DFFEEE5
:403C40003460FE8F828E83E0FFEFFD7C00900545E0FEA3E0FFEF7F00FEEE4CFEEF4DFF900545EEF0A3EFF090054574FF75F0FE12041B900545E0FEA3E0FF229005DAE4F076
:403C8000906029E0FFEF540FFFEF24FEFF9005D9EFF09005D9E0FF7E00900244EE8FF012041B9002ACE0FEA3E0FFD3EF9400EE940040579005D9E0FFEFD39400404C90054E
:403CC000DAE0FF7E00EF2400FFEE3460FE8F828E83E0FF9002AE12060AEF1204099002AE12060AE92401F9EA3400FA9002AE1206139005DAE004F09005D9E014F09002ACCB
:403D000074FF75F0FF12041B80989005D9E0FF900246EFF09002BEE0FFEF6480FF9002BEEFF0900243740BF022900483EFF09004841206139004897407F0904722E0FFEF41
:403D40005402FF7E00EF4E607D90472074B6F090472074D5F09047207402F0904722E0FFEF5402FF7E00EF4E7054900483E0FF904720EFF090048AE4F0A3E4F0900487E0ED
:403D8000FEA3E0FF90048AE0FCA3E0FDC3ED9FEC9E503990048412060A90048AE0FEA3E0FFE92FF9EA3EFA1203F0FF904720EFF090048AE475F00112041B80C0800E9004E7
:403DC000897409F080069004897404F0900489E0FF229005367401F0906004E0FF900537EFF0900242E0FFEF14FF12493A900538EEF0A3EFF0900538E0FEA3E0FF8F828EB3
:403E000083A312061CE92404F9EA3400FA1203F0FF90053AEFF090053AE0FF900537E0FEEEC39F500B900537E0FFEFC394024007900536E4F08038900537E0FF74AA2FF5D3
:403E400082E43402F583E0FF900537E0FE74B92EF582E43402F583EFF0906002E0FF900537E0FE74AA2EF582E43402F583EFF0900536E0FF229004E3EFF09004E4ECF0A39A
:403E8000EDF09004E6EBF09004E87407F0904722E0FFEF5402FF7E00EF4E606B90472074B6F090472074D8F09047207405F0904722E0FFEF5402FF7E00EF4E70429004E3A3
:403EC000E0FF904720EFF09004E4E0FEA3E0FFEEFF7E00904720EFF09004E4E0FEA3E0FFEF54FFFF904720EFF09004E6E0FF904720EFF09004E7E0FF904720EFF0800E9088
:403F000004E87409F080069004E87404F09004E8E0FF229005B9EFF09005BAEDF09044C27480F09044C37401F09044C07404F09044C07408F09044C07410F09002BFE4F049
:403F40009005BAE0FFEF1206283F53003F5B0100003F639060097402F0800E9060097403F080069060097403F09005B9E0FF9002C0EFF0900242E4F09002B4E4F09002B878
:403F8000E4F09002BBE4F0900241E4F09002B5E4F09060287403F09060087480F07F017E007D007C00124E009060127404F0229005EBE4F09005ECE4F0906000E0FFEF5451
:403FC00003FFEF1206283FD0013FDC0200003FFA906004E0FF9005ECEFF0801E906004E0FFEF547FFFEF75F00BA42451F582E43402F583E0FF9005ECEFF09005ECE0FF9015
:4040000002B6E0FCA3E0FD8D828C83E5822FF582E43583F583E493FFEF120628403501402D0240350300004035800A8008123A4C9005EBEFF09005EBE0FF22906028E0FF35
:40404000900623EFF0900623E0FF906028EFF0906028E0FF900623EFF0900623E0FFEF5480FF7E00EF4E600B900623E0FF900243EFF0227F02124761906000E0FFEF5460EF
:40408000FFEF120628409200409C2040A640000040B0120CD8900623EFF08019123FAF900623EFF0800F124B33900623EFF08005900623E4F0900623E0FFEF700690024394
:4040C0007403F0229005C3EFF0124F719005C3E0FFEFC394025065124DC4EF70579005C3E0FD7F40124427EF6407703D9005C474FFF0904722E0FFEF5402FF7E00EF4E60B6
:40410000F1904722E0FFEF5402FF7E00EF4E600D904722E0FFEF1313543FFF80027FFFEF700D9005C4E4F080069005C474FFF0125240800E9005C47404F080069005C474AA
:4041400001F09005C4E0FF22900504EFF0900505ECF0A3EDF0900504E0FFEFD3941F5003D38001C340057F00125256900504E0FFEF541FFF7E00EF25E0FFEE33FEEF240035
:40418000FFEE3444FEAA06A9077B011252CB900507EEF0A3EFF0900504E0FF7E02EF8EF0A4FFAEF0EF2400FFEE3444FEAA06A9077B01900505E0FEA3E0FFAD07AC061252D9
:4041C000DA900507E0FEA3E0FF22904E14E0FFEF5403FF90058CEFF090058CE0FFEFD394015032904E11E0FF7E0090058AEEF0A3EFF090058AE0FEA3E0FFEF7F00FE904E44
:4042000010E0FD7C00EE4CFEEF4DFF90058AEEF0A3EFF0801F7B027A4E79101252CB90058AEEF0A3EFF090058CE0FFEFB40305904E12E0FF9003F5E0FFEF60059003FAE462
:40424000F090058AE0FEA3E0FF229005BBEFF09005BBE0FFEFD39400406E9005BBE0FFEFC3940950639005BBE0FF7E00EF24FFFFEE34FFFEEFC4F8540FC868FFEEC454F00A
:4042800048FE9005BCEFF09005BBE0FFEF75F00BA42448F582E43402F583E4F09005BBE0FFEF75F00BA4244CF582E43402F583E0FF9005BCE0FEEEFD7C00ED240EFDEC34B1
:4042C00060FC8D828C83EFF02290050912061390050CECF0A3EDF090044DE0FFEF75F00BA4244FF582E43402F583E0FEA3E0FF90050CE0FCA3E0FDD3ED9FEC9E40259004FF
:404300004DE0FFEF75F00BA4244FF582E43402F583E0FEA3E0FF90050CEEF0A3EFF07F0012525690044DE0FF90050912060A90050CE0FCA3E0FD900456ECF0A3EDF0121D46
:40434000CD22900242E0FFEF14FF12493A900590EEF0A3EFF0900590E0FEA3E0FF8F828E83A312061CE92404F9EA3400FA1203F0FF900592EFF0900592E0FF7E00EF24023C
:40438000FFEE3400FEEF7802C333CE33CED8F9FF900590E0FCA3E0FDEF2DFFEE3CFE900590EEF0A3EFF0900590E0FEA3E0FF8F828E83A312061CAE02AF01229002ACE0FE7B
:4043C000A3E0FFEF4E700512506D80589002BF7402F09002BEE4F0124B83906007E0FF7E00EF7F00FE906006E0FD7C00EE4CFEEF4DFF9005D5EEF0A3EFF09005D5E0FEA3F0
:40440000E0FF9002ACE0FCA3E0FDD3ED9FEC9E40109005D5E0FEA3E0FF9002ACEEF0A3EFF01238B77F0122900584EFF0900585EDF09005867407F0904722E0FFEF5402FF2E
:404440007E00EF4E603F90472074B6F090472074DBF09047207408F0904722E0FFEF5402FF7E00EF4E7016900584E0FF904720EFF0900585E0FF904720EFF0800E90058695
:404480007409F080069005867404F0900586E0FF22906008E0FFEF547FFFEFF0906012E0FFEF54FBFFEFF09043A5E0FFEF54FEFFEFF09043B5E0FFEF54FEFFEFF09044CA5C
:4044C0007480F09044CB7401F09044C87404F09044C87408F09044C87410F0900242E4F09002B4E4F09002B8E4F09002BBE4F0900241E4F090060FE4F022124F7190061AF3
:4045000074FFF0124DC4EF704C7F011248DFEF6407703D7B017A05792A7D021246FCEFB4021F90061AE4F0904722E0FFEF5402FF7E00EF4E701A7F017E00124E9880E88092
:404540000F904722E0FFEF5402FF7E00EF4E60C3125240800690061A7404F090061AE0FF22C0E0C083C082C085C084C086758600C093759300C0D075D000C006C0079060A3
:404580000EE0FF900252E0FFEF5403FF7E00EF64014E600E900255E0FFEF6480FF900255EFF09002537401F090600BE0FFEF54FEFFEFF0D007D006D0D0D093D086D084D0AD
:4045C00085D082D083D0E032C0E0C083C082C085C084C086758600C093759300C0D075D000C006C00790601EE0FF90025DE0FFEF5403FF7E00EF64014E600E900260E0FFA4
:40460000EF6480FF900260EFF090025E7401F090600BE0FFEF54FDFFEFF0D007D006D0D0D093D086D084D085D082D083D0E032C0E0C083C082C085C084C086758600C09312
:40464000759300C0D075D000C006C00790602EE0FF900268E0FFEF5403FF7E00EF64014E600E90026BE0FFEF6480FF90026BEFF09002697401F090600BE0FFEF54FBFFEF37
:40468000F0D007D006D0D0D093D086D084D085D082D083D0E0329004D7E4F07BFF7A5879E8C003C002C0017B017A0479D8A801AC02AD03D001D002D0037E007F0512078837
:4046C0001251FEEF70061252F5EF70F47B017A0479D8123B0F9004D7EFF09004D7E0FFEFB459DD9004D8E0FFEFB4590F7BFF7A53799890056F1206132280C52290053112F6
:404700000613900534EDF0900535E4F0900534E0FF900535E0FEEEC39F5040904722E0FFEF5401FF7E00EF4E6003D38001C340097F017E00124E9880E2904720E0FF900590
:404740003112060A900535E0FEE92EF9E43AFAEF120409900535E004F080B1900535E0FF22900625EFF07B007A007900C003C002C0019002B112060AD082D083D0E06B708B
:4047800008E965827003EA65836037900625E0FF9002B112060AEF120409900244E0FEA3E0FF9002B112060AE92401F9EA3400FAEE8FF01204317B007A0079009002B11207
:4047C0000613229005ADEFF09005AEEDF09005AEE0FFEFD394075003D38001C340057F001252569005ADE0FFEFD3941F5003D38001C340057F001252569005AEE0FFEF54F3
:4048000007FF7E00EF75F020A4FFAEF09005ADE0FEEE541FFE74802EF582E43444F583EFF0229002BF7404F09002BE7480F0124B83906007E0FF7E00EF7F00FE906006E0EF
:40484000FD7C00EE4CFEEF4DFF9005D7EEF0A3EFF09005D7E0FEA3E0FF9002ACE0FCA3E0FDD3ED9FEC9E40109005D7E0FEA3E0FF9002ACEEF0A3EFF0900243740BF07F01B3
:404880002290054F120613900552E4F0124F717B007A007900C003C002C00190054F12060AD082D083D0E06B7008E965827003EA658370089005527401F0801D124DC4EFC0
:4048C00060089005527404F0800F90054F12060A900527120613125240900552E0FF229005CFEFF09005D07407F0904722E0FFEF5402FF7E00EF4E603590472074B6F090D9
:40490000472074E1F0904720740EF0904722E0FFEF5402FF7E00EF4E700C9005CFE0FF904720EFF0800E9005D07409F080069005D07404F09005D0E0FF2290058DEFF0904C
:4049400002C0E0FFEF25E025E02468F582E43458F58312061CAE02AF0190058EEEF0A3EFF090058EE0FEA3E0FF8F828E83C083C08290058DE0FFD082D08375F004EF12055C
:40498000FEE5822405F582E5833400F58312061CAE02AF01229004B3E4F0A3E4F09004AFE0FEA3E0FFEF8EF012064E49D0005349BB005549C50056000049D99004B3E4F0BA
:4049C000A3E4F080149004B3E4F0A37402F080099004B3E4F0A37404F09004B3E0FEA3E0FF9004B1E0FCA3E0FD121BFE229005E7EFF012526B9005E8EFF09046F8E0FFEF22
:404A00004403FFEFF09046F9E0FFEF4403FFEFF09005E7E0FF905892EFF07F037E00124E989046F8E0FFEF54FCFFEFF09046F9E0FFEF54FCFFEFF09005E8E0FF1251A222CB
:404A400043056FFF539844041403D0900044040F0000FA00410413404404197D00000041060F00430527000000410622004103FA004103F5004103F0004103F6004103EFC9
:404A80000141062DFF004804A60000000000000000C0E0C0F0C083C082C085C084C086758600C093759300C0D075D000C000C001C002C003C004C005C006C00712364ED03F
:404AC00007D006D005D004D003D002D001D000D0D0D093D086D084D085D082D083D0F0D0E032C0E0C0F0C083C082C085C084C086758600C093759300C0D075D000C000C052
:404B000001C002C003C004C005C006C007124D94D007D006D005D004D003D002D001D000D0D0D093D086D084D085D082D083D0F0D0E032900629E4F0906000E0FFEF5480DC
:404B4000FF7E00EF64804E7034906001E0FFEF1206284B590100004B7D7BFF7A58797D9002AE12061390587DE493FF7E009002ACEEF0A3EFF01243BB900629EFF090062976
:404B8000E0FF22900244E4F0A3E4F07B007A007900C003C002C0019002B112060AD082D083D0E06B7008E965827003EA6583601F9002B112060AE41204099002B112060A21
:404BC000E92401F9EA3400FAE475F00012043122900619EFF0900619E0FFEFC394025039900619E0FFEF25E024A5F582E43458F583E493FE740193FF8F828E83C083C0822A
:404C0000E0FF900619E0FEEE9058A993FEEEF4FEEF5EFFD082D083EFF022900618EFF0900618E0FFEFC394025036900618E0FFEF25E024A5F582E43458F583E493FE7401AB
:404C400093FF8F828E83C083C082E0FF900618E0FEEE9058A993FEEF4EFFD082D083EFF022C2D5E830E70FB2D5E4C39BFBE49AFAE499F9E498F8EC30E717B2D5124C97122B
:404C800004F6E4C39BFBE49AFAE499F9E498F880031204F630D50DE4C39FFFE49EFEE49DFDE49CFC227B0C7A0179CF125301900617EFF0900617E0FFEF5407FF90586EEF83
:404CC000F0900617E0FFEFC4540FFFEF540FFF90586FEFF090510D7480F0905B007480F09058767444F0229005E1EFF09003F5E0FFEF600C9003FAE0FF9005E2EFF0800E6C
:404D0000904E01E0FFEF5401FF9005E2EFF09005E2E0FFEF640160089005E1E0FFEF60CC9005E2E0FF229005C1E4F0A3E4F090044EE0FFEF75F00BA42448F582E43402F5CB
:404D400083E0FFEFB4011090044EE0FF123BC69005C1EEF0A3EFF09005C1E0FEA3E0FF22758600EF4E6027EF60010E759300900404E0F595A3E0F585A3E0F5848B938A8370
:404D80008982E0A30586F0A31586DFF6DEF4E4F593F595229002BFE4F0900242E4F09002B4E4F09002B8E4F09002BBE4F0900241E4F09002B5E4F09060287403F09060088E
:404DC0007480F0229005D17404F012526B9005D2EFF0900622E0FFEF700B9006227401F09005D1E4F09005D2E0FF1251A29005D1E0FF229046F6E0FFEF4401FFEFF02232AF
:404E0000EC4D4E700D78FCEF24E950032840FD2200007BF178DA0000EF28FF78FFEE38FEED38FDEC38FC50E7EF2BFFEE38FEED38FDEC38FC40F222050203049002BFE0FF2B
:404E4000EF1206284E68004E55024E59044E5D0600004E682212500A22123C7B227F031247619002437403F022900513120613900516ECF0A3EDF090044EE0FF900513120C
:404E8000060A900516E0FCA3E0FD90043DECF0A3EDF0122B50222232EEFA900413E0F88FF0A4FFAEF0E88AF0A42EFEE5F03400FDEF24C9FF78FFEE38FEED38FDE438FC504C
:404EC00003024E0022ACEAADA08B938A838982E0F96017A3E0F5EAA3E0F5A0A3E060F4FAA3E0F8A3E0F2DAF8D9E98DA08CEAE4F593229002BBE0FFEF60139002BBE0FFEF2B
:404F00004480FF906008EFF09002BBE4F09002BFE4F07F011247619002437403F022904E01E0FFEF4404FFEFF01253197F00124CE71241CA9005E9EEF0A3EFF012532590CF
:404F400005E9E0FEA3E0FF229005B7EFF09005B8EDF090060FE0FFEF7009122EBC90060F7401F09005B7E0FF9005B8E0FD123F132212526B90061FEFF09043A0E0FFEF44B7
:404F800008FFEFF09043B0E0FFEF4408FFEFF090061FE0FF1251A22290062AE4F090062AE0FFEFC39402501090062AE0FF124BD090062AE004F080E590062D74FFF022905D
:404FC00002BFE0FFEF1206284FE4004FD9024FDD044FE10600004FE422125391221252B822124EF2229005F7EFF0125214EF70061252F5EF70F41252F5EF600D7B017A055C
:4050000079F77D017C001242C9229002B5E0FF7E00900244EE8FF012041B9002BFE4F07F011247619002437403F02290062FEFF0904082C083C082E0FF90062FE0FEEE54B3
:40504000F8FEEF4EFFD082D083EFF022900632EFF0904102C083C082E0FF900632E0FEEE54F8FEEF4EFFD082D083EFF0229002BF7402F09002BE7480F0900243740FF090F7
:4050800002B5E4F0900246E4F07F01229005B5EEF0A3EFF07B027A4479029005B5E0FEA3E0FFAD07AC061252DA229005C9EEF0A3EFF07B027A4479009005C9E0FEA3E0FF17
:4050C000AD07AC061252DA221244FA90061BEFF090061BE0FFEF70081244FA90061BEFF090061BE0FF2290044EE0FF7B017A06791190043DE4F0A37401F0122B5090061159
:40510000E0FF229003F0E0FFEF70119003F6E0FFEF70031239829003F07401F012371D229002C0E0FFEF25E025E02468F582E43458F58312061CAE02AF012290062BEFF02A
:40514000124F9890062BE0FF124C1A90062BE0FF90062DEFF0229002BF7406F09002437406F09002BE7480F0900246E4F07F0122125389D2AF9044F474FDF012528012525E
:405180009380FEE47E007F0022EC4D6011ED60010C8B938A838982E4F0A3DDFCDCFA75930022EF54016004D2AF8002C2AFEF5402FF9044F4E054FD4FF0229043ACE0FFEF4A
:4051C0004410FFEFF09043BCE0FFEF4410FFEFF0229043ACE0FFEF54EFFFEFF09043BCE0FFEF54EFFFEFF022900605EFF0900605E0FFEFC43354E0FF904481EFF0229004C7
:405200004EE0FFEF75F00BA42448F582E43402F583E0FF2290044DE0FFEF75F00BA42448F582E43402F583E0FF22900614EFF0900614E0FFEFC43354E0FF904480EFF0220F
:4052400012526B900621EFF0900622E4F0900621E0FF1251A22290FFFF12067BEFF09046EA7401F090000112067B229044F4E0F84402F0E85402FF10AF012274014FFF223B
:4052800012536A7E4A7F9112508C7F071251E8125363221253787E377FEB1250AA7F0712522A12537122900616EFF0900616E0FF900616EFF080FE229002BFE4F07F011292
:4052C00047619002437403F0228B938A838982E0FFA3E0FE759300228B938A838982EDF0A3ECF07593002290044FE4F090044EE0FF12424A22905161E0FFEF5401FF7E0012
:40530000228B938A838982E0759300FF228B938A838982EDF075930022904E00E0FFEF4401FFEFF022904E00E0FFEF54FEFFEFF02212538D124491124DF3227B027A4079E3
:40534000801252CB22904082E0FFEF5407FF227B027A4179001252CB22904102E0FFEF5407FF229044C07402F0229044C87402F0229044C07401F0229044C87401F0229093
:405380000242E0FF221251BA22125385221251D1221238B722323232000000000000000000000000000000000000000000000000000000000000000000000000000000004E
:4053C00000000000000000000000000000000000000000000000000000000000000000000000000000000000000000000000000000000000000000000000000000000000AD
:40540000000000000000000000000000000000000000000000000000000000000000000000000000000000000000000000000000000000000000000000000000000000006C
:40544000000000000000000000000000000000000000000000000000000000000000000000000000000000000000000000000000000000000000000000000000000000002C
:4054800000000000000000000000000000000000000000000000000000000000000000000000000000000000000000000000000000000000000000000000000000000000EC
:4054C00000000000000000000000000000000000000000000000000000000000000000000000000000000000000000000000000000000000000000000000000000000000AC
:40550000000000000000000000000000000000000000000000000000000000000000000000000000000000000000000000000000000000000000000000000000000000006B
:40554000000000000000000000000000000000000000000000000000000000000000000000000000000000000000000000000000000000000000000000000000000000002B
:4055800000000000000000000000000000000000000000000000000000000000000000000000000000000000000000000000000000000000000000000000000000000000EB
:4055C00000000000000000000000000000000000000000000000000000000000000000000000000000000000000000000000000000000000000000000000000000000000AB
:40560000000000000000000000000000000000000000000000000000000000000000000000000000000000000000000000000000000000000000000000000000000000006A
:40564000000000000000000000000000000000000000000000000000000000000000000000000000000000000000000000000000000000000000000000000000000000002A
:4056800000000000000000000000000000000000000000000000000000000000000000000000000000000000000000000000000000000000000000000000000000000000EA
:4056C00000000000000000000000000000000000000000000000000000000000000000000000000000000000000000000000000000000000000000000000000000000000AA
:405700000000000000000000000000000000000000000000000000000000000000000000000000000000000000000000000000000000000000000000000000000000000069
:405740000000000000000000000000000000000000000000000000000000000000000000000000000000000000000000000000000000000000000000000000000000000029
:405780000000000000000000000000000000000000000000000000001201000202000008B40432F201000102800109024300020101C03209040000010202010005240010D9
:4057C0000104240202052406000105240100010705810308000A09040100020A0000000705820240000A0705030240000A040309041803450072006500620075007300207B
:40580000004C0061006200730028035300540045004D002000530065006E0073006F0072002000520065007600200030002E003100000203000081030008020100820200D4
:40584000400A0100030200400A020A01FF57AA03FF5834000000000000000000FF584901FF579801FF584B01FF585F12034D00530046005400310030003000010028000001
:40588000000001040001000000000000000001435955534200000030303030310000000000000000005B0343244000004F00000C00511000500051C0001001000010000126
:4058C000140008000140000A00014C0002000150000020303132333435363738394142434445460000000000000000000000000000000000000000000000000000000000DF
:405900000000000000000000000000000000000000000000000000000000000000000000000000000000000000000000000000000000000000000000000000000000000067
:405940000000000000000000000000000000000000000000000000000000000000000000000000000000000000000000000000000000000000000000000000000000000027
:4059800000000000000000000000000000000000000000000000000000000000000000000000000000000000000000000000000000000000000000000000000000000000E7
:4059C00000000000000000000000000000000000000000000000000000000000000000000000000000000000000000000000000000000000000000000000000000000000A7
:0200000480007A
:400000001A0045017E02004F0201200A4B005203000301017C400101028301852001021E001003020A101301140116021C021E05260830103204340335013608370256081E
:40004000580459045B045C115D905F018601B601B820BA80BE10D804DC02DF010103200108040107040D080E01162019501D281E011F012401270537013F015C5066206710
:40008000018D1090109702A520B410C054C2A0C420CC80CE80D630D830E240E610EA0401050694409D08B140B201EA80EE80010703A908B440E208010902E208EA40010D0F
:4000C00003E040E610EA14011501EC20011B01EC2001400B30083380358036083B1083808580CCF0CE10E210E62001410A548057018C088D089710A408AA08D440D620EAF4
:40010000200142081280590897109908B080B301C410D64001430587109710AA80E210EC2001440402207F20C008DE010145088E108F20A760AB40B620E002E608EA0801C5
:400140004606050246109610A740C004D0010147090A110F80860196109E10A740B502C20EEA020148022701C820014901B301014C019E10014D02B210EC040150050006D0
:40018000010102140806090101510200AF01020000030300030080002000002000000000C00000000101000000000000AA01180100000000000000000000000000000000BA
:4001C00000000000000000000000000000000000000000000000000000000000000000000000000000000000000000000000000000000000000000000000000000000000FF
:4002000000000000000000000000000000000000000000000000000000000000000000000000000000000000000000000000000000000000000000000000000000000000BE
:40024000000000000000000000000000000000000000000000000000000000000000000000000000000000000000000000000000000000000000000000000000000000007E
:40028000000000000000000000000000000000000000000000000000000000000000000000000000000000000000000000000000000000000000000000000000000000003E
:0200000490006A
:0400000000004005B7
:0200000490105A
:04000000BC90ACAF55
:0200000490303A
:0200000002E21A
:0200000490501A
:0C00000000011E02806903011E2E834BCC
:0200000490402A
:4000000000000000000000000000000000000000000000000000000000000000000000000000000000000000000000000000000000000000000000000000000000000000C0
:00000001FF
