:400000000245B6008F828E83E0540100000070F82278FFE4F6D8FD0246140203DBE86480F8E933E83360110460F0ED33EC337009E8FCE9FDEAFEEBFF220460DED3EB9FEAC1
:400040009EE99DE8C2E78CF0C2F795F0400CE8CCF8E9CDF9EACEFAEBCFFB1203A685D0F05804700320D5B3E80470075002B2D50203E592D5EC0460F7E4CCC0E0C398F860B5
:400080003B94186008400DD0E0FB0203BDE4FBFAC9FC8028E830E406E4C9FBE4CAFCE830E305E4C9CACBFCE854076010F8C3E913F9EA13FAEB13FBEC13FCD8F130F52FC331
:4000C000E49CFCEF9BFFEE9AFEED99FDD0E0FBEF4E4D4C701222DB030203E2EC2CFCEF33FFEE33FEED33FDED30E7EB0203BDEF2BFFEE3AFEED39FDD0E0FB50130BBB0003AD
:400100000203E5ED13FDEE13FEEF13FFEC13FC0203BDEC4D6011E8497017ED33EC3304600DE4FCFFFEFD22E933E8330470F80203DB1203A658046009E4CC248150062850E7
:40014000090203E52840030203E2C0E0EB4A7044B98006D0E0FB0203D1EF4E701CBD8008EBFFEAFEE9FD80EBE98DF0A4FEE5F00201FBE9CDF9EAFEEBFFEF89F0A4FCE5F087
:40018000CE89F0A42EFFE435F0CD89F0A42DFEE435F08067EF4E7005BD80D780C3EF8BF0A4ACF0EE8BF0A42CFCE435F0F8EF8AF0A42CE5F038FCE433CB8DF0A42CFCE5F0EE
:4001C0003BF8EE8AF0A42CFCE5F038F8E433CF89F0A42CFCE5F038CF3400CE89F0A42FFFE5F03EFEE433C98DF0A42EFEE5F039CD8AF0A42FFFE5F03EFEE43DFD33D0E0FBCD
:4002000050070BBB000F0203E5EC2CFCEF33FFEE33FEED33FD0203BD0203E5EC5D046005E8590470030203DB1203A6580460F6EC4860F2EC7004FDFEFF22C860DB2481C862
:400240005009C398600250060203E29850CAF582E9294B4A7005AB820203D175F0007C1A7880C3EF9BEE9AED99400DC3EF9BFFEE9AFEED99FDE842F0DC23ACF0D0E0FFD0BF
:40028000E0FED0E0FDAB8220E7101BEB60BAEC2CFCEF33FFEE33FEED33FD0203BDE803F830E705C0F075F000EF2FFFEE33FEED33FD40B830E7C280AA74F8CC6480CCC864A0
:4002C00080C8F58204604FC3EB9FF5F0EA9E42F0E99D42F0E89C45F0603C501DE5825FFFE582D313CB5BCBF42B5582FB50280ABA002409B9002008801DE5825BFBE582D354
:4003000013CF5FCFF4C3132F5582FF50090EBE00050DBD00010CC3EB9FF5F0EA9E42F0E99D42F0E89C45F06007CC4820E701B3EC2275F020800E75F010800575F0087D0045
:400340007E007F003392D530D50312062BEC334010EF33FFEE33FEED33FDEC33FCD5F0ED22E5F0247EA2D513CC92E7CDCEFF22EDD2E7CD33EC3392D524814006E4FFFEFDE9
:40038000FC22FCE4CFCECDCC24E0501174FF80EDC3CC13CCCD13CDCE13CECF13CF0470F030D5DE02062BE9D2E7C933E833F892D5EDD2E7CD33EC33FC5002B2D522EC30E7F8
:4003C000100FBF000C0EBE00080DBD00040BEB6014A2D5EB13FCED92E7FD2274FFFCFDFEFF22E480F8A2D574FF13FC7D80E480EFBB010689828A83E0225002E722BBFE02EF
:40040000E32289828A83E49322BB010689828A83F0225002F722BBFE01F322BC000BBE0029EF8DF084FFADF022E4CCF875F008EF2FFFEE33FEEC33FCEE9DEC984005FCEEDA
:400440009DFE0FD5F0E9E4CEFD22EDF8F5F0EE8420D21CFEADF075F008EF2FFFED33FD4007985006D5F0F222C398FD0FD5F0EA22C5F0F8A3E028F0C5F0F8E582158270021C
:400480001583E038F022A3F8E0C5F025F0F0E582158270021583E0C838F0E822BB010A89828A83E0F5F0A3E022500687F009E71922BBFE07E3F5F009E3192289828A83E478
:4004C00093F5F074019322BB010A89828A83F0E5F0A3F0225006F709A7F01922BBFE06F3E5F009F31922EF2BFFEE3AFEED39FDEC38FC22C3EF9BFFEE9AFEED99FDEC98FCA3
:4005000022E88FF0A4CC8BF0A42CFCE98EF0A42CFC8AF0EDA42CFCEA8EF0A4CDA8F08BF0A42DCC3825F0FDE98FF0A42CCD35F0FCEB8EF0A4FEA9F0EB8FF0A4CFC5F02ECDEB
:4005400039FEE43CFCEAA42DCE35F0FDE43CFC2275F008758200EF2FFFEE33FECD33CDCC33CCC58233C5829BED9AEC99E58298400CF582EE9BFEED9AFDEC99FC0FD5F0D6A7
:40058000E4CEFBE4CDFAE4CCF9A88222B800C1B90059BA002DEC8BF084CFCECDFCE5F0CBF97818EF2FFFEE33FEED33FDEC33FCEB33FB10D703994004EB99FB0FD8E5E4F986
:4005C000FA227818EF2FFFEE33FEED33FDEC33FCC933C910D7059BE99A4007EC9BFCE99AF90FD8E0E4C9FAE4CCFB2275F010EF2FFFEE33FEED33FDCC33CCC833C810D70741
:400600009BEC9AE899400AED9BFDEC9AFCE899F80FD5F0DAE4CDFBE4CCFAE4C8F922EF4BFFEE4AFEED49FDEC48FC22C3E49FFFE49EFEE49DFDE49CFC22EB9FF5F0EA9E4275
:40064000F0E99D42F0E89C45F022E8600FECC313FCED13FDEE13FEEF13FFD8F122E8600FEFC333FFEE33FEED33FDEC33FCD8F122E0FCA3E0FDA3E0FEA3E0FF22E0F8A3E0A1
:40068000F9A3E0FAA3E0FB22ECF0A3EDF0A3EEF0A3EFF022A42582F582E5F03583F58322E0FBA3E0FAA3E0F922EBF0A3EAF0A3E9F022E493FB740193FA740293F922D083E3
:4006C000D082F8E4937012740193700DA3A393F8740193F5828883E4737402936860EFA3A3A380DFD083D082F8E4937012740193700DA3A393F8740193F5828883E4737437
:400700000293B5F0067403936860E9A3A3A3A380D8E50C2582F582E50B3583F583B50B0485820C2210AF0685820CF50B2285820CF50BD2AF22EC8EF0A4CCC5F0CCCDF8EFF3
:40074000A4CEC5F02DFDE43CFCE8A42EC8C5F03DFDE43CFCEFA4FFE5F028FEE43DFDE43CFC22E709F608DFFA8046E709F208DFFA803E88828C83E709F0A3DFFA8032E30975
:40078000F608DFFA806EE309F208DFFA806688828C83E309F0A3DFFA805A89828A83E0A3F608DFFA804E89828A83E0A3F208DFFA804280D280FA80C680D4805580F28029BE
:4007C000801080A680EA809A80A880DA80E280CA802988848C8589828A83E493A30586F0A30586DFF5DEF3800B89828A83E493A3F608DFF9ECFAA9F0EDFB2288848C858989
:40080000828A83E0A30586F0A30586DFF6DEF480E389828A83E493A3F208DFF980D688F0EF60010E4E60CD88F0ED2402B4040050C3F582EB2402B4040050B9232345822379
:400840009007B273C0E0C0F0C083C082C085C084C086758600C093759300C0D075D000C000C001C002C003C004C005C006C0077F0412639B9003DAE004F09003DAE0FFEFC2
:40088000D3943B5003020E3E9003DBE004F09003DAE4F09003DBE0FFEFD3943B5003020D979003DCE004F09003DBE4F09003DCE0FFEFD394175003020CC79003DEE004F0EE
:4008C0009003DCE4F09003DFE475F0011204709003DDE004F09003DDE0FFEFD3940740069003DD7401F09003D6E0FFEF5402FF7E00EF4E602C9003E1E0FFEFB402239003E7
:40090000E1E0FFEF9073F993FF7E00EF2401FFEE3400FE9003DEE0FD7C00D3ED9FEC9E50589003D6E0FFEF5402FF7E00EF4E601F9003E1E0FFEF640260159003E1E0FFEF49
:400940009073F993FF9003DEE0FEEED39F502A9003D6E0FFEF5402FF7E00EF4E6003020B649003E1E0FFEF9073F993FF9003DEE0FEEED39F5003020B649003E1E004F0908A
:4009800003DE7401F09003E1E0FFEFD3940C5003020ABD9003E2E475F0011204709003E17401F09003DFE4F0A37401F09003E2E0FEA3E0FF7C017D9012041BED4C602590D6
:4009C00003E2E0FEA3E0FF7E00EF5403FFEF4E70179003E2E0FEA3E0FF7C007D6412041BED4C60047F0180027F00EFB401109003D6E0FFEF4402FF9003D6EFF0800E900311
:400A0000D6E0FFEF54FDFF9003D6EFF09003E4E0FFEF5480FF7E00EF64804E70047F0180027F00EF60369003E2E0FEA3E0FF9003D4E0FCA3E0FDEDB50714ECB506109003AA
:400A4000D7E0FFEF4480FF9003D7EFF0800E9003D7E0FFEF547FFF9003D7EFF09003E4E0FF9006A4EFF09006A4E0FFEF60329006A4E0FF9003D7E0FEEE5FFF9006A4E0FE16
:400A8000EFB506047F0180027F00EF60139003D6E0FFEF4408FF9003D6EFF09003D7E4F09003D9E0FFEF5440FF7E00EF64404E70047F0180027F00EF6003126EBD9003E476
:400AC000E0FFEF5440FF7E00EF64404E70047F0180027F00EF602C9003E1E0FF9003D3E0FEEEB507109003D7E0FFEF4440FF9003D7EFF0800E9003D7E0FFEF54BFFF900306
:400B0000D7EFF09003E4E0FF9006A4EFF09006A4E0FFEF60329006A4E0FF9003D7E0FEEE5FFF9006A4E0FEEFB506047F0180027F00EF60139003D6E0FFEF4408FF9003D6B5
:400B4000EFF09003D7E4F09003D9E0FFEF5420FF7E00EF64204E70047F0180027F00EF6003126EBC9003E4E0FFEF5408FF7E00EF64084E70047F0180027F00EF602C90031F
:400B8000DDE0FF9003CFE0FEEEB507109003D7E0FFEF4408FF9003D7EFF0800E9003D7E0FFEF54F7FF9003D7EFF09003E4E0FFEF5420FF7E00EF64204E70047F0180027F6E
:400BC00000EF60369003DFE0FEA3E0FF9003D1E0FCA3E0FDEDB50714ECB506109003D7E0FFEF4420FF9003D7EFF0800E9003D7E0FFEF54DFFF9003D7EFF09003E4E0FFEF00
:400C00005410FF7E00EF64104E70047F0180027F00EF602C9003DEE0FF9003D0E0FEEEB507109003D7E0FFEF4410FF9003D7EFF0800E9003D7E0FFEF54EFFF9003D7EFF042
:400C40009003E4E0FF9006A4EFF09006A4E0FFEF60329006A4E0FF9003D7E0FEEE5FFF9006A4E0FEEFB506047F0180027F00EF60139003D6E0FFEF4408FF9003D6EFF090BB
:400C800003D7E4F09003D9E0FFEF5408FF7E00EF64084E70047F0180027F00EF6003126EBA9003DDE0FFEFB4011D9003D9E0FFEF5410FF7E00EF64104E70047F0180027F78
:400CC00000EF6003126EBB9003DCE0FFEFC3940C50109003D6E0FFEF54FBFF9003D6EFF0800E9003D6E0FFEF4404FF9003D6EFF09003E4E0FFEF5404FF7E00EF64044E7017
:400D0000047F0180027F00EF602C9003DCE0FF9003CEE0FEEEB507109003D7E0FFEF4404FF9003D7EFF0800E9003D7E0FFEF54FBFF9003D7EFF09003E4E0FF9006A4EFF0D8
:400D40009006A4E0FFEF60329006A4E0FF9003D7E0FEEE5FFF9006A4E0FEEFB506047F0180027F00EF60139003D6E0FFEF4408FF9003D6EFF09003D7E4F09003D9E0FFEF41
:400D80005404FF7E00EF64044E70047F0180027F00EF6003126EB99003E4E0FFEF5402FF7E00EF64024E70047F0180027F00EF602C9003DBE0FF9003CDE0FEEEB507109039
:400DC00003D7E0FFEF4402FF9003D7EFF0800E9003D7E0FFEF54FDFF9003D7EFF09003E4E0FF9006A4EFF09006A4E0FFEF60329006A4E0FF9003D7E0FEEE5FFF9006A4E08E
:400E0000FEEFB506047F0180027F00EF60139003D6E0FFEF4408FF9003D6EFF09003D7E4F09003D9E0FFEF5402FF7E00EF64024E70047F0180027F00EF6003126EB8900359
:400E4000E4E0FFEF5401FF7E00EF64014E70047F0180027F00EF602C9003DAE0FF9003CCE0FEEEB507109003D7E0FFEF4401FF9003D7EFF0800E9003D7E0FFEF54FEFF902D
:400E800003D7EFF09003E4E0FF9006A4EFF09006A4E0FFEF60329006A4E0FF9003D7E0FEEE5FFF9006A4E0FEEFB506047F0180027F00EF60139003D6E0FFEF4408FF900305
:400EC000D6EFF09003D7E4F09003D9E0FFEF5401FF7E00EF64014E70047F0180027F00EF6003126EB7D007D006D005D004D003D002D001D000D0D0D093D086D084D085D065
:400F000082D083D0F0D0E032900455EFF090045DE4F0A3E4F0900456E4F0900456E0FFEFC394094003020FC7900456E0FFEF75F00BA42447F582E43402F583E4F090045647
:400F4000E0FFEF75F00BA42449F582E43402F583E4F0900456E0FFEF75F00BA42448F582E43402F583E4F0900456E0FFEF75F00BA4244AF582E43402F583E4F0900456E04F
:400F8000FFEF75F00BA4244CF582E43402F583E4F0900456E0FFEF75F00BA4244FF582E43402F583E4F0A3E4F0900456E0FFEF75F00BA42451F582E43402F583E4F090049D
:400FC00056E004F0020F1A900455E0FFEF603A900458E4F0900458E0FFEFC39402502A900458E0FF74AA2FF582E43402F583E4F0900458E0FF74B92FF582E43402F583E4F5
:40100000F0900458E004F080CB900242E0FFEFD394005003021431900242E0FFEF14FF12601890045FEEF0A3EFF090045FE0FEA3E0FF8F828E83A31206B290045A1206A9EF
:4010400090045A1206A0E92407F9EA3400FA1203F0FFEF5440FF7E00EF4E6010900241E0FFEF4401FF900241EFF0800E900241E0FFEF54FEFF900241EFF090045FE0FEA3B7
:40108000E0FFEF2404FFEE3400FE90045FEEF0A3EFF090045FE0FEA3E0FF8F828E83E493FF900456EFF09004587401F0900458E0FFEFC39409400302134690045FE0FEA397
:4010C000E0FF8F828E83A31206B2AE02AF01900461EEF0A3EFF0900457E4F0900456E0FF900457E0FEEEC39F400302133D900461E0FEA3E0FF8F828E83740293FFEF547F56
:40110000FF7E00900458E0FD7C00ED6F7002EC6E600302131C900461E0FEA3E0FF8F828E83740493FE740593FF900458E0FDED75F00BA4244FF582E43402F583E0FCA3E001
:40114000FDC3ED9FEC9E502C900461E0FEA3E0FF8F828E83740493FE740593FF900458E0FDED75F00BA4244FF582E43402F583EEF0A3EFF0900461E0FEA3E0FF8F828E8375
:40118000E493FF74AA2FF582E43402F583E0FF900461E0FCA3E0FD8D828C83740193FEEF6E600302131C900461E0FEA3E0FF8F828E83740393FFEF5403FF900459EFF090FD
:4011C0000461E0FEA3E0FF8F828E83740293FFEF5480FF7E00EF4E700302125C900458E0FFEF75F00BA42448F582E43402F5837401F0900459E0FFEFB401047F0780027FFD
:401200000D900458E0FEEE75F00BA4244CF582E43402F583EFF0900461E0FEA3E0FF8F828E83740693FFEF640A6018900461E0FEA3E0FF8F828E83740693FFEF64026003EA
:401240000212D2900459E0FFEF640370030212D2900458E0FF900477EFF08076900458E0FFEF75F00BA42448F582E43402F583E4F0900459E0FFEFB401047F0580027F0949
:40128000900458E0FEEE75F00BA4244CF582E43402F583EFF0900461E0FEA3E0FF8F828E83740693FFEF640A6014900461E0FEA3E0FF8F828E83740693FFEFB402149004E6
:4012C00059E0FFEF6403600A900458E0FF900478EFF0900461E0FEA3E0FF8F828E83740293FF900458E0FEEE75F00BA4244BF582E43402F583EFF0900461E0FEA3E0FF8FBA
:40130000828E83740393FF900458E0FEEE75F00BA42447F582E43402F583EFF0900461E0FEA3E0FFEF2407FFEE3400FE900461EEF0A3EFF0900457E004F00210DB90045877
:40134000E004F00210AC90045FE0FEA3E0FF8F828E83A31206B2AE02AF01900461EEF0A3EFF0900458E4F0900456E0FF900458E0FEEEC39F5053900461E0FEA3E0FF8F8298
:401380008E83E493FF900461E0FCA3E0FD8D828C83740293FEEE547FFEEE75F00BA42451F582E43402F583EFF0900461E0FEA3E0FFEF2407FFEE3400FE900461EEF0A3EF1F
:4013C000F0900458E004F0809E12565B9002B6EEF0A3EFF09004567401F0900456E0FFEFC39409504990045DE0FEA3E0FF900456E0FDED75F00BA4244DF582E43402F58321
:40140000EEF0A3EFF0900456E0FFEF75F00BA4244FF582E43402F583E0FEA3E0FF90045DEE8FF0120470900456E004F080AC1227AD229004B6E4F07B007A0079009004B8F6
:401440001206A99002ACE4F0A3E4F0906000E0FFEF5480FF7E00EF64804E6003021706906001E0FFEF1206BE16280014780616B70816D70A000018CC906003E0FFEFB401E5
:4014800035126A5E9004BDEEF0A3EFF09004BDE0FEA3E0FF8F828E83A31206B29002AE1206A99002ACE4F0A37412F01259189004B6EFF00218CC906003E0FFEF6402706B6C
:4014C000906002E0FF1260189004BDEEF0A3EFF09004BDE0FEA3E0FF8F828E83A31206B29002AE1206A99002AE1206A0E92403F9EA3400FA1203F0FF7E00EF7F00FE900206
:40150000AE1206A0E92402F9EA3400FA1203F0FD7C00EE4CFEEF4DFF9002ACEEF0A3EFF01259189004B6EFF00218CC906003E0FFEF6403600302161D9004BBE4F07BFF7A2D
:401540007379149004B81206A99004BBE0FF906002E0FEEED39F403D9004B81206A01203F0FFEF60309004B81206A01203F0FF9004BCEFF09004B81206A09004BCE0FF7E14
:4015800000E92FF9EA3EFA9004B81206A99004BBE004F080B4906002E0FFEFB4EE0C7BFF7A7379929004B81206A9906002E0FFEF60309072CFE493FF906002E0FEEEB50796
:4015C000217BFF7A7379599004B81206A97B017A0379911242EB7B017A0379919004B81206A99004B81206A01203F0FFEF70030218CC9004B81206A01203F0FF7E009002CA
:40160000ACEEF0A3EFF09004B81206A09002AE1206A91259189004B6EFF00218CC12523D9004B6EFF00218CC906000E0FFEF5403FFEF1206BE168200163F02000018CC901B
:4016400002ACE4F0A37402F0906004E0FFEF547FFFEF75F00BA42449F582E43402F583E0FF900643EFF0900644E4F07B017A0679439002AE1206A91259189004B6EFF00226
:4016800018CC9002ACE4F0A37402F0900241E0FF900643EFF0900644E4F07B017A0679439002AE1206A91259189004B6EFF00218CC0218CC0218CC9002ACE4F0A37401F0E2
:4016C0007B017A0279429002AE1206A91259189004B6EFF00218CC9002ACE4F0A37401F0906004E0FF74AA2FF9E43402FA7B019002AE1206A91259189004B6EFF00218CC4E
:401700000218CC0218CC906001E0FFEF1206BE17AA0118450317220517370917570B000018CC906002E0FF9002BBEFF0126B159004B6EFF00218CC906002E0FF900242EF02
:40174000F09002B87401F07F01120F08126B159004B6EFF00218CC124FCEEF70030218CC906004E0FF9004B7EFF09004B7E0FF9002B4EFF09002B87401F01218D29004B7C7
:40178000E0FF74AA2FF582E43402F583E0FF9004B7E0FE74B92EF582E43402F583EFF0126B159004B6EFF00218CC906000E0FFEF5403FFEF1206BE17DA0018000117C40248
:4017C000000018CC906002E0FFEF60030218CC1235829004B6EFF00218CC906002E0FFEF640160030218CC900241E0FFEF54FDFF900241EFF0126B159004B6EFF00218CC72
:40180000906004E0FFEFC3940240030218CC906004E0FF74BC2FF582E43402F583C083C082E0FF906002E0FEEEF4FEEF5EFFD082D083EFF0126B159004B6EFF00218CC02A2
:4018400018CC0218CC906000E0FFEF5403FFEF1206BE187100189301185F02000018CC906002E0FFEF70651241F49004B6EFF0805B906002E0FFEF64017051900241E0FFBB
:40188000EF4402FF900241EFF0126B159004B6EFF08039906004E0FFEFC39402502E906004E0FF74BC2FF582E43402F583C083C082E0FF906002E0FEEEF4FEEF5EFFD08248
:4018C000D083EFF0126B159004B6EFF09004B6E0FF22900242E0FFEFD394005003021CB3900242E0FFEF14FF1260189004C4EEF0A3EFF09004C4E0FEA3E0FFEF2404FFEED0
:401900003400FE9004C4EEF0A3EFF09004C4E0FEA3E0FF8F828E83E493FF9004BFEFF09004C4E0FEA3E0FF8F828E83A31206B2AE02AF019004C6EEF0A3EFF09004C1E4F0B1
:401940009004BFE0FF9004C1E0FEEEC39F4003021CB39004C6E0FEA3E0FF8F828E83E493FF74B92FF582E43402F583E0FF9004C6E0FCA3E0FD8D828C83E493FE74AA2EF57E
:4019800082E43402F583E0FEEE6F7003021C929004C6E0FEA3E0FF8F828E83E493FF74AA2FF582E43402F583E0FF9004C6E0FCA3E0FD8D828C83740193FEEF6E6003021C76
:4019C000929004C6E0FEA3E0FF8F828E83E493FF906004E0FEEF6E6003021C929004C6E0FEA3E0FF8F828E83740293FFEF547FFF9004C0EFF09004C0E0FF7E00EF24FFFF27
:401A0000EE34FFFEEFC4F8540FC868FFEEC454F048FE9004C3EFF09004C6E0FEA3E0FF8F828E83740393FFEF5403FF9004C2EFF09004C6E0FEA3E0FF8F828E83740293FF95
:401A4000EF5480FF7E00EF4E603C9004C0E0FFEF75F00BA42448F582E43402F5837401F09004C2E0FFEFB401047F0780027F0D9004C0E0FEEE75F00BA4244CF582E4340297
:401A8000F583EFF080399004C0E0FFEF75F00BA42448F582E43402F583E4F09004C2E0FFEFB401047F0580027F099004C0E0FEEE75F00BA4244CF582E43402F583EFF09010
:401AC00004C3E0FF7E00EF240EFFEE3460FE8F828E837401F09004C6E0FEA3E0FF8F828E83740493FE740593FF9004C0E0FDED75F00BA4244FF582E43402F583EEF0A3EF8D
:401B0000F09004C6E0FEA3E0FF8F828E83740293FF9004C0E0FEEE75F00BA4244BF582E43402F583EFF09004C6E0FEA3E0FF8F828E83740393FF9004C0E0FEEE75F00BA42D
:401B40002447F582E43402F583EFF09004C0E0FFEF75F00BA4244AF582E43402F583E4F09004C0E0FFEF75F00BA4244FF582E43402F583E0FEA3E0FFEEFF7E009004C3E0DD
:401B8000FEEEFD7C00ED240CFDEC3460FC8D828C83EFF09004C0E0FFEF75F00BA4244FF582E43402F583E0FEA3E0FFEF54FFFF9004C3E0FEEEFD7C00ED240DFDEC3460FCA7
:401BC0008D828C83EFF09004C0E0FFEF75F00BA4244DF582E43402F583E0FEA3E0FFEF54FFFF9004C3E0FEEEFD7C00ED2486FDEC3460FC8D828C83EFF09004C0E0FFEF7557
:401C0000F00BA4244DF582E43402F583E0FEA3E0FFEEFF7E009004C3E0FEEEFD7C00ED2487FDEC3460FC8D828C83EFF09004C0E0FFEF75F00BA4244DF582E43402F583E086
:401C4000FEA3E0FFEF54FFFF9004C3E0FEEEFD7C00ED2484FDEC3460FC8D828C83EFF09004C0E0FFEF75F00BA4244DF582E43402F583E0FEA3E0FFEEFF7E009004C3E0FE4C
:401C8000EEFD7C00ED2485FDEC3460FC8D828C83EFF09004C6E0FEA3E0FFEF2407FFEE3400FE9004C6EEF0A3EFF09004C1E004F0021940229000001206A99000031206A0C2
:401CC000AF01AE02AD037C00900119120688900119120670EF54FFFFEE54FFFEED5400FDEC5400FC9001191206889000031206A0AF01AE02AD037C007B007A0079FF7800DC
:401D0000D31206394003021F3A9000031206A0AF01AE02AD037C00A804A905AA06AB07900006E0FEA3E0FFE4FCFD1204E67BFF7AFF79FF7800C31206395003021F3A12695F
:401D4000EB7B017A017921125EA77B007A007901780090011912067012058C9001081206887B007A017900780090011912067012058CEF54FFFFEE5400FEED5400FDEC5420
:401D800000FC90010C1206887F007E017D007C0090010C12067C120501C004C005C006C0077F007E007D017C0090010812067C120501A804A905AA06AB07D007D006D0051A
:401DC000D0041204E690011D1206887F007E007D007C00900114120688900118E4F0900006E0FEA3E0FFE4FCFD90011412067CC31206394003021F2D900118E0FFEF600382
:401E0000021F2D7F007E007D007C00900110120688900110120670C3EE94014003021EF190011912067090011D12067CC3120639405B900006E0FEA3E0FFE4FCFD900114BF
:401E400012067CC312063950449001141206709000001206A0E92FF9EA3EFAEB3DFB1203F0FB90011012067074082FF582E43400F583EBF09001141206707B017A00790009
:401E800078001204E6900114120688803390011D120670EF2400FFEE3400FEED3410FDEC3400FCA907AA06AB05126DF4AB0790011012067074082FF582E43400F583EBF019
:401EC00090011D1206707B017A00790078001204E690011D1206889001101206707B017A00790078001204E6900110120688021E11900108120670C00790010C120670AD43
:401F000007AC067B017A007908D007123867900118EFF090010C1206707B017A00790078001204E690010C120688021DDE904800E0FFEF4406FFEFF080069001187401F0BD
:401F4000900118E0FFEF6010900118E0FFEF6401600690011874FFF0900118E0FF2290057CEFF090057DECF0A3EDF0126C3A90057FEFF0904393E0FFEF5408FF7E00EF4E2F
:401F8000700D904683E0FFEF541FFFEFF0800990057FE0FF126B48229046ECE0FFEFC39405501A904689E0FFEF5401FF7E00EF4E7003D38001C340057F00126BE69046F5BB
:401FC000E0FFEF5407FF7E00EF4E60399046ECE0FFEFC3940550077F00126BE68027904689E0FFEF5401FF7E00EF4E7012900365E4F0904689E0FFEF4401FFEFF0800690A9
:4020000003657401F012218590057CE0FFEFC39402402A90057CE0FFEFD3940D501F90057CE0FFEF14FF12574990057DE0FEA3E0FFEE4408FE90057DEEF0A3EFF090057CE6
:40204000E0FFEFB4011712683C90057DE0FEA3E0FFEE4408FE90057DEEF0A3EFF0904398E0FF900366EFF090057DE0FEA3E0FFEEC4F854F0C868FEEFC4540F48FF9043987C
:40208000EFF0904399E0FF900367EFF090057DE0FEA3E0FFEF540FFF904399EFF090439AE0FF900368EFF090057DE0FEA3E0FFEEC4540FFF7E00EF5401FF90439AEFF090C6
:4020C0004200E0FFEF5407FF7E00EF4E700890038F7401F0801E90038FE4F0904200E0FFEF5407FF90038EEFF0904200E0FFEF54F8FFEFF0904393E0FFEF54F8FFEF4403AF
:40210000FF904393EFF0904393E0FF00000090038FE0FFEF64016016904200E0FFEF54F8FF90038EE0FEEF4EFF904200EFF01239C79046F5E0FFEF5407FF7E00EF4E601E36
:402140009046ECE0FFEFC394054013900365E0FFEF700B904689E0FFEF54FEFFEFF0900366E0FF904398EFF0900367E0FF904399EFF0900368E0FF90439AEFF090057FE022
:40218000FF126B4822905A00E0FF90036BEFF0905A02E0FF90036CEFF0905A03E0FF90036DEFF0905A04E0FF90036EEFF0905A06E0FF90036FEFF0905A08E0FF900370EF1F
:4021C000F0905A0AE0FF900371EFF0905A10E0FF900372EFF0905A12E0FF900373EFF0905A13E0FF900374EFF0905A14E0FF900375EFF0905A16E0FF900376EFF0905A186D
:40220000E0FF900377EFF0905A1AE0FF900378EFF0905A20E0FF900379EFF0905A22E0FF90037AEFF0905A23E0FF90037BEFF0905A24E0FF90037CEFF0905A26E0FF900328
:402240007DEFF0905A28E0FF90037EEFF0905A2AE0FF90037FEFF0905A30E0FF900380EFF0905A32E0FF900381EFF0905A33E0FF900382EFF0905A34E0FF900383EFF090F2
:402280005A36E0FF900384EFF0905A38E0FF900385EFF0905A3AE0FF900386EFF0905A00E4F0905A02E4F0905A03E4F0905A04E4F0905A06E4F0905A08E4F0905A0AE4F073
:4022C000905A10E4F0905A12E4F0905A13E4F0905A14E4F0905A16E4F0905A18E4F0905A1AE4F0905A20E4F0905A22E4F0905A23E4F0905A24E4F0905A26E4F0905A28E4C0
:40230000F0905A2AE4F0905A30E4F0905A32E4F0905A33E4F0905A34E4F0905A36E4F0905A38E4F0905A3AE4F09046E8E0FFEF5404FF7E00EF4E60339003637401F09050B6
:402340000BE0FFEF540EFF900364EFF090500BE0FFEF54F1FFEF440CFF90500BEFF09046E8E0FFEF54FBFFEFF08005900363E4F0904322E0FFEF5408FF7E00EF4E60129065
:4023800003907401F0904322E0FFEF54F7FFEFF022900390E4F0229043A1E0FFEF540FFF90034FEFF09043A2E0FF900350EFF09043A1E0FFEF54F0FFEFF09043A2E0FFEFDC
:4023C0005400FFEFF0904800E0FFEF54C0FF900354EFF07F2D125C59904200E0FFEF5407FF900352EFF0904200E0FFEF5440FF900353EFF0904200E0FFEF5410FF7E00EF93
:402400004E60089003587401F08005900358E4F07F041234049043A0E0FFEF5410FF7E00EF4E60089003557401F0800A900355E4F07F001256D4904200E0FFEF5420FF7EDF
:4024400000EF4E6021904000E0FFEF5440FF7E00EF4E70047F0280027F01900356EFF07F00125F628005900356E4F0904000E0FFEF5430FF900357EFF0900357E0FFEF605D
:402480000B904000E0FFEF54CFFFEFF0904200E0FFEF5410FF7E00EF4E6003126D40904004E0FF900359EFF0900359E0FFEF60057F00126C85904005E0FFEF5403FF9003E7
:4024C00051EFF0900351E0FFEF60057F0012698E904007E0FF7E00EF7F00FE90035AEEF0A3EFF090035AE0FEA3E0FF904006E0FD7C00EE4CFEEF4DFF90035AEEF0A3EFF0E4
:4025000090035AE0FEA3E0FFEF4E60077F007E001249EE904005E0FFEF54F0FF7E00EEC4F854F0C868FEEFC4540F48FFEF04FFAB07E4FAF9F8904200E0FFEF5407FFEF909B
:40254000742293FFE4FCFDFE12058C125C59904220E0FFEF5401FF7E00EF4E600B90035C7401F0126D28800590035CE4F0904210E0FFEF5401FF7E00EF4E600B90035D74E3
:4025800001F0126D70800590035DE4F090400BE0FFEF5404FF7E00EF4E600790035E7401F02290035EE4F0229003E5EFF09003E6ECF0A3EDF09003E8EAF0A3EBF09003EBF4
:4025C000E0FFEFD3940050030227A79003EBE0FFEFD3940140030227A79003E5E0FFEF1206BE25F50125F504262207264D0826780A000026A39003EAE0FFEFD3940F40111A
:402600007B0C7A017918126DF49003ECEFF00226A87B0C7A01791C126DF49003ECEFF00226A89003EAE0FFEFD3940F40107B0C7A017919126DF49003ECEFF0806B7B0C7ACC
:4026400001791D126DF49003ECEFF0805B9003EAE0FFEFD3940F40107B0C7A01791A126DF49003ECEFF080407B0C7A01791E126DF49003ECEFF080309003EAE0FFEFD39414
:402680000F40107B0C7A01791B126DF49003ECEFF080157B0C7A01791F126DF49003ECEFF080059003ECE4F09003ECE0FFEF3395E0FEFDFC7B207A0079007800120501A8CA
:4026C00004A905AA06AB079003E6E0FEA3E0FFE4FCFD1204E69003ED1206889003ED120670AB07AA06A905A804A804A905AA06AB079003E8E0FEA3E0FFE4FCFD1205019014
:4027000003F31206887B007A80790078009003F312067012058C9003F1EEF0A3EFF09003EAE0FFEFC3940E50479003F1E0FEA3E0FF9003EAE0FDC3740E9DFDEFA805088080
:4027400005CEC313CE13D8F9FF9003F1EEF0A3EFF09003EAE0FFEF04FF9003EBE0FEEE75F003A42420F582E43404F583EFF080169003EBE0FFEF75F003A42420F582E43488
:4027800004F583740FF09003F1E0FEA3E0FF9003EBE0FDED75F003A4241EF582E43404F583EEF0A3EFF0227F00126BE6229006457401F0900646E4F0900646E0FFEFC3942E
:4027C00080400302299B900646E0FF7E00EF2480FFEE3460FE8F828E83740CF0900645E0FFEF75F00BA4244CF582E43402F583E0FFEF604F900645E0FFEF75F00BA4244B94
:40280000F582E43402F583E0FFEF5480FF7E00EF4E6018900646E0FF7E00EF240EFFEE3460FE8F828E83740CF0802E900646E0FF7E00EF240EFFEE3460FE8F828E8374082B
:40284000F08016900646E0FF7E00EF240EFFEE3460FE8F828E837480F0900645E0FFEF75F00BA4244FF582E43402F583E0FEA3E0FFEEFF7E00900646E0FEEEFD7C00ED24BD
:402880000CFDEC3460FC8D828C83EFF0900645E0FFEF75F00BA4244FF582E43402F583E0FEA3E0FFEF54FFFF900646E0FEEEFD7C00ED240DFDEC3460FC8D828C83EFF09077
:4028C0000645E0FFEF75F00BA4244DF582E43402F583E0FEA3E0FFEF54FFFF900646E0FEEEFD7C00ED2486FDEC3460FC8D828C83EFF0900645E0FFEF75F00BA4244DF582BD
:40290000E43402F583E0FEA3E0FFEEFF7E00900646E0FEEEFD7C00ED2487FDEC3460FC8D828C83EFF0900645E0FFEF75F00BA4244DF582E43402F583E0FEA3E0FFEF54FF32
:40294000FF900646E0FEEEFD7C00ED2484FDEC3460FC8D828C83EFF0900645E0FFEF75F00BA4244DF582E43402F583E0FEA3E0FFEEFF7E00900646E0FEEEFD7C00ED248573
:40298000FDEC3460FC8D828C83EFF0900645E004F0900646E02410F00227B890600A74FFF022904698E0FF900519EFF07B007A4079807D007C00126CE49040827450F07BCE
:4029C000007A4079847DBF7C5D126CE49040867419F07B087A0579B0C003C002C0017B007A41790090042E1206A9D001D002D0037F047E001265779043007406F090430AB4
:402A000074F3F09046987403F09043097484F09043087405F07FA07E867D017C0090051A12068890051A120670D3EF9400EE94004033904308E0FFEF5420FF7E00EF4E702D
:402A4000247FE07E017D007C0012660090051A1206707BFF7AFF79FF78FF1204E690051A12068880BE900519E0FF904698EFF09042007452F07B0C7A01790F126DF490460C
:402A8000A1EFF07B007A4279227D187C08126CE47B007A4279207D517C12126CE490051EE4F07F197E007D007C0090051A12068890051A120670D3EF9400EE9400404E90A9
:402AC000051EE0FFEF64036044904225E0FFEF5401FF7E0090051EE0FEEE25E0FEEE4FFFEF5403FF90051EEFF07FE07E017D007C0012660090051A1206707BFF7AFF79FFBD
:402B000078FF1204E690051A12068880A390051A120670EF4E70057F03126C627B007A4079047D007C01126CE49040047407F0904006E4F09040087448F0904004E4F090B2
:402B40004009E4F09040017402F090400B7404F09043A2E0FFEF4403FF9043A2EFF09043A1E0FFEF4401FF9043A1EFF09043A0E0FFEF4480FF9043A0EFF0229003B3EEF06C
:402B8000A3EFF09003B5ECF0A3EDF07F007E007D007C009003BA1206889003BEE4F0A3E4F09003C6E4F07F007E007DC07C409003C7120688126E947B007A00798078419008
:402BC00003C712067012021B1243DD9003BA1206889003BA12067012036FEFC4F8540FC868FFEEC454F048FE124784AA06A9077B019003B71206A99003B71206A09003C347
:402C00001206A97F007E007D807C419003BA12067C1201127B007A0079C0784012002112036F9003BEEEF0A3EFF09003C6E4F09003C6E0FFEFC3940650319003C6E0FF7EE0
:402C400000EF2400FFEE3480FE8F828E83E0FF9003C31206A0EF1204099003C4E475F0011204709003C6E004F080C49003C6E0FF7E009003BEE0FCA3E0FDC3EF9DEE9C5061
:402C8000129003C31206A0E41204099003C6E004F080D89003B5E0FEA3E0FFEEFF7E009003B71206A09003B3E0FCA3E0FDE92DF9EA3CFAEF1204099003B5E0FEA3E0FFEFE1
:402CC00054FFFF9003B71206A09003B3E0FCA3E0FDED2401FDEC3400FCE92DF9EA3CFAEF1204097F001253DD9003CBEFF09003C6E4F09003B71206A09003C01206A99003A2
:402D0000C6E0FCE412033B9003BA12067C1202B8602D402B9003C6E0FFEFC3948050209003C01206A09003C6E0FD1240EA9003C1E475F0101204709003C6E004F080BF90FE
:402D400003B71206A0AE02AF01123B1E126E982290047CEFF090047D1206A990047CE0FFEFD394005003022F1C90047CE0FFEFC394094003022F1C90047CE0FF7E00EF24E8
:402D8000FFFFEE34FFFEEFC4F8540FC868FFEEC454F048FE900482EFF0900482E0FF7E00EF2488FFEE3460FE900483EEF0A3EFF090047CE0FFEF75F00BA4244DF582E43492
:402DC00002F583E0FEA3E0FFC3E49FFF74029EFE900480E0FCA3E0FDD3ED9FEC9E402890047CE0FFEF75F00BA4244DF582E43402F583E0FEA3E0FFC3E49FFF74029EFE902E
:402E00000480EEF0A3EFF0900480E0FEA3E0FFEEFF7E0090047CE0FEEE75F00BA4244AF582E43402F583E0FEEF4EFF900482E0FEEEFD7C00ED240CFDEC3460FC8D828C833F
:402E4000EFF0900480E0FEA3E0FFEF54FFFF900482E0FEEEFD7C00ED240DFDEC3460FC8D828C83EFF07B007A007900C003C002C00190047D1206A0D082D083D0E06B70081A
:402E8000E965827003EA65836051900485E4F0A3E4F0900480E0FEA3E0FF900485E0FCA3E0FDC3ED9FEC9E503290047D1206A0900485E0FEA3E0FFE92FF9EA3EFA1203F02A
:402EC000FF900483E0FCA3E0FD8D828C83EFF0900485E475F00112047080B790047CE0FFEF75F00BA42448F582E43402F583E4F090047CE0FFEF75F00BA4244CF582E43417
:402F000002F583E0FF900482E0FEEEFD7C00ED240EFDEC3460FC8D828C83EFF02290480074F1F01229A27B007A4679E8126DF4EF4405FD7B007A4679E8126E00750A00E558
:402F40000AC39408503AAF0AEF75F005A424D2F582E43473F583AF82AE838E088F09AE08AF098F828E831206B2AE08AF098F828E83740393FC740493FD126B2F050A80BFB6
:402F80007B087A0079001267B9905883740AF07B017A507903126DF4EF4402FD7B017A507903126E007B017A507913126DF4EF4402FD7B017A507913126E009043A0E0FFCC
:402FC000EF4440FF9043A0EFF09043C2E0FFEF4410FF9043C2EFF07B087A057984C003C002C0017B007A51790290042E1206A9D001D002D0037F087E001265777B087A05EF
:40300000798CC003C002C0017B007A5179F090042E1206A9D001D002D0037F0A7E001265777B087A057998C003C002C0017B007A51793090042E1206A9D001D002D0037FE8
:403040000A7E001265777B087A0579A4C003C002C0017B007A51796090042E1206A9D001D002D0037F0A7E001265779044F47401F0904322E0FFEF4408FF904322EFF090C9
:4030800046ECE0FFEFC394055006904689743AF07B017A5079077D40126E007B017A5079177D40126E001264BC7B007A4379A0C003C002C0017B007A4379B090042E120647
:4030C000A9D001D002D0037F0E7E001265779043B0E0FFEF54FDFFEFF0229004EDEEF0A3EFF09004EFEDF0126E489004F1EFF0126E3E9004F2EEF0A3EFF09004F2E0FEA3FE
:40310000E0FF9004EDE0FCA3E0FDED6F7002EC6E700302326E9043A2E0FFEF5401FF9004F0EFF09004F1E0FFEF705E9004F2E0FEA3E0FFEF4E600C9004EDE0FEA3E0FFEF1C
:403140004E70469004F2E0FEA3E0FFEF4E701D7B027A4079809004EDE0FCA3E0FD126CE6904082E0FFEF54BFFFEFF022904082E0FFEF4440FFEFF07B027A4079809004EDC4
:40318000E0FCA3E0FD126CE6229004F0E0FFEF606C904001E4F09040107401F0904014E4F0904008E0FFEF547FFFEFF0904082E0FFEF5408FF7E00EF4E600C9004EDE0FE15
:4031C000A3E0FFEF4E70367B027A4079029004F2E0FCA3E0FD126CE69040017407F0904001E0FFEF5401FF7E00EF4E70F19043A2E0FFEF54FEFFEFF0904001E4F09043A29A
:40320000E0FFEF5401FF7E00EF4E603A7B027A4079029004EDE0FCA3E0FD126CE69004EFE0FFEF60047F0280027F00EF4401FF904001EFF0904001E0FFEF5401FF7E00EFAA
:403240004E602B80EF227B027A4079809004EDE0FCA3E0FD126CE69043A2C083C082E0FF9004F0E0FEEF4EFFD082D083EFF0229004F4EEF0A3EFF09004F6EDF0126E5C909B
:4032800004F8EFF0126E529004F9EEF0A3EFF09004F9E0FEA3E0FF9004F4E0FCA3E0FDED6F7002EC6E70030234039043A1E0FFEF5401FF9004F7EFF09004F8E0FFEF705EA7
:4032C0009004F9E0FEA3E0FFEF4E600C9004F4E0FEA3E0FFEF4E70469004F9E0FEA3E0FFEF4E701D7B027A4179009004F4E0FCA3E0FD126CE6904102E0FFEF54BFFFEFF01B
:4033000022904102E0FFEF4440FFEFF07B027A4179009004F4E0FCA3E0FD126CE6229004F7E0FFEF606C904001E4F09040147401F0904010E4F0904008E0FFEF547FFFEF1F
:40334000F0904102E0FFEF5408FF7E00EF4E600C9004F4E0FEA3E0FFEF4E70367B027A4079029004F9E0FCA3E0FD126CE69040017407F0904001E0FFEF5401FF7E00EF4E86
:4033800070F19043A1E0FFEF54FEFFEFF0904001E4F09043A1E0FFEF5401FF7E00EF4E603A7B027A4079029004F4E0FCA3E0FD126CE69004F6E0FFEF60047F0280027F0072
:4033C000EF4401FF904001EFF0904001E0FFEF5401FF7E00EF4E602B80EF227B027A4179009004F4E0FCA3E0FD126CE69043A1C083C082E0FF9004F7E0FEEF4EFFD082D088
:4034000083EFF0229005AEEFF0904200E0FFEF5407FF9005AFEFF09005AEE0FFEFB408047F0380059005AEE0FF9005B0EFF09005AFE0FFEF1206BE344D00345501345D0225
:40344000346503346C043474050000347C9005AF7402F0802C9005AF7401F080249005AF7403F0801C9005AFE4F080159005AF7404F0800D9005AF7405F080057F00126BB1
:40348000E69005AFE0FF9005B0E0FEEEC39F40089005AEE0FF124B829005AEE0FFEF1206BE34BA0034D30134EB0234F80335100435280535400800003554904200E0FFEFC9
:4034C00054F8FFEF4403FFEF54BFFF904200EFF0023559904200E0FFEF54F8FFEF4401FFEF54BFFF904200EFF0806E904200E0FFEF54B8FFEFF08061904200E0FFEF54F8F5
:40350000FFEF4402FFEF54BFFF904200EFF08049904200E0FFEF54F8FFEF4404FFEF54BFFF904200EFF08031904200E0FFEF54F8FFEF4405FFEF54BFFF904200EFF08019EC
:40354000904200E0FFEF54F8FFEF4442FF904200EFF080057F00126BE69005AEE0FFEFB40805126D348003126D409005AFE0FF9005B0E0FEEEC39F50089005AEE0FF124BA0
:4035800082229005D4E4F0906004E0FFEF547FFF9005D2EFF09005D2E0FF7E00EF24FFFFEE34FFFEEFC4F8540FC868FFEEC454F048FE9005D3EFF09005D2E0FFEFD3940000
:4035C00050030236F09005D2E0FFEFC3940940030236F09005D2E0FFEF75F00BA42449F582E43402F583E0FFEF54FEFFEFF09005D2E0FFEF75F00BA4244AF582E43402F556
:4036000083E4F09005D3E0FF7E00EF240CFFEE3460FE8F828E83E0FFEF547FFFEFF09005D2E0FFEF75F00BA42448F582E43402F583E0FFEF54FDFFEFF09005D2E0FFEF75CA
:40364000F00BA4244BF582E43402F583E0FFEF5480FF7E00EF4E60499005D2E0FFEF75F00BA42448F582E43402F583E0FFEFB401189005D3E0FF7E00EF240EFFEE3460FE70
:403680008F828E83740CF0805F9005D3E0FF7E00EF240EFFEE3460FE8F828E83740DF080479005D2E0FFEF75F00BA42448F582E43402F583E0FFEFB401189005D3E0FF7EBC
:4036C00000EF240EFFEE3460FE8F828E837408F080169005D3E0FF7E00EF240EFFEE3460FE8F828E837409F0126B159005D4EFF09005D4E0FF22C0E0C0F0C083C082C085B4
:40370000C084C086758600C093759300C0D075D000C000C001C002C003C004C005C006C007906028E0FF900635EFF0900635E0FFEF5410FF7E00EF4E7003023844900636A3
:403740007401F0900635E0FFEF5480FF7E00EF4E6031900635E0FFEF540FFF7E00EF64014E6007900636E4F08046125354900243E0FFEF5480FF7E00EF4E6034900636E416
:40378000F0802D900635E0FFEF5440FF7E00EF4E60051268DC8019900635E0FFEF5420FF7E00EF4E60051267308005900636E4F0900636E0FFEF7003023844906028E0FFB5
:4037C000900635EFF0900635E0FFEF5480FF7E00EF4E7070900246E0FF9002BEE0FEEE4FFF900635EFF0900635E0FF906029EFF0906029E0FF900635E0FEEE6F7046900265
:4038000043E0FF900636EFF0906028E0FFEF5480FF900635EFF0900635E0FFEF7018900243E0FF906028EFF0906028E0FFEF540FFF900636EFF0900243E0FF900636E0FE3B
:40384000EEB507BAD007D006D005D004D003D002D001D000D0D0D093D086D084D085D082D083D0F0D0E032900447EFF0900448ECF0A3EDF090044A1206A97B007A00790000
:40388000C003C002C00190055D1206A0D082D083D0E06B7008E965827003EA658370030239BB900447E0FFEFD3943F400C900452E4F0A37410F00239659004527401F0A368
:4038C0007420F0900447E0FF7E007C207D00120735EF2400FFEE3400FEED3408FDEC3400FCC004C005C006C007900448E0FEA3E0FF7C007D20120735A804A905AA06AB07BC
:40390000D007D006D005D0041204E690044E12068890044DE4F090044DE0FFEFC39420504490044DE0FFE4FCFDFE90044E12067C1204E6A907AA06AB05126DF490055D12B0
:4039400006A0E92400F9EA3401FA90044DE0FEEEFD7C00E92DF9EA3CFAEF12040990044DE004F080B190044A1206A0C003C002C00190055D1206A0A801AC02AD03D001D00B
:4039800002D0037E017F0012081E900447E0FFC007900448E0FCA3E0FD90055D1206A0900452E0FEA3E0FF9004A1EEF0A3EFF0D007123EBA900454EFF0800690045474FF35
:4039C000F0900454E0FF2290036BE0FF905A00EFF090036CE0FF905A02EFF090036DE0FF905A03EFF090036EE0FF905A04EFF090036FE0FF905A06EFF0900370E0FF905ACB
:403A000008EFF0900371E0FF905A0AEFF0900372E0FF905A10EFF0900373E0FF905A12EFF0900374E0FF905A13EFF0900375E0FF905A14EFF0900376E0FF905A16EFF0908F
:403A40000377E0FF905A18EFF0900378E0FF905A1AEFF0900379E0FF905A20EFF090037AE0FF905A22EFF090037BE0FF905A23EFF090037CE0FF905A24EFF090037DE0FFF1
:403A8000905A26EFF090037EE0FF905A28EFF090037FE0FF905A2AEFF0900380E0FF905A30EFF0900381E0FF905A32EFF0900382E0FF905A33EFF0900383E0FF905A34EF87
:403AC000F0900384E0FF905A36EFF0900385E0FF905A38EFF0900386E0FF905A3AEFF0900363E0FFEFB4012190500BE0FFEF54F1FF900364E0FEEF4EFF90500BEFF09046A6
:403B0000E8E0FFEF4404FFEFF0900390E0FFEFB4010B904322E0FFEF4408FFEFF022900431EEF0A3EFF04E7003023C5C9004D2E07002A3E07003023C5C900431E0FEA3E0FB
:403B400024FCFFEE34FFFEA37404F0A374D0F0900433E0FCA3E0F5828C83E0FCA3E0FD900435ECF0A3EDF04C6020900431E0FCA3E0FD900435E0FAA3E0FBD39DEA9C500A9A
:403B8000900433EAF0A3EBF080C5900435E07002A3E0604D8F828E83A3A3E0FCA3E0FD900432E02DFD900431E03CFC900435E0FAA3E0FB6D7002EA6C70278B828A83A3A398
:403BC000E0FCA3E02404FDE43C8F828E83A3A38DF0120470900435E0FCA3E0F5828C838003900435E0FDA3E08F828E83CDF0A3EDF0900433E0FCA3E0FDF5828C83A3A3E02E
:403C0000FAA3E0FBED2BFDEC3AFCED2404FDE43CFCED6F7002EC6E70338F828E83A3A3E0FCA3E02404FDE43CFC900433E0FAA3E0FBF5828A83A3A3EC8DF01204708F828E5D
:403C400083E0FFA3E08B828A83CF800C900433E0FCA3E0F5828C83EEF0A3EFF0227BFF7A6E79BF9003481206A990034BE4F0A3E4F090034DE4F0126E9C9005A81206A0C0D8
:403C800003C002C0019003481206A0C3D082D083D0E0E99582EA95834003023D3B90034DE0FFEFC3944050729005A81206A0C003C002C0019003481206A0C3D082D083D007
:403CC000E0E99582EA958350379003481206A01203F0FF90034DE0FE74082EF582E43403F583EFF090034DE004F0900349E475F00112047090034BE475F001120470809D48
:403D000090034DE0FF74082FF582E43403F5837440F090034DE004F08083126BBAEF7006126D88EF70F47B017A0379087D407C001255E290034DE4F0023C7990034BE47520
:403D4000F0041204709003087480F0900309E4F090034BE0FEA3E0FFEEFF7E0090030AEFF090034BE0FEA3E0FFEF54FFFF90030BEFF0126BBAEF7006126D88EF70F47B0147
:403D80007A0379087D407C001255E2126EA022900463EFF09004641206A9900463E0FFEFD394005003023EA9900463E0FFEFC394094003023EA97B007A007900C003C00206
:403DC000C0019004641206A0D082D083D0E06B7008E965827003EA65837003023EA9900463E0FF7E00EF24FFFFEE34FFFEEFC4F8540FC868FFEEC454F048FE900469EFF0D0
:403E0000900469E0FF7E00EF2488FFEE3460FE90046AEEF0A3EFF0900463E0FF124DC290046EEEF0A3EFF090046EE0FEA3E0FF900467E0FCA3E0FDD3ED9FEC9E40109004D1
:403E40006EE0FEA3E0FF900467EEF0A3EFF090046CE4F0A3E4F0900467E0FEA3E0FF90046CE0FCA3E0FDC3ED9FEC9E503290046AE0FEA3E0FF8F828E83E0FF90046412064D
:403E8000A090046CE0FCA3E0FDE92DF9EA3CFAEF12040990046CE475F00112047080B7900463E0FF1255638008900467E4F0A3E4F0900467E0FEA3E0FF2290049BEFF09039
:403EC000049CECF0A3EDF090049E1206A9126701EF6003023FCD90049BE0FF90049E1206A09004A1E0FCA3E0FD9004B1ECF0A3EDF0124F259004A3EFF09004A3E0FFEF64CA
:403F0000076003023FC8904722E0FFEF5402FF7E00EF4E70097F017E0012678C80E8904722E0FFEF5402FF7E00EF4E600D904722E0FFEF1313543FFF80027FFFEF7007909A
:403F400004A3E4F080069004A374FFF09004A3E0FFEF707490049BE0FF90049CE0FCA3E0FD900560E0FB900561E0FE900523EEF01250719004A3EFF09004A3E0FFEF640790
:403F80007046904722E0FFEF5402FF7E00EF4E70097F017E0012678C80E8904722E0FFEF5402FF7E00EF4E600D904722E0FFEF1313543FFF80027FFFEF70079004A3E4F05C
:403FC00080069004A374FFF0126BD080069004A37404F09004A3E0FF22126C3A90065EEFF09043A5E0FFEF4401FFEFF09043B5E0FFEF4401FFEFF090609D7401F09060099F
:404000007402F0906010E0FFEF547FFFEFF07F007E0012678C904394E0FFEF54F9FFEFF0906012E0FFEF54DFFFEFF0904394E0FFEF4401FFEFF07F017E0012678C7F287ED8
:404040000012678C9051F8E0FFEF547FFFEFF09051F8E0FFEF54BFFFEFF0904394E0FFEF4402FFEFF07F027E0012678C904394E0FFEF4404FFEFF0906084E4F0906085E4F2
:40408000F090065EE0FF126B487C627D117F171254617D067F17125DE97C657DFF7F151254617D067F15125DE97C367DF67F181254617D067F18125DE97C5A7DBE7F06127A
:4040C00054617D067F06125DE97C5B7D257F071254617D067F07125DE97C5B7D8C7F081254617D067F08125DE9229005531206A9900556EDF012688E900556E0FFEFC39449
:404100008040030241E8126701EF60030241E090055774FFF09005531206A09004B1E4F0A37410F07F40124F25EF640760030241DB904722E0FFEF5402FF7E00EF4E60F13B
:40414000904722E0FFEF5402FF7E00EF4E600D904722E0FFEF1313543FFF80027FFFEF7005900557E4F0900557E0FFEF7067900556E0FFEFFD7C00900560E0FB900561E0EF
:40418000FF900523EFF07F40125071EF6407703D90055774FFF0904722E0FFEF5402FF7E00EF4E60F1904722E0FFEF5402FF7E00EF4E600D904722E0FFEF1313543FFF8016
:4041C000027FFFEF7015900557E4F0800E90055774FFF0800690055774FFF0126BD0800E9005577404F080069005577401F0900557E0FF229005D1E4F0906004E0FFEF5416
:404200007FFF9005CFEFF09005CFE0FF7E00EF24FFFFEE34FFFEEFC4F8540FC868FFEEC454F048FE9005D0EFF09005CFE0FFEFD3940050030242E59005CFE0FFEFC3940968
:4042400040030242E59005CFE0FFEF75F00BA42449F582E43402F583E0FFEF4401FFEFF09005CFE0FFEF75F00BA4244AF582E43402F583E4F09005CFE0FFEF75F00BA4242A
:4042800048F582E43402F583E0FFEF4402FFEFF09005CFE0FFEF75F00BA4244BF582E43402F583E0FFEF5480FF7E00EF4E60189005D0E0FF7E00EF240EFFEE3460FE8F82B6
:4042C0008E83748DF080169005D0E0FF7E00EF240EFFEE3460FE8F828E837489F0126B159005D1EFF09005D1E0FF229005251206A9900529E4F07B007A007900C003C00277
:40430000C0019005251206A0D082D083D0E06B7008E965827003EA658370030243DC9005251206A074221204099005251206A0E92401F9EA3400FA740312040990052874EA
:4043400002F0900528E0FFEFC3942240030243DC900529E0FFE4FCFDFEEF2400FFEE3401FEED340CFDEC3400FCA907AA06AB05126DF490052AEFF0900529E004F090052A80
:40438000E0FFEFC4540FFFEF90741293FF9005251206A0900528E0FEE92EF9E43AFAEF12040990052AE0FFEF540FFFEF90741293FF900528E0FEEEFD7C00ED2402FDEC3477
:4043C00000FC9005251206A0E92DF9EA3CFAEF120409900528E02404F00243422290043112068874FFFFFEFDFC900431E0F8A3E0F9A3E0FAA3E0FBC312063960387F807EA9
:40440000967D187C4B900431E0F8A3E0F9A3E0FAA3E0FB1202B86002501B7F807E967D187CCB900431E0F8A3E0F9A3E0FAA3E0FB1202B8500F900431E0FCA3E0FDA3E0FE0D
:40444000A3E0FF22900431E0FCA3E0FDA3E0FEA3E0FF12036F900435120688900435E0FCA3E0FDA3E0FEA3E0FFEC120331C8ECC8C9EDC9CAEECACBEFCB900431E0FCA3E007
:40448000FDA3E0FEA3E0FF12001DE4FBFAF9F81202B85025900435E0FCA3E0FDA3E0FEA3E0FFE4FAF9F8EF2401FFEA3EFEE93DFDE83CFC900435120688900435E0FCA3E0BE
:4044C000FDA3E0FEA3E0FFEC120331229004FBE4F07BFF7A747930C003C002C0017B017A0479FCA801AC02AD03D001D002D0037E007F0512081E126E8C7D017F00126865A0
:40450000126E74EF7006126D88EF70F4126CF3126D88EF70030245AF126BA4EF60F17B017A0479FC124D0B9004FBEFF09004FBE0FFEF640270719004FCE0FFEF1206BE4533
:4045400052014559024561034564044594050000459F7F0112692780B6123C5D125BF380AE1263017B017A0479FCC003C002C0017B017A0479D8A801AC02AD03D001D0027F
:40458000D0037E007F0512081E1260737F0212692702450F1265AB7F0212692702450F7F0312692702450F7F0312692702450F126E0C126E9022759300780075834675828E
:4045C000E8E04401F0009046ECE0F99046FAE0FAB903225420B40012B8001AEA901FFFF07401901FFEF09046F6F0901FFEE06005901FFFE0FA90480074C0F075810C900031
:404600000078007920E4F0A3D8FCD9FAEA900442F0020011750B1F750CFD122F1D02465B026902E493A3F8E493A34003F68001F208DFF48029E493A3F85407240CC8C33346
:40464000C4540F4420C8834004F456800146F6DFE4800B01020408102040809052C9E47E019360BCA3FF543F30E509541FFEE493A360010ECF54C025E060A840B8E493A3C0
:40468000FAE493A3F8E493A3C8C582C8CAC583CAF0A3C8C582C8CAC583CADFE9DEE780BE90066CEFF090041FE4F090066CE0FFEF64016003024783904E007430F0904E02F2
:4046C0007406F0904E037408F0904E04E4F0904E05E4F0904E06741FF0904E08E4F0904E09E4F0904E0AE4F0904E147401F09058847414F09058857405F09058867416F005
:40470000905887E4F090588A7444F090588B7448F090588C7401F090588E7401F090588F7411F09058907419F09058917497F07F521260CB9058947458F0905895E4F090CD
:40474000589A7405F090589B7402F090589CE4F090589DE4F07F00126A437F337E037D007C009004251206887D017F697E001230DA7D017FAA7E0112326F7C677D8B7F1D21
:4047800012546122900431EEF0A3EFF0A37404F0A374D0F0900433E0FEA3E0F5828E83E0FEA3E0FF4E7003FEFF228F828E83A3A3E0FCA3E0FD900431E0FAA3E0FBC3ED9BED
:4047C000EC9A500A900433EEF0A3EFF080C68F828E83A3A3E0FCA3E0C39BFDEC9AFC900435F0A3EDF0C39410EC940050178F828E83E0FCA3E0FD900433E0FAA3E0F5828A9E
:4048000083EC8045900436E024FCF0900435E034FFF0E0FDA3E08F828E83A3A3CDF0A3EDF0EF2404FFE43EFE900436E02FFF900435E03EFE900433F0A3EFF0900431E0FDEB
:40484000A3E08F828E83A3A3CDF0A3EDF0EF2404FFE43EFE22126C3A900606EFF0900419E0FF900605EFF09043AAE0FFEF4401FFEFF09043AAE0FFEF4410FFEFF09043BA07
:40488000E0FFEF4401FFEFF09043BAE0FFEF4410FFEFF09046F8E0FFEF4402FFEFF09046F9E0FFEF4402FFEFF0905891E0FFEF4403FFEFF07F037E0012678C9046F8E0FFDB
:4048C000EF54FDFFEFF09046F9E0FFEF54FDFFEFF0905877E0FFEF4406FFEFF0905882747AF09043A1E0FFEF4401FFEFF09043B1E0FFEF4401FFEFF09043A2E0FFEF4401CF
:40490000FFEFF09043B2E0FFEF4401FFEFF09044DB7420F09044C37420F0900606E0FF126B4822900697E4F09002B5E0FF7E00900244EE8FF01204709002ACE0FEA3E0FF67
:40494000D3EF9400EE94004053900697E0FFEFC3940850489002AE1206A01203F0FF900697E0FEEEFD7C00ED2400FDEC3460FC8D828C83EFF09002AE1206A0E92401F9EAFC
:404980003400FA9002AE1206A9900697E004F09002AC74FF75F0FF120470809C9002B5E0FFEF6408600B900697E0FFEFD39400401C9002BEE0FFEF6480FF9002BEEFF090A6
:4049C0000243740FF09002BF7402F0800C9002437402F09002BF7402F0900697E0FF9002B5EFF0900697E0FF900246EFF02290050DEEF0A3EFF0126C3A900512EFF09040A3
:404A000007E0FF7E00EF7F00FE900510EEF0A3EFF0900510E0FEA3E0FF904006E0FD7C00EE4CFEEF4DFF900510EEF0A3EFF090050DE0FEA3E0FFEF4E600C900510E0FEA324
:404A4000E0FFEF4E705E904004E0FF90050FEFF090050FE0FFEFC3940750057F07126C8590050DE0FEA3E0FFEF4E7018904008E0FFEF4440FFEFF090050DE0FEA3E0FF1285
:404A8000611E801690050DE0FEA3E0FF12611E904008E0FFEF54BFFFEFF090050FE0FF126C85800B90050DE0FEA3E0FF12611E900512E0FF126B48229004197401F0900400
:404AC00024E4F07F1012694C7F1012696D7D077F1D125DE99058967407F0905897E4F090589EE4F0905B07E0FFEF4418FFEFF0905893E4F0905B88E4F0905B89E4F0905823
:404B000080740AF0905881E4F0905883E4F09058887412F09058897413F090588DE4F0904E017414F09003EA740CF09003EB7401F07B007A807D6B7C8D7F021225A8900473
:404B400019E0FFEF75F003A42420F582E43404F583E0FF904E0EEFF0900419E0FFEF75F003A4241EF582E43404F583E0FCA3E0FD7B027A4E790C126CE6900419E0FF124607
:404B8000A0229005D9EFF01262B29005DAEFF09005DAE0FFEFB4010B906009E0FFEF54FDFFEFF09005D9E0FFEF1206BE4BC5004BD4014BE3024BF2034C01044C10054C1FB0
:404BC0000800004C427B0C7A017908126DF49046A1EFF0227B0C7A017909126DF49046A1EFF0227B0C7A01790A126DF49046A1EFF0227B0C7A01790B126DF49046A1EFF083
:404C0000227B0C7A017989126DF49046A1EFF0227B0C7A01790C126DF49046A1EFF0227B0C7A01790F126DF49046A1EFF09005DAE0FFEFB40111906009E0FFEF4402FFEFA0
:404C4000F0227F00126BE622900667E4F0906000E0FFEF5480FF7E00EF64804E7033906001E0FFEF1206BE4C6E2100004D059002ACE4F0A37407F07B017A0479709002AE75
:404C80001206A9125918900667EFF0807880768074906000E0FFEF5480FF7E00EF4E7065906001E0FFEF1206BE4CB3204CE02200004D059002ACE4F0A37407F07B017A0463
:404CC00079709002AE1206A9900479E0FFEF4401FF900479EFF0125E48900667EFF08025906002E0FF7E0090047AEEF0A3EFF0900479E0FFEF4402FF900479EFF0126B152B
:404D0000900667EFF0900667E0FF229002C11206A9900304E4F0A3E4F0900306E4F09003077402F012653D900304EEF0A3EFF0900304E0FEA3E0FFEF64054E70767B017A12
:404D40000279C47D057C0012675E9002C4E0FF9002C11206A0EF1204099002C5E0FF7E00EF7F00FE9002C6E0FD7C00EE4CFEEF4DFF9002C11206A0E92401F9EA3400FAEE75
:404D80008FF01204C79002C7E0FF7E00EF7F00FE9002C8E0FD7C00EE4CFEEF4DFF9002C11206A0E92403F9EA3400FAEE8FF01204C78009126A099003077403F0900307E050
:404DC000FF22900580EFF0900582E4F0A3E4F0900580E0FFEFD394005003024E6E900580E0FFEFC394094003024E6E900580E0FF7E00EF24FFFFEE34FFFEEFC4F8540FC825
:404E000068FFEEC454F048FE900581EFF0900581E0FF7E00EF240CFFEE3460FE8F828E83E0FFEF540FFF7E00900582EEF0A3EFF0900581E0FF7E00EF240DFFEE3460FE8FE1
:404E4000828E83E0FFEFFD7C00900582E0FEA3E0FFEF7F00FEEE4CFEEF4DFF900582EEF0A3EFF090058274FF75F0FE120470900582E0FEA3E0FF2290063CE4F0906029E0E0
:404E8000FFEF540FFFEF24FEFF90063BEFF090063BE0FF7E00900244EE8FF01204709002ACE0FEA3E0FFD3EF9400EE9400405790063BE0FFEFD39400404C90063CE0FF7E1D
:404EC00000EF2400FFEE3460FE8F828E83E0FF9002AE1206A0EF1204099002AE1206A0E92401F9EA3400FA9002AE1206A990063CE004F090063BE014F09002AC74FF75F090
:404F0000FF120470809890063BE0FF900246EFF09002BEE0FFEF6480FF9002BEEFF0900243740BF0229004ADEFF09004AE1206A99004B37407F0904722E0FFEF5402FF7E68
:404F400000EF4E607D90472074B6F090472074D5F09047207402F0904722E0FFEF5402FF7E00EF4E70549004ADE0FF904720EFF09004B4E4F0A3E4F09004B1E0FEA3E0FFB0
:404F80009004B4E0FCA3E0FDC3ED9FEC9E50399004AE1206A09004B4E0FEA3E0FFE92FF9EA3EFA1203F0FF904720EFF09004B4E475F00112047080C0800E9004B37409F0A2
:404FC00080069004B37404F09004B3E0FF229005677401F0906004E0FF900568EFF0900242E0FFEF14FF126018900569EEF0A3EFF0900569E0FEA3E0FF8F828E83A312064C
:40500000B2E92404F9EA3400FA1203F0FF90056BEFF090056BE0FF900568E0FEEEC39F500B900568E0FFEFC394024007900567E4F08038900568E0FF74AA2FF582E43402A7
:40504000F583E0FF900568E0FE74B92EF582E43402F583EFF0906002E0FF900568E0FE74AA2EF582E43402F583EFF0900567E0FF2290051FEFF0900520ECF0A3EDF09005A5
:4050800022EBF09005247407F0904722E0FFEF5402FF7E00EF4E606B90472074B6F090472074D8F09047207405F0904722E0FFEF5402FF7E00EF4E704290051FE0FF904796
:4050C00020EFF0900520E0FEA3E0FFEEFF7E00904720EFF0900520E0FEA3E0FFEF54FFFF904720EFF0900522E0FF904720EFF0900523E0FF904720EFF0800E900524740992
:40510000F080069005247404F0900524E0FF229005F9EFF09005FAEDF09044C27480F09044C37401F09044C07440F09044C07480F09044C17401F09002BFE4F09005FAE091
:40514000FFEF1206BE514F005157010000515F9060097402F0800E9060097403F080069060097403F09005F9E0FF9002C0EFF0900242E4F09002B4E4F09002B8E4F090022F
:40518000BBE4F0900241E4F09002B5E4F09060287403F09060087480F07F017E007D007C001266009060127404F0229005E1EFF0904308E0FFEF5402FF7E00EF4E60047F57
:4051C0000180027F009005E2EFF090430A74F3F09005E1E0FFEF640170339046987401F07F0A7E0012678C904309E0FFEF54F3FFEF4408FF904309EFF07F147E0012678CFD
:40520000904308E0FFEF4402FFEFF0802A9046987406F07F0A7E0012678C904309E0FFEF54F3FFEF4404FF904309EFF0904308E0FFEF54FDFFEFF09005E2E0FF229006410B
:40524000E4F0900642E4F0906000E0FFEF5403FFEF1206BE525E01526A0200005288906004E0FF900642EFF0801E906004E0FFEF547FFFEF75F00BA42451F582E43402F5D2
:4052800083E0FF900642EFF0900642E0FF9002B6E0FCA3E0FD8D828C83E5822FF582E43583F583E493FFEF1206BE52C30152BB0252C303000052C3800A8008124C48900660
:4052C00041EFF0900641E0FF224305A8FF6EBF44043E03D090004404390000FA0041043D404404437D000000410666004104240041041F0041041A004104200041041901CF
:405300004103D8004A03DA0000000101000101076C4A03CC0000000101000101076C4103E4004103D7004103D9004103D600410683004106870041068B0043055D0000009A
:405340004106950041069CFF004804D00000000000000000906028E0FF900696EFF0900696E0FF906028EFF0906028E0FF900696EFF0900696E0FFEF5480FF7E00EF4E6065
:405380000B900696E0FF900243EFF0227F02125D87906000E0FFEF5460FFEF1206BE53AB0053B52053BF40000053C9121432900696EFF0801912523D900696EFF0800F1277
:4053C0006262900696EFF08005900696E4F0900696E0FFEF70069002437403F022900603EFF012688E900603E0FFEFC394025065126701EF7057900603E0FD7F4012598442
:40540000EF6407703D90060474FFF0904722E0FFEF5402FF7E00EF4E60F1904722E0FFEF5402FF7E00EF4E600D904722E0FFEF1313543FFF80027FFFEF700D900604E4F0A3
:40544000800690060474FFF0126BD0800E9006047404F080069006047401F0900604E0FF2290053AEFF090053BECF0A3EDF090053AE0FFEFD3941F5003D38001C340057F81
:4054800000126BE690053AE0FFEF541FFF7E00EF25E0FFEE33FEEF2400FFEE3444FEAA06A9077B01126CD790053DEEF0A3EFF090053AE0FF7E02EF8EF0A4FFAEF0EF240022
:4054C000FFEE3444FEAA06A9077B0190053BE0FEA3E0FFAD07AC06126CE690053DE0FEA3E0FF22904E14E0FFEF5403FF9005C2EFF09005C2E0FFEFD394015032904E11E0F5
:40550000FF7E009005C0EEF0A3EFF09005C0E0FEA3E0FFEF7F00FE904E10E0FD7C00EE4CFEEF4DFF9005C0EEF0A3EFF0801F7B027A4E7910126CD79005C0EEF0A3EFF090A2
:4055400005C2E0FFEFB40305904E12E0FF90041FE0FFEF6005900424E4F09005C0E0FEA3E0FF229005FBEFF09005FBE0FFEFD39400406E9005FBE0FFEFC3940950639005DA
:40558000FBE0FF7E00EF24FFFFEE34FFFEEFC4F8540FC868FFEEC454F048FE9005FCEFF09005FBE0FFEF75F00BA42448F582E43402F583E4F09005FBE0FFEF75F00BA42429
:4055C0004CF582E43402F583E0FF9005FCE0FEEEFD7C00ED240EFDEC3460FC8D828C83EFF0229005441206A9900547ECF0A3EDF0900477E0FFEF75F00BA4244FF582E43429
:4056000002F583E0FEA3E0FF900547E0FCA3E0FDD3ED9FEC9E4025900477E0FFEF75F00BA4244FF582E43402F583E0FEA3E0FF900547EEF0A3EFF07F00126BE6900477E038
:40564000FF9005441206A0900547E0FCA3E0FD900480ECF0A3EDF0122D5022900242E0FFEF14FF1260189005CCEEF0A3EFF09005CCE0FEA3E0FF8F828E83A31206B2E924E4
:4056800004F9EA3400FA1203F0FF9005CEEFF09005CEE0FF7E00EF2402FFEE3400FEEF7802C333CE33CED8F9FF9005CCE0FCA3E0FDEF2DFFEE3CFE9005CCEEF0A3EFF0904C
:4056C00005CCE0FEA3E0FF8F828E83A31206B2AE02AF0122900574EFF09043A0E0FFEF4410FFEFF09043B0E0FFEF4410FFEFF0900574E0FFEF6051904300E0FFEF5404FF0A
:40570000900577EFF0904380E0FF900576EFF0904382E0FF900575EFF07F001257BE7F0112639B7E00EF30E0F5900577E0FFEF7003126D64900576E0FF904380EFF09005BC
:4057400075E0FF904382EFF022900659EFF0904382E0FFEF54F7FFEFF0126D4C904382E0FFEF5404FF7E00EF4E602F900659E0FF904381E0FEEE6F6044904382E0FFEF545E
:40578000FBFFEFF0900659E0FF904381EFF0904382E0FFEF4404FFEFF022900659E0FF904381E0FEEE6F600A900659E0FF904381EFF0904382E0FFEF4404FFEFF0229006DB
:4057C0005AEFF0904382E0FFEF54FDFFEFF0126D58904382E0FFEF5401FF7E00EF4E602F90065AE0FF904380E0FEEE6F6044904382E0FFEF54FEFFEFF090065AE0FF904390
:4058000080EFF0904382E0FFEF4401FFEFF02290065AE0FF904380E0FEEE6F600A90065AE0FF904380EFF0904382E0FFEF4401FFEFF02290430A74F3F09046987403F090D8
:405840004309E0FFEF54F3FFEF4404FF904309EFF0904308E0FFEF4404FFEFF0904308E0FFEF4401FFEFF09005DF7403F0A374E8F09005DFE0FEA3E0FFD3EF9400EE9400C6
:405880004023126E167E00EF30E5067F001251AB227F017E0012678C9005DF74FF75F0FF12047080CC2290056CEEF0A3EFF090056EE4F0A3740AF0126E9490056CE0FEA397
:4058C000E0FFEF2400FFEE3480FE8F828E83E0FF7E00EF7F00FE90056EEEF0A3EFF090056CE0FEA3E0FFEF2401FFEE3480FE8F828E83E0FF7E0090056EE0FCA3E0FDEE4C9D
:40590000FEEF4DFF90056EEEF0A3EFF0126E9890056EE0FEA3E0FF229002ACE0FEA3E0FFEF4E70051269AE80589002BF7402F09002BEE4F012634E906007E0FF7E00EF7F7D
:4059400000FE906006E0FD7C00EE4CFEEF4DFF900637EEF0A3EFF0900637E0FEA3E0FF9002ACE0FCA3E0FDD3ED9FEC9E4010900637E0FEA3E0FF9002ACEEF0A3EFF0124914
:40598000237F01229005C6EFF09005C7EDF09005C87407F0904722E0FFEF5402FF7E00EF4E603F90472074B6F090472074DBF09047207408F0904722E0FFEF5402FF7E002D
:4059C000EF4E70169005C6E0FF904720EFF09005C7E0FF904720EFF0800E9005C87409F080069005C87404F09005C8E0FF22906008E0FFEF547FFFEFF0906012E0FFEF5427
:405A0000FBFFEFF09043A5E0FFEF54FEFFEFF09043B5E0FFEF54FEFFEFF09044CA7480F09044CB7401F09044C87440F09044C87480F09044C97401F0900242E4F09002B45B
:405A4000E4F09002B8E4F09002BBE4F0900241E4F0900666E4F02212688E90069074FFF0126701EF704C7F01125FBDEF6407703D7B017A0579607D02125CBFEFB4021F903B
:405A80000690E4F0904722E0FFEF5402FF7E00EF4E701A7F017E0012678C80E8800F904722E0FFEF5402FF7E00EF4E60C3126BD080069006907404F0900690E0FF22C0E0FF
:405AC000C083C082C085C084C086758600C093759300C0D075D000C006C00790600EE0FF900252E0FFEF5403FF7E00EF64014E600E900255E0FFEF6480FF900255EFF09039
:405B000002537401F090600BE0FFEF54FEFFEFF0D007D006D0D0D093D086D084D085D082D083D0E032C0E0C083C082C085C084C086758600C093759300C0D075D000C00697
:405B4000C00790601EE0FF90025DE0FFEF5403FF7E00EF64014E600E900260E0FFEF6480FF900260EFF090025E7401F090600BE0FFEF54FDFFEFF0D007D006D0D0D093D08F
:405B800086D084D085D082D083D0E032C0E0C083C082C085C084C086758600C093759300C0D075D000C006C00790602EE0FF900268E0FFEF5403FF7E00EF64014E600E904A
:405BC000026BE0FFEF6480FF90026BEFF09002697401F090600BE0FFEF54FBFFEFF0D007D006D0D0D093D086D084D085D082D083D0E032900507E4F07BFF7A747935C003D6
:405C0000C002C0017B017A057908A801AC02AD03D001D002D0037E007F0512081E126BA4EF7006126D88EF70F47B017A057908124D0B900507EFF0900507E0FFEFB402DD70
:405C4000900508E0FFEFB4020F7BFF7A6E79BF9005A81206A92280C52290062FEFF0126C3A900630EFF090062FE0FFEFD394165014904800E0FFEF543FFFEF4440FF9048DC
:405C800000EFF0803190062FE0FFEFD3942C5014904800E0FFEF543FFFEF4480FF904800EFF08012904800E0FFEF543FFFEF44C0FF904800EFF0900630E0FF126B4822909A
:405CC00005621206A9900565EDF0900566E4F0900565E0FF900566E0FEEEC39F5040904722E0FFEF5401FF7E00EF4E6003D38001C340097F017E0012678C80E2904720E06F
:405D0000FF9005621206A0900566E0FEE92EF9E43AFAEF120409900566E004F080B1900566E0FF227F007E001258A69005D5EEF0A3EFF07F027E001258A6900572EEF0A33C
:405D4000EFF09005D5E0FEA3E0FFEF8EF01206E45D6400015D6B00025D7200035D79000400005D7E7F01126C9580137F02126C95800C7F04126C9580057F08126C9590056E
:405D800070E4F0A3E4F022900698EFF07B007A007900C003C002C0019002B11206A0D082D083D0E06B7008E965827003EA65836037900698E0FF9002B11206A0EF12040950
:405DC000900244E0FEA3E0FF9002B11206A0E92401F9EA3400FAEE8FF01204C77B007A0079009002B11206A9229005EDEFF09005EEEDF09005EEE0FFEFD394075003D3804F
:405E000001C340057F00126BE69005EDE0FFEFD3941F5003D38001C340057F00126BE69005EEE0FFEF5407FF7E00EF75F020A4FFAEF09005EDE0FEEE541FFE74802EF582DA
:405E4000E43444F583EFF0229002BF7404F09002BE7480F012634E906007E0FF7E00EF7F00FE906006E0FD7C00EE4CFEEF4DFF900639EEF0A3EFF0900639E0FEA3E0FF902D
:405E800002ACE0FCA3E0FDD3ED9FEC9E4010900639E0FEA3E0FF9002ACEEF0A3EFF0900243740BF07F012290059C1206A990059FE4F012688E7B007A007900C003C002C037
:405EC0000190059C1206A0D082D083D0E06B7008E965827003EA6583700890059F7401F0801D126701EF600890059F7404F0800F90059C1206A090055D1206A9126BD09048
:405F0000059FE0FF229005D7E4F0A3E4F0126A261268129005D7EEF0A3EFF0126E9C7B017A0579D7C003C002C0019005A81206A09000031206A9900006E4F0A37402F0D0D2
:405F400001D002D003121CB4126EA09005A9E475F0021204701223977D407C087F01121F5E2290064EEFF090064EE0FFEF1206BE5FAB005F94015F7D0200005FB79040001F
:405F8000E0FFEF54BFFFEFF0904200E0FFEF4420FFEFF022904000E0FFEF4440FFEFF0904200E0FFEF4420FFEFF022904200E0FFEF54DFFFEFF0227F00126BE6229006317C
:405FC000EFF09006327407F0904722E0FFEF5402FF7E00EF4E603590472074B6F090472074E1F0904720740EF0904722E0FFEF5402FF7E00EF4E700C900631E0FF9047207D
:40600000EFF0800E9006327409F080069006327404F0900632E0FF229005C9EFF09002C0E0FFEF25E025E0248FF582E43473F5831206B2AE02AF019005CAEEF0A3EFF09032
:4060400005CAE0FEA3E0FF8F828E83C083C0829005C9E0FFD082D08375F004EF120694E5822405F582E5833400F5831206B2AE02AF01229004DDE4F0A3E4F09004D9E0FEF6
:40608000A3E0FFEF8EF01206E46099000160A3000260AE0003000060B79004DDE4F0A3E4F080149004DDE4F0A37402F080099004DDE4F0A37404F09004DDE0FEA3E0FF90F6
:4060C00004DBE0FCA3E0FD122B7B22900611EFF0126C3A900612EFF09046F8E0FFEF4403FFEFF09046F9E0FFEF4403FFEFF0900611E0FF905892EFF07F037E0012678C90CF
:4061000046F8E0FFEF54FCFFEFF09046F9E0FFEF54FCFFEFF0900612E0FF126B48229005DBEEF0A3EFF0904014E0FFEF54F0FFEFF0904010E4F0904008E0FFEF4480FFEF3C
:40614000F09005DBE0FEA3E0FFEF54FFFF904002EFF09005DBE0FEA3E0FFEEFF7E00904003EFF0904001E0FFEF4401FFEFF022C0E0C0F0C083C082C085C084C086758600FD
:40618000C093759300C0D075D000C000C001C002C003C004C005C006C0071244CCD007D006D005D004D003D002D001D000D0D0D093D086D084D085D082D083D0F0D0E0328C
:4061C000C0E0C0F0C083C082C085C084C086758600C093759300C0D075D000C000C001C002C003C004C005C006C007125F05D007D006D005D004D003D002D001D000D0D002
:40620000D093D086D084D085D082D083D0F0D0E032C0E0C0F0C083C082C085C084C086758600C093759300C0D075D000C000C001C002C003C004C005C006C0071266D1D0B1
:4062400007D006D005D004D003D002D001D000D0D0D093D086D084D085D082D083D0F0D0E0329006A5E4F0906000E0FFEF5480FF7E00EF64804E7034906001E0FFEF12064F
:40628000BE628801000062AC7BFF7A7379A49002AE1206A99073A4E493FF7E009002ACEEF0A3EFF01259189006A5EFF09006A5E0FF2290064DE4F0904393E0FFEF5407FF4B
:4062C0007E00EF4E700F9043A5E0FFEF5401FF7E00EF4E7020904393E0FFEF5407FF7E00EF64014E70159043B5E0FFEF5401FF7E00EF4E600690064D7401F090064DE0FF77
:40630000227F047E001258A6900501EEF0A3EFF07F007E001258A6900503EEF0A3EFF07F027E001258A6900505EEF0A3EFF0126BBAEF7006126D88EF70F4126D88EF600DCD
:406340007B017A0579017D067C001255E222900244E4F0A3E4F07B007A007900C003C002C0019002B11206A0D082D083D0E06B7008E965827003EA6583601F9002B1120647
:40638000A0E41204099002B11206A0E92401F9EA3400FAE475F0001204C7229005B4EFF0126C3A9005B5EFF090034EE0FF904390E0FEEF4EFF90034EEFF090034EE0FF9082
:4063C00005B6EFF090034EE0FF9005B4E0FEEEF4FEEF5EFF90034EEFF09005B5E0FF126B489005B6E0FF2290068FEFF090068FE0FFEFC39402503990068FE0FFEF25E02401
:40640000CCF582E43473F583E493FE740193FF8F828E83C083C082E0FF90068FE0FEEE9073D093FEEEF4FEEF5EFFD082D083EFF02290068EEFF090068EE0FFEFC39402504F
:406440003690068EE0FFEF25E024CCF582E43473F583E493FE740193FF8F828E83C083C082E0FF90068EE0FEEE9073D093FEEF4EFFD082D083EFF022C2D5E830E70FB2D521
:40648000E4C39BFBE49AFAE499F9E498F8EC30E717B2D51264AE12058CE4C39BFBE49AFAE499F9E498F8800312058C30D50DE4C39FFFE49EFEE49DFDE49CFC227B0C7A011B
:4064C00079CF126DF490068DEFF090068DE0FFEF5407FF90586EEFF090068DE0FFEFC4540FFFEF540FFF90586FEFF090510D7480F0905B007480F09058767444F022900662
:406500000BEFF090041FE0FFEF600C900424E0FF90060CEFF0800E904E01E0FFEF5401FF90060CEFF090060CE0FFEF6401600890060BE0FFEF60CC90060CE0FF229006014A
:40654000E4F0A3E4F0900478E0FFEF75F00BA42448F582E43402F583E0FFEFB40110900478E0FF124DC2900601EEF0A3EFF0900601E0FEA3E0FF22758600EF4E6027EF60B0
:40658000010E75930090042EE0F595A3E0F585A3E0F5848B938A838982E0A30586F0A31586DFF6DEF4E4F593F5952290064BE4F07B017A06794BC003C002C0017BFF7A6E51
:4065C00079BE9000031206A9900006E4F0A37401F0D001D002D003121CB4126D7C229002B5E0FF7E00900244EE8FF01204709002BFE4F07F01125D879002437403F0223291
:40660000EC4D4E700D78FCEF24E950032840FD2200007BF178DA0000EF28FF78FFEE38FEED38FDEC38FC50E7EF2BFFEE38FEED38FDEC38FC40F222050203047FF37E011240
:406640006A797FF37E01126A93126C3A900680EFF0906597E0FFEF4410FFEFF0900680E0FF126B48126D017F00126CA5227FF37E01126AAD7FF37E01126AC7126C3A900664
:4066800084EFF0906595E0FFEF4410FFEFF0900684E0FF126B48126D0E7F00126CB5227FF37E01126AE17FF37E01126AFB126C3A900688EFF0906497E0FFEF4410FFEFF0D8
:4066C000900688E0FF126B48126D1B7F00126CC5229002BFE4F0900242E4F09002B4E4F09002B8E4F09002BBE4F0900241E4F09002B5E4F09060287403F09060087480F017
:40670000229006337404F0126C3A900634EFF0900695E0FFEF700B9006957401F0900633E4F0900634E0FF126B48900633E0FF229002BFE0FFEF1206BE675D00674A0267F9
:406740004E046752060000675D221265DE22124E77227F03125D879002437403F02290054E1206A9900551ECF0A3EDF0900478E0FF90054E1206A0900551E0FCA3E0FD909E
:406780000467ECF0A3EDF0123D8F2232EEFA90043DE0F88FF0A4FFAEF0E88AF0A42EFEE5F03400FDEF24C9FF78FFEE38FEED38FDE438FC500302660022ACEAADA08B938A3F
:4067C000838982E0F96017A3E0F5EAA3E0F5A0A3E060F4FAA3E0F8A3E0F2DAF8D9E98DA08CEAE4F593229002BBE0FFEF60139002BBE0FFEF4480FF906008EFF09002BBE447
:40680000F09002BFE4F07F01125D879002437403F022904E01E0FFEF4404FFEFF0126D947F001264FE1254E3900613EEF0A3EFF0126DA0900613E0FEA3E0FF22904308E03F
:40684000FFEF5401FF7E00EF4E7003125833904382E0FFEF54DFFFEFF0904382E0FFEF4410FFEFF0229005F7EFF09005F8EDF0900666E0FFEF7009123FD99006667401F0BD
:406880009005F7E0FF9005F8E0FD12510F22126C3A900692EFF09043A0E0FFEF4408FFEFF09043B0E0FFEF4408FFEFF0900692E0FF126B4822900699E4F0900699E0FFEFDC
:4068C000C394025010900699E0FF1263E7900699E004F080E590069C74FFF0229002BFE0FFEF1206BE69010068F60268FA0468FE060000690122126EB022126C742212675A
:40690000E622125D24906EBEE493FFEF60031265AB126EA8D2AF9044F474FDF0126C4F80FEE47E007F0022900649EFF0126BBAEF7006126D88EF70F4126D88EF600D7B0163
:406940007A0679497D017C001255E22290069EEFF0904082C083C082E0FF90069EE0FEEE54F8FEEF4EFFD082D083EFF0229006A1EFF0904102C083C082E0FF9006A1E0FE19
:40698000EE54F8FEEF4EFFD082D083EFF02290064FEFF090064FE0FFEF5403FF904005E0FEEE54FCFEEE4FFF904005EFF0229002BF7402F09002BE7480F0900243740FF0BC
:4069C0009002B5E4F0900246E4F07F01229005F5EEF0A3EFF07B027A4479089005F5E0FEA3E0FFAD07AC06126CE622125A57900691EFF0900691E0FFEF7008125A57900623
:406A000091EFF0900691E0FF22900478E0FF7B017A067968900467E4F0A37401F0123D8F900668E0FF2290041AE0FFEF7011900420E0FFEF7003124AB890041A7401F01217
:406A400048552290069AEFF01268B590069AE0FF12643190069AE0FF90069CEFF0229002C0E0FFEF25E025E0248FF582E43473F5831206B2AE02AF0122900621EEF0A3EF57
:406A8000F07B027A657926900621E0FCA3E0FD126CE622900623EEF0A3EFF07B027A657906900623E0FCA3E0FD126CE622900625EEF0A3EFF07B027A657924900625E0FC18
:406AC000A3E0FD126CE622900627EEF0A3EFF07B027A657904900627E0FCA3E0FD126CE622900629EEF0A3EFF07B027A647926900629E0FCA3E0FD126CE62290062BEEF0A2
:406B0000A3EFF07B027A64790690062BE0FCA3E0FD126CE6229002BF7406F09002437406F09002BE7480F0900246E4F07F0122EC4D6011ED60010C8B938A838982E4F0A329
:406B4000DDFCDCFA75930022EF54016004D2AF8002C2AFEF5402FF9044F4E054FD4FF0229043ACE0FFEF4410FFEFF09043BCE0FFEF4410FFEFF0229043ACE0FFEF54EFFFC3
:406B8000EFF09043BCE0FFEF54EFFFEFF02290065CEFF090065CE0FFEFC43354E0FF904484EFF022900478E0FFEF75F00BA42448F582E43402F583E0FF22900477E0FFEF05
:406BC00075F00BA42448F582E43402F583E0FF22126C3A900694EFF0900695E4F0900694E0FF126B482290FFFF120711EFF09046EA7401F090000112071122900683E0FFCA
:406C0000EF700912663B9006837401F0126DAC22900687E0FFEF700912666D9006877401F0126DC42290068BE0FFEF700912669F90068B7401F0126DDC229044F4E0F844D8
:406C400002F0E85402FF10AF012274014FFF22126E6D7E617F6F1269CD7F07126B8E126E662290068CEFF090068CE0FF90068CEFF080FE229002BFE4F07F01125D879002B3
:406C8000437403F022900650EFF0900650E0FF904004EFF02290067EEFF090067EE0FF9003D9EFF022900681EFF0900681E0FF906587EFF022900685EFF0900685E0FF9069
:406CC0006585EFF022900689EFF0900689E0FF906487EFF0228B938A838982E0FFA3E0FE759300228B938A838982EDF0A3ECF075930022900479E4F0900478E0FF1255631F
:406D000022126E7AEF30E305126E2080F422126E80EF30E305126E2A80F422126E86EF30E305126E3480F422904220E0FFEF54FEFFEFF022904200E0FFEF4410FFEFF02256
:406D4000904200E0FFEF54EFFFEFF022904300E0FFEF4402FFEFF022904300E0FFEF4404FFEFF022904300E0FFEF54FBFFEFF022904210E0FFEF54FEFFEFF0229046F6E0C2
:406D8000FFEF4401FFEFF022905161E0FFEF5401FF7E0022904E00E0FFEF4401FFEFF022904E00E0FFEF54FEFFEFF022906577E0FFEF4480FFEFF022906577E0FFEF547FA2
:406DC000FFEFF022906575E0FFEF4480FFEFF022906575E0FFEF547FFFEFF022906477E0FFEF4480FFEFF022906477E0FFEF547FFFEFF0228B938A838982E0759300FF2244
:406E00008B938A838982EDF075930022126EAC1259EE126D7C22904308E0FFEF5420FF227B027A657946126CD7227B027A657944126CD7227B027A647946126CD7227B0205
:406E40007A407980126CD722904082E0FFEF5407FF227B027A417900126CD722904102E0FFEF5407FF229044C07410F0229044C87410F022900242E0FF22906567E0FF2279
:406E8000906565E0FF22906467E0FF22126C1022126DD022126BFB22126DB822126C2522126DE822126B6022126EA422126B7722124923223232322222222222222200003A
:406EC0000000000000000000000000000000000000000000000000000000000000000000000000000000000000000000000000000000000000000000000000000000000092
:406F00000000000000000000000000000000000000000000000000000000000000000000000000000000000000000000000000000000000000000000000000000000000051
:406F40000000000000000000000000000000000000000000000000000000000000000000000000000000000000000000000000000000000000000000000000000000000011
:406F800000000000000000000000000000000000000000000000000000000000000000000000000000000000000000000000000000000000000000000000000000000000D1
:406FC0000000000000000000000000000000000000000000000000000000000000000000000000000000000000000000000000000000000000000000000000000000000091
:407000000000000000000000000000000000000000000000000000000000000000000000000000000000000000000000000000000000000000000000000000000000000050
:407040000000000000000000000000000000000000000000000000000000000000000000000000000000000000000000000000000000000000000000000000000000000010
:4070800000000000000000000000000000000000000000000000000000000000000000000000000000000000000000000000000000000000000000000000000000000000D0
:4070C0000000000000000000000000000000000000000000000000000000000000000000000000000000000000000000000000000000000000000000000000000000000090
:40710000000000000000000000000000000000000000000000000000000000000000000000000000000000000000000000000000000000000000000000000000000000004F
:40714000000000000000000000000000000000000000000000000000000000000000000000000000000000000000000000000000000000000000000000000000000000000F
:4071800000000000000000000000000000000000000000000000000000000000000000000000000000000000000000000000000000000000000000000000000000000000CF
:4071C000000000000000000000000000000000000000000000000000000000000000000000000000000000000000000000000000000000000000000000000000000000008F
:40720000000000000000000000000000000000000000000000000000000000000000000000000000000000000000000000000000000000000000000000000000000000004E
