:100000000251BE008F828E83E0540100000070F820
:100010002278FFE4F6D8FD02521C0203DBE864807C
:10002000F8E933E83360110460F0ED33EC33700924
:10003000E8FCE9FDEAFEEBFF220460DED3EB9FEA79
:100040009EE99DE8C2E78CF0C2F795F0400CE8CC41
:10005000F8E9CDF9EACEFAEBCFFB1203A685D0F092
:100060005804700320D5B3E80470075002B2D502DB
:1000700003E592D5EC0460F7E4CCC0E0C398F860E7
:100080003B94186008400DD0E0FB0203BDE4FBFA8E
:10009000C9FC8028E830E406E4C9FBE4CAFCE83087
:1000A000E305E4C9CACBFCE854076010F8C3E913C0
:1000B000F9EA13FAEB13FBEC13FCD8F130F52FC37C
:1000C000E49CFCEF9BFFEE9AFEED99FDD0E0FBEF88
:1000D0004E4D4C701222DB030203E2EC2CFCEF339A
:1000E000FFEE33FEED33FDED30E7EB0203BDEF2B0A
:1000F000FFEE3AFEED39FDD0E0FB50130BBB0003E1
:100100000203E5ED13FDEE13FEEF13FFEC13FC020B
:1001100003BDEC4D6011E8497017ED33EC3304601A
:100120000DE4FCFFFEFD22E933E8330470F802031E
:10013000DB1203A658046009E4CC24815006285041
:10014000090203E52840030203E2C0E0EB4A7044E1
:10015000B98006D0E0FB0203D1EF4E701CBD8008D1
:10016000EBFFEAFEE9FD80EBE98DF0A4FEE5F0028D
:1001700001FBE9CDF9EAFEEBFFEF89F0A4FCE5F025
:10018000CE89F0A42EFFE435F0CD89F0A42DFEE455
:1001900035F08067EF4E7005BD80D780C3EF8BF0E0
:1001A000A4ACF0EE8BF0A42CFCE435F0F8EF8AF070
:1001B000A42CE5F038FCE433CB8DF0A42CFCE5F066
:1001C0003BF8EE8AF0A42CFCE5F038F8E433CF8954
:1001D000F0A42CFCE5F038CF3400CE89F0A42FFF3A
:1001E000E5F03EFEE433C98DF0A42EFEE5F039CDF6
:1001F0008AF0A42FFFE5F03EFEE43DFD33D0E0FBA6
:1002000050070BBB000F0203E5EC2CFCEF33FFEEB5
:1002100033FEED33FD0203BD0203E5EC5D04600532
:10022000E8590470030203DB1203A6580460F6ECDD
:100230004860F2EC7004FDFEFF22C860DB2481C838
:100240005009C398600250060203E29850CAF58232
:10025000E9294B4A7005AB820203D175F0007C1A84
:100260007880C3EF9BEE9AED99400DC3EF9BFFEEB4
:100270009AFEED99FDE842F0DC23ACF0D0E0FFD02F
:10028000E0FED0E0FDAB8220E7101BEB60BAEC2C67
:10029000FCEF33FFEE33FEED33FD0203BDE803F860
:1002A00030E705C0F075F000EF2FFFEE33FEED33C1
:1002B000FD40B830E7C280AA74F8CC6480CCC86432
:1002C00080C8F58204604FC3EB9FF5F0EA9E42F0D0
:1002D000E99D42F0E89C45F0603C501DE5825FFFDF
:1002E000E582D313CB5BCBF42B5582FB50280ABAA3
:1002F000002409B9002008801DE5825BFBE582D35C
:1003000013CF5FCFF4C3132F5582FF50090EBE00E9
:10031000050DBD00010CC3EB9FF5F0EA9E42F0E92C
:100320009D42F0E89C45F06007CC4820E701B3EC23
:100330002275F020800E75F010800575F0087D00A4
:100340007E007F003392D530D503120615EC334082
:1003500010EF33FFEE33FEED33FDEC33FCD5F0ED63
:1003600022E5F0247EA2D513CC92E7CDCEFF22ED7C
:10037000D2E7CD33EC3392D524814006E4FFFEFD75
:10038000FC22FCE4CFCECDCC24E0501174FF80EDF4
:10039000C3CC13CCCD13CDCE13CECF13CF0470F07E
:1003A00030D5DE020615E9D2E7C933E833F892D535
:1003B000EDD2E7CD33EC33FC5002B2D522EC30E77E
:1003C000100FBF000C0EBE00080DBD00040BEB604B
:1003D00014A2D5EB13FCED92E7FD2274FFFCFDFEA9
:1003E000FF22E480F8A2D574FF13FC7D80E480EF47
:1003F000BB010689828A83E0225002E722BBFE020B
:10040000E32289828A83E49322BB010689828A835C
:10041000F0225002F722BBFE01F322BC000BBE000B
:1004200029EF8DF084FFADF022E4CCF875F008EFF1
:100430002FFFEE33FEEC33FCEE9DEC984005FCEE16
:100440009DFE0FD5F0E9E4CEFD22EDF8F5F0EE8447
:1004500020D21CFEADF075F008EF2FFFED33FD400C
:1004600007985006D5F0F222C398FD0FD5F0EA2286
:10047000C5F0F8A3E028F0C5F0F8E5821582700217
:100480001583E038F022BB010A89828A83E0F5F007
:10049000A3E022500687F009E71922BBFE07E3F527
:1004A000F009E3192289828A83E493F5F0740193B9
:1004B00022BB010A89828A83F0E5F0A3F02250066C
:1004C000F709A7F01922BBFE06F3E5F009F319229C
:1004D000EF2BFFEE3AFEED39FDEC38FC22C3EF9B2B
:1004E000FFEE9AFEED99FDEC98FC22E88FF0A4CC8B
:1004F0008BF0A42CFCE98EF0A42CFC8AF0EDA42C4B
:10050000FCEA8EF0A4CDA8F08BF0A42DCC3825F019
:10051000FDE98FF0A42CCD35F0FCEB8EF0A4FEA904
:10052000F0EB8FF0A4CFC5F02ECD39FEE43CFCEA11
:10053000A42DCE35F0FDE43CFC2275F00875820058
:10054000EF2FFFEE33FECD33CDCC33CCC58233C598
:10055000829BED9AEC99E58298400CF582EE9BFE29
:10056000ED9AFDEC99FC0FD5F0D6E4CEFBE4CDFA84
:10057000E4CCF9A88222B800C1B90059BA002DEC28
:100580008BF084CFCECDFCE5F0CBF97818EF2FFFC0
:10059000EE33FEED33FDEC33FCEB33FB10D7039968
:1005A0004004EB99FB0FD8E5E4F9FA227818EF2F15
:1005B000FFEE33FEED33FDEC33FCC933C910D70534
:1005C0009BE99A4007EC9BFCE99AF90FD8E0E4C953
:1005D000FAE4CCFB2275F010EF2FFFEE33FEED3383
:1005E000FDCC33CCC833C810D7079BEC9AE89940B0
:1005F0000AED9BFDEC9AFCE899F80FD5F0DAE4CD12
:10060000FBE4CCFAE4C8F922EF4BFFEE4AFEED49D9
:10061000FDEC48FC22C3E49FFFE49EFEE49DFDE464
:100620009CFC22EB9FF5F0EA9E42F0E99D42F0E847
:100630009C45F022E8600FECC313FCED13FDEE13B4
:10064000FEEF13FFD8F122E8600FEFC333FFEE3364
:10065000FEED33FDEC33FCD8F122E0FCA3E0FDA37A
:10066000E0FEA3E0FF22E0F8A3E0F9A3E0FAA3E0B4
:10067000FB22ECF0A3EDF0A3EEF0A3EFF022A42513
:1006800082F582E5F03583F58322E0FBA3E0FAA34F
:10069000E0F922EBF0A3EAF0A3E9F022E493FB7483
:1006A0000193FA740293F922D083D082F8E4937014
:1006B00012740193700DA3A393F8740193F58288CB
:1006C00083E4737402936860EFA3A3A380DFE50C57
:1006D0002582F582E50B3583F583B50B0485820C05
:1006E0002210AF0685820CF50B2285820CF50BD209
:1006F000AF22EC8EF0A4CCC5F0CCCDF8EFA4CEC5E3
:10070000F02DFDE43CFCE8A42EC8C5F03DFDE43C22
:10071000FCEFA4FFE5F028FEE43DFDE43CFC22E70D
:1007200009F608DFFA8046E709F208DFFA803E881A
:10073000828C83E709F0A3DFFA8032E309F608DF51
:10074000FA806EE309F208DFFA806688828C83E320
:1007500009F0A3DFFA805A89828A83E0A3F608DFD2
:10076000FA804E89828A83E0A3F208DFFA80428011
:10077000D280FA80C680D4805580F2802980108093
:10078000A680EA809A80A880DA80E280CA802988E0
:10079000848C8589828A83E493A30586F0A30586E9
:1007A000DFF5DEF3800B89828A83E493A3F608DF0A
:1007B000F9ECFAA9F0EDFB2288848C8589828A8382
:1007C000E0A30586F0A30586DFF6DEF480E38982E8
:1007D0008A83E493A3F208DFF980D688F0EF600102
:1007E0000E4E60CD88F0ED2402B4040050C3F582B3
:1007F000EB2402B4040050B9232345822390076FF1
:1008000073C0E0C0F0C083C082C085C084C086755C
:100810008600C093759300C0D075D000C000C001A1
:10082000C002C003C004C005C006C0077F04127622
:10083000EC900393E004F0900393E0FFEFD3943B3C
:100840005003020DFB900394E004F0900393E4F056
:10085000900394E0FFEFD3943B5003020D549003B8
:1008600095E004F0900394E4F0900395E0FFEFD35B
:1008700094175003020C84900397E004F0900395C2
:10088000E4F0900398E475F001120470900396E090
:1008900004F0900396E0FFEFD39407400690039690
:1008A0007401F090038FE0FFEF5402FF7E00EF4EE3
:1008B000602C90039AE0FFEFB4022390039AE0FFCC
:1008C000EF90EE3B93FF7E00EF2401FFEE3400FE3D
:1008D000900397E0FD7C00D3ED9FEC9E5058900371
:1008E0008FE0FFEF5402FF7E00EF4E601F90039AEF
:1008F000E0FFEF6402601590039AE0FFEF90EE3B9B
:1009000093FF900397E0FEEED39F502A90038FE071
:10091000FFEF5402FF7E00EF4E6003020B219003B5
:100920009AE0FFEF90EE3B93FF900397E0FEEED34B
:100930009F5003020B2190039AE004F090039774F8
:1009400001F090039AE0FFEFD3940C5003020A7A6F
:1009500090039BE475F00112047090039A7401F007
:10096000900398E4F0A37401F090039BE0FEA3E0F1
:10097000FF7C017D9012041BED4C602590039BE0F1
:10098000FEA3E0FF7E00EF5403FFEF4E70179003CD
:100990009BE0FEA3E0FF7C007D6412041BED4C6035
:1009A000047F0180027F00EFB4011090038FE0FF0D
:1009B000EF4402FF90038FEFF0800E90038FE0FF73
:1009C000EF54FDFF90038FEFF090039DE0FFEF5495
:1009D00080FF7E00EF64804E70047F0180027F0004
:1009E000EF603690039BE0FEA3E0FF90038DE0FCF8
:1009F000A3E0FDEDB50714ECB50610900390E0FF01
:100A0000EF4480FF900390EFF0800E900390E0FFA2
:100A1000EF547FFF900390EFF090039DE0FF90066E
:100A200084EFF0900684E0FFEF6032900684E0FFF0
:100A3000900390E0FEEE5FFF900684E0FEEFB506C7
:100A4000047F0180027F00EF601390038FE0FFEFCF
:100A50004408FF90038FEFF0900390E4F09003922E
:100A6000E0FFEF5440FF7E00EF64404E70047F01D2
:100A700080027F00EF600312849290039DE0FFEFFD
:100A80005440FF7E00EF64404E70047F0180027F7F
:100A900000EF602C90039AE0FF90038CE0FEEEB52F
:100AA0000710900390E0FFEF4440FF900390EFF0B9
:100AB000800E900390E0FFEF54BFFF900390EFF0A3
:100AC00090039DE0FF900684EFF0900684E0FFEF36
:100AD0006032900684E0FF900390E0FEEE5FFF90AE
:100AE0000684E0FEEFB506047F0180027F00EF6020
:100AF0001390038FE0FFEF4408FF90038FEFF09017
:100B00000390E4F0900392E0FFEF5420FF7E00EFAB
:100B100064204E70047F0180027F00EF6003128426
:100B20009190039DE0FFEF5408FF7E00EF64084EB4
:100B300070047F0180027F00EF602C900396E0FF3D
:100B4000900388E0FEEEB50710900390E0FFEF44BD
:100B500008FF900390EFF0800E900390E0FFEF54B9
:100B6000F7FF900390EFF090039DE0FFEF5420FF1C
:100B70007E00EF64204E70047F0180027F00EF60F2
:100B800036900398E0FEA3E0FF90038AE0FCA3E028
:100B9000FDEDB50714ECB50610900390E0FFEF44AF
:100BA00020FF900390EFF0800E900390E0FFEF5451
:100BB000DFFF900390EFF090039DE0FFEF5410FFF4
:100BC0007E00EF64104E70047F0180027F00EF60B2
:100BD0002C900397E0FF900389E0FEEEB50710909C
:100BE0000390E0FFEF4410FF900390EFF0800E9031
:100BF0000390E0FFEF54EFFF900390EFF090039D20
:100C0000E0FF900684EFF0900684E0FFEF60329002
:100C10000684E0FF900390E0FEEE5FFF900684E024
:100C2000FEEFB506047F0180027F00EF60139003A2
:100C30008FE0FFEF4408FF90038FEFF0900390E404
:100C4000F0900392E0FFEF5408FF7E00EF64084E3F
:100C500070047F0180027F00EF6003127B739003BA
:100C600096E0FFEFB4011D900392E0FFEF5410FFF8
:100C70007E00EF64104E70047F0180027F00EF6001
:100C800003128490900395E0FFEFC3940C501090F2
:100C9000038FE0FFEF54FBFF90038FEFF0800E9087
:100CA000038FE0FFEF4404FF90038FEFF090039D6C
:100CB000E0FFEF5404FF7E00EF64044E70047F01F8
:100CC00080027F00EF602C900395E0FF900387E0A7
:100CD000FEEEB50710900390E0FFEF4404FF900391
:100CE00090EFF0800E900390E0FFEF54FBFF900335
:100CF00090EFF090039DE0FF900684EFF090068463
:100D0000E0FFEF6032900684E0FF900390E0FEEE9B
:100D10005FFF900684E0FEEFB506047F0180027F4E
:100D200000EF601390038FE0FFEF4408FF90038F04
:100D3000EFF0900390E4F0900392E0FFEF5404FF93
:100D40007E00EF64044E70047F0180027F00EF603C
:100D500003127B4390039DE0FFEF5402FF7E00EF00
:100D600064024E70047F0180027F00EF602C9003CC
:100D700094E0FF900386E0FEEEB50710900390E04C
:100D8000FFEF4402FF900390EFF0800E900390E09D
:100D9000FFEF54FDFF900390EFF090039DE0FF9074
:100DA0000684EFF0900684E0FFEF6032900684E066
:100DB000FF900390E0FEEE5FFF900684E0FEEFB54B
:100DC00006047F0180027F00EF601390038FE0FF35
:100DD000EF4408FF90038FEFF0900390E4F090034E
:100DE00092E0FFEF5402FF7E00EF64024E70047F3A
:100DF0000180027F00EF60031274BB90039DE0FF4F
:100E0000EF5401FF7E00EF64014E70047F01800209
:100E10007F00EF602C900393E0FF900385E0FEEEEF
:100E2000B50710900390E0FFEF4401FF900390EFAF
:100E3000F0800E900390E0FFEF54FEFF900390EFE0
:100E4000F090039DE0FF900684EFF0900684E0FFB1
:100E5000EF6032900684E0FF900390E0FEEE5FFFCB
:100E6000900684E0FEEFB506047F0180027F00EF6C
:100E7000601390038FE0FFEF4408FF90038FEFF0C3
:100E8000900390E4F0900392E0FFEF5401FF7E00A6
:100E9000EF64014E70047F0180027F00EF60031257
:100EA00071A7D007D006D005D004D003D002D0015E
:100EB000D000D0D0D093D086D084D085D082D083BB
:100EC000D0F0D0E03290042AEFF0900432E4F0A3A6
:100ED000E4F090042BE4F090042BE0FFEFC39409BE
:100EE0004003020F8490042BE0FFEF75F00BA42465
:100EF00047F582E43402F583E4F090042BE0FFEF41
:100F000075F00BA42449F582E43402F583E4F090F3
:100F1000042BE0FFEF75F00BA42448F582E43402C3
:100F2000F583E4F090042BE0FFEF75F00BA4244A66
:100F3000F582E43402F583E4F090042BE0FFEF75D2
:100F4000F00BA4244CF582E43402F583E4F0900421
:100F50002BE0FFEF75F00BA4244FF582E43402F58B
:100F600083E4F0A3E4F090042BE0FFEF75F00BA412
:100F70002451F582E43402F583E4F090042BE0047C
:100F8000F0020ED790042AE0FFEF603A90042DE4BF
:100F9000F090042DE0FFEFC39402502A90042DE05E
:100FA000FF74AA2FF582E43402F583E4F090042D57
:100FB000E0FF74B92FF582E43402F583E4F0900485
:100FC0002DE004F080CB900242E0FFEFD39400507C
:100FD000030213EE900242E0FFEF14FF127314902D
:100FE0000434EEF0A3EFF0900434E0FEA3E0FF8FB2
:100FF000828E83A312069C90042F12069390042FD6
:1010000012068AE92407F9EA3400FA1203F0FFEF26
:101010005440FF7E00EF4E6010900241E0FFEF442D
:1010200001FF900241EFF0800E900241E0FFEF548B
:10103000FEFF900241EFF0900434E0FEA3E0FFEFEA
:101040002404FFEE3400FE900434EEF0A3EFF090A1
:101050000434E0FEA3E0FF8F828E83E493FF9004CC
:101060002BEFF090042D7401F090042DE0FFEFC3FE
:1010700094094003021303900434E0FEA3E0FF8FC1
:10108000828E83A312069CAE02AF01900436EEF06E
:10109000A3EFF090042CE4F090042BE0FF90042CDC
:1010A000E0FEEEC39F40030212FA900436E0FEA376
:1010B000E0FF8F828E83740293FFEF547FFF7E00E8
:1010C00090042DE0FD7C00ED6F7002EC6E60030279
:1010D00012D9900436E0FEA3E0FF8F828E83740461
:1010E00093FE740593FF90042DE0FDED75F00BA4C5
:1010F000244FF582E43402F583E0FCA3E0FDC3ED68
:101100009FEC9E502C900436E0FEA3E0FF8F828E71
:1011100083740493FE740593FF90042DE0FDED7538
:10112000F00BA4244FF582E43402F583EEF0A3EF34
:10113000F0900436E0FEA3E0FF8F828E83E493FFFD
:1011400074AA2FF582E43402F583E0FF900436E0C0
:10115000FCA3E0FD8D828C83740193FEEF6E60032F
:101160000212D9900436E0FEA3E0FF8F828E8374D2
:101170000393FFEF5403FF90042EEFF0900436E04A
:10118000FEA3E0FF8F828E83740293FFEF5480FFF3
:101190007E00EF4E700302121990042DE0FFEF75F0
:1011A000F00BA42448F582E43402F5837401F09036
:1011B000042EE0FFEFB401047F0780027F0D90044E
:1011C0002DE0FEEE75F00BA4244CF582E43402F51C
:1011D00083EFF0900436E0FEA3E0FF8F828E8374ED
:1011E0000693FFEF640A6018900436E0FEA3E0FF68
:1011F0008F828E83740693FFEF6402600302128F66
:1012000090042EE0FFEF6403700302128F90042D10
:10121000E0FF90044CEFF0807690042DE0FFEF7536
:10122000F00BA42448F582E43402F583E4F0900442
:101230002EE0FFEFB401047F0580027F0990042DAA
:10124000E0FEEE75F00BA4244CF582E43402F58345
:10125000EFF0900436E0FEA3E0FF8F828E837406E9
:1012600093FFEF640A6014900436E0FEA3E0FF8F62
:10127000828E83740693FFEFB4021490042EE0FF75
:10128000EF6403600A90042DE0FF90044DEFF090AE
:101290000436E0FEA3E0FF8F828E83740293FF90FA
:1012A000042DE0FEEE75F00BA4244BF582E434022D
:1012B000F583EFF0900436E0FEA3E0FF8F828E838B
:1012C000740393FF90042DE0FEEE75F00BA4244709
:1012D000F582E43402F583EFF0900436E0FEA3E0FB
:1012E000FFEF2407FFEE3400FE900436EEF0A3EF8C
:1012F000F090042CE004F002109890042DE004F02B
:10130000021069900434E0FEA3E0FF8F828E83A375
:1013100012069CAE02AF01900436EEF0A3EFF090FF
:10132000042DE4F090042BE0FF90042DE0FEEEC3CA
:101330009F5053900436E0FEA3E0FF8F828E83E43B
:1013400093FF900436E0FCA3E0FD8D828C83740251
:1013500093FEEE547FFEEE75F00BA42451F582E46B
:101360003402F583EFF0900436E0FEA3E0FFEF24B3
:1013700007FFEE3400FE900436EEF0A3EFF0900489
:101380002DE004F0809E1268839002B6EEF0A3EF89
:10139000F090042B7401F090042BE0FFEFC394094C
:1013A0005049900432E0FEA3E0FF90042BE0FDEDF5
:1013B00075F00BA4244DF582E43402F583EEF0A31E
:1013C000EFF090042BE0FFEF75F00BA4244FF582B3
:1013D000E43402F583E0FEA3E0FF900432EE8FF0E8
:1013E00012047090042BE004F080AC1232A822901A
:1013F0000494E4F07B007A0079009004961206933E
:101400009002ACE4F0A3E4F0906000E0FFEF5480C1
:10141000FF7E00EF64804E60030216C3906001E01F
:10142000FFEF1206A815E500143506167408169489
:101430000A00001889906003E0FFEFB401351280C4
:101440001890049BEEF0A3EFF090049BE0FEA3E065
:10145000FF8F828E83A312069C9002AE1206939099
:1014600002ACE4F0A37412F0126C1D900494EFF03F
:10147000021889906003E0FFEF6402706B906002D5
:10148000E0FF12731490049BEEF0A3EFF090049B26
:10149000E0FEA3E0FF8F828E83A312069C9002AE33
:1014A0001206939002AE12068AE92403F9EA340088
:1014B000FA1203F0FF7E00EF7F00FE9002AE1206EC
:1014C0008AE92402F9EA3400FA1203F0FD7C00EE06
:1014D0004CFEEF4DFF9002ACEEF0A3EFF0126C1D4E
:1014E000900494EFF0021889906003E0FFEF64032A
:1014F00060030215DA900499E4F07BFF7AED7955E8
:10150000900496120693900499E0FF906002E0FE2A
:10151000EED39F403D90049612068A1203F0FFEF2F
:10152000603090049612068A1203F0FF90049AEF3E
:10153000F090049612068A90049AE0FF7E00E92F4C
:10154000F9EA3EFA900496120693900499E004F0AA
:1015500080B4906002E0FFEFB4EE0C7BFF7AED798F
:10156000D3900496120693906002E0FFEF603090F3
:10157000ED10E493FF906002E0FEEEB507217BFFE3
:101580007AED799A9004961206937B017A03794A50
:10159000124FDD7B017A03794A90049612069390EC
:1015A000049612068A1203F0FFEF70030218899066
:1015B000049612068A1203F0FF7E009002ACEEF051
:1015C000A3EFF090049612068A9002AE12069312D0
:1015D0006C1D900494EFF00218891264F09004944A
:1015E000EFF0021889906000E0FFEF5403FFEF1264
:1015F00006A8163F0015FC02000018899002ACE412
:10160000F0A37402F0906004E0FFEF547FFFEF75E9
:10161000F00BA42449F582E43402F583E0FF900640
:101620001DEFF090061EE4F07B017A06791D900212
:10163000AE120693126C1D900494EFF0021889907C
:1016400002ACE4F0A37402F0900241E0FF90061DAA
:10165000EFF090061EE4F07B017A06791D9002AE51
:10166000120693126C1D900494EFF0021889021870
:10167000890218899002ACE4F0A37401F07B017A2E
:101680000279429002AE120693126C1D900494EF00
:10169000F00218899002ACE4F0A37401F0906004A9
:1016A000E0FF74AA2FF9E43402FA7B019002AE1233
:1016B0000693126C1D900494EFF0021889021889A9
:1016C000021889906001E0FFEF1206A81767011861
:1016D000020316DF0516F40917140B000018899091
:1016E0006002E0FF9002BBEFF012804D900494EF97
:1016F000F0021889906002E0FF900242EFF0900241
:10170000B87401F07F01120EC512804D900494EF61
:10171000F00218891260ADEF70030218899060041E
:10172000E0FF900495EFF0900495E0FF9002B4EF95
:10173000F09002B87401F012188F900495E0FF74D5
:10174000AA2FF582E43402F583E0FF900495E0FED1
:1017500074B92EF582E43402F583EFF012804D90D7
:101760000494EFF0021889906000E0FFEF5403FF4B
:10177000EF1206A817970017BD0117810200001885
:1017800089906002E0FFEF60030218891240179011
:101790000494EFF0021889906002E0FFEF640160AA
:1017A00003021889900241E0FFEF54FDFF900241CF
:1017B000EFF012804D900494EFF0021889906004CD
:1017C000E0FFEFC394024003021889906004E0FF39
:1017D00074BC2FF582E43402F583C083C082E0FF3D
:1017E000906002E0FEEEF4FEEF5EFFD082D083EF69
:1017F000F012804D900494EFF002188902188902CB
:101800001889906000E0FFEF5403FFEF1206A8185C
:101810002E00185001181C0200001889906002E088
:10182000FFEF7065124DF0900494EFF0805B9060D4
:1018300002E0FFEF64017051900241E0FFEF4402CB
:10184000FF900241EFF012804D900494EFF0803948
:10185000906004E0FFEFC39402502E906004E0FF1C
:1018600074BC2FF582E43402F583C083C082E0FFAC
:10187000906002E0FEEEF4FEEF5EFFD082D083EFD8
:10188000F012804D900494EFF0900494E0FF2290C9
:101890000242E0FFEFD394005003021C709002421A
:1018A000E0FFEF14FF1273149004A2EEF0A3EFF028
:1018B0009004A2E0FEA3E0FFEF2404FFEE3400FE5C
:1018C0009004A2EEF0A3EFF09004A2E0FEA3E0FFEC
:1018D0008F828E83E493FF90049DEFF09004A2E04A
:1018E000FEA3E0FF8F828E83A312069CAE02AF019F
:1018F0009004A4EEF0A3EFF090049FE4F090049D18
:10190000E0FF90049FE0FEEEC39F4003021C709036
:1019100004A4E0FEA3E0FF8F828E83E493FF74B9FA
:101920002FF582E43402F583E0FF9004A4E0FCA3E9
:10193000E0FD8D828C83E493FE74AA2EF582E4345C
:1019400002F583E0FEEE6F7003021C4F9004A4E0EA
:10195000FEA3E0FF8F828E83E493FF74AA2FF582AB
:10196000E43402F583E0FF9004A4E0FCA3E0FD8DE5
:10197000828C83740193FEEF6E6003021C4F90040F
:10198000A4E0FEA3E0FF8F828E83E493FF906004C7
:10199000E0FEEF6E6003021C4F9004A4E0FEA3E0A3
:1019A000FF8F828E83740293FFEF547FFF90049E1B
:1019B000EFF090049EE0FF7E00EF24FFFFEE34FF87
:1019C000FEEFC4F8540FC868FFEEC454F048FE9010
:1019D00004A1EFF09004A4E0FEA3E0FF8F828E83C9
:1019E000740393FFEF5403FF9004A0EFF09004A45E
:1019F000E0FEA3E0FF8F828E83740293FFEF54809A
:101A0000FF7E00EF4E603C90049EE0FFEF75F00B10
:101A1000A42448F582E43402F5837401F09004A014
:101A2000E0FFEFB401047F0780027F0D90049EE089
:101A3000FEEE75F00BA4244CF582E43402F583EF3E
:101A4000F0803990049EE0FFEF75F00BA42448F578
:101A500082E43402F583E4F09004A0E0FFEFB401E7
:101A6000047F0580027F0990049EE0FEEE75F00B76
:101A7000A4244CF582E43402F583EFF09004A1E055
:101A8000FF7E00EF240EFFEE3460FE8F828E8374A3
:101A900001F09004A4E0FEA3E0FF8F828E83740423
:101AA00093FE740593FF90049EE0FDED75F00BA48A
:101AB000244FF582E43402F583EEF0A3EFF09004B6
:101AC000A4E0FEA3E0FF8F828E83740293FF900454
:101AD0009EE0FEEE75F00BA4244BF582E43402F593
:101AE00083EFF09004A4E0FEA3E0FF8F828E837466
:101AF0000393FF90049EE0FEEE75F00BA42447F5DF
:101B000082E43402F583EFF090049EE0FFEF75F07D
:101B10000BA4244AF582E43402F583E4F090049E99
:101B2000E0FFEF75F00BA4244FF582E43402F58357
:101B3000E0FEA3E0FFEEFF7E009004A1E0FEEEFDDC
:101B40007C00ED240CFDEC3460FC8D828C83EFF086
:101B500090049EE0FFEF75F00BA4244FF582E4346F
:101B600002F583E0FEA3E0FFEF54FFFF9004A1E045
:101B7000FEEEFD7C00ED240DFDEC3460FC8D828CCE
:101B800083EFF090049EE0FFEF75F00BA4244DF579
:101B900082E43402F583E0FEA3E0FFEF54FFFF9000
:101BA00004A1E0FEEEFD7C00ED2486FDEC3460FC3B
:101BB0008D828C83EFF090049EE0FFEF75F00BA414
:101BC000244DF582E43402F583E0FEA3E0FFEEFF4E
:101BD0007E009004A1E0FEEEFD7C00ED2487FDEC8C
:101BE0003460FC8D828C83EFF090049EE0FFEF75F3
:101BF000F00BA4244DF582E43402F583E0FEA3E06B
:101C0000FFEF54FFFF9004A1E0FEEEFD7C00ED2409
:101C100084FDEC3460FC8D828C83EFF090049EE0B8
:101C2000FFEF75F00BA4244DF582E43402F583E058
:101C3000FEA3E0FFEEFF7E009004A1E0FEEEFD7C3F
:101C400000ED2485FDEC3460FC8D828C83EFF090F8
:101C500004A4E0FEA3E0FFEF2407FFEE3400FE90B3
:101C600004A4EEF0A3EFF090049FE004F00218FD4E
:101C700022900398E4F0A3E4F0900397E0FF7E0045
:101C8000900398EE8FF012047090039BE0FEA3E0A7
:101C9000FF7C017D9012041BED4C602590039BE0BE
:101CA000FEA3E0FF7E00EF5403FFEF4E701790039A
:101CB0009BE0FEA3E0FF7C007D6412041BED4C6002
:101CC000047F0180027F00EFB4011090038FE0FFDA
:101CD000EF4402FF90038FEFF0800E90038FE0FF40
:101CE000EF54FDFF90038FEFF09005FDE4F09003BB
:101CF0009AE0FF7E00EF24FFFFEE34FFFE9005FD2B
:101D0000E0FD7C00C3ED9FEC9E501E9005FDE0FFC2
:101D1000EF90EE3C93FF7E00900398EE8FF012045C
:101D2000709005FDE004F080C590038FE0FFEF5454
:101D300002FF7E00EF64024E70047F0180027F008C
:101D4000EF601590039AE0FFEFD39402400A9003EE
:101D500098E475F001120470900397E0FF90039AE5
:101D6000E0FD90039BE0FAA3E0FB126150EF04FF5B
:101D7000900396EFF0900396E0FFEFD394004009B4
:101D8000900396E02400F08013900396E0FFEFF4B8
:101D900004FFC374079FFF900396EFF0900395E054
:101DA000FFEFC3940C501090038FE0FFEF54FBFF44
:101DB00090038FEFF0800E90038FE0FFEF4404FF5D
:101DC00090038FEFF090039DE0FFEF5401FF7E0042
:101DD000EF64014E70047F0180027F00EF602C9061
:101DE0000393E0FF900385E0FEEEB50710900390AB
:101DF000E0FFEF4401FF900390EFF0800E9003901E
:101E0000E0FFEF54FEFF900390EFF090039DE0FFA2
:101E1000EF5402FF7E00EF64024E70047F018002E7
:101E20007F00EF602C900394E0FF900386E0FEEECD
:101E3000B50710900390E0FFEF4402FF900390EF8E
:101E4000F0800E900390E0FFEF54FDFF900390EFC1
:101E5000F090039DE0FFEF5404FF7E00EF64044E1A
:101E600070047F0180027F00EF602C900395E0FFFB
:101E7000900387E0FEEEB50710900390E0FFEF447B
:101E800004FF900390EFF0800E900390E0FFEF547A
:101E9000FBFF900390EFF090039DE0FFEF5408FFED
:101EA0007E00EF64084E70047F0180027F00EF60C7
:101EB0002C900396E0FF900388E0FEEEB5071090AB
:101EC0000390E0FFEF4408FF900390EFF0800E9046
:101ED0000390E0FFEF54F7FF900390EFF090039D25
:101EE000E0FFEF5420FF7E00EF64204E70047F017E
:101EF00080027F00EF6036900398E0FEA3E0FF9041
:101F0000038AE0FCA3E0FDEDB50714ECB5061090E4
:101F10000390E0FFEF4420FF900390EFF0800E90DD
:101F20000390E0FFEF54DFFF900390EFF090039DEC
:101F3000E0FFEF5410FF7E00EF64104E70047F014D
:101F400080027F00EF602C900397E0FF900389E010
:101F5000FEEEB50710900390E0FFEF4410FF9003F2
:101F600090EFF0800E900390E0FFEF54EFFF9003AE
:101F700090EFF090039DE0FFEF5440FF7E00EF6490
:101F8000404E70047F0180027F00EF602C90039A26
:101F9000E0FF90038CE0FEEEB50710900390E0FFA9
:101FA000EF4440FF900390EFF0800E900390E0FF2D
:101FB000EF54BFFF900390EFF090039DE0FFEF54CC
:101FC00080FF7E00EF64804E70047F0180027F00FE
:101FD000EF603690039BE0FEA3E0FF90038DE0FCF2
:101FE000A3E0FDEDB50714ECB50610900390E0FFFB
:101FF000EF4480FF900390EFF0800E900390E0FF9D
:10200000EF547FFF900390EFF090039DE0FF900569
:10201000FEEFF09005FEE0FFEF60329005FEE0FF7E
:10202000900390E0FEEE5FFF9005FEE0FEEFB50648
:10203000047F0180027F00EF601390038FE0FFEFC9
:102040004408FF90038FEFF0900390E4F022900596
:10205000157410F0900317E0FFEF64017051904089
:1020600005E0FFEF54F0FF7E00EEC4F854F0C868BE
:10207000FEEFC4540F48FFEF04FFAB07E4FAF9F892
:10208000904200E0FFEF5407FFEF90EE6493FFE40F
:10209000FCFDFE1205767B4B7A0079007800120475
:1020A000EB127A0090400BE0FFEF4404FFEFF0905A
:1020B0000316E0FFEF640160030221497F0012551F
:1020C00053904210E0FF900516E4F0A37405F090E1
:1020D0000516E0FEA3E0FFD3EF9400EE9400406904
:1020E000904005E0FFEF54F0FF7E00EEC4F854F09E
:1020F000C868FEEFC4540F48FFEF04FFAB07E4FAD3
:10210000F9F8904200E0FFEF5407FFEF90EE649380
:10211000FFE4FCFDFE1205767BC87A0079007800AA
:102120001204EB127A00904210E0FFEF5480FF7E21
:1021300000EF4E7007900515E4F0800D90051674C1
:10214000FF75F0FF12047080867F2D126F5E900382
:102150000AE0FFEF6402600990030AE0FFEFB403B6
:102160001E900312E0FF904004E0FEEE6F600890C6
:102170000312E0FF12823A90030AE0FF127EF2900F
:10218000030CE0FFEF5440FF7E00EF4E601690031B
:102190000BE0FFEF90EE6B93FFEFB403077F0812A5
:1021A0003E99803590030BE0FFEF90EE6B93FF12AA
:1021B0003E9990030CE0FFEF5440FF7E00EF4E602D
:1021C0000D904200E0FFEF4440FFEFF0800B9042A3
:1021D00000E0FFEF54BFFFEFF090030EE0FFEFB41D
:1021E00001149043A0E0FFEF5410FF7E00EF4E700B
:1021F000057F001268FC90030EE0FFEF7012904321
:10220000A0E0FFEF5410FF7E00EF4E60031280CA83
:1022100090030FE0FF12725E900311E0FFEFB40134
:1022200003128331904000E0FFEF5430FF7E0090B6
:102230000310E0FD7C00ED6F7002EC6E60169040C4
:1022400000E0FFEF54CFFF900310E0FEEF4EFF9051
:102250004000EFF0900315E0FFEF6401704B7F004A
:10226000126009904005E0FFEF54F0FF7E00EEC4DD
:10227000F854F0C868FEEFC4540F48FFEF04FFABFA
:1022800007E4FAF9F8904200E0FFEF5407FFEF90FF
:10229000EE6493FFE4FCFDFE1205767BFA7A00798A
:1022A0000078001204EB127A0090030AE0FFEF605E
:1022B0000990030AE0FFEFB4011E900312E0FF90C3
:1022C0004004E0FEEE6F6008900312E0FF12823AD5
:1022D00090030AE0FF127EF2904007E0FF7E00EFDD
:1022E0007F00FE900518EEF0A3EFF0900518E0FED9
:1022F000A3E0FF904006E0FD7C00EE4CFEEF4DFFBA
:10230000900518EEF0A3EFF0900518E0FEA3E0FFB3
:10231000900313E0FCA3E0FDED6F7002EC6E600B28
:10232000900313E0FEA3E0FF12595B904800E0FF2A
:10233000EF543FFF90030DE0FEEF4EFF904800EF9B
:10234000F0900308E0FF9043A1EFF0900309E0FF55
:102350009043A2EFF0229000001206939000031227
:10236000068AAF01AE02AD037C009001191206721D
:1023700090011912065AEF54FFFFEE54FFFEED5480
:1023800000FDEC5400FC900119120672900003123B
:10239000068AAF01AE02AD037C007B007A0079FFB4
:1023A0007800D312062340030225DC9000031206B6
:1023B0008AAF01AE02AD037C00A804A905AA06AB52
:1023C00007900006E0FEA3E0FFE4FCFD1204D07BD2
:1023D000FF7AFF79FF7800C312062350030225DC41
:1023E000127F6D7B017A0179211271497B007A009D
:1023F0007901780090011912065A120576900108A9
:102400001206727B007A0179007800900119120699
:102410005A120576EF54FFFFEE5400FEED5400FD16
:10242000EC5400FC90010C1206727F007E017D00CE
:102430007C0090010C1206661204EBC004C005C0BB
:1024400006C0077F007E007D017C00900108120617
:10245000661204EBA804A905AA06AB07D007D006AC
:10246000D005D0041204D090011D1206727F007EA8
:10247000007D007C00900114120672900118E4F0B7
:10248000900006E0FEA3E0FFE4FCFD9001141206BC
:1024900066C312062340030225CF900118E0FFEF28
:1024A00060030225CF7F007E007D007C009001103C
:1024B00012067290011012065AC3EE9401400302F4
:1024C000259390011912065A90011D120666C31237
:1024D0000623405B900006E0FEA3E0FFE4FCFD90D5
:1024E0000114120666C3120623504490011412060A
:1024F0005A90000012068AE92FF9EA3EFAEB3DFBFA
:102500001203F0FB90011012065A74082FF582E4B2
:102510003400F583EBF090011412065A7B017A0027
:10252000790078001204D090011412067280339062
:10253000011D12065AEF2400FFEE3400FEED3410A8
:10254000FDEC3400FCA907AA06AB051283C1AB075A
:1025500090011012065A74082FF582E43400F583B6
:10256000EBF090011D12065A7B017A007900780089
:102570001204D090011D12067290011012065A7BAF
:10258000017A00790078001204D0900110120672CE
:102590000224B390010812065AC00790010C1206DB
:1025A0005AAD07AC067B017A007908D0071244685F
:1025B000900118EFF090010C12065A7B017A007915
:1025C0000078001204D090010C1206720224809050
:1025D0004800E0FFEF4406FFEFF08006900118741A
:1025E00001F0900118E0FFEF6010900118E0FFEF9C
:1025F0006401600690011874FFF0900118E0FF225A
:1026000090046712069390046AEDF090046BE4F076
:10261000A3E4F090046DE4F0A3E4F090046FE4F020
:102620009003A0E0FEA3E0FF9003B2E0FCA3E0FD76
:10263000C3ED9FFFEC9EFE90046DEEF0A3EFF090D3
:10264000046DE0FEA3E0FFC3EE6480948050189018
:10265000046DE0FEA3E0FFEF24A8FFEE3461FE90DE
:10266000046DEEF0A3EFF090046AE0FF7E009004AA
:102670006DE0FCA3E0FDC3ED9FEE6480F8EC6480A8
:102680009850219003A0E0FEA3E0FF9003B2E0FC8D
:10269000A3E0FDED6F7002EC6E600990046F7401B1
:1026A000F002284A90046AE0FF7E009003A0E0FC5C
:1026B000A3E0FDEF2DFFEE3CFED3EF94A8EE946176
:1026C000506C90046712068AC003C002C0019003D8
:1026D000A0E0FEA3E0FF74582FF9748B3EFA7BFF55
:1026E00090000312069390046AE0FF7E00900006BB
:1026F000EEF0A3EFF0D001D002D0031223569004E5
:102700006AE0FF7E009003A0EE8FF0120470900349
:10271000A0E0FEA3E0FFEF64A87003EE6461600335
:102720000227EF9003A0E4F0A3E4F00227EF900368
:10273000A0E0FEA3E0FFC374A89FFF74619EFE901B
:10274000046DEEF0A3EFF090046712068AC003C098
:1027500002C0019003A0E0FEA3E0FF74582FF974BB
:102760008B3EFA7BFF90000312069390046DE0FE0F
:10277000A3E0FF900006EEF0A3EFF0D001D002D06E
:102780000312235690046712068A90046DE0FEA39C
:10279000E0FFE92FF9EA3EFAC003C002C0017BFF67
:1027A0007A8B795890000312069390046AE0FF7EBA
:1027B0000090046DE0FCA3E0FDC3EF9DFFEE9CFEE6
:1027C000900006EEF0A3EFF0D001D002D003122368
:1027D0005690046AE0FF7E0090046DE0FCA3E0FDEB
:1027E000C3EF9DFFEE9CFE9003A0EEF0A3EFF07B05
:1027F000017A0379A0C003C002C0019003A2E0FEE9
:10280000A3E0FFEF25E0FFEE33FE74932FF974840D
:102810003EFA7BFF900003120693900006E4F0A3BB
:102820007402F0D001D002D0031223569003B2E01C
:10283000FEA3E0FF9003A0E0FCA3E0FDEDB5070AD6
:10284000ECB5060690046F7401F090046FE0FF226F
:1028500090054FEFF0900550ECF0A3EDF01281BC25
:10286000900552EFF0904393E0FFEF5408FF7E0095
:10287000EF4E700D904683E0FFEF541FFFEFF080A6
:1028800009900552E0FF1280B2229046ECE0FFEF83
:10289000C39405501A904689E0FFEF5401FF7E0073
:1028A000EF4E7003D38001C340057F0012817D90FD
:1028B00046F5E0FFEF5407FF7E00EF4E603990468B
:1028C000ECE0FFEFC3940550077F0012817D802765
:1028D000904689E0FFEF5401FF7E00EF4E701290AA
:1028E000031EE4F0904689E0FFEF4401FFEFF08023
:1028F0000690031E7401F0122A7790054FE0FFEF57
:10290000C39402402A90054FE0FFEFD3940D501F6F
:1029100090054FE0FFEF14FF126971900550E0FE43
:10292000A3E0FFEE4408FE900550EEF0A3EFF09018
:10293000054FE0FFEFB40117127D36900550E0FE21
:10294000A3E0FFEE4408FE900550EEF0A3EFF090F8
:102950004398E0FF90031FEFF0900550E0FEA3E0E6
:10296000FFEEC4F854F0C868FEEFC4540F48FF905F
:102970004398EFF0904399E0FF900320EFF090052B
:1029800050E0FEA3E0FFEF540FFF904399EFF0906B
:10299000439AE0FF900321EFF0900550E0FEA3E0A2
:1029A000FFEEC4540FFF7E00EF5401FF90439AEFF7
:1029B000F0904200E0FFEF5407FF7E00EF4E7008FA
:1029C0009003487401F0801E900348E4F0904200A8
:1029D000E0FFEF5407FF900347EFF0904200E0FF65
:1029E000EF54F8FFEFF0904393E0FFEF54F8FFEF60
:1029F0004403FF904393EFF0904393E0FF00000007
:102A0000900348E0FFEF64016016904200E0FFEFA2
:102A100054F8FF900347E0FEEF4EFF904200EFF0C6
:102A20001245C89046F5E0FFEF5407FF7E00EF4ED9
:102A3000601E9046ECE0FFEFC39405401390031E28
:102A4000E0FFEF700B904689E0FFEF54FEFFEFF0E0
:102A500090031FE0FF904398EFF0900320E0FF9079
:102A60004399EFF0900321E0FF90439AEFF0900537
:102A700052E0FF1280B222905A00E0FF900324EF50
:102A8000F0905A02E0FF900325EFF0905A03E0FF28
:102A9000900326EFF0905A04E0FF900327EFF090A8
:102AA0005A06E0FF900328EFF0905A08E0FF9003E9
:102AB00029EFF0905A0AE0FF90032AEFF0905A10A5
:102AC000E0FF90032BEFF0905A12E0FF90032CEF01
:102AD000F0905A13E0FF90032DEFF0905A14E0FFAE
:102AE00090032EEFF0905A16E0FF90032FEFF09036
:102AF0005A18E0FF900330EFF0905A1AE0FF90036D
:102B000031EFF0905A20E0FF900332EFF0905A221C
:102B1000E0FF900333EFF0905A23E0FF900334EF8F
:102B2000F0905A24E0FF900335EFF0905A26E0FF32
:102B3000900336EFF0905A28E0FF900337EFF090C3
:102B40005A2AE0FF900338EFF0905A30E0FF9003EC
:102B500039EFF0905A32E0FF90033AEFF0905A3399
:102B6000E0FF90033BEFF0905A34E0FF90033CEF1E
:102B7000F0905A36E0FF90033DEFF0905A38E0FFB6
:102B800090033EEFF0905A3AE0FF90033FEFF09051
:102B90005A00E4F0905A02E4F0905A03E4F0905A9C
:102BA00004E4F0905A06E4F0905A08E4F0905A0ACF
:102BB000E4F0905A10E4F0905A12E4F0905A13E4C2
:102BC000F0905A14E4F0905A16E4F0905A18E4F099
:102BD000905A1AE4F0905A20E4F0905A22E4F090CF
:102BE0005A23E4F0905A24E4F0905A26E4F0905AE4
:102BF00028E4F0905A2AE4F0905A30E4F0905A32E7
:102C0000E4F0905A33E4F0905A34E4F0905A36E409
:102C1000F0905A38E4F0905A3AE4F09046E8E0FF39
:102C2000EF5404FF7E00EF4E603390031C7401F0FC
:102C300090500BE0FFEF540EFF90031DEFF090500B
:102C40000BE0FFEF54F1FFEF440CFF90500BEFF05F
:102C50009046E8E0FFEF54FBFFEFF0800590031C87
:102C6000E4F0904322E0FFEF5408FF7E00EF4E6057
:102C7000129003497401F0904322E0FFEF54F7FFF4
:102C8000EFF022900349E4F0229043A1E0FFEF54DB
:102C90000FFF900308EFF09043A2E0FF900309EFCD
:102CA000F09043A1E0FFEF54F0FFEFF09043A2E07B
:102CB000FFEF5400FFEFF0904800E0FFEF54C0FF3B
:102CC00090030DEFF07F2D126F5E904200E0FFEF5A
:102CD0005407FF90030BEFF0904200E0FFEF5440E9
:102CE000FF90030CEFF0904200E0FFEF5410FF7EE6
:102CF00000EF4E60089003117401F08005900311FD
:102D0000E4F07F04123E999043A0E0FFEF5410FFDF
:102D10007E00EF4E600890030E7401F0800A90036D
:102D20000EE4F07F001268FC904200E0FFEF5420B8
:102D3000FF7E00EF4E6021904000E0FFEF5440FF27
:102D40007E00EF4E70047F0280027F0190030FEF40
:102D5000F07F0012725E800590030FE4F090400057
:102D6000E0FFEF5430FF900310EFF0900310E0FF0E
:102D7000EF600B904000E0FFEF54CFFFEFF0904288
:102D800000E0FFEF5410FF7E00EF4E600312833D22
:102D9000904004E0FF900312EFF0900312E0FFEF89
:102DA00060057F0012823A904005E0FFEF5403FF78
:102DB00090030AEFF090030AE0FFEF60057F001236
:102DC0007EF2904007E0FF7E00EF7F00FE9003134D
:102DD000EEF0A3EFF0900313E0FEA3E0FF904006B7
:102DE000E0FD7C00EE4CFEEF4DFF900313EEF0A3F0
:102DF000EFF0900313E0FEA3E0FFEF4E60077F00CB
:102E00007E0012595B904005E0FFEF54F0FF7E001A
:102E1000EEC4F854F0C868FEEFC4540F48FFEF0446
:102E2000FFAB07E4FAF9F8904200E0FFEF5407FF28
:102E3000EF90EE6493FFE4FCFDFE120576126F5EE8
:102E4000904220E0FFEF5401FF7E00EF4E600B90B8
:102E500003157401F01283258005900315E4F090AA
:102E60004210E0FFEF5401FF7E00EF4E600B900335
:102E7000167401F012836D8005900316E4F0904003
:102E80000BE0FFEF5404FF7E00EF4E600790031746
:102E90007401F022900317E4F0227F007E007D0091
:102EA0007C00900372120672900376E4F0A3E4F0C3
:102EB00090037EE4F07F007E007D407C4090037FA5
:102EC0001206729003837420F07B007A0079807878
:102ED0004190037F12065A12021B1250CF900372C8
:102EE00012067290037212065A12036FEFC4F8545E
:102EF0000FC868FFEEC454F048FE125627AA06A970
:102F0000077B0190036F12069390036F12068A905D
:102F1000037B1206937F007E007D807C41900372CC
:102F20001206661201127B007A00794078C0120006
:102F30002112036F900376EEF0A3EFF090037EE48E
:102F4000F090037EE0FFEFC39403503190037EE0E6
:102F5000FF7E00EF2400FFEE3480FE8F828E83E040
:102F6000FF90037B12068AEF12040990037CE4753C
:102F7000F00112047090037EE004F080C490037EA0
:102F8000E0FF7E00900376E0FCA3E0FDC3EF9DEE42
:102F90009C501290037B12068AE412040990037E6F
:102FA000E004F080D890036CE0FF90036F12068A73
:102FB000EF12040990036DE0FF90036F12068AE997
:102FC0002401F9EA3400FAEF12040990036EE0FFDD
:102FD00090036F12068AE92402F9EA3400FAEF122C
:102FE00004099044F4E0FFEF4402FFEFF000C2AFA9
:102FF0007F00126605900384EFF0D2AF9044F47422
:10300000FDF0900384E0FFEF60099003837430F0DB
:1030100002309D90037EE4F090036F12068A9003C5
:103020007812069390037EE0FCE412033B90037257
:103030001206661202B86058405690037EE0FFEF19
:10304000C39480504B9044F4E0FFEF4402FFEFF054
:1030500000C2AF90037812068A90037EE0FD124C06
:10306000E6900384EFF0D2AF9044F474FDF0900347
:1030700084E0FFEF60089003837430F0801F9003BA
:1030800079E475F01012047090037EE004F08094EF
:1030900090036F12068AAE02AF0112471F9003839E
:1030A000E0FF229003DBEFF09003DCECF0A3EDF007
:1030B0009003DEEAF0A3EBF09003E1E0FFEFD3949E
:1030C0000050030232A29003E1E0FFEFD3940140ED
:1030D000030232A29003DBE0FFEF1206A830F001FA
:1030E00030F004311D0731480831730A0000319E69
:1030F0009003E0E0FFEFD3940F40117B0C7A01794D
:10310000181283C19003E2EFF00231A37B0C7A0125
:10311000791C1283C19003E2EFF00231A39003E027
:10312000E0FFEFD3940F40107B0C7A0179191283E2
:10313000C19003E2EFF0806B7B0C7A01791D128362
:10314000C19003E2EFF0805B9003E0E0FFEFD394E7
:103150000F40107B0C7A01791A1283C19003E2EFC1
:10316000F080407B0C7A01791E1283C19003E2EF5C
:10317000F080309003E0E0FFEFD3940F40107B0C21
:103180007A01791B1283C19003E2EFF080157B0C6A
:103190007A01791F1283C19003E2EFF0800590035A
:1031A000E2E4F09003E2E0FFEF3395E0FEFDFC7B0C
:1031B000207A00790078001204EBA804A905AA0679
:1031C000AB079003DCE0FEA3E0FFE4FCFD1204D0BB
:1031D0009003E31206729003E312065AAB07AA06A5
:1031E000A905A804A804A905AA06AB079003DEE078
:1031F000FEA3E0FFE4FCFD1204EB9003E91206726B
:103200007B007A80790078009003E912065A120553
:10321000769003E7EEF0A3EFF09003E0E0FFEFC35A
:10322000940E50479003E7E0FEA3E0FF9003E0E038
:10323000FDC3740E9DFDEFA805088005CEC313CE17
:1032400013D8F9FF9003E7EEF0A3EFF09003E0E06E
:10325000FFEF04FF9003E1E0FEEE75F003A4240508
:10326000F582E43404F583EFF080169003E1E0FF8B
:10327000EF75F003A42405F582E43404F583740F9C
:10328000F09003E7E0FEA3E0FF9003E1E0FDED75C1
:10329000F003A42403F582E43404F583EEF0A3EFF5
:1032A000F0227F0012817D2290061F7401F09006AB
:1032B00020E4F0900620E0FFEFC394804003023446
:1032C00096900620E0FF7E00EF2480FFEE3460FE43
:1032D0008F828E83740CF090061FE0FFEF75F00B69
:1032E000A4244CF582E43402F583E0FFEF604F90B4
:1032F000061FE0FFEF75F00BA4244BF582E43402C7
:10330000F583E0FFEF5480FF7E00EF4E60189006DB
:1033100020E0FF7E00EF240EFFEE3460FE8F828EF1
:1033200083740CF0802E900620E0FF7E00EF240EC8
:10333000FFEE3460FE8F828E837408F08016900654
:1033400020E0FF7E00EF240EFFEE3460FE8F828EC1
:10335000837480F090061FE0FFEF75F00BA4244FFC
:10336000F582E43402F583E0FEA3E0FFEEFF7E0089
:10337000900620E0FEEEFD7C00ED240CFDEC3460B8
:10338000FC8D828C83EFF090061FE0FFEF75F00B51
:10339000A4244FF582E43402F583E0FEA3E0FFEFBE
:1033A00054FFFF900620E0FEEEFD7C00ED240DFDB5
:1033B000EC3460FC8D828C83EFF090061FE0FFEF11
:1033C00075F00BA4244DF582E43402F583E0FEA3EE
:1033D000E0FFEF54FFFF900620E0FEEEFD7C00EDE5
:1033E0002486FDEC3460FC8D828C83EFF090061F08
:1033F000E0FFEF75F00BA4244DF582E43402F58371
:10340000E0FEA3E0FFEEFF7E00900620E0FEEEFD72
:103410007C00ED2487FDEC3460FC8D828C83EFF022
:1034200090061FE0FFEF75F00BA4244DF582E43405
:1034300002F583E0FEA3E0FFEF54FFFF900620E0DB
:10344000FEEEFD7C00ED2484FDEC3460FC8D828C6E
:1034500083EFF090061FE0FFEF75F00BA4244DF50D
:1034600082E43402F583E0FEA3E0FFEEFF7E0090ED
:103470000620E0FEEEFD7C00ED2485FDEC3460FCD2
:103480008D828C83EFF090061FE004F0900620E020
:103490002410F00232B390600A74FFF0227B007AAD
:1034A0004679E81283C1EF4401FD7B007A4679E852
:1034B0001283CD750A00E50AC39407503AAF0AEFAC
:1034C00075F005A42419F582E434EEF583AF82AEDD
:1034D000838E088F09AE08AF098F828E8312069CF7
:1034E000AE08AF098F828E83740393FC740493FD3E
:1034F000128099050A80BF7B087A007900127C89C6
:10350000905883740AF07B017A5079031283C1EFDB
:103510004402FD7B017A5079031283CD7B017A50FE
:1035200079131283C1EF4402FD7B017A50791312A3
:1035300083CD9043A0E0FFEF4440FF9043A0EFF025
:103540009043C2E0FFEF4410FF9043C2EFF07B08CE
:103550007A02790CC003C002C0017B007A51790263
:103560009004C3120693D001D002D0037F087E00DE
:10357000127AAE7B087A027914C003C002C0017BC4
:10358000007A5179C29004C3120693D001D002D0C0
:10359000037F087E00127AAE7B087A02791CC00392
:1035A000C002C0017B007A5179F09004C3120693E7
:1035B000D001D002D0037F0A7E00127AAE7B087A57
:1035C000027928C003C002C0017B007A5179329091
:1035D00004C3120693D001D002D0037F087E0012EC
:1035E0007AAE7B087A027930C003C002C0017B004A
:1035F0007A5179629004C3120693D001D002D003AD
:103600007F087E00127AAE9044F47401F090432259
:10361000E0FFEF4408FF904322EFF09046ECE0FF1C
:10362000EFC394055006904689743AF090480074B0
:10363000F1F012485E90480074B1F012799F7B005F
:103640007A4379A0C003C002C0017B007A4379B0FD
:103650009004C3120693D001D002D0037F0E7E00E7
:10366000127AAE9043B0E0FFEF54FDFFEFF02290EE
:103670000451EFF0900452120693900451E0FFEFD2
:10368000D39400500302383B900451E0FFEFC39401
:1036900009400302383B900451E0FF7E00EF24FF15
:1036A000FFEE34FFFEEFC4F8540FC868FFEEC454B9
:1036B000F048FE900457EFF0900457E0FF7E00EFD3
:1036C0002488FFEE3460FE900458EEF0A3EFF090F3
:1036D0000451E0FFEF75F00BA4244DF582E43402B1
:1036E000F583E0FEA3E0FFC3E49FFF74029EFE901B
:1036F0000455E0FCA3E0FDD3ED9FEC9E4028900430
:1037000051E0FFEF75F00BA4244DF582E43402F58F
:1037100083E0FEA3E0FFC3E49FFF74029EFE9004DB
:1037200055EEF0A3EFF0900455E0FEA3E0FFEEFFAE
:103730007E00900451E0FEEE75F00BA4244AF58261
:10374000E43402F583E0FEEF4EFF900457E0FEEE16
:10375000FD7C00ED240CFDEC3460FC8D828C83EF4D
:10376000F0900455E0FEA3E0FFEF54FFFF900457F4
:10377000E0FEEEFD7C00ED240DFDEC3460FC8D825E
:103780008C83EFF07B007A007900C003C002C00197
:1037900090045212068AD082D083D0E06B7008E980
:1037A00065827003EA6583605190045AE4F0A3E4F3
:1037B000F0900455E0FEA3E0FF90045AE0FCA3E083
:1037C000FDC3ED9FEC9E503290045212068A900485
:1037D0005AE0FEA3E0FFE92FF9EA3EFA1203F0FFF8
:1037E000900458E0FCA3E0FD8D828C83EFF0900400
:1037F0005AE475F00112047080B7900451E0FFEFB5
:1038000075F00BA42448F582E43402F583E4F090CB
:103810000451E0FFEF75F00BA4244CF582E4340270
:10382000F583E0FF900457E0FEEEFD7C00ED240EF2
:10383000FDEC3460FC8D828C83EFF022908B53E49E
:1038400093FE740193FF9003B4EEF0A3EFF0908B1E
:1038500055E493FE740193FF9003A2EEF0A3EFF002
:103860009003B4E0FEA3E0FFEF25E0FFEE33FE742B
:10387000932FF58274843EF583E493FE740193FFE5
:103880009003B2EEF0A3EFF09003A2E0FEA3E0FFFE
:10389000EF25E0FFEE33FE74932FF58274843EF53E
:1038A00083E493FE740193FF9003A0EEF0A3EFF086
:1038B00012847F1281921281A7127FC5127FA812F3
:1038C0007468127DB17F00127D0C127203D2AF902A
:1038D00044F474FDF01281D11281E49003B17401BB
:1038E000F0908B57E493FF9003AAEFF09003AAE0C7
:1038F000FFEF6003127AE21278E2128448122C89F8
:103900007D407C087F0012285012204E1284419086
:1039100003A6E0FFEF60111282EA7F061273C21263
:103920004EE71281F712822A9003AAE0FFEF6007A8
:103930007F021273C280C39003AEE0FFEF601B7F73
:10394000041273C21275B07F197E007D007C0012D4
:103950006EF812822A9003AEE4F09003A7E0FFEF26
:1039600060197F011273C21281F71252A87F197E6B
:10397000007D007C00126EF812822A9003ADE0FFF9
:10398000EF60197F021273C21281F71282087F1949
:103990007E007D007C00126EF812822A9003A5E062
:1039A000FFEF60081278E29003A5E4F090039EE038
:1039B000FFEF70030238FA1282EA7F051273C27FAA
:1039C000647E007D007C00126EF812822A90039EB5
:1039D000E4F00238FAE47E007F00229004DBEEF08F
:1039E000A3EFF09004DDEDF012840E9004DFEFF011
:1039F0001284049004E0EEF0A3EFF09004E0E0FE07
:103A0000A3E0FF9004DBE0FCA3E0FDED6F7002ECAF
:103A10006E7003023B6F9043A2E0FFEF5401FF90F2
:103A200004DEEFF09004DFE0FFEF705E9004E0E072
:103A3000FEA3E0FFEF4E600C9004DBE0FEA3E0FF8E
:103A4000EF4E70469004E0E0FEA3E0FFEF4E701DE5
:103A50007B027A4079809004DBE0FCA3E0FD1283D6
:103A60000A904082E0FFEF54BFFFEFF022904082C7
:103A7000E0FFEF4440FFEFF07B027A407980900452
:103A8000DBE0FCA3E0FD12830A229004DEE0FFEFFE
:103A9000606C904001E4F09040107401F09040148C
:103AA000E4F0904008E0FFEF547FFFEFF090408299
:103AB000E0FFEF5408FF7E00EF4E600C9004DBE067
:103AC000FEA3E0FFEF4E70367B027A40790290044D
:103AD000E0E0FCA3E0FD12830A9040017407F0903F
:103AE0004001E0FFEF5401FF7E00EF4E70F1904384
:103AF000A2E0FFEF54FEFFEFF0904001E4F09043AE
:103B0000A2E0FFEF5401FF7E00EF4E603A7B027AA5
:103B10004079029004DBE0FCA3E0FD12830A9004EC
:103B2000DDE0FFEF60047F0280027F00EF4401FFD1
:103B3000904001EFF0904001E0FFEF5401FF7E0064
:103B4000EF4E602B80EF227B027A4079809004DB7D
:103B5000E0FCA3E0FD12830A9043A2C083C082E090
:103B6000FF9004DEE0FEEF4EFFD082D083EFF02224
:103B70009004E2EEF0A3EFF09004E4EDF012842262
:103B80009004E6EFF01284189004E7EEF0A3EFF053
:103B90009004E7E0FEA3E0FF9004E2E0FCA3E0FD78
:103BA000ED6F7002EC6E7003023D049043A1E0FFE4
:103BB000EF5401FF9004E5EFF09004E6E0FFEF70B2
:103BC0005E9004E7E0FEA3E0FFEF4E600C9004E29D
:103BD000E0FEA3E0FFEF4E70469004E7E0FEA3E0B6
:103BE000FFEF4E701D7B027A4179009004E2E0FC09
:103BF000A3E0FD12830A904102E0FFEF54BFFFEF04
:103C0000F022904102E0FFEF4440FFEFF07B027AA8
:103C10004179009004E2E0FCA3E0FD12830A2290C7
:103C200004E5E0FFEF606C904001E4F09040147414
:103C300001F0904010E4F0904008E0FFEF547FFF67
:103C4000EFF0904102E0FFEF5408FF7E00EF4E607E
:103C50000C9004E2E0FEA3E0FFEF4E70367B027AA8
:103C60004079029004E7E0FCA3E0FD12830A904053
:103C7000017407F0904001E0FFEF5401FF7E00EF78
:103C80004E70F19043A1E0FFEF54FEFFEFF0904043
:103C900001E4F09043A1E0FFEF5401FF7E00EF4EFE
:103CA000603A7B027A4079029004E2E0FCA3E0FDF6
:103CB00012830A9004E4E0FFEF60047F0280027F39
:103CC00000EF4401FF904001EFF0904001E0FFEF72
:103CD0005401FF7E00EF4E602B80EF227B027A4181
:103CE00079009004E2E0FCA3E0FD12830A9043A176
:103CF000C083C082E0FF9004E5E0FEEF4EFFD0827B
:103D0000D083EFF0229002C17420F09003B2E0FE65
:103D1000A3E0FF900302EEF0A3EFF0900304E4F0C1
:103D2000A3E4F0900306E4F09003A0E0FEA3E0FF1C
:103D3000900302E0FCA3E0FDED6F7002EC6E7045B5
:103D40009003AAE0FFEF703D9002C274A0F09003D0
:103D5000067401F0900306E0FFEFC39440501A9000
:103D60000306E0FF74C22FF582E43402F583744049
:103D7000F0900306E004F080DB7B017A0279C21246
:103D80007A75023E93900306E0FFEFC39440400330
:103D9000023E1B900302E0FEA3E0FF74582FF58261
:103DA000748B3EF583E493FF900306E0FE74C22E0D
:103DB000F582E43402F583EFF0900306E004F0901E
:103DC0000302E475F001120470900304E475F0013D
:103DD000120470900302E0FEA3E0FFC3EF94A8EE8C
:103DE00094614008900302E4F0A3E4F09003A0E0A3
:103DF000FEA3E0FF900302E0FCA3E0FDED6F700284
:103E0000EC6E7081900306E0FF74C22FF582E434FB
:103E100002F5837440F08003023D857B017A0279CC
:103E2000C2127A75900306E4F0126B42EFB43008C8
:103E30009002C17430F0805B9003A0E0FEA3E0FF2D
:103E4000900302E0FCA3E0FDED6F7002EC6E6003F6
:103E5000023D85900304E475F0041204709002C2E0
:103E60007480F09002C3E4F0900304E0FEA3E0FF4E
:103E7000EEFF7E009002C4EFF0900304E0FEA3E0AA
:103E8000FFEF54FFFF9002C5EFF07B017A0279C289
:103E9000127A759002C1E0FF2290058EEFF09042F9
:103EA00000E0FFEF5407FF90058FEFF090058EE0E4
:103EB000FFEFB408047F03800590058EE0FF9005B6
:103EC00090EFF090058FE0FFEF1206A83EE2003E73
:103ED000EA013EF2023EFA033F01043F09050000F9
:103EE0003F1190058F7402F0802C90058F7401F0C3
:103EF000802490058F7403F0801C90058FE4F0807F
:103F00001590058F7404F0800D90058F7405F08076
:103F1000057F0012817D90058FE0FF900590E0FE07
:103F2000EEC39F400890058EE0FF125BB690058EB1
:103F3000E0FFEF1206A83F4F003F68013F80023FBD
:103F40008D033FA5043FBD053FD50800003FE99024
:103F50004200E0FFEF54F8FFEF4403FFEF54BFFFD0
:103F6000904200EFF0023FEE904200E0FFEF54F885
:103F7000FFEF4401FFEF54BFFF904200EFF0806E6F
:103F8000904200E0FFEF54B8FFEFF08061904200F4
:103F9000E0FFEF54F8FFEF4402FFEF54BFFF904201
:103FA00000EFF08049904200E0FFEF54F8FFEF444B
:103FB00004FFEF54BFFF904200EFF08031904200C9
:103FC000E0FFEF54F8FFEF4405FFEF54BFFF9042CE
:103FD00000EFF08019904200E0FFEF54F8FFEF444B
:103FE00042FF904200EFF080057F0012817D900536
:103FF0008EE0FFEFB40805128331800312833D90F9
:10400000058FE0FF900590E0FEEEC39F50089005FD
:104010008EE0FF125BB6229005B4E4F0906004E0FD
:10402000FFEF547FFF9005B2EFF09005B2E0FF7E06
:1040300000EF24FFFFEE34FFFEEFC4F8540FC86812
:10404000FFEEC454F048FE9005B3EFF09005B2E0E7
:10405000FFEFD3940050030241859005B2E0FFEFDB
:10406000C3940940030241859005B2E0FFEF75F06B
:104070000BA42449F582E43402F583E0FFEF54FEFB
:10408000FFEFF09005B2E0FFEF75F00BA4244AF5C6
:1040900082E43402F583E4F09005B3E0FF7E00EFA4
:1040A000240CFFEE3460FE8F828E83E0FFEF547F9E
:1040B000FFEFF09005B2E0FFEF75F00BA42448F598
:1040C00082E43402F583E0FFEF54FDFFEFF090054A
:1040D000B2E0FFEF75F00BA4244BF582E43402F557
:1040E00083E0FFEF5480FF7E00EF4E60499005B201
:1040F000E0FFEF75F00BA42448F582E43402F58369
:10410000E0FFEFB401189005B3E0FF7E00EF240E4E
:10411000FFEE3460FE8F828E83740CF0805F90051A
:10412000B3E0FF7E00EF240EFFEE3460FE8F828E40
:1041300083740DF080479005B2E0FFEF75F00BA49B
:104140002448F582E43402F583E0FFEFB4011890CF
:1041500005B3E0FF7E00EF240EFFEE3460FE8F8299
:104160008E837408F080169005B3E0FF7E00EF2484
:104170000EFFEE3460FE8F828E837409F012804D44
:104180009005B4EFF09005B4E0FF22C0E0C0F0C0AD
:1041900083C082C085C084C086758600C093759335
:1041A00000C0D075D000C000C001C002C003C00470
:1041B000C005C006C007906028E0FF90060FEFF032
:1041C00090060FE0FFEF5410FF7E00EF4E700302E9
:1041D00042D99006107401F090060FE0FFEF548072
:1041E000FF7E00EF4E603190060FE0FFEF540FFFAF
:1041F0007E00EF64014E6007900610E4F0804612E6
:10420000657C900243E0FFEF5480FF7E00EF4E603C
:1042100034900610E4F0802D90060FE0FFEF54403C
:10422000FF7E00EF4E6005127E26801990060FE09B
:10423000FFEF5420FF7E00EF4E6005127C018005E9
:10424000900610E4F0900610E0FFEF70030242D9F0
:10425000906028E0FF90060FEFF090060FE0FFEF70
:104260005480FF7E00EF4E7070900246E0FF900297
:10427000BEE0FEEE4FFF90060FEFF090060FE0FF5E
:10428000906029EFF0906029E0FF90060FE0FEEECD
:104290006F7046900243E0FF900610EFF0906028A8
:1042A000E0FFEF5480FF90060FEFF090060FE0FF65
:1042B000EF7018900243E0FF906028EFF0906028C4
:1042C000E0FFEF540FFF900610EFF0900243E0FF85
:1042D000900610E0FEEEB507BAD007D006D005D0A4
:1042E00004D003D002D001D000D0D0D093D086D05B
:1042F00084D085D082D083D0F0D0E0329003A0E08B
:10430000FEA3E0FF9003B2E0FCA3E0FDD3ED9FEC41
:104310009E50030243E39003B4740175F02012042D
:10432000709003B4E0FEA3E0FFC3EF9460EE94034B
:1043300040089003B4E4F0A3E4F09003B4E0FEA3DB
:10434000E0FFEF2401FFEE3400FE9003A2EEF0A3A5
:10435000EFF07B017A0379B4C003C002C0017BFF98
:104360007A8B7953900003120693900006E4F0A331
:104370007402F0D001D002D0031223567B017A03DD
:1043800079A2C003C002C0017BFF7A8B79559000EF
:1043900003120693900006E4F0A37402F0D001D05B
:1043A00002D0031223567B017A0379A0C003C00216
:1043B000C0019003A2E0FEA3E0FFEF25E0FFEE3393
:1043C000FE74932FF974843EFA7BFF90000312066B
:1043D00093900006E4F0A37402F0D001D002D00361
:1043E0001223569003A0E0FEA3E0FF9003B2EEF08C
:1043F000A3EFF07B017A0379A0C003C002C0019053
:1044000003B4E0FEA3E0FFEF25E0FFEE33FE74937C
:104410002FF974843EFA7BFF9000031206939000FC
:1044200006E4F0A37402F0D001D002D003122356A8
:104430009003AAE0FFEF602F9003AAE4F07B017ADB
:104440000379AAC003C002C0017BFF7A8B79579021
:104450000003120693900006E4F0A37401F0D0016B
:10446000D002D0031223562290041CEFF090041DBA
:10447000ECF0A3EDF090041F1206937B007A007914
:1044800000C003C002C00190053812068AD082D055
:1044900083D0E06B7008E965827003EA658370037E
:1044A0000245BC90041CE0FFEFD3943F400C900405
:1044B00027E4F0A37410F00245669004277401F01D
:1044C000A37420F090041CE0FF7E007C207D00128D
:1044D00006F2EF2400FFEE3400FEED3408FDEC346C
:1044E00000FCC004C005C006C00790041DE0FEA388
:1044F000E0FF7C007D201206F2A804A905AA06AB05
:1045000007D007D006D005D0041204D0900423129F
:104510000672900422E4F0900422E0FFEFC394209E
:104520005044900422E0FFE4FCFDFE9004231206B8
:10453000661204D0A907AA06AB051283C1900538FC
:1045400012068AE92400F9EA3401FA900422E0FE16
:10455000EEFD7C00E92DF9EA3CFAEF120409900423
:1045600022E004F080B190041F12068AC003C0024A
:10457000C00190053812068AA801AC02AD03D00133
:10458000D002D0037E017F001207DB90041CE0FF05
:10459000C00790041DE0FCA3E0FD90053812068AD8
:1045A000900427E0FEA3E0FF90047FEEF0A3EFF07D
:1045B000D007124AB6900429EFF0800690042974BF
:1045C000FFF0900429E0FF22900324E0FF905A00BE
:1045D000EFF0900325E0FF905A02EFF0900326E001
:1045E000FF905A03EFF0900327E0FF905A04EFF09A
:1045F000900328E0FF905A06EFF0900329E0FF9027
:104600005A08EFF090032AE0FF905A0AEFF0900367
:104610002BE0FF905A10EFF090032CE0FF905A121D
:10462000EFF090032DE0FF905A13EFF090032EE08F
:10463000FF905A14EFF090032FE0FF905A16EFF01E
:10464000900330E0FF905A18EFF0900331E0FF90B4
:104650005A1AEFF0900332E0FF905A20EFF09003E7
:1046600033E0FF905A22EFF0900334E0FF905A239A
:10467000EFF0900335E0FF905A24EFF0900336E01E
:10468000FF905A26EFF0900337E0FF905A28EFF0A2
:10469000900338E0FF905A2AEFF0900339E0FF9042
:1046A0005A30EFF090033AE0FF905A32EFF0900367
:1046B0003BE0FF905A33EFF090033CE0FF905A3418
:1046C000EFF090033DE0FF905A36EFF090033EE0AC
:1046D000FF905A38EFF090033FE0FF905A3AEFF026
:1046E00090031CE0FFEFB4012190500BE0FFEF546A
:1046F000F1FF90031DE0FEEF4EFF90500BEFF090A6
:1047000046E8E0FFEF4404FFEFF0900349E0FFEFDD
:10471000B4010B904322E0FFEF4408FFEFF022903A
:1047200004BEEEF0A3EFF04E700302485D9004B8B3
:10473000E07002A3E0700302485D9004BEE0FEA3B7
:10474000E024FCFFEE34FFFEA37404F0A374B6F083
:104750009004C0E0FCA3E0F5828C83E0FCA3E0FDC4
:104760009004C2ECF0A3EDF04C60209004BEE0FC9D
:10477000A3E0FD9004C2E0FAA3E0FBD39DEA9C50C5
:104780000A9004C0EAF0A3EBF080C59004C2E07088
:1047900002A3E0604D8F828E83A3A3E0FCA3E0FD23
:1047A0009004BFE02DFD9004BEE03CFC9004C2E00C
:1047B000FAA3E0FB6D7002EA6C70278B828A83A3F8
:1047C000A3E0FCA3E02404FDE43C8F828E83A3A33A
:1047D0008DF01204709004C2E0FCA3E0F5828C839B
:1047E00080039004C2E0FDA3E08F828E83CDF0A30E
:1047F000EDF09004C0E0FCA3E0FDF5828C83A3A360
:10480000E0FAA3E0FBED2BFDEC3AFCED2404FDE423
:104810003CFCED6F7002EC6E70338F828E83A3A32D
:10482000E0FCA3E02404FDE43CFC9004C0E0FAA317
:10483000E0FBF5828A83A3A3EC8DF01204708F82D3
:104840008E83E0FFA3E08B828A83CF800C9004C02C
:10485000E0FCA3E0F5828C83EEF0A3EFF02290461B
:1048600098E0FF900533EFF07B007A4079807D007F
:104870007C001283089040827450F07B087A0279A1
:1048800038C003C002C0017B007A4179009004C3A4
:10489000120693D001D002D0037F047E00127AAEBC
:1048A0009043007406F090430A74F3F090469874B5
:1048B00003F09043097484F09043087405F07FA0DE
:1048C0007E867D017C0090053412067290053412BC
:1048D000065AD3EF9400EE94004033904308E0FF73
:1048E000EF5420FF7E00EF4E70247FE07E017D00BC
:1048F0007C00127A0090053412065A7BFF7AFF7909
:10490000FF78FF1204D090053412067280BE900525
:1049100033E0FF904698EFF09042007452F07B0C29
:104920007A01790F1283C19046A1EFF07B007A40A3
:1049300079047D007C001283089040047407F09095
:104940004006E4F09040087448F0904004E4F09091
:104950004009E4F09040017402F090400B7404F0C0
:104960009043A2E0FFEF4401FF9043A2EFF0904399
:10497000A1E0FFEF4401FF9043A1EFF09043A0E0DE
:10498000FFEF4480FF9043A0EFF022900438EFF057
:10499000900439120693900438E0FFEFD39400504E
:1049A00003024AA5900438E0FFEFC39409400302D4
:1049B0004AA57B007A007900C003C002C0019004C0
:1049C0003912068AD082D083D0E06B7008E9658204
:1049D0007003EA65837003024AA5900438E0FF7E05
:1049E00000EF24FFFFEE34FFFEEFC4F8540FC86859
:1049F000FFEEC454F048FE90043EEFF090043EE019
:104A0000FF7E00EF2488FFEE3460FE90043FEEF05E
:104A1000A3EFF0900438E0FF125DFD900443EEF048
:104A2000A3EFF0900443E0FEA3E0FF90043CE0FC21
:104A3000A3E0FDD3ED9FEC9E4010900443E0FEA365
:104A4000E0FF90043CEEF0A3EFF0900441E4F0A30B
:104A5000E4F090043CE0FEA3E0FF900441E0FCA3FE
:104A6000E0FDC3ED9FEC9E503290043FE0FEA3E0DA
:104A7000FF8F828E83E0FF90043912068A900441F2
:104A8000E0FCA3E0FDE92DF9EA3CFAEF12040990FD
:104A90000441E475F00112047080B7900438E0FF1F
:104AA00012678B800890043CE4F0A3E4F090043C8F
:104AB000E0FEA3E0FF22900479EFF090047AECF09E
:104AC000A3EDF090047C120693127BD2EF600302F8
:104AD0004BC9900479E0FF90047C12068A90047F11
:104AE000E0FCA3E0FD90048FECF0A3EDF0125F601A
:104AF000900481EFF0900481E0FFEF64076003020F
:104B00004BC4904722E0FFEF5402FF7E00EF4E704F
:104B1000097F017E00127C5C80E8904722E0FFEF75
:104B20005402FF7E00EF4E600D904722E0FFEF132E
:104B300013543FFF80027FFFEF7007900481E4F081
:104B4000800690048174FFF0900481E0FFEF7074A0
:104B5000900479E0FF90047AE0FCA3E0FD90053B2F
:104B6000E0FB90053CE0FE9004F9EEF012629090BC
:104B70000481EFF0900481E0FFEF640770469047F6
:104B800022E0FFEF5402FF7E00EF4E70097F017EAE
:104B900000127C5C80E8904722E0FFEF5402FF7E29
:104BA00000EF4E600D904722E0FFEF1313543FFFDC
:104BB00080027FFFEF7007900481E4F0800690048C
:104BC0008174FFF012816780069004817404F09074
:104BD0000481E0FF221281BC900639EFF09043A5DA
:104BE000E0FFEF4401FFEFF09043B5E0FFEF440139
:104BF000FFEFF090609D7401F09060097402F090F6
:104C00006010E0FFEF547FFFEFF07F007E00127C2A
:104C10005C904394E0FFEF54F9FFEFF0906012E0F6
:104C2000FFEF54DFFFEFF0904394E0FFEF4401FF0C
:104C3000EFF07F017E00127C5C7F287E00127C5C9E
:104C40009051F8E0FFEF547FFFEFF09051F8E0FF54
:104C5000EF54BFFFEFF0904394E0FFEF4402FFEF0B
:104C6000F07F027E00127C5C904394E0FFEF4404EE
:104C7000FFEFF0906084E4F0906085E4F0900639F6
:104C8000E0FF1280B27C757D5F7F171266897D061A
:104C90007F1712708B7C847D8B7F151266897D0651
:104CA0007F1512708B7C417D8B7F181266897D0683
:104CB0007F1812708B7C6D7DC37F011266897D0623
:104CC0007F0112708B7C6E7D2A7F021266897D06C1
:104CD0007F0212708B7C6E7D917F031266897D0648
:104CE0007F0312708B2290052912069390052CEDFC
:104CF000F0127DD890052CE0FFEFC39480400302B2
:104D00004DE4127BD2EF6003024DDC90052D74FF61
:104D1000F090052912068A90048FE4F0A37410F035
:104D20007F40125F60EF64076003024DD790472217
:104D3000E0FFEF5402FF7E00EF4E60F1904722E06B
:104D4000FFEF5402FF7E00EF4E600D904722E0FF20
:104D5000EF1313543FFF80027FFFEF700590052D86
:104D6000E4F090052DE0FFEF706790052CE0FFEF79
:104D7000FD7C0090053BE0FB90053CE0FF9004F9D2
:104D8000EFF07F40126290EF6407703D90052D7444
:104D9000FFF0904722E0FFEF5402FF7E00EF4E60ED
:104DA000F1904722E0FFEF5402FF7E00EF4E600DCE
:104DB000904722E0FFEF1313543FFF80027FFFEF85
:104DC000701590052DE4F0800E90052D74FFF08095
:104DD0000690052D74FFF0128167800E90052D74EA
:104DE00004F0800690052D7401F090052DE0FF225F
:104DF0009005B1E4F0906004E0FFEF547FFF900570
:104E0000AFEFF09005AFE0FF7E00EF24FFFFEE3440
:104E1000FFFEEFC4F8540FC868FFEEC454F048FE1C
:104E20009005B0EFF09005AFE0FFEFD39400500392
:104E3000024EE19005AFE0FFEFC394094003024E3C
:104E4000E19005AFE0FFEF75F00BA42449F582E493
:104E50003402F583E0FFEF4401FFEFF09005AFE08F
:104E6000FFEF75F00BA4244AF582E43402F583E4E5
:104E7000F09005AFE0FFEF75F00BA42448F582E455
:104E80003402F583E0FFEF4402FFEFF09005AFE05E
:104E9000FFEF75F00BA4244BF582E43402F583E0B8
:104EA000FFEF5480FF7E00EF4E60189005B0E0FFEA
:104EB0007E00EF240EFFEE3460FE8F828E83748DB1
:104EC000F080169005B0E0FF7E00EF240EFFEE3478
:104ED00060FE8F828E837489F012804D9005B1EF51
:104EE000F09005B1E0FF229005B5E4F09005B6E43E
:104EF000F07F0012824A1284831284777D017F0042
:104F0000127D8812846BEF7006128379EF70F412B1
:104F10008317128379EF7003024FD9128125EF6056
:104F2000F17B017A0579B67D01126A5B9005B5EFD8
:104F3000F09005B6E0FFEF60D99005B5E0FFEF64B3
:104F4000206003024FD19005B6E0FFEF1206A84F94
:104F500065014F6C024F7E034F83044FBB054F9F8B
:104F60000600004FC67F101279DB80A6123D05EFC8
:104F7000600512736F809B7F301279DB809412780A
:104F80005A808F7F201279DB1261F2EFB420087F04
:104F9000201279DB024F127F301279DB024F127F31
:104FA000201279DB125AEFEFB420087F201279DB50
:104FB000024F127F301279DB024F121258917F207C
:104FC0001279DB024F127F301279DB024F12024F4F
:104FD000127F301279DB024F12127FE2229004FB23
:104FE0001206939004FFE4F07B007A007900C0037E
:104FF000C002C0019004FB12068AD082D083D0E0A8
:105000006B7008E965827003EA658370030250CE15
:105010009004FB12068A74221204099004FB120603
:105020008AE92401F9EA3400FA74031204099004AD
:10503000FE7402F09004FEE0FFEFC39422400302EE
:1050400050CE9004FFE0FFE4FCFDFEEF2400FFEEF5
:105050003401FEED340CFDEC3400FCA907AA06ABCC
:10506000051283C1900500EFF09004FFE004F0907A
:105070000500E0FFEFC4540FFFEF90EE5493FF9054
:1050800004FB12068A9004FEE0FEE92EF9E43AFAE7
:10509000EF120409900500E0FFEF540FFFEF90EED0
:1050A0005493FF9004FEE0FEEEFD7C00ED2402FD33
:1050B000EC3400FC9004FB12068AE92DF9EA3CFA74
:1050C000EF1204099004FEE02404F0025034229010
:1050D00004BE12067274FFFFFEFDFC9004BEE0F8F1
:1050E000A3E0F9A3E0FAA3E0FBC312062360387F34
:1050F000807E967D187C4B9004BEE0F8A3E0F9A377
:10510000E0FAA3E0FB1202B86002501B7F807E969B
:105110007D187CCB9004BEE0F8A3E0F9A3E0FAA3ED
:10512000E0FB1202B8500F9004BEE0FCA3E0FDA328
:10513000E0FEA3E0FF229004BEE0FCA3E0FDA3E0BC
:10514000FEA3E0FF12036F9004C21206729004C225
:10515000E0FCA3E0FDA3E0FEA3E0FFEC120331C8F6
:10516000ECC8C9EDC9CAEECACBEFCB9004BEE0FCD7
:10517000A3E0FDA3E0FEA3E0FF12001DE4FBFAF9AB
:10518000F81202B850259004C2E0FCA3E0FDA3E0B1
:10519000FEA3E0FFE4FAF9F8EF2401FFEA3EFEE99E
:1051A0003DFDE83CFC9004C21206729004C2E0FC93
:1051B000A3E0FDA3E0FEA3E0FFEC12033122759310
:1051C0000078007583467582E8E04401F00090465F
:1051D000ECE0F99046FAE0FAB903225420B4001248
:1051E000B8001AEA901FFFF07401901FFEF090467D
:1051F000F6F0901FFEE06005901FFFE0FA90480077
:1052000074C0F075810C90000078007920E4F0A360
:10521000D8FCD9FAEA900417F0020011750B1F753B
:105220000CFD12349D02526302383CE493A3F8E46F
:1052300093A34003F68001F208DFF48029E493A3EE
:10524000F85407240CC8C333C4540F4420C8834007
:1052500004F456800146F6DFE4800B0102040810D6
:10526000204080905D3FE47E019360BCA3FF543FEB
:1052700030E509541FFEE493A360010ECF54C0250E
:10528000E060A840B8E493A3FAE493A3F8E493A3FE
:10529000C8C582C8CAC583CAF0A3C8C582C8CAC562
:1052A00083CADFE9DEE780BE12844F9003C6120690
:1052B000939003B67420F0A3E4F07F007E00127B8D
:1052C000A39003BAEFF07F017E00127BA39003BB93
:1052D000EFF07F027E00127BA39003BCEFF09003FF
:1052E000C612068A1203F0FF9003BDEFF09003C6CA
:1052F00012068AE92401F9EA3400FA1203F0FF9059
:1053000003BEEFF09003C612068AE92402F9EA34DC
:1053100000FA1203F0FF9003BFEFF09003C61206ED
:105320008AE92404F9EA3400FA1203F0FF9003C07A
:10533000EFF09003C612068AE92407F9EA3400FA6E
:105340001203F0FF9003C1EFF09003C612068AE942
:105350002408F9EA3400FA120486FFAEF09003B88C
:10536000EEF0A3EFF07B017A0379B67D10122600F0
:10537000EF6007127AE21282082290039F7401F014
:105380009003B1E4F09003A87401F09003AFE4F04F
:1053900022900646EFF0900404E4F0900646E0FF09
:1053A000EF64016003025474904E007430F0904E2C
:1053B000027406F0904E037408F0904E04E4F090EE
:1053C0004E05E4F0904E06741FF0904E08E4F09005
:1053D0004E09E4F0904E0AE4F0904E147401F090FF
:1053E00058847414F09058857405F090588674169B
:1053F000F0905887E4F090588A7444F090588B7479
:1054000048F090588C7401F090588E7401F09058C8
:105410008F7411F09058907419F09058917497F01F
:105420007F521274159058947458F0905895E4F087
:1054300090589A7405F090589B7402F090589CE430
:10544000F090589DE4F07F00127FFD7F337E037D56
:10545000007C0090040A1206727D017F267E0012F5
:1054600039DB7D017F9F7E00123B707C847D8C7FC9
:105470001D126689221281BC900645EFF0904E0005
:10548000E0FFEF54FEFFEFF0904E01E0FFEF440429
:10549000FFEFF09046F8E0FFEF4402FFEFF0904698
:1054A000F9E0FFEF4402FFEFF0905891E0FFEF5476
:1054B000FCFFEFF0905892E0FFEF54F7FFEFF07F22
:1054C000037E00127C5C9046F8E0FFEF54FDFFEF96
:1054D000F09046F9E0FFEF54FDFFEFF09043AAE0B3
:1054E000FFEF54EFFFEFF09043AAE0FFEF54FEFF11
:1054F000EFF09043BAE0FFEF54FEFFEFF09043BAB5
:10550000E0FFEF54EFFFEFF0905877E0FFEF54F932
:10551000FFEFF09043A1E0FFEF54FEFFEFF0904368
:10552000B1E0FFEF54FEFFEFF0905882E0FFEF5440
:10553000F7FFEFF09043A2E0FFEF54FEFFEFF09093
:1055400043B2E0FFEF54FEFFEFF0900645E0FF129C
:1055500080B2229004CDEFF09004CEE4F09004CD20
:10556000E0FF9004CFEFF0904210E0FFEF4401FF26
:10557000EFF09004CDE0FFEFD394005003025621EA
:10558000904300E0FF9004D1EFF0904380E0FF9063
:1055900004D2EFF0904382E0FF9004D3EFF07F1845
:1055A0001269E69004CE7410F09004CFE0FFEFD3C0
:1055B00094004047904210E0FF9004D07404F090B3
:1055C00004D0E0FFEFD3940040137F011276EC7E0D
:1055D00000EF30E0F59004D0E014F080E29042104B
:1055E000E0FFEF5480FF7E00EF4E70079004CEE4A2
:1055F000F080089004CFE014F080AE9004D1E0FF7A
:10560000EF5404FF7E00EF4E70031283619004D2CA
:10561000E0FF904380EFF09004D3E0FF904382EFEF
:10562000F09004CEE0FF229004BEEEF0A3EFF0A3D2
:105630007404F0A374B6F09004C0E0FEA3E0F58219
:105640008E83E0FEA3E0FF4E7003FEFF228F828E6A
:1056500083A3A3E0FCA3E0FD9004BEE0FAA3E0FB7B
:10566000C3ED9BEC9A500A9004C0EEF0A3EFF080DB
:10567000C68F828E83A3A3E0FCA3E0C39BFDEC9ABC
:10568000FC9004C2F0A3EDF0C39410EC940050170A
:105690008F828E83E0FCA3E0FD9004C0E0FAA3E0DB
:1056A000F5828A83EC80459004C3E024FCF09004EA
:1056B000C2E034FFF0E0FDA3E08F828E83A3A3CD90
:1056C000F0A3EDF0EF2404FFE43EFE9004C3E02FCE
:1056D000FF9004C2E03EFE9004C0F0A3EFF09004FF
:1056E000BEE0FDA3E08F828E83A3A3CDF0A3EDF0F7
:1056F000EF2404FFE43EFE221281BC9005E6EFF0A9
:105700009003FEE0FF9005E5EFF09043AAE0FFEF85
:105710004401FFEFF09043AAE0FFEF4410FFEFF0E9
:105720009043BAE0FFEF4401FFEFF09043BAE0FF8F
:10573000EF4410FFEFF09046F8E0FFEF4402FFEF78
:10574000F09046F9E0FFEF4402FFEFF0905891E04F
:10575000FFEF4403FFEFF07F037E00127C5C904676
:10576000F8E0FFEF54FDFFEFF09046F9E0FFEF5453
:10577000FDFFEFF0905877E0FFEF4406FFEFF09069
:105780005882747AF09043A1E0FFEF4401FFEFF0FC
:105790009043B1E0FFEF4401FFEFF09043A2E0FF40
:1057A000EF4401FFEFF09043B2E0FFEF4401FFEF61
:1057B000F09044DB7420F09044C37420F09005E630
:1057C000E0FF1280B222900677E4F09002B5E0FF8D
:1057D0007E00900244EE8FF01204709002ACE0FE66
:1057E000A3E0FFD3EF9400EE94004053900677E0DF
:1057F000FFEFC3940850489002AE12068A1203F0DD
:10580000FF900677E0FEEEFD7C00ED2400FDEC3419
:1058100060FC8D828C83EFF09002AE12068AE92440
:1058200001F9EA3400FA9002AE120693900677E08E
:1058300004F09002AC74FF75F0FF120470809C902D
:1058400002B5E0FFEF6408600B900677E0FFEFD34E
:105850009400401C9002BEE0FFEF6480FF9002BE07
:10586000EFF0900243740FF09002BF7402F0800CCE
:105870009002437402F09002BF7402F0900677E049
:10588000FF9002B5EFF0900677E0FF900246EFF050
:10589000229003B4E4F0A3E4F09003A2E4F0A37434
:1058A00001F09003B2E4F0A3E4F09003A0E4F0A3CD
:1058B000E4F07B017A0379B4C003C002C0017BFF2E
:1058C0007A8B7953900003120693900006E4F0A3BC
:1058D0007402F0D001D002D0031223567B017A0368
:1058E00079A2C003C002C0017BFF7A8B795590007A
:1058F00003120693900006E4F0A37402F0D001D0E6
:1059000002D0031223567B017A0379B2C003C0028E
:10591000C0017BFF7A847993900003120693900074
:1059200006E4F0A37402F0D001D002D00312235693
:105930007B017A0379A0C003C002C0017BFF7A8497
:105940007995900003120693900006E4F0A3740288
:10595000F0D001D002D003122356229004E9EEF0D9
:10596000A3EFF01281BC9004EEEFF0904007E0FF4F
:105970007E00EF7F00FE9004ECEEF0A3EFF09004C9
:10598000ECE0FEA3E0FF904006E0FD7C00EE4CFE64
:10599000EF4DFF9004ECEEF0A3EFF09004E9E0FE91
:1059A000A3E0FFEF4E600C9004ECE0FEA3E0FFEFFD
:1059B0004E705E904004E0FF9004EBEFF09004EB3B
:1059C000E0FFEFC3940750057F0712823A9004E985
:1059D000E0FEA3E0FFEF4E7018904008E0FFEF44B8
:1059E00040FFEFF09004E9E0FEA3E0FF12750E80A7
:1059F000169004E9E0FEA3E0FF12750E904008E067
:105A0000FFEF54BFFFEFF09004EBE0FF12823A800B
:105A10000B9004E9E0FEA3E0FF12750E9004EEE0A7
:105A2000FF1280B2229003FE7401F0900409E4F0AA
:105A30007F10127EB07F10127ED17D077F1D127005
:105A40008B9058967407F0905897E4F090589EE425
:105A5000F0905B07E0FFEF4418FFEFF0905893E4FD
:105A6000F0905B88E4F0905B89E4F0905880740AD1
:105A7000F0905881E4F0905883E4F09058887412C4
:105A8000F09058897413F090588DE4F0904E0174A2
:105A900014F09003E0740CF09003E17401F07B00CB
:105AA0007A807D6B7C8D7F021230A39003FEE0FF35
:105AB000EF75F003A42405F582E43404F583E0FFD8
:105AC000904E0EEFF09003FEE0FFEF75F003A4247C
:105AD00003F582E43404F583E0FCA3E0FD7B027A65
