:10000000021364008F828E83E0540100000070F8B8
:100010002278FFE4F6D8FD0213C2EC4D6011E849E6
:100020007017ED33EC3304600DE4FCFFFEFD22E9B4
:1000300033E8330470F80202E31202AE5804600998
:10004000E4CC248150062850090202ED2840030226
:1000500002EAC0E0EB4A7044B98006D0E0FB02023D
:10006000D9EF4E701CBD8008EBFFEAFEE9FD80EB86
:10007000E98DF0A4FEE5F0020103E9CDF9EAFEEB1B
:10008000FFEF89F0A4FCE5F0CE89F0A42EFFE43563
:10009000F0CD89F0A42DFEE435F08067EF4E7005B9
:1000A000BD80D780C3EF8BF0A4ACF0EE8BF0A42C16
:1000B000FCE435F0F8EF8AF0A42CE5F038FCE433EA
:1000C000CB8DF0A42CFCE5F03BF8EE8AF0A42CFCE0
:1000D000E5F038F8E433CF89F0A42CFCE5F038CF14
:1000E0003400CE89F0A42FFFE5F03EFEE433C98D45
:1000F000F0A42EFEE5F039CD8AF0A42FFFE5F03E06
:10010000FEE43DFD33D0E0FB50070BBB000F0202C5
:10011000EDEC2CFCEF33FFEE33FEED33FD0202C5B8
:100120000202EDEC5D046005E8590470030202E38D
:100130001202AE580460F6EC4860F2EC7004FDFE6A
:10014000FF22C860DB2481C85009C39860025006B2
:100150000202EA9850CAF582E9294B4A7005AB823F
:100160000202D975F0007C1A7880C3EF9BEE9AEDFD
:1001700099400DC3EF9BFFEE9AFEED99FDE842F02A
:10018000DC23ACF0D0E0FFD0E0FED0E0FDAB82207D
:10019000E7101BEB60BAEC2CFCEF33FFEE33FEED07
:1001A00033FD0202C5E803F830E705C0F075F00042
:1001B000EF2FFFEE33FEED33FD40B830E7C280AAEB
:1001C00074F8CC6480CCC86480C8F58204604FC3E6
:1001D000EB9FF5F0EA9E42F0E99D42F0E89C45F085
:1001E000603C501DE5825FFFE582D313CB5BCBF40F
:1001F0002B5582FB50280ABA002409B90020088038
:100200001DE5825BFBE582D313CF5FCFF4C3132FD1
:100210005582FF50090EBE00050DBD00010CC3EB59
:100220009FF5F0EA9E42F0E99D42F0E89C45F060BF
:1002300007CC4820E701B3EC2275F020800E75F062
:1002400010800575F0087D007E007F003392D53068
:10025000D50312047EEC334010EF33FFEE33FEED96
:1002600033FDEC33FCD5F0ED22E5F0247EA2D5136E
:10027000CC92E7CDCEFF22EDD2E7CD33EC3392D551
:1002800024814006E4FFFEFDFC22FCE4CFCECDCC71
:1002900024E0501174FF80EDC3CC13CCCD13CDCE30
:1002A00013CECF13CF0470F030D5DE02047EE9D236
:1002B000E7C933E833F892D5EDD2E7CD33EC33FC20
:1002C0005002B2D522EC30E7100FBF000C0EBE007A
:1002D000080DBD00040BEB6014A2D5EB13FCED92EE
:1002E000E7FD2274FFFCFDFEFF22E480F8A2D57436
:1002F000FF13FC7D80E480EFBB010689828A83E0E6
:10030000225002E722BBFE02E32289828A83E49321
:1003100022BB010689828A83F0225002F722BBFEAB
:1003200001F322C5F0F8A3E028F0C5F0F8E5821546
:100330008270021583E038F022EF2BFFEE3AFEEDDB
:1003400039FDEC38FC22C3EF9BFFEE9AFEED99FDE0
:10035000EC98FC22E88FF0A4CC8BF0A42CFCE98E66
:10036000F0A42CFC8AF0EDA42CFCEA8EF0A4CDA81D
:10037000F08BF0A42DCC3825F0FDE98FF0A42CCD26
:1003800035F0FCEB8EF0A4FEA9F0EB8FF0A4CFC506
:10039000F02ECD39FEE43CFCEAA42DCE35F0FDE490
:1003A0003CFC2275F008758200EF2FFFEE33FECD86
:1003B00033CDCC33CCC58233C5829BED9AEC99E525
:1003C0008298400CF582EE9BFEED9AFDEC99FC0FB5
:1003D000D5F0D6E4CEFBE4CDFAE4CCF9A88222B87D
:1003E00000C1B90059BA002DEC8BF084CFCECDFC02
:1003F000E5F0CBF97818EF2FFFEE33FEED33FDEC8F
:1004000033FCEB33FB10D703994004EB99FB0FD877
:10041000E5E4F9FA227818EF2FFFEE33FEED33FD15
:10042000EC33FCC933C910D7059BE99A4007EC9B14
:10043000FCE99AF90FD8E0E4C9FAE4CCFB2275F0A4
:1004400010EF2FFFEE33FEED33FDCC33CCC833C8B5
:1004500010D7079BEC9AE899400AED9BFDEC9AFCBB
:10046000E899F80FD5F0DAE4CDFBE4CCFAE4C8F96A
:1004700022EF4BFFEE4AFEED49FDEC48FC22C3E4BF
:100480009FFFE49EFEE49DFDE49CFC22EB9FF5F0C3
:10049000EA9E42F0E99D42F0E89C45F022E8600FB8
:1004A000ECC313FCED13FDEE13FEEF13FFD8F122A6
:1004B000E8600FEFC333FFEE33FEED33FDEC33FCAA
:1004C000D8F122E0FCA3E0FDA3E0FEA3E0FF22E0E0
:1004D000F8A3E0F9A3E0FAA3E0FB22ECF0A3EDF02F
:1004E000A3EEF0A3EFF022E0FBA3E0FAA3E0F922F1
:1004F000EBF0A3EAF0A3E9F022E493FB740193FA92
:10050000740293F922D083D082F8E49370127401BC
:1005100093700DA3A393F8740193F5828883E47319
:100520007402936860EFA3A3A380DFE50C2582F536
:1005300082E50B3583F583B50B0485820C2210AF61
:100540000685820CF50B2285820CF50BD2AF22ECCE
:100550008EF0A4CCC5F0CCCDF8EFA4CEC5F02DFD27
:10056000E43CFCE8A42EC8C5F03DFDE43CFCEFA44F
:10057000FFE5F028FEE43DFDE43CFC22E709F60837
:10058000DFFA8046E709F208DFFA803E88828C8332
:10059000E709F0A3DFFA8032E309F608DFFA806E9C
:1005A000E309F208DFFA806688828C83E309F0A30E
:1005B000DFFA805A89828A83E0A3F608DFFA804E48
:1005C00089828A83E0A3F208DFFA804280D280FA2F
:1005D00080C680D4805580F28029801080A680EA71
:1005E000809A80A880DA80E280CA802988848C85FD
:1005F00089828A83E493A30586F0A30586DFF5DE6E
:10060000F3800B89828A83E493A3F608DFF9ECFA7E
:10061000A9F0EDFB2288848C8589828A83E0A3057A
:1006200086F0A30586DFF6DEF480E389828A83E420
:1006300093A3F208DFF980D688F0EF60010E4E60D8
:10064000CD88F0ED2402B4040050C3F582EB2402FF
:10065000B4040050B923234582239005CC73900045
:10066000141204F09000171204E7AF01AE02AD03BC
:100670007C0090012D1204DB90012D1204C3EF5475
:10068000FFFFEE54FFFEED5400FDEC5400FC900122
:100690002D1204DB9000171204E7AF01AE02AD0388
:1006A0007C007B007A0079FF7800D312048C400331
:1006B0000208E49000171204E7AF01AE02AD037C1C
:1006C00000A804A905AA06AB0790001AE0FEA3E063
:1006D000FFE4FCFD1203397BFF7AFF79FF7800C34A
:1006E00012048C50030208E4121F747B017A017912
:1006F00035121AFE7B007A007901780090012D12E4
:1007000004C31203DF90011C1204DB7B007A017921
:1007100000780090012D1204C31203DFEF54FFFF95
:10072000EE5400FEED5400FDEC5400FC900120124C
:1007300004DB7F007E017D007C009001201204CF4D
:10074000120354C004C005C006C0077F007E007DB0
:10075000017C0090011C1204CF120354A804A905C7
:10076000AA06AB07D007D006D005D00412033990F3
:1007700001311204DB7F007E007D007C00900128A7
:100780001204DB90012CE4F090001AE0FEA3E0FFDD
:10079000E4FCFD9001281204CFC312048C40030234
:1007A00008D790012CE0FFEF60030208D77F007E9E
:1007B000007D007C009001241204DB9001241204CF
:1007C000C3C3EE9401400302089B90012D1204C3A1
:1007D0009001311204CFC312048C405B90001AE0E8
:1007E000FEA3E0FFE4FCFD9001281204CFC3120435
:1007F0008C50449001281204C39000141204E7E9BD
:100800002FF9EA3EFAEB3DFB1202F8FB90012412AD
:1008100004C3741C2FF582E43400F583EBF09001DF
:10082000281204C37B017A00790078001203399002
:1008300001281204DB80339001311204C3EF24003D
:10084000FFEE3400FEED3410FDEC3400FCA907AAE5
:1008500006AB051220C0AB079001241204C3741C20
:100860002FF582E43400F583EBF09001311204C3DC
:100870007B017A007900780012033990013112046B
:10088000DB9001241204C37B017A00790078001206
:1008900003399001241204DB0207BB90011C1204EF
:1008A000C3C0079001201204C3AD07AC067B017AD8
:1008B00000791CD007120F9A90012CEFF0900120C4
:1008C0001204C37B017A0079007800120339900189
:1008D000201204DB020788904800E0FFEF4406FF87
:1008E000EFF0800690012C7401F090012CE0FFEFF6
:1008F000601090012CE0FFEF6401600690012C7401
:10090000FFF090012CE0FF22900000EFF09000013A
:10091000ECF0A3EDF0900003EAF0A3EBF0900006FA
:10092000E0FFEFD394005003020B07900006E0FFB6
:10093000EFD394014003020B07900000E0FFEF1299
:10094000050509550109550409820709AD0809D8AB
:100950000A00000A03900005E0FFEFD3940F401156
:100960007B0C7A0179181220C0900007EFF0020A80
:10097000087B0C7A01791C1220C0900007EFF0026E
:100980000A08900005E0FFEFD3940F40107B0C7A2B
:100990000179191220C0900007EFF0806B7B0C7A70
:1009A00001791D1220C0900007EFF0805B900005D8
:1009B000E0FFEFD3940F40107B0C7A01791A1220DC
:1009C000C0900007EFF080407B0C7A01791E122066
:1009D000C0900007EFF08030900005E0FFEFD39467
:1009E0000F40107B0C7A01791B1220C0900007EF9A
:1009F000F080157B0C7A01791F1220C0900007EF60
:100A0000F08005900007E4F0900007E0FFEF3395D9
:100A1000E0FEFDFC7B207A0079007800120354A8E8
:100A200004A905AA06AB07900001E0FEA3E0FFE4DD
:100A3000FCFD1203399000081204DB900008120438
:100A4000C3AB07AA06A905A804A804A905AA06AB72
:100A500007900003E0FEA3E0FFE4FCFD12035490C6
:100A6000000E1204DB7B007A807900780090000E83
:100A70001204C31203DF90000CEEF0A3EFF090001D
:100A800005E0FFEFC3940E504790000CE0FEA3E09A
:100A9000FF900005E0FDC3740E9DFDEFA8050880E2
:100AA00005CEC313CE13D8F9FF90000CEEF0A3EFE0
:100AB000F0900005E0FFEF04FF900006E0FEEE7509
:100AC000F003A424BFF582E43402F583EFF080162E
:100AD000900006E0FFEF75F003A424BFF582E43434
:100AE00002F583740FF090000CE0FEA3E0FF90008D
:100AF00006E0FDED75F003A424BDF582E43402F5B3
:100B000083EEF0A3EFF0227F0012203C2290000140
:100B1000EEF0A3EFF0900003EDF01220E29000055C
:100B2000EFF01220D8900006EEF0A3EFF090000650
:100B3000E0FEA3E0FF900001E0FCA3E0FDED6F709C
:100B400002EC6E7003020CA19043A2E0FFEF54018F
:100B5000FF900004EFF0900005E0FFEF705E900062
:100B600006E0FEA3E0FFEF4E600C900001E0FEA364
:100B7000E0FFEF4E7046900006E0FEA3E0FFEF4E70
:100B8000701D7B027A407980900001E0FCA3E0FDBB
:100B900012209B904082E0FFEF54BFFFEFF02290C5
:100BA0004082E0FFEF4440FFEFF07B027A40798023
:100BB000900001E0FCA3E0FD12209B22900004E0E5
:100BC000FFEF606C904001E4F09040107401F090F1
:100BD0004014E4F0904008E0FFEF547FFFEFF09006
:100BE0004082E0FFEF5408FF7E00EF4E600C900063
:100BF00001E0FEA3E0FFEF4E70367B027A407902FF
:100C0000900006E0FCA3E0FD12209B9040017407D9
:100C1000F0904001E0FFEF5401FF7E00EF4E70F1D5
:100C20009043A2E0FFEF54FEFFEFF0904001E4F0AC
:100C30009043A2E0FFEF5401FF7E00EF4E603A7B4D
:100C4000027A407902900001E0FCA3E0FD12209BB3
:100C5000900003E0FFEF60047F0280027F00EF441A
:100C600001FF904001EFF0904001E0FFEF5401FFE1
:100C70007E00EF4E602B80EF227B027A40798090DD
:100C80000001E0FCA3E0FD12209B9043A2C083C0C2
:100C900082E0FF900004E0FEEF4EFFD082D083EFB1
:100CA000F022900001EEF0A3EFF0900003EDF012BF
:100CB00020F6900005EFF01220EC900006EEF0A375
:100CC000EFF0900006E0FEA3E0FF900001E0FCA33F
:100CD000E0FDED6F7002EC6E7003020E369043A1E2
:100CE000E0FFEF5401FF900004EFF0900005E0FFFB
:100CF000EF705E900006E0FEA3E0FFEF4E600C9008
:100D00000001E0FEA3E0FFEF4E7046900006E0FE1B
:100D1000A3E0FFEF4E701D7B027A41790090000145
:100D2000E0FCA3E0FD12209B904102E0FFEF54BFE6
:100D3000FFEFF022904102E0FFEF4440FFEFF07B35
:100D4000027A417900900001E0FCA3E0FD12209BB3
:100D500022900004E0FFEF606C904001E4F09040CE
:100D6000147401F0904010E4F0904008E0FFEF545C
:100D70007FFFEFF0904102E0FFEF5408FF7E00EFAD
:100D80004E600C900001E0FEA3E0FFEF4E70367B5A
:100D9000027A407902900006E0FCA3E0FD12209B5D
:100DA0009040017407F0904001E0FFEF5401FF7E96
:100DB00000EF4E70F19043A1E0FFEF54FEFFEFF023
:100DC000904001E4F09043A1E0FFEF5401FF7E006A
:100DD000EF4E603A7B027A407902900001E0FCA37A
:100DE000E0FD12209B900003E0FFEF60047F028093
:100DF000027F00EF4401FF904001EFF0904001E0DE
:100E0000FFEF5401FF7E00EF4E602B80EF227B024C
:100E10007A417900900001E0FCA3E0FD12209B9054
:100E200043A1C083C082E0FF900004E0FEEF4EFFCC
:100E3000D082D083EFF0227B007A4679E81220C07E
:100E4000EF4405FD7B007A4679E81220CC750A0054
:100E5000E50AC39407503AAF0AEF75F005A42417CA
:100E6000F582E43425F583AF82AE838E088F09AE18
:100E700008AF098F828E831204F9AE08AF098F8202
:100E80008E83740393FC740493FD121FCA050A80B9
:100E9000BF7B087A007900121E99905883740AF07B
:100EA0007B017A5079031220C0EF4402FD7B017A66
:100EB0005079031220CC7B017A5079131220C0EFB5
:100EC0004402FD7B017A5079131220CC9043A0E0BC
:100ED000FFEF4440FF9043A0EFF09043C2E0FFEFEC
:100EE0004410FF9043C2EFF07B087A007994C0036E
:100EF000C002C0017B007A5179F090000A1204F020
:100F0000D001D002D0037F0A7E00121DA27B087A96
:100F10000079A0C003C002C0017B007A51796290C1
:100F2000000A1204F0D001D002D0037F087E001224
:100F30001DA29044F47401F0904322E0FFEF4408B6
:100F4000FF904322EFF09046ECE0FFEFC394055092
:100F500006904689743AF090480074F1F01210FA45
:100F600090480074B1F0121D217B007A4379A0C033
:100F700003C002C0017B007A4379B090000A1204DA
:100F8000F0D001D002D0037F0E7E00121DA290434C
:100F9000B0E0FFEF54FDFFEFF022900255EFF0902C
:100FA0000256ECF0A3EDF09002581204F07B007AA8
:100FB000007900C003C002C0019002D61204E7D03D
:100FC00082D083D0E06B7008E965827003EA6583A4
:100FD00070030210EE900255E0FFEFD3943F400CF7
:100FE000900260E4F0A37410F00210989002607414
:100FF00001F0A37420F0900255E0FF7E007C207D7C
:101000000012054FEF2400FFEE3400FEED3408FD22
:10101000EC3400FCC004C005C006C007900256E0D6
:10102000FEA3E0FF7C007D2012054FA804A905AABD
:1010300006AB07D007D006D005D0041203399002C2
:101040005C1204DB90025BE4F090025BE0FFEFC314
:101050009420504490025BE0FFE4FCFDFE90025CB3
:101060001204CF120339A907AA06AB051220C090BB
:1010700002D61204E7E92400F9EA3401FA90025B8F
:10108000E0FEEEFD7C00E92DF9EA3CFAEF120311D7
:1010900090025BE004F080B19002581204E7C003B4
:1010A000C002C0019002D61204E7A801AC02AD0351
:1010B000D001D002D0037E017F0012063890025585
:1010C000E0FFC007900256E0FCA3E0FD9002D612BC
:1010D00004E7900260E0FEA3E0FF900269EEF0A357
:1010E000EFF0D007121245900262EFF080069002F6
:1010F0006274FFF0900262E0FF227B007A40798008
:101100007D007C001220999040827450F07B087A18
:101110000079A8C003C002C0017B007A4179009029
:10112000000A1204F0D001D002D0037F047E001226
:101130001DA29043007402F09040007408F09042A9
:10114000007403F07B0C7A0179081220C09046A14C
:10115000EFF07B007A4279227D087C001220997B97
:10116000007A4279207D517C12122099900004E48B
:10117000F07F197E007D007C009000001204DB905F
:1011800000001204C3D3EF9400EE9400404E900090
:1011900004E0FFEF64036044904225E0FFEF540158
:1011A000FF7E00900004E0FEEE25E0FEEE4FFFEF34
:1011B0005403FF900004EFF07FE07E017D007C008F
:1011C000121E009000001204C37BFF7AFF79FF78A3
:1011D000FF1203399000001204DB80A3900000127C
:1011E00004C3EF4E70057F031220787B007A4079AC
:1011F000047D007C011220999040047407F0904017
:1012000006E4F09040087448F0904004E4F0904008
:10121000017402F090400B7404F09043A2E0FFEFE1
:101220004401FF9043A2EFF09043A1E0FFEF44019F
:10123000FF9043A1EFF09043A0E0FFEF4480FF90C8
:1012400043A0EFF022900263EFF0900264ECF0A371
:10125000EDF09002661204F0121E3BEF60030213E1
:1012600058900263E0FF9002661204E7900269E082
:10127000FCA3E0FD900270ECF0A3EDF012178E904D
:10128000026BEFF090026BE0FFEF64076003021364
:1012900053904722E0FFEF5402FF7E00EF4E7009AB
:1012A0007F017E00121E6C80E8904722E0FFEF5421
:1012B00002FF7E00EF4E600D904722E0FFEF131318
:1012C000543FFF80027FFFEF700790026BE4F080D5
:1012D0000690026B74FFF090026BE0FFEF70749069
:1012E0000263E0FF900264E0FCA3E0FD9002D9E01D
:1012F000FB9002DAE0FE900270EEF01218359002D8
:101300006BEFF090026BE0FFEF64077046904722AE
:10131000E0FFEF5402FF7E00EF4E70097F017E0078
:10132000121E6C80E8904722E0FFEF5402FF7E001F
:10133000EF4E600D904722E0FFEF1313543FFF8004
:10134000027FFFEF700790026BE4F0800690026B63
:1013500074FFF0122011800690026B7404F090026A
:101360006BE0FF2275930078007583467582E8E094
:101370004401F0009046ECE0F99046FAE0FAB90337
:10138000225420B40012B8001AEA901FFFF0740132
:10139000901FFEF09046F6F0901FFEE06005901F53
:1013A000FFE0FA90480074C0F075810C900000785E
:1013B000007920E4F0A3D8FCD9FAEA9002D1F00237
:1013C0000011750B1F750CFD120E37021409022057
:1013D00051E493A3F8E493A34003F68001F208DFFD
:1013E000F48029E493A3F85407240CC8C333C454ED
:1013F0000F4420C8834004F456800146F6DFE480A1
:101400000B0102040810204080901CDFE47E019351
:1014100060BCA3FF543F30E509541FFEE493A36072
:10142000010ECF54C025E060A840B8E493A3FAE4CD
:1014300093A3F8E493A3C8C582C8CAC583CAF0A31E
:10144000C8C582C8CAC583CADFE9DEE780BE90008E
:1014500000EFF09002BEE4F0900000E0FFEF6401C6
:10146000600302152F904E007434F0904E02740603
:10147000F0904E037408F0904E04E4F0904E05E4B2
:10148000F0904E06741FF0904E08E4F0904E09E480
:10149000F0904E0AE4F0904E147401F09058847469
:1014A00014F09058857405F09058867416F0905892
:1014B00087E4F090588A7444F090588B7448F09008
:1014C000588C7401F090588EE4F090588FE4F090AE
:1014D0005890740AF09058917443F07F52121BB7E1
:1014E0009058947458F0905895E4F090589A740578
:1014F000F090589B7402F090589CE4F090589DE452
:10150000F07F00121FAF7F337E037D007C009002CE
:10151000C41204DB7D017F2C7E00120B0D7D017F48
:10152000B67E00120CA27C1E7D6B7F1D1218D3228A
:10153000122027900001EFF09002B8E0FF90000029
:10154000EFF09043AAE0FFEF4401FFEFF09043AAD1
:10155000E0FFEF4410FFEFF09043BAE0FFEF4401EB
:10156000FFEFF09043BAE0FFEF4410FFEFF090463A
:10157000F8E0FFEF4402FFEFF09046F9E0FFEF44A0
:1015800002FFEFF0905891E0FFEF4403FFEFF07F90
:10159000037E00121E6C9046F8E0FFEF54FDFFEF53
:1015A000F09046F9E0FFEF54FDFFEFF0905877E040
:1015B000FFEF4406FFEFF0905882747AF09043A159
:1015C000E0FFEF4401FFEFF09043B1E0FFEF440193
:1015D000FFEFF09043A2E0FFEF4401FFEFF09043F4
:1015E000B2E0FFEF4401FFEFF09044DB7420F09095
:1015F00044C37420F0900001E0FF121FE322900228
:10160000B87401F09002C3E4F07F10121F147F1031
:10161000121F357D077F1D121A9F9058967407F090
:10162000905897E4F090589EE4F0905B07E0FFEF4D
:101630004418FFEFF0905893E4F0905B88E4F0904A
:101640005B89E4F0905880740AF0905881E4F0903F
:101650005883E4F09058887412F09058897413F00D
:1016600090588DE4F0904E017414F0900005740CC5
:10167000F09000067401F07B007A807D6B7C8D7F9A
:10168000021209089002B8E0FFEF75F003A424BF2E
:10169000F582E43402F583E0FF904E0EEFF0900205
:1016A000B8E0FFEF75F003A424BDF582E43402F541
:1016B00083E0FCA3E0FD7B027A4E790C12209B9024
:1016C00002B8E0FF12144E22C0E0C0F0C083C08216
:1016D000C085C084C086758600C093759300C0D055
:1016E00075D000C000C001C002C003C004C005C066
:1016F00006C007900012E4F0A3E4F0121DD690009B
:1017000012EEF0A3EFF0900012E0FEA3E0FFEE3047
:10171000E70A900012E4F0A3E4F0801B900012E0CE
:10172000FEA3E0FFC3EF94FFEE940F400A90001277
:10173000740FF0A374FFF07B017A007912C003C02C
:1017400002C0019002DB1204E79000171204F0902F
:10175000001AE4F0A37402F0D001D002D003120604
:101760005E9002DCE475F002120323D007D006D0AD
:1017700005D004D003D002D001D000D0D0D093D077
:1017800086D084D085D082D083D0F0D0E032900251
:101790006CEFF090026D1204F09002727407F090FA
:1017A0004722E0FFEF5402FF7E00EF4E607B904740
:1017B0002074B6F090472074D5F09047207402F062
:1017C000904722E0FFEF5402FF7E00EF4E705290F0
:1017D000026CE0FF904720EFF0900273E4F0A3E486
:1017E000F0900270E0FEA3E0FF900273E0FCA3E043
:1017F000FDC3ED9FEC9E503790026D1204E79002FE
:1018000073E0FEA3E0FFE92FF9EA3EFA1202F8FFC7
:10181000904720EFF0900273E475F00112032380EB
:10182000C09002727409F080069002727404F09005
:101830000272E0FF2290026CEFF090026DECF0A3D8
:10184000EDF090026FEBF09002717407F090472278
:10185000E0FFEF5402FF7E00EF4E606B9047207474
:10186000B6F090472074D8F09047207405F0904768
:1018700022E0FFEF5402FF7E00EF4E704290026CB8
:10188000E0FF904720EFF090026DE0FEA3E0FFEE56
:10189000FF7E00904720EFF090026DE0FEA3E0FF96
:1018A000EF54FFFF904720EFF090026FE0FF90476A
:1018B00020EFF0900270E0FF904720EFF0800E9054
:1018C00002717409F080069002717404F090027144
:1018D000E0FF22900001EFF0900002ECF0A3EDF0A9
:1018E000900001E0FFEFD3941F5003D38001C34069
:1018F000057F0012203C900001E0FFEF541FFF7EA7
:1019000000EF25E0FFEE33FEEF2400FFEE3444FE4F
:10191000AA06A9077B0112208C900004EEF0A3EF29
:10192000F0900001E0FF7E02EF8EF0A4FFAEF0EF3A
:101930002400FFEE3444FEAA06A9077B01900002B2
:10194000E0FEA3E0FFAD07AC0612209B900004E090
:10195000FEA3E0FF22904E14E0FFEF5403FF90003F
:1019600018EFF0900018E0FFEFD394015032904E42
:1019700011E0FF7E00900016EEF0A3EFF09000164D
:10198000E0FEA3E0FFEF7F00FE904E10E0FD7C0044
:10199000EE4CFEEF4DFF900016EEF0A3EFF0801F2F
:1019A0007B027A4E791012208C900016EEF0A3EF95
:1019B000F0900018E0FFEFB40305904E12E0FF90A6
:1019C00002BEE0FFEF60059002C3E4F0900016E075
:1019D000FEA3E0FF22121EED90025674FFF0121ECD
:1019E0003BEF704A7F01121B5CEF6407703B7B0189
:1019F0007A0279D97D02121A3AEFB4021D9002568A
:101A0000E4F0904722E0FFEF5402FF7E00EF4E70BB
:101A1000187F017E00121E6C80E8904722E0FFEFE5
:101A20005402FF7E00EF4E60C51220118006900226
:101A3000567404F0900256E0FF229002571204F010
:101A400090025AEDF090025BE4F090025AE0FF90B1
:101A5000025BE0FEEEC39F5040904722E0FFEF5450
:101A600001FF7E00EF4E6003D38001C340097F0178
:101A70007E00121E6C80E2904720E0FF9002571219
:101A800004E790025BE0FEE92EF9E43AFAEF120374
:101A90001190025BE004F080B190025BE0FF2290C5
:101AA0000000EFF0900001EDF0900001E0FFEFD3B7
:101AB00094075003D38001C340057F0012203C905F
:101AC0000000E0FFEFD3941F5003D38001C3400513
:101AD0007F0012203C900001E0FFEF5407FF7E00E2
:101AE000EF75F020A4FFAEF0900000E0FEEE541F72
:101AF000FE74802EF582E43444F583EFF0229002E8
:101B0000551204F0900258E4F0121EED7B007A00AA
:101B10007900C003C002C0019002551204E7D082D0
:101B2000D083D0E06B7008E965827003EA6583704A
:101B3000089002587401F0801D121E3BEF6008905F
:101B400002587404F0800F9002551204E79002D6F8
:101B50001204F0122011900258E0FF22900257EF79
:101B6000F09002587407F0904722E0FFEF5402FF14
:101B70007E00EF4E603590472074B6F09047207499
:101B8000E1F0904720740EF0904722E0FFEF5402FE
:101B9000FF7E00EF4E700C900257E0FF904720EF61
:101BA000F0800E9002587409F08006900258740478
:101BB000F0900258E0FF22900001EFF012202790F1
:101BC0000002EFF09046F8E0FFEF4403FFEFF090E3
:101BD00046F9E0FFEF4403FFEFF0900001E0FF90D3
:101BE0005892EFF07F037E00121E6C9046F8E0FFE3
:101BF000EF54FCFFEFF09046F9E0FFEF54FCFFEFED
:101C0000F0900002E0FF121FE322900003EFF0903B
:101C10000003E0FFEFC394025039900003E0FFEFB0
:101C200025E02411F582E43425F583E493FE740164
:101C300093FF8F828E83C083C082E0FF900003E019
:101C4000FEEE90251593FEEEF4FEEF5EFFD082D0FF
:101C500083EFF022900002EFF0900002E0FFEFC36C
:101C600094025036900002E0FFEF25E02411F58247
:101C7000E43425F583E493FE740193FF8F828E8311
:101C8000C083C082E0FF900002E0FEEE9025159335
:101C9000FEEF4EFFD082D083EFF022C2D5E830E7CE
:101CA0000FB2D5E4C39BFBE49AFAE499F9E498F8FF
:101CB000EC30E717B2D5121CD11203DFE4C39BFB53
:101CC000E49AFAE499F9E498F880031203DF30D536
:101CD0000DE4C39FFFE49EFEE49DFDE49CFC2243D3
:101CE00002DBFF21114102C3004102BE004102B9E3
:101CF000004102BF004102B8014302D60000004487
:101D000002CD016E36004402C800005DC04102CC25
:101D1000184402D22EE000004102DEFF4102DF0043
:101D2000007B0C7A0179CF1220C0900000EFF09078
:101D30000000E0FFEF5407FF90586EEFF0900000B6
:101D4000E0FFEFC4540FFFEF540FFF90586FEFF018
:101D500090516D7420F0905B007402F0905876748E
:101D600044F022900016EFF09002BEE0FFEF600C0E
:101D70009002C3E0FF900017EFF0800E904E01E05C
:101D8000FFEF5401FF900017EFF0900017E0FFEF16
:101D900064016008900016E0FFEF60CC900017E04F
:101DA000FF22758600EF4E6027EF60010E759300ED
:101DB00090000AE0F595A3E0F585A3E0F5848B9308
:101DC0008A838982E0A30586F0A31586DFF6DEF418
:101DD000E4F593F59522904E01E0FFEF4404FFEF08
:101DE000F01220A87F00121D63121955900014EE06
:101DF000F0A3EFF01220B4900014E0FEA3E0FF2265
:101E0000EC4D4E700D78FCEF24E950032840FD2284
:101E100000007BF178DA0000EF28FF78FFEE38FE53
:101E2000ED38FDEC38FC50E7EF2BFFEE38FEED38D7
:101E3000FDEC38FC40F2220502030490026C7404AD
:101E4000F012202790026DEFF09002DFE0FFEF70BC
:101E50000B9002DF7401F090026CE4F090026DE0F0
:101E6000FF121FE390026CE0FF222232EEFA900292
:101E7000CCE0F88FF0A4FFAEF0E88AF0A42EFEE5E7
:101E8000F03400FDEF24C9FF78FFEE38FEED38FD99
:101E9000E438FC5003021E0022ACEAADA08B938A0A
:101EA000838982E0F96017A3E0F5EAA3E0F5A0A337
:101EB000E060F4FAA3E0F8A3E0F2DAF8D9E98DA043
:101EC0008CEAE4F59322900002E4F0900002E0FF37
:101ED000EFC394025010900002E0FF121C0A900021
:101EE00002E004F080E59002DE74FFF02212202769
:101EF000900259EFF09043A0E0FFEF4408FFEFF0AD
:101F00009043B0E0FFEF4408FFEFF0900259E0FF8C
:101F1000121FE322900000EFF0904082C083C08245
:101F2000E0FF900000E0FEEE54F8FEEF4EFFD0829E
:101F3000D083EFF022900000EFF0904102C083C008
:101F400082E0FF900000E0FEEE54F8FEEF4EFFD07E
:101F500082D083EFF022900000EEF0A3EFF07B023E
:101F60007A447900900000E0FEA3E0FFAD07AC06E4
:101F700012209B221219D5900255EFF0900255E0E5
:101F8000FFEF70081219D5900255EFF0900255E05E
:101F9000FF229002B9E0FFEF70119002BFE0FFEF67
:101FA00070031215FE9002B97401F01215302290E0
:101FB0000001EFF0121EC6900001E0FF121C5490C9
:101FC0000001E0FF9002DEEFF022EC4D6011ED60C9
:101FD000010C8B938A838982E4F0A3DDFCDCFA7523
:101FE000930022EF54016004D2AF8002C2AFEF54DD
:101FF00002FF9044F4E054FD4FF022900000EFF017
:10200000900000E0FFEFC43354E0FF904480EFF015
:102010002212202790026CEFF09002DFE4F0900291
:102020006CE0FF121FE3229044F4E0F84402F0E871
:102030005402FF10AF012274014FFF2290FFFF12E4
:10204000052BEFF09046EA7401F090000112052B89
:1020500022121E6A121F92D2AF9044F474FDF01245
:10206000206580FE221221077E167FC8121F567F30
:1020700007121FFB12210022900005EFF0900005CF
:10208000E0FF900005EFF080FE228B938A83898227
:10209000E0FFA3E0FE759300228B938A838982ED93
:1020A000F0A3ECF075930022904E00E0FFEF4401A6
:1020B000FFEFF022904E00E0FFEF54FEFFEFF02222
:1020C0008B938A838982E0759300FF228B938A83A6
:1020D0008982EDF0759300227B027A40798012208C
:1020E0008C22904082E0FFEF5407FF227B027A416E
:1020F000790012208C22904102E0FFEF5407FF226A
:102100009044C07401F0229044C87401F02232322D
:10211000320000000000000000000000000000008D
:1021200000000000000000000000000000000000AF
:10213000000000000000000000000000000000009F
:10214000000000000000000000000000000000008F
:10215000000000000000000000000000000000007F
:10251000005B034324400000510000600051C000F4
:1025200010010000100001140008000140000A0022
:0A253000014C0002000150000020E1
:00000001FF
