:10000000025199008F828E83E0540100000070F845
:100010002278FFE4F6D8FD0251F70203DBE86480A2
:10002000F8E933E83360110460F0ED33EC33700924
:10003000E8FCE9FDEAFEEBFF220460DED3EB9FEA79
:100040009EE99DE8C2E78CF0C2F795F0400CE8CC41
:10005000F8E9CDF9EACEFAEBCFFB1203A685D0F092
:100060005804700320D5B3E80470075002B2D502DB
:1000700003E592D5EC0460F7E4CCC0E0C398F860E7
:100080003B94186008400DD0E0FB0203BDE4FBFA8E
:10009000C9FC8028E830E406E4C9FBE4CAFCE83087
:1000A000E305E4C9CACBFCE854076010F8C3E913C0
:1000B000F9EA13FAEB13FBEC13FCD8F130F52FC37C
:1000C000E49CFCEF9BFFEE9AFEED99FDD0E0FBEF88
:1000D0004E4D4C701222DB030203E2EC2CFCEF339A
:1000E000FFEE33FEED33FDED30E7EB0203BDEF2B0A
:1000F000FFEE3AFEED39FDD0E0FB50130BBB0003E1
:100100000203E5ED13FDEE13FEEF13FFEC13FC020B
:1001100003BDEC4D6011E8497017ED33EC3304601A
:100120000DE4FCFFFEFD22E933E8330470F802031E
:10013000DB1203A658046009E4CC24815006285041
:10014000090203E52840030203E2C0E0EB4A7044E1
:10015000B98006D0E0FB0203D1EF4E701CBD8008D1
:10016000EBFFEAFEE9FD80EBE98DF0A4FEE5F0028D
:1001700001FBE9CDF9EAFEEBFFEF89F0A4FCE5F025
:10018000CE89F0A42EFFE435F0CD89F0A42DFEE455
:1001900035F08067EF4E7005BD80D780C3EF8BF0E0
:1001A000A4ACF0EE8BF0A42CFCE435F0F8EF8AF070
:1001B000A42CE5F038FCE433CB8DF0A42CFCE5F066
:1001C0003BF8EE8AF0A42CFCE5F038F8E433CF8954
:1001D000F0A42CFCE5F038CF3400CE89F0A42FFF3A
:1001E000E5F03EFEE433C98DF0A42EFEE5F039CDF6
:1001F0008AF0A42FFFE5F03EFEE43DFD33D0E0FBA6
:1002000050070BBB000F0203E5EC2CFCEF33FFEEB5
:1002100033FEED33FD0203BD0203E5EC5D04600532
:10022000E8590470030203DB1203A6580460F6ECDD
:100230004860F2EC7004FDFEFF22C860DB2481C838
:100240005009C398600250060203E29850CAF58232
:10025000E9294B4A7005AB820203D175F0007C1A84
:100260007880C3EF9BEE9AED99400DC3EF9BFFEEB4
:100270009AFEED99FDE842F0DC23ACF0D0E0FFD02F
:10028000E0FED0E0FDAB8220E7101BEB60BAEC2C67
:10029000FCEF33FFEE33FEED33FD0203BDE803F860
:1002A00030E705C0F075F000EF2FFFEE33FEED33C1
:1002B000FD40B830E7C280AA74F8CC6480CCC86432
:1002C00080C8F58204604FC3EB9FF5F0EA9E42F0D0
:1002D000E99D42F0E89C45F0603C501DE5825FFFDF
:1002E000E582D313CB5BCBF42B5582FB50280ABAA3
:1002F000002409B9002008801DE5825BFBE582D35C
:1003000013CF5FCFF4C3132F5582FF50090EBE00E9
:10031000050DBD00010CC3EB9FF5F0EA9E42F0E92C
:100320009D42F0E89C45F06007CC4820E701B3EC23
:100330002275F020800E75F010800575F0087D00A4
:100340007E007F003392D530D503120615EC334082
:1003500010EF33FFEE33FEED33FDEC33FCD5F0ED63
:1003600022E5F0247EA2D513CC92E7CDCEFF22ED7C
:10037000D2E7CD33EC3392D524814006E4FFFEFD75
:10038000FC22FCE4CFCECDCC24E0501174FF80EDF4
:10039000C3CC13CCCD13CDCE13CECF13CF0470F07E
:1003A00030D5DE020615E9D2E7C933E833F892D535
:1003B000EDD2E7CD33EC33FC5002B2D522EC30E77E
:1003C000100FBF000C0EBE00080DBD00040BEB604B
:1003D00014A2D5EB13FCED92E7FD2274FFFCFDFEA9
:1003E000FF22E480F8A2D574FF13FC7D80E480EF47
:1003F000BB010689828A83E0225002E722BBFE020B
:10040000E32289828A83E49322BB010689828A835C
:10041000F0225002F722BBFE01F322BC000BBE000B
:1004200029EF8DF084FFADF022E4CCF875F008EFF1
:100430002FFFEE33FEEC33FCEE9DEC984005FCEE16
:100440009DFE0FD5F0E9E4CEFD22EDF8F5F0EE8447
:1004500020D21CFEADF075F008EF2FFFED33FD400C
:1004600007985006D5F0F222C398FD0FD5F0EA2286
:10047000C5F0F8A3E028F0C5F0F8E5821582700217
:100480001583E038F022BB010A89828A83E0F5F007
:10049000A3E022500687F009E71922BBFE07E3F527
:1004A000F009E3192289828A83E493F5F0740193B9
:1004B00022BB010A89828A83F0E5F0A3F02250066C
:1004C000F709A7F01922BBFE06F3E5F009F319229C
:1004D000EF2BFFEE3AFEED39FDEC38FC22C3EF9B2B
:1004E000FFEE9AFEED99FDEC98FC22E88FF0A4CC8B
:1004F0008BF0A42CFCE98EF0A42CFC8AF0EDA42C4B
:10050000FCEA8EF0A4CDA8F08BF0A42DCC3825F019
:10051000FDE98FF0A42CCD35F0FCEB8EF0A4FEA904
:10052000F0EB8FF0A4CFC5F02ECD39FEE43CFCEA11
:10053000A42DCE35F0FDE43CFC2275F00875820058
:10054000EF2FFFEE33FECD33CDCC33CCC58233C598
:10055000829BED9AEC99E58298400CF582EE9BFE29
:10056000ED9AFDEC99FC0FD5F0D6E4CEFBE4CDFA84
:10057000E4CCF9A88222B800C1B90059BA002DEC28
:100580008BF084CFCECDFCE5F0CBF97818EF2FFFC0
:10059000EE33FEED33FDEC33FCEB33FB10D7039968
:1005A0004004EB99FB0FD8E5E4F9FA227818EF2F15
:1005B000FFEE33FEED33FDEC33FCC933C910D70534
:1005C0009BE99A4007EC9BFCE99AF90FD8E0E4C953
:1005D000FAE4CCFB2275F010EF2FFFEE33FEED3383
:1005E000FDCC33CCC833C810D7079BEC9AE89940B0
:1005F0000AED9BFDEC9AFCE899F80FD5F0DAE4CD12
:10060000FBE4CCFAE4C8F922EF4BFFEE4AFEED49D9
:10061000FDEC48FC22C3E49FFFE49EFEE49DFDE464
:100620009CFC22EB9FF5F0EA9E42F0E99D42F0E847
:100630009C45F022E8600FECC313FCED13FDEE13B4
:10064000FEEF13FFD8F122E8600FEFC333FFEE3364
:10065000FEED33FDEC33FCD8F122E0FCA3E0FDA37A
:10066000E0FEA3E0FF22E0F8A3E0F9A3E0FAA3E0B4
:10067000FB22ECF0A3EDF0A3EEF0A3EFF022A42513
:1006800082F582E5F03583F58322E0FBA3E0FAA34F
:10069000E0F922EBF0A3EAF0A3E9F022E493FB7483
:1006A0000193FA740293F922D083D082F8E4937014
:1006B00012740193700DA3A393F8740193F58288CB
:1006C00083E4737402936860EFA3A3A380DFE50C57
:1006D0002582F582E50B3583F583B50B0485820C05
:1006E0002210AF0685820CF50B2285820CF50BD209
:1006F000AF22EC8EF0A4CCC5F0CCCDF8EFA4CEC5E3
:10070000F02DFDE43CFCE8A42EC8C5F03DFDE43C22
:10071000FCEFA4FFE5F028FEE43DFDE43CFC22E70D
:1007200009F608DFFA8046E709F208DFFA803E881A
:10073000828C83E709F0A3DFFA8032E309F608DF51
:10074000FA806EE309F208DFFA806688828C83E320
:1007500009F0A3DFFA805A89828A83E0A3F608DFD2
:10076000FA804E89828A83E0A3F208DFFA80428011
:10077000D280FA80C680D4805580F2802980108093
:10078000A680EA809A80A880DA80E280CA802988E0
:10079000848C8589828A83E493A30586F0A30586E9
:1007A000DFF5DEF3800B89828A83E493A3F608DF0A
:1007B000F9ECFAA9F0EDFB2288848C8589828A8382
:1007C000E0A30586F0A30586DFF6DEF480E38982E8
:1007D0008A83E493A3F208DFF980D688F0EF600102
:1007E0000E4E60CD88F0ED2402B4040050C3F582B3
:1007F000EB2402B4040050B9232345822390076FF1
:1008000073C0E0C0F0C083C082C085C084C086755C
:100810008600C093759300C0D075D000C000C001A1
:10082000C002C003C004C005C006C0077F04127622
:10083000C7900393E004F0900393E0FFEFD3943B61
:100840005003020DFB900394E004F0900393E4F056
:10085000900394E0FFEFD3943B5003020D549003B8
:1008600095E004F0900394E4F0900395E0FFEFD35B
:1008700094175003020C84900397E004F0900395C2
:10088000E4F0900398E475F001120470900396E090
:1008900004F0900396E0FFEFD39407400690039690
:1008A0007401F090038FE0FFEF5402FF7E00EF4EE3
:1008B000602C90039AE0FFEFB4022390039AE0FFCC
:1008C000EF90EE2C93FF7E00EF2401FFEE3400FE4C
:1008D000900397E0FD7C00D3ED9FEC9E5058900371
:1008E0008FE0FFEF5402FF7E00EF4E601F90039AEF
:1008F000E0FFEF6402601590039AE0FFEF90EE2CAA
:1009000093FF900397E0FEEED39F502A90038FE071
:10091000FFEF5402FF7E00EF4E6003020B219003B5
:100920009AE0FFEF90EE2C93FF900397E0FEEED35A
:100930009F5003020B2190039AE004F090039774F8
:1009400001F090039AE0FFEFD3940C5003020A7A6F
:1009500090039BE475F00112047090039A7401F007
:10096000900398E4F0A37401F090039BE0FEA3E0F1
:10097000FF7C017D9012041BED4C602590039BE0F1
:10098000FEA3E0FF7E00EF5403FFEF4E70179003CD
:100990009BE0FEA3E0FF7C007D6412041BED4C6035
:1009A000047F0180027F00EFB4011090038FE0FF0D
:1009B000EF4402FF90038FEFF0800E90038FE0FF73
:1009C000EF54FDFF90038FEFF090039DE0FFEF5495
:1009D00080FF7E00EF64804E70047F0180027F0004
:1009E000EF603690039BE0FEA3E0FF90038DE0FCF8
:1009F000A3E0FDEDB50714ECB50610900390E0FF01
:100A0000EF4480FF900390EFF0800E900390E0FFA2
:100A1000EF547FFF900390EFF090039DE0FF90066E
:100A200084EFF0900684E0FFEF6032900684E0FFF0
:100A3000900390E0FEEE5FFF900684E0FEEFB506C7
:100A4000047F0180027F00EF601390038FE0FFEFCF
:100A50004408FF90038FEFF0900390E4F09003922E
:100A6000E0FFEF5440FF7E00EF64404E70047F01D2
:100A700080027F00EF600312848390039DE0FFEF0C
:100A80005440FF7E00EF64404E70047F0180027F7F
:100A900000EF602C90039AE0FF90038CE0FEEEB52F
:100AA0000710900390E0FFEF4440FF900390EFF0B9
:100AB000800E900390E0FFEF54BFFF900390EFF0A3
:100AC00090039DE0FF900684EFF0900684E0FFEF36
:100AD0006032900684E0FF900390E0FEEE5FFF90AE
:100AE0000684E0FEEFB506047F0180027F00EF6020
:100AF0001390038FE0FFEF4408FF90038FEFF09017
:100B00000390E4F0900392E0FFEF5420FF7E00EFAB
:100B100064204E70047F0180027F00EF6003128426
:100B20008290039DE0FFEF5408FF7E00EF64084EC3
:100B300070047F0180027F00EF602C900396E0FF3D
:100B4000900388E0FEEEB50710900390E0FFEF44BD
:100B500008FF900390EFF0800E900390E0FFEF54B9
:100B6000F7FF900390EFF090039DE0FFEF5420FF1C
:100B70007E00EF64204E70047F0180027F00EF60F2
:100B800036900398E0FEA3E0FF90038AE0FCA3E028
:100B9000FDEDB50714ECB50610900390E0FFEF44AF
:100BA00020FF900390EFF0800E900390E0FFEF5451
:100BB000DFFF900390EFF090039DE0FFEF5410FFF4
:100BC0007E00EF64104E70047F0180027F00EF60B2
:100BD0002C900397E0FF900389E0FEEEB50710909C
:100BE0000390E0FFEF4410FF900390EFF0800E9031
:100BF0000390E0FFEF54EFFF900390EFF090039D20
:100C0000E0FF900684EFF0900684E0FFEF60329002
:100C10000684E0FF900390E0FEEE5FFF900684E024
:100C2000FEEFB506047F0180027F00EF60139003A2
:100C30008FE0FFEF4408FF90038FEFF0900390E404
:100C4000F0900392E0FFEF5408FF7E00EF64084E3F
:100C500070047F0180027F00EF6003127B399003F4
:100C600096E0FFEFB4011D900392E0FFEF5410FFF8
:100C70007E00EF64104E70047F0180027F00EF6001
:100C800003128481900395E0FFEFC3940C50109001
:100C9000038FE0FFEF54FBFF90038FEFF0800E9087
:100CA000038FE0FFEF4404FF90038FEFF090039D6C
:100CB000E0FFEF5404FF7E00EF64044E70047F01F8
:100CC00080027F00EF602C900395E0FF900387E0A7
:100CD000FEEEB50710900390E0FFEF4404FF900391
:100CE00090EFF0800E900390E0FFEF54FBFF900335
:100CF00090EFF090039DE0FF900684EFF090068463
:100D0000E0FFEF6032900684E0FF900390E0FEEE9B
:100D10005FFF900684E0FEEFB506047F0180027F4E
:100D200000EF601390038FE0FFEF4408FF90038F04
:100D3000EFF0900390E4F0900392E0FFEF5404FF93
:100D40007E00EF64044E70047F0180027F00EF603C
:100D500003127B0990039DE0FFEF5402FF7E00EF3A
:100D600064024E70047F0180027F00EF602C9003CC
:100D700094E0FF900386E0FEEEB50710900390E04C
:100D8000FFEF4402FF900390EFF0800E900390E09D
:100D9000FFEF54FDFF900390EFF090039DE0FF9074
:100DA0000684EFF0900684E0FFEF6032900684E066
:100DB000FF900390E0FEEE5FFF900684E0FEEFB54B
:100DC00006047F0180027F00EF601390038FE0FF35
:100DD000EF4408FF90038FEFF0900390E4F090034E
:100DE00092E0FFEF5402FF7E00EF64024E70047F3A
:100DF0000180027F00EF600312749690039DE0FF74
:100E0000EF5401FF7E00EF64014E70047F01800209
:100E10007F00EF602C900393E0FF900385E0FEEEEF
:100E2000B50710900390E0FFEF4401FF900390EFAF
:100E3000F0800E900390E0FFEF54FEFF900390EFE0
:100E4000F090039DE0FF900684EFF0900684E0FFB1
:100E5000EF6032900684E0FF900390E0FEEE5FFFCB
:100E6000900684E0FEEFB506047F0180027F00EF6C
:100E7000601390038FE0FFEF4408FF90038FEFF0C3
:100E8000900390E4F0900392E0FFEF5401FF7E00A6
:100E9000EF64014E70047F0180027F00EF60031257
:100EA0007182D007D006D005D004D003D002D00183
:100EB000D000D0D0D093D086D084D085D082D083BB
:100EC000D0F0D0E03290042AEFF0900432E4F0A3A6
:100ED000E4F090042BE4F090042BE0FFEFC39409BE
:100EE0004003020F8490042BE0FFEF75F00BA42465
:100EF00047F582E43402F583E4F090042BE0FFEF41
:100F000075F00BA42449F582E43402F583E4F090F3
:100F1000042BE0FFEF75F00BA42448F582E43402C3
:100F2000F583E4F090042BE0FFEF75F00BA4244A66
:100F3000F582E43402F583E4F090042BE0FFEF75D2
:100F4000F00BA4244CF582E43402F583E4F0900421
:100F50002BE0FFEF75F00BA4244FF582E43402F58B
:100F600083E4F0A3E4F090042BE0FFEF75F00BA412
:100F70002451F582E43402F583E4F090042BE0047C
:100F8000F0020ED790042AE0FFEF603A90042DE4BF
:100F9000F090042DE0FFEFC39402502A90042DE05E
:100FA000FF74AA2FF582E43402F583E4F090042D57
:100FB000E0FF74B92FF582E43402F583E4F0900485
:100FC0002DE004F080CB900242E0FFEFD39400507C
:100FD000030213EE900242E0FFEF14FF1272EF9053
:100FE0000434EEF0A3EFF0900434E0FEA3E0FF8FB2
:100FF000828E83A312069C90042F12069390042FD6
:1010000012068AE92407F9EA3400FA1203F0FFEF26
:101010005440FF7E00EF4E6010900241E0FFEF442D
:1010200001FF900241EFF0800E900241E0FFEF548B
:10103000FEFF900241EFF0900434E0FEA3E0FFEFEA
:101040002404FFEE3400FE900434EEF0A3EFF090A1
:101050000434E0FEA3E0FF8F828E83E493FF9004CC
:101060002BEFF090042D7401F090042DE0FFEFC3FE
:1010700094094003021303900434E0FEA3E0FF8FC1
:10108000828E83A312069CAE02AF01900436EEF06E
:10109000A3EFF090042CE4F090042BE0FF90042CDC
:1010A000E0FEEEC39F40030212FA900436E0FEA376
:1010B000E0FF8F828E83740293FFEF547FFF7E00E8
:1010C00090042DE0FD7C00ED6F7002EC6E60030279
:1010D00012D9900436E0FEA3E0FF8F828E83740461
:1010E00093FE740593FF90042DE0FDED75F00BA4C5
:1010F000244FF582E43402F583E0FCA3E0FDC3ED68
:101100009FEC9E502C900436E0FEA3E0FF8F828E71
:1011100083740493FE740593FF90042DE0FDED7538
:10112000F00BA4244FF582E43402F583EEF0A3EF34
:10113000F0900436E0FEA3E0FF8F828E83E493FFFD
:1011400074AA2FF582E43402F583E0FF900436E0C0
:10115000FCA3E0FD8D828C83740193FEEF6E60032F
:101160000212D9900436E0FEA3E0FF8F828E8374D2
:101170000393FFEF5403FF90042EEFF0900436E04A
:10118000FEA3E0FF8F828E83740293FFEF5480FFF3
:101190007E00EF4E700302121990042DE0FFEF75F0
:1011A000F00BA42448F582E43402F5837401F09036
:1011B000042EE0FFEFB401047F0780027F0D90044E
:1011C0002DE0FEEE75F00BA4244CF582E43402F51C
:1011D00083EFF0900436E0FEA3E0FF8F828E8374ED
:1011E0000693FFEF640A6018900436E0FEA3E0FF68
:1011F0008F828E83740693FFEF6402600302128F66
:1012000090042EE0FFEF6403700302128F90042D10
:10121000E0FF90044CEFF0807690042DE0FFEF7536
:10122000F00BA42448F582E43402F583E4F0900442
:101230002EE0FFEFB401047F0580027F0990042DAA
:10124000E0FEEE75F00BA4244CF582E43402F58345
:10125000EFF0900436E0FEA3E0FF8F828E837406E9
:1012600093FFEF640A6014900436E0FEA3E0FF8F62
:10127000828E83740693FFEFB4021490042EE0FF75
:10128000EF6403600A90042DE0FF90044DEFF090AE
:101290000436E0FEA3E0FF8F828E83740293FF90FA
:1012A000042DE0FEEE75F00BA4244BF582E434022D
:1012B000F583EFF0900436E0FEA3E0FF8F828E838B
:1012C000740393FF90042DE0FEEE75F00BA4244709
:1012D000F582E43402F583EFF0900436E0FEA3E0FB
:1012E000FFEF2407FFEE3400FE900436EEF0A3EF8C
:1012F000F090042CE004F002109890042DE004F02B
:10130000021069900434E0FEA3E0FF8F828E83A375
:1013100012069CAE02AF01900436EEF0A3EFF090FF
:10132000042DE4F090042BE0FF90042DE0FEEEC3CA
:101330009F5053900436E0FEA3E0FF8F828E83E43B
:1013400093FF900436E0FCA3E0FD8D828C83740251
:1013500093FEEE547FFEEE75F00BA42451F582E46B
:101360003402F583EFF0900436E0FEA3E0FFEF24B3
:1013700007FFEE3400FE900436EEF0A3EFF0900489
:101380002DE004F0809E12685E9002B6EEF0A3EFAE
:10139000F090042B7401F090042BE0FFEFC394094C
:1013A0005049900432E0FEA3E0FF90042BE0FDEDF5
:1013B00075F00BA4244DF582E43402F583EEF0A31E
:1013C000EFF090042BE0FFEF75F00BA4244FF582B3
:1013D000E43402F583E0FEA3E0FF900432EE8FF0E8
:1013E00012047090042BE004F080AC1232A822901A
:1013F0000494E4F07B007A0079009004961206933E
:101400009002ACE4F0A3E4F0906000E0FFEF5480C1
:10141000FF7E00EF64804E60030216C3906001E01F
:10142000FFEF1206A815E500143506167408169489
:101430000A00001889906003E0FFEFB401351280C4
:101440000590049BEEF0A3EFF090049BE0FEA3E078
:10145000FF8F828E83A312069C9002AE1206939099
:1014600002ACE4F0A37412F0126BF8900494EFF065
:10147000021889906003E0FFEF6402706B906002D5
:10148000E0FF1272EF90049BEEF0A3EFF090049B4C
:10149000E0FEA3E0FF8F828E83A312069C9002AE33
:1014A0001206939002AE12068AE92403F9EA340088
:1014B000FA1203F0FF7E00EF7F00FE9002AE1206EC
:1014C0008AE92402F9EA3400FA1203F0FD7C00EE06
:1014D0004CFEEF4DFF9002ACEEF0A3EFF0126BF874
:1014E000900494EFF0021889906003E0FFEF64032A
:1014F00060030215DA900499E4F07BFF7AED7946F7
:10150000900496120693900499E0FF906002E0FE2A
:10151000EED39F403D90049612068A1203F0FFEF2F
:10152000603090049612068A1203F0FF90049AEF3E
:10153000F090049612068A90049AE0FF7E00E92F4C
:10154000F9EA3EFA900496120693900499E004F0AA
:1015500080B4906002E0FFEFB4EE0C7BFF7AED798F
:10156000C4900496120693906002E0FFEF60309002
:10157000ED01E493FF906002E0FEEEB507217BFFF2
:101580007AED798B9004961206937B017A03794A5F
:10159000124FB87B017A03794A9004961206939011
:1015A000049612068A1203F0FFEF70030218899066
:1015B000049612068A1203F0FF7E009002ACEEF051
:1015C000A3EFF090049612068A9002AE12069312D0
:1015D0006BF8900494EFF00218891264CB90049495
:1015E000EFF0021889906000E0FFEF5403FFEF1264
:1015F00006A8163F0015FC02000018899002ACE412
:10160000F0A37402F0906004E0FFEF547FFFEF75E9
:10161000F00BA42449F582E43402F583E0FF900640
:101620001DEFF090061EE4F07B017A06791D900212
:10163000AE120693126BF8900494EFF002188990A2
:1016400002ACE4F0A37402F0900241E0FF90061DAA
:10165000EFF090061EE4F07B017A06791D9002AE51
:10166000120693126BF8900494EFF0021889021896
:10167000890218899002ACE4F0A37401F07B017A2E
:101680000279429002AE120693126BF8900494EF26
:10169000F00218899002ACE4F0A37401F0906004A9
:1016A000E0FF74AA2FF9E43402FA7B019002AE1233
:1016B0000693126BF8900494EFF0021889021889CF
:1016C000021889906001E0FFEF1206A81767011861
:1016D000020316DF0516F40917140B000018899091
:1016E0006002E0FF9002BBEFF012803A900494EFAA
:1016F000F0021889906002E0FF900242EFF0900241
:10170000B87401F07F01120EC512803A900494EF74
:10171000F0021889126088EF700302188990600443
:10172000E0FF900495EFF0900495E0FF9002B4EF95
:10173000F09002B87401F012188F900495E0FF74D5
:10174000AA2FF582E43402F583E0FF900495E0FED1
:1017500074B92EF582E43402F583EFF012803A90EA
:101760000494EFF0021889906000E0FFEF5403FF4B
:10177000EF1206A817970017BD0117810200001885
:1017800089906002E0FFEF6003021889123FF29037
:101790000494EFF0021889906002E0FFEF640160AA
:1017A00003021889900241E0FFEF54FDFF900241CF
:1017B000EFF012803A900494EFF0021889906004E0
:1017C000E0FFEFC394024003021889906004E0FF39
:1017D00074BC2FF582E43402F583C083C082E0FF3D
:1017E000906002E0FEEEF4FEEF5EFFD082D083EF69
:1017F000F012803A900494EFF002188902188902DE
:101800001889906000E0FFEF5403FFEF1206A8185C
:101810002E00185001181C0200001889906002E088
:10182000FFEF7065124DCB900494EFF0805B9060F9
:1018300002E0FFEF64017051900241E0FFEF4402CB
:10184000FF900241EFF012803A900494EFF080395B
:10185000906004E0FFEFC39402502E906004E0FF1C
:1018600074BC2FF582E43402F583C083C082E0FFAC
:10187000906002E0FEEEF4FEEF5EFFD082D083EFD8
:10188000F012803A900494EFF0900494E0FF2290DC
:101890000242E0FFEFD394005003021C709002421A
:1018A000E0FFEF14FF1272EF9004A2EEF0A3EFF04E
:1018B0009004A2E0FEA3E0FFEF2404FFEE3400FE5C
:1018C0009004A2EEF0A3EFF09004A2E0FEA3E0FFEC
:1018D0008F828E83E493FF90049DEFF09004A2E04A
:1018E000FEA3E0FF8F828E83A312069CAE02AF019F
:1018F0009004A4EEF0A3EFF090049FE4F090049D18
:10190000E0FF90049FE0FEEEC39F4003021C709036
:1019100004A4E0FEA3E0FF8F828E83E493FF74B9FA
:101920002FF582E43402F583E0FF9004A4E0FCA3E9
:10193000E0FD8D828C83E493FE74AA2EF582E4345C
:1019400002F583E0FEEE6F7003021C4F9004A4E0EA
:10195000FEA3E0FF8F828E83E493FF74AA2FF582AB
:10196000E43402F583E0FF9004A4E0FCA3E0FD8DE5
:10197000828C83740193FEEF6E6003021C4F90040F
:10198000A4E0FEA3E0FF8F828E83E493FF906004C7
:10199000E0FEEF6E6003021C4F9004A4E0FEA3E0A3
:1019A000FF8F828E83740293FFEF547FFF90049E1B
:1019B000EFF090049EE0FF7E00EF24FFFFEE34FF87
:1019C000FEEFC4F8540FC868FFEEC454F048FE9010
:1019D00004A1EFF09004A4E0FEA3E0FF8F828E83C9
:1019E000740393FFEF5403FF9004A0EFF09004A45E
:1019F000E0FEA3E0FF8F828E83740293FFEF54809A
:101A0000FF7E00EF4E603C90049EE0FFEF75F00B10
:101A1000A42448F582E43402F5837401F09004A014
:101A2000E0FFEFB401047F0780027F0D90049EE089
:101A3000FEEE75F00BA4244CF582E43402F583EF3E
:101A4000F0803990049EE0FFEF75F00BA42448F578
:101A500082E43402F583E4F09004A0E0FFEFB401E7
:101A6000047F0580027F0990049EE0FEEE75F00B76
:101A7000A4244CF582E43402F583EFF09004A1E055
:101A8000FF7E00EF240EFFEE3460FE8F828E8374A3
:101A900001F09004A4E0FEA3E0FF8F828E83740423
:101AA00093FE740593FF90049EE0FDED75F00BA48A
:101AB000244FF582E43402F583EEF0A3EFF09004B6
:101AC000A4E0FEA3E0FF8F828E83740293FF900454
:101AD0009EE0FEEE75F00BA4244BF582E43402F593
:101AE00083EFF09004A4E0FEA3E0FF8F828E837466
:101AF0000393FF90049EE0FEEE75F00BA42447F5DF
:101B000082E43402F583EFF090049EE0FFEF75F07D
:101B10000BA4244AF582E43402F583E4F090049E99
:101B2000E0FFEF75F00BA4244FF582E43402F58357
:101B3000E0FEA3E0FFEEFF7E009004A1E0FEEEFDDC
:101B40007C00ED240CFDEC3460FC8D828C83EFF086
:101B500090049EE0FFEF75F00BA4244FF582E4346F
:101B600002F583E0FEA3E0FFEF54FFFF9004A1E045
:101B7000FEEEFD7C00ED240DFDEC3460FC8D828CCE
:101B800083EFF090049EE0FFEF75F00BA4244DF579
:101B900082E43402F583E0FEA3E0FFEF54FFFF9000
:101BA00004A1E0FEEEFD7C00ED2486FDEC3460FC3B
:101BB0008D828C83EFF090049EE0FFEF75F00BA414
:101BC000244DF582E43402F583E0FEA3E0FFEEFF4E
:101BD0007E009004A1E0FEEEFD7C00ED2487FDEC8C
:101BE0003460FC8D828C83EFF090049EE0FFEF75F3
:101BF000F00BA4244DF582E43402F583E0FEA3E06B
:101C0000FFEF54FFFF9004A1E0FEEEFD7C00ED2409
:101C100084FDEC3460FC8D828C83EFF090049EE0B8
:101C2000FFEF75F00BA4244DF582E43402F583E058
:101C3000FEA3E0FFEEFF7E009004A1E0FEEEFD7C3F
:101C400000ED2485FDEC3460FC8D828C83EFF090F8
:101C500004A4E0FEA3E0FFEF2407FFEE3400FE90B3
:101C600004A4EEF0A3EFF090049FE004F00218FD4E
:101C700022900398E4F0A3E4F0900397E0FF7E0045
:101C8000900398EE8FF012047090039BE0FEA3E0A7
:101C9000FF7C017D9012041BED4C602590039BE0BE
:101CA000FEA3E0FF7E00EF5403FFEF4E701790039A
:101CB0009BE0FEA3E0FF7C007D6412041BED4C6002
:101CC000047F0180027F00EFB4011090038FE0FFDA
:101CD000EF4402FF90038FEFF0800E90038FE0FF40
:101CE000EF54FDFF90038FEFF09005FDE4F09003BB
:101CF0009AE0FF7E00EF24FFFFEE34FFFE9005FD2B
:101D0000E0FD7C00C3ED9FEC9E501E9005FDE0FFC2
:101D1000EF90EE2D93FF7E00900398EE8FF012046B
:101D2000709005FDE004F080C590038FE0FFEF5454
:101D300002FF7E00EF64024E70047F0180027F008C
:101D4000EF601590039AE0FFEFD39402400A9003EE
:101D500098E475F001120470900397E0FF90039AE5
:101D6000E0FD90039BE0FAA3E0FB12612BEF04FF80
:101D7000900396EFF0900396E0FFEFD394004009B4
:101D8000900396E02400F08013900396E0FFEFF4B8
:101D900004FFC374079FFF900396EFF0900395E054
:101DA000FFEFC3940C501090038FE0FFEF54FBFF44
:101DB00090038FEFF0800E90038FE0FFEF4404FF5D
:101DC00090038FEFF090039DE0FFEF5401FF7E0042
:101DD000EF64014E70047F0180027F00EF602C9061
:101DE0000393E0FF900385E0FEEEB50710900390AB
:101DF000E0FFEF4401FF900390EFF0800E9003901E
:101E0000E0FFEF54FEFF900390EFF090039DE0FFA2
:101E1000EF5402FF7E00EF64024E70047F018002E7
:101E20007F00EF602C900394E0FF900386E0FEEECD
:101E3000B50710900390E0FFEF4402FF900390EF8E
:101E4000F0800E900390E0FFEF54FDFF900390EFC1
:101E5000F090039DE0FFEF5404FF7E00EF64044E1A
:101E600070047F0180027F00EF602C900395E0FFFB
:101E7000900387E0FEEEB50710900390E0FFEF447B
:101E800004FF900390EFF0800E900390E0FFEF547A
:101E9000FBFF900390EFF090039DE0FFEF5408FFED
:101EA0007E00EF64084E70047F0180027F00EF60C7
:101EB0002C900396E0FF900388E0FEEEB5071090AB
:101EC0000390E0FFEF4408FF900390EFF0800E9046
:101ED0000390E0FFEF54F7FF900390EFF090039D25
:101EE000E0FFEF5420FF7E00EF64204E70047F017E
:101EF00080027F00EF6036900398E0FEA3E0FF9041
:101F0000038AE0FCA3E0FDEDB50714ECB5061090E4
:101F10000390E0FFEF4420FF900390EFF0800E90DD
:101F20000390E0FFEF54DFFF900390EFF090039DEC
:101F3000E0FFEF5410FF7E00EF64104E70047F014D
:101F400080027F00EF602C900397E0FF900389E010
:101F5000FEEEB50710900390E0FFEF4410FF9003F2
:101F600090EFF0800E900390E0FFEF54EFFF9003AE
:101F700090EFF090039DE0FFEF5440FF7E00EF6490
:101F8000404E70047F0180027F00EF602C90039A26
:101F9000E0FF90038CE0FEEEB50710900390E0FFA9
:101FA000EF4440FF900390EFF0800E900390E0FF2D
:101FB000EF54BFFF900390EFF090039DE0FFEF54CC
:101FC00080FF7E00EF64804E70047F0180027F00FE
:101FD000EF603690039BE0FEA3E0FF90038DE0FCF2
:101FE000A3E0FDEDB50714ECB50610900390E0FFFB
:101FF000EF4480FF900390EFF0800E900390E0FF9D
:10200000EF547FFF900390EFF090039DE0FF900569
:10201000FEEFF09005FEE0FFEF60329005FEE0FF7E
:10202000900390E0FEEE5FFF9005FEE0FEEFB50648
:10203000047F0180027F00EF601390038FE0FFEFC9
:102040004408FF90038FEFF0900390E4F022900596
:10205000157410F0900317E0FFEF64017051904089
:1020600005E0FFEF54F0FF7E00EEC4F854F0C868BE
:10207000FEEFC4540F48FFEF04FFAB07E4FAF9F892
:10208000904200E0FFEF5407FFEF90EE5593FFE41E
:10209000FCFDFE1205767B4B7A0079007800120475
:1020A000EB127A0090400BE0FFEF4404FFEFF0905A
:1020B0000316E0FFEF640160030221497F0012551F
:1020C0002E904210E0FF900516E4F0A37405F09006
:1020D0000516E0FEA3E0FFD3EF9400EE9400406904
:1020E000904005E0FFEF54F0FF7E00EEC4F854F09E
:1020F000C868FEEFC4540F48FFEF04FFAB07E4FAD3
:10210000F9F8904200E0FFEF5407FFEF90EE55938F
:10211000FFE4FCFDFE1205767BC87A0079007800AA
:102120001204EB127A00904210E0FFEF5480FF7E21
:1021300000EF4E7007900515E4F0800D90051674C1
:10214000FF75F0FF12047080867F2D126F399003A7
:102150000AE0FFEF6402600990030AE0FFEFB403B6
:102160001E900312E0FF904004E0FEEE6F600890C6
:102170000312E0FF12824590030AE0FF127EDF9017
:10218000030CE0FFEF5440FF7E00EF4E601690031B
:102190000BE0FFEF90EE5C93FFEFB403077F0812B4
:1021A0003E74803590030BE0FFEF90EE5C93FF12DE
:1021B0003E7490030CE0FFEF5440FF7E00EF4E6052
:1021C0000D904200E0FFEF4440FFEFF0800B9042A3
:1021D00000E0FFEF54BFFFEFF090030EE0FFEFB41D
:1021E00001149043A0E0FFEF5410FF7E00EF4E700B
:1021F000057F001268D790030EE0FFEF7012904346
:10220000A0E0FFEF5410FF7E00EF4E60031280B796
:1022100090030FE0FF127239900311E0FFEFB40159
:102220000312833C904000E0FFEF5430FF7E0090AB
:102230000310E0FD7C00ED6F7002EC6E60169040C4
:1022400000E0FFEF54CFFF900310E0FEEF4EFF9051
:102250004000EFF0900315E0FFEF6401704B7F004A
:10226000125FE4904005E0FFEF54F0FF7E00EEC403
:10227000F854F0C868FEEFC4540F48FFEF04FFABFA
:1022800007E4FAF9F8904200E0FFEF5407FFEF90FF
:10229000EE5593FFE4FCFDFE1205767BFA7A007999
:1022A0000078001204EB127A0090030AE0FFEF605E
:1022B0000990030AE0FFEFB4011E900312E0FF90C3
:1022C0004004E0FEEE6F6008900312E0FF128245CA
:1022D00090030AE0FF127EDF904007E0FF7E00EFF0
:1022E0007F00FE900518EEF0A3EFF0900518E0FED9
:1022F000A3E0FF904006E0FD7C00EE4CFEEF4DFFBA
:10230000900518EEF0A3EFF0900518E0FEA3E0FFB3
:10231000900313E0FCA3E0FDED6F7002EC6E600B28
:10232000900313E0FEA3E0FF125936904800E0FF4F
:10233000EF543FFF90030DE0FEEF4EFF904800EF9B
:10234000F0900308E0FF9043A1EFF0900309E0FF55
:102350009043A2EFF0229000001206939000031227
:10236000068AAF01AE02AD037C009001191206721D
:1023700090011912065AEF54FFFFEE54FFFEED5480
:1023800000FDEC5400FC900119120672900003123B
:10239000068AAF01AE02AD037C007B007A0079FFB4
:1023A0007800D312062340030225DC9000031206B6
:1023B0008AAF01AE02AD037C00A804A905AA06AB52
:1023C00007900006E0FEA3E0FFE4FCFD1204D07BD2
:1023D000FF7AFF79FF7800C312062350030225DC41
:1023E000127F5A7B017A0179211271247B007A00D5
:1023F0007901780090011912065A120576900108A9
:102400001206727B007A0179007800900119120699
:102410005A120576EF54FFFFEE5400FEED5400FD16
:10242000EC5400FC90010C1206727F007E017D00CE
:102430007C0090010C1206661204EBC004C005C0BB
:1024400006C0077F007E007D017C00900108120617
:10245000661204EBA804A905AA06AB07D007D006AC
:10246000D005D0041204D090011D1206727F007EA8
:10247000007D007C00900114120672900118E4F0B7
:10248000900006E0FEA3E0FFE4FCFD9001141206BC
:1024900066C312062340030225CF900118E0FFEF28
:1024A00060030225CF7F007E007D007C009001103C
:1024B00012067290011012065AC3EE9401400302F4
:1024C000259390011912065A90011D120666C31237
:1024D0000623405B900006E0FEA3E0FFE4FCFD90D5
:1024E0000114120666C3120623504490011412060A
:1024F0005A90000012068AE92FF9EA3EFAEB3DFBFA
:102500001203F0FB90011012065A74082FF582E4B2
:102510003400F583EBF090011412065A7B017A0027
:10252000790078001204D090011412067280339062
:10253000011D12065AEF2400FFEE3400FEED3410A8
:10254000FDEC3400FCA907AA06AB051283B4AB0767
:1025500090011012065A74082FF582E43400F583B6
:10256000EBF090011D12065A7B017A007900780089
:102570001204D090011D12067290011012065A7BAF
:10258000017A00790078001204D0900110120672CE
:102590000224B390010812065AC00790010C1206DB
:1025A0005AAD07AC067B017A007908D00712444384
:1025B000900118EFF090010C12065A7B017A007915
:1025C0000078001204D090010C1206720224809050
:1025D0004800E0FFEF4406FFEFF08006900118741A
:1025E00001F0900118E0FFEF6010900118E0FFEF9C
:1025F0006401600690011874FFF0900118E0FF225A
:1026000090046712069390046AEDF090046BE4F076
:10261000A3E4F090046DE4F0A3E4F090046FE4F020
:102620009003A0E0FEA3E0FF9003B2E0FCA3E0FD76
:10263000C3ED9FFFEC9EFE90046DEEF0A3EFF090D3
:10264000046DE0FEA3E0FFC3EE6480948050189018
:10265000046DE0FEA3E0FFEF24A8FFEE3461FE90DE
:10266000046DEEF0A3EFF090046AE0FF7E009004AA
:102670006DE0FCA3E0FDC3ED9FEE6480F8EC6480A8
:102680009850219003A0E0FEA3E0FF9003B2E0FC8D
:10269000A3E0FDED6F7002EC6E600990046F7401B1
:1026A000F002284A90046AE0FF7E009003A0E0FC5C
:1026B000A3E0FDEF2DFFEE3CFED3EF94A8EE946176
:1026C000506C90046712068AC003C002C0019003D8
:1026D000A0E0FEA3E0FF74492FF9748B3EFA7BFF64
:1026E00090000312069390046AE0FF7E00900006BB
:1026F000EEF0A3EFF0D001D002D0031223569004E5
:102700006AE0FF7E009003A0EE8FF0120470900349
:10271000A0E0FEA3E0FFEF64A87003EE6461600335
:102720000227EF9003A0E4F0A3E4F00227EF900368
:10273000A0E0FEA3E0FFC374A89FFF74619EFE901B
:10274000046DEEF0A3EFF090046712068AC003C098
:1027500002C0019003A0E0FEA3E0FF74492FF974CA
:102760008B3EFA7BFF90000312069390046DE0FE0F
:10277000A3E0FF900006EEF0A3EFF0D001D002D06E
:102780000312235690046712068A90046DE0FEA39C
:10279000E0FFE92FF9EA3EFAC003C002C0017BFF67
:1027A0007A8B794990000312069390046AE0FF7EC9
:1027B0000090046DE0FCA3E0FDC3EF9DFFEE9CFEE6
:1027C000900006EEF0A3EFF0D001D002D003122368
:1027D0005690046AE0FF7E0090046DE0FCA3E0FDEB
:1027E000C3EF9DFFEE9CFE9003A0EEF0A3EFF07B05
:1027F000017A0379A0C003C002C0019003A2E0FEE9
:10280000A3E0FFEF25E0FFEE33FE74842FF974841C
:102810003EFA7BFF900003120693900006E4F0A3BB
:102820007402F0D001D002D0031223569003B2E01C
:10283000FEA3E0FF9003A0E0FCA3E0FDEDB5070AD6
:10284000ECB5060690046F7401F090046FE0FF226F
:1028500090054FEFF0900550ECF0A3EDF01281D70A
:10286000900552EFF0904393E0FFEF5408FF7E0095
:10287000EF4E700D904683E0FFEF541FFFEFF080A6
:1028800009900552E0FF12809F229046ECE0FFEF96
:10289000C39405501A904689E0FFEF5401FF7E0073
:1028A000EF4E7003D38001C340057F0012819890E2
:1028B00046F5E0FFEF5407FF7E00EF4E603990468B
:1028C000ECE0FFEFC3940550077F0012819880274A
:1028D000904689E0FFEF5401FF7E00EF4E701290AA
:1028E000031EE4F0904689E0FFEF4401FFEFF08023
:1028F0000690031E7401F0122A7790054FE0FFEF57
:10290000C39402402A90054FE0FFEFD3940D501F6F
:1029100090054FE0FFEF14FF12694C900550E0FE68
:10292000A3E0FFEE4408FE900550EEF0A3EFF09018
:10293000054FE0FFEFB40117127CFE900550E0FE5A
:10294000A3E0FFEE4408FE900550EEF0A3EFF090F8
:102950004398E0FF90031FEFF0900550E0FEA3E0E6
:10296000FFEEC4F854F0C868FEEFC4540F48FF905F
:102970004398EFF0904399E0FF900320EFF090052B
:1029800050E0FEA3E0FFEF540FFF904399EFF0906B
:10299000439AE0FF900321EFF0900550E0FEA3E0A2
:1029A000FFEEC4540FFF7E00EF5401FF90439AEFF7
:1029B000F0904200E0FFEF5407FF7E00EF4E7008FA
:1029C0009003487401F0801E900348E4F0904200A8
:1029D000E0FFEF5407FF900347EFF0904200E0FF65
:1029E000EF54F8FFEFF0904393E0FFEF54F8FFEF60
:1029F0004403FF904393EFF0904393E0FF00000007
:102A0000900348E0FFEF64016016904200E0FFEFA2
:102A100054F8FF900347E0FEEF4EFF904200EFF0C6
:102A20001245A39046F5E0FFEF5407FF7E00EF4EFE
:102A3000601E9046ECE0FFEFC39405401390031E28
:102A4000E0FFEF700B904689E0FFEF54FEFFEFF0E0
:102A500090031FE0FF904398EFF0900320E0FF9079
:102A60004399EFF0900321E0FF90439AEFF0900537
:102A700052E0FF12809F22905A00E0FF900324EF63
:102A8000F0905A02E0FF900325EFF0905A03E0FF28
:102A9000900326EFF0905A04E0FF900327EFF090A8
:102AA0005A06E0FF900328EFF0905A08E0FF9003E9
:102AB00029EFF0905A0AE0FF90032AEFF0905A10A5
:102AC000E0FF90032BEFF0905A12E0FF90032CEF01
:102AD000F0905A13E0FF90032DEFF0905A14E0FFAE
:102AE00090032EEFF0905A16E0FF90032FEFF09036
:102AF0005A18E0FF900330EFF0905A1AE0FF90036D
:102B000031EFF0905A20E0FF900332EFF0905A221C
:102B1000E0FF900333EFF0905A23E0FF900334EF8F
:102B2000F0905A24E0FF900335EFF0905A26E0FF32
:102B3000900336EFF0905A28E0FF900337EFF090C3
:102B40005A2AE0FF900338EFF0905A30E0FF9003EC
:102B500039EFF0905A32E0FF90033AEFF0905A3399
:102B6000E0FF90033BEFF0905A34E0FF90033CEF1E
:102B7000F0905A36E0FF90033DEFF0905A38E0FFB6
:102B800090033EEFF0905A3AE0FF90033FEFF09051
:102B90005A00E4F0905A02E4F0905A03E4F0905A9C
:102BA00004E4F0905A06E4F0905A08E4F0905A0ACF
:102BB000E4F0905A10E4F0905A12E4F0905A13E4C2
:102BC000F0905A14E4F0905A16E4F0905A18E4F099
:102BD000905A1AE4F0905A20E4F0905A22E4F090CF
:102BE0005A23E4F0905A24E4F0905A26E4F0905AE4
:102BF00028E4F0905A2AE4F0905A30E4F0905A32E7
:102C0000E4F0905A33E4F0905A34E4F0905A36E409
:102C1000F0905A38E4F0905A3AE4F09046E8E0FF39
:102C2000EF5404FF7E00EF4E603390031C7401F0FC
:102C300090500BE0FFEF540EFF90031DEFF090500B
:102C40000BE0FFEF54F1FFEF440CFF90500BEFF05F
:102C50009046E8E0FFEF54FBFFEFF0800590031C87
:102C6000E4F0904322E0FFEF5408FF7E00EF4E6057
:102C7000129003497401F0904322E0FFEF54F7FFF4
:102C8000EFF022900349E4F0229043A1E0FFEF54DB
:102C90000FFF900308EFF09043A2E0FF900309EFCD
:102CA000F09043A1E0FFEF54F0FFEFF09043A2E07B
:102CB000FFEF5400FFEFF0904800E0FFEF54C0FF3B
:102CC00090030DEFF07F2D126F39904200E0FFEF7F
:102CD0005407FF90030BEFF0904200E0FFEF5440E9
:102CE000FF90030CEFF0904200E0FFEF5410FF7EE6
:102CF00000EF4E60089003117401F08005900311FD
:102D0000E4F07F04123E749043A0E0FFEF5410FF04
:102D10007E00EF4E600890030E7401F0800A90036D
:102D20000EE4F07F001268D7904200E0FFEF5420DD
:102D3000FF7E00EF4E6021904000E0FFEF5440FF27
:102D40007E00EF4E70047F0280027F0190030FEF40
:102D5000F07F00127239800590030FE4F09040007C
:102D6000E0FFEF5430FF900310EFF0900310E0FF0E
:102D7000EF600B904000E0FFEF54CFFFEFF0904288
:102D800000E0FFEF5410FF7E00EF4E600312834817
:102D9000904004E0FF900312EFF0900312E0FFEF89
:102DA00060057F00128245904005E0FFEF5403FF6D
:102DB00090030AEFF090030AE0FFEF60057F001236
:102DC0007EDF904007E0FF7E00EF7F00FE90031360
:102DD000EEF0A3EFF0900313E0FEA3E0FF904006B7
:102DE000E0FD7C00EE4CFEEF4DFF900313EEF0A3F0
:102DF000EFF0900313E0FEA3E0FFEF4E60077F00CB
:102E00007E00125936904005E0FFEF54F0FF7E003F
:102E1000EEC4F854F0C868FEEFC4540F48FFEF0446
:102E2000FFAB07E4FAF9F8904200E0FFEF5407FF28
:102E3000EF90EE5593FFE4FCFDFE120576126F391C
:102E4000904220E0FFEF5401FF7E00EF4E600B90B8
:102E500003157401F01283308005900315E4F0909F
:102E60004210E0FFEF5401FF7E00EF4E600B900335
:102E7000167401F01283788005900316E4F09040F8
:102E80000BE0FFEF5404FF7E00EF4E600790031746
:102E90007401F022900317E4F0227F007E007D0091
:102EA0007C00900372120672900376E4F0A3E4F0C3
:102EB00090037EE4F07F007E007D407C4090037FA5
:102EC0001206729003837420F07B007A0079807878
:102ED0004190037F12065A12021B1250AA900372ED
:102EE00012067290037212065A12036FEFC4F8545E
:102EF0000FC868FFEEC454F048FE125602AA06A995
:102F0000077B0190036F12069390036F12068A905D
:102F1000037B1206937F007E007D807C41900372CC
:102F20001206661201127B007A00794078C0120006
:102F30002112036F900376EEF0A3EFF090037EE48E
:102F4000F090037EE0FFEFC39403503190037EE0E6
:102F5000FF7E00EF2400FFEE3480FE8F828E83E040
:102F6000FF90037B12068AEF12040990037CE4753C
:102F7000F00112047090037EE004F080C490037EA0
:102F8000E0FF7E00900376E0FCA3E0FDC3EF9DEE42
:102F90009C501290037B12068AE412040990037E6F
:102FA000E004F080D890036CE0FF90036F12068A73
:102FB000EF12040990036DE0FF90036F12068AE997
:102FC0002401F9EA3400FAEF12040990036EE0FFDD
:102FD00090036F12068AE92402F9EA3400FAEF122C
:102FE00004099044F4E0FFEF4402FFEFF000C2AFA9
:102FF0007F001265E0900384EFF0D2AF9044F47448
:10300000FDF0900384E0FFEF60099003837430F0DB
:1030100002309D90037EE4F090036F12068A9003C5
:103020007812069390037EE0FCE412033B90037257
:103030001206661202B86058405690037EE0FFEF19
:10304000C39480504B9044F4E0FFEF4402FFEFF054
:1030500000C2AF90037812068A90037EE0FD124C06
:10306000C1900384EFF0D2AF9044F474FDF090036C
:1030700084E0FFEF60089003837430F0801F9003BA
:1030800079E475F01012047090037EE004F08094EF
:1030900090036F12068AAE02AF011246FA900383C4
:1030A000E0FF229003DBEFF09003DCECF0A3EDF007
:1030B0009003DEEAF0A3EBF09003E1E0FFEFD3949E
:1030C0000050030232A29003E1E0FFEFD3940140ED
:1030D000030232A29003DBE0FFEF1206A830F001FA
:1030E00030F004311D0731480831730A0000319E69
:1030F0009003E0E0FFEFD3940F40117B0C7A01794D
:10310000181283B49003E2EFF00231A37B0C7A0132
:10311000791C1283B49003E2EFF00231A39003E034
:10312000E0FFEFD3940F40107B0C7A0179191283E2
:10313000B49003E2EFF0806B7B0C7A01791D12836F
:10314000B49003E2EFF0805B9003E0E0FFEFD394F4
:103150000F40107B0C7A01791A1283B49003E2EFCE
:10316000F080407B0C7A01791E1283B49003E2EF69
:10317000F080309003E0E0FFEFD3940F40107B0C21
:103180007A01791B1283B49003E2EFF080157B0C77
:103190007A01791F1283B49003E2EFF08005900367
:1031A000E2E4F09003E2E0FFEF3395E0FEFDFC7B0C
:1031B000207A00790078001204EBA804A905AA0679
:1031C000AB079003DCE0FEA3E0FFE4FCFD1204D0BB
:1031D0009003E31206729003E312065AAB07AA06A5
:1031E000A905A804A804A905AA06AB079003DEE078
:1031F000FEA3E0FFE4FCFD1204EB9003E91206726B
:103200007B007A80790078009003E912065A120553
:10321000769003E7EEF0A3EFF09003E0E0FFEFC35A
:10322000940E50479003E7E0FEA3E0FF9003E0E038
:10323000FDC3740E9DFDEFA805088005CEC313CE17
:1032400013D8F9FF9003E7EEF0A3EFF09003E0E06E
:10325000FFEF04FF9003E1E0FEEE75F003A4240508
:10326000F582E43404F583EFF080169003E1E0FF8B
:10327000EF75F003A42405F582E43404F583740F9C
:10328000F09003E7E0FEA3E0FF9003E1E0FDED75C1
:10329000F003A42403F582E43404F583EEF0A3EFF5
:1032A000F0227F001281982290061F7401F0900690
:1032B00020E4F0900620E0FFEFC394804003023446
:1032C00096900620E0FF7E00EF2480FFEE3460FE43
:1032D0008F828E83740CF090061FE0FFEF75F00B69
:1032E000A4244CF582E43402F583E0FFEF604F90B4
:1032F000061FE0FFEF75F00BA4244BF582E43402C7
:10330000F583E0FFEF5480FF7E00EF4E60189006DB
:1033100020E0FF7E00EF240EFFEE3460FE8F828EF1
:1033200083740CF0802E900620E0FF7E00EF240EC8
:10333000FFEE3460FE8F828E837408F08016900654
:1033400020E0FF7E00EF240EFFEE3460FE8F828EC1
:10335000837480F090061FE0FFEF75F00BA4244FFC
:10336000F582E43402F583E0FEA3E0FFEEFF7E0089
:10337000900620E0FEEEFD7C00ED240CFDEC3460B8
:10338000FC8D828C83EFF090061FE0FFEF75F00B51
:10339000A4244FF582E43402F583E0FEA3E0FFEFBE
:1033A00054FFFF900620E0FEEEFD7C00ED240DFDB5
:1033B000EC3460FC8D828C83EFF090061FE0FFEF11
:1033C00075F00BA4244DF582E43402F583E0FEA3EE
:1033D000E0FFEF54FFFF900620E0FEEEFD7C00EDE5
:1033E0002486FDEC3460FC8D828C83EFF090061F08
:1033F000E0FFEF75F00BA4244DF582E43402F58371
:10340000E0FEA3E0FFEEFF7E00900620E0FEEEFD72
:103410007C00ED2487FDEC3460FC8D828C83EFF022
:1034200090061FE0FFEF75F00BA4244DF582E43405
:1034300002F583E0FEA3E0FFEF54FFFF900620E0DB
:10344000FEEEFD7C00ED2484FDEC3460FC8D828C6E
:1034500083EFF090061FE0FFEF75F00BA4244DF50D
:1034600082E43402F583E0FEA3E0FFEEFF7E0090ED
:103470000620E0FEEEFD7C00ED2485FDEC3460FCD2
:103480008D828C83EFF090061FE004F0900620E020
:103490002410F00232B390600A74FFF022900451BD
:1034A000EFF0900452120693900451E0FFEFD39492
:1034B000005003023669900451E0FFEFC3940940C5
:1034C00003023669900451E0FF7E00EF24FFFFEE17
:1034D00034FFFEEFC4F8540FC868FFEEC454F04840
:1034E000FE900457EFF0900457E0FF7E00EF248831
:1034F000FFEE3460FE900458EEF0A3EFF09004511C
:10350000E0FFEF75F00BA4244DF582E43402F5835F
:10351000E0FEA3E0FFC3E49FFF74029EFE9004550B
:10352000E0FCA3E0FDD3ED9FEC9E4028900451E029
:10353000FFEF75F00BA4244DF582E43402F583E02F
:10354000FEA3E0FFC3E49FFF74029EFE900455EECD
:10355000F0A3EFF0900455E0FEA3E0FFEEFF7E0045
:10356000900451E0FEEE75F00BA4244AF582E43499
:1035700002F583E0FEEF4EFF900457E0FEEEFD7C87
:1035800000ED240CFDEC3460FC8D828C83EFF09018
:103590000455E0FEA3E0FFEF54FFFF900457E0FE68
:1035A000EEFD7C00ED240DFDEC3460FC8D828C83FF
:1035B000EFF07B007A007900C003C002C0019004E4
:1035C0005212068AD082D083D0E06B7008E96582FF
:1035D0007003EA6583605190045AE4F0A3E4F0902C
:1035E0000455E0FEA3E0FF90045AE0FCA3E0FDC315
:1035F000ED9FEC9E503290045212068A90045AE0DD
:10360000FEA3E0FFE92FF9EA3EFA1203F0FF90046F
:1036100058E0FCA3E0FD8D828C83EFF090045AE427
:1036200075F00112047080B7900451E0FFEF75F05F
:103630000BA42448F582E43402F583E4F0900451AD
:10364000E0FFEF75F00BA4244CF582E43402F5831F
:10365000E0FF900457E0FEEEFD7C00ED240EFDEC53
:103660003460FC8D828C83EFF0227B007A4679E80F
:103670001283B4EF4401FD7B007A4679E81283C0DF
:10368000750A00E50AC39407503AAF0AEF75F005D2
:10369000A4240AF582E434EEF583AF82AE838E086B
:1036A0008F09AE08AF098F828E8312069CAE08AFD9
:1036B000098F828E83740393FC740493FD128086B9
:1036C000050A80BF7B087A007900127C51905883EC
:1036D000740AF07B017A5079031283B4EF4402FD3F
:1036E0007B017A5079031283C07B017A50791312DF
:1036F00083B4EF4402FD7B017A5079131283C090AA
:1037000043A0E0FFEF4440FF9043A0EFF09043C29E
:10371000E0FFEF4410FF9043C2EFF07B087A01799D
:10372000FCC003C002C0017B007A5179029004C33F
:10373000120693D001D002D0037F087E00127A7463
:103740007B087A027904C003C002C0017B007A5171
:1037500079F09004C3120693D001D002D0037F0AFF
:103760007E00127A747B087A027910C003C002C00E
:10377000017B007A5179109004C3120693D001D0D6
:1037800002D0037F0A7E00127A747B087A02791CC9
:10379000C003C002C0017B007A5179209004C3129B
:1037A0000693D001D002D0037F0A7E00127A749073
:1037B00044F47401F0904322E0FFEF4408FF90438B
:1037C00022EFF09046ECE0FFEFC3940550069046E0
:1037D00089743AF090480074F1F01248399048002A
:1037E00074B1F012797A7B007A4379A0C003C002E9
:1037F000C0017B007A4379B09004C3120693D001D4
:10380000D002D0037F0E7E00127A749043B0E0FFA6
:10381000EF54FDFFEFF022908B44E493FE7401938C
:10382000FF9003B4EEF0A3EFF0908B46E493FE74A8
:103830000193FF9003A2EEF0A3EFF09003B4E0FE3B
:10384000A3E0FFEF25E0FFEE33FE74842FF58274D2
:10385000843EF583E493FE740193FF9003B2EEF08F
:10386000A3EFF09003A2E0FEA3E0FFEF25E0FFEE60
:1038700033FE74842FF58274843EF583E493FE74E2
:103880000193FF9003A0EEF0A3EFF0128472128177
:10389000AD1281C2127FB2127F95127443127D79EC
:1038A0007F00127CD41271DED2AF9044F474FDF02C
:1038B0001281EC1281FF9003B17401F0908B48E407
:1038C00093FF9003AAEFF09003AAE0FFEF600312CA
:1038D0007AA81278BD12843B122C897D407C087F27
:1038E0000012285012204E1284349003A6E0FFEFFD
:1038F00060111282F57F0612739D124EC21282125F
:103900001279F09003AAE0FFEF60077F0212739D27
:1039100080C39003AEE0FFEF601B7F0412739D1223
:10392000758B7F197E007D007C00126ED31279F0BA
:103930009003AEE4F09003A7E0FFEF60197F01125F
:10394000739D1282121252837F197E007D007C00CB
:10395000126ED31279F09003ADE0FFEF60197F0291
:1039600012739D1282121282237F197E007D007CC9
:1039700000126ED31279F09003A5E0FFEF600812F9
:1039800078BD9003A5E4F090039EE0FFEF70030282
:1039900038D51282F57F0512739D7F647E007D000D
:1039A0007C00126ED31279F090039EE4F00238D5B9
:1039B000E47E007F00229004DBEEF0A3EFF09004A1
:1039C000DDEDF01284019004DFEFF01283F7900434
:1039D000E0EEF0A3EFF09004E0E0FEA3E0FF90043F
:1039E000DBE0FCA3E0FDED6F7002EC6E7003023BC8
:1039F0004A9043A2E0FFEF5401FF9004DEEFF09005
:103A000004DFE0FFEF705E9004E0E0FEA3E0FFEF74
:103A10004E600C9004DBE0FEA3E0FFEF4E7046909A
:103A200004E0E0FEA3E0FFEF4E701D7B027A4079D8
:103A3000809004DBE0FCA3E0FD128315904082E05F
:103A4000FFEF54BFFFEFF022904082E0FFEF4440D1
:103A5000FFEFF07B027A4079809004DBE0FCA3E08A
:103A6000FD128315229004DEE0FFEF606C904001B0
:103A7000E4F09040107401F0904014E4F09040089D
:103A8000E0FFEF547FFFEFF0904082E0FFEF54083B
:103A9000FF7E00EF4E600C9004DBE0FEA3E0FFEF42
:103AA0004E70367B027A4079029004E0E0FCA3E09D
:103AB000FD1283159040017407F0904001E0FFEF84
:103AC0005401FF7E00EF4E70F19043A2E0FFEF54EF
:103AD000FEFFEFF0904001E4F09043A2E0FFEF54CE
:103AE00001FF7E00EF4E603A7B027A40790290043B
:103AF000DBE0FCA3E0FD1283159004DDE0FFEF6046
:103B0000047F0280027F00EF4401FF904001EFF04C
:103B1000904001E0FFEF5401FF7E00EF4E602B80EC
:103B2000EF227B027A4079809004DBE0FCA3E0FD89
:103B30001283159043A2C083C082E0FF9004DEE0B0
:103B4000FEEF4EFFD082D083EFF0229004E2EEF041
:103B5000A3EFF09004E4EDF01284159004E6EFF08A
:103B600012840B9004E7EEF0A3EFF09004E7E0FE80
:103B7000A3E0FF9004E2E0FCA3E0FDED6F7002EC37
:103B80006E7003023CDF9043A1E0FFEF5401FF9011
:103B900004E5EFF09004E6E0FFEF705E9004E7E0EC
:103BA000FEA3E0FFEF4E600C9004E2E0FEA3E0FF16
:103BB000EF4E70469004E7E0FEA3E0FFEF4E701D6D
:103BC0007B027A4179009004E2E0FCA3E0FD1283DD
:103BD00015904102E0FFEF54BFFFEFF02290410249
:103BE000E0FFEF4440FFEFF07B027A417900900460
:103BF000E2E0FCA3E0FD128315229004E5E0FFEF74
:103C0000606C904001E4F09040147401F09040101A
:103C1000E4F0904008E0FFEF547FFFEFF0904102A6
:103C2000E0FFEF5408FF7E00EF4E600C9004E2E0EE
:103C3000FEA3E0FFEF4E70367B027A4079029004DB
:103C4000E7E0FCA3E0FD1283159040017407F090BB
:103C50004001E0FFEF5401FF7E00EF4E70F1904312
:103C6000A1E0FFEF54FEFFEFF0904001E4F090433D
:103C7000A1E0FFEF5401FF7E00EF4E603A7B027A35
:103C80004079029004E2E0FCA3E0FD128315900469
:103C9000E4E0FFEF60047F0280027F00EF4401FF59
:103CA000904001EFF0904001E0FFEF5401FF7E00F3
:103CB000EF4E602B80EF227B027A4179009004E284
:103CC000E0FCA3E0FD1283159043A1C083C082E015
:103CD000FF9004E5E0FEEF4EFFD082D083EFF022AC
:103CE0009002C17420F09003B2E0FEA3E0FF9003C5
:103CF00002EEF0A3EFF0900304E4F0A3E4F09003ED
:103D000006E4F09003A0E0FEA3E0FF900302E0FCD5
:103D1000A3E0FDED6F7002EC6E70459003AAE0FF2A
:103D2000EF703D9002C274A0F09003067401F09011
:103D30000306E0FFEFC39440501A900306E0FF74BF
:103D4000C22FF582E43402F5837440F0900306E05C
:103D500004F080DB7B017A0279C2127A3B023E6E6C
:103D6000900306E0FFEFC394404003023DF690034A
:103D700002E0FEA3E0FF74492FF582748B3EF583C9
:103D8000E493FF900306E0FE74C22EF582E4340251
:103D9000F583EFF0900306E004F0900302E475F081
:103DA00001120470900304E475F001120470900392
:103DB00002E0FEA3E0FFC3EF94A8EE9461400890F8
:103DC0000302E4F0A3E4F09003A0E0FEA3E0FF9080
:103DD0000302E0FCA3E0FDED6F7002EC6E708190D9
:103DE0000306E0FF74C22FF582E43402F5837440C9
:103DF000F08003023D607B017A0279C2127A3B9027
:103E00000306E4F0126B1DEFB430089002C1743069
:103E1000F0805B9003A0E0FEA3E0FF900302E0FCD3
:103E2000A3E0FDED6F7002EC6E6003023D60900355
:103E300004E475F0041204709002C27480F09002E1
:103E4000C3E4F0900304E0FEA3E0FFEEFF7E0090E9
:103E500002C4EFF0900304E0FEA3E0FFEF54FFFF85
:103E60009002C5EFF07B017A0279C2127A3B900290
:103E7000C1E0FF2290058EEFF0904200E0FFEF548A
:103E800007FF90058FEFF090058EE0FFEFB4080478
:103E90007F03800590058EE0FF900590EFF0900580
:103EA0008FE0FFEF1206A83EBD003EC5013ECD02E9
:103EB0003ED5033EDC043EE40500003EEC90058F59
:103EC0007402F0802C90058F7401F0802490058F8F
:103ED0007403F0801C90058FE4F0801590058F74BA
:103EE00004F0800D90058F7405F080057F0012812D
:103EF0009890058FE0FF900590E0FEEEC39F40088C
:103F000090058EE0FF125B9190058EE0FFEF1206A8
:103F1000A83F2A003F43013F5B023F68033F800404
:103F20003F98053FB00800003FC4904200E0FFEF1B
:103F300054F8FFEF4403FFEF54BFFF904200EFF04F
:103F4000023FC9904200E0FFEF54F8FFEF4401FF49
:103F5000EF54BFFF904200EFF0806E904200E0FF10
:103F6000EF54B8FFEFF08061904200E0FFEF54F8AB
:103F7000FFEF4402FFEF54BFFF904200EFF0804993
:103F8000904200E0FFEF54F8FFEF4404FFEF54BF0E
:103F9000FF904200EFF08031904200E0FFEF54F8D4
:103FA000FFEF4405FFEF54BFFF904200EFF0801990
:103FB000904200E0FFEF54F8FFEF4442FF904200D0
:103FC000EFF080057F0012819890058EE0FFEFB43E
:103FD000080512833C800312834890058FE0FF9010
:103FE0000590E0FEEEC39F500890058EE0FF125B47
:103FF00091229005B4E4F0906004E0FFEF547FFF5D
:104000009005B2EFF09005B2E0FF7E00EF24FFFFD5
:10401000EE34FFFEEFC4F8540FC868FFEEC454F04E
:1040200048FE9005B3EFF09005B2E0FFEFD39400A7
:1040300050030241609005B2E0FFEFC394094003D2
:104040000241609005B2E0FFEF75F00BA42449F542
:1040500082E43402F583E0FFEF54FEFFEFF09005B9
:10406000B2E0FFEF75F00BA4244AF582E43402F5C8
:1040700083E4F09005B3E0FF7E00EF240CFFEE3404
:1040800060FE8F828E83E0FFEF547FFFEFF090059C
:10409000B2E0FFEF75F00BA42448F582E43402F59A
:1040A00083E0FFEF54FDFFEFF09005B2E0FFEF7506
:1040B000F00BA4244BF582E43402F583E0FFEF54C7
:1040C00080FF7E00EF4E60499005B2E0FFEF75F093
:1040D0000BA42448F582E43402F583E0FFEFB40139
:1040E000189005B3E0FF7E00EF240EFFEE3460FE73
:1040F0008F828E83740CF0805F9005B3E0FF7E00AA
:10410000EF240EFFEE3460FE8F828E83740DF080FC
:10411000479005B2E0FFEF75F00BA42448F582E468
:104120003402F583E0FFEFB401189005B3E0FF7EA1
:1041300000EF240EFFEE3460FE8F828E837408F051
:1041400080169005B3E0FF7E00EF240EFFEE346092
:10415000FE8F828E837409F012803A9005B4EFF0DE
:104160009005B4E0FF22C0E0C0F0C083C082C085EB
:10417000C084C086758600C093759300C0D075D08A
:1041800000C000C001C002C003C004C005C006C01A
:1041900007906028E0FF90060FEFF090060FE0FF19
:1041A000EF5410FF7E00EF4E70030242B4900610F1
:1041B0007401F090060FE0FFEF5480FF7E00EF4E99
:1041C000603190060FE0FFEF540FFF7E00EF6401B7
:1041D0004E6007900610E4F0804612655790024347
:1041E000E0FFEF5480FF7E00EF4E6034900610E455
:1041F000F0802D90060FE0FFEF5440FF7E00EF4E61
:104200006005127DEE801990060FE0FFEF5420FF4D
:104210007E00EF4E6005127BC78005900610E4F02B
:10422000900610E0FFEF70030242B4906028E0FFB8
:1042300090060FEFF090060FE0FFEF5480FF7E0036
:10424000EF4E7070900246E0FF9002BEE0FEEE4F2F
:10425000FF90060FEFF090060FE0FF906029EFF05F
:10426000906029E0FF90060FE0FEEE6F704690022E
:1042700043E0FF900610EFF0906028E0FFEF5480DD
:10428000FF90060FEFF090060FE0FFEF701890021E
:1042900043E0FF906028EFF0906028E0FFEF540FBC
:1042A000FF900610EFF0900243E0FF900610E0FE52
:1042B000EEB507BAD007D006D005D004D003D0029F
:1042C000D001D000D0D0D093D086D084D085D082F9
:1042D000D083D0F0D0E0329003A0E0FEA3E0FF90C6
:1042E00003B2E0FCA3E0FDD3ED9FEC9E500302433C
:1042F000BE9003B4740175F0201204709003B4E012
:10430000FEA3E0FFC3EF9460EE940340089003B473
:10431000E4F0A3E4F09003B4E0FEA3E0FFEF240197
:10432000FFEE3400FE9003A2EEF0A3EFF07B017AE3
:104330000379B4C003C002C0017BFF7A8B7944903B
:104340000003120693900006E4F0A37402F0D0017B
:10435000D002D0031223567B017A0379A2C003C096
:1043600002C0017BFF7A8B7946900003120693907E
:104370000006E4F0A37402F0D001D002D0031223AF
:10438000567B017A0379A0C003C002C0019003A24A
:10439000E0FEA3E0FFEF25E0FFEE33FE74842FF98B
:1043A00074843EFA7BFF900003120693900006E4AB
:1043B000F0A37402F0D001D002D003122356900370
:1043C000A0E0FEA3E0FF9003B2EEF0A3EFF07B01CC
:1043D0007A0379A0C003C002C0019003B4E0FEA339
:1043E000E0FFEF25E0FFEE33FE74842FF974843E86
:1043F000FA7BFF900003120693900006E4F0A3748A
:1044000002F0D001D002D0031223569003AAE0FF9D
:10441000EF602F9003AAE4F07B017A0379AAC0032E
:10442000C002C0017BFF7A8B79489000031206938B
:10443000900006E4F0A37401F0D001D002D0031282
:1044400023562290041CEFF090041DECF0A3EDF035
:1044500090041F1206937B007A007900C003C0020B
:10446000C00190053812068AD082D083D0E06B70EC
:1044700008E965827003EA6583700302459790043A
:104480001CE0FFEFD3943F400C900427E4F0A374AA
:1044900010F00245419004277401F0A37420F090BD
:1044A000041CE0FF7E007C207D001206F2EF240059
:1044B000FFEE3400FEED3408FDEC3400FCC004C017
:1044C00005C006C00790041DE0FEA3E0FF7C007D50
:1044D000201206F2A804A905AA06AB07D007D00649
:1044E000D005D0041204D090042312067290042246
:1044F000E4F0900422E0FFEFC394205044900422A3
:10450000E0FFE4FCFDFE9004231206661204D0A92D
:1045100007AA06AB051283B490053812068AE9246F
:1045200000F9EA3401FA900422E0FEEEFD7C00E995
:104530002DF9EA3CFAEF120409900422E004F0801D
:10454000B190041F12068AC003C002C00190053852
:1045500012068AA801AC02AD03D001D002D0037EBE
:10456000017F001207DB90041CE0FFC00790041DD0
:10457000E0FCA3E0FD90053812068A900427E0FED7
:10458000A3E0FF90047FEEF0A3EFF0D007124A9172
:10459000900429EFF0800690042974FFF09004291C
:1045A000E0FF22900324E0FF905A00EFF0900325F3
:1045B000E0FF905A02EFF0900326E0FF905A03EFDD
:1045C000F0900327E0FF905A04EFF0900328E0FFFB
:1045D000905A06EFF0900329E0FF905A08EFF09010
:1045E000032AE0FF905A0AEFF090032BE0FF905A65
:1045F00010EFF090032CE0FF905A12EFF090032D93
:10460000E0FF905A13EFF090032EE0FF905A14EF62
:10461000F090032FE0FF905A16EFF0900330E0FF88
:10462000905A18EFF0900331E0FF905A1AEFF09093
:104630000332E0FF905A20EFF0900333E0FF905AEE
:1046400022EFF0900334E0FF905A23EFF09003350F
:10465000E0FF905A24EFF0900336E0FF905A26EFE7
:10466000F0900337E0FF905A28EFF0900338E0FF16
:10467000905A2AEFF0900339E0FF905A30EFF09013
:10468000033AE0FF905A32EFF090033BE0FF905A7C
:1046900033EFF090033CE0FF905A34EFF090033D8D
:1046A000E0FF905A36EFF090033EE0FF905A38EF6B
:1046B000F090033FE0FF905A3AEFF090031CE0FFC8
:1046C000EFB4012190500BE0FFEF54F1FF90031D78
:1046D000E0FEEF4EFF90500BEFF09046E8E0FFEF6A
:1046E0004404FFEFF0900349E0FFEFB4010B904367
:1046F00022E0FFEF4408FFEFF0229004BEEEF0A3AB
:10470000EFF04E70030248389004B8E07002A3E066
:1047100070030248389004BEE0FEA3E024FCFFEEE4
:1047200034FFFEA37404F0A374B6F09004C0E0FC60
:10473000A3E0F5828C83E0FCA3E0FD9004C2ECF0E2
:10474000A3EDF04C60209004BEE0FCA3E0FD9004DB
:10475000C2E0FAA3E0FBD39DEA9C500A9004C0EAB1
:10476000F0A3EBF080C59004C2E07002A3E0604DBE
:104770008F828E83A3A3E0FCA3E0FD9004BFE02D15
:10478000FD9004BEE03CFC9004C2E0FAA3E0FB6DA7
:104790007002EA6C70278B828A83A3A3E0FCA3E0FB
:1047A0002404FDE43C8F828E83A3A38DF012047059
:1047B0009004C2E0FCA3E0F5828C8380039004C2E5
:1047C000E0FDA3E08F828E83CDF0A3EDF09004C0D6
:1047D000E0FCA3E0FDF5828C83A3A3E0FAA3E0FB59
:1047E000ED2BFDEC3AFCED2404FDE43CFCED6F7098
:1047F00002EC6E70338F828E83A3A3E0FCA3E024CF
:1048000004FDE43CFC9004C0E0FAA3E0FBF5828ADE
:1048100083A3A3EC8DF01204708F828E83E0FFA33C
:10482000E08B828A83CF800C9004C0E0FCA3E0F58B
:10483000828C83EEF0A3EFF022904698E0FF900583
:1048400033EFF07B007A4079807D007C0012831387
:104850009040827450F07B087A027928C003C0022D
:10486000C0017B007A4179009004C3120693D00105
:10487000D002D0037F047E00127A74904300740645
:10488000F090430A74F3F09046987403F090430953
:104890007484F09043087405F07FA07E867D017CCF
:1048A0000090053412067290053412065AD3EF9424
:1048B00000EE94004033904308E0FFEF5420FF7E69
:1048C00000EF4E70247FE07E017D007C00127A00B4
:1048D00090053412065A7BFF7AFF79FF78FF1204A5
:1048E000D090053412067280BE900533E0FF9046EA
:1048F00098EFF09042007452F07B0C7A01790F121D
:1049000083B49046A1EFF07B007A4079047D007C6F
:10491000001283139040047407F0904006E4F09076
:1049200040087448F0904004E4F0904009E4F090AE
:1049300040017402F090400B7404F09043A2E0FF39
:10494000EF4401FF9043A2EFF09043A1E0FFEF445A
:1049500001FF9043A1EFF09043A0E0FFEF4480FF00
:104960009043A0EFF022900438EFF0900439120643
:1049700093900438E0FFEFD394005003024A8090F4
:104980000438E0FFEFC394094003024A807B007AB9
:10499000007900C003C002C00190043912068AD019
:1049A00082D083D0E06B7008E965827003EA65838A
:1049B0007003024A80900438E0FF7E00EF24FFFF7E
:1049C000EE34FFFEEFC4F8540FC868FFEEC454F095
:1049D00048FE90043EEFF090043EE0FF7E00EF249E
:1049E00088FFEE3460FE90043FEEF0A3EFF09004F9
:1049F00038E0FF125DD8900443EEF0A3EFF090048E
:104A000043E0FEA3E0FF90043CE0FCA3E0FDD3ED17
:104A10009FEC9E4010900443E0FEA3E0FF90043C16
:104A2000EEF0A3EFF0900441E4F0A3E4F090043C36
:104A3000E0FEA3E0FF900441E0FCA3E0FDC3ED9F96
:104A4000EC9E503290043FE0FEA3E0FF8F828E8305
:104A5000E0FF90043912068A900441E0FCA3E0FDD7
:104A6000E92DF9EA3CFAEF120409900441E475F0EB
:104A70000112047080B7900438E0FF126766800866
:104A800090043CE4F0A3E4F090043CE0FEA3E0FFDB
:104A900022900479EFF090047AECF0A3EDF090040A
:104AA0007C120693127B98EF6003024BA49004796A
:104AB000E0FF90047C12068A90047FE0FCA3E0FDF6
:104AC00090048FECF0A3EDF0125F3B900481EFF0C7
:104AD000900481E0FFEF64076003024B9F90472240
:104AE000E0FFEF5402FF7E00EF4E70097F017E0071
:104AF000127C2480E8904722E0FFEF5402FF7E0002
:104B0000EF4E600D904722E0FFEF1313543FFF80FC
:104B1000027FFFEF7007900481E4F080069004812B
:104B200074FFF0900481E0FFEF7074900479E0FF6F
:104B300090047AE0FCA3E0FD90053BE0FB90053C8F
:104B4000E0FE9004F9EEF012626B900481EFF090B9
:104B50000481E0FFEF64077046904722E0FFEF54C6
:104B600002FF7E00EF4E70097F017E00127C2480E0
:104B7000E8904722E0FFEF5402FF7E00EF4E600D09
:104B8000904722E0FFEF1313543FFF80027FFFEFB7
:104B90007007900481E4F0800690048174FFF012A5
:104BA000818280069004817404F0900481E0FF22E9
:104BB0001281D7900639EFF09043A5E0FFEF440152
:104BC000FFEFF09043B5E0FFEF4401FFEFF090609E
:104BD0009D7401F09060097402F0906010E0FFEFA6
:104BE000547FFFEFF07F007E00127C24904394E01E
:104BF000FFEF54F9FFEFF0906012E0FFEF54DFFF9A
:104C0000EFF0904394E0FFEF4401FFEFF07F017E6F
:104C100000127C247F287E00127C249051F8E0FF53
:104C2000EF547FFFEFF09051F8E0FFEF54BFFFEF3C
:104C3000F0904394E0FFEF4402FFEFF07F027E002C
:104C4000127C24904394E0FFEF4404FFEFF0906067
:104C500084E4F0906085E4F0900639E0FF12809FD4
:104C60007C757D3A7F171266647D067F1712706629
:104C70007C7C7D227F151266647D067F151270662E
:104C80007C417D667F181266647D067F181270660F
:104C90007C6D7D9E7F011266647D067F01127066C9
:104CA0007C6E7D057F021266647D067F021270664F
:104CB0007C6E7D6C7F031266647D067F03127066D6
:104CC0002290052912069390052CEDF0127DA090FC
:104CD000052CE0FFEFC394804003024DBF127B9888
:104CE000EF6003024DB790052D74FFF09005291277
:104CF000068A90048FE4F0A37410F07F40125F3BAB
:104D0000EF64076003024DB2904722E0FFEF5402C8
:104D1000FF7E00EF4E60F1904722E0FFEF5402FF6C
:104D20007E00EF4E600D904722E0FFEF1313543FDB
:104D3000FF80027FFFEF700590052DE4F090052DB8
:104D4000E0FFEF706790052CE0FFEFFD7C00900521
:104D50003BE0FB90053CE0FF9004F9EFF07F401250
:104D6000626BEF6407703D90052D74FFF090472251
:104D7000E0FFEF5402FF7E00EF4E60F1904722E02B
:104D8000FFEF5402FF7E00EF4E600D904722E0FFE0
:104D9000EF1313543FFF80027FFFEF701590052D36
:104DA000E4F0800E90052D74FFF0800690052D74C0
:104DB000FFF0128182800E90052D7404F080069021
:104DC000052D7401F090052DE0FF229005B1E4F06F
:104DD000906004E0FFEF547FFF9005AFEFF0900587
:104DE000AFE0FF7E00EF24FFFFEE34FFFEEFC4F8DC
:104DF000540FC868FFEEC454F048FE9005B0EFF0C1
:104E00009005AFE0FFEFD394005003024EBC900535
:104E1000AFE0FFEFC394094003024EBC9005AFE042
:104E2000FFEF75F00BA42449F582E43402F583E02A
:104E3000FFEF4401FFEFF09005AFE0FFEF75F00BDF
:104E4000A4244AF582E43402F583E4F09005AFE04F
:104E5000FFEF75F00BA42448F582E43402F583E0FB
:104E6000FFEF4402FFEFF09005AFE0FFEF75F00BAE
:104E7000A4244BF582E43402F583E0FFEF5480FF75
:104E80007E00EF4E60189005B0E0FF7E00EF240E2C
:104E9000FFEE3460FE8F828E83748DF08016900555
:104EA000B0E0FF7E00EF240EFFEE3460FE8F828EB6
:104EB000837489F012803A9005B1EFF09005B1E06B
:104EC000FF229005B5E4F09005B6E4F07F00128271
:104ED0005512847612846A7D017F00127D501284FF
:104EE0005EEF70061280CEEF70F41283221280CE35
:104EF000EF7003024FB4128140EF60F17B017A053D
:104F000079B67D01126A369005B5EFF09005B6E0EE
:104F1000FFEF60D99005B5E0FFEF64206003024F1A
:104F2000AC9005B6E0FFEF1206A84F40014F4702D4
:104F30004F59034F5E044F96054F7A0600004FA16C
:104F40007F10127E1480A6123CE0EF600512734AB7
:104F5000809B7F30127E148094127835808F7F2062
:104F6000127E141261CDEFB420087F20127E14024D
:104F70004EED7F30127E14024EED7F20127E141211
:104F80005ACAEFB420087F20127E14024EED7F3003
:104F9000127E14024EED12586C7F20127E14024EC7
:104FA000ED7F30127E14024EED024EED7F30127E08
:104FB00014024EED127FCF229004FB120693900450
:104FC000FFE4F07B007A007900C003C002C00190CA
:104FD00004FB12068AD082D083D0E06B7008E965AA
:104FE000827003EA658370030250A99004FB1206E5
:104FF0008A74221204099004FB12068AE92401F93A
:10500000EA3400FA74031204099004FE7402F0906A
:1050100004FEE0FFEFC3942240030250A99004FF76
:10502000E0FFE4FCFDFEEF2400FFEE3401FEED3472
:105030000CFDEC3400FCA907AA06AB051283B49062
:105040000500EFF09004FFE004F0900500E0FFEFB2
:10505000C4540FFFEF90EE4593FF9004FB12068AB5
:105060009004FEE0FEE92EF9E43AFAEF120409900A
:105070000500E0FFEF540FFFEF90EE4593FF900423
:10508000FEE0FEEEFD7C00ED2402FDEC3400FC9021
:1050900004FB12068AE92DF9EA3CFAEF12040990A2
:1050A00004FEE02404F002500F229004BE120672A7
:1050B00074FFFFFEFDFC9004BEE0F8A3E0F9A3E05E
:1050C000FAA3E0FBC312062360387F807E967D182A
:1050D0007C4B9004BEE0F8A3E0F9A3E0FAA3E0FB68
:1050E0001202B86002501B7F807E967D187CCB90A8
:1050F00004BEE0F8A3E0F9A3E0FAA3E0FB1202B8D3
:10510000500F9004BEE0FCA3E0FDA3E0FEA3E0FF8F
:10511000229004BEE0FCA3E0FDA3E0FEA3E0FF12AA
:10512000036F9004C21206729004C2E0FCA3E0FD7B
:10513000A3E0FEA3E0FFEC120331C8ECC8C9EDC93F
:10514000CAEECACBEFCB9004BEE0FCA3E0FDA3E027
:10515000FEA3E0FF12001DE4FBFAF9F81202B850BA
:10516000259004C2E0FCA3E0FDA3E0FEA3E0FFE481
:10517000FAF9F8EF2401FFEA3EFEE93DFDE83CFCC8
:105180009004C21206729004C2E0FCA3E0FDA3E00A
:10519000FEA3E0FFEC1203312275930078007583C3
:1051A000467582E8E04401F0009046ECE0F9904654
:1051B000FAE0FAB903225420B40012B8001AEA90B7
:1051C0001FFFF07401901FFEF09046F6F0901FFE56
:1051D000E06005901FFFE0FA90480074C0F0758110
:1051E0000C90000078007920E4F0A3D8FCD9FAEA0A
:1051F000900417F0020011750B1F750CFD12366A32
:1052000002523E023817E493A3F8E493A34003F656
:105210008001F208DFF48029E493A3F85407240CFA
:10522000C8C333C4540F4420C8834004F4568001DB
:1052300046F6DFE4800B0102040810204080905DF8
:105240001AE47E019360BCA3FF543F30E509541F6C
:10525000FEE493A360010ECF54C025E060A840B8DF
:10526000E493A3FAE493A3F8E493A3C8C582C8CA5D
:10527000C583CAF0A3C8C582C8CAC583CADFE9DE30
:10528000E780BE1284429003C61206939003B67460
:1052900020F0A3E4F07F007E00127B699003BAEF58
:1052A000F07F017E00127B699003BBEFF07F027EEE
:1052B00000127B699003BCEFF09003C612068A12BD
:1052C00003F0FF9003BDEFF09003C612068AE924B5
:1052D00001F9EA3400FA1203F0FF9003BEEFF090F8
:1052E00003C612068AE92402F9EA3400FA1203F02E
:1052F000FF9003BFEFF09003C612068AE92404F979
:10530000EA3400FA1203F0FF9003C0EFF09003C6F6
:1053100012068AE92407F9EA3400FA1203F0FF9032
:1053200003C1EFF09003C612068AE92408F9EA34B3
:1053300000FA120486FFAEF09003B8EEF0A3EFF08F
:105340007B017A0379B67D10122600EF6007127A8E
:10535000A81282232290039F7401F09003B1E4F01D
:105360009003A87401F09003AFE4F022900646EF9A
:10537000F0900404E4F0900646E0FFEF640160035F
:1053800002544F904E007430F0904E027406F0902C
:105390004E037408F0904E04E4F0904E05E4F09053
:1053A0004E06741FF0904E08E4F0904E09E4F09021
:1053B0004E0AE4F0904E147401F09058847414F086
:1053C0009058857405F09058867416F0905887E4CC
:1053D000F090588A7444F090588B7448F090588C30
:1053E0007401F090588E7401F090588F7411F09001
:1053F00058907419F09058917497F07F521273F08E
:105400009058947458F0905895E4F090589A740518
:10541000F090589B7402F090589CE4F090589DE4F2
:10542000F07F00127FEA7F337E037D007C009004D2
:105430000A1206727D017F267E001239B67D017F39
:105440009F7E00123B4B7C7C7D237F1D1266642275
:105450001281D7900645EFF0904E00E0FFEF54FE2A
:10546000FFEFF0904E01E0FFEF4404FFEFF09046B5
:10547000F8E0FFEF4402FFEFF09046F9E0FFEF4461
:1054800002FFEFF0905891E0FFEF54FCFFEFF09037
:105490005892E0FFEF54F7FFEFF07F037E00127C9D
:1054A000249046F8E0FFEF54FDFFEFF09046F9E05E
:1054B000FFEF54FDFFEFF09043AAE0FFEF54EFFF42
:1054C000EFF09043AAE0FFEF54FEFFEFF09043BAF5
:1054D000E0FFEF54FEFFEFF09043BAE0FFEF54EF30
:1054E000FFEFF0905877E0FFEF54F9FFEFF09043B3
:1054F000A1E0FFEF54FEFFEFF09043B1E0FFEF5467
:10550000FEFFEFF0905882E0FFEF54F7FFEFF090CE
:1055100043A2E0FFEF54FEFFEFF09043B2E0FFEF55
:1055200054FEFFEFF0900645E0FF12809F229004AA
:10553000CDEFF09004CEE4F09004CDE0FF9004CFE6
:10554000EFF0904210E0FFEF4401FFEFF09004CD48
:10555000E0FFEFD3940050030255FC904300E0FFBE
:105560009004D1EFF0904380E0FF9004D2EFF090F0
:105570004382E0FF9004D3EFF07F181269C19004DA
:10558000CE7410F09004CFE0FFEFD394004047902A
:105590004210E0FF9004D07404F09004D0E0FFEFDC
:1055A000D3940040137F011276C77E00EF30E0F500
:1055B0009004D0E014F080E2904210E0FFEF5480BD
:1055C000FF7E00EF4E70079004CEE4F08008900458
:1055D000CFE014F080AE9004D1E0FFEF5404FF7EE2
:1055E00000EF4E700312836C9004D2E0FF90438072
:1055F000EFF09004D3E0FF904382EFF09004CEE010
:10560000FF229004BEEEF0A3EFF0A37404F0A374A5
:10561000B6F09004C0E0FEA3E0F5828E83E0FEA326
:10562000E0FF4E7003FEFF228F828E83A3A3E0FC77
:10563000A3E0FD9004BEE0FAA3E0FBC3ED9BEC9A6F
:10564000500A9004C0EEF0A3EFF080C68F828E83E4
:10565000A3A3E0FCA3E0C39BFDEC9AFC9004C2F082
:10566000A3EDF0C39410EC940050178F828E83E06A
:10567000FCA3E0FD9004C0E0FAA3E0F5828A83EC8D
:1056800080459004C3E024FCF09004C2E034FFF0B5
:10569000E0FDA3E08F828E83A3A3CDF0A3EDF0EF16
:1056A0002404FFE43EFE9004C3E02FFF9004C2E018
:1056B0003EFE9004C0F0A3EFF09004BEE0FDA3E036
:1056C0008F828E83A3A3CDF0A3EDF0EF2404FFE43B
:1056D0003EFE221281D79005E6EFF09003FEE0FF38
:1056E0009005E5EFF09043AAE0FFEF4401FFEFF0F3
:1056F0009043AAE0FFEF4410FFEFF09043BAE0FFC1
:10570000EF4401FFEFF09043BAE0FFEF4410FFEFEA
:10571000F09046F8E0FFEF4402FFEFF09046F9E02A
:10572000FFEF4402FFEFF0905891E0FFEF4403FFDA
:10573000EFF07F037E00127C249046F8E0FFEF54E8
:10574000FDFFEFF09046F9E0FFEF54FDFFEFF09022
:105750005877E0FFEF4406FFEFF0905882747AF03C
:105760009043A1E0FFEF4401FFEFF09043B1E0FF71
:10577000EF4401FFEFF09043A2E0FFEF4401FFEFA1
:10578000F09043B2E0FFEF4401FFEFF09044DB7490
:1057900020F09044C37420F09005E6E0FF12809F53
:1057A00022900677E4F09002B5E0FF7E009002447C
:1057B000EE8FF01204709002ACE0FEA3E0FFD3EF96
:1057C0009400EE94004053900677E0FFEFC39408F6
:1057D00050489002AE12068A1203F0FF900677E05E
:1057E000FEEEFD7C00ED2400FDEC3460FC8D828C2F
:1057F00083EFF09002AE12068AE92401F9EA340040
:10580000FA9002AE120693900677E004F09002AC94
:1058100074FF75F0FF120470809C9002B5E0FFEFFA
:105820006408600B900677E0FFEFD39400401C9073
:1058300002BEE0FFEF6480FF9002BEEFF0900243F3
:10584000740FF09002BF7402F0800C900243740257
:10585000F09002BF7402F0900677E0FF9002B5EF7F
:10586000F0900677E0FF900246EFF0229003B4E458
:10587000F0A3E4F09003A2E4F0A37401F09003B26B
:10588000E4F0A3E4F09003A0E4F0A3E4F07B017A59
:105890000379B4C003C002C0017BFF7A8B794490C6
:1058A0000003120693900006E4F0A37402F0D00106
:1058B000D002D0031223567B017A0379A2C003C021
:1058C00002C0017BFF7A8B79469000031206939009
:1058D0000006E4F0A37402F0D001D002D00312233A
:1058E000567B017A0379B2C003C002C0017BFF7A04
:1058F000847984900003120693900006E4F0A37468
:1059000002F0D001D002D0031223567B017A037932
:10591000A0C003C002C0017BFF7A84798690000397
:10592000120693900006E4F0A37402F0D001D002B6
:10593000D003122356229004E9EEF0A3EFF0128177
:10594000D79004EEEFF0904007E0FF7E00EF7F007D
:10595000FE9004ECEEF0A3EFF09004ECE0FEA3E088
:10596000FF904006E0FD7C00EE4CFEEF4DFF900402
:10597000ECEEF0A3EFF09004E9E0FEA3E0FFEF4EC1
:10598000600C9004ECE0FEA3E0FFEF4E705E9040F0
:1059900004E0FF9004EBEFF09004EBE0FFEFC39422
:1059A0000750057F071282459004E9E0FEA3E0FF5F
:1059B000EF4E7018904008E0FFEF4440FFEFF0908A
:1059C00004E9E0FEA3E0FF1274E980169004E9E028
:1059D000FEA3E0FF1274E9904008E0FFEF54BFFF20
:1059E000EFF09004EBE0FF128245800B9004E9E0B9
:1059F000FEA3E0FF1274E99004EEE0FF12809F2204
:105A00009003FE7401F0900409E4F07F10127E9D73
:105A10007F10127EBE7D077F1D12706690589674AF
:105A200007F0905897E4F090589EE4F0905B07E000
:105A3000FFEF4418FFEFF0905893E4F0905B88E498
:105A4000F0905B89E4F0905880740AF0905881E4FB
:105A5000F0905883E4F09058887412F0905889744C
:105A600013F090588DE4F0904E017414F09003E020
:105A7000740CF09003E17401F07B007A807D6B7C04
:105A80008D7F021230A39003FEE0FFEF75F003A4B8
:105A90002405F582E43404F583E0FF904E0EEFF028
:105AA0009003FEE0FFEF75F003A42403F582E434D5
:105AB00004F583E0FCA3E0FD7B027A4E790C1283AF
:105AC000159003FEE0FF12536C229003C97430F06E
:105AD0007BFF7AEE7966C003C002C0017B017A03C6
